{
	"data": {
		"bytecode": {
			"linkReferences": {
				"MatchMaker_flat.sol": {
					"AuctionFunctions": [
						{
							"length": 20,
							"start": 5537
						},
						{
							"length": 20,
							"start": 7303
						}
					],
					"SquadHelpers": [
						{
							"length": 20,
							"start": 2451
						},
						{
							"length": 20,
							"start": 10503
						},
						{
							"length": 20,
							"start": 10844
						},
						{
							"length": 20,
							"start": 10994
						},
						{
							"length": 20,
							"start": 11219
						},
						{
							"length": 20,
							"start": 11369
						}
					],
					"UnitHelpers": [
						{
							"length": 20,
							"start": 1867
						},
						{
							"length": 20,
							"start": 2153
						},
						{
							"length": 20,
							"start": 5167
						},
						{
							"length": 20,
							"start": 7990
						},
						{
							"length": 20,
							"start": 9464
						},
						{
							"length": 20,
							"start": 9738
						}
					]
				},
				"tests/AutoChess_test.sol": {
					"testFunctions": [
						{
							"length": 20,
							"start": 182
						},
						{
							"length": 20,
							"start": 614
						},
						{
							"length": 20,
							"start": 691
						}
					]
				}
			},
			"object": "608060405234801561001057600080fd5b506149f9806100206000396000f3fe60806040523480156200001157600080fd5b5060043610620000525760003560e01c80630259be2414620000575780637fea0d4b1462000063578063d23d3722146200006d578063deead6db1462000077575b600080fd5b6200006162000081565b005b6200006162000102565b6200006162000231565b620000616200027e565b60005460015460405163fcfdafdb60e01b815273__$f27e1bdd82fb457056ee808bb65ea4ebba$__9263fcfdafdb92620000ce926001600160a01b03928316929091169060040162000309565b60006040518083038186803b158015620000e757600080fd5b505af4158015620000fc573d6000803e3d6000fd5b50505050565b6040516200011090620002cb565b604051809103906000f0801580156200012d573d6000803e3d6000fd5b50600080546001600160a01b0319166001600160a01b03928316179081905560408051634ccba91360e11b8152905191909216916399975226916004808301926020929190829003018186803b1580156200018757600080fd5b505afa1580156200019c573d6000803e3d6000fd5b505050506040513d601f19601f82011682018060405250810190620001c29190620002d9565b600180546001600160a01b0319166001600160a01b039283161790819055604080516344f5834560e11b8152905191909216916389eb068a91600480830192600092919082900301818387803b1580156200021c57600080fd5b505af1158015620000fc573d6000803e3d6000fd5b60005460015460405163fba70d4560e01b815273__$f27e1bdd82fb457056ee808bb65ea4ebba$__9263fba70d4592620000ce926001600160a01b03928316929091169060040162000309565b60005460015460405163d024487360e01b815273__$f27e1bdd82fb457056ee808bb65ea4ebba$__9263d024487392620000ce926001600160a01b03928316929091169060040162000309565b6146a0806200032483390190565b600060208284031215620002eb578081fd5b81516001600160a01b038116811462000302578182fd5b9392505050565b6001600160a01b039283168152911660208201526040019056fe60806040526000600d553060405162000018906200071b565b620000249190620007e6565b604051809103906000f08015801562000041573d6000803e3d6000fd5b50600e80546001600160a01b0319166001600160a01b03929092169190911790553480156200006f57600080fd5b5060408051600780825261010082019092526000916020820160e080368337505060408051600580825260c0820190925292935060009291506020820160a080368337505060408051600380825260808201909252929350600092915060208201606080368337505060408051600180825281830190925292935060009291506020808301908036833701905050905060005b600781101562000180576200013f306002604051806040016040528060078152602001661111519055531560ca1b815250620003d460201b60201c565b8582815181106200016057634e487b7160e01b600052603260045260246000fd5b6020908102919091010152620001786001826200098e565b905062000102565b5060005b60058110156200020257620001c1306002604051806040016040528060078152602001661111519055531560ca1b815250620003d460201b60201c565b848281518110620001e257634e487b7160e01b600052603260045260246000fd5b6020908102919091010152620001fa6001826200098e565b905062000184565b5060005b6003811015620002845762000243306002604051806040016040528060078152602001661111519055531560ca1b815250620003d460201b60201c565b8382815181106200026457634e487b7160e01b600052603260045260246000fd5b60209081029190910101526200027c6001826200098e565b905062000206565b5060005b60018110156200030657620002c5306002604051806040016040528060078152602001661111519055531560ca1b815250620003d460201b60201c565b828281518110620002e657634e487b7160e01b600052603260045260246000fd5b6020908102919091010152620002fe6001826200098e565b905062000288565b5060015460101015620003365760405162461bcd60e51b81526004016200032d9062000829565b60405180910390fd5b3060009081526006602052604090205460101015620003695760405162461bcd60e51b81526004016200032d9062000897565b6200037530856200063b565b5062000384905030846200063b565b5062000393905030836200063b565b50620003a2905030826200063b565b505060085460041015620003ca5760405162461bcd60e51b81526004016200032d9062000860565b50505050620009b3565b600080836002811115620003f857634e487b7160e01b600052602160045260246000fd5b60405163b9bf30a560e01b815273__$fc5b9f10ef01c0fbaa7e8430f43b2a1a96$__9163b9bf30a59162000430919060040162000813565b60206040518083038186803b1580156200044957600080fd5b505af41580156200045e573d6000803e3d6000fd5b505050506040513d601f19601f8201168201806040525081019062000484919062000752565b600e5460405163af7d6ca360e01b815261ffff9290921692506001600160a01b03169063af7d6ca390620004bf9088908590600401620007fa565b602060405180830381600087803b158015620004da57600080fd5b505af1158015620004ef573d6000803e3d6000fd5b505050506040513d601f19601f8201168201806040525081019062000515919062000729565b50604051635b254bdd60e11b815273__$fc5b9f10ef01c0fbaa7e8430f43b2a1a96$__9063b64a97ba9062000554906000908890889060040162000920565b60206040518083038186803b1580156200056d57600080fd5b505af415801562000582573d6000803e3d6000fd5b505050506040513d601f19601f82011682018060405250810190620005a8919062000776565b9150817fb89be3b4bdc4059b3e8638ac07ef31fb78418648ffa34eaccb60b1c60f318d2986604051620005dc9190620007e6565b60405180910390a2600082815260036020908152604080832080546001600160a01b0319166001600160a01b038a169081179091558352600690915281208054600192906200062d9084906200098e565b909155509195945050505050565b604051630472603d60e51b8152600090819073__$e598ee709e79d795bb13e4d83407277192$__90638e4c07a0906200068090600790859088908a90600401620008b5565b604080518083038186803b1580156200069857600080fd5b505af4158015620006ad573d6000803e3d6000fd5b505050506040513d601f19601f82011682018060405250810190620006d391906200078f565b60405191935091507f67f794a23800c26d9e9ce3c51a9e95dd2c5a724c30030822f589294afc81231b906200070c9086908590620007fa565b60405180910390a19250929050565b610b638062003b3d83390190565b6000602082840312156200073b578081fd5b815180151581146200074b578182fd5b9392505050565b60006020828403121562000764578081fd5b815161ffff811681146200074b578182fd5b60006020828403121562000788578081fd5b5051919050565b60008060408385031215620007a2578081fd5b82519150602083015160068110620007b8578182fd5b809150509250929050565b60038110620007e257634e487b7160e01b600052602160045260246000fd5b9052565b6001600160a01b0391909116815260200190565b6001600160a01b03929092168252602082015260400190565b60208101620008238284620007c3565b92915050565b60208082526016908201527f746f6f206d616e7920756e697473206372656174656400000000000000000000604082015260600190565b60208082526017908201527f546f6f206d616e79207371756164732063726561746564000000000000000000604082015260600190565b602080825260049082015263686d6d6d60e01b604082015260600190565b600060808201868352602086818501526080604085015281865180845260a0860191508288019350845b81811015620008fd57845183529383019391830191600101620008df565b50506001600160a01b039590951660609490940193909352509195945050505050565b600084825260206200093581840186620007c3565b606060408401528351806060850152825b81811015620009645785810183015185820160800152820162000946565b81811115620009765783608083870101525b50601f01601f19169290920160800195945050505050565b60008219821115620009ae57634e487b7160e01b81526011600452602481fd5b500190565b61317a80620009c36000396000f3fe608060405234801561001057600080fd5b50600436106101da5760003560e01c806376d4fc5711610104578063a2e1b4d0116100a2578063c44e664011610071578063c44e664014610409578063d7c0691914610411578063e4b50cb814610426578063e56053eb14610446576101da565b8063a2e1b4d0146103bb578063a367dd3c146103d0578063a9059cbb146103e3578063b5fc9833146103f6576101da565b8063898f4299116100de578063898f42991461038557806395d89b411461039857806399975226146103a05780639aafc6c9146103a8576101da565b806376d4fc571461033f5780638462151c14610352578063857f47d214610365576101da565b806354c8a21e1161017c57806364e0b81f1161014b57806364e0b81f146102e657806369a0e966146102f957806370a0823114610319578063727954fd1461032c576101da565b806354c8a21e14610280578063598647f8146102935780635bc60976146102a65780636352211e146102c6576101da565b806323b872dd116101b857806323b872dd1461022757806327e782021461023a5780632e009f761461024d5780634282ef981461026d576101da565b806306fdde03146101df578063095ea7b3146101fd57806318160ddd14610212575b600080fd5b6101e7610459565b6040516101f49190612b7d565b60405180910390f35b61021061020b3660046124d2565b610487565b005b61021a6105f6565b6040516101f49190612ff4565b610210610235366004612497565b6105fc565b61021a610248366004612774565b6107ca565b61026061025b3660046127fd565b61080c565b6040516101f49190612b5b565b61021a61027b366004612476565b610821565b61021a61028e3660046126c1565b61083c565b6102106102a136600461285c565b610927565b6102b96102b4366004612476565b610947565b6040516101f49190612b2e565b6102d96102d43660046127fd565b610a37565b6040516101f49190612987565b6102b96102f4366004612758565b610a52565b61030c6103073660046127fd565b610be8565b6040516101f49190612f2b565b61021a610327366004612476565b610ca8565b6102b961033a3660046127fd565b610cfe565b61021061034d36600461287d565b610d84565b6102b9610360366004612476565b610deb565b6103786103733660046127fd565b610ed4565b6040516101f49190612b41565b61021a610393366004612790565b610ee9565b6101e7610f34565b6102d9610f54565b6102106103b63660046127fd565b610f63565b6103c3610ffa565b6040516101f49190612ace565b6102b96103de3660046127fd565b6110d8565b6102106103f13660046124d2565b61113c565b6102106104043660046127fd565b6112c1565b61021a6113c0565b6104196113c6565b6040516101f491906129f5565b6104396104343660046127fd565b6115d3565b6040516101f49190612f92565b61021a610454366004612677565b611747565b60408051808201909152601481527320baba37a1b432b9b9902ab734ba102a37b5b2b760611b602082015290565b33828261049381610a37565b6001600160a01b0316836001600160a01b0316146104cc5760405162461bcd60e51b81526004016104c390612d65565b60405180910390fd5b816001600160a01b0316836001600160a01b031614156104fe5760405162461bcd60e51b81526004016104c390612c30565b600360008281526002602052604090205460ff16600481111561053157634e487b7160e01b600052602160045260246000fd5b1461054e5760405162461bcd60e51b81526004016104c390612d9c565b6001600160a01b0382166105745760405162461bcd60e51b81526004016104c390612cc5565b600084815260046020818152604080842080546001600160a01b0319166001600160a01b038b161790556002909152909120805460ff191660018302179055507f8c5be1e5ebec7d5bd14f71427d1e84f3dd0314c0f7b2291e5b200ac8c7c3b9253386866040516105e79392919061299b565b60405180910390a15050505050565b600d5490565b82828261060881610a37565b6001600160a01b0316836001600160a01b0316146106385760405162461bcd60e51b81526004016104c390612d65565b816001600160a01b0316836001600160a01b0316141561066a5760405162461bcd60e51b81526004016104c390612c30565b600360008281526002602052604090205460ff16600481111561069d57634e487b7160e01b600052602160045260246000fd5b146106ba5760405162461bcd60e51b81526004016104c390612d9c565b6001600160a01b0382166106e05760405162461bcd60e51b81526004016104c390612cc5565b6000848152600460205260409020546001600160a01b038681169116146107195760405162461bcd60e51b81526004016104c390612cfc565b604051632149e0dd60e11b815273__$fc5b9f10ef01c0fbaa7e8430f43b2a1a96$__90634293c1ba90610757906000908a908a908a90600401612f3e565b60006040518083038186803b15801561076f57600080fd5b505af4158015610783573d6000803e3d6000fd5b505050507fddf252ad1be2c89b69c2b068fc378daa952ba7f163c4a11628f55a4df523b3ef8686866040516107ba9392919061299b565b60405180910390a1505050505050565b60006108043383604051806040016040528060158152602001744d6175726963652c20746865204d6564696f63726560581b8152506117bf565b90505b919050565b60009081526002602052604090205460ff1690565b6001600160a01b03166000908152600b602052604090205490565b6000805b8581101561088a576108783388888481811061086c57634e487b7160e01b600052603260045260246000fd5b90506020020135611a0f565b80610882816130cd565b915050610840565b50604051630f8cd9cd60e01b815273__$df95346506231f8a1998d6cd168cb00904$__90630f8cd9cd906108cd90600f908a908a908a908a908a90600401612df9565b60206040518083038186803b1580156108e557600080fd5b505af41580156108f9573d6000803e3d6000fd5b505050506040513d601f19601f8201168201806040525081019061091d9190612815565b9695505050505050565b600e5461094390600f90849084906001600160a01b0316611aca565b5050565b6001600160a01b0381166000908152600b60205260408120546060919067ffffffffffffffff81111561098a57634e487b7160e01b600052604160045260246000fd5b6040519080825280602002602001820160405280156109b3578160200160208202803683370190505b50915060005b600854811015610a30576000818152600960205260409020546001600160a01b0385811691161415610a1e578083836109f1816130cd565b945081518110610a1157634e487b7160e01b600052603260045260246000fd5b6020026020010181815250505b80610a28816130cd565b9150506109b9565b5050919050565b6000908152600360205260409020546001600160a01b031690565b60606000826005811115610a7657634e487b7160e01b600052602160045260246000fd5b1415610a945760405162461bcd60e51b81526004016104c390612d3d565b6000600c81846005811115610ab957634e487b7160e01b600052602160045260246000fd5b6005811115610ad857634e487b7160e01b600052602160045260246000fd5b81526020019081526020016000205467ffffffffffffffff811115610b0d57634e487b7160e01b600052604160045260246000fd5b604051908082528060200260200182016040528015610b36578160200160208202803683370190505b50915060005b600854811015610a3057836005811115610b6657634e487b7160e01b600052602160045260246000fd5b6000828152600a602052604090205460ff166005811115610b9757634e487b7160e01b600052602160045260246000fd5b1415610bd657808383610ba9816130cd565b945081518110610bc957634e487b7160e01b600052603260045260246000fd5b6020026020010181815250505b80610be0816130cd565b915050610b3c565b610bf061227f565b6008805483908110610c1257634e487b7160e01b600052603260045260246000fd5b906000526020600020906002020160405180606001604052908160008201805480602002602001604051908101604052809291908181526020018280548015610c7a57602002820191906000526020600020905b815481526020019060010190808311610c66575b50505091835250506001919091015461ffff8082166020840152620100009091041660409091015292915050565b6000805b600154811015610cf8576000818152600360205260409020546001600160a01b0384811691161415610ce65781610ce2816130cd565b9250505b80610cf0816130cd565b915050610cac565b50919050565b606060076001018281548110610d2457634e487b7160e01b600052603260045260246000fd5b60009182526020918290206002909102018054604080518285028101850190915281815292830182828015610d7857602002820191906000526020600020905b815481526020019060010190808311610d64575b50505050509050919050565b600e54610da090600f90869086906001600160a01b0316611aca565b8181600f6000018681548110610dc657634e487b7160e01b600052603260045260246000fd5b90600052602060002090600702016005019190610de492919061229f565b5050505050565b6001600160a01b0381166000908152600660205260408120546060919067ffffffffffffffff811115610e2e57634e487b7160e01b600052604160045260246000fd5b604051908082528060200260200182016040528015610e57578160200160208202803683370190505b50915060005b600154811015610a30576000818152600360205260409020546001600160a01b0385811691161415610ec257808383610e95816130cd565b945081518110610eb557634e487b7160e01b600052603260045260246000fd5b6020026020010181815250505b80610ecc816130cd565b915050610e5d565b6000908152600a602052604090205460ff1690565b6000610f2c338585858080601f0160208091040260200160405190810160405280939291908181526020018383808284376000920191909152506117bf92505050565b949350505050565b60408051808201909152600681526541434853535560d01b602082015290565b600e546001600160a01b031681565b610f6e600f82611b0b565b600e5460405163803bc39360e01b815273__$df95346506231f8a1998d6cd168cb00904$__9263803bc39392610fb3926000916001600160a01b031690600401612e6f565b60006040518083038186803b158015610fcb57600080fd5b505af4158015610fdf573d6000803e3d6000fd5b50505050610ff781600f611b4790919063ffffffff16565b50565b60606007600101805480602002602001604051908101604052809291908181526020016000905b828210156110cf57838290600052602060002090600202016040518060600160405290816000820180548060200260200160405190810160405280929190818152602001828054801561109357602002820191906000526020600020905b81548152602001906001019080831161107f575b505050918352505060019182015461ffff8082166020808501919091526201000090920416604090920191909152918352929092019101611021565b50505050905090565b60606110e5600f83611b0b565b600101805480602002602001604051908101604052809291908181526020018280548015610d785760200282019190600052602060002090815481526020019060010190808311610d645750505050509050919050565b33828261114881610a37565b6001600160a01b0316836001600160a01b0316146111785760405162461bcd60e51b81526004016104c390612d65565b816001600160a01b0316836001600160a01b031614156111aa5760405162461bcd60e51b81526004016104c390612c30565b600360008281526002602052604090205460ff1660048111156111dd57634e487b7160e01b600052602160045260246000fd5b146111fa5760405162461bcd60e51b81526004016104c390612d9c565b6001600160a01b0382166112205760405162461bcd60e51b81526004016104c390612cc5565b604051632149e0dd60e11b815273__$fc5b9f10ef01c0fbaa7e8430f43b2a1a96$__90634293c1ba9061125e9060009033908a908a90600401612f3e565b60006040518083038186803b15801561127657600080fd5b505af415801561128a573d6000803e3d6000fd5b505050507fddf252ad1be2c89b69c2b068fc378daa952ba7f163c4a11628f55a4df523b3ef3386866040516105e79392919061299b565b336112cd600f83611b0b565b600301546001600160a01b0316146112f75760405162461bcd60e51b81526004016104c390612beb565b33611303600f83611b0b565b600201546001600160a01b03161461131a57600080fd5b60005b611328600f83611b0b565b6001015481101561094357600360026000611344600f86611b0b565b600101848154811061136657634e487b7160e01b600052603260045260246000fd5b600091825260208083209091015483528201929092526040019020805460ff191660018360048111156113a957634e487b7160e01b600052602160045260246000fd5b0217905550806113b8816130cd565b91505061131d565b600f5490565b6060600f600001805480602002602001604051908101604052809291908181526020016000905b828210156110cf57838290600052602060002090600702016040518060e0016040529081600082015481526020016001820180548060200260200160405190810160405280929190818152602001828054801561146957602002820191906000526020600020905b815481526020019060010190808311611455575b505050918352505060028201546001600160a01b03908116602083015260038301541660408201526004820180546060909201916114a690613098565b80601f01602080910402602001604051908101604052809291908181526020018280546114d290613098565b801561151f5780601f106114f45761010080835404028352916020019161151f565b820191906000526020600020905b81548152906001019060200180831161150257829003601f168201915b5050505050815260200160058201805461153890613098565b80601f016020809104026020016040519081016040528092919081815260200182805461156490613098565b80156115b15780601f10611586576101008083540402835291602001916115b1565b820191906000526020600020905b81548152906001019060200180831161159457829003601f168201915b50505050508152602001600682015481525050815260200190600101906113ed565b6115db612323565b60018054839081106115fd57634e487b7160e01b600052603260045260246000fd5b60009182526020918290206040805160c0810182526002938402909201805461ffff80821685526201000082048116968501969096526401000000008104861692840192909252660100000000000082049094166060830152909291608084019168010000000000000000900460ff169081111561168b57634e487b7160e01b600052602160045260246000fd5b60028111156116aa57634e487b7160e01b600052602160045260246000fd5b81526020016001820180546116be90613098565b80601f01602080910402602001604051908101604052809291908181526020018280546116ea90613098565b80156117375780601f1061170c57610100808354040283529160200191611737565b820191906000526020600020905b81548152906001019060200180831161171a57829003601f168201915b5050505050815250509050919050565b60008061178733868680806020026020016040519081016040528093929190818152602001838360200280828437600092019190915250611bec92505050565b9092509050828214156117ac5760405162461bcd60e51b81526004016104c390612bb4565b6117b68284611cc4565b50509392505050565b6000808360028111156117e257634e487b7160e01b600052602160045260246000fd5b60405163b9bf30a560e01b815273__$fc5b9f10ef01c0fbaa7e8430f43b2a1a96$__9163b9bf30a5916118189190600401612b6f565b60206040518083038186803b15801561183057600080fd5b505af4158015611844573d6000803e3d6000fd5b505050506040513d601f19601f8201168201806040525081019061186891906127e3565b600e5460405163af7d6ca360e01b815261ffff9290921692506001600160a01b03169063af7d6ca3906118a190889085906004016129dc565b602060405180830381600087803b1580156118bb57600080fd5b505af11580156118cf573d6000803e3d6000fd5b505050506040513d601f19601f820116820180604052508101906118f39190612738565b50604051635b254bdd60e11b815273__$fc5b9f10ef01c0fbaa7e8430f43b2a1a96$__9063b64a97ba906119309060009088908890600401612f63565b60206040518083038186803b15801561194857600080fd5b505af415801561195c573d6000803e3d6000fd5b505050506040513d601f19601f820116820180604052508101906119809190612815565b9150817fb89be3b4bdc4059b3e8638ac07ef31fb78418648ffa34eaccb60b1c60f318d29866040516119b29190612987565b60405180910390a2600082815260036020908152604080832080546001600160a01b0319166001600160a01b038a16908117909155835260069091528120805460019290611a01908490613054565b909155509195945050505050565b611a1881610a37565b6001600160a01b0316826001600160a01b031614611a485760405162461bcd60e51b81526004016104c390612d65565b600360008281526002602052604090205460ff166004811115611a7b57634e487b7160e01b600052602160045260246000fd5b14611a985760405162461bcd60e51b81526004016104c390612d9c565b6001600160a01b038216611aab57600080fd5b6000908152600260208190526040909120805460ff1916909117905550565b611b05846000018481548110611af057634e487b7160e01b600052603260045260246000fd5b906000526020600020906007020183836120dd565b50505050565b6000826000018281548110611b3057634e487b7160e01b600052603260045260246000fd5b906000526020600020906007020190505b92915050565b600180830180549182018155600090815260209020018190558154829082908110611b8257634e487b7160e01b600052603260045260246000fd5b60009182526020822060079091020181815590611ba26001830182612359565b6002820180546001600160a01b03199081169091556003830180549091169055611bd0600483016000612377565b611bde600583016000612377565b600682016000905550505050565b604051630472603d60e51b8152600090819073__$e598ee709e79d795bb13e4d83407277192$__90638e4c07a090611c2f90600790859088908a90600401612e8e565b604080518083038186803b158015611c4657600080fd5b505af4158015611c5a573d6000803e3d6000fd5b505050506040513d601f19601f82011682018060405250810190611c7e919061282d565b60405191935091507f67f794a23800c26d9e9ce3c51a9e95dd2c5a724c30030822f589294afc81231b90611cb590869085906129dc565b60405180910390a19250929050565b6000818152600a602052604081205460ff166005811115611cf557634e487b7160e01b600052602160045260246000fd5b6000848152600a602052604090205460ff166005811115611d2657634e487b7160e01b600052602160045260246000fd5b14611d435760405162461bcd60e51b81526004016104c390612b90565b60405163b0258af760e01b815260009073__$e598ee709e79d795bb13e4d83407277192$__9063b0258af790611d829060079088908690600401612f15565b60006040518083038186803b158015611d9a57600080fd5b505af4158015611dae573d6000803e3d6000fd5b505050506040513d6000823e601f3d908101601f19168201604052611dd691908101906124fb565b60405163b0258af760e01b815290915060009073__$e598ee709e79d795bb13e4d83407277192$__9063b0258af790611e189060079088908690600401612f15565b60006040518083038186803b158015611e3057600080fd5b505af4158015611e44573d6000803e3d6000fd5b505050506040513d6000823e601f3d908101601f19168201604052611e6c91908101906124fb565b825181519192509060ff80831690821614611e995760405162461bcd60e51b81526004016104c390612c67565b60008060016000898152600960205260409020546001600160a01b0316301415611f5357604051635a4c02df60e11b815273__$e598ee709e79d795bb13e4d83407277192$__9063b49805be90611efc906007906000908e908a90600401612ef7565b60206040518083038186803b158015611f1457600080fd5b505af4158015611f28573d6000803e3d6000fd5b505050506040513d601f19601f82011682018060405250810190611f4c91906127e3565b9750612093565b60405163148e72d960e11b815273__$e598ee709e79d795bb13e4d83407277192$__9063291ce5b290611f92906007906000908e908a90600401612ef7565b60206040518083038186803b158015611faa57600080fd5b505af4158015611fbe573d6000803e3d6000fd5b505050506040513d601f19601f82011682018060405250810190611fe291906127e3565b600e5460008b8152600960205260409020549199506001600160a01b03908116916347e7ef24911661201560078d612244565b600101546040516001600160e01b031960e085901b16815261203f929161ffff16906004016129bf565b602060405180830381600087803b15801561205957600080fd5b505af115801561206d573d6000803e3d6000fd5b505050506040513d601f19601f820116820180604052508101906120919190612738565b505b8761209f60078c612244565b60010180546000906120b690849061ffff1661302e565b92506101000a81548161ffff021916908361ffff1602179055505050505050505092915050565b825482116120fd5760405162461bcd60e51b81526004016104c390612c8e565b42836006015410156121215760405162461bcd60e51b81526004016104c390612dc9565b60405163af7d6ca360e01b81526001600160a01b0382169063af7d6ca39061214f90339086906004016129dc565b602060405180830381600087803b15801561216957600080fd5b505af115801561217d573d6000803e3d6000fd5b505050506040513d601f19601f820116820180604052508101906121a19190612738565b50600283015483546040516311f9fbc960e21b81526001600160a01b03848116936347e7ef24936121d99392909116916004016129dc565b602060405180830381600087803b1580156121f357600080fd5b505af1158015612207573d6000803e3d6000fd5b505050506040513d601f19601f8201168201806040525081019061222b9190612738565b5050815560020180546001600160a01b03191633179055565b600082600101828154811061226957634e487b7160e01b600052603260045260246000fd5b9060005260206000209060020201905092915050565b604080516060808201835281526000602082018190529181019190915290565b8280546122ab90613098565b90600052602060002090601f0160209004810192826122cd5760008555612313565b82601f106122e65782800160ff19823516178555612313565b82800160010185558215612313579182015b828111156123135782358255916020019190600101906122f8565b5061231f9291506123af565b5090565b6040805160c081018252600080825260208201819052918101829052606081018290529060808201908152602001606081525090565b5080546000825590600052602060002090810190610ff791906123af565b50805461238390613098565b6000825580601f106123955750610ff7565b601f016020900490600052602060002090810190610ff791905b5b8082111561231f57600081556001016123b0565b80356001600160a01b038116811461080757600080fd5b60008083601f8401126123ec578182fd5b50813567ffffffffffffffff811115612403578182fd5b602083019150836020808302850101111561241d57600080fd5b9250929050565b60008083601f840112612435578182fd5b50813567ffffffffffffffff81111561244c578182fd5b60208301915083602082850101111561241d57600080fd5b805161ffff8116811461080757600080fd5b600060208284031215612487578081fd5b612490826123c4565b9392505050565b6000806000606084860312156124ab578182fd5b6124b4846123c4565b92506124c2602085016123c4565b9150604084013590509250925092565b600080604083850312156124e4578182fd5b6124ed836123c4565b946020939093013593505050565b6000602080838503121561250d578182fd5b825167ffffffffffffffff80821115612524578384fd5b818501915085601f830112612537578384fd5b81518181111561254957612549613114565b6125568485830201612ffd565b81815284810190848601875b848110156126685781518701601f1960c0828e0382011215612582578a8bfd5b61258c60c0612ffd565b6125978b8401612464565b815260406125a6818501612464565b8c8301526125b660608501612464565b818301526125c660808501612464565b606083015260a08401516125d981613137565b608083015260c08401518a8111156125ef578d8efd5b8085019450508e603f850112612603578c8dfd5b8b8401518a81111561261757612617613114565b6126278d85601f84011601612ffd565b93508084528f8282870101111561263c578d8efd5b61264b818e860184880161306c565b505060a08101919091528552509287019290870190600101612562565b50909998505050505050505050565b60008060006040848603121561268b578283fd5b833567ffffffffffffffff8111156126a1578384fd5b6126ad868287016123db565b909790965060209590950135949350505050565b6000806000806000606086880312156126d8578081fd5b853567ffffffffffffffff808211156126ef578283fd5b6126fb89838a016123db565b909750955060208801359450604088013591508082111561271a578283fd5b5061272788828901612424565b969995985093965092949392505050565b600060208284031215612749578081fd5b81518015158114612490578182fd5b600060208284031215612769578081fd5b81356124908161312a565b600060208284031215612785578081fd5b813561249081613137565b6000806000604084860312156127a4578081fd5b83356127af81613137565b9250602084013567ffffffffffffffff8111156127ca578182fd5b6127d686828701612424565b9497909650939450505050565b6000602082840312156127f4578081fd5b61249082612464565b60006020828403121561280e578081fd5b5035919050565b600060208284031215612826578081fd5b5051919050565b6000806040838503121561283f578182fd5b8251915060208301516128518161312a565b809150509250929050565b6000806040838503121561286e578182fd5b50508035926020909101359150565b60008060008060608587031215612892578182fd5b8435935060208501359250604085013567ffffffffffffffff8111156128b6578283fd5b6128c287828801612424565b95989497509550505050565b6000815180845260208085019450808401835b838110156128fd578151875295820195908201906001016128e1565b509495945050505050565b60038110612918576129186130fe565b9052565b6000815180845261293481602086016020860161306c565b601f01601f19169290920160200192915050565b600081516060845261295d60608501826128ce565b9050602083015161ffff808216602087015280604086015116604087015250508091505092915050565b6001600160a01b0391909116815260200190565b6001600160a01b039384168152919092166020820152604081019190915260600190565b6001600160a01b0392909216825261ffff16602082015260400190565b6001600160a01b03929092168252602082015260400190565b60208082528251828201819052600091906040908185019080840286018301878501865b83811015612ac057603f19898403018552815160e08151855288820151818a870152612a47828701826128ce565b838a01516001600160a01b03908116888c015260608086015190911690880152608080850151888303828a01529193509150612a83838261291c565b9250505060a08083015186830382880152612a9e838261291c565b60c0948501519790940196909652505094870194925090860190600101612a19565b509098975050505050505050565b6000602080830181845280855180835260408601915060408482028701019250838701855b82811015612b2157603f19888603018452612b0f858351612948565b94509285019290850190600101612af3565b5092979650505050505050565b60006020825261249060208301846128ce565b6020810160068310612b5557612b556130fe565b91905290565b6020810160058310612b5557612b556130fe565b60208101611b418284612908565b600060208252612490602083018461291c565b6020808252600a90820152693bb937b733903a34b2b960b11b604082015260600190565b60208082526017908201527f756e69742063616e277420666967687420697473656c66000000000000000000604082015260600190565b60208082526025908201527f596f7520617265206e6f742074686520686f7374206f6620746869732061756360408201526474696f6e2160d81b606082015260800190565b60208082526019908201527f596f7520616c7265616479206f776e207468697320756e697400000000000000604082015260600190565b6020808252600d908201526c696e657175616c2073697a657360981b604082015260600190565b6020808252601e908201527f54686973206973206e6f742061206e6577206869676865737420626964210000604082015260600190565b6020808252601b908201527f4e6f7420612076616c696420616464726573732e20536f727279210000000000604082015260600190565b60208082526021908201527f556e6974206973206e6f742070726f6d6973656420746f2074686174207573656040820152603960f91b606082015260800190565b6020808252600e908201526d496e76616c69642063686f69636560901b604082015260600190565b60208082526017908201527f596f7520646f6e2774206f776e207468697320756e6974000000000000000000604082015260600190565b602080825260139082015272556e697420697320756e617661696c61626c6560681b604082015260600190565b602080825260169082015275497420697320746f6f206c61746520746f206269642160501b604082015260600190565b868152608060208201819052810185905260006001600160fb1b03861115612e1f578081fd5b60208602808860a085013760408301869052820182810360a090810160608501528101849052838560c08301378160c0858301015260c0601f19601f860116820101915050979650505050505050565b92835260208301919091526001600160a01b0316604082015260600190565b600060808201868352602086818501526080604085015281865180845260a0860191508288019350845b81811015612ed457845183529383019391830191600101612eb8565b50506001600160a01b039590951660609490940193909352509195945050505050565b9384526020840192909252604083015260ff16606082015260800190565b9283526020830191909152604082015260600190565b6000602082526124906020830184612948565b9384526001600160a01b03928316602085015291166040830152606082015260800190565b6000848252612f756020830185612908565b60606040830152612f89606083018461291c565b95945050505050565b60006020825261ffff808451166020840152806020850151166040840152806040850151166060840152806060850151166080840152506080830151612fdb60a0840182612908565b5060a083015160c080840152610f2c60e084018261291c565b90815260200190565b604051601f8201601f1916810167ffffffffffffffff8111828210171561302657613026613114565b604052919050565b600061ffff80831681851680830382111561304b5761304b6130e8565b01949350505050565b60008219821115613067576130676130e8565b500190565b60005b8381101561308757818101518382015260200161306f565b83811115611b055750506000910152565b6002810460018216806130ac57607f821691505b60208210811415610cf857634e487b7160e01b600052602260045260246000fd5b60006000198214156130e1576130e16130e8565b5060010190565b634e487b7160e01b600052601160045260246000fd5b634e487b7160e01b600052602160045260246000fd5b634e487b7160e01b600052604160045260246000fd5b60068110610ff757600080fd5b60038110610ff757600080fdfea2646970667358221220b788f5f240457ff44ca59c49fe9b950301b51bd54f08ed0ef5797019b282950f64736f6c634300080100336080604052633b9aca0060005534801561001857600080fd5b50604051610b63380380610b638339810160408190526100379161006c565b600480546001600160a01b039092166001600160a01b031990921682179055600080549181526001602052604090205561009a565b60006020828403121561007d578081fd5b81516001600160a01b0381168114610093578182fd5b9392505050565b610aba806100a96000396000f3fe6080604052600436106100c25760003560e01c806370a082311161007f578063a9059cbb11610059578063a9059cbb146101d5578063af7d6ca3146101f5578063d4e7b8ad14610215578063dd62ed3e14610235576100c2565b806370a082311461018b57806389eb068a146101ab57806395d89b41146101c0576100c2565b806306fdde03146100c7578063095ea7b3146100f257806318160ddd1461011f57806323b872dd146101415780633290ce291461016157806347e7ef241461016b575b600080fd5b3480156100d357600080fd5b506100dc610255565b6040516100e991906108b8565b60405180910390f35b3480156100fe57600080fd5b5061011261010d366004610884565b610284565b6040516100e991906108ad565b34801561012b57600080fd5b50610134610298565b6040516100e99190610a17565b34801561014d57600080fd5b5061011261015c366004610849565b61029e565b6101696103ba565b005b34801561017757600080fd5b50610112610186366004610884565b6103eb565b34801561019757600080fd5b506101346101a63660046107fd565b6104ad565b3480156101b757600080fd5b506101696104cc565b3480156101cc57600080fd5b506100dc6104ee565b3480156101e157600080fd5b506101126101f0366004610884565b61050e565b34801561020157600080fd5b50610112610210366004610884565b6105c5565b34801561022157600080fd5b506101346102303660046107fd565b61069e565b34801561024157600080fd5b50610134610250366004610817565b6106d2565b60408051808201909152601581527420baba37a1b432b9b99029ba37b932902a37b5b2b760591b602082015290565b60006102913384846106fd565b9392505050565b60005490565b6001600160a01b03808416600090815260026020908152604080832093861683529290529081205482106102ed5760405162461bcd60e51b81526004016102e49061090b565b60405180910390fd5b6001600160a01b03808516600090815260026020908152604080832093871683529290529081208054849290610324908490610a57565b90915550506001600160a01b03841660009081526003602052604081208054849290610351908490610a57565b90915550506001600160a01b0384166000908152600160205260408120805484929061037e908490610a57565b90915550506001600160a01b038316600090815260016020526040812080548492906103ab908490610a20565b90915550600195945050505050565b6103c5346064610a38565b33600090815260016020526040812080549091906103e4908490610a20565b9091555050565b6004546000906001600160a01b031633146104185760405162461bcd60e51b81526004016102e4906109cc565b816000808282546104299190610a20565b90915550506001600160a01b03831660009081526001602052604081208054849290610456908490610a20565b90915550506004546040516001600160a01b038086169216907fddf252ad1be2c89b69c2b068fc378daa952ba7f163c4a11628f55a4df523b3ef9061049c908690610a17565b60405180910390a350600192915050565b6001600160a01b0381166000908152600160205260409020545b919050565b3360009081526001602052604081208054620186a092906103e4908490610a20565b6040805180820190915260068152651050d214d4d560d21b602082015290565b60008161051a3361069e565b116105375760405162461bcd60e51b81526004016102e490610935565b3360009081526001602052604081208054849290610556908490610a57565b90915550506001600160a01b03831660009081526001602052604081208054849290610583908490610a20565b90915550506040516001600160a01b0384169033907fddf252ad1be2c89b69c2b068fc378daa952ba7f163c4a11628f55a4df523b3ef9061049c908690610a17565b6004546000906001600160a01b031633146105f25760405162461bcd60e51b81526004016102e4906109cc565b816105fc8461069e565b116106195760405162461bcd60e51b81526004016102e490610935565b8160008082825461062a9190610a57565b90915550506001600160a01b03831660009081526001602052604081208054849290610657908490610a57565b90915550506004546040516001600160a01b03918216918516907fddf252ad1be2c89b69c2b068fc378daa952ba7f163c4a11628f55a4df523b3ef9061049c908690610a17565b6001600160a01b03811660009081526003602090815260408083205460019092528220546106cc9190610a57565b92915050565b6001600160a01b03918216600090815260026020908152604080832093909416825291909152205490565b6000816107098561069e565b116107265760405162461bcd60e51b81526004016102e490610981565b6001600160a01b0380851660009081526002602090815260408083209387168352929052908120805484929061075d908490610a20565b90915550506001600160a01b0384166000908152600360205260408120805484929061078a908490610a20565b92505081905550826001600160a01b0316846001600160a01b03167f8c5be1e5ebec7d5bd14f71427d1e84f3dd0314c0f7b2291e5b200ac8c7c3b925846040516107d49190610a17565b60405180910390a35060019392505050565b80356001600160a01b03811681146104c757600080fd5b60006020828403121561080e578081fd5b610291826107e6565b60008060408385031215610829578081fd5b610832836107e6565b9150610840602084016107e6565b90509250929050565b60008060006060848603121561085d578081fd5b610866846107e6565b9250610874602085016107e6565b9150604084013590509250925092565b60008060408385031215610896578182fd5b61089f836107e6565b946020939093013593505050565b901515815260200190565b6000602080835283518082850152825b818110156108e4578581018301518582016040015282016108c8565b818111156108f55783604083870101525b50601f01601f1916929092016040019392505050565b60208082526010908201526f416d6f756e7420746f6f206c6172676560801b604082015260600190565b6020808252602c908201527f546f6f2066657720746f6b656e732061726520756e6c6f636b656420696e207960408201526b6f7572206163636f756e742160a01b606082015260800190565b6020808252602b908201527f546f6f2066657720746f6b656e732061726520756e6c6f636b656420696e207960408201526a1bdd5c881858d8dbdd5b9d60aa1b606082015260800190565b6020808252602b908201527f4f6e6c79207468652053746f726546726f6e7420697320616c6c6f776564207460408201526a37903ab9b2903a3434b99760a91b606082015260800190565b90815260200190565b60008219821115610a3357610a33610a6e565b500190565b6000816000190483118215151615610a5257610a52610a6e565b500290565b600082821015610a6957610a69610a6e565b500390565b634e487b7160e01b600052601160045260246000fdfea2646970667358221220c1e3e8f0b1dc7875207729568179a4aa4cef2cf44f1797ec24379b9c37462a8264736f6c63430008010033a264697066735822122085fccfe08fdbcd9fe047250b5db319639b648f8c9e23f097dbf990e374d4e7e564736f6c63430008010033",
			"opcodes": "PUSH1 0x80 PUSH1 0x40 MSTORE CALLVALUE DUP1 ISZERO PUSH2 0x10 JUMPI PUSH1 0x0 DUP1 REVERT JUMPDEST POP PUSH2 0x49F9 DUP1 PUSH2 0x20 PUSH1 0x0 CODECOPY PUSH1 0x0 RETURN INVALID PUSH1 0x80 PUSH1 0x40 MSTORE CALLVALUE DUP1 ISZERO PUSH3 0x11 JUMPI PUSH1 0x0 DUP1 REVERT JUMPDEST POP PUSH1 0x4 CALLDATASIZE LT PUSH3 0x52 JUMPI PUSH1 0x0 CALLDATALOAD PUSH1 0xE0 SHR DUP1 PUSH4 0x259BE24 EQ PUSH3 0x57 JUMPI DUP1 PUSH4 0x7FEA0D4B EQ PUSH3 0x63 JUMPI DUP1 PUSH4 0xD23D3722 EQ PUSH3 0x6D JUMPI DUP1 PUSH4 0xDEEAD6DB EQ PUSH3 0x77 JUMPI JUMPDEST PUSH1 0x0 DUP1 REVERT JUMPDEST PUSH3 0x61 PUSH3 0x81 JUMP JUMPDEST STOP JUMPDEST PUSH3 0x61 PUSH3 0x102 JUMP JUMPDEST PUSH3 0x61 PUSH3 0x231 JUMP JUMPDEST PUSH3 0x61 PUSH3 0x27E JUMP JUMPDEST PUSH1 0x0 SLOAD PUSH1 0x1 SLOAD PUSH1 0x40 MLOAD PUSH4 0xFCFDAFDB PUSH1 0xE0 SHL DUP2 MSTORE PUSH20 0x0 SWAP3 PUSH4 0xFCFDAFDB SWAP3 PUSH3 0xCE SWAP3 PUSH1 0x1 PUSH1 0x1 PUSH1 0xA0 SHL SUB SWAP3 DUP4 AND SWAP3 SWAP1 SWAP2 AND SWAP1 PUSH1 0x4 ADD PUSH3 0x309 JUMP JUMPDEST PUSH1 0x0 PUSH1 0x40 MLOAD DUP1 DUP4 SUB DUP2 DUP7 DUP1 EXTCODESIZE ISZERO DUP1 ISZERO PUSH3 0xE7 JUMPI PUSH1 0x0 DUP1 REVERT JUMPDEST POP GAS DELEGATECALL ISZERO DUP1 ISZERO PUSH3 0xFC JUMPI RETURNDATASIZE PUSH1 0x0 DUP1 RETURNDATACOPY RETURNDATASIZE PUSH1 0x0 REVERT JUMPDEST POP POP POP POP JUMP JUMPDEST PUSH1 0x40 MLOAD PUSH3 0x110 SWAP1 PUSH3 0x2CB JUMP JUMPDEST PUSH1 0x40 MLOAD DUP1 SWAP2 SUB SWAP1 PUSH1 0x0 CREATE DUP1 ISZERO DUP1 ISZERO PUSH3 0x12D JUMPI RETURNDATASIZE PUSH1 0x0 DUP1 RETURNDATACOPY RETURNDATASIZE PUSH1 0x0 REVERT JUMPDEST POP PUSH1 0x0 DUP1 SLOAD PUSH1 0x1 PUSH1 0x1 PUSH1 0xA0 SHL SUB NOT AND PUSH1 0x1 PUSH1 0x1 PUSH1 0xA0 SHL SUB SWAP3 DUP4 AND OR SWAP1 DUP2 SWAP1 SSTORE PUSH1 0x40 DUP1 MLOAD PUSH4 0x4CCBA913 PUSH1 0xE1 SHL DUP2 MSTORE SWAP1 MLOAD SWAP2 SWAP1 SWAP3 AND SWAP2 PUSH4 0x99975226 SWAP2 PUSH1 0x4 DUP1 DUP4 ADD SWAP3 PUSH1 0x20 SWAP3 SWAP2 SWAP1 DUP3 SWAP1 SUB ADD DUP2 DUP7 DUP1 EXTCODESIZE ISZERO DUP1 ISZERO PUSH3 0x187 JUMPI PUSH1 0x0 DUP1 REVERT JUMPDEST POP GAS STATICCALL ISZERO DUP1 ISZERO PUSH3 0x19C JUMPI RETURNDATASIZE PUSH1 0x0 DUP1 RETURNDATACOPY RETURNDATASIZE PUSH1 0x0 REVERT JUMPDEST POP POP POP POP PUSH1 0x40 MLOAD RETURNDATASIZE PUSH1 0x1F NOT PUSH1 0x1F DUP3 ADD AND DUP3 ADD DUP1 PUSH1 0x40 MSTORE POP DUP2 ADD SWAP1 PUSH3 0x1C2 SWAP2 SWAP1 PUSH3 0x2D9 JUMP JUMPDEST PUSH1 0x1 DUP1 SLOAD PUSH1 0x1 PUSH1 0x1 PUSH1 0xA0 SHL SUB NOT AND PUSH1 0x1 PUSH1 0x1 PUSH1 0xA0 SHL SUB SWAP3 DUP4 AND OR SWAP1 DUP2 SWAP1 SSTORE PUSH1 0x40 DUP1 MLOAD PUSH4 0x44F58345 PUSH1 0xE1 SHL DUP2 MSTORE SWAP1 MLOAD SWAP2 SWAP1 SWAP3 AND SWAP2 PUSH4 0x89EB068A SWAP2 PUSH1 0x4 DUP1 DUP4 ADD SWAP3 PUSH1 0x0 SWAP3 SWAP2 SWAP1 DUP3 SWAP1 SUB ADD DUP2 DUP4 DUP8 DUP1 EXTCODESIZE ISZERO DUP1 ISZERO PUSH3 0x21C JUMPI PUSH1 0x0 DUP1 REVERT JUMPDEST POP GAS CALL ISZERO DUP1 ISZERO PUSH3 0xFC JUMPI RETURNDATASIZE PUSH1 0x0 DUP1 RETURNDATACOPY RETURNDATASIZE PUSH1 0x0 REVERT JUMPDEST PUSH1 0x0 SLOAD PUSH1 0x1 SLOAD PUSH1 0x40 MLOAD PUSH4 0xFBA70D45 PUSH1 0xE0 SHL DUP2 MSTORE PUSH20 0x0 SWAP3 PUSH4 0xFBA70D45 SWAP3 PUSH3 0xCE SWAP3 PUSH1 0x1 PUSH1 0x1 PUSH1 0xA0 SHL SUB SWAP3 DUP4 AND SWAP3 SWAP1 SWAP2 AND SWAP1 PUSH1 0x4 ADD PUSH3 0x309 JUMP JUMPDEST PUSH1 0x0 SLOAD PUSH1 0x1 SLOAD PUSH1 0x40 MLOAD PUSH4 0xD0244873 PUSH1 0xE0 SHL DUP2 MSTORE PUSH20 0x0 SWAP3 PUSH4 0xD0244873 SWAP3 PUSH3 0xCE SWAP3 PUSH1 0x1 PUSH1 0x1 PUSH1 0xA0 SHL SUB SWAP3 DUP4 AND SWAP3 SWAP1 SWAP2 AND SWAP1 PUSH1 0x4 ADD PUSH3 0x309 JUMP JUMPDEST PUSH2 0x46A0 DUP1 PUSH3 0x324 DUP4 CODECOPY ADD SWAP1 JUMP JUMPDEST PUSH1 0x0 PUSH1 0x20 DUP3 DUP5 SUB SLT ISZERO PUSH3 0x2EB JUMPI DUP1 DUP2 REVERT JUMPDEST DUP2 MLOAD PUSH1 0x1 PUSH1 0x1 PUSH1 0xA0 SHL SUB DUP2 AND DUP2 EQ PUSH3 0x302 JUMPI DUP2 DUP3 REVERT JUMPDEST SWAP4 SWAP3 POP POP POP JUMP JUMPDEST PUSH1 0x1 PUSH1 0x1 PUSH1 0xA0 SHL SUB SWAP3 DUP4 AND DUP2 MSTORE SWAP2 AND PUSH1 0x20 DUP3 ADD MSTORE PUSH1 0x40 ADD SWAP1 JUMP INVALID PUSH1 0x80 PUSH1 0x40 MSTORE PUSH1 0x0 PUSH1 0xD SSTORE ADDRESS PUSH1 0x40 MLOAD PUSH3 0x18 SWAP1 PUSH3 0x71B JUMP JUMPDEST PUSH3 0x24 SWAP2 SWAP1 PUSH3 0x7E6 JUMP JUMPDEST PUSH1 0x40 MLOAD DUP1 SWAP2 SUB SWAP1 PUSH1 0x0 CREATE DUP1 ISZERO DUP1 ISZERO PUSH3 0x41 JUMPI RETURNDATASIZE PUSH1 0x0 DUP1 RETURNDATACOPY RETURNDATASIZE PUSH1 0x0 REVERT JUMPDEST POP PUSH1 0xE DUP1 SLOAD PUSH1 0x1 PUSH1 0x1 PUSH1 0xA0 SHL SUB NOT AND PUSH1 0x1 PUSH1 0x1 PUSH1 0xA0 SHL SUB SWAP3 SWAP1 SWAP3 AND SWAP2 SWAP1 SWAP2 OR SWAP1 SSTORE CALLVALUE DUP1 ISZERO PUSH3 0x6F JUMPI PUSH1 0x0 DUP1 REVERT JUMPDEST POP PUSH1 0x40 DUP1 MLOAD PUSH1 0x7 DUP1 DUP3 MSTORE PUSH2 0x100 DUP3 ADD SWAP1 SWAP3 MSTORE PUSH1 0x0 SWAP2 PUSH1 0x20 DUP3 ADD PUSH1 0xE0 DUP1 CALLDATASIZE DUP4 CALLDATACOPY POP POP PUSH1 0x40 DUP1 MLOAD PUSH1 0x5 DUP1 DUP3 MSTORE PUSH1 0xC0 DUP3 ADD SWAP1 SWAP3 MSTORE SWAP3 SWAP4 POP PUSH1 0x0 SWAP3 SWAP2 POP PUSH1 0x20 DUP3 ADD PUSH1 0xA0 DUP1 CALLDATASIZE DUP4 CALLDATACOPY POP POP PUSH1 0x40 DUP1 MLOAD PUSH1 0x3 DUP1 DUP3 MSTORE PUSH1 0x80 DUP3 ADD SWAP1 SWAP3 MSTORE SWAP3 SWAP4 POP PUSH1 0x0 SWAP3 SWAP2 POP PUSH1 0x20 DUP3 ADD PUSH1 0x60 DUP1 CALLDATASIZE DUP4 CALLDATACOPY POP POP PUSH1 0x40 DUP1 MLOAD PUSH1 0x1 DUP1 DUP3 MSTORE DUP2 DUP4 ADD SWAP1 SWAP3 MSTORE SWAP3 SWAP4 POP PUSH1 0x0 SWAP3 SWAP2 POP PUSH1 0x20 DUP1 DUP4 ADD SWAP1 DUP1 CALLDATASIZE DUP4 CALLDATACOPY ADD SWAP1 POP POP SWAP1 POP PUSH1 0x0 JUMPDEST PUSH1 0x7 DUP2 LT ISZERO PUSH3 0x180 JUMPI PUSH3 0x13F ADDRESS PUSH1 0x2 PUSH1 0x40 MLOAD DUP1 PUSH1 0x40 ADD PUSH1 0x40 MSTORE DUP1 PUSH1 0x7 DUP2 MSTORE PUSH1 0x20 ADD PUSH7 0x11115190555315 PUSH1 0xCA SHL DUP2 MSTORE POP PUSH3 0x3D4 PUSH1 0x20 SHL PUSH1 0x20 SHR JUMP JUMPDEST DUP6 DUP3 DUP2 MLOAD DUP2 LT PUSH3 0x160 JUMPI PUSH4 0x4E487B71 PUSH1 0xE0 SHL PUSH1 0x0 MSTORE PUSH1 0x32 PUSH1 0x4 MSTORE PUSH1 0x24 PUSH1 0x0 REVERT JUMPDEST PUSH1 0x20 SWAP1 DUP2 MUL SWAP2 SWAP1 SWAP2 ADD ADD MSTORE PUSH3 0x178 PUSH1 0x1 DUP3 PUSH3 0x98E JUMP JUMPDEST SWAP1 POP PUSH3 0x102 JUMP JUMPDEST POP PUSH1 0x0 JUMPDEST PUSH1 0x5 DUP2 LT ISZERO PUSH3 0x202 JUMPI PUSH3 0x1C1 ADDRESS PUSH1 0x2 PUSH1 0x40 MLOAD DUP1 PUSH1 0x40 ADD PUSH1 0x40 MSTORE DUP1 PUSH1 0x7 DUP2 MSTORE PUSH1 0x20 ADD PUSH7 0x11115190555315 PUSH1 0xCA SHL DUP2 MSTORE POP PUSH3 0x3D4 PUSH1 0x20 SHL PUSH1 0x20 SHR JUMP JUMPDEST DUP5 DUP3 DUP2 MLOAD DUP2 LT PUSH3 0x1E2 JUMPI PUSH4 0x4E487B71 PUSH1 0xE0 SHL PUSH1 0x0 MSTORE PUSH1 0x32 PUSH1 0x4 MSTORE PUSH1 0x24 PUSH1 0x0 REVERT JUMPDEST PUSH1 0x20 SWAP1 DUP2 MUL SWAP2 SWAP1 SWAP2 ADD ADD MSTORE PUSH3 0x1FA PUSH1 0x1 DUP3 PUSH3 0x98E JUMP JUMPDEST SWAP1 POP PUSH3 0x184 JUMP JUMPDEST POP PUSH1 0x0 JUMPDEST PUSH1 0x3 DUP2 LT ISZERO PUSH3 0x284 JUMPI PUSH3 0x243 ADDRESS PUSH1 0x2 PUSH1 0x40 MLOAD DUP1 PUSH1 0x40 ADD PUSH1 0x40 MSTORE DUP1 PUSH1 0x7 DUP2 MSTORE PUSH1 0x20 ADD PUSH7 0x11115190555315 PUSH1 0xCA SHL DUP2 MSTORE POP PUSH3 0x3D4 PUSH1 0x20 SHL PUSH1 0x20 SHR JUMP JUMPDEST DUP4 DUP3 DUP2 MLOAD DUP2 LT PUSH3 0x264 JUMPI PUSH4 0x4E487B71 PUSH1 0xE0 SHL PUSH1 0x0 MSTORE PUSH1 0x32 PUSH1 0x4 MSTORE PUSH1 0x24 PUSH1 0x0 REVERT JUMPDEST PUSH1 0x20 SWAP1 DUP2 MUL SWAP2 SWAP1 SWAP2 ADD ADD MSTORE PUSH3 0x27C PUSH1 0x1 DUP3 PUSH3 0x98E JUMP JUMPDEST SWAP1 POP PUSH3 0x206 JUMP JUMPDEST POP PUSH1 0x0 JUMPDEST PUSH1 0x1 DUP2 LT ISZERO PUSH3 0x306 JUMPI PUSH3 0x2C5 ADDRESS PUSH1 0x2 PUSH1 0x40 MLOAD DUP1 PUSH1 0x40 ADD PUSH1 0x40 MSTORE DUP1 PUSH1 0x7 DUP2 MSTORE PUSH1 0x20 ADD PUSH7 0x11115190555315 PUSH1 0xCA SHL DUP2 MSTORE POP PUSH3 0x3D4 PUSH1 0x20 SHL PUSH1 0x20 SHR JUMP JUMPDEST DUP3 DUP3 DUP2 MLOAD DUP2 LT PUSH3 0x2E6 JUMPI PUSH4 0x4E487B71 PUSH1 0xE0 SHL PUSH1 0x0 MSTORE PUSH1 0x32 PUSH1 0x4 MSTORE PUSH1 0x24 PUSH1 0x0 REVERT JUMPDEST PUSH1 0x20 SWAP1 DUP2 MUL SWAP2 SWAP1 SWAP2 ADD ADD MSTORE PUSH3 0x2FE PUSH1 0x1 DUP3 PUSH3 0x98E JUMP JUMPDEST SWAP1 POP PUSH3 0x288 JUMP JUMPDEST POP PUSH1 0x1 SLOAD PUSH1 0x10 LT ISZERO PUSH3 0x336 JUMPI PUSH1 0x40 MLOAD PUSH3 0x461BCD PUSH1 0xE5 SHL DUP2 MSTORE PUSH1 0x4 ADD PUSH3 0x32D SWAP1 PUSH3 0x829 JUMP JUMPDEST PUSH1 0x40 MLOAD DUP1 SWAP2 SUB SWAP1 REVERT JUMPDEST ADDRESS PUSH1 0x0 SWAP1 DUP2 MSTORE PUSH1 0x6 PUSH1 0x20 MSTORE PUSH1 0x40 SWAP1 KECCAK256 SLOAD PUSH1 0x10 LT ISZERO PUSH3 0x369 JUMPI PUSH1 0x40 MLOAD PUSH3 0x461BCD PUSH1 0xE5 SHL DUP2 MSTORE PUSH1 0x4 ADD PUSH3 0x32D SWAP1 PUSH3 0x897 JUMP JUMPDEST PUSH3 0x375 ADDRESS DUP6 PUSH3 0x63B JUMP JUMPDEST POP PUSH3 0x384 SWAP1 POP ADDRESS DUP5 PUSH3 0x63B JUMP JUMPDEST POP PUSH3 0x393 SWAP1 POP ADDRESS DUP4 PUSH3 0x63B JUMP JUMPDEST POP PUSH3 0x3A2 SWAP1 POP ADDRESS DUP3 PUSH3 0x63B JUMP JUMPDEST POP POP PUSH1 0x8 SLOAD PUSH1 0x4 LT ISZERO PUSH3 0x3CA JUMPI PUSH1 0x40 MLOAD PUSH3 0x461BCD PUSH1 0xE5 SHL DUP2 MSTORE PUSH1 0x4 ADD PUSH3 0x32D SWAP1 PUSH3 0x860 JUMP JUMPDEST POP POP POP POP PUSH3 0x9B3 JUMP JUMPDEST PUSH1 0x0 DUP1 DUP4 PUSH1 0x2 DUP2 GT ISZERO PUSH3 0x3F8 JUMPI PUSH4 0x4E487B71 PUSH1 0xE0 SHL PUSH1 0x0 MSTORE PUSH1 0x21 PUSH1 0x4 MSTORE PUSH1 0x24 PUSH1 0x0 REVERT JUMPDEST PUSH1 0x40 MLOAD PUSH4 0xB9BF30A5 PUSH1 0xE0 SHL DUP2 MSTORE PUSH20 0x0 SWAP2 PUSH4 0xB9BF30A5 SWAP2 PUSH3 0x430 SWAP2 SWAP1 PUSH1 0x4 ADD PUSH3 0x813 JUMP JUMPDEST PUSH1 0x20 PUSH1 0x40 MLOAD DUP1 DUP4 SUB DUP2 DUP7 DUP1 EXTCODESIZE ISZERO DUP1 ISZERO PUSH3 0x449 JUMPI PUSH1 0x0 DUP1 REVERT JUMPDEST POP GAS DELEGATECALL ISZERO DUP1 ISZERO PUSH3 0x45E JUMPI RETURNDATASIZE PUSH1 0x0 DUP1 RETURNDATACOPY RETURNDATASIZE PUSH1 0x0 REVERT JUMPDEST POP POP POP POP PUSH1 0x40 MLOAD RETURNDATASIZE PUSH1 0x1F NOT PUSH1 0x1F DUP3 ADD AND DUP3 ADD DUP1 PUSH1 0x40 MSTORE POP DUP2 ADD SWAP1 PUSH3 0x484 SWAP2 SWAP1 PUSH3 0x752 JUMP JUMPDEST PUSH1 0xE SLOAD PUSH1 0x40 MLOAD PUSH4 0xAF7D6CA3 PUSH1 0xE0 SHL DUP2 MSTORE PUSH2 0xFFFF SWAP3 SWAP1 SWAP3 AND SWAP3 POP PUSH1 0x1 PUSH1 0x1 PUSH1 0xA0 SHL SUB AND SWAP1 PUSH4 0xAF7D6CA3 SWAP1 PUSH3 0x4BF SWAP1 DUP9 SWAP1 DUP6 SWAP1 PUSH1 0x4 ADD PUSH3 0x7FA JUMP JUMPDEST PUSH1 0x20 PUSH1 0x40 MLOAD DUP1 DUP4 SUB DUP2 PUSH1 0x0 DUP8 DUP1 EXTCODESIZE ISZERO DUP1 ISZERO PUSH3 0x4DA JUMPI PUSH1 0x0 DUP1 REVERT JUMPDEST POP GAS CALL ISZERO DUP1 ISZERO PUSH3 0x4EF JUMPI RETURNDATASIZE PUSH1 0x0 DUP1 RETURNDATACOPY RETURNDATASIZE PUSH1 0x0 REVERT JUMPDEST POP POP POP POP PUSH1 0x40 MLOAD RETURNDATASIZE PUSH1 0x1F NOT PUSH1 0x1F DUP3 ADD AND DUP3 ADD DUP1 PUSH1 0x40 MSTORE POP DUP2 ADD SWAP1 PUSH3 0x515 SWAP2 SWAP1 PUSH3 0x729 JUMP JUMPDEST POP PUSH1 0x40 MLOAD PUSH4 0x5B254BDD PUSH1 0xE1 SHL DUP2 MSTORE PUSH20 0x0 SWAP1 PUSH4 0xB64A97BA SWAP1 PUSH3 0x554 SWAP1 PUSH1 0x0 SWAP1 DUP9 SWAP1 DUP9 SWAP1 PUSH1 0x4 ADD PUSH3 0x920 JUMP JUMPDEST PUSH1 0x20 PUSH1 0x40 MLOAD DUP1 DUP4 SUB DUP2 DUP7 DUP1 EXTCODESIZE ISZERO DUP1 ISZERO PUSH3 0x56D JUMPI PUSH1 0x0 DUP1 REVERT JUMPDEST POP GAS DELEGATECALL ISZERO DUP1 ISZERO PUSH3 0x582 JUMPI RETURNDATASIZE PUSH1 0x0 DUP1 RETURNDATACOPY RETURNDATASIZE PUSH1 0x0 REVERT JUMPDEST POP POP POP POP PUSH1 0x40 MLOAD RETURNDATASIZE PUSH1 0x1F NOT PUSH1 0x1F DUP3 ADD AND DUP3 ADD DUP1 PUSH1 0x40 MSTORE POP DUP2 ADD SWAP1 PUSH3 0x5A8 SWAP2 SWAP1 PUSH3 0x776 JUMP JUMPDEST SWAP2 POP DUP2 PUSH32 0xB89BE3B4BDC4059B3E8638AC07EF31FB78418648FFA34EACCB60B1C60F318D29 DUP7 PUSH1 0x40 MLOAD PUSH3 0x5DC SWAP2 SWAP1 PUSH3 0x7E6 JUMP JUMPDEST PUSH1 0x40 MLOAD DUP1 SWAP2 SUB SWAP1 LOG2 PUSH1 0x0 DUP3 DUP2 MSTORE PUSH1 0x3 PUSH1 0x20 SWAP1 DUP2 MSTORE PUSH1 0x40 DUP1 DUP4 KECCAK256 DUP1 SLOAD PUSH1 0x1 PUSH1 0x1 PUSH1 0xA0 SHL SUB NOT AND PUSH1 0x1 PUSH1 0x1 PUSH1 0xA0 SHL SUB DUP11 AND SWAP1 DUP2 OR SWAP1 SWAP2 SSTORE DUP4 MSTORE PUSH1 0x6 SWAP1 SWAP2 MSTORE DUP2 KECCAK256 DUP1 SLOAD PUSH1 0x1 SWAP3 SWAP1 PUSH3 0x62D SWAP1 DUP5 SWAP1 PUSH3 0x98E JUMP JUMPDEST SWAP1 SWAP2 SSTORE POP SWAP2 SWAP6 SWAP5 POP POP POP POP POP JUMP JUMPDEST PUSH1 0x40 MLOAD PUSH4 0x472603D PUSH1 0xE5 SHL DUP2 MSTORE PUSH1 0x0 SWAP1 DUP2 SWAP1 PUSH20 0x0 SWAP1 PUSH4 0x8E4C07A0 SWAP1 PUSH3 0x680 SWAP1 PUSH1 0x7 SWAP1 DUP6 SWAP1 DUP9 SWAP1 DUP11 SWAP1 PUSH1 0x4 ADD PUSH3 0x8B5 JUMP JUMPDEST PUSH1 0x40 DUP1 MLOAD DUP1 DUP4 SUB DUP2 DUP7 DUP1 EXTCODESIZE ISZERO DUP1 ISZERO PUSH3 0x698 JUMPI PUSH1 0x0 DUP1 REVERT JUMPDEST POP GAS DELEGATECALL ISZERO DUP1 ISZERO PUSH3 0x6AD JUMPI RETURNDATASIZE PUSH1 0x0 DUP1 RETURNDATACOPY RETURNDATASIZE PUSH1 0x0 REVERT JUMPDEST POP POP POP POP PUSH1 0x40 MLOAD RETURNDATASIZE PUSH1 0x1F NOT PUSH1 0x1F DUP3 ADD AND DUP3 ADD DUP1 PUSH1 0x40 MSTORE POP DUP2 ADD SWAP1 PUSH3 0x6D3 SWAP2 SWAP1 PUSH3 0x78F JUMP JUMPDEST PUSH1 0x40 MLOAD SWAP2 SWAP4 POP SWAP2 POP PUSH32 0x67F794A23800C26D9E9CE3C51A9E95DD2C5A724C30030822F589294AFC81231B SWAP1 PUSH3 0x70C SWAP1 DUP7 SWAP1 DUP6 SWAP1 PUSH3 0x7FA JUMP JUMPDEST PUSH1 0x40 MLOAD DUP1 SWAP2 SUB SWAP1 LOG1 SWAP3 POP SWAP3 SWAP1 POP JUMP JUMPDEST PUSH2 0xB63 DUP1 PUSH3 0x3B3D DUP4 CODECOPY ADD SWAP1 JUMP JUMPDEST PUSH1 0x0 PUSH1 0x20 DUP3 DUP5 SUB SLT ISZERO PUSH3 0x73B JUMPI DUP1 DUP2 REVERT JUMPDEST DUP2 MLOAD DUP1 ISZERO ISZERO DUP2 EQ PUSH3 0x74B JUMPI DUP2 DUP3 REVERT JUMPDEST SWAP4 SWAP3 POP POP POP JUMP JUMPDEST PUSH1 0x0 PUSH1 0x20 DUP3 DUP5 SUB SLT ISZERO PUSH3 0x764 JUMPI DUP1 DUP2 REVERT JUMPDEST DUP2 MLOAD PUSH2 0xFFFF DUP2 AND DUP2 EQ PUSH3 0x74B JUMPI DUP2 DUP3 REVERT JUMPDEST PUSH1 0x0 PUSH1 0x20 DUP3 DUP5 SUB SLT ISZERO PUSH3 0x788 JUMPI DUP1 DUP2 REVERT JUMPDEST POP MLOAD SWAP2 SWAP1 POP JUMP JUMPDEST PUSH1 0x0 DUP1 PUSH1 0x40 DUP4 DUP6 SUB SLT ISZERO PUSH3 0x7A2 JUMPI DUP1 DUP2 REVERT JUMPDEST DUP3 MLOAD SWAP2 POP PUSH1 0x20 DUP4 ADD MLOAD PUSH1 0x6 DUP2 LT PUSH3 0x7B8 JUMPI DUP2 DUP3 REVERT JUMPDEST DUP1 SWAP2 POP POP SWAP3 POP SWAP3 SWAP1 POP JUMP JUMPDEST PUSH1 0x3 DUP2 LT PUSH3 0x7E2 JUMPI PUSH4 0x4E487B71 PUSH1 0xE0 SHL PUSH1 0x0 MSTORE PUSH1 0x21 PUSH1 0x4 MSTORE PUSH1 0x24 PUSH1 0x0 REVERT JUMPDEST SWAP1 MSTORE JUMP JUMPDEST PUSH1 0x1 PUSH1 0x1 PUSH1 0xA0 SHL SUB SWAP2 SWAP1 SWAP2 AND DUP2 MSTORE PUSH1 0x20 ADD SWAP1 JUMP JUMPDEST PUSH1 0x1 PUSH1 0x1 PUSH1 0xA0 SHL SUB SWAP3 SWAP1 SWAP3 AND DUP3 MSTORE PUSH1 0x20 DUP3 ADD MSTORE PUSH1 0x40 ADD SWAP1 JUMP JUMPDEST PUSH1 0x20 DUP2 ADD PUSH3 0x823 DUP3 DUP5 PUSH3 0x7C3 JUMP JUMPDEST SWAP3 SWAP2 POP POP JUMP JUMPDEST PUSH1 0x20 DUP1 DUP3 MSTORE PUSH1 0x16 SWAP1 DUP3 ADD MSTORE PUSH32 0x746F6F206D616E7920756E697473206372656174656400000000000000000000 PUSH1 0x40 DUP3 ADD MSTORE PUSH1 0x60 ADD SWAP1 JUMP JUMPDEST PUSH1 0x20 DUP1 DUP3 MSTORE PUSH1 0x17 SWAP1 DUP3 ADD MSTORE PUSH32 0x546F6F206D616E79207371756164732063726561746564000000000000000000 PUSH1 0x40 DUP3 ADD MSTORE PUSH1 0x60 ADD SWAP1 JUMP JUMPDEST PUSH1 0x20 DUP1 DUP3 MSTORE PUSH1 0x4 SWAP1 DUP3 ADD MSTORE PUSH4 0x686D6D6D PUSH1 0xE0 SHL PUSH1 0x40 DUP3 ADD MSTORE PUSH1 0x60 ADD SWAP1 JUMP JUMPDEST PUSH1 0x0 PUSH1 0x80 DUP3 ADD DUP7 DUP4 MSTORE PUSH1 0x20 DUP7 DUP2 DUP6 ADD MSTORE PUSH1 0x80 PUSH1 0x40 DUP6 ADD MSTORE DUP2 DUP7 MLOAD DUP1 DUP5 MSTORE PUSH1 0xA0 DUP7 ADD SWAP2 POP DUP3 DUP9 ADD SWAP4 POP DUP5 JUMPDEST DUP2 DUP2 LT ISZERO PUSH3 0x8FD JUMPI DUP5 MLOAD DUP4 MSTORE SWAP4 DUP4 ADD SWAP4 SWAP2 DUP4 ADD SWAP2 PUSH1 0x1 ADD PUSH3 0x8DF JUMP JUMPDEST POP POP PUSH1 0x1 PUSH1 0x1 PUSH1 0xA0 SHL SUB SWAP6 SWAP1 SWAP6 AND PUSH1 0x60 SWAP5 SWAP1 SWAP5 ADD SWAP4 SWAP1 SWAP4 MSTORE POP SWAP2 SWAP6 SWAP5 POP POP POP POP POP JUMP JUMPDEST PUSH1 0x0 DUP5 DUP3 MSTORE PUSH1 0x20 PUSH3 0x935 DUP2 DUP5 ADD DUP7 PUSH3 0x7C3 JUMP JUMPDEST PUSH1 0x60 PUSH1 0x40 DUP5 ADD MSTORE DUP4 MLOAD DUP1 PUSH1 0x60 DUP6 ADD MSTORE DUP3 JUMPDEST DUP2 DUP2 LT ISZERO PUSH3 0x964 JUMPI DUP6 DUP2 ADD DUP4 ADD MLOAD DUP6 DUP3 ADD PUSH1 0x80 ADD MSTORE DUP3 ADD PUSH3 0x946 JUMP JUMPDEST DUP2 DUP2 GT ISZERO PUSH3 0x976 JUMPI DUP4 PUSH1 0x80 DUP4 DUP8 ADD ADD MSTORE JUMPDEST POP PUSH1 0x1F ADD PUSH1 0x1F NOT AND SWAP3 SWAP1 SWAP3 ADD PUSH1 0x80 ADD SWAP6 SWAP5 POP POP POP POP POP JUMP JUMPDEST PUSH1 0x0 DUP3 NOT DUP3 GT ISZERO PUSH3 0x9AE JUMPI PUSH4 0x4E487B71 PUSH1 0xE0 SHL DUP2 MSTORE PUSH1 0x11 PUSH1 0x4 MSTORE PUSH1 0x24 DUP2 REVERT JUMPDEST POP ADD SWAP1 JUMP JUMPDEST PUSH2 0x317A DUP1 PUSH3 0x9C3 PUSH1 0x0 CODECOPY PUSH1 0x0 RETURN INVALID PUSH1 0x80 PUSH1 0x40 MSTORE CALLVALUE DUP1 ISZERO PUSH2 0x10 JUMPI PUSH1 0x0 DUP1 REVERT JUMPDEST POP PUSH1 0x4 CALLDATASIZE LT PUSH2 0x1DA JUMPI PUSH1 0x0 CALLDATALOAD PUSH1 0xE0 SHR DUP1 PUSH4 0x76D4FC57 GT PUSH2 0x104 JUMPI DUP1 PUSH4 0xA2E1B4D0 GT PUSH2 0xA2 JUMPI DUP1 PUSH4 0xC44E6640 GT PUSH2 0x71 JUMPI DUP1 PUSH4 0xC44E6640 EQ PUSH2 0x409 JUMPI DUP1 PUSH4 0xD7C06919 EQ PUSH2 0x411 JUMPI DUP1 PUSH4 0xE4B50CB8 EQ PUSH2 0x426 JUMPI DUP1 PUSH4 0xE56053EB EQ PUSH2 0x446 JUMPI PUSH2 0x1DA JUMP JUMPDEST DUP1 PUSH4 0xA2E1B4D0 EQ PUSH2 0x3BB JUMPI DUP1 PUSH4 0xA367DD3C EQ PUSH2 0x3D0 JUMPI DUP1 PUSH4 0xA9059CBB EQ PUSH2 0x3E3 JUMPI DUP1 PUSH4 0xB5FC9833 EQ PUSH2 0x3F6 JUMPI PUSH2 0x1DA JUMP JUMPDEST DUP1 PUSH4 0x898F4299 GT PUSH2 0xDE JUMPI DUP1 PUSH4 0x898F4299 EQ PUSH2 0x385 JUMPI DUP1 PUSH4 0x95D89B41 EQ PUSH2 0x398 JUMPI DUP1 PUSH4 0x99975226 EQ PUSH2 0x3A0 JUMPI DUP1 PUSH4 0x9AAFC6C9 EQ PUSH2 0x3A8 JUMPI PUSH2 0x1DA JUMP JUMPDEST DUP1 PUSH4 0x76D4FC57 EQ PUSH2 0x33F JUMPI DUP1 PUSH4 0x8462151C EQ PUSH2 0x352 JUMPI DUP1 PUSH4 0x857F47D2 EQ PUSH2 0x365 JUMPI PUSH2 0x1DA JUMP JUMPDEST DUP1 PUSH4 0x54C8A21E GT PUSH2 0x17C JUMPI DUP1 PUSH4 0x64E0B81F GT PUSH2 0x14B JUMPI DUP1 PUSH4 0x64E0B81F EQ PUSH2 0x2E6 JUMPI DUP1 PUSH4 0x69A0E966 EQ PUSH2 0x2F9 JUMPI DUP1 PUSH4 0x70A08231 EQ PUSH2 0x319 JUMPI DUP1 PUSH4 0x727954FD EQ PUSH2 0x32C JUMPI PUSH2 0x1DA JUMP JUMPDEST DUP1 PUSH4 0x54C8A21E EQ PUSH2 0x280 JUMPI DUP1 PUSH4 0x598647F8 EQ PUSH2 0x293 JUMPI DUP1 PUSH4 0x5BC60976 EQ PUSH2 0x2A6 JUMPI DUP1 PUSH4 0x6352211E EQ PUSH2 0x2C6 JUMPI PUSH2 0x1DA JUMP JUMPDEST DUP1 PUSH4 0x23B872DD GT PUSH2 0x1B8 JUMPI DUP1 PUSH4 0x23B872DD EQ PUSH2 0x227 JUMPI DUP1 PUSH4 0x27E78202 EQ PUSH2 0x23A JUMPI DUP1 PUSH4 0x2E009F76 EQ PUSH2 0x24D JUMPI DUP1 PUSH4 0x4282EF98 EQ PUSH2 0x26D JUMPI PUSH2 0x1DA JUMP JUMPDEST DUP1 PUSH4 0x6FDDE03 EQ PUSH2 0x1DF JUMPI DUP1 PUSH4 0x95EA7B3 EQ PUSH2 0x1FD JUMPI DUP1 PUSH4 0x18160DDD EQ PUSH2 0x212 JUMPI JUMPDEST PUSH1 0x0 DUP1 REVERT JUMPDEST PUSH2 0x1E7 PUSH2 0x459 JUMP JUMPDEST PUSH1 0x40 MLOAD PUSH2 0x1F4 SWAP2 SWAP1 PUSH2 0x2B7D JUMP JUMPDEST PUSH1 0x40 MLOAD DUP1 SWAP2 SUB SWAP1 RETURN JUMPDEST PUSH2 0x210 PUSH2 0x20B CALLDATASIZE PUSH1 0x4 PUSH2 0x24D2 JUMP JUMPDEST PUSH2 0x487 JUMP JUMPDEST STOP JUMPDEST PUSH2 0x21A PUSH2 0x5F6 JUMP JUMPDEST PUSH1 0x40 MLOAD PUSH2 0x1F4 SWAP2 SWAP1 PUSH2 0x2FF4 JUMP JUMPDEST PUSH2 0x210 PUSH2 0x235 CALLDATASIZE PUSH1 0x4 PUSH2 0x2497 JUMP JUMPDEST PUSH2 0x5FC JUMP JUMPDEST PUSH2 0x21A PUSH2 0x248 CALLDATASIZE PUSH1 0x4 PUSH2 0x2774 JUMP JUMPDEST PUSH2 0x7CA JUMP JUMPDEST PUSH2 0x260 PUSH2 0x25B CALLDATASIZE PUSH1 0x4 PUSH2 0x27FD JUMP JUMPDEST PUSH2 0x80C JUMP JUMPDEST PUSH1 0x40 MLOAD PUSH2 0x1F4 SWAP2 SWAP1 PUSH2 0x2B5B JUMP JUMPDEST PUSH2 0x21A PUSH2 0x27B CALLDATASIZE PUSH1 0x4 PUSH2 0x2476 JUMP JUMPDEST PUSH2 0x821 JUMP JUMPDEST PUSH2 0x21A PUSH2 0x28E CALLDATASIZE PUSH1 0x4 PUSH2 0x26C1 JUMP JUMPDEST PUSH2 0x83C JUMP JUMPDEST PUSH2 0x210 PUSH2 0x2A1 CALLDATASIZE PUSH1 0x4 PUSH2 0x285C JUMP JUMPDEST PUSH2 0x927 JUMP JUMPDEST PUSH2 0x2B9 PUSH2 0x2B4 CALLDATASIZE PUSH1 0x4 PUSH2 0x2476 JUMP JUMPDEST PUSH2 0x947 JUMP JUMPDEST PUSH1 0x40 MLOAD PUSH2 0x1F4 SWAP2 SWAP1 PUSH2 0x2B2E JUMP JUMPDEST PUSH2 0x2D9 PUSH2 0x2D4 CALLDATASIZE PUSH1 0x4 PUSH2 0x27FD JUMP JUMPDEST PUSH2 0xA37 JUMP JUMPDEST PUSH1 0x40 MLOAD PUSH2 0x1F4 SWAP2 SWAP1 PUSH2 0x2987 JUMP JUMPDEST PUSH2 0x2B9 PUSH2 0x2F4 CALLDATASIZE PUSH1 0x4 PUSH2 0x2758 JUMP JUMPDEST PUSH2 0xA52 JUMP JUMPDEST PUSH2 0x30C PUSH2 0x307 CALLDATASIZE PUSH1 0x4 PUSH2 0x27FD JUMP JUMPDEST PUSH2 0xBE8 JUMP JUMPDEST PUSH1 0x40 MLOAD PUSH2 0x1F4 SWAP2 SWAP1 PUSH2 0x2F2B JUMP JUMPDEST PUSH2 0x21A PUSH2 0x327 CALLDATASIZE PUSH1 0x4 PUSH2 0x2476 JUMP JUMPDEST PUSH2 0xCA8 JUMP JUMPDEST PUSH2 0x2B9 PUSH2 0x33A CALLDATASIZE PUSH1 0x4 PUSH2 0x27FD JUMP JUMPDEST PUSH2 0xCFE JUMP JUMPDEST PUSH2 0x210 PUSH2 0x34D CALLDATASIZE PUSH1 0x4 PUSH2 0x287D JUMP JUMPDEST PUSH2 0xD84 JUMP JUMPDEST PUSH2 0x2B9 PUSH2 0x360 CALLDATASIZE PUSH1 0x4 PUSH2 0x2476 JUMP JUMPDEST PUSH2 0xDEB JUMP JUMPDEST PUSH2 0x378 PUSH2 0x373 CALLDATASIZE PUSH1 0x4 PUSH2 0x27FD JUMP JUMPDEST PUSH2 0xED4 JUMP JUMPDEST PUSH1 0x40 MLOAD PUSH2 0x1F4 SWAP2 SWAP1 PUSH2 0x2B41 JUMP JUMPDEST PUSH2 0x21A PUSH2 0x393 CALLDATASIZE PUSH1 0x4 PUSH2 0x2790 JUMP JUMPDEST PUSH2 0xEE9 JUMP JUMPDEST PUSH2 0x1E7 PUSH2 0xF34 JUMP JUMPDEST PUSH2 0x2D9 PUSH2 0xF54 JUMP JUMPDEST PUSH2 0x210 PUSH2 0x3B6 CALLDATASIZE PUSH1 0x4 PUSH2 0x27FD JUMP JUMPDEST PUSH2 0xF63 JUMP JUMPDEST PUSH2 0x3C3 PUSH2 0xFFA JUMP JUMPDEST PUSH1 0x40 MLOAD PUSH2 0x1F4 SWAP2 SWAP1 PUSH2 0x2ACE JUMP JUMPDEST PUSH2 0x2B9 PUSH2 0x3DE CALLDATASIZE PUSH1 0x4 PUSH2 0x27FD JUMP JUMPDEST PUSH2 0x10D8 JUMP JUMPDEST PUSH2 0x210 PUSH2 0x3F1 CALLDATASIZE PUSH1 0x4 PUSH2 0x24D2 JUMP JUMPDEST PUSH2 0x113C JUMP JUMPDEST PUSH2 0x210 PUSH2 0x404 CALLDATASIZE PUSH1 0x4 PUSH2 0x27FD JUMP JUMPDEST PUSH2 0x12C1 JUMP JUMPDEST PUSH2 0x21A PUSH2 0x13C0 JUMP JUMPDEST PUSH2 0x419 PUSH2 0x13C6 JUMP JUMPDEST PUSH1 0x40 MLOAD PUSH2 0x1F4 SWAP2 SWAP1 PUSH2 0x29F5 JUMP JUMPDEST PUSH2 0x439 PUSH2 0x434 CALLDATASIZE PUSH1 0x4 PUSH2 0x27FD JUMP JUMPDEST PUSH2 0x15D3 JUMP JUMPDEST PUSH1 0x40 MLOAD PUSH2 0x1F4 SWAP2 SWAP1 PUSH2 0x2F92 JUMP JUMPDEST PUSH2 0x21A PUSH2 0x454 CALLDATASIZE PUSH1 0x4 PUSH2 0x2677 JUMP JUMPDEST PUSH2 0x1747 JUMP JUMPDEST PUSH1 0x40 DUP1 MLOAD DUP1 DUP3 ADD SWAP1 SWAP2 MSTORE PUSH1 0x14 DUP2 MSTORE PUSH20 0x20BABA37A1B432B9B9902AB734BA102A37B5B2B7 PUSH1 0x61 SHL PUSH1 0x20 DUP3 ADD MSTORE SWAP1 JUMP JUMPDEST CALLER DUP3 DUP3 PUSH2 0x493 DUP2 PUSH2 0xA37 JUMP JUMPDEST PUSH1 0x1 PUSH1 0x1 PUSH1 0xA0 SHL SUB AND DUP4 PUSH1 0x1 PUSH1 0x1 PUSH1 0xA0 SHL SUB AND EQ PUSH2 0x4CC JUMPI PUSH1 0x40 MLOAD PUSH3 0x461BCD PUSH1 0xE5 SHL DUP2 MSTORE PUSH1 0x4 ADD PUSH2 0x4C3 SWAP1 PUSH2 0x2D65 JUMP JUMPDEST PUSH1 0x40 MLOAD DUP1 SWAP2 SUB SWAP1 REVERT JUMPDEST DUP2 PUSH1 0x1 PUSH1 0x1 PUSH1 0xA0 SHL SUB AND DUP4 PUSH1 0x1 PUSH1 0x1 PUSH1 0xA0 SHL SUB AND EQ ISZERO PUSH2 0x4FE JUMPI PUSH1 0x40 MLOAD PUSH3 0x461BCD PUSH1 0xE5 SHL DUP2 MSTORE PUSH1 0x4 ADD PUSH2 0x4C3 SWAP1 PUSH2 0x2C30 JUMP JUMPDEST PUSH1 0x3 PUSH1 0x0 DUP3 DUP2 MSTORE PUSH1 0x2 PUSH1 0x20 MSTORE PUSH1 0x40 SWAP1 KECCAK256 SLOAD PUSH1 0xFF AND PUSH1 0x4 DUP2 GT ISZERO PUSH2 0x531 JUMPI PUSH4 0x4E487B71 PUSH1 0xE0 SHL PUSH1 0x0 MSTORE PUSH1 0x21 PUSH1 0x4 MSTORE PUSH1 0x24 PUSH1 0x0 REVERT JUMPDEST EQ PUSH2 0x54E JUMPI PUSH1 0x40 MLOAD PUSH3 0x461BCD PUSH1 0xE5 SHL DUP2 MSTORE PUSH1 0x4 ADD PUSH2 0x4C3 SWAP1 PUSH2 0x2D9C JUMP JUMPDEST PUSH1 0x1 PUSH1 0x1 PUSH1 0xA0 SHL SUB DUP3 AND PUSH2 0x574 JUMPI PUSH1 0x40 MLOAD PUSH3 0x461BCD PUSH1 0xE5 SHL DUP2 MSTORE PUSH1 0x4 ADD PUSH2 0x4C3 SWAP1 PUSH2 0x2CC5 JUMP JUMPDEST PUSH1 0x0 DUP5 DUP2 MSTORE PUSH1 0x4 PUSH1 0x20 DUP2 DUP2 MSTORE PUSH1 0x40 DUP1 DUP5 KECCAK256 DUP1 SLOAD PUSH1 0x1 PUSH1 0x1 PUSH1 0xA0 SHL SUB NOT AND PUSH1 0x1 PUSH1 0x1 PUSH1 0xA0 SHL SUB DUP12 AND OR SWAP1 SSTORE PUSH1 0x2 SWAP1 SWAP2 MSTORE SWAP1 SWAP2 KECCAK256 DUP1 SLOAD PUSH1 0xFF NOT AND PUSH1 0x1 DUP4 MUL OR SWAP1 SSTORE POP PUSH32 0x8C5BE1E5EBEC7D5BD14F71427D1E84F3DD0314C0F7B2291E5B200AC8C7C3B925 CALLER DUP7 DUP7 PUSH1 0x40 MLOAD PUSH2 0x5E7 SWAP4 SWAP3 SWAP2 SWAP1 PUSH2 0x299B JUMP JUMPDEST PUSH1 0x40 MLOAD DUP1 SWAP2 SUB SWAP1 LOG1 POP POP POP POP POP JUMP JUMPDEST PUSH1 0xD SLOAD SWAP1 JUMP JUMPDEST DUP3 DUP3 DUP3 PUSH2 0x608 DUP2 PUSH2 0xA37 JUMP JUMPDEST PUSH1 0x1 PUSH1 0x1 PUSH1 0xA0 SHL SUB AND DUP4 PUSH1 0x1 PUSH1 0x1 PUSH1 0xA0 SHL SUB AND EQ PUSH2 0x638 JUMPI PUSH1 0x40 MLOAD PUSH3 0x461BCD PUSH1 0xE5 SHL DUP2 MSTORE PUSH1 0x4 ADD PUSH2 0x4C3 SWAP1 PUSH2 0x2D65 JUMP JUMPDEST DUP2 PUSH1 0x1 PUSH1 0x1 PUSH1 0xA0 SHL SUB AND DUP4 PUSH1 0x1 PUSH1 0x1 PUSH1 0xA0 SHL SUB AND EQ ISZERO PUSH2 0x66A JUMPI PUSH1 0x40 MLOAD PUSH3 0x461BCD PUSH1 0xE5 SHL DUP2 MSTORE PUSH1 0x4 ADD PUSH2 0x4C3 SWAP1 PUSH2 0x2C30 JUMP JUMPDEST PUSH1 0x3 PUSH1 0x0 DUP3 DUP2 MSTORE PUSH1 0x2 PUSH1 0x20 MSTORE PUSH1 0x40 SWAP1 KECCAK256 SLOAD PUSH1 0xFF AND PUSH1 0x4 DUP2 GT ISZERO PUSH2 0x69D JUMPI PUSH4 0x4E487B71 PUSH1 0xE0 SHL PUSH1 0x0 MSTORE PUSH1 0x21 PUSH1 0x4 MSTORE PUSH1 0x24 PUSH1 0x0 REVERT JUMPDEST EQ PUSH2 0x6BA JUMPI PUSH1 0x40 MLOAD PUSH3 0x461BCD PUSH1 0xE5 SHL DUP2 MSTORE PUSH1 0x4 ADD PUSH2 0x4C3 SWAP1 PUSH2 0x2D9C JUMP JUMPDEST PUSH1 0x1 PUSH1 0x1 PUSH1 0xA0 SHL SUB DUP3 AND PUSH2 0x6E0 JUMPI PUSH1 0x40 MLOAD PUSH3 0x461BCD PUSH1 0xE5 SHL DUP2 MSTORE PUSH1 0x4 ADD PUSH2 0x4C3 SWAP1 PUSH2 0x2CC5 JUMP JUMPDEST PUSH1 0x0 DUP5 DUP2 MSTORE PUSH1 0x4 PUSH1 0x20 MSTORE PUSH1 0x40 SWAP1 KECCAK256 SLOAD PUSH1 0x1 PUSH1 0x1 PUSH1 0xA0 SHL SUB DUP7 DUP2 AND SWAP2 AND EQ PUSH2 0x719 JUMPI PUSH1 0x40 MLOAD PUSH3 0x461BCD PUSH1 0xE5 SHL DUP2 MSTORE PUSH1 0x4 ADD PUSH2 0x4C3 SWAP1 PUSH2 0x2CFC JUMP JUMPDEST PUSH1 0x40 MLOAD PUSH4 0x2149E0DD PUSH1 0xE1 SHL DUP2 MSTORE PUSH20 0x0 SWAP1 PUSH4 0x4293C1BA SWAP1 PUSH2 0x757 SWAP1 PUSH1 0x0 SWAP1 DUP11 SWAP1 DUP11 SWAP1 DUP11 SWAP1 PUSH1 0x4 ADD PUSH2 0x2F3E JUMP JUMPDEST PUSH1 0x0 PUSH1 0x40 MLOAD DUP1 DUP4 SUB DUP2 DUP7 DUP1 EXTCODESIZE ISZERO DUP1 ISZERO PUSH2 0x76F JUMPI PUSH1 0x0 DUP1 REVERT JUMPDEST POP GAS DELEGATECALL ISZERO DUP1 ISZERO PUSH2 0x783 JUMPI RETURNDATASIZE PUSH1 0x0 DUP1 RETURNDATACOPY RETURNDATASIZE PUSH1 0x0 REVERT JUMPDEST POP POP POP POP PUSH32 0xDDF252AD1BE2C89B69C2B068FC378DAA952BA7F163C4A11628F55A4DF523B3EF DUP7 DUP7 DUP7 PUSH1 0x40 MLOAD PUSH2 0x7BA SWAP4 SWAP3 SWAP2 SWAP1 PUSH2 0x299B JUMP JUMPDEST PUSH1 0x40 MLOAD DUP1 SWAP2 SUB SWAP1 LOG1 POP POP POP POP POP POP JUMP JUMPDEST PUSH1 0x0 PUSH2 0x804 CALLER DUP4 PUSH1 0x40 MLOAD DUP1 PUSH1 0x40 ADD PUSH1 0x40 MSTORE DUP1 PUSH1 0x15 DUP2 MSTORE PUSH1 0x20 ADD PUSH21 0x4D6175726963652C20746865204D6564696F637265 PUSH1 0x58 SHL DUP2 MSTORE POP PUSH2 0x17BF JUMP JUMPDEST SWAP1 POP JUMPDEST SWAP2 SWAP1 POP JUMP JUMPDEST PUSH1 0x0 SWAP1 DUP2 MSTORE PUSH1 0x2 PUSH1 0x20 MSTORE PUSH1 0x40 SWAP1 KECCAK256 SLOAD PUSH1 0xFF AND SWAP1 JUMP JUMPDEST PUSH1 0x1 PUSH1 0x1 PUSH1 0xA0 SHL SUB AND PUSH1 0x0 SWAP1 DUP2 MSTORE PUSH1 0xB PUSH1 0x20 MSTORE PUSH1 0x40 SWAP1 KECCAK256 SLOAD SWAP1 JUMP JUMPDEST PUSH1 0x0 DUP1 JUMPDEST DUP6 DUP2 LT ISZERO PUSH2 0x88A JUMPI PUSH2 0x878 CALLER DUP9 DUP9 DUP5 DUP2 DUP2 LT PUSH2 0x86C JUMPI PUSH4 0x4E487B71 PUSH1 0xE0 SHL PUSH1 0x0 MSTORE PUSH1 0x32 PUSH1 0x4 MSTORE PUSH1 0x24 PUSH1 0x0 REVERT JUMPDEST SWAP1 POP PUSH1 0x20 MUL ADD CALLDATALOAD PUSH2 0x1A0F JUMP JUMPDEST DUP1 PUSH2 0x882 DUP2 PUSH2 0x30CD JUMP JUMPDEST SWAP2 POP POP PUSH2 0x840 JUMP JUMPDEST POP PUSH1 0x40 MLOAD PUSH4 0xF8CD9CD PUSH1 0xE0 SHL DUP2 MSTORE PUSH20 0x0 SWAP1 PUSH4 0xF8CD9CD SWAP1 PUSH2 0x8CD SWAP1 PUSH1 0xF SWAP1 DUP11 SWAP1 DUP11 SWAP1 DUP11 SWAP1 DUP11 SWAP1 DUP11 SWAP1 PUSH1 0x4 ADD PUSH2 0x2DF9 JUMP JUMPDEST PUSH1 0x20 PUSH1 0x40 MLOAD DUP1 DUP4 SUB DUP2 DUP7 DUP1 EXTCODESIZE ISZERO DUP1 ISZERO PUSH2 0x8E5 JUMPI PUSH1 0x0 DUP1 REVERT JUMPDEST POP GAS DELEGATECALL ISZERO DUP1 ISZERO PUSH2 0x8F9 JUMPI RETURNDATASIZE PUSH1 0x0 DUP1 RETURNDATACOPY RETURNDATASIZE PUSH1 0x0 REVERT JUMPDEST POP POP POP POP PUSH1 0x40 MLOAD RETURNDATASIZE PUSH1 0x1F NOT PUSH1 0x1F DUP3 ADD AND DUP3 ADD DUP1 PUSH1 0x40 MSTORE POP DUP2 ADD SWAP1 PUSH2 0x91D SWAP2 SWAP1 PUSH2 0x2815 JUMP JUMPDEST SWAP7 SWAP6 POP POP POP POP POP POP JUMP JUMPDEST PUSH1 0xE SLOAD PUSH2 0x943 SWAP1 PUSH1 0xF SWAP1 DUP5 SWAP1 DUP5 SWAP1 PUSH1 0x1 PUSH1 0x1 PUSH1 0xA0 SHL SUB AND PUSH2 0x1ACA JUMP JUMPDEST POP POP JUMP JUMPDEST PUSH1 0x1 PUSH1 0x1 PUSH1 0xA0 SHL SUB DUP2 AND PUSH1 0x0 SWAP1 DUP2 MSTORE PUSH1 0xB PUSH1 0x20 MSTORE PUSH1 0x40 DUP2 KECCAK256 SLOAD PUSH1 0x60 SWAP2 SWAP1 PUSH8 0xFFFFFFFFFFFFFFFF DUP2 GT ISZERO PUSH2 0x98A JUMPI PUSH4 0x4E487B71 PUSH1 0xE0 SHL PUSH1 0x0 MSTORE PUSH1 0x41 PUSH1 0x4 MSTORE PUSH1 0x24 PUSH1 0x0 REVERT JUMPDEST PUSH1 0x40 MLOAD SWAP1 DUP1 DUP3 MSTORE DUP1 PUSH1 0x20 MUL PUSH1 0x20 ADD DUP3 ADD PUSH1 0x40 MSTORE DUP1 ISZERO PUSH2 0x9B3 JUMPI DUP2 PUSH1 0x20 ADD PUSH1 0x20 DUP3 MUL DUP1 CALLDATASIZE DUP4 CALLDATACOPY ADD SWAP1 POP JUMPDEST POP SWAP2 POP PUSH1 0x0 JUMPDEST PUSH1 0x8 SLOAD DUP2 LT ISZERO PUSH2 0xA30 JUMPI PUSH1 0x0 DUP2 DUP2 MSTORE PUSH1 0x9 PUSH1 0x20 MSTORE PUSH1 0x40 SWAP1 KECCAK256 SLOAD PUSH1 0x1 PUSH1 0x1 PUSH1 0xA0 SHL SUB DUP6 DUP2 AND SWAP2 AND EQ ISZERO PUSH2 0xA1E JUMPI DUP1 DUP4 DUP4 PUSH2 0x9F1 DUP2 PUSH2 0x30CD JUMP JUMPDEST SWAP5 POP DUP2 MLOAD DUP2 LT PUSH2 0xA11 JUMPI PUSH4 0x4E487B71 PUSH1 0xE0 SHL PUSH1 0x0 MSTORE PUSH1 0x32 PUSH1 0x4 MSTORE PUSH1 0x24 PUSH1 0x0 REVERT JUMPDEST PUSH1 0x20 MUL PUSH1 0x20 ADD ADD DUP2 DUP2 MSTORE POP POP JUMPDEST DUP1 PUSH2 0xA28 DUP2 PUSH2 0x30CD JUMP JUMPDEST SWAP2 POP POP PUSH2 0x9B9 JUMP JUMPDEST POP POP SWAP2 SWAP1 POP JUMP JUMPDEST PUSH1 0x0 SWAP1 DUP2 MSTORE PUSH1 0x3 PUSH1 0x20 MSTORE PUSH1 0x40 SWAP1 KECCAK256 SLOAD PUSH1 0x1 PUSH1 0x1 PUSH1 0xA0 SHL SUB AND SWAP1 JUMP JUMPDEST PUSH1 0x60 PUSH1 0x0 DUP3 PUSH1 0x5 DUP2 GT ISZERO PUSH2 0xA76 JUMPI PUSH4 0x4E487B71 PUSH1 0xE0 SHL PUSH1 0x0 MSTORE PUSH1 0x21 PUSH1 0x4 MSTORE PUSH1 0x24 PUSH1 0x0 REVERT JUMPDEST EQ ISZERO PUSH2 0xA94 JUMPI PUSH1 0x40 MLOAD PUSH3 0x461BCD PUSH1 0xE5 SHL DUP2 MSTORE PUSH1 0x4 ADD PUSH2 0x4C3 SWAP1 PUSH2 0x2D3D JUMP JUMPDEST PUSH1 0x0 PUSH1 0xC DUP2 DUP5 PUSH1 0x5 DUP2 GT ISZERO PUSH2 0xAB9 JUMPI PUSH4 0x4E487B71 PUSH1 0xE0 SHL PUSH1 0x0 MSTORE PUSH1 0x21 PUSH1 0x4 MSTORE PUSH1 0x24 PUSH1 0x0 REVERT JUMPDEST PUSH1 0x5 DUP2 GT ISZERO PUSH2 0xAD8 JUMPI PUSH4 0x4E487B71 PUSH1 0xE0 SHL PUSH1 0x0 MSTORE PUSH1 0x21 PUSH1 0x4 MSTORE PUSH1 0x24 PUSH1 0x0 REVERT JUMPDEST DUP2 MSTORE PUSH1 0x20 ADD SWAP1 DUP2 MSTORE PUSH1 0x20 ADD PUSH1 0x0 KECCAK256 SLOAD PUSH8 0xFFFFFFFFFFFFFFFF DUP2 GT ISZERO PUSH2 0xB0D JUMPI PUSH4 0x4E487B71 PUSH1 0xE0 SHL PUSH1 0x0 MSTORE PUSH1 0x41 PUSH1 0x4 MSTORE PUSH1 0x24 PUSH1 0x0 REVERT JUMPDEST PUSH1 0x40 MLOAD SWAP1 DUP1 DUP3 MSTORE DUP1 PUSH1 0x20 MUL PUSH1 0x20 ADD DUP3 ADD PUSH1 0x40 MSTORE DUP1 ISZERO PUSH2 0xB36 JUMPI DUP2 PUSH1 0x20 ADD PUSH1 0x20 DUP3 MUL DUP1 CALLDATASIZE DUP4 CALLDATACOPY ADD SWAP1 POP JUMPDEST POP SWAP2 POP PUSH1 0x0 JUMPDEST PUSH1 0x8 SLOAD DUP2 LT ISZERO PUSH2 0xA30 JUMPI DUP4 PUSH1 0x5 DUP2 GT ISZERO PUSH2 0xB66 JUMPI PUSH4 0x4E487B71 PUSH1 0xE0 SHL PUSH1 0x0 MSTORE PUSH1 0x21 PUSH1 0x4 MSTORE PUSH1 0x24 PUSH1 0x0 REVERT JUMPDEST PUSH1 0x0 DUP3 DUP2 MSTORE PUSH1 0xA PUSH1 0x20 MSTORE PUSH1 0x40 SWAP1 KECCAK256 SLOAD PUSH1 0xFF AND PUSH1 0x5 DUP2 GT ISZERO PUSH2 0xB97 JUMPI PUSH4 0x4E487B71 PUSH1 0xE0 SHL PUSH1 0x0 MSTORE PUSH1 0x21 PUSH1 0x4 MSTORE PUSH1 0x24 PUSH1 0x0 REVERT JUMPDEST EQ ISZERO PUSH2 0xBD6 JUMPI DUP1 DUP4 DUP4 PUSH2 0xBA9 DUP2 PUSH2 0x30CD JUMP JUMPDEST SWAP5 POP DUP2 MLOAD DUP2 LT PUSH2 0xBC9 JUMPI PUSH4 0x4E487B71 PUSH1 0xE0 SHL PUSH1 0x0 MSTORE PUSH1 0x32 PUSH1 0x4 MSTORE PUSH1 0x24 PUSH1 0x0 REVERT JUMPDEST PUSH1 0x20 MUL PUSH1 0x20 ADD ADD DUP2 DUP2 MSTORE POP POP JUMPDEST DUP1 PUSH2 0xBE0 DUP2 PUSH2 0x30CD JUMP JUMPDEST SWAP2 POP POP PUSH2 0xB3C JUMP JUMPDEST PUSH2 0xBF0 PUSH2 0x227F JUMP JUMPDEST PUSH1 0x8 DUP1 SLOAD DUP4 SWAP1 DUP2 LT PUSH2 0xC12 JUMPI PUSH4 0x4E487B71 PUSH1 0xE0 SHL PUSH1 0x0 MSTORE PUSH1 0x32 PUSH1 0x4 MSTORE PUSH1 0x24 PUSH1 0x0 REVERT JUMPDEST SWAP1 PUSH1 0x0 MSTORE PUSH1 0x20 PUSH1 0x0 KECCAK256 SWAP1 PUSH1 0x2 MUL ADD PUSH1 0x40 MLOAD DUP1 PUSH1 0x60 ADD PUSH1 0x40 MSTORE SWAP1 DUP2 PUSH1 0x0 DUP3 ADD DUP1 SLOAD DUP1 PUSH1 0x20 MUL PUSH1 0x20 ADD PUSH1 0x40 MLOAD SWAP1 DUP2 ADD PUSH1 0x40 MSTORE DUP1 SWAP3 SWAP2 SWAP1 DUP2 DUP2 MSTORE PUSH1 0x20 ADD DUP3 DUP1 SLOAD DUP1 ISZERO PUSH2 0xC7A JUMPI PUSH1 0x20 MUL DUP3 ADD SWAP2 SWAP1 PUSH1 0x0 MSTORE PUSH1 0x20 PUSH1 0x0 KECCAK256 SWAP1 JUMPDEST DUP2 SLOAD DUP2 MSTORE PUSH1 0x20 ADD SWAP1 PUSH1 0x1 ADD SWAP1 DUP1 DUP4 GT PUSH2 0xC66 JUMPI JUMPDEST POP POP POP SWAP2 DUP4 MSTORE POP POP PUSH1 0x1 SWAP2 SWAP1 SWAP2 ADD SLOAD PUSH2 0xFFFF DUP1 DUP3 AND PUSH1 0x20 DUP5 ADD MSTORE PUSH3 0x10000 SWAP1 SWAP2 DIV AND PUSH1 0x40 SWAP1 SWAP2 ADD MSTORE SWAP3 SWAP2 POP POP JUMP JUMPDEST PUSH1 0x0 DUP1 JUMPDEST PUSH1 0x1 SLOAD DUP2 LT ISZERO PUSH2 0xCF8 JUMPI PUSH1 0x0 DUP2 DUP2 MSTORE PUSH1 0x3 PUSH1 0x20 MSTORE PUSH1 0x40 SWAP1 KECCAK256 SLOAD PUSH1 0x1 PUSH1 0x1 PUSH1 0xA0 SHL SUB DUP5 DUP2 AND SWAP2 AND EQ ISZERO PUSH2 0xCE6 JUMPI DUP2 PUSH2 0xCE2 DUP2 PUSH2 0x30CD JUMP JUMPDEST SWAP3 POP POP JUMPDEST DUP1 PUSH2 0xCF0 DUP2 PUSH2 0x30CD JUMP JUMPDEST SWAP2 POP POP PUSH2 0xCAC JUMP JUMPDEST POP SWAP2 SWAP1 POP JUMP JUMPDEST PUSH1 0x60 PUSH1 0x7 PUSH1 0x1 ADD DUP3 DUP2 SLOAD DUP2 LT PUSH2 0xD24 JUMPI PUSH4 0x4E487B71 PUSH1 0xE0 SHL PUSH1 0x0 MSTORE PUSH1 0x32 PUSH1 0x4 MSTORE PUSH1 0x24 PUSH1 0x0 REVERT JUMPDEST PUSH1 0x0 SWAP2 DUP3 MSTORE PUSH1 0x20 SWAP2 DUP3 SWAP1 KECCAK256 PUSH1 0x2 SWAP1 SWAP2 MUL ADD DUP1 SLOAD PUSH1 0x40 DUP1 MLOAD DUP3 DUP6 MUL DUP2 ADD DUP6 ADD SWAP1 SWAP2 MSTORE DUP2 DUP2 MSTORE SWAP3 DUP4 ADD DUP3 DUP3 DUP1 ISZERO PUSH2 0xD78 JUMPI PUSH1 0x20 MUL DUP3 ADD SWAP2 SWAP1 PUSH1 0x0 MSTORE PUSH1 0x20 PUSH1 0x0 KECCAK256 SWAP1 JUMPDEST DUP2 SLOAD DUP2 MSTORE PUSH1 0x20 ADD SWAP1 PUSH1 0x1 ADD SWAP1 DUP1 DUP4 GT PUSH2 0xD64 JUMPI JUMPDEST POP POP POP POP POP SWAP1 POP SWAP2 SWAP1 POP JUMP JUMPDEST PUSH1 0xE SLOAD PUSH2 0xDA0 SWAP1 PUSH1 0xF SWAP1 DUP7 SWAP1 DUP7 SWAP1 PUSH1 0x1 PUSH1 0x1 PUSH1 0xA0 SHL SUB AND PUSH2 0x1ACA JUMP JUMPDEST DUP2 DUP2 PUSH1 0xF PUSH1 0x0 ADD DUP7 DUP2 SLOAD DUP2 LT PUSH2 0xDC6 JUMPI PUSH4 0x4E487B71 PUSH1 0xE0 SHL PUSH1 0x0 MSTORE PUSH1 0x32 PUSH1 0x4 MSTORE PUSH1 0x24 PUSH1 0x0 REVERT JUMPDEST SWAP1 PUSH1 0x0 MSTORE PUSH1 0x20 PUSH1 0x0 KECCAK256 SWAP1 PUSH1 0x7 MUL ADD PUSH1 0x5 ADD SWAP2 SWAP1 PUSH2 0xDE4 SWAP3 SWAP2 SWAP1 PUSH2 0x229F JUMP JUMPDEST POP POP POP POP POP JUMP JUMPDEST PUSH1 0x1 PUSH1 0x1 PUSH1 0xA0 SHL SUB DUP2 AND PUSH1 0x0 SWAP1 DUP2 MSTORE PUSH1 0x6 PUSH1 0x20 MSTORE PUSH1 0x40 DUP2 KECCAK256 SLOAD PUSH1 0x60 SWAP2 SWAP1 PUSH8 0xFFFFFFFFFFFFFFFF DUP2 GT ISZERO PUSH2 0xE2E JUMPI PUSH4 0x4E487B71 PUSH1 0xE0 SHL PUSH1 0x0 MSTORE PUSH1 0x41 PUSH1 0x4 MSTORE PUSH1 0x24 PUSH1 0x0 REVERT JUMPDEST PUSH1 0x40 MLOAD SWAP1 DUP1 DUP3 MSTORE DUP1 PUSH1 0x20 MUL PUSH1 0x20 ADD DUP3 ADD PUSH1 0x40 MSTORE DUP1 ISZERO PUSH2 0xE57 JUMPI DUP2 PUSH1 0x20 ADD PUSH1 0x20 DUP3 MUL DUP1 CALLDATASIZE DUP4 CALLDATACOPY ADD SWAP1 POP JUMPDEST POP SWAP2 POP PUSH1 0x0 JUMPDEST PUSH1 0x1 SLOAD DUP2 LT ISZERO PUSH2 0xA30 JUMPI PUSH1 0x0 DUP2 DUP2 MSTORE PUSH1 0x3 PUSH1 0x20 MSTORE PUSH1 0x40 SWAP1 KECCAK256 SLOAD PUSH1 0x1 PUSH1 0x1 PUSH1 0xA0 SHL SUB DUP6 DUP2 AND SWAP2 AND EQ ISZERO PUSH2 0xEC2 JUMPI DUP1 DUP4 DUP4 PUSH2 0xE95 DUP2 PUSH2 0x30CD JUMP JUMPDEST SWAP5 POP DUP2 MLOAD DUP2 LT PUSH2 0xEB5 JUMPI PUSH4 0x4E487B71 PUSH1 0xE0 SHL PUSH1 0x0 MSTORE PUSH1 0x32 PUSH1 0x4 MSTORE PUSH1 0x24 PUSH1 0x0 REVERT JUMPDEST PUSH1 0x20 MUL PUSH1 0x20 ADD ADD DUP2 DUP2 MSTORE POP POP JUMPDEST DUP1 PUSH2 0xECC DUP2 PUSH2 0x30CD JUMP JUMPDEST SWAP2 POP POP PUSH2 0xE5D JUMP JUMPDEST PUSH1 0x0 SWAP1 DUP2 MSTORE PUSH1 0xA PUSH1 0x20 MSTORE PUSH1 0x40 SWAP1 KECCAK256 SLOAD PUSH1 0xFF AND SWAP1 JUMP JUMPDEST PUSH1 0x0 PUSH2 0xF2C CALLER DUP6 DUP6 DUP6 DUP1 DUP1 PUSH1 0x1F ADD PUSH1 0x20 DUP1 SWAP2 DIV MUL PUSH1 0x20 ADD PUSH1 0x40 MLOAD SWAP1 DUP2 ADD PUSH1 0x40 MSTORE DUP1 SWAP4 SWAP3 SWAP2 SWAP1 DUP2 DUP2 MSTORE PUSH1 0x20 ADD DUP4 DUP4 DUP1 DUP3 DUP5 CALLDATACOPY PUSH1 0x0 SWAP3 ADD SWAP2 SWAP1 SWAP2 MSTORE POP PUSH2 0x17BF SWAP3 POP POP POP JUMP JUMPDEST SWAP5 SWAP4 POP POP POP POP JUMP JUMPDEST PUSH1 0x40 DUP1 MLOAD DUP1 DUP3 ADD SWAP1 SWAP2 MSTORE PUSH1 0x6 DUP2 MSTORE PUSH6 0x414348535355 PUSH1 0xD0 SHL PUSH1 0x20 DUP3 ADD MSTORE SWAP1 JUMP JUMPDEST PUSH1 0xE SLOAD PUSH1 0x1 PUSH1 0x1 PUSH1 0xA0 SHL SUB AND DUP2 JUMP JUMPDEST PUSH2 0xF6E PUSH1 0xF DUP3 PUSH2 0x1B0B JUMP JUMPDEST PUSH1 0xE SLOAD PUSH1 0x40 MLOAD PUSH4 0x803BC393 PUSH1 0xE0 SHL DUP2 MSTORE PUSH20 0x0 SWAP3 PUSH4 0x803BC393 SWAP3 PUSH2 0xFB3 SWAP3 PUSH1 0x0 SWAP2 PUSH1 0x1 PUSH1 0x1 PUSH1 0xA0 SHL SUB AND SWAP1 PUSH1 0x4 ADD PUSH2 0x2E6F JUMP JUMPDEST PUSH1 0x0 PUSH1 0x40 MLOAD DUP1 DUP4 SUB DUP2 DUP7 DUP1 EXTCODESIZE ISZERO DUP1 ISZERO PUSH2 0xFCB JUMPI PUSH1 0x0 DUP1 REVERT JUMPDEST POP GAS DELEGATECALL ISZERO DUP1 ISZERO PUSH2 0xFDF JUMPI RETURNDATASIZE PUSH1 0x0 DUP1 RETURNDATACOPY RETURNDATASIZE PUSH1 0x0 REVERT JUMPDEST POP POP POP POP PUSH2 0xFF7 DUP2 PUSH1 0xF PUSH2 0x1B47 SWAP1 SWAP2 SWAP1 PUSH4 0xFFFFFFFF AND JUMP JUMPDEST POP JUMP JUMPDEST PUSH1 0x60 PUSH1 0x7 PUSH1 0x1 ADD DUP1 SLOAD DUP1 PUSH1 0x20 MUL PUSH1 0x20 ADD PUSH1 0x40 MLOAD SWAP1 DUP2 ADD PUSH1 0x40 MSTORE DUP1 SWAP3 SWAP2 SWAP1 DUP2 DUP2 MSTORE PUSH1 0x20 ADD PUSH1 0x0 SWAP1 JUMPDEST DUP3 DUP3 LT ISZERO PUSH2 0x10CF JUMPI DUP4 DUP3 SWAP1 PUSH1 0x0 MSTORE PUSH1 0x20 PUSH1 0x0 KECCAK256 SWAP1 PUSH1 0x2 MUL ADD PUSH1 0x40 MLOAD DUP1 PUSH1 0x60 ADD PUSH1 0x40 MSTORE SWAP1 DUP2 PUSH1 0x0 DUP3 ADD DUP1 SLOAD DUP1 PUSH1 0x20 MUL PUSH1 0x20 ADD PUSH1 0x40 MLOAD SWAP1 DUP2 ADD PUSH1 0x40 MSTORE DUP1 SWAP3 SWAP2 SWAP1 DUP2 DUP2 MSTORE PUSH1 0x20 ADD DUP3 DUP1 SLOAD DUP1 ISZERO PUSH2 0x1093 JUMPI PUSH1 0x20 MUL DUP3 ADD SWAP2 SWAP1 PUSH1 0x0 MSTORE PUSH1 0x20 PUSH1 0x0 KECCAK256 SWAP1 JUMPDEST DUP2 SLOAD DUP2 MSTORE PUSH1 0x20 ADD SWAP1 PUSH1 0x1 ADD SWAP1 DUP1 DUP4 GT PUSH2 0x107F JUMPI JUMPDEST POP POP POP SWAP2 DUP4 MSTORE POP POP PUSH1 0x1 SWAP2 DUP3 ADD SLOAD PUSH2 0xFFFF DUP1 DUP3 AND PUSH1 0x20 DUP1 DUP6 ADD SWAP2 SWAP1 SWAP2 MSTORE PUSH3 0x10000 SWAP1 SWAP3 DIV AND PUSH1 0x40 SWAP1 SWAP3 ADD SWAP2 SWAP1 SWAP2 MSTORE SWAP2 DUP4 MSTORE SWAP3 SWAP1 SWAP3 ADD SWAP2 ADD PUSH2 0x1021 JUMP JUMPDEST POP POP POP POP SWAP1 POP SWAP1 JUMP JUMPDEST PUSH1 0x60 PUSH2 0x10E5 PUSH1 0xF DUP4 PUSH2 0x1B0B JUMP JUMPDEST PUSH1 0x1 ADD DUP1 SLOAD DUP1 PUSH1 0x20 MUL PUSH1 0x20 ADD PUSH1 0x40 MLOAD SWAP1 DUP2 ADD PUSH1 0x40 MSTORE DUP1 SWAP3 SWAP2 SWAP1 DUP2 DUP2 MSTORE PUSH1 0x20 ADD DUP3 DUP1 SLOAD DUP1 ISZERO PUSH2 0xD78 JUMPI PUSH1 0x20 MUL DUP3 ADD SWAP2 SWAP1 PUSH1 0x0 MSTORE PUSH1 0x20 PUSH1 0x0 KECCAK256 SWAP1 DUP2 SLOAD DUP2 MSTORE PUSH1 0x20 ADD SWAP1 PUSH1 0x1 ADD SWAP1 DUP1 DUP4 GT PUSH2 0xD64 JUMPI POP POP POP POP POP SWAP1 POP SWAP2 SWAP1 POP JUMP JUMPDEST CALLER DUP3 DUP3 PUSH2 0x1148 DUP2 PUSH2 0xA37 JUMP JUMPDEST PUSH1 0x1 PUSH1 0x1 PUSH1 0xA0 SHL SUB AND DUP4 PUSH1 0x1 PUSH1 0x1 PUSH1 0xA0 SHL SUB AND EQ PUSH2 0x1178 JUMPI PUSH1 0x40 MLOAD PUSH3 0x461BCD PUSH1 0xE5 SHL DUP2 MSTORE PUSH1 0x4 ADD PUSH2 0x4C3 SWAP1 PUSH2 0x2D65 JUMP JUMPDEST DUP2 PUSH1 0x1 PUSH1 0x1 PUSH1 0xA0 SHL SUB AND DUP4 PUSH1 0x1 PUSH1 0x1 PUSH1 0xA0 SHL SUB AND EQ ISZERO PUSH2 0x11AA JUMPI PUSH1 0x40 MLOAD PUSH3 0x461BCD PUSH1 0xE5 SHL DUP2 MSTORE PUSH1 0x4 ADD PUSH2 0x4C3 SWAP1 PUSH2 0x2C30 JUMP JUMPDEST PUSH1 0x3 PUSH1 0x0 DUP3 DUP2 MSTORE PUSH1 0x2 PUSH1 0x20 MSTORE PUSH1 0x40 SWAP1 KECCAK256 SLOAD PUSH1 0xFF AND PUSH1 0x4 DUP2 GT ISZERO PUSH2 0x11DD JUMPI PUSH4 0x4E487B71 PUSH1 0xE0 SHL PUSH1 0x0 MSTORE PUSH1 0x21 PUSH1 0x4 MSTORE PUSH1 0x24 PUSH1 0x0 REVERT JUMPDEST EQ PUSH2 0x11FA JUMPI PUSH1 0x40 MLOAD PUSH3 0x461BCD PUSH1 0xE5 SHL DUP2 MSTORE PUSH1 0x4 ADD PUSH2 0x4C3 SWAP1 PUSH2 0x2D9C JUMP JUMPDEST PUSH1 0x1 PUSH1 0x1 PUSH1 0xA0 SHL SUB DUP3 AND PUSH2 0x1220 JUMPI PUSH1 0x40 MLOAD PUSH3 0x461BCD PUSH1 0xE5 SHL DUP2 MSTORE PUSH1 0x4 ADD PUSH2 0x4C3 SWAP1 PUSH2 0x2CC5 JUMP JUMPDEST PUSH1 0x40 MLOAD PUSH4 0x2149E0DD PUSH1 0xE1 SHL DUP2 MSTORE PUSH20 0x0 SWAP1 PUSH4 0x4293C1BA SWAP1 PUSH2 0x125E SWAP1 PUSH1 0x0 SWAP1 CALLER SWAP1 DUP11 SWAP1 DUP11 SWAP1 PUSH1 0x4 ADD PUSH2 0x2F3E JUMP JUMPDEST PUSH1 0x0 PUSH1 0x40 MLOAD DUP1 DUP4 SUB DUP2 DUP7 DUP1 EXTCODESIZE ISZERO DUP1 ISZERO PUSH2 0x1276 JUMPI PUSH1 0x0 DUP1 REVERT JUMPDEST POP GAS DELEGATECALL ISZERO DUP1 ISZERO PUSH2 0x128A JUMPI RETURNDATASIZE PUSH1 0x0 DUP1 RETURNDATACOPY RETURNDATASIZE PUSH1 0x0 REVERT JUMPDEST POP POP POP POP PUSH32 0xDDF252AD1BE2C89B69C2B068FC378DAA952BA7F163C4A11628F55A4DF523B3EF CALLER DUP7 DUP7 PUSH1 0x40 MLOAD PUSH2 0x5E7 SWAP4 SWAP3 SWAP2 SWAP1 PUSH2 0x299B JUMP JUMPDEST CALLER PUSH2 0x12CD PUSH1 0xF DUP4 PUSH2 0x1B0B JUMP JUMPDEST PUSH1 0x3 ADD SLOAD PUSH1 0x1 PUSH1 0x1 PUSH1 0xA0 SHL SUB AND EQ PUSH2 0x12F7 JUMPI PUSH1 0x40 MLOAD PUSH3 0x461BCD PUSH1 0xE5 SHL DUP2 MSTORE PUSH1 0x4 ADD PUSH2 0x4C3 SWAP1 PUSH2 0x2BEB JUMP JUMPDEST CALLER PUSH2 0x1303 PUSH1 0xF DUP4 PUSH2 0x1B0B JUMP JUMPDEST PUSH1 0x2 ADD SLOAD PUSH1 0x1 PUSH1 0x1 PUSH1 0xA0 SHL SUB AND EQ PUSH2 0x131A JUMPI PUSH1 0x0 DUP1 REVERT JUMPDEST PUSH1 0x0 JUMPDEST PUSH2 0x1328 PUSH1 0xF DUP4 PUSH2 0x1B0B JUMP JUMPDEST PUSH1 0x1 ADD SLOAD DUP2 LT ISZERO PUSH2 0x943 JUMPI PUSH1 0x3 PUSH1 0x2 PUSH1 0x0 PUSH2 0x1344 PUSH1 0xF DUP7 PUSH2 0x1B0B JUMP JUMPDEST PUSH1 0x1 ADD DUP5 DUP2 SLOAD DUP2 LT PUSH2 0x1366 JUMPI PUSH4 0x4E487B71 PUSH1 0xE0 SHL PUSH1 0x0 MSTORE PUSH1 0x32 PUSH1 0x4 MSTORE PUSH1 0x24 PUSH1 0x0 REVERT JUMPDEST PUSH1 0x0 SWAP2 DUP3 MSTORE PUSH1 0x20 DUP1 DUP4 KECCAK256 SWAP1 SWAP2 ADD SLOAD DUP4 MSTORE DUP3 ADD SWAP3 SWAP1 SWAP3 MSTORE PUSH1 0x40 ADD SWAP1 KECCAK256 DUP1 SLOAD PUSH1 0xFF NOT AND PUSH1 0x1 DUP4 PUSH1 0x4 DUP2 GT ISZERO PUSH2 0x13A9 JUMPI PUSH4 0x4E487B71 PUSH1 0xE0 SHL PUSH1 0x0 MSTORE PUSH1 0x21 PUSH1 0x4 MSTORE PUSH1 0x24 PUSH1 0x0 REVERT JUMPDEST MUL OR SWAP1 SSTORE POP DUP1 PUSH2 0x13B8 DUP2 PUSH2 0x30CD JUMP JUMPDEST SWAP2 POP POP PUSH2 0x131D JUMP JUMPDEST PUSH1 0xF SLOAD SWAP1 JUMP JUMPDEST PUSH1 0x60 PUSH1 0xF PUSH1 0x0 ADD DUP1 SLOAD DUP1 PUSH1 0x20 MUL PUSH1 0x20 ADD PUSH1 0x40 MLOAD SWAP1 DUP2 ADD PUSH1 0x40 MSTORE DUP1 SWAP3 SWAP2 SWAP1 DUP2 DUP2 MSTORE PUSH1 0x20 ADD PUSH1 0x0 SWAP1 JUMPDEST DUP3 DUP3 LT ISZERO PUSH2 0x10CF JUMPI DUP4 DUP3 SWAP1 PUSH1 0x0 MSTORE PUSH1 0x20 PUSH1 0x0 KECCAK256 SWAP1 PUSH1 0x7 MUL ADD PUSH1 0x40 MLOAD DUP1 PUSH1 0xE0 ADD PUSH1 0x40 MSTORE SWAP1 DUP2 PUSH1 0x0 DUP3 ADD SLOAD DUP2 MSTORE PUSH1 0x20 ADD PUSH1 0x1 DUP3 ADD DUP1 SLOAD DUP1 PUSH1 0x20 MUL PUSH1 0x20 ADD PUSH1 0x40 MLOAD SWAP1 DUP2 ADD PUSH1 0x40 MSTORE DUP1 SWAP3 SWAP2 SWAP1 DUP2 DUP2 MSTORE PUSH1 0x20 ADD DUP3 DUP1 SLOAD DUP1 ISZERO PUSH2 0x1469 JUMPI PUSH1 0x20 MUL DUP3 ADD SWAP2 SWAP1 PUSH1 0x0 MSTORE PUSH1 0x20 PUSH1 0x0 KECCAK256 SWAP1 JUMPDEST DUP2 SLOAD DUP2 MSTORE PUSH1 0x20 ADD SWAP1 PUSH1 0x1 ADD SWAP1 DUP1 DUP4 GT PUSH2 0x1455 JUMPI JUMPDEST POP POP POP SWAP2 DUP4 MSTORE POP POP PUSH1 0x2 DUP3 ADD SLOAD PUSH1 0x1 PUSH1 0x1 PUSH1 0xA0 SHL SUB SWAP1 DUP2 AND PUSH1 0x20 DUP4 ADD MSTORE PUSH1 0x3 DUP4 ADD SLOAD AND PUSH1 0x40 DUP3 ADD MSTORE PUSH1 0x4 DUP3 ADD DUP1 SLOAD PUSH1 0x60 SWAP1 SWAP3 ADD SWAP2 PUSH2 0x14A6 SWAP1 PUSH2 0x3098 JUMP JUMPDEST DUP1 PUSH1 0x1F ADD PUSH1 0x20 DUP1 SWAP2 DIV MUL PUSH1 0x20 ADD PUSH1 0x40 MLOAD SWAP1 DUP2 ADD PUSH1 0x40 MSTORE DUP1 SWAP3 SWAP2 SWAP1 DUP2 DUP2 MSTORE PUSH1 0x20 ADD DUP3 DUP1 SLOAD PUSH2 0x14D2 SWAP1 PUSH2 0x3098 JUMP JUMPDEST DUP1 ISZERO PUSH2 0x151F JUMPI DUP1 PUSH1 0x1F LT PUSH2 0x14F4 JUMPI PUSH2 0x100 DUP1 DUP4 SLOAD DIV MUL DUP4 MSTORE SWAP2 PUSH1 0x20 ADD SWAP2 PUSH2 0x151F JUMP JUMPDEST DUP3 ADD SWAP2 SWAP1 PUSH1 0x0 MSTORE PUSH1 0x20 PUSH1 0x0 KECCAK256 SWAP1 JUMPDEST DUP2 SLOAD DUP2 MSTORE SWAP1 PUSH1 0x1 ADD SWAP1 PUSH1 0x20 ADD DUP1 DUP4 GT PUSH2 0x1502 JUMPI DUP3 SWAP1 SUB PUSH1 0x1F AND DUP3 ADD SWAP2 JUMPDEST POP POP POP POP POP DUP2 MSTORE PUSH1 0x20 ADD PUSH1 0x5 DUP3 ADD DUP1 SLOAD PUSH2 0x1538 SWAP1 PUSH2 0x3098 JUMP JUMPDEST DUP1 PUSH1 0x1F ADD PUSH1 0x20 DUP1 SWAP2 DIV MUL PUSH1 0x20 ADD PUSH1 0x40 MLOAD SWAP1 DUP2 ADD PUSH1 0x40 MSTORE DUP1 SWAP3 SWAP2 SWAP1 DUP2 DUP2 MSTORE PUSH1 0x20 ADD DUP3 DUP1 SLOAD PUSH2 0x1564 SWAP1 PUSH2 0x3098 JUMP JUMPDEST DUP1 ISZERO PUSH2 0x15B1 JUMPI DUP1 PUSH1 0x1F LT PUSH2 0x1586 JUMPI PUSH2 0x100 DUP1 DUP4 SLOAD DIV MUL DUP4 MSTORE SWAP2 PUSH1 0x20 ADD SWAP2 PUSH2 0x15B1 JUMP JUMPDEST DUP3 ADD SWAP2 SWAP1 PUSH1 0x0 MSTORE PUSH1 0x20 PUSH1 0x0 KECCAK256 SWAP1 JUMPDEST DUP2 SLOAD DUP2 MSTORE SWAP1 PUSH1 0x1 ADD SWAP1 PUSH1 0x20 ADD DUP1 DUP4 GT PUSH2 0x1594 JUMPI DUP3 SWAP1 SUB PUSH1 0x1F AND DUP3 ADD SWAP2 JUMPDEST POP POP POP POP POP DUP2 MSTORE PUSH1 0x20 ADD PUSH1 0x6 DUP3 ADD SLOAD DUP2 MSTORE POP POP DUP2 MSTORE PUSH1 0x20 ADD SWAP1 PUSH1 0x1 ADD SWAP1 PUSH2 0x13ED JUMP JUMPDEST PUSH2 0x15DB PUSH2 0x2323 JUMP JUMPDEST PUSH1 0x1 DUP1 SLOAD DUP4 SWAP1 DUP2 LT PUSH2 0x15FD JUMPI PUSH4 0x4E487B71 PUSH1 0xE0 SHL PUSH1 0x0 MSTORE PUSH1 0x32 PUSH1 0x4 MSTORE PUSH1 0x24 PUSH1 0x0 REVERT JUMPDEST PUSH1 0x0 SWAP2 DUP3 MSTORE PUSH1 0x20 SWAP2 DUP3 SWAP1 KECCAK256 PUSH1 0x40 DUP1 MLOAD PUSH1 0xC0 DUP2 ADD DUP3 MSTORE PUSH1 0x2 SWAP4 DUP5 MUL SWAP1 SWAP3 ADD DUP1 SLOAD PUSH2 0xFFFF DUP1 DUP3 AND DUP6 MSTORE PUSH3 0x10000 DUP3 DIV DUP2 AND SWAP7 DUP6 ADD SWAP7 SWAP1 SWAP7 MSTORE PUSH5 0x100000000 DUP2 DIV DUP7 AND SWAP3 DUP5 ADD SWAP3 SWAP1 SWAP3 MSTORE PUSH7 0x1000000000000 DUP3 DIV SWAP1 SWAP5 AND PUSH1 0x60 DUP4 ADD MSTORE SWAP1 SWAP3 SWAP2 PUSH1 0x80 DUP5 ADD SWAP2 PUSH9 0x10000000000000000 SWAP1 DIV PUSH1 0xFF AND SWAP1 DUP2 GT ISZERO PUSH2 0x168B JUMPI PUSH4 0x4E487B71 PUSH1 0xE0 SHL PUSH1 0x0 MSTORE PUSH1 0x21 PUSH1 0x4 MSTORE PUSH1 0x24 PUSH1 0x0 REVERT JUMPDEST PUSH1 0x2 DUP2 GT ISZERO PUSH2 0x16AA JUMPI PUSH4 0x4E487B71 PUSH1 0xE0 SHL PUSH1 0x0 MSTORE PUSH1 0x21 PUSH1 0x4 MSTORE PUSH1 0x24 PUSH1 0x0 REVERT JUMPDEST DUP2 MSTORE PUSH1 0x20 ADD PUSH1 0x1 DUP3 ADD DUP1 SLOAD PUSH2 0x16BE SWAP1 PUSH2 0x3098 JUMP JUMPDEST DUP1 PUSH1 0x1F ADD PUSH1 0x20 DUP1 SWAP2 DIV MUL PUSH1 0x20 ADD PUSH1 0x40 MLOAD SWAP1 DUP2 ADD PUSH1 0x40 MSTORE DUP1 SWAP3 SWAP2 SWAP1 DUP2 DUP2 MSTORE PUSH1 0x20 ADD DUP3 DUP1 SLOAD PUSH2 0x16EA SWAP1 PUSH2 0x3098 JUMP JUMPDEST DUP1 ISZERO PUSH2 0x1737 JUMPI DUP1 PUSH1 0x1F LT PUSH2 0x170C JUMPI PUSH2 0x100 DUP1 DUP4 SLOAD DIV MUL DUP4 MSTORE SWAP2 PUSH1 0x20 ADD SWAP2 PUSH2 0x1737 JUMP JUMPDEST DUP3 ADD SWAP2 SWAP1 PUSH1 0x0 MSTORE PUSH1 0x20 PUSH1 0x0 KECCAK256 SWAP1 JUMPDEST DUP2 SLOAD DUP2 MSTORE SWAP1 PUSH1 0x1 ADD SWAP1 PUSH1 0x20 ADD DUP1 DUP4 GT PUSH2 0x171A JUMPI DUP3 SWAP1 SUB PUSH1 0x1F AND DUP3 ADD SWAP2 JUMPDEST POP POP POP POP POP DUP2 MSTORE POP POP SWAP1 POP SWAP2 SWAP1 POP JUMP JUMPDEST PUSH1 0x0 DUP1 PUSH2 0x1787 CALLER DUP7 DUP7 DUP1 DUP1 PUSH1 0x20 MUL PUSH1 0x20 ADD PUSH1 0x40 MLOAD SWAP1 DUP2 ADD PUSH1 0x40 MSTORE DUP1 SWAP4 SWAP3 SWAP2 SWAP1 DUP2 DUP2 MSTORE PUSH1 0x20 ADD DUP4 DUP4 PUSH1 0x20 MUL DUP1 DUP3 DUP5 CALLDATACOPY PUSH1 0x0 SWAP3 ADD SWAP2 SWAP1 SWAP2 MSTORE POP PUSH2 0x1BEC SWAP3 POP POP POP JUMP JUMPDEST SWAP1 SWAP3 POP SWAP1 POP DUP3 DUP3 EQ ISZERO PUSH2 0x17AC JUMPI PUSH1 0x40 MLOAD PUSH3 0x461BCD PUSH1 0xE5 SHL DUP2 MSTORE PUSH1 0x4 ADD PUSH2 0x4C3 SWAP1 PUSH2 0x2BB4 JUMP JUMPDEST PUSH2 0x17B6 DUP3 DUP5 PUSH2 0x1CC4 JUMP JUMPDEST POP POP SWAP4 SWAP3 POP POP POP JUMP JUMPDEST PUSH1 0x0 DUP1 DUP4 PUSH1 0x2 DUP2 GT ISZERO PUSH2 0x17E2 JUMPI PUSH4 0x4E487B71 PUSH1 0xE0 SHL PUSH1 0x0 MSTORE PUSH1 0x21 PUSH1 0x4 MSTORE PUSH1 0x24 PUSH1 0x0 REVERT JUMPDEST PUSH1 0x40 MLOAD PUSH4 0xB9BF30A5 PUSH1 0xE0 SHL DUP2 MSTORE PUSH20 0x0 SWAP2 PUSH4 0xB9BF30A5 SWAP2 PUSH2 0x1818 SWAP2 SWAP1 PUSH1 0x4 ADD PUSH2 0x2B6F JUMP JUMPDEST PUSH1 0x20 PUSH1 0x40 MLOAD DUP1 DUP4 SUB DUP2 DUP7 DUP1 EXTCODESIZE ISZERO DUP1 ISZERO PUSH2 0x1830 JUMPI PUSH1 0x0 DUP1 REVERT JUMPDEST POP GAS DELEGATECALL ISZERO DUP1 ISZERO PUSH2 0x1844 JUMPI RETURNDATASIZE PUSH1 0x0 DUP1 RETURNDATACOPY RETURNDATASIZE PUSH1 0x0 REVERT JUMPDEST POP POP POP POP PUSH1 0x40 MLOAD RETURNDATASIZE PUSH1 0x1F NOT PUSH1 0x1F DUP3 ADD AND DUP3 ADD DUP1 PUSH1 0x40 MSTORE POP DUP2 ADD SWAP1 PUSH2 0x1868 SWAP2 SWAP1 PUSH2 0x27E3 JUMP JUMPDEST PUSH1 0xE SLOAD PUSH1 0x40 MLOAD PUSH4 0xAF7D6CA3 PUSH1 0xE0 SHL DUP2 MSTORE PUSH2 0xFFFF SWAP3 SWAP1 SWAP3 AND SWAP3 POP PUSH1 0x1 PUSH1 0x1 PUSH1 0xA0 SHL SUB AND SWAP1 PUSH4 0xAF7D6CA3 SWAP1 PUSH2 0x18A1 SWAP1 DUP9 SWAP1 DUP6 SWAP1 PUSH1 0x4 ADD PUSH2 0x29DC JUMP JUMPDEST PUSH1 0x20 PUSH1 0x40 MLOAD DUP1 DUP4 SUB DUP2 PUSH1 0x0 DUP8 DUP1 EXTCODESIZE ISZERO DUP1 ISZERO PUSH2 0x18BB JUMPI PUSH1 0x0 DUP1 REVERT JUMPDEST POP GAS CALL ISZERO DUP1 ISZERO PUSH2 0x18CF JUMPI RETURNDATASIZE PUSH1 0x0 DUP1 RETURNDATACOPY RETURNDATASIZE PUSH1 0x0 REVERT JUMPDEST POP POP POP POP PUSH1 0x40 MLOAD RETURNDATASIZE PUSH1 0x1F NOT PUSH1 0x1F DUP3 ADD AND DUP3 ADD DUP1 PUSH1 0x40 MSTORE POP DUP2 ADD SWAP1 PUSH2 0x18F3 SWAP2 SWAP1 PUSH2 0x2738 JUMP JUMPDEST POP PUSH1 0x40 MLOAD PUSH4 0x5B254BDD PUSH1 0xE1 SHL DUP2 MSTORE PUSH20 0x0 SWAP1 PUSH4 0xB64A97BA SWAP1 PUSH2 0x1930 SWAP1 PUSH1 0x0 SWAP1 DUP9 SWAP1 DUP9 SWAP1 PUSH1 0x4 ADD PUSH2 0x2F63 JUMP JUMPDEST PUSH1 0x20 PUSH1 0x40 MLOAD DUP1 DUP4 SUB DUP2 DUP7 DUP1 EXTCODESIZE ISZERO DUP1 ISZERO PUSH2 0x1948 JUMPI PUSH1 0x0 DUP1 REVERT JUMPDEST POP GAS DELEGATECALL ISZERO DUP1 ISZERO PUSH2 0x195C JUMPI RETURNDATASIZE PUSH1 0x0 DUP1 RETURNDATACOPY RETURNDATASIZE PUSH1 0x0 REVERT JUMPDEST POP POP POP POP PUSH1 0x40 MLOAD RETURNDATASIZE PUSH1 0x1F NOT PUSH1 0x1F DUP3 ADD AND DUP3 ADD DUP1 PUSH1 0x40 MSTORE POP DUP2 ADD SWAP1 PUSH2 0x1980 SWAP2 SWAP1 PUSH2 0x2815 JUMP JUMPDEST SWAP2 POP DUP2 PUSH32 0xB89BE3B4BDC4059B3E8638AC07EF31FB78418648FFA34EACCB60B1C60F318D29 DUP7 PUSH1 0x40 MLOAD PUSH2 0x19B2 SWAP2 SWAP1 PUSH2 0x2987 JUMP JUMPDEST PUSH1 0x40 MLOAD DUP1 SWAP2 SUB SWAP1 LOG2 PUSH1 0x0 DUP3 DUP2 MSTORE PUSH1 0x3 PUSH1 0x20 SWAP1 DUP2 MSTORE PUSH1 0x40 DUP1 DUP4 KECCAK256 DUP1 SLOAD PUSH1 0x1 PUSH1 0x1 PUSH1 0xA0 SHL SUB NOT AND PUSH1 0x1 PUSH1 0x1 PUSH1 0xA0 SHL SUB DUP11 AND SWAP1 DUP2 OR SWAP1 SWAP2 SSTORE DUP4 MSTORE PUSH1 0x6 SWAP1 SWAP2 MSTORE DUP2 KECCAK256 DUP1 SLOAD PUSH1 0x1 SWAP3 SWAP1 PUSH2 0x1A01 SWAP1 DUP5 SWAP1 PUSH2 0x3054 JUMP JUMPDEST SWAP1 SWAP2 SSTORE POP SWAP2 SWAP6 SWAP5 POP POP POP POP POP JUMP JUMPDEST PUSH2 0x1A18 DUP2 PUSH2 0xA37 JUMP JUMPDEST PUSH1 0x1 PUSH1 0x1 PUSH1 0xA0 SHL SUB AND DUP3 PUSH1 0x1 PUSH1 0x1 PUSH1 0xA0 SHL SUB AND EQ PUSH2 0x1A48 JUMPI PUSH1 0x40 MLOAD PUSH3 0x461BCD PUSH1 0xE5 SHL DUP2 MSTORE PUSH1 0x4 ADD PUSH2 0x4C3 SWAP1 PUSH2 0x2D65 JUMP JUMPDEST PUSH1 0x3 PUSH1 0x0 DUP3 DUP2 MSTORE PUSH1 0x2 PUSH1 0x20 MSTORE PUSH1 0x40 SWAP1 KECCAK256 SLOAD PUSH1 0xFF AND PUSH1 0x4 DUP2 GT ISZERO PUSH2 0x1A7B JUMPI PUSH4 0x4E487B71 PUSH1 0xE0 SHL PUSH1 0x0 MSTORE PUSH1 0x21 PUSH1 0x4 MSTORE PUSH1 0x24 PUSH1 0x0 REVERT JUMPDEST EQ PUSH2 0x1A98 JUMPI PUSH1 0x40 MLOAD PUSH3 0x461BCD PUSH1 0xE5 SHL DUP2 MSTORE PUSH1 0x4 ADD PUSH2 0x4C3 SWAP1 PUSH2 0x2D9C JUMP JUMPDEST PUSH1 0x1 PUSH1 0x1 PUSH1 0xA0 SHL SUB DUP3 AND PUSH2 0x1AAB JUMPI PUSH1 0x0 DUP1 REVERT JUMPDEST PUSH1 0x0 SWAP1 DUP2 MSTORE PUSH1 0x2 PUSH1 0x20 DUP2 SWAP1 MSTORE PUSH1 0x40 SWAP1 SWAP2 KECCAK256 DUP1 SLOAD PUSH1 0xFF NOT AND SWAP1 SWAP2 OR SWAP1 SSTORE POP JUMP JUMPDEST PUSH2 0x1B05 DUP5 PUSH1 0x0 ADD DUP5 DUP2 SLOAD DUP2 LT PUSH2 0x1AF0 JUMPI PUSH4 0x4E487B71 PUSH1 0xE0 SHL PUSH1 0x0 MSTORE PUSH1 0x32 PUSH1 0x4 MSTORE PUSH1 0x24 PUSH1 0x0 REVERT JUMPDEST SWAP1 PUSH1 0x0 MSTORE PUSH1 0x20 PUSH1 0x0 KECCAK256 SWAP1 PUSH1 0x7 MUL ADD DUP4 DUP4 PUSH2 0x20DD JUMP JUMPDEST POP POP POP POP JUMP JUMPDEST PUSH1 0x0 DUP3 PUSH1 0x0 ADD DUP3 DUP2 SLOAD DUP2 LT PUSH2 0x1B30 JUMPI PUSH4 0x4E487B71 PUSH1 0xE0 SHL PUSH1 0x0 MSTORE PUSH1 0x32 PUSH1 0x4 MSTORE PUSH1 0x24 PUSH1 0x0 REVERT JUMPDEST SWAP1 PUSH1 0x0 MSTORE PUSH1 0x20 PUSH1 0x0 KECCAK256 SWAP1 PUSH1 0x7 MUL ADD SWAP1 POP JUMPDEST SWAP3 SWAP2 POP POP JUMP JUMPDEST PUSH1 0x1 DUP1 DUP4 ADD DUP1 SLOAD SWAP2 DUP3 ADD DUP2 SSTORE PUSH1 0x0 SWAP1 DUP2 MSTORE PUSH1 0x20 SWAP1 KECCAK256 ADD DUP2 SWAP1 SSTORE DUP2 SLOAD DUP3 SWAP1 DUP3 SWAP1 DUP2 LT PUSH2 0x1B82 JUMPI PUSH4 0x4E487B71 PUSH1 0xE0 SHL PUSH1 0x0 MSTORE PUSH1 0x32 PUSH1 0x4 MSTORE PUSH1 0x24 PUSH1 0x0 REVERT JUMPDEST PUSH1 0x0 SWAP2 DUP3 MSTORE PUSH1 0x20 DUP3 KECCAK256 PUSH1 0x7 SWAP1 SWAP2 MUL ADD DUP2 DUP2 SSTORE SWAP1 PUSH2 0x1BA2 PUSH1 0x1 DUP4 ADD DUP3 PUSH2 0x2359 JUMP JUMPDEST PUSH1 0x2 DUP3 ADD DUP1 SLOAD PUSH1 0x1 PUSH1 0x1 PUSH1 0xA0 SHL SUB NOT SWAP1 DUP2 AND SWAP1 SWAP2 SSTORE PUSH1 0x3 DUP4 ADD DUP1 SLOAD SWAP1 SWAP2 AND SWAP1 SSTORE PUSH2 0x1BD0 PUSH1 0x4 DUP4 ADD PUSH1 0x0 PUSH2 0x2377 JUMP JUMPDEST PUSH2 0x1BDE PUSH1 0x5 DUP4 ADD PUSH1 0x0 PUSH2 0x2377 JUMP JUMPDEST PUSH1 0x6 DUP3 ADD PUSH1 0x0 SWAP1 SSTORE POP POP POP POP JUMP JUMPDEST PUSH1 0x40 MLOAD PUSH4 0x472603D PUSH1 0xE5 SHL DUP2 MSTORE PUSH1 0x0 SWAP1 DUP2 SWAP1 PUSH20 0x0 SWAP1 PUSH4 0x8E4C07A0 SWAP1 PUSH2 0x1C2F SWAP1 PUSH1 0x7 SWAP1 DUP6 SWAP1 DUP9 SWAP1 DUP11 SWAP1 PUSH1 0x4 ADD PUSH2 0x2E8E JUMP JUMPDEST PUSH1 0x40 DUP1 MLOAD DUP1 DUP4 SUB DUP2 DUP7 DUP1 EXTCODESIZE ISZERO DUP1 ISZERO PUSH2 0x1C46 JUMPI PUSH1 0x0 DUP1 REVERT JUMPDEST POP GAS DELEGATECALL ISZERO DUP1 ISZERO PUSH2 0x1C5A JUMPI RETURNDATASIZE PUSH1 0x0 DUP1 RETURNDATACOPY RETURNDATASIZE PUSH1 0x0 REVERT JUMPDEST POP POP POP POP PUSH1 0x40 MLOAD RETURNDATASIZE PUSH1 0x1F NOT PUSH1 0x1F DUP3 ADD AND DUP3 ADD DUP1 PUSH1 0x40 MSTORE POP DUP2 ADD SWAP1 PUSH2 0x1C7E SWAP2 SWAP1 PUSH2 0x282D JUMP JUMPDEST PUSH1 0x40 MLOAD SWAP2 SWAP4 POP SWAP2 POP PUSH32 0x67F794A23800C26D9E9CE3C51A9E95DD2C5A724C30030822F589294AFC81231B SWAP1 PUSH2 0x1CB5 SWAP1 DUP7 SWAP1 DUP6 SWAP1 PUSH2 0x29DC JUMP JUMPDEST PUSH1 0x40 MLOAD DUP1 SWAP2 SUB SWAP1 LOG1 SWAP3 POP SWAP3 SWAP1 POP JUMP JUMPDEST PUSH1 0x0 DUP2 DUP2 MSTORE PUSH1 0xA PUSH1 0x20 MSTORE PUSH1 0x40 DUP2 KECCAK256 SLOAD PUSH1 0xFF AND PUSH1 0x5 DUP2 GT ISZERO PUSH2 0x1CF5 JUMPI PUSH4 0x4E487B71 PUSH1 0xE0 SHL PUSH1 0x0 MSTORE PUSH1 0x21 PUSH1 0x4 MSTORE PUSH1 0x24 PUSH1 0x0 REVERT JUMPDEST PUSH1 0x0 DUP5 DUP2 MSTORE PUSH1 0xA PUSH1 0x20 MSTORE PUSH1 0x40 SWAP1 KECCAK256 SLOAD PUSH1 0xFF AND PUSH1 0x5 DUP2 GT ISZERO PUSH2 0x1D26 JUMPI PUSH4 0x4E487B71 PUSH1 0xE0 SHL PUSH1 0x0 MSTORE PUSH1 0x21 PUSH1 0x4 MSTORE PUSH1 0x24 PUSH1 0x0 REVERT JUMPDEST EQ PUSH2 0x1D43 JUMPI PUSH1 0x40 MLOAD PUSH3 0x461BCD PUSH1 0xE5 SHL DUP2 MSTORE PUSH1 0x4 ADD PUSH2 0x4C3 SWAP1 PUSH2 0x2B90 JUMP JUMPDEST PUSH1 0x40 MLOAD PUSH4 0xB0258AF7 PUSH1 0xE0 SHL DUP2 MSTORE PUSH1 0x0 SWAP1 PUSH20 0x0 SWAP1 PUSH4 0xB0258AF7 SWAP1 PUSH2 0x1D82 SWAP1 PUSH1 0x7 SWAP1 DUP9 SWAP1 DUP7 SWAP1 PUSH1 0x4 ADD PUSH2 0x2F15 JUMP JUMPDEST PUSH1 0x0 PUSH1 0x40 MLOAD DUP1 DUP4 SUB DUP2 DUP7 DUP1 EXTCODESIZE ISZERO DUP1 ISZERO PUSH2 0x1D9A JUMPI PUSH1 0x0 DUP1 REVERT JUMPDEST POP GAS DELEGATECALL ISZERO DUP1 ISZERO PUSH2 0x1DAE JUMPI RETURNDATASIZE PUSH1 0x0 DUP1 RETURNDATACOPY RETURNDATASIZE PUSH1 0x0 REVERT JUMPDEST POP POP POP POP PUSH1 0x40 MLOAD RETURNDATASIZE PUSH1 0x0 DUP3 RETURNDATACOPY PUSH1 0x1F RETURNDATASIZE SWAP1 DUP2 ADD PUSH1 0x1F NOT AND DUP3 ADD PUSH1 0x40 MSTORE PUSH2 0x1DD6 SWAP2 SWAP1 DUP2 ADD SWAP1 PUSH2 0x24FB JUMP JUMPDEST PUSH1 0x40 MLOAD PUSH4 0xB0258AF7 PUSH1 0xE0 SHL DUP2 MSTORE SWAP1 SWAP2 POP PUSH1 0x0 SWAP1 PUSH20 0x0 SWAP1 PUSH4 0xB0258AF7 SWAP1 PUSH2 0x1E18 SWAP1 PUSH1 0x7 SWAP1 DUP9 SWAP1 DUP7 SWAP1 PUSH1 0x4 ADD PUSH2 0x2F15 JUMP JUMPDEST PUSH1 0x0 PUSH1 0x40 MLOAD DUP1 DUP4 SUB DUP2 DUP7 DUP1 EXTCODESIZE ISZERO DUP1 ISZERO PUSH2 0x1E30 JUMPI PUSH1 0x0 DUP1 REVERT JUMPDEST POP GAS DELEGATECALL ISZERO DUP1 ISZERO PUSH2 0x1E44 JUMPI RETURNDATASIZE PUSH1 0x0 DUP1 RETURNDATACOPY RETURNDATASIZE PUSH1 0x0 REVERT JUMPDEST POP POP POP POP PUSH1 0x40 MLOAD RETURNDATASIZE PUSH1 0x0 DUP3 RETURNDATACOPY PUSH1 0x1F RETURNDATASIZE SWAP1 DUP2 ADD PUSH1 0x1F NOT AND DUP3 ADD PUSH1 0x40 MSTORE PUSH2 0x1E6C SWAP2 SWAP1 DUP2 ADD SWAP1 PUSH2 0x24FB JUMP JUMPDEST DUP3 MLOAD DUP2 MLOAD SWAP2 SWAP3 POP SWAP1 PUSH1 0xFF DUP1 DUP4 AND SWAP1 DUP3 AND EQ PUSH2 0x1E99 JUMPI PUSH1 0x40 MLOAD PUSH3 0x461BCD PUSH1 0xE5 SHL DUP2 MSTORE PUSH1 0x4 ADD PUSH2 0x4C3 SWAP1 PUSH2 0x2C67 JUMP JUMPDEST PUSH1 0x0 DUP1 PUSH1 0x1 PUSH1 0x0 DUP10 DUP2 MSTORE PUSH1 0x9 PUSH1 0x20 MSTORE PUSH1 0x40 SWAP1 KECCAK256 SLOAD PUSH1 0x1 PUSH1 0x1 PUSH1 0xA0 SHL SUB AND ADDRESS EQ ISZERO PUSH2 0x1F53 JUMPI PUSH1 0x40 MLOAD PUSH4 0x5A4C02DF PUSH1 0xE1 SHL DUP2 MSTORE PUSH20 0x0 SWAP1 PUSH4 0xB49805BE SWAP1 PUSH2 0x1EFC SWAP1 PUSH1 0x7 SWAP1 PUSH1 0x0 SWAP1 DUP15 SWAP1 DUP11 SWAP1 PUSH1 0x4 ADD PUSH2 0x2EF7 JUMP JUMPDEST PUSH1 0x20 PUSH1 0x40 MLOAD DUP1 DUP4 SUB DUP2 DUP7 DUP1 EXTCODESIZE ISZERO DUP1 ISZERO PUSH2 0x1F14 JUMPI PUSH1 0x0 DUP1 REVERT JUMPDEST POP GAS DELEGATECALL ISZERO DUP1 ISZERO PUSH2 0x1F28 JUMPI RETURNDATASIZE PUSH1 0x0 DUP1 RETURNDATACOPY RETURNDATASIZE PUSH1 0x0 REVERT JUMPDEST POP POP POP POP PUSH1 0x40 MLOAD RETURNDATASIZE PUSH1 0x1F NOT PUSH1 0x1F DUP3 ADD AND DUP3 ADD DUP1 PUSH1 0x40 MSTORE POP DUP2 ADD SWAP1 PUSH2 0x1F4C SWAP2 SWAP1 PUSH2 0x27E3 JUMP JUMPDEST SWAP8 POP PUSH2 0x2093 JUMP JUMPDEST PUSH1 0x40 MLOAD PUSH4 0x148E72D9 PUSH1 0xE1 SHL DUP2 MSTORE PUSH20 0x0 SWAP1 PUSH4 0x291CE5B2 SWAP1 PUSH2 0x1F92 SWAP1 PUSH1 0x7 SWAP1 PUSH1 0x0 SWAP1 DUP15 SWAP1 DUP11 SWAP1 PUSH1 0x4 ADD PUSH2 0x2EF7 JUMP JUMPDEST PUSH1 0x20 PUSH1 0x40 MLOAD DUP1 DUP4 SUB DUP2 DUP7 DUP1 EXTCODESIZE ISZERO DUP1 ISZERO PUSH2 0x1FAA JUMPI PUSH1 0x0 DUP1 REVERT JUMPDEST POP GAS DELEGATECALL ISZERO DUP1 ISZERO PUSH2 0x1FBE JUMPI RETURNDATASIZE PUSH1 0x0 DUP1 RETURNDATACOPY RETURNDATASIZE PUSH1 0x0 REVERT JUMPDEST POP POP POP POP PUSH1 0x40 MLOAD RETURNDATASIZE PUSH1 0x1F NOT PUSH1 0x1F DUP3 ADD AND DUP3 ADD DUP1 PUSH1 0x40 MSTORE POP DUP2 ADD SWAP1 PUSH2 0x1FE2 SWAP2 SWAP1 PUSH2 0x27E3 JUMP JUMPDEST PUSH1 0xE SLOAD PUSH1 0x0 DUP12 DUP2 MSTORE PUSH1 0x9 PUSH1 0x20 MSTORE PUSH1 0x40 SWAP1 KECCAK256 SLOAD SWAP2 SWAP10 POP PUSH1 0x1 PUSH1 0x1 PUSH1 0xA0 SHL SUB SWAP1 DUP2 AND SWAP2 PUSH4 0x47E7EF24 SWAP2 AND PUSH2 0x2015 PUSH1 0x7 DUP14 PUSH2 0x2244 JUMP JUMPDEST PUSH1 0x1 ADD SLOAD PUSH1 0x40 MLOAD PUSH1 0x1 PUSH1 0x1 PUSH1 0xE0 SHL SUB NOT PUSH1 0xE0 DUP6 SWAP1 SHL AND DUP2 MSTORE PUSH2 0x203F SWAP3 SWAP2 PUSH2 0xFFFF AND SWAP1 PUSH1 0x4 ADD PUSH2 0x29BF JUMP JUMPDEST PUSH1 0x20 PUSH1 0x40 MLOAD DUP1 DUP4 SUB DUP2 PUSH1 0x0 DUP8 DUP1 EXTCODESIZE ISZERO DUP1 ISZERO PUSH2 0x2059 JUMPI PUSH1 0x0 DUP1 REVERT JUMPDEST POP GAS CALL ISZERO DUP1 ISZERO PUSH2 0x206D JUMPI RETURNDATASIZE PUSH1 0x0 DUP1 RETURNDATACOPY RETURNDATASIZE PUSH1 0x0 REVERT JUMPDEST POP POP POP POP PUSH1 0x40 MLOAD RETURNDATASIZE PUSH1 0x1F NOT PUSH1 0x1F DUP3 ADD AND DUP3 ADD DUP1 PUSH1 0x40 MSTORE POP DUP2 ADD SWAP1 PUSH2 0x2091 SWAP2 SWAP1 PUSH2 0x2738 JUMP JUMPDEST POP JUMPDEST DUP8 PUSH2 0x209F PUSH1 0x7 DUP13 PUSH2 0x2244 JUMP JUMPDEST PUSH1 0x1 ADD DUP1 SLOAD PUSH1 0x0 SWAP1 PUSH2 0x20B6 SWAP1 DUP5 SWAP1 PUSH2 0xFFFF AND PUSH2 0x302E JUMP JUMPDEST SWAP3 POP PUSH2 0x100 EXP DUP2 SLOAD DUP2 PUSH2 0xFFFF MUL NOT AND SWAP1 DUP4 PUSH2 0xFFFF AND MUL OR SWAP1 SSTORE POP POP POP POP POP POP POP POP SWAP3 SWAP2 POP POP JUMP JUMPDEST DUP3 SLOAD DUP3 GT PUSH2 0x20FD JUMPI PUSH1 0x40 MLOAD PUSH3 0x461BCD PUSH1 0xE5 SHL DUP2 MSTORE PUSH1 0x4 ADD PUSH2 0x4C3 SWAP1 PUSH2 0x2C8E JUMP JUMPDEST TIMESTAMP DUP4 PUSH1 0x6 ADD SLOAD LT ISZERO PUSH2 0x2121 JUMPI PUSH1 0x40 MLOAD PUSH3 0x461BCD PUSH1 0xE5 SHL DUP2 MSTORE PUSH1 0x4 ADD PUSH2 0x4C3 SWAP1 PUSH2 0x2DC9 JUMP JUMPDEST PUSH1 0x40 MLOAD PUSH4 0xAF7D6CA3 PUSH1 0xE0 SHL DUP2 MSTORE PUSH1 0x1 PUSH1 0x1 PUSH1 0xA0 SHL SUB DUP3 AND SWAP1 PUSH4 0xAF7D6CA3 SWAP1 PUSH2 0x214F SWAP1 CALLER SWAP1 DUP7 SWAP1 PUSH1 0x4 ADD PUSH2 0x29DC JUMP JUMPDEST PUSH1 0x20 PUSH1 0x40 MLOAD DUP1 DUP4 SUB DUP2 PUSH1 0x0 DUP8 DUP1 EXTCODESIZE ISZERO DUP1 ISZERO PUSH2 0x2169 JUMPI PUSH1 0x0 DUP1 REVERT JUMPDEST POP GAS CALL ISZERO DUP1 ISZERO PUSH2 0x217D JUMPI RETURNDATASIZE PUSH1 0x0 DUP1 RETURNDATACOPY RETURNDATASIZE PUSH1 0x0 REVERT JUMPDEST POP POP POP POP PUSH1 0x40 MLOAD RETURNDATASIZE PUSH1 0x1F NOT PUSH1 0x1F DUP3 ADD AND DUP3 ADD DUP1 PUSH1 0x40 MSTORE POP DUP2 ADD SWAP1 PUSH2 0x21A1 SWAP2 SWAP1 PUSH2 0x2738 JUMP JUMPDEST POP PUSH1 0x2 DUP4 ADD SLOAD DUP4 SLOAD PUSH1 0x40 MLOAD PUSH4 0x11F9FBC9 PUSH1 0xE2 SHL DUP2 MSTORE PUSH1 0x1 PUSH1 0x1 PUSH1 0xA0 SHL SUB DUP5 DUP2 AND SWAP4 PUSH4 0x47E7EF24 SWAP4 PUSH2 0x21D9 SWAP4 SWAP3 SWAP1 SWAP2 AND SWAP2 PUSH1 0x4 ADD PUSH2 0x29DC JUMP JUMPDEST PUSH1 0x20 PUSH1 0x40 MLOAD DUP1 DUP4 SUB DUP2 PUSH1 0x0 DUP8 DUP1 EXTCODESIZE ISZERO DUP1 ISZERO PUSH2 0x21F3 JUMPI PUSH1 0x0 DUP1 REVERT JUMPDEST POP GAS CALL ISZERO DUP1 ISZERO PUSH2 0x2207 JUMPI RETURNDATASIZE PUSH1 0x0 DUP1 RETURNDATACOPY RETURNDATASIZE PUSH1 0x0 REVERT JUMPDEST POP POP POP POP PUSH1 0x40 MLOAD RETURNDATASIZE PUSH1 0x1F NOT PUSH1 0x1F DUP3 ADD AND DUP3 ADD DUP1 PUSH1 0x40 MSTORE POP DUP2 ADD SWAP1 PUSH2 0x222B SWAP2 SWAP1 PUSH2 0x2738 JUMP JUMPDEST POP POP DUP2 SSTORE PUSH1 0x2 ADD DUP1 SLOAD PUSH1 0x1 PUSH1 0x1 PUSH1 0xA0 SHL SUB NOT AND CALLER OR SWAP1 SSTORE JUMP JUMPDEST PUSH1 0x0 DUP3 PUSH1 0x1 ADD DUP3 DUP2 SLOAD DUP2 LT PUSH2 0x2269 JUMPI PUSH4 0x4E487B71 PUSH1 0xE0 SHL PUSH1 0x0 MSTORE PUSH1 0x32 PUSH1 0x4 MSTORE PUSH1 0x24 PUSH1 0x0 REVERT JUMPDEST SWAP1 PUSH1 0x0 MSTORE PUSH1 0x20 PUSH1 0x0 KECCAK256 SWAP1 PUSH1 0x2 MUL ADD SWAP1 POP SWAP3 SWAP2 POP POP JUMP JUMPDEST PUSH1 0x40 DUP1 MLOAD PUSH1 0x60 DUP1 DUP3 ADD DUP4 MSTORE DUP2 MSTORE PUSH1 0x0 PUSH1 0x20 DUP3 ADD DUP2 SWAP1 MSTORE SWAP2 DUP2 ADD SWAP2 SWAP1 SWAP2 MSTORE SWAP1 JUMP JUMPDEST DUP3 DUP1 SLOAD PUSH2 0x22AB SWAP1 PUSH2 0x3098 JUMP JUMPDEST SWAP1 PUSH1 0x0 MSTORE PUSH1 0x20 PUSH1 0x0 KECCAK256 SWAP1 PUSH1 0x1F ADD PUSH1 0x20 SWAP1 DIV DUP2 ADD SWAP3 DUP3 PUSH2 0x22CD JUMPI PUSH1 0x0 DUP6 SSTORE PUSH2 0x2313 JUMP JUMPDEST DUP3 PUSH1 0x1F LT PUSH2 0x22E6 JUMPI DUP3 DUP1 ADD PUSH1 0xFF NOT DUP3 CALLDATALOAD AND OR DUP6 SSTORE PUSH2 0x2313 JUMP JUMPDEST DUP3 DUP1 ADD PUSH1 0x1 ADD DUP6 SSTORE DUP3 ISZERO PUSH2 0x2313 JUMPI SWAP2 DUP3 ADD JUMPDEST DUP3 DUP2 GT ISZERO PUSH2 0x2313 JUMPI DUP3 CALLDATALOAD DUP3 SSTORE SWAP2 PUSH1 0x20 ADD SWAP2 SWAP1 PUSH1 0x1 ADD SWAP1 PUSH2 0x22F8 JUMP JUMPDEST POP PUSH2 0x231F SWAP3 SWAP2 POP PUSH2 0x23AF JUMP JUMPDEST POP SWAP1 JUMP JUMPDEST PUSH1 0x40 DUP1 MLOAD PUSH1 0xC0 DUP2 ADD DUP3 MSTORE PUSH1 0x0 DUP1 DUP3 MSTORE PUSH1 0x20 DUP3 ADD DUP2 SWAP1 MSTORE SWAP2 DUP2 ADD DUP3 SWAP1 MSTORE PUSH1 0x60 DUP2 ADD DUP3 SWAP1 MSTORE SWAP1 PUSH1 0x80 DUP3 ADD SWAP1 DUP2 MSTORE PUSH1 0x20 ADD PUSH1 0x60 DUP2 MSTORE POP SWAP1 JUMP JUMPDEST POP DUP1 SLOAD PUSH1 0x0 DUP3 SSTORE SWAP1 PUSH1 0x0 MSTORE PUSH1 0x20 PUSH1 0x0 KECCAK256 SWAP1 DUP2 ADD SWAP1 PUSH2 0xFF7 SWAP2 SWAP1 PUSH2 0x23AF JUMP JUMPDEST POP DUP1 SLOAD PUSH2 0x2383 SWAP1 PUSH2 0x3098 JUMP JUMPDEST PUSH1 0x0 DUP3 SSTORE DUP1 PUSH1 0x1F LT PUSH2 0x2395 JUMPI POP PUSH2 0xFF7 JUMP JUMPDEST PUSH1 0x1F ADD PUSH1 0x20 SWAP1 DIV SWAP1 PUSH1 0x0 MSTORE PUSH1 0x20 PUSH1 0x0 KECCAK256 SWAP1 DUP2 ADD SWAP1 PUSH2 0xFF7 SWAP2 SWAP1 JUMPDEST JUMPDEST DUP1 DUP3 GT ISZERO PUSH2 0x231F JUMPI PUSH1 0x0 DUP2 SSTORE PUSH1 0x1 ADD PUSH2 0x23B0 JUMP JUMPDEST DUP1 CALLDATALOAD PUSH1 0x1 PUSH1 0x1 PUSH1 0xA0 SHL SUB DUP2 AND DUP2 EQ PUSH2 0x807 JUMPI PUSH1 0x0 DUP1 REVERT JUMPDEST PUSH1 0x0 DUP1 DUP4 PUSH1 0x1F DUP5 ADD SLT PUSH2 0x23EC JUMPI DUP2 DUP3 REVERT JUMPDEST POP DUP2 CALLDATALOAD PUSH8 0xFFFFFFFFFFFFFFFF DUP2 GT ISZERO PUSH2 0x2403 JUMPI DUP2 DUP3 REVERT JUMPDEST PUSH1 0x20 DUP4 ADD SWAP2 POP DUP4 PUSH1 0x20 DUP1 DUP4 MUL DUP6 ADD ADD GT ISZERO PUSH2 0x241D JUMPI PUSH1 0x0 DUP1 REVERT JUMPDEST SWAP3 POP SWAP3 SWAP1 POP JUMP JUMPDEST PUSH1 0x0 DUP1 DUP4 PUSH1 0x1F DUP5 ADD SLT PUSH2 0x2435 JUMPI DUP2 DUP3 REVERT JUMPDEST POP DUP2 CALLDATALOAD PUSH8 0xFFFFFFFFFFFFFFFF DUP2 GT ISZERO PUSH2 0x244C JUMPI DUP2 DUP3 REVERT JUMPDEST PUSH1 0x20 DUP4 ADD SWAP2 POP DUP4 PUSH1 0x20 DUP3 DUP6 ADD ADD GT ISZERO PUSH2 0x241D JUMPI PUSH1 0x0 DUP1 REVERT JUMPDEST DUP1 MLOAD PUSH2 0xFFFF DUP2 AND DUP2 EQ PUSH2 0x807 JUMPI PUSH1 0x0 DUP1 REVERT JUMPDEST PUSH1 0x0 PUSH1 0x20 DUP3 DUP5 SUB SLT ISZERO PUSH2 0x2487 JUMPI DUP1 DUP2 REVERT JUMPDEST PUSH2 0x2490 DUP3 PUSH2 0x23C4 JUMP JUMPDEST SWAP4 SWAP3 POP POP POP JUMP JUMPDEST PUSH1 0x0 DUP1 PUSH1 0x0 PUSH1 0x60 DUP5 DUP7 SUB SLT ISZERO PUSH2 0x24AB JUMPI DUP2 DUP3 REVERT JUMPDEST PUSH2 0x24B4 DUP5 PUSH2 0x23C4 JUMP JUMPDEST SWAP3 POP PUSH2 0x24C2 PUSH1 0x20 DUP6 ADD PUSH2 0x23C4 JUMP JUMPDEST SWAP2 POP PUSH1 0x40 DUP5 ADD CALLDATALOAD SWAP1 POP SWAP3 POP SWAP3 POP SWAP3 JUMP JUMPDEST PUSH1 0x0 DUP1 PUSH1 0x40 DUP4 DUP6 SUB SLT ISZERO PUSH2 0x24E4 JUMPI DUP2 DUP3 REVERT JUMPDEST PUSH2 0x24ED DUP4 PUSH2 0x23C4 JUMP JUMPDEST SWAP5 PUSH1 0x20 SWAP4 SWAP1 SWAP4 ADD CALLDATALOAD SWAP4 POP POP POP JUMP JUMPDEST PUSH1 0x0 PUSH1 0x20 DUP1 DUP4 DUP6 SUB SLT ISZERO PUSH2 0x250D JUMPI DUP2 DUP3 REVERT JUMPDEST DUP3 MLOAD PUSH8 0xFFFFFFFFFFFFFFFF DUP1 DUP3 GT ISZERO PUSH2 0x2524 JUMPI DUP4 DUP5 REVERT JUMPDEST DUP2 DUP6 ADD SWAP2 POP DUP6 PUSH1 0x1F DUP4 ADD SLT PUSH2 0x2537 JUMPI DUP4 DUP5 REVERT JUMPDEST DUP2 MLOAD DUP2 DUP2 GT ISZERO PUSH2 0x2549 JUMPI PUSH2 0x2549 PUSH2 0x3114 JUMP JUMPDEST PUSH2 0x2556 DUP5 DUP6 DUP4 MUL ADD PUSH2 0x2FFD JUMP JUMPDEST DUP2 DUP2 MSTORE DUP5 DUP2 ADD SWAP1 DUP5 DUP7 ADD DUP8 JUMPDEST DUP5 DUP2 LT ISZERO PUSH2 0x2668 JUMPI DUP2 MLOAD DUP8 ADD PUSH1 0x1F NOT PUSH1 0xC0 DUP3 DUP15 SUB DUP3 ADD SLT ISZERO PUSH2 0x2582 JUMPI DUP11 DUP12 REVERT JUMPDEST PUSH2 0x258C PUSH1 0xC0 PUSH2 0x2FFD JUMP JUMPDEST PUSH2 0x2597 DUP12 DUP5 ADD PUSH2 0x2464 JUMP JUMPDEST DUP2 MSTORE PUSH1 0x40 PUSH2 0x25A6 DUP2 DUP6 ADD PUSH2 0x2464 JUMP JUMPDEST DUP13 DUP4 ADD MSTORE PUSH2 0x25B6 PUSH1 0x60 DUP6 ADD PUSH2 0x2464 JUMP JUMPDEST DUP2 DUP4 ADD MSTORE PUSH2 0x25C6 PUSH1 0x80 DUP6 ADD PUSH2 0x2464 JUMP JUMPDEST PUSH1 0x60 DUP4 ADD MSTORE PUSH1 0xA0 DUP5 ADD MLOAD PUSH2 0x25D9 DUP2 PUSH2 0x3137 JUMP JUMPDEST PUSH1 0x80 DUP4 ADD MSTORE PUSH1 0xC0 DUP5 ADD MLOAD DUP11 DUP2 GT ISZERO PUSH2 0x25EF JUMPI DUP14 DUP15 REVERT JUMPDEST DUP1 DUP6 ADD SWAP5 POP POP DUP15 PUSH1 0x3F DUP6 ADD SLT PUSH2 0x2603 JUMPI DUP13 DUP14 REVERT JUMPDEST DUP12 DUP5 ADD MLOAD DUP11 DUP2 GT ISZERO PUSH2 0x2617 JUMPI PUSH2 0x2617 PUSH2 0x3114 JUMP JUMPDEST PUSH2 0x2627 DUP14 DUP6 PUSH1 0x1F DUP5 ADD AND ADD PUSH2 0x2FFD JUMP JUMPDEST SWAP4 POP DUP1 DUP5 MSTORE DUP16 DUP3 DUP3 DUP8 ADD ADD GT ISZERO PUSH2 0x263C JUMPI DUP14 DUP15 REVERT JUMPDEST PUSH2 0x264B DUP2 DUP15 DUP7 ADD DUP5 DUP9 ADD PUSH2 0x306C JUMP JUMPDEST POP POP PUSH1 0xA0 DUP2 ADD SWAP2 SWAP1 SWAP2 MSTORE DUP6 MSTORE POP SWAP3 DUP8 ADD SWAP3 SWAP1 DUP8 ADD SWAP1 PUSH1 0x1 ADD PUSH2 0x2562 JUMP JUMPDEST POP SWAP1 SWAP10 SWAP9 POP POP POP POP POP POP POP POP POP JUMP JUMPDEST PUSH1 0x0 DUP1 PUSH1 0x0 PUSH1 0x40 DUP5 DUP7 SUB SLT ISZERO PUSH2 0x268B JUMPI DUP3 DUP4 REVERT JUMPDEST DUP4 CALLDATALOAD PUSH8 0xFFFFFFFFFFFFFFFF DUP2 GT ISZERO PUSH2 0x26A1 JUMPI DUP4 DUP5 REVERT JUMPDEST PUSH2 0x26AD DUP7 DUP3 DUP8 ADD PUSH2 0x23DB JUMP JUMPDEST SWAP1 SWAP8 SWAP1 SWAP7 POP PUSH1 0x20 SWAP6 SWAP1 SWAP6 ADD CALLDATALOAD SWAP5 SWAP4 POP POP POP POP JUMP JUMPDEST PUSH1 0x0 DUP1 PUSH1 0x0 DUP1 PUSH1 0x0 PUSH1 0x60 DUP7 DUP9 SUB SLT ISZERO PUSH2 0x26D8 JUMPI DUP1 DUP2 REVERT JUMPDEST DUP6 CALLDATALOAD PUSH8 0xFFFFFFFFFFFFFFFF DUP1 DUP3 GT ISZERO PUSH2 0x26EF JUMPI DUP3 DUP4 REVERT JUMPDEST PUSH2 0x26FB DUP10 DUP4 DUP11 ADD PUSH2 0x23DB JUMP JUMPDEST SWAP1 SWAP8 POP SWAP6 POP PUSH1 0x20 DUP9 ADD CALLDATALOAD SWAP5 POP PUSH1 0x40 DUP9 ADD CALLDATALOAD SWAP2 POP DUP1 DUP3 GT ISZERO PUSH2 0x271A JUMPI DUP3 DUP4 REVERT JUMPDEST POP PUSH2 0x2727 DUP9 DUP3 DUP10 ADD PUSH2 0x2424 JUMP JUMPDEST SWAP7 SWAP10 SWAP6 SWAP9 POP SWAP4 SWAP7 POP SWAP3 SWAP5 SWAP4 SWAP3 POP POP POP JUMP JUMPDEST PUSH1 0x0 PUSH1 0x20 DUP3 DUP5 SUB SLT ISZERO PUSH2 0x2749 JUMPI DUP1 DUP2 REVERT JUMPDEST DUP2 MLOAD DUP1 ISZERO ISZERO DUP2 EQ PUSH2 0x2490 JUMPI DUP2 DUP3 REVERT JUMPDEST PUSH1 0x0 PUSH1 0x20 DUP3 DUP5 SUB SLT ISZERO PUSH2 0x2769 JUMPI DUP1 DUP2 REVERT JUMPDEST DUP2 CALLDATALOAD PUSH2 0x2490 DUP2 PUSH2 0x312A JUMP JUMPDEST PUSH1 0x0 PUSH1 0x20 DUP3 DUP5 SUB SLT ISZERO PUSH2 0x2785 JUMPI DUP1 DUP2 REVERT JUMPDEST DUP2 CALLDATALOAD PUSH2 0x2490 DUP2 PUSH2 0x3137 JUMP JUMPDEST PUSH1 0x0 DUP1 PUSH1 0x0 PUSH1 0x40 DUP5 DUP7 SUB SLT ISZERO PUSH2 0x27A4 JUMPI DUP1 DUP2 REVERT JUMPDEST DUP4 CALLDATALOAD PUSH2 0x27AF DUP2 PUSH2 0x3137 JUMP JUMPDEST SWAP3 POP PUSH1 0x20 DUP5 ADD CALLDATALOAD PUSH8 0xFFFFFFFFFFFFFFFF DUP2 GT ISZERO PUSH2 0x27CA JUMPI DUP2 DUP3 REVERT JUMPDEST PUSH2 0x27D6 DUP7 DUP3 DUP8 ADD PUSH2 0x2424 JUMP JUMPDEST SWAP5 SWAP8 SWAP1 SWAP7 POP SWAP4 SWAP5 POP POP POP POP JUMP JUMPDEST PUSH1 0x0 PUSH1 0x20 DUP3 DUP5 SUB SLT ISZERO PUSH2 0x27F4 JUMPI DUP1 DUP2 REVERT JUMPDEST PUSH2 0x2490 DUP3 PUSH2 0x2464 JUMP JUMPDEST PUSH1 0x0 PUSH1 0x20 DUP3 DUP5 SUB SLT ISZERO PUSH2 0x280E JUMPI DUP1 DUP2 REVERT JUMPDEST POP CALLDATALOAD SWAP2 SWAP1 POP JUMP JUMPDEST PUSH1 0x0 PUSH1 0x20 DUP3 DUP5 SUB SLT ISZERO PUSH2 0x2826 JUMPI DUP1 DUP2 REVERT JUMPDEST POP MLOAD SWAP2 SWAP1 POP JUMP JUMPDEST PUSH1 0x0 DUP1 PUSH1 0x40 DUP4 DUP6 SUB SLT ISZERO PUSH2 0x283F JUMPI DUP2 DUP3 REVERT JUMPDEST DUP3 MLOAD SWAP2 POP PUSH1 0x20 DUP4 ADD MLOAD PUSH2 0x2851 DUP2 PUSH2 0x312A JUMP JUMPDEST DUP1 SWAP2 POP POP SWAP3 POP SWAP3 SWAP1 POP JUMP JUMPDEST PUSH1 0x0 DUP1 PUSH1 0x40 DUP4 DUP6 SUB SLT ISZERO PUSH2 0x286E JUMPI DUP2 DUP3 REVERT JUMPDEST POP POP DUP1 CALLDATALOAD SWAP3 PUSH1 0x20 SWAP1 SWAP2 ADD CALLDATALOAD SWAP2 POP JUMP JUMPDEST PUSH1 0x0 DUP1 PUSH1 0x0 DUP1 PUSH1 0x60 DUP6 DUP8 SUB SLT ISZERO PUSH2 0x2892 JUMPI DUP2 DUP3 REVERT JUMPDEST DUP5 CALLDATALOAD SWAP4 POP PUSH1 0x20 DUP6 ADD CALLDATALOAD SWAP3 POP PUSH1 0x40 DUP6 ADD CALLDATALOAD PUSH8 0xFFFFFFFFFFFFFFFF DUP2 GT ISZERO PUSH2 0x28B6 JUMPI DUP3 DUP4 REVERT JUMPDEST PUSH2 0x28C2 DUP8 DUP3 DUP9 ADD PUSH2 0x2424 JUMP JUMPDEST SWAP6 SWAP9 SWAP5 SWAP8 POP SWAP6 POP POP POP POP JUMP JUMPDEST PUSH1 0x0 DUP2 MLOAD DUP1 DUP5 MSTORE PUSH1 0x20 DUP1 DUP6 ADD SWAP5 POP DUP1 DUP5 ADD DUP4 JUMPDEST DUP4 DUP2 LT ISZERO PUSH2 0x28FD JUMPI DUP2 MLOAD DUP8 MSTORE SWAP6 DUP3 ADD SWAP6 SWAP1 DUP3 ADD SWAP1 PUSH1 0x1 ADD PUSH2 0x28E1 JUMP JUMPDEST POP SWAP5 SWAP6 SWAP5 POP POP POP POP POP JUMP JUMPDEST PUSH1 0x3 DUP2 LT PUSH2 0x2918 JUMPI PUSH2 0x2918 PUSH2 0x30FE JUMP JUMPDEST SWAP1 MSTORE JUMP JUMPDEST PUSH1 0x0 DUP2 MLOAD DUP1 DUP5 MSTORE PUSH2 0x2934 DUP2 PUSH1 0x20 DUP7 ADD PUSH1 0x20 DUP7 ADD PUSH2 0x306C JUMP JUMPDEST PUSH1 0x1F ADD PUSH1 0x1F NOT AND SWAP3 SWAP1 SWAP3 ADD PUSH1 0x20 ADD SWAP3 SWAP2 POP POP JUMP JUMPDEST PUSH1 0x0 DUP2 MLOAD PUSH1 0x60 DUP5 MSTORE PUSH2 0x295D PUSH1 0x60 DUP6 ADD DUP3 PUSH2 0x28CE JUMP JUMPDEST SWAP1 POP PUSH1 0x20 DUP4 ADD MLOAD PUSH2 0xFFFF DUP1 DUP3 AND PUSH1 0x20 DUP8 ADD MSTORE DUP1 PUSH1 0x40 DUP7 ADD MLOAD AND PUSH1 0x40 DUP8 ADD MSTORE POP POP DUP1 SWAP2 POP POP SWAP3 SWAP2 POP POP JUMP JUMPDEST PUSH1 0x1 PUSH1 0x1 PUSH1 0xA0 SHL SUB SWAP2 SWAP1 SWAP2 AND DUP2 MSTORE PUSH1 0x20 ADD SWAP1 JUMP JUMPDEST PUSH1 0x1 PUSH1 0x1 PUSH1 0xA0 SHL SUB SWAP4 DUP5 AND DUP2 MSTORE SWAP2 SWAP1 SWAP3 AND PUSH1 0x20 DUP3 ADD MSTORE PUSH1 0x40 DUP2 ADD SWAP2 SWAP1 SWAP2 MSTORE PUSH1 0x60 ADD SWAP1 JUMP JUMPDEST PUSH1 0x1 PUSH1 0x1 PUSH1 0xA0 SHL SUB SWAP3 SWAP1 SWAP3 AND DUP3 MSTORE PUSH2 0xFFFF AND PUSH1 0x20 DUP3 ADD MSTORE PUSH1 0x40 ADD SWAP1 JUMP JUMPDEST PUSH1 0x1 PUSH1 0x1 PUSH1 0xA0 SHL SUB SWAP3 SWAP1 SWAP3 AND DUP3 MSTORE PUSH1 0x20 DUP3 ADD MSTORE PUSH1 0x40 ADD SWAP1 JUMP JUMPDEST PUSH1 0x20 DUP1 DUP3 MSTORE DUP3 MLOAD DUP3 DUP3 ADD DUP2 SWAP1 MSTORE PUSH1 0x0 SWAP2 SWAP1 PUSH1 0x40 SWAP1 DUP2 DUP6 ADD SWAP1 DUP1 DUP5 MUL DUP7 ADD DUP4 ADD DUP8 DUP6 ADD DUP7 JUMPDEST DUP4 DUP2 LT ISZERO PUSH2 0x2AC0 JUMPI PUSH1 0x3F NOT DUP10 DUP5 SUB ADD DUP6 MSTORE DUP2 MLOAD PUSH1 0xE0 DUP2 MLOAD DUP6 MSTORE DUP9 DUP3 ADD MLOAD DUP2 DUP11 DUP8 ADD MSTORE PUSH2 0x2A47 DUP3 DUP8 ADD DUP3 PUSH2 0x28CE JUMP JUMPDEST DUP4 DUP11 ADD MLOAD PUSH1 0x1 PUSH1 0x1 PUSH1 0xA0 SHL SUB SWAP1 DUP2 AND DUP9 DUP13 ADD MSTORE PUSH1 0x60 DUP1 DUP7 ADD MLOAD SWAP1 SWAP2 AND SWAP1 DUP9 ADD MSTORE PUSH1 0x80 DUP1 DUP6 ADD MLOAD DUP9 DUP4 SUB DUP3 DUP11 ADD MSTORE SWAP2 SWAP4 POP SWAP2 POP PUSH2 0x2A83 DUP4 DUP3 PUSH2 0x291C JUMP JUMPDEST SWAP3 POP POP POP PUSH1 0xA0 DUP1 DUP4 ADD MLOAD DUP7 DUP4 SUB DUP3 DUP9 ADD MSTORE PUSH2 0x2A9E DUP4 DUP3 PUSH2 0x291C JUMP JUMPDEST PUSH1 0xC0 SWAP5 DUP6 ADD MLOAD SWAP8 SWAP1 SWAP5 ADD SWAP7 SWAP1 SWAP7 MSTORE POP POP SWAP5 DUP8 ADD SWAP5 SWAP3 POP SWAP1 DUP7 ADD SWAP1 PUSH1 0x1 ADD PUSH2 0x2A19 JUMP JUMPDEST POP SWAP1 SWAP9 SWAP8 POP POP POP POP POP POP POP POP JUMP JUMPDEST PUSH1 0x0 PUSH1 0x20 DUP1 DUP4 ADD DUP2 DUP5 MSTORE DUP1 DUP6 MLOAD DUP1 DUP4 MSTORE PUSH1 0x40 DUP7 ADD SWAP2 POP PUSH1 0x40 DUP5 DUP3 MUL DUP8 ADD ADD SWAP3 POP DUP4 DUP8 ADD DUP6 JUMPDEST DUP3 DUP2 LT ISZERO PUSH2 0x2B21 JUMPI PUSH1 0x3F NOT DUP9 DUP7 SUB ADD DUP5 MSTORE PUSH2 0x2B0F DUP6 DUP4 MLOAD PUSH2 0x2948 JUMP JUMPDEST SWAP5 POP SWAP3 DUP6 ADD SWAP3 SWAP1 DUP6 ADD SWAP1 PUSH1 0x1 ADD PUSH2 0x2AF3 JUMP JUMPDEST POP SWAP3 SWAP8 SWAP7 POP POP POP POP POP POP POP JUMP JUMPDEST PUSH1 0x0 PUSH1 0x20 DUP3 MSTORE PUSH2 0x2490 PUSH1 0x20 DUP4 ADD DUP5 PUSH2 0x28CE JUMP JUMPDEST PUSH1 0x20 DUP2 ADD PUSH1 0x6 DUP4 LT PUSH2 0x2B55 JUMPI PUSH2 0x2B55 PUSH2 0x30FE JUMP JUMPDEST SWAP2 SWAP1 MSTORE SWAP1 JUMP JUMPDEST PUSH1 0x20 DUP2 ADD PUSH1 0x5 DUP4 LT PUSH2 0x2B55 JUMPI PUSH2 0x2B55 PUSH2 0x30FE JUMP JUMPDEST PUSH1 0x20 DUP2 ADD PUSH2 0x1B41 DUP3 DUP5 PUSH2 0x2908 JUMP JUMPDEST PUSH1 0x0 PUSH1 0x20 DUP3 MSTORE PUSH2 0x2490 PUSH1 0x20 DUP4 ADD DUP5 PUSH2 0x291C JUMP JUMPDEST PUSH1 0x20 DUP1 DUP3 MSTORE PUSH1 0xA SWAP1 DUP3 ADD MSTORE PUSH10 0x3BB937B733903A34B2B9 PUSH1 0xB1 SHL PUSH1 0x40 DUP3 ADD MSTORE PUSH1 0x60 ADD SWAP1 JUMP JUMPDEST PUSH1 0x20 DUP1 DUP3 MSTORE PUSH1 0x17 SWAP1 DUP3 ADD MSTORE PUSH32 0x756E69742063616E277420666967687420697473656C66000000000000000000 PUSH1 0x40 DUP3 ADD MSTORE PUSH1 0x60 ADD SWAP1 JUMP JUMPDEST PUSH1 0x20 DUP1 DUP3 MSTORE PUSH1 0x25 SWAP1 DUP3 ADD MSTORE PUSH32 0x596F7520617265206E6F742074686520686F7374206F66207468697320617563 PUSH1 0x40 DUP3 ADD MSTORE PUSH5 0x74696F6E21 PUSH1 0xD8 SHL PUSH1 0x60 DUP3 ADD MSTORE PUSH1 0x80 ADD SWAP1 JUMP JUMPDEST PUSH1 0x20 DUP1 DUP3 MSTORE PUSH1 0x19 SWAP1 DUP3 ADD MSTORE PUSH32 0x596F7520616C7265616479206F776E207468697320756E697400000000000000 PUSH1 0x40 DUP3 ADD MSTORE PUSH1 0x60 ADD SWAP1 JUMP JUMPDEST PUSH1 0x20 DUP1 DUP3 MSTORE PUSH1 0xD SWAP1 DUP3 ADD MSTORE PUSH13 0x696E657175616C2073697A6573 PUSH1 0x98 SHL PUSH1 0x40 DUP3 ADD MSTORE PUSH1 0x60 ADD SWAP1 JUMP JUMPDEST PUSH1 0x20 DUP1 DUP3 MSTORE PUSH1 0x1E SWAP1 DUP3 ADD MSTORE PUSH32 0x54686973206973206E6F742061206E6577206869676865737420626964210000 PUSH1 0x40 DUP3 ADD MSTORE PUSH1 0x60 ADD SWAP1 JUMP JUMPDEST PUSH1 0x20 DUP1 DUP3 MSTORE PUSH1 0x1B SWAP1 DUP3 ADD MSTORE PUSH32 0x4E6F7420612076616C696420616464726573732E20536F727279210000000000 PUSH1 0x40 DUP3 ADD MSTORE PUSH1 0x60 ADD SWAP1 JUMP JUMPDEST PUSH1 0x20 DUP1 DUP3 MSTORE PUSH1 0x21 SWAP1 DUP3 ADD MSTORE PUSH32 0x556E6974206973206E6F742070726F6D6973656420746F207468617420757365 PUSH1 0x40 DUP3 ADD MSTORE PUSH1 0x39 PUSH1 0xF9 SHL PUSH1 0x60 DUP3 ADD MSTORE PUSH1 0x80 ADD SWAP1 JUMP JUMPDEST PUSH1 0x20 DUP1 DUP3 MSTORE PUSH1 0xE SWAP1 DUP3 ADD MSTORE PUSH14 0x496E76616C69642063686F696365 PUSH1 0x90 SHL PUSH1 0x40 DUP3 ADD MSTORE PUSH1 0x60 ADD SWAP1 JUMP JUMPDEST PUSH1 0x20 DUP1 DUP3 MSTORE PUSH1 0x17 SWAP1 DUP3 ADD MSTORE PUSH32 0x596F7520646F6E2774206F776E207468697320756E6974000000000000000000 PUSH1 0x40 DUP3 ADD MSTORE PUSH1 0x60 ADD SWAP1 JUMP JUMPDEST PUSH1 0x20 DUP1 DUP3 MSTORE PUSH1 0x13 SWAP1 DUP3 ADD MSTORE PUSH19 0x556E697420697320756E617661696C61626C65 PUSH1 0x68 SHL PUSH1 0x40 DUP3 ADD MSTORE PUSH1 0x60 ADD SWAP1 JUMP JUMPDEST PUSH1 0x20 DUP1 DUP3 MSTORE PUSH1 0x16 SWAP1 DUP3 ADD MSTORE PUSH22 0x497420697320746F6F206C61746520746F2062696421 PUSH1 0x50 SHL PUSH1 0x40 DUP3 ADD MSTORE PUSH1 0x60 ADD SWAP1 JUMP JUMPDEST DUP7 DUP2 MSTORE PUSH1 0x80 PUSH1 0x20 DUP3 ADD DUP2 SWAP1 MSTORE DUP2 ADD DUP6 SWAP1 MSTORE PUSH1 0x0 PUSH1 0x1 PUSH1 0x1 PUSH1 0xFB SHL SUB DUP7 GT ISZERO PUSH2 0x2E1F JUMPI DUP1 DUP2 REVERT JUMPDEST PUSH1 0x20 DUP7 MUL DUP1 DUP9 PUSH1 0xA0 DUP6 ADD CALLDATACOPY PUSH1 0x40 DUP4 ADD DUP7 SWAP1 MSTORE DUP3 ADD DUP3 DUP2 SUB PUSH1 0xA0 SWAP1 DUP2 ADD PUSH1 0x60 DUP6 ADD MSTORE DUP2 ADD DUP5 SWAP1 MSTORE DUP4 DUP6 PUSH1 0xC0 DUP4 ADD CALLDATACOPY DUP2 PUSH1 0xC0 DUP6 DUP4 ADD ADD MSTORE PUSH1 0xC0 PUSH1 0x1F NOT PUSH1 0x1F DUP7 ADD AND DUP3 ADD ADD SWAP2 POP POP SWAP8 SWAP7 POP POP POP POP POP POP POP JUMP JUMPDEST SWAP3 DUP4 MSTORE PUSH1 0x20 DUP4 ADD SWAP2 SWAP1 SWAP2 MSTORE PUSH1 0x1 PUSH1 0x1 PUSH1 0xA0 SHL SUB AND PUSH1 0x40 DUP3 ADD MSTORE PUSH1 0x60 ADD SWAP1 JUMP JUMPDEST PUSH1 0x0 PUSH1 0x80 DUP3 ADD DUP7 DUP4 MSTORE PUSH1 0x20 DUP7 DUP2 DUP6 ADD MSTORE PUSH1 0x80 PUSH1 0x40 DUP6 ADD MSTORE DUP2 DUP7 MLOAD DUP1 DUP5 MSTORE PUSH1 0xA0 DUP7 ADD SWAP2 POP DUP3 DUP9 ADD SWAP4 POP DUP5 JUMPDEST DUP2 DUP2 LT ISZERO PUSH2 0x2ED4 JUMPI DUP5 MLOAD DUP4 MSTORE SWAP4 DUP4 ADD SWAP4 SWAP2 DUP4 ADD SWAP2 PUSH1 0x1 ADD PUSH2 0x2EB8 JUMP JUMPDEST POP POP PUSH1 0x1 PUSH1 0x1 PUSH1 0xA0 SHL SUB SWAP6 SWAP1 SWAP6 AND PUSH1 0x60 SWAP5 SWAP1 SWAP5 ADD SWAP4 SWAP1 SWAP4 MSTORE POP SWAP2 SWAP6 SWAP5 POP POP POP POP POP JUMP JUMPDEST SWAP4 DUP5 MSTORE PUSH1 0x20 DUP5 ADD SWAP3 SWAP1 SWAP3 MSTORE PUSH1 0x40 DUP4 ADD MSTORE PUSH1 0xFF AND PUSH1 0x60 DUP3 ADD MSTORE PUSH1 0x80 ADD SWAP1 JUMP JUMPDEST SWAP3 DUP4 MSTORE PUSH1 0x20 DUP4 ADD SWAP2 SWAP1 SWAP2 MSTORE PUSH1 0x40 DUP3 ADD MSTORE PUSH1 0x60 ADD SWAP1 JUMP JUMPDEST PUSH1 0x0 PUSH1 0x20 DUP3 MSTORE PUSH2 0x2490 PUSH1 0x20 DUP4 ADD DUP5 PUSH2 0x2948 JUMP JUMPDEST SWAP4 DUP5 MSTORE PUSH1 0x1 PUSH1 0x1 PUSH1 0xA0 SHL SUB SWAP3 DUP4 AND PUSH1 0x20 DUP6 ADD MSTORE SWAP2 AND PUSH1 0x40 DUP4 ADD MSTORE PUSH1 0x60 DUP3 ADD MSTORE PUSH1 0x80 ADD SWAP1 JUMP JUMPDEST PUSH1 0x0 DUP5 DUP3 MSTORE PUSH2 0x2F75 PUSH1 0x20 DUP4 ADD DUP6 PUSH2 0x2908 JUMP JUMPDEST PUSH1 0x60 PUSH1 0x40 DUP4 ADD MSTORE PUSH2 0x2F89 PUSH1 0x60 DUP4 ADD DUP5 PUSH2 0x291C JUMP JUMPDEST SWAP6 SWAP5 POP POP POP POP POP JUMP JUMPDEST PUSH1 0x0 PUSH1 0x20 DUP3 MSTORE PUSH2 0xFFFF DUP1 DUP5 MLOAD AND PUSH1 0x20 DUP5 ADD MSTORE DUP1 PUSH1 0x20 DUP6 ADD MLOAD AND PUSH1 0x40 DUP5 ADD MSTORE DUP1 PUSH1 0x40 DUP6 ADD MLOAD AND PUSH1 0x60 DUP5 ADD MSTORE DUP1 PUSH1 0x60 DUP6 ADD MLOAD AND PUSH1 0x80 DUP5 ADD MSTORE POP PUSH1 0x80 DUP4 ADD MLOAD PUSH2 0x2FDB PUSH1 0xA0 DUP5 ADD DUP3 PUSH2 0x2908 JUMP JUMPDEST POP PUSH1 0xA0 DUP4 ADD MLOAD PUSH1 0xC0 DUP1 DUP5 ADD MSTORE PUSH2 0xF2C PUSH1 0xE0 DUP5 ADD DUP3 PUSH2 0x291C JUMP JUMPDEST SWAP1 DUP2 MSTORE PUSH1 0x20 ADD SWAP1 JUMP JUMPDEST PUSH1 0x40 MLOAD PUSH1 0x1F DUP3 ADD PUSH1 0x1F NOT AND DUP2 ADD PUSH8 0xFFFFFFFFFFFFFFFF DUP2 GT DUP3 DUP3 LT OR ISZERO PUSH2 0x3026 JUMPI PUSH2 0x3026 PUSH2 0x3114 JUMP JUMPDEST PUSH1 0x40 MSTORE SWAP2 SWAP1 POP JUMP JUMPDEST PUSH1 0x0 PUSH2 0xFFFF DUP1 DUP4 AND DUP2 DUP6 AND DUP1 DUP4 SUB DUP3 GT ISZERO PUSH2 0x304B JUMPI PUSH2 0x304B PUSH2 0x30E8 JUMP JUMPDEST ADD SWAP5 SWAP4 POP POP POP POP JUMP JUMPDEST PUSH1 0x0 DUP3 NOT DUP3 GT ISZERO PUSH2 0x3067 JUMPI PUSH2 0x3067 PUSH2 0x30E8 JUMP JUMPDEST POP ADD SWAP1 JUMP JUMPDEST PUSH1 0x0 JUMPDEST DUP4 DUP2 LT ISZERO PUSH2 0x3087 JUMPI DUP2 DUP2 ADD MLOAD DUP4 DUP3 ADD MSTORE PUSH1 0x20 ADD PUSH2 0x306F JUMP JUMPDEST DUP4 DUP2 GT ISZERO PUSH2 0x1B05 JUMPI POP POP PUSH1 0x0 SWAP2 ADD MSTORE JUMP JUMPDEST PUSH1 0x2 DUP2 DIV PUSH1 0x1 DUP3 AND DUP1 PUSH2 0x30AC JUMPI PUSH1 0x7F DUP3 AND SWAP2 POP JUMPDEST PUSH1 0x20 DUP3 LT DUP2 EQ ISZERO PUSH2 0xCF8 JUMPI PUSH4 0x4E487B71 PUSH1 0xE0 SHL PUSH1 0x0 MSTORE PUSH1 0x22 PUSH1 0x4 MSTORE PUSH1 0x24 PUSH1 0x0 REVERT JUMPDEST PUSH1 0x0 PUSH1 0x0 NOT DUP3 EQ ISZERO PUSH2 0x30E1 JUMPI PUSH2 0x30E1 PUSH2 0x30E8 JUMP JUMPDEST POP PUSH1 0x1 ADD SWAP1 JUMP JUMPDEST PUSH4 0x4E487B71 PUSH1 0xE0 SHL PUSH1 0x0 MSTORE PUSH1 0x11 PUSH1 0x4 MSTORE PUSH1 0x24 PUSH1 0x0 REVERT JUMPDEST PUSH4 0x4E487B71 PUSH1 0xE0 SHL PUSH1 0x0 MSTORE PUSH1 0x21 PUSH1 0x4 MSTORE PUSH1 0x24 PUSH1 0x0 REVERT JUMPDEST PUSH4 0x4E487B71 PUSH1 0xE0 SHL PUSH1 0x0 MSTORE PUSH1 0x41 PUSH1 0x4 MSTORE PUSH1 0x24 PUSH1 0x0 REVERT JUMPDEST PUSH1 0x6 DUP2 LT PUSH2 0xFF7 JUMPI PUSH1 0x0 DUP1 REVERT JUMPDEST PUSH1 0x3 DUP2 LT PUSH2 0xFF7 JUMPI PUSH1 0x0 DUP1 REVERT INVALID LOG2 PUSH5 0x6970667358 0x22 SLT KECCAK256 0xB7 DUP9 CREATE2 CALLCODE BLOCKHASH GASLIMIT PUSH32 0xF44CA59C49FE9B950301B51BD54F08ED0EF5797019B282950F64736F6C634300 ADDMOD ADD STOP CALLER PUSH1 0x80 PUSH1 0x40 MSTORE PUSH4 0x3B9ACA00 PUSH1 0x0 SSTORE CALLVALUE DUP1 ISZERO PUSH2 0x18 JUMPI PUSH1 0x0 DUP1 REVERT JUMPDEST POP PUSH1 0x40 MLOAD PUSH2 0xB63 CODESIZE SUB DUP1 PUSH2 0xB63 DUP4 CODECOPY DUP2 ADD PUSH1 0x40 DUP2 SWAP1 MSTORE PUSH2 0x37 SWAP2 PUSH2 0x6C JUMP JUMPDEST PUSH1 0x4 DUP1 SLOAD PUSH1 0x1 PUSH1 0x1 PUSH1 0xA0 SHL SUB SWAP1 SWAP3 AND PUSH1 0x1 PUSH1 0x1 PUSH1 0xA0 SHL SUB NOT SWAP1 SWAP3 AND DUP3 OR SWAP1 SSTORE PUSH1 0x0 DUP1 SLOAD SWAP2 DUP2 MSTORE PUSH1 0x1 PUSH1 0x20 MSTORE PUSH1 0x40 SWAP1 KECCAK256 SSTORE PUSH2 0x9A JUMP JUMPDEST PUSH1 0x0 PUSH1 0x20 DUP3 DUP5 SUB SLT ISZERO PUSH2 0x7D JUMPI DUP1 DUP2 REVERT JUMPDEST DUP2 MLOAD PUSH1 0x1 PUSH1 0x1 PUSH1 0xA0 SHL SUB DUP2 AND DUP2 EQ PUSH2 0x93 JUMPI DUP2 DUP3 REVERT JUMPDEST SWAP4 SWAP3 POP POP POP JUMP JUMPDEST PUSH2 0xABA DUP1 PUSH2 0xA9 PUSH1 0x0 CODECOPY PUSH1 0x0 RETURN INVALID PUSH1 0x80 PUSH1 0x40 MSTORE PUSH1 0x4 CALLDATASIZE LT PUSH2 0xC2 JUMPI PUSH1 0x0 CALLDATALOAD PUSH1 0xE0 SHR DUP1 PUSH4 0x70A08231 GT PUSH2 0x7F JUMPI DUP1 PUSH4 0xA9059CBB GT PUSH2 0x59 JUMPI DUP1 PUSH4 0xA9059CBB EQ PUSH2 0x1D5 JUMPI DUP1 PUSH4 0xAF7D6CA3 EQ PUSH2 0x1F5 JUMPI DUP1 PUSH4 0xD4E7B8AD EQ PUSH2 0x215 JUMPI DUP1 PUSH4 0xDD62ED3E EQ PUSH2 0x235 JUMPI PUSH2 0xC2 JUMP JUMPDEST DUP1 PUSH4 0x70A08231 EQ PUSH2 0x18B JUMPI DUP1 PUSH4 0x89EB068A EQ PUSH2 0x1AB JUMPI DUP1 PUSH4 0x95D89B41 EQ PUSH2 0x1C0 JUMPI PUSH2 0xC2 JUMP JUMPDEST DUP1 PUSH4 0x6FDDE03 EQ PUSH2 0xC7 JUMPI DUP1 PUSH4 0x95EA7B3 EQ PUSH2 0xF2 JUMPI DUP1 PUSH4 0x18160DDD EQ PUSH2 0x11F JUMPI DUP1 PUSH4 0x23B872DD EQ PUSH2 0x141 JUMPI DUP1 PUSH4 0x3290CE29 EQ PUSH2 0x161 JUMPI DUP1 PUSH4 0x47E7EF24 EQ PUSH2 0x16B JUMPI JUMPDEST PUSH1 0x0 DUP1 REVERT JUMPDEST CALLVALUE DUP1 ISZERO PUSH2 0xD3 JUMPI PUSH1 0x0 DUP1 REVERT JUMPDEST POP PUSH2 0xDC PUSH2 0x255 JUMP JUMPDEST PUSH1 0x40 MLOAD PUSH2 0xE9 SWAP2 SWAP1 PUSH2 0x8B8 JUMP JUMPDEST PUSH1 0x40 MLOAD DUP1 SWAP2 SUB SWAP1 RETURN JUMPDEST CALLVALUE DUP1 ISZERO PUSH2 0xFE JUMPI PUSH1 0x0 DUP1 REVERT JUMPDEST POP PUSH2 0x112 PUSH2 0x10D CALLDATASIZE PUSH1 0x4 PUSH2 0x884 JUMP JUMPDEST PUSH2 0x284 JUMP JUMPDEST PUSH1 0x40 MLOAD PUSH2 0xE9 SWAP2 SWAP1 PUSH2 0x8AD JUMP JUMPDEST CALLVALUE DUP1 ISZERO PUSH2 0x12B JUMPI PUSH1 0x0 DUP1 REVERT JUMPDEST POP PUSH2 0x134 PUSH2 0x298 JUMP JUMPDEST PUSH1 0x40 MLOAD PUSH2 0xE9 SWAP2 SWAP1 PUSH2 0xA17 JUMP JUMPDEST CALLVALUE DUP1 ISZERO PUSH2 0x14D JUMPI PUSH1 0x0 DUP1 REVERT JUMPDEST POP PUSH2 0x112 PUSH2 0x15C CALLDATASIZE PUSH1 0x4 PUSH2 0x849 JUMP JUMPDEST PUSH2 0x29E JUMP JUMPDEST PUSH2 0x169 PUSH2 0x3BA JUMP JUMPDEST STOP JUMPDEST CALLVALUE DUP1 ISZERO PUSH2 0x177 JUMPI PUSH1 0x0 DUP1 REVERT JUMPDEST POP PUSH2 0x112 PUSH2 0x186 CALLDATASIZE PUSH1 0x4 PUSH2 0x884 JUMP JUMPDEST PUSH2 0x3EB JUMP JUMPDEST CALLVALUE DUP1 ISZERO PUSH2 0x197 JUMPI PUSH1 0x0 DUP1 REVERT JUMPDEST POP PUSH2 0x134 PUSH2 0x1A6 CALLDATASIZE PUSH1 0x4 PUSH2 0x7FD JUMP JUMPDEST PUSH2 0x4AD JUMP JUMPDEST CALLVALUE DUP1 ISZERO PUSH2 0x1B7 JUMPI PUSH1 0x0 DUP1 REVERT JUMPDEST POP PUSH2 0x169 PUSH2 0x4CC JUMP JUMPDEST CALLVALUE DUP1 ISZERO PUSH2 0x1CC JUMPI PUSH1 0x0 DUP1 REVERT JUMPDEST POP PUSH2 0xDC PUSH2 0x4EE JUMP JUMPDEST CALLVALUE DUP1 ISZERO PUSH2 0x1E1 JUMPI PUSH1 0x0 DUP1 REVERT JUMPDEST POP PUSH2 0x112 PUSH2 0x1F0 CALLDATASIZE PUSH1 0x4 PUSH2 0x884 JUMP JUMPDEST PUSH2 0x50E JUMP JUMPDEST CALLVALUE DUP1 ISZERO PUSH2 0x201 JUMPI PUSH1 0x0 DUP1 REVERT JUMPDEST POP PUSH2 0x112 PUSH2 0x210 CALLDATASIZE PUSH1 0x4 PUSH2 0x884 JUMP JUMPDEST PUSH2 0x5C5 JUMP JUMPDEST CALLVALUE DUP1 ISZERO PUSH2 0x221 JUMPI PUSH1 0x0 DUP1 REVERT JUMPDEST POP PUSH2 0x134 PUSH2 0x230 CALLDATASIZE PUSH1 0x4 PUSH2 0x7FD JUMP JUMPDEST PUSH2 0x69E JUMP JUMPDEST CALLVALUE DUP1 ISZERO PUSH2 0x241 JUMPI PUSH1 0x0 DUP1 REVERT JUMPDEST POP PUSH2 0x134 PUSH2 0x250 CALLDATASIZE PUSH1 0x4 PUSH2 0x817 JUMP JUMPDEST PUSH2 0x6D2 JUMP JUMPDEST PUSH1 0x40 DUP1 MLOAD DUP1 DUP3 ADD SWAP1 SWAP2 MSTORE PUSH1 0x15 DUP2 MSTORE PUSH21 0x20BABA37A1B432B9B99029BA37B932902A37B5B2B7 PUSH1 0x59 SHL PUSH1 0x20 DUP3 ADD MSTORE SWAP1 JUMP JUMPDEST PUSH1 0x0 PUSH2 0x291 CALLER DUP5 DUP5 PUSH2 0x6FD JUMP JUMPDEST SWAP4 SWAP3 POP POP POP JUMP JUMPDEST PUSH1 0x0 SLOAD SWAP1 JUMP JUMPDEST PUSH1 0x1 PUSH1 0x1 PUSH1 0xA0 SHL SUB DUP1 DUP5 AND PUSH1 0x0 SWAP1 DUP2 MSTORE PUSH1 0x2 PUSH1 0x20 SWAP1 DUP2 MSTORE PUSH1 0x40 DUP1 DUP4 KECCAK256 SWAP4 DUP7 AND DUP4 MSTORE SWAP3 SWAP1 MSTORE SWAP1 DUP2 KECCAK256 SLOAD DUP3 LT PUSH2 0x2ED JUMPI PUSH1 0x40 MLOAD PUSH3 0x461BCD PUSH1 0xE5 SHL DUP2 MSTORE PUSH1 0x4 ADD PUSH2 0x2E4 SWAP1 PUSH2 0x90B JUMP JUMPDEST PUSH1 0x40 MLOAD DUP1 SWAP2 SUB SWAP1 REVERT JUMPDEST PUSH1 0x1 PUSH1 0x1 PUSH1 0xA0 SHL SUB DUP1 DUP6 AND PUSH1 0x0 SWAP1 DUP2 MSTORE PUSH1 0x2 PUSH1 0x20 SWAP1 DUP2 MSTORE PUSH1 0x40 DUP1 DUP4 KECCAK256 SWAP4 DUP8 AND DUP4 MSTORE SWAP3 SWAP1 MSTORE SWAP1 DUP2 KECCAK256 DUP1 SLOAD DUP5 SWAP3 SWAP1 PUSH2 0x324 SWAP1 DUP5 SWAP1 PUSH2 0xA57 JUMP JUMPDEST SWAP1 SWAP2 SSTORE POP POP PUSH1 0x1 PUSH1 0x1 PUSH1 0xA0 SHL SUB DUP5 AND PUSH1 0x0 SWAP1 DUP2 MSTORE PUSH1 0x3 PUSH1 0x20 MSTORE PUSH1 0x40 DUP2 KECCAK256 DUP1 SLOAD DUP5 SWAP3 SWAP1 PUSH2 0x351 SWAP1 DUP5 SWAP1 PUSH2 0xA57 JUMP JUMPDEST SWAP1 SWAP2 SSTORE POP POP PUSH1 0x1 PUSH1 0x1 PUSH1 0xA0 SHL SUB DUP5 AND PUSH1 0x0 SWAP1 DUP2 MSTORE PUSH1 0x1 PUSH1 0x20 MSTORE PUSH1 0x40 DUP2 KECCAK256 DUP1 SLOAD DUP5 SWAP3 SWAP1 PUSH2 0x37E SWAP1 DUP5 SWAP1 PUSH2 0xA57 JUMP JUMPDEST SWAP1 SWAP2 SSTORE POP POP PUSH1 0x1 PUSH1 0x1 PUSH1 0xA0 SHL SUB DUP4 AND PUSH1 0x0 SWAP1 DUP2 MSTORE PUSH1 0x1 PUSH1 0x20 MSTORE PUSH1 0x40 DUP2 KECCAK256 DUP1 SLOAD DUP5 SWAP3 SWAP1 PUSH2 0x3AB SWAP1 DUP5 SWAP1 PUSH2 0xA20 JUMP JUMPDEST SWAP1 SWAP2 SSTORE POP PUSH1 0x1 SWAP6 SWAP5 POP POP POP POP POP JUMP JUMPDEST PUSH2 0x3C5 CALLVALUE PUSH1 0x64 PUSH2 0xA38 JUMP JUMPDEST CALLER PUSH1 0x0 SWAP1 DUP2 MSTORE PUSH1 0x1 PUSH1 0x20 MSTORE PUSH1 0x40 DUP2 KECCAK256 DUP1 SLOAD SWAP1 SWAP2 SWAP1 PUSH2 0x3E4 SWAP1 DUP5 SWAP1 PUSH2 0xA20 JUMP JUMPDEST SWAP1 SWAP2 SSTORE POP POP JUMP JUMPDEST PUSH1 0x4 SLOAD PUSH1 0x0 SWAP1 PUSH1 0x1 PUSH1 0x1 PUSH1 0xA0 SHL SUB AND CALLER EQ PUSH2 0x418 JUMPI PUSH1 0x40 MLOAD PUSH3 0x461BCD PUSH1 0xE5 SHL DUP2 MSTORE PUSH1 0x4 ADD PUSH2 0x2E4 SWAP1 PUSH2 0x9CC JUMP JUMPDEST DUP2 PUSH1 0x0 DUP1 DUP3 DUP3 SLOAD PUSH2 0x429 SWAP2 SWAP1 PUSH2 0xA20 JUMP JUMPDEST SWAP1 SWAP2 SSTORE POP POP PUSH1 0x1 PUSH1 0x1 PUSH1 0xA0 SHL SUB DUP4 AND PUSH1 0x0 SWAP1 DUP2 MSTORE PUSH1 0x1 PUSH1 0x20 MSTORE PUSH1 0x40 DUP2 KECCAK256 DUP1 SLOAD DUP5 SWAP3 SWAP1 PUSH2 0x456 SWAP1 DUP5 SWAP1 PUSH2 0xA20 JUMP JUMPDEST SWAP1 SWAP2 SSTORE POP POP PUSH1 0x4 SLOAD PUSH1 0x40 MLOAD PUSH1 0x1 PUSH1 0x1 PUSH1 0xA0 SHL SUB DUP1 DUP7 AND SWAP3 AND SWAP1 PUSH32 0xDDF252AD1BE2C89B69C2B068FC378DAA952BA7F163C4A11628F55A4DF523B3EF SWAP1 PUSH2 0x49C SWAP1 DUP7 SWAP1 PUSH2 0xA17 JUMP JUMPDEST PUSH1 0x40 MLOAD DUP1 SWAP2 SUB SWAP1 LOG3 POP PUSH1 0x1 SWAP3 SWAP2 POP POP JUMP JUMPDEST PUSH1 0x1 PUSH1 0x1 PUSH1 0xA0 SHL SUB DUP2 AND PUSH1 0x0 SWAP1 DUP2 MSTORE PUSH1 0x1 PUSH1 0x20 MSTORE PUSH1 0x40 SWAP1 KECCAK256 SLOAD JUMPDEST SWAP2 SWAP1 POP JUMP JUMPDEST CALLER PUSH1 0x0 SWAP1 DUP2 MSTORE PUSH1 0x1 PUSH1 0x20 MSTORE PUSH1 0x40 DUP2 KECCAK256 DUP1 SLOAD PUSH3 0x186A0 SWAP3 SWAP1 PUSH2 0x3E4 SWAP1 DUP5 SWAP1 PUSH2 0xA20 JUMP JUMPDEST PUSH1 0x40 DUP1 MLOAD DUP1 DUP3 ADD SWAP1 SWAP2 MSTORE PUSH1 0x6 DUP2 MSTORE PUSH6 0x1050D214D4D5 PUSH1 0xD2 SHL PUSH1 0x20 DUP3 ADD MSTORE SWAP1 JUMP JUMPDEST PUSH1 0x0 DUP2 PUSH2 0x51A CALLER PUSH2 0x69E JUMP JUMPDEST GT PUSH2 0x537 JUMPI PUSH1 0x40 MLOAD PUSH3 0x461BCD PUSH1 0xE5 SHL DUP2 MSTORE PUSH1 0x4 ADD PUSH2 0x2E4 SWAP1 PUSH2 0x935 JUMP JUMPDEST CALLER PUSH1 0x0 SWAP1 DUP2 MSTORE PUSH1 0x1 PUSH1 0x20 MSTORE PUSH1 0x40 DUP2 KECCAK256 DUP1 SLOAD DUP5 SWAP3 SWAP1 PUSH2 0x556 SWAP1 DUP5 SWAP1 PUSH2 0xA57 JUMP JUMPDEST SWAP1 SWAP2 SSTORE POP POP PUSH1 0x1 PUSH1 0x1 PUSH1 0xA0 SHL SUB DUP4 AND PUSH1 0x0 SWAP1 DUP2 MSTORE PUSH1 0x1 PUSH1 0x20 MSTORE PUSH1 0x40 DUP2 KECCAK256 DUP1 SLOAD DUP5 SWAP3 SWAP1 PUSH2 0x583 SWAP1 DUP5 SWAP1 PUSH2 0xA20 JUMP JUMPDEST SWAP1 SWAP2 SSTORE POP POP PUSH1 0x40 MLOAD PUSH1 0x1 PUSH1 0x1 PUSH1 0xA0 SHL SUB DUP5 AND SWAP1 CALLER SWAP1 PUSH32 0xDDF252AD1BE2C89B69C2B068FC378DAA952BA7F163C4A11628F55A4DF523B3EF SWAP1 PUSH2 0x49C SWAP1 DUP7 SWAP1 PUSH2 0xA17 JUMP JUMPDEST PUSH1 0x4 SLOAD PUSH1 0x0 SWAP1 PUSH1 0x1 PUSH1 0x1 PUSH1 0xA0 SHL SUB AND CALLER EQ PUSH2 0x5F2 JUMPI PUSH1 0x40 MLOAD PUSH3 0x461BCD PUSH1 0xE5 SHL DUP2 MSTORE PUSH1 0x4 ADD PUSH2 0x2E4 SWAP1 PUSH2 0x9CC JUMP JUMPDEST DUP2 PUSH2 0x5FC DUP5 PUSH2 0x69E JUMP JUMPDEST GT PUSH2 0x619 JUMPI PUSH1 0x40 MLOAD PUSH3 0x461BCD PUSH1 0xE5 SHL DUP2 MSTORE PUSH1 0x4 ADD PUSH2 0x2E4 SWAP1 PUSH2 0x935 JUMP JUMPDEST DUP2 PUSH1 0x0 DUP1 DUP3 DUP3 SLOAD PUSH2 0x62A SWAP2 SWAP1 PUSH2 0xA57 JUMP JUMPDEST SWAP1 SWAP2 SSTORE POP POP PUSH1 0x1 PUSH1 0x1 PUSH1 0xA0 SHL SUB DUP4 AND PUSH1 0x0 SWAP1 DUP2 MSTORE PUSH1 0x1 PUSH1 0x20 MSTORE PUSH1 0x40 DUP2 KECCAK256 DUP1 SLOAD DUP5 SWAP3 SWAP1 PUSH2 0x657 SWAP1 DUP5 SWAP1 PUSH2 0xA57 JUMP JUMPDEST SWAP1 SWAP2 SSTORE POP POP PUSH1 0x4 SLOAD PUSH1 0x40 MLOAD PUSH1 0x1 PUSH1 0x1 PUSH1 0xA0 SHL SUB SWAP2 DUP3 AND SWAP2 DUP6 AND SWAP1 PUSH32 0xDDF252AD1BE2C89B69C2B068FC378DAA952BA7F163C4A11628F55A4DF523B3EF SWAP1 PUSH2 0x49C SWAP1 DUP7 SWAP1 PUSH2 0xA17 JUMP JUMPDEST PUSH1 0x1 PUSH1 0x1 PUSH1 0xA0 SHL SUB DUP2 AND PUSH1 0x0 SWAP1 DUP2 MSTORE PUSH1 0x3 PUSH1 0x20 SWAP1 DUP2 MSTORE PUSH1 0x40 DUP1 DUP4 KECCAK256 SLOAD PUSH1 0x1 SWAP1 SWAP3 MSTORE DUP3 KECCAK256 SLOAD PUSH2 0x6CC SWAP2 SWAP1 PUSH2 0xA57 JUMP JUMPDEST SWAP3 SWAP2 POP POP JUMP JUMPDEST PUSH1 0x1 PUSH1 0x1 PUSH1 0xA0 SHL SUB SWAP2 DUP3 AND PUSH1 0x0 SWAP1 DUP2 MSTORE PUSH1 0x2 PUSH1 0x20 SWAP1 DUP2 MSTORE PUSH1 0x40 DUP1 DUP4 KECCAK256 SWAP4 SWAP1 SWAP5 AND DUP3 MSTORE SWAP2 SWAP1 SWAP2 MSTORE KECCAK256 SLOAD SWAP1 JUMP JUMPDEST PUSH1 0x0 DUP2 PUSH2 0x709 DUP6 PUSH2 0x69E JUMP JUMPDEST GT PUSH2 0x726 JUMPI PUSH1 0x40 MLOAD PUSH3 0x461BCD PUSH1 0xE5 SHL DUP2 MSTORE PUSH1 0x4 ADD PUSH2 0x2E4 SWAP1 PUSH2 0x981 JUMP JUMPDEST PUSH1 0x1 PUSH1 0x1 PUSH1 0xA0 SHL SUB DUP1 DUP6 AND PUSH1 0x0 SWAP1 DUP2 MSTORE PUSH1 0x2 PUSH1 0x20 SWAP1 DUP2 MSTORE PUSH1 0x40 DUP1 DUP4 KECCAK256 SWAP4 DUP8 AND DUP4 MSTORE SWAP3 SWAP1 MSTORE SWAP1 DUP2 KECCAK256 DUP1 SLOAD DUP5 SWAP3 SWAP1 PUSH2 0x75D SWAP1 DUP5 SWAP1 PUSH2 0xA20 JUMP JUMPDEST SWAP1 SWAP2 SSTORE POP POP PUSH1 0x1 PUSH1 0x1 PUSH1 0xA0 SHL SUB DUP5 AND PUSH1 0x0 SWAP1 DUP2 MSTORE PUSH1 0x3 PUSH1 0x20 MSTORE PUSH1 0x40 DUP2 KECCAK256 DUP1 SLOAD DUP5 SWAP3 SWAP1 PUSH2 0x78A SWAP1 DUP5 SWAP1 PUSH2 0xA20 JUMP JUMPDEST SWAP3 POP POP DUP2 SWAP1 SSTORE POP DUP3 PUSH1 0x1 PUSH1 0x1 PUSH1 0xA0 SHL SUB AND DUP5 PUSH1 0x1 PUSH1 0x1 PUSH1 0xA0 SHL SUB AND PUSH32 0x8C5BE1E5EBEC7D5BD14F71427D1E84F3DD0314C0F7B2291E5B200AC8C7C3B925 DUP5 PUSH1 0x40 MLOAD PUSH2 0x7D4 SWAP2 SWAP1 PUSH2 0xA17 JUMP JUMPDEST PUSH1 0x40 MLOAD DUP1 SWAP2 SUB SWAP1 LOG3 POP PUSH1 0x1 SWAP4 SWAP3 POP POP POP JUMP JUMPDEST DUP1 CALLDATALOAD PUSH1 0x1 PUSH1 0x1 PUSH1 0xA0 SHL SUB DUP2 AND DUP2 EQ PUSH2 0x4C7 JUMPI PUSH1 0x0 DUP1 REVERT JUMPDEST PUSH1 0x0 PUSH1 0x20 DUP3 DUP5 SUB SLT ISZERO PUSH2 0x80E JUMPI DUP1 DUP2 REVERT JUMPDEST PUSH2 0x291 DUP3 PUSH2 0x7E6 JUMP JUMPDEST PUSH1 0x0 DUP1 PUSH1 0x40 DUP4 DUP6 SUB SLT ISZERO PUSH2 0x829 JUMPI DUP1 DUP2 REVERT JUMPDEST PUSH2 0x832 DUP4 PUSH2 0x7E6 JUMP JUMPDEST SWAP2 POP PUSH2 0x840 PUSH1 0x20 DUP5 ADD PUSH2 0x7E6 JUMP JUMPDEST SWAP1 POP SWAP3 POP SWAP3 SWAP1 POP JUMP JUMPDEST PUSH1 0x0 DUP1 PUSH1 0x0 PUSH1 0x60 DUP5 DUP7 SUB SLT ISZERO PUSH2 0x85D JUMPI DUP1 DUP2 REVERT JUMPDEST PUSH2 0x866 DUP5 PUSH2 0x7E6 JUMP JUMPDEST SWAP3 POP PUSH2 0x874 PUSH1 0x20 DUP6 ADD PUSH2 0x7E6 JUMP JUMPDEST SWAP2 POP PUSH1 0x40 DUP5 ADD CALLDATALOAD SWAP1 POP SWAP3 POP SWAP3 POP SWAP3 JUMP JUMPDEST PUSH1 0x0 DUP1 PUSH1 0x40 DUP4 DUP6 SUB SLT ISZERO PUSH2 0x896 JUMPI DUP2 DUP3 REVERT JUMPDEST PUSH2 0x89F DUP4 PUSH2 0x7E6 JUMP JUMPDEST SWAP5 PUSH1 0x20 SWAP4 SWAP1 SWAP4 ADD CALLDATALOAD SWAP4 POP POP POP JUMP JUMPDEST SWAP1 ISZERO ISZERO DUP2 MSTORE PUSH1 0x20 ADD SWAP1 JUMP JUMPDEST PUSH1 0x0 PUSH1 0x20 DUP1 DUP4 MSTORE DUP4 MLOAD DUP1 DUP3 DUP6 ADD MSTORE DUP3 JUMPDEST DUP2 DUP2 LT ISZERO PUSH2 0x8E4 JUMPI DUP6 DUP2 ADD DUP4 ADD MLOAD DUP6 DUP3 ADD PUSH1 0x40 ADD MSTORE DUP3 ADD PUSH2 0x8C8 JUMP JUMPDEST DUP2 DUP2 GT ISZERO PUSH2 0x8F5 JUMPI DUP4 PUSH1 0x40 DUP4 DUP8 ADD ADD MSTORE JUMPDEST POP PUSH1 0x1F ADD PUSH1 0x1F NOT AND SWAP3 SWAP1 SWAP3 ADD PUSH1 0x40 ADD SWAP4 SWAP3 POP POP POP JUMP JUMPDEST PUSH1 0x20 DUP1 DUP3 MSTORE PUSH1 0x10 SWAP1 DUP3 ADD MSTORE PUSH16 0x416D6F756E7420746F6F206C61726765 PUSH1 0x80 SHL PUSH1 0x40 DUP3 ADD MSTORE PUSH1 0x60 ADD SWAP1 JUMP JUMPDEST PUSH1 0x20 DUP1 DUP3 MSTORE PUSH1 0x2C SWAP1 DUP3 ADD MSTORE PUSH32 0x546F6F2066657720746F6B656E732061726520756E6C6F636B656420696E2079 PUSH1 0x40 DUP3 ADD MSTORE PUSH12 0x6F7572206163636F756E7421 PUSH1 0xA0 SHL PUSH1 0x60 DUP3 ADD MSTORE PUSH1 0x80 ADD SWAP1 JUMP JUMPDEST PUSH1 0x20 DUP1 DUP3 MSTORE PUSH1 0x2B SWAP1 DUP3 ADD MSTORE PUSH32 0x546F6F2066657720746F6B656E732061726520756E6C6F636B656420696E2079 PUSH1 0x40 DUP3 ADD MSTORE PUSH11 0x1BDD5C881858D8DBDD5B9D PUSH1 0xAA SHL PUSH1 0x60 DUP3 ADD MSTORE PUSH1 0x80 ADD SWAP1 JUMP JUMPDEST PUSH1 0x20 DUP1 DUP3 MSTORE PUSH1 0x2B SWAP1 DUP3 ADD MSTORE PUSH32 0x4F6E6C79207468652053746F726546726F6E7420697320616C6C6F7765642074 PUSH1 0x40 DUP3 ADD MSTORE PUSH11 0x37903AB9B2903A3434B997 PUSH1 0xA9 SHL PUSH1 0x60 DUP3 ADD MSTORE PUSH1 0x80 ADD SWAP1 JUMP JUMPDEST SWAP1 DUP2 MSTORE PUSH1 0x20 ADD SWAP1 JUMP JUMPDEST PUSH1 0x0 DUP3 NOT DUP3 GT ISZERO PUSH2 0xA33 JUMPI PUSH2 0xA33 PUSH2 0xA6E JUMP JUMPDEST POP ADD SWAP1 JUMP JUMPDEST PUSH1 0x0 DUP2 PUSH1 0x0 NOT DIV DUP4 GT DUP3 ISZERO ISZERO AND ISZERO PUSH2 0xA52 JUMPI PUSH2 0xA52 PUSH2 0xA6E JUMP JUMPDEST POP MUL SWAP1 JUMP JUMPDEST PUSH1 0x0 DUP3 DUP3 LT ISZERO PUSH2 0xA69 JUMPI PUSH2 0xA69 PUSH2 0xA6E JUMP JUMPDEST POP SUB SWAP1 JUMP JUMPDEST PUSH4 0x4E487B71 PUSH1 0xE0 SHL PUSH1 0x0 MSTORE PUSH1 0x11 PUSH1 0x4 MSTORE PUSH1 0x24 PUSH1 0x0 REVERT INVALID LOG2 PUSH5 0x6970667358 0x22 SLT KECCAK256 0xC1 0xE3 0xE8 CREATE 0xB1 0xDC PUSH25 0x75207729568179A4AA4CEF2CF44F1797EC24379B9C37462A82 PUSH5 0x736F6C6343 STOP ADDMOD ADD STOP CALLER LOG2 PUSH5 0x6970667358 0x22 SLT KECCAK256 DUP6 0xFC 0xCF 0xE0 DUP16 0xDB 0xCD SWAP16 0xE0 SELFBALANCE 0x25 SIGNEXTEND 0x5D 0xB3 NOT PUSH4 0x9B648F8C SWAP15 0x23 CREATE SWAP8 0xDB 0xF9 SWAP1 0xE3 PUSH21 0xD4E7E564736F6C6343000801003300000000000000 "
		},
		"gasEstimates": {
			"creation": {
				"codeDepositCost": "3787400",
				"executionCost": "4287",
				"totalCost": "3791687"
			},
			"external": {
				"beforeAll()": "infinite",
				"testBuyUnit()": "infinite",
				"testCreateAuction()": "infinite",
				"testCreateSquad()": "infinite"
			}
		},
		"methodIdentifiers": {
			"beforeAll()": "7fea0d4b",
			"testBuyUnit()": "deead6db",
			"testCreateAuction()": "d23d3722",
			"testCreateSquad()": "0259be24"
		}
	},
	"abi": [
		{
			"inputs": [],
			"name": "beforeAll",
			"outputs": [],
			"stateMutability": "nonpayable",
			"type": "function"
		},
		{
			"inputs": [],
			"name": "testBuyUnit",
			"outputs": [],
			"stateMutability": "nonpayable",
			"type": "function"
		},
		{
			"inputs": [],
			"name": "testCreateAuction",
			"outputs": [],
			"stateMutability": "nonpayable",
			"type": "function"
		},
		{
			"inputs": [],
			"name": "testCreateSquad",
			"outputs": [],
			"stateMutability": "nonpayable",
			"type": "function"
		}
	]
}