{
	"data": {
		"bytecode": {
			"linkReferences": {
				"remix_tests.sol": {
					"Assert": [
						{
							"length": 20,
							"start": 487
						},
						{
							"length": 20,
							"start": 890
						},
						{
							"length": 20,
							"start": 1176
						},
						{
							"length": 20,
							"start": 2223
						},
						{
							"length": 20,
							"start": 2909
						},
						{
							"length": 20,
							"start": 3999
						},
						{
							"length": 20,
							"start": 4290
						}
					]
				}
			},
			"object": "608060405234801561001057600080fd5b506170d0806100206000396000f3fe60806040523480156200001157600080fd5b50600436106200005e5760003560e01c80630259be2414620000635780637fea0d4b146200006f578063d23d37221462000079578063d97de67a1462000083578063deead6db146200008d575b600080fd5b6200006d62000097565b005b6200006d62000628565b6200006d6200075d565b6200006d62000a0f565b6200006d62000cbd565b620000a162000cbd565b60008054604051632118854760e21b81526001600160a01b0390911690638462151c90620000d490309060040162001358565b60006040518083038186803b158015620000ed57600080fd5b505afa15801562000102573d6000803e3d6000fd5b505050506040513d6000823e601f3d908101601f191682016040526200012c9190810190620011df565b6000805460405163e56053eb60e01b81529293506001600160a01b03169163e56053eb916200016191859190600401620013cd565b602060405180830381600087803b1580156200017c57600080fd5b505af115801562000191573d6000803e3d6000fd5b505050506040513d601f19601f82011682018060405250810190620001b79190620012ec565b5060005b8151811015620003475773__$acbfb1c35000d78352310b16a054a6b106$__63abcd796060008054906101000a90046001600160a01b03166001600160a01b031663a49955be8585815181106200022257634e487b7160e01b600052603260045260246000fd5b60200260200101516040518263ffffffff1660e01b81526004016200024891906200145d565b60206040518083038186803b1580156200026157600080fd5b505afa15801562000276573d6000803e3d6000fd5b505050506040513d601f19601f820116820180604052508101906200029c9190620012cb565b6004811115620002bc57634e487b7160e01b600052602160045260246000fd5b60016040518363ffffffff1660e01b8152600401620002dd92919062001515565b60206040518083038186803b158015620002f657600080fd5b505af41580156200030b573d6000803e3d6000fd5b505050506040513d601f19601f82011682018060405250810190620003319190620012a9565b50806200033e8162001570565b915050620001bb565b506000546040516364e0b81f60e01b815273__$acbfb1c35000d78352310b16a054a6b106$__9163a079f1a3916001600160a01b03909116906364e0b81f906200039790600290600401620013f1565b60006040518083038186803b158015620003b057600080fd5b505afa158015620003c5573d6000803e3d6000fd5b505050506040513d6000823e601f3d908101601f19168201604052620003ef9190810190620011df565b5160016040518363ffffffff1660e01b815260040162000411929190620014dd565b60206040518083038186803b1580156200042a57600080fd5b505af41580156200043f573d6000803e3d6000fd5b505050506040513d601f19601f82011682018060405250810190620004659190620012a9565b506000546040516364e0b81f60e01b815273__$acbfb1c35000d78352310b16a054a6b106$__9163bfba5dd6916001600160a01b039091169063313de62b9082906364e0b81f90620004bd90600290600401620013f1565b60006040518083038186803b158015620004d657600080fd5b505afa158015620004eb573d6000803e3d6000fd5b505050506040513d6000823e601f3d908101601f19168201604052620005159190810190620011df565b6001815181106200053657634e487b7160e01b600052603260045260246000fd5b60200260200101516040518263ffffffff1660e01b81526004016200055c91906200145d565b60206040518083038186803b1580156200057557600080fd5b505afa1580156200058a573d6000803e3d6000fd5b505050506040513d601f19601f82011682018060405250810190620005b09190620011b9565b306040518363ffffffff1660e01b8152600401620005d09291906200136c565b60206040518083038186803b158015620005e957600080fd5b505af4158015620005fe573d6000803e3d6000fd5b505050506040513d601f19601f82011682018060405250810190620006249190620012a9565b5050565b6040516200063690620011ab565b604051809103906000f08015801562000653573d6000803e3d6000fd5b50600080546001600160a01b0319166001600160a01b03928316179081905560408051634ccba91360e11b8152905191909216916399975226916004808301926020929190829003018186803b158015620006ad57600080fd5b505afa158015620006c2573d6000803e3d6000fd5b505050506040513d601f19601f82011682018060405250810190620006e89190620011b9565b600180546001600160a01b0319166001600160a01b039283161790819055604080516344f5834560e11b8152905191909216916389eb068a91600480830192600092919082900301818387803b1580156200074257600080fd5b505af115801562000757573d6000803e3d6000fd5b50505050565b6200076762000cbd565b60008054604051632118854760e21b81526001600160a01b0390911690638462151c906200079a90309060040162001358565b60006040518083038186803b158015620007b357600080fd5b505afa158015620007c8573d6000803e3d6000fd5b505050506040513d6000823e601f3d908101601f19168201604052620007f29190810190620011df565b6000546040516340b5339160e01b81529192506001600160a01b0316906340b5339190620008299084906101f490600401620013cd565b602060405180830381600087803b1580156200084457600080fd5b505af115801562000859573d6000803e3d6000fd5b505050506040513d601f19601f820116820180604052508101906200087f9190620012a9565b5060005b8151811015620006245773__$acbfb1c35000d78352310b16a054a6b106$__63abcd796060008054906101000a90046001600160a01b03166001600160a01b031663a49955be858581518110620008ea57634e487b7160e01b600052603260045260246000fd5b60200260200101516040518263ffffffff1660e01b81526004016200091091906200145d565b60206040518083038186803b1580156200092957600080fd5b505afa1580156200093e573d6000803e3d6000fd5b505050506040513d601f19601f82011682018060405250810190620009649190620012cb565b60048111156200098457634e487b7160e01b600052602160045260246000fd5b60026040518363ffffffff1660e01b8152600401620009a592919062001515565b60206040518083038186803b158015620009be57600080fd5b505af4158015620009d3573d6000803e3d6000fd5b505050506040513d601f19601f82011682018060405250810190620009f99190620012a9565b508062000a068162001570565b91505062000883565b62000a1962000cbd565b60008054604051632118854760e21b81526001600160a01b0390911690638462151c9062000a4c90309060040162001358565b60006040518083038186803b15801562000a6557600080fd5b505afa15801562000a7a573d6000803e3d6000fd5b505050506040513d6000823e601f3d908101601f1916820160405262000aa49190810190620011df565b60005460405163dba7f94360e01b81529192506001600160a01b03169063dba7f9439062000ad7908490600401620013b8565b602060405180830381600087803b15801562000af257600080fd5b505af115801562000b07573d6000803e3d6000fd5b505050506040513d601f19601f8201168201806040525081019062000b2d9190620012ec565b5060005b8151811015620003475773__$acbfb1c35000d78352310b16a054a6b106$__63abcd796060008054906101000a90046001600160a01b03166001600160a01b031663a49955be85858151811062000b9857634e487b7160e01b600052603260045260246000fd5b60200260200101516040518263ffffffff1660e01b815260040162000bbe91906200145d565b60206040518083038186803b15801562000bd757600080fd5b505afa15801562000bec573d6000803e3d6000fd5b505050506040513d601f19601f8201168201806040525081019062000c129190620012cb565b600481111562000c3257634e487b7160e01b600052602160045260246000fd5b60016040518363ffffffff1660e01b815260040162000c5392919062001515565b60206040518083038186803b15801562000c6c57600080fd5b505af415801562000c81573d6000803e3d6000fd5b505050506040513d601f19601f8201168201806040525081019062000ca79190620012a9565b508062000cb48162001570565b91505062000b31565b6001546040516370a0823160e01b81526000916001600160a01b0316906370a082319062000cf090309060040162001358565b60206040518083038186803b15801562000d0957600080fd5b505afa15801562000d1e573d6000803e3d6000fd5b505050506040513d601f19601f8201168201806040525081019062000d449190620012ec565b600080546040516370a0823160e01b815292935090916001600160a01b03909116906370a082319062000d7c90309060040162001358565b60206040518083038186803b15801562000d9557600080fd5b505afa15801562000daa573d6000803e3d6000fd5b505050506040513d601f19601f8201168201806040525081019062000dd09190620012ec565b600080546040516313f3c10160e11b81529293506001600160a01b0316916327e782029162000e02916004016200140e565b602060405180830381600087803b15801562000e1d57600080fd5b505af115801562000e32573d6000803e3d6000fd5b505050506040513d601f19601f8201168201806040525081019062000e589190620012ec565b506000546040516313f3c10160e11b81526001600160a01b03909116906327e782029062000e8c906001906004016200140e565b602060405180830381600087803b15801562000ea757600080fd5b505af115801562000ebc573d6000803e3d6000fd5b505050506040513d601f19601f8201168201806040525081019062000ee29190620012ec565b5060005460405163898f429960e01b81526001600160a01b039091169063898f42999062000f169060029060040162001424565b602060405180830381600087803b15801562000f3157600080fd5b505af115801562000f46573d6000803e3d6000fd5b505050506040513d601f19601f8201168201806040525081019062000f6c9190620012ec565b506000546040516370a0823160e01b815273__$acbfb1c35000d78352310b16a054a6b106$__9163abcd7960916001600160a01b03909116906370a082319062000fbb90309060040162001358565b60206040518083038186803b15801562000fd457600080fd5b505afa15801562000fe9573d6000803e3d6000fd5b505050506040513d601f19601f820116820180604052508101906200100f9190620012ec565b6200101c84600362001555565b6040518363ffffffff1660e01b81526004016200103b92919062001466565b60206040518083038186803b1580156200105457600080fd5b505af415801562001069573d6000803e3d6000fd5b505050506040513d601f19601f820116820180604052508101906200108f9190620012a9565b506001546040516370a0823160e01b815273__$acbfb1c35000d78352310b16a054a6b106$__9163aea88952916001600160a01b03909116906370a0823190620010de90309060040162001358565b60206040518083038186803b158015620010f757600080fd5b505afa1580156200110c573d6000803e3d6000fd5b505050506040513d601f19601f82011682018060405250810190620011329190620012ec565b846040518363ffffffff1660e01b815260040162001152929190620014a0565b60206040518083038186803b1580156200116b57600080fd5b505af415801562001180573d6000803e3d6000fd5b505050506040513d601f19601f82011682018060405250810190620011a69190620012a9565b505050565b615ab180620015ea83390190565b600060208284031215620011cb578081fd5b8151620011d881620015d0565b9392505050565b60006020808385031215620011f2578182fd5b82516001600160401b038082111562001209578384fd5b818501915085601f8301126200121d578384fd5b815181811115620012325762001232620015ba565b838102604051601f19603f83011681018181108582111715620012595762001259620015ba565b604052828152858101935084860182860187018a101562001278578788fd5b8795505b838610156200129c5780518552600195909501949386019386016200127c565b5098975050505050505050565b600060208284031215620012bb578081fd5b81518015158114620011d8578182fd5b600060208284031215620012dd578081fd5b815160058110620011d8578182fd5b600060208284031215620012fe578081fd5b5051919050565b6000815180845260208085019450808401835b83811015620013365781518752958201959082019060010162001318565b509495945050505050565b60038110620013545762001354620015a4565b9052565b6001600160a01b0391909116815260200190565b6001600160a01b03928316815291166020820152606060408201819052601a908201527914dc5d5859081bdddb995c881dd85cdb89dd081d5c19185d195960321b608082015260a00190565b600060208252620011d8602083018462001305565b600060408252620013e2604083018562001305565b90508260208301529392505050565b6020810160058310620014085762001408620015a4565b91905290565b602081016200141e828462001341565b92915050565b600062001432828462001341565b50604060208201819052600a908201526973686f7274206e616d6560b01b6060820152608001919050565b90815260200190565b918252602082015260606040820181905260149082015273155b9a5d1cc81dd95c99481b9bdd08185919195960621b608082015260a00190565b91825260208201526060604082018190526017908201527626b7b732bc903bb0b9903737ba103bb4ba34323930bbb760491b608082015260a00190565b91825260208201526060604082018190526012908201527114dc5d5859081dd85cdb89dd08185919195960721b608082015260a00190565b60ff92831681529116602082015260606040820181905260149082015273496e636f727265637420556e697420537461746560601b608082015260a00190565b600082198211156200156b576200156b6200158e565b500190565b60006000198214156200158757620015876200158e565b5060010190565b634e487b7160e01b600052601160045260246000fd5b634e487b7160e01b600052602160045260246000fd5b634e487b7160e01b600052604160045260246000fd5b6001600160a01b0381168114620015e657600080fd5b5056fe6080604052633b9aca00600b553480156200001957600080fd5b5030604051620000299062000f3c565b62000035919062001056565b604051809103906000f08015801562000052573d6000803e3d6000fd5b50600d80546001600160a01b03199081166001600160a01b039384161791829055600c805492909316911617905560408051600780825261010082019092526000916020820160e080368337505060408051600580825260c0820190925292935060009291506020820160a080368337505060408051600380825260808201909252929350600092915060208201606080368337505060408051600180825281830190925292935060009291506020808301908036833701905050905060005b600781101562000190576200014f306002604051806040016040528060078152602001661111519055531560ca1b815250620003be60201b60201c565b8582815181106200017057634e487b7160e01b600052603260045260246000fd5b60209081029190910101526200018860018262001203565b905062000112565b5060005b60058110156200021257620001d1306002604051806040016040528060078152602001661111519055531560ca1b815250620003be60201b60201c565b848281518110620001f257634e487b7160e01b600052603260045260246000fd5b60209081029190910101526200020a60018262001203565b905062000194565b5060005b6003811015620002945762000253306002604051806040016040528060078152602001661111519055531560ca1b815250620003be60201b60201c565b8382815181106200027457634e487b7160e01b600052603260045260246000fd5b60209081029190910101526200028c60018262001203565b905062000216565b5060005b60018110156200031657620002d5306002604051806040016040528060078152602001661111519055531560ca1b815250620003be60201b60201c565b828281518110620002f657634e487b7160e01b600052603260045260246000fd5b60209081029190910101526200030e60018262001203565b905062000298565b5060005460101015620003465760405162461bcd60e51b81526004016200033d90620010ba565b60405180910390fd5b306000908152600a602052604090205460101015620003795760405162461bcd60e51b81526004016200033d90620011bc565b620003853085620005df565b506200039490503084620005df565b50620003a390503083620005df565b50620003b290503082620005df565b505050505050620012b3565b600080806001856002811115620003e557634e487b7160e01b600052602160045260246000fd5b14156200040157620003f9600a8362001203565b915062000489565b60008560028111156200042457634e487b7160e01b600052602160045260246000fd5b14156200043857620003f9600f8362001203565b60028560028111156200045b57634e487b7160e01b600052602160045260246000fd5b14156200046f57620003f960148362001203565b60405162461bcd60e51b81526004016200033d9062001083565b600d5460405163af7d6ca360e01b81526001600160a01b039091169063af7d6ca390620004bd90899086906004016200106a565b602060405180830381600087803b158015620004d857600080fd5b505af1158015620004ed573d6000803e3d6000fd5b505050506040513d601f19601f820116820180604052508101906200051391906200102d565b5062000520858562000b82565b9050807fb89be3b4bdc4059b3e8638ac07ef31fb78418648ffa34eaccb60b1c60f318d298760405162000554919062001056565b60405180910390a2600081815260056020908152604080832080546001600160a01b0319166001600160a01b038b16908117909155835260079091528120805460019290620005a590849062001203565b90915550506001600160a01b0386166000908152600a60209081526040822080546001810182559083529120018190559150509392505050565b6000806000600784511115620006095760405162461bcd60e51b81526004016200033d9062001128565b60005b84518160ff1610156200081157856001600160a01b031660056000878460ff16815181106200064b57634e487b7160e01b600052603260045260246000fd5b6020908102919091018101518252810191909152604001600020546001600160a01b0316146200068f5760405162461bcd60e51b81526004016200033d90620010f1565b600360096000878460ff1681518110620006b957634e487b7160e01b600052603260045260246000fd5b60209081029190910181015182528101919091526040016000205460ff166004811115620006f757634e487b7160e01b600052602160045260246000fd5b14620007175760405162461bcd60e51b81526004016200033d906200115f565b600160096000878460ff16815181106200074157634e487b7160e01b600052603260045260246000fd5b6020026020010151815260200190815260200160002060006101000a81548160ff021916908360048111156200078757634e487b7160e01b600052602160045260246000fd5b02179055506000858260ff1681518110620007b257634e487b7160e01b600052603260045260246000fd5b602002602001015181548110620007d957634e487b7160e01b600052603260045260246000fd5b6000918252602090912060029091020154620007fa9061ffff1683620011da565b9150620008096001826200121e565b90506200060c565b50600062000826855162000ed360201b60201c565b905060006040518060c0016040528060006001600160401b038111156200085d57634e487b7160e01b600052604160045260246000fd5b60405190808252806020026020018201604052801562000887578160200160208202803683370190505b508152875160ff16602082015260006040820152606001836004811115620008bf57634e487b7160e01b600052602160045260246000fd5b815261ffff42811660208084019190915290861660409092019190915260018054808201825560009190915282518051939450849360029092027fb10e2d527612073b26eecdfd717e6a320cf44b4afac2b0732d9fcbe2b7fa0cf601926200092d9284929091019062000f4a565b506020820151600182018054604085015161ffff166101000262ffff001960ff90941660ff199092169190911792909216919091178082556060840151919063ff000000191663010000008360048111156200099957634e487b7160e01b600052602160045260246000fd5b021790555060808201516001909101805460a09093015161ffff90811666010000000000000261ffff60301b19919093166401000000000261ffff60201b19909416939093179290921617905560005b86518160ff16101562000a94576001805462000a0790829062001246565b8154811062000a2657634e487b7160e01b600052603260045260246000fd5b9060005260206000209060020201600001878260ff168151811062000a5b57634e487b7160e01b600052603260045260246000fd5b6020908102919091018101518254600181810185556000948552929093209092019190915562000a8c90826200121e565b9050620009e9565b506001600160a01b03871660009081526003602052604090206001805462000abd919062001246565b8154600181810184556000938452602084209091019190915580548992600692909162000aeb919062001246565b8152602081019190915260400160002080546001600160a01b0319166001600160a01b0392909216919091179055600180547f67f794a23800c26d9e9ce3c51a9e95dd2c5a724c30030822f589294afc81231b91899162000b4d919062001246565b60405162000b5d9291906200106a565b60405180910390a16001805462000b75919062001246565b9791965090945050505050565b6040805160e0810182526000808252602082018190526001928201929092526060810182905260808101829052819060a0810185600281111562000bd657634e487b7160e01b600052602160045260246000fd5b81526020018490529050600084600281111562000c0357634e487b7160e01b600052602160045260246000fd5b141562000c6857600f8160000181815162000c1f9190620011da565b61ffff169052506020810180516001919062000c3d908390620011da565b61ffff169052506060810180516032919062000c5b908390620011da565b61ffff1690525062000d48565b600184600281111562000c8b57634e487b7160e01b600052602160045260246000fd5b141562000cc557600a8160000181815162000ca79190620011da565b61ffff169052506020810180516005919062000c3d908390620011da565b600284600281111562000ce857634e487b7160e01b600052602160045260246000fd5b141562000d4857600a8160000181815162000d049190620011da565b61ffff169052506020810180516001919062000d22908390620011da565b61ffff16905250606081018051604b919062000d40908390620011da565b61ffff169052505b60608101805161ffff9081166080840190815260008054600181018255818052855160029182027f290decd9548b62a8d60345a988386fc84ba6bc95484008f6362f93160ef3e563018054602089015160408a0151985196518816680100000000000000000261ffff60401b1997891666010000000000000261ffff60301b199a8a166401000000000261ffff60201b19938b16620100000263ffff00001997909b1661ffff1990951694909417959095169890981716179690961617929092169290921780845560a08501519293859390929091839160ff60501b19909116906a010000000000000000000090849081111562000e5657634e487b7160e01b600052602160045260246000fd5b021790555060c0820151805162000e7891600184019160209091019062000f9a565b50506000541515905062000ea05760405162461bcd60e51b81526004016200033d9062001185565b60005462000eb19060019062001246565b6000818152600960205260409020805460ff1916600317905595945050505050565b6000816001141562000ee85750600162000f37565b816003141562000efb5750600262000f37565b816005141562000f0e5750600362000f37565b816007141562000f215750600462000f37565b634e487b7160e01b600052600160045260246000fd5b919050565b610c2a8062004e8783390190565b82805482825590600052602060002090810192821562000f88579160200282015b8281111562000f8857825182559160200191906001019062000f6b565b5062000f9692915062001016565b5090565b82805462000fa89062001260565b90600052602060002090601f01602090048101928262000fcc576000855562000f88565b82601f1062000fe757805160ff191683800117855562000f88565b8280016001018555821562000f88579182018281111562000f8857825182559160200191906001019062000f6b565b5b8082111562000f96576000815560010162001017565b6000602082840312156200103f578081fd5b815180151581146200104f578182fd5b9392505050565b6001600160a01b0391909116815260200190565b6001600160a01b03929092168252602082015260400190565b60208082526015908201527f4e6f7420612076616c696420756e697420747970650000000000000000000000604082015260600190565b60208082526016908201527f746f6f206d616e7920756e697473206372656174656400000000000000000000604082015260600190565b60208082526018908201527f596f7520646f6e2774206f776e207468697320756e6974210000000000000000604082015260600190565b60208082526017908201527f496e76616c6964206e756d626572206f6620756e697473000000000000000000604082015260600190565b6020808252600c908201526b556e6974206973206275737960a01b604082015260600190565b60208082526019908201527f756e6974732073686f756c64206e6f7420626520656d70747900000000000000604082015260600190565b602080825260049082015263686d6d6d60e01b604082015260600190565b600061ffff808316818516808303821115620011fa57620011fa6200129d565b01949350505050565b600082198211156200121957620012196200129d565b500190565b600060ff821660ff84168060ff038211156200123e576200123e6200129d565b019392505050565b6000828210156200125b576200125b6200129d565b500390565b6002810460018216806200127557607f821691505b602082108114156200129757634e487b7160e01b600052602260045260246000fd5b50919050565b634e487b7160e01b600052601160045260246000fd5b613bc480620012c36000396000f3fe608060405234801561001057600080fd5b50600436106101805760003560e01c806301ffc9a71461018557806306fdde03146101ae578063095ea7b3146101c357806317dc6bf6146101d857806318160ddd146101fd578063198b367d1461021257806323b872dd1461022057806327e7820214610233578063313de62b1461024657806340b5339114610266578063598647f8146102795780636352211e1461028c57806364e0b81f1461029f57806370a08231146102bf57806376d4fc57146102d25780638462151c146102e5578063863858de146102f8578063898f42991461030b57806395d89b411461031e5780639997522614610326578063a49955be1461032e578063a9059cbb1461034e578063a98e99b114610361578063b5fc983314610374578063d145452114610387578063d9bd982a1461038f578063dba7f943146103a2578063dd481246146103b5578063de1eecc9146103c8578063e380497d146103ec578063e56053eb146103ff578063e5fba6cc14610412575b600080fd5b6101986101933660046133fd565b610438565b6040516101a59190613617565b60405180910390f35b6101b661043e565b6040516101a59190613635565b6101d66101d136600461332c565b61046c565b005b6101eb6101e63660046134ae565b6105da565b6040516101a596959493929190613967565b610205610740565b6040516101a5919061395e565b6101986101933660046134ae565b6101d661022e3660046132f1565b610746565b610205610241366004613444565b610876565b6102596102543660046134ae565b6108b8565b6040516101a59190613582565b610198610274366004613394565b6108d3565b6101986102873660046134c6565b610b52565b61025961029a3660046134ae565b610e8a565b6102b26102ad366004613425565b610ea5565b6040516101a591906135d3565b6102056102cd3660046132d0565b610f4e565b6101986102e03660046134e7565b610f69565b6102b26102f33660046132d0565b610fdc565b61020561030636600461332c565b611046565b61020561031936600461345e565b611077565b6101b66110c2565b6102596110e2565b61034161033c3660046134ae565b6110f1565b6040516101a59190613622565b6101d661035c36600461332c565b611106565b61025961036f3660046134ae565b6111fc565b6101986103823660046134ae565b611217565b6102596114f4565b61025961039d3660046134ae565b611503565b6102056103b0366004613355565b61151e565b6102056103c33660046134ae565b6115dc565b6103db6103d63660046134ae565b6115ee565b6040516101a59594939291906139bf565b6102056103fa3660046132d0565b611645565b61020561040d366004613394565b611657565b6104256104203660046134ae565b611718565b6040516101a597969594939291906138fe565b50600090565b60408051808201909152601481527320baba37a1b432b9b9902ab734ba102a37b5b2b760611b602082015290565b33828261047881610e8a565b6001600160a01b0316836001600160a01b0316146104b15760405162461bcd60e51b81526004016104a8906138a0565b60405180910390fd5b816001600160a01b0316836001600160a01b031614156104e35760405162461bcd60e51b81526004016104a890613704565b600360008281526009602052604090205460ff16600481111561051657634e487b7160e01b600052602160045260246000fd5b146105335760405162461bcd60e51b81526004016104a8906138d1565b6001600160a01b0382166105595760405162461bcd60e51b81526004016104a8906137f7565b600084815260086020908152604080832080546001600160a01b038a166001600160a01b0319909116179055600990915290819020805460ff19166004179055517f8c5be1e5ebec7d5bd14f71427d1e84f3dd0314c0f7b2291e5b200ac8c7c3b925906105cb90339088908890613596565b60405180910390a15050505050565b600e81815481106105ea57600080fd5b600091825260209091206007909102018054600282015460038301546004840180549395506001600160a01b0392831694929091169261062990613ab9565b80601f016020809104026020016040519081016040528092919081815260200182805461065590613ab9565b80156106a25780601f10610677576101008083540402835291602001916106a2565b820191906000526020600020905b81548152906001019060200180831161068557829003601f168201915b5050505050908060050180546106b790613ab9565b80601f01602080910402602001604051908101604052809291908181526020018280546106e390613ab9565b80156107305780601f1061070557610100808354040283529160200191610730565b820191906000526020600020905b81548152906001019060200180831161071357829003601f168201915b5050505050908060060154905086565b600b5490565b82828261075281610e8a565b6001600160a01b0316836001600160a01b0316146107825760405162461bcd60e51b81526004016104a8906138a0565b816001600160a01b0316836001600160a01b031614156107b45760405162461bcd60e51b81526004016104a890613704565b600360008281526009602052604090205460ff1660048111156107e757634e487b7160e01b600052602160045260246000fd5b146108045760405162461bcd60e51b81526004016104a8906138d1565b6001600160a01b03821661082a5760405162461bcd60e51b81526004016104a8906137f7565b6000848152600860205260409020546001600160a01b038681169116146108635760405162461bcd60e51b81526004016104a89061382c565b61086e868686611809565b505050505050565b60006108b03383604051806040016040528060158152602001744d6175726963652c20746865204d6564696f63726560581b8152506118e6565b90505b919050565b6006602052600090815260409020546001600160a01b031681565b6000600e6040518060e0016040528084815260200160006001600160401b0381111561090f57634e487b7160e01b600052604160045260246000fd5b604051908082528060200260200182016040528015610938578160200160208202803683370190505b508152602001336001600160a01b03168152602001336001600160a01b031681526020016040518060400160405280600b81526020016a282620a1a2a427a62222a960a91b81525081526020016040518060400160405280600b81526020016a111959985d5b1d08109a5960aa1b815250815260200142610e106109bc9190613a25565b905281546001818101845560009384526020938490208351600790930201918255838301518051939492936109f9939285019291909101906130a6565b5060408201516002820180546001600160a01b039283166001600160a01b031991821617909155606084015160038401805491909316911617905560808201518051610a4f9160048401916020909101906130f1565b5060a08201518051610a6b9160058401916020909101906130f1565b5060c08201518160060155505060005b83811015610b4757610ab43330878785818110610aa857634e487b7160e01b600052603260045260246000fd5b90506020020135611809565b600e8054610ac490600190613a85565b81548110610ae257634e487b7160e01b600052603260045260246000fd5b9060005260206000209060070201600101858583818110610b1357634e487b7160e01b600052603260045260246000fd5b8354600181018555600094855260209485902091909402929092013591909201555080610b3f81613af4565b915050610a7b565b506001949350505050565b600080600e8481548110610b7657634e487b7160e01b600052603260045260246000fd5b90600052602060002090600702016040518060e00160405290816000820154815260200160018201805480602002602001604051908101604052809291908181526020018280548015610be857602002820191906000526020600020905b815481526020019060010190808311610bd4575b505050918352505060028201546001600160a01b0390811660208301526003830154166040820152600482018054606090920191610c2590613ab9565b80601f0160208091040260200160405190810160405280929190818152602001828054610c5190613ab9565b8015610c9e5780601f10610c7357610100808354040283529160200191610c9e565b820191906000526020600020905b815481529060010190602001808311610c8157829003601f168201915b50505050508152602001600582018054610cb790613ab9565b80601f0160208091040260200160405190810160405280929190818152602001828054610ce390613ab9565b8015610d305780601f10610d0557610100808354040283529160200191610d30565b820191906000526020600020905b815481529060010190602001808311610d1357829003601f168201915b50505050508152602001600682015481525050905080600001518311610d685760405162461bcd60e51b81526004016104a89061379a565b600d5460405163abb8d5c360e01b81526001600160a01b039091169063abb8d5c390610d9a90339087906004016135ba565b602060405180830381600087803b158015610db457600080fd5b505af1158015610dc8573d6000803e3d6000fd5b505050506040513d601f19601f82011682018060405250810190610dec91906133dd565b50600d546040808301518351915163535b677360e01b81526001600160a01b039093169263535b677392610e2392916004016135ba565b602060405180830381600087803b158015610e3d57600080fd5b505af1158015610e51573d6000803e3d6000fd5b505050506040513d601f19601f82011682018060405250810190610e7591906133dd565b50828152336040909101525060015b92915050565b6000908152600560205260409020546001600160a01b031690565b606060026000836004811115610ecb57634e487b7160e01b600052602160045260246000fd5b6004811115610eea57634e487b7160e01b600052602160045260246000fd5b8152602001908152602001600020805480602002602001604051908101604052809291908181526020018280548015610f4257602002820191906000526020600020905b815481526020019060010190808311610f2e575b50505050509050919050565b6001600160a01b031660009081526007602052604090205490565b6000610f758585610b52565b610f8f57634e487b7160e01b600052600160045260246000fd5b8282600e8781548110610fb257634e487b7160e01b600052603260045260246000fd5b90600052602060002090600702016005019190610fd0929190613164565b50600195945050505050565b6001600160a01b0381166000908152600a6020908152604091829020805483518184028101840190945280845260609392830182828015610f425760200282019190600052602060002090815481526020019060010190808311610f2e5750505050509050919050565b600a602052816000526040600020818154811061106257600080fd5b90600052602060002001600091509150505481565b60006110ba338585858080601f0160208091040260200160405190810160405280939291908181526020018383808284376000920191909152506118e692505050565b949350505050565b60408051808201909152600681526541434853535560d01b602082015290565b600d546001600160a01b031681565b60096020526000908152604090205460ff1681565b33828261111281610e8a565b6001600160a01b0316836001600160a01b0316146111425760405162461bcd60e51b81526004016104a8906138a0565b816001600160a01b0316836001600160a01b031614156111745760405162461bcd60e51b81526004016104a890613704565b600360008281526009602052604090205460ff1660048111156111a757634e487b7160e01b600052602160045260246000fd5b146111c45760405162461bcd60e51b81526004016104a8906138d1565b6001600160a01b0382166111ea5760405162461bcd60e51b81526004016104a8906137f7565b6111f5338686611809565b5050505050565b6008602052600090815260409020546001600160a01b031681565b600080600e838154811061123b57634e487b7160e01b600052603260045260246000fd5b90600052602060002090600702016040518060e001604052908160008201548152602001600182018054806020026020016040519081016040528092919081815260200182805480156112ad57602002820191906000526020600020905b815481526020019060010190808311611299575b505050918352505060028201546001600160a01b03908116602083015260038301541660408201526004820180546060909201916112ea90613ab9565b80601f016020809104026020016040519081016040528092919081815260200182805461131690613ab9565b80156113635780601f1061133857610100808354040283529160200191611363565b820191906000526020600020905b81548152906001019060200180831161134657829003601f168201915b5050505050815260200160058201805461137c90613ab9565b80601f01602080910402602001604051908101604052809291908181526020018280546113a890613ab9565b80156113f55780601f106113ca576101008083540402835291602001916113f5565b820191906000526020600020905b8154815290600101906020018083116113d857829003601f168201915b505050505081526020016006820154815250509050336001600160a01b031681606001516001600160a01b03161461143f5760405162461bcd60e51b81526004016104a8906136bf565b428160c00151116114625760405162461bcd60e51b81526004016104a890613677565b600d546040808301518351915163535b677360e01b81526001600160a01b039093169263535b67739261149892916004016135ba565b602060405180830381600087803b1580156114b257600080fd5b505af11580156114c6573d6000803e3d6000fd5b505050506040513d601f19601f820116820180604052508101906114ea91906133dd565b5060019392505050565b600c546001600160a01b031681565b6005602052600090815260409020546001600160a01b031681565b600080600061156033868680806020026020016040519081016040528093929190818152602001838360200280828437600092019190915250611aec92505050565b909250905060006115c260028284600481111561158d57634e487b7160e01b600052602160045260246000fd5b60048111156115ac57634e487b7160e01b600052602160045260246000fd5b8152602081019190915260400160002054612057565b61ffff1690506115d28382612070565b9695505050505050565b60046020526000908152604090205481565b600181815481106115fe57600080fd5b600091825260209091206001600290920201015460ff808216925061ffff61010083048116926301000000810490921691600160201b8104821691600160301b9091041685565b60076020526000908152604090205481565b600080600061169933878780806020026020016040519081016040528093929190818152602001838360200280828437600092019190915250611aec92505050565b909250905083600260008360048111156116c357634e487b7160e01b600052602160045260246000fd5b60048111156116e257634e487b7160e01b600052602160045260246000fd5b81526020810191909152604001600020541161170e57634e487b7160e01b600052600160045260246000fd5b6115d28285612070565b6000818154811061172857600080fd5b60009182526020909120600290910201805460018201805461ffff8084169550620100008404811694600160201b8504821694600160301b8104831694600160401b820490931693600160501b90910460ff16929061178690613ab9565b80601f01602080910402602001604051908101604052809291908181526020018280546117b290613ab9565b80156117ff5780601f106117d4576101008083540402835291602001916117ff565b820191906000526020600020905b8154815290600101906020018083116117e257829003601f168201915b5050505050905087565b6001600160a01b0383166000908152600760205260408120805460019290611832908490613a85565b9091555050600081815260056020908152604080832080546001600160a01b03199081166001600160a01b038816908117909255600884528285208054909116905560098352818420805460ff191660031790558352600790915281208054600192906118a0908490613a25565b90915550506040517fddf252ad1be2c89b69c2b068fc378daa952ba7f163c4a11628f55a4df523b3ef906118d990859085908590613596565b60405180910390a1505050565b60008080600185600281111561190c57634e487b7160e01b600052602160045260246000fd5b14156119245761191d600a83613a25565b91506119a2565b600085600281111561194657634e487b7160e01b600052602160045260246000fd5b14156119575761191d600f83613a25565b600285600281111561197957634e487b7160e01b600052602160045260246000fd5b141561198a5761191d601483613a25565b60405162461bcd60e51b81526004016104a890613648565b600d5460405163af7d6ca360e01b81526001600160a01b039091169063af7d6ca3906119d490899086906004016135ba565b602060405180830381600087803b1580156119ee57600080fd5b505af1158015611a02573d6000803e3d6000fd5b505050506040513d601f19601f82011682018060405250810190611a2691906133dd565b50611a318585612d29565b9050807fb89be3b4bdc4059b3e8638ac07ef31fb78418648ffa34eaccb60b1c60f318d2987604051611a639190613582565b60405180910390a2600081815260056020908152604080832080546001600160a01b0319166001600160a01b038b16908117909155835260079091528120805460019290611ab2908490613a25565b90915550506001600160a01b0386166000908152600a60209081526040822080546001810182559083529120018190559150509392505050565b6000806000600784511115611b135760405162461bcd60e51b81526004016104a890613769565b60005b84518160ff161015611d0857856001600160a01b031660056000878460ff1681518110611b5357634e487b7160e01b600052603260045260246000fd5b6020908102919091018101518252810191909152604001600020546001600160a01b031614611b945760405162461bcd60e51b81526004016104a890613737565b600360096000878460ff1681518110611bbd57634e487b7160e01b600052603260045260246000fd5b60209081029190910181015182528101919091526040016000205460ff166004811115611bfa57634e487b7160e01b600052602160045260246000fd5b14611c175760405162461bcd60e51b81526004016104a8906137d1565b600160096000878460ff1681518110611c4057634e487b7160e01b600052603260045260246000fd5b6020026020010151815260200190815260200160002060006101000a81548160ff02191690836004811115611c8557634e487b7160e01b600052602160045260246000fd5b02179055506000858260ff1681518110611caf57634e487b7160e01b600052603260045260246000fd5b602002602001015181548110611cd557634e487b7160e01b600052603260045260246000fd5b6000918252602090912060029091020154611cf49061ffff16836139ff565b9150611d01600182613a3d565b9050611b16565b506000611d15855161304a565b905060006040518060c0016040528060006001600160401b03811115611d4b57634e487b7160e01b600052604160045260246000fd5b604051908082528060200260200182016040528015611d74578160200160208202803683370190505b508152875160ff16602082015260006040820152606001836004811115611dab57634e487b7160e01b600052602160045260246000fd5b815261ffff42811660208084019190915290861660409092019190915260018054808201825560009190915282518051939450849360029092027fb10e2d527612073b26eecdfd717e6a320cf44b4afac2b0732d9fcbe2b7fa0cf60192611e17928492909101906130a6565b506020820151600182018054604085015161ffff166101000262ffff001960ff90941660ff199092169190911792909216919091178082556060840151919063ff00000019166301000000836004811115611e8257634e487b7160e01b600052602160045260246000fd5b021790555060808201516001909101805460a09093015161ffff908116600160301b0261ffff60301b1991909316600160201b0261ffff60201b19909416939093179290921617905560005b86518160ff161015611f715760018054611ee9908290613a85565b81548110611f0757634e487b7160e01b600052603260045260246000fd5b9060005260206000209060020201600001878260ff1681518110611f3b57634e487b7160e01b600052603260045260246000fd5b60209081029190910181015182546001818101855560009485529290932090920191909155611f6a9082613a3d565b9050611ece565b506001600160a01b038716600090815260036020526040902060018054611f989190613a85565b81546001818101845560009384526020842090910191909155805489926006929091611fc49190613a85565b8152602081019190915260400160002080546001600160a01b0319166001600160a01b0392909216919091179055600180547f67f794a23800c26d9e9ce3c51a9e95dd2c5a724c30030822f589294afc81231b9189916120249190613a85565b6040516120329291906135ba565b60405180910390a1600180546120489190613a85565b945090925050505b9250929050565b600081612065600143613a85565b6108b0919040613b2f565b6000806001848154811061209457634e487b7160e01b600052603260045260246000fd5b90600052602060002090600202016040518060c0016040529081600082018054806020026020016040519081016040528092919081815260200182805480156120fc57602002820191906000526020600020905b8154815260200190600101908083116120e8575b5050509183525050600182015460ff808216602084015261ffff6101008304166040840152606090920191630100000090910416600481111561214f57634e487b7160e01b600052602160045260246000fd5b600481111561216e57634e487b7160e01b600052602160045260246000fd5b815260019182015461ffff600160201b820481166020840152600160301b909104166040909101528054919250600091859081106121bc57634e487b7160e01b600052603260045260246000fd5b90600052602060002090600202016040518060c00160405290816000820180548060200260200160405190810160405280929190818152602001828054801561222457602002820191906000526020600020905b815481526020019060010190808311612210575b5050509183525050600182015460ff808216602084015261ffff6101008304166040840152606090920191630100000090910416600481111561227757634e487b7160e01b600052602160045260246000fd5b600481111561229657634e487b7160e01b600052602160045260246000fd5b81526001919091015461ffff600160201b820481166020840152600160301b90910416604090910152606081015190915060048111156122e657634e487b7160e01b600052602160045260246000fd5b8260600151600481111561230a57634e487b7160e01b600052602160045260246000fd5b1461231457600080fd5b60008260600151600481111561233a57634e487b7160e01b600052602160045260246000fd5b141561234557600080fd5b60208083015190820151600060ff83166001600160401b0381111561237a57634e487b7160e01b600052604160045260246000fd5b6040519080825280602002602001820160405280156123b357816020015b6123a06131d8565b8152602001906001900390816123985790505b50905060008260ff166001600160401b038111156123e157634e487b7160e01b600052604160045260246000fd5b60405190808252806020026020018201604052801561241a57816020015b6124076131d8565b8152602001906001900390816123ff5790505b50905060005b8460ff168160ff1610156127cb57600087600001518260ff168151811061245757634e487b7160e01b600052603260045260246000fd5b60200260200101518154811061247d57634e487b7160e01b600052603260045260246000fd5b60009182526020918290206040805160e0810182526002938402909201805461ffff8082168552620100008204811696850196909652600160201b8104861692840192909252600160301b820485166060840152600160401b8204909416608083015290929160a0840191600160501b900460ff169081111561251057634e487b7160e01b600052602160045260246000fd5b600281111561252f57634e487b7160e01b600052602160045260246000fd5b815260200160018201805461254390613ab9565b80601f016020809104026020016040519081016040528092919081815260200182805461256f90613ab9565b80156125bc5780601f10612591576101008083540402835291602001916125bc565b820191906000526020600020905b81548152906001019060200180831161259f57829003601f168201915b505050505081525050838260ff16815181106125e857634e487b7160e01b600052603260045260246000fd5b6020026020010181905250600086600001518260ff168151811061261c57634e487b7160e01b600052603260045260246000fd5b60200260200101518154811061264257634e487b7160e01b600052603260045260246000fd5b60009182526020918290206040805160e0810182526002938402909201805461ffff8082168552620100008204811696850196909652600160201b8104861692840192909252600160301b820485166060840152600160401b8204909416608083015290929160a0840191600160501b900460ff16908111156126d557634e487b7160e01b600052602160045260246000fd5b60028111156126f457634e487b7160e01b600052602160045260246000fd5b815260200160018201805461270890613ab9565b80601f016020809104026020016040519081016040528092919081815260200182805461273490613ab9565b80156127815780601f1061275657610100808354040283529160200191612781565b820191906000526020600020905b81548152906001019060200180831161276457829003601f168201915b505050505081525050828260ff16815181106127ad57634e487b7160e01b600052603260045260246000fd5b602002602001018190525080806127c390613b0f565b915050612420565b506000806000805b60008860ff161180156127e9575060008760ff16115b15612b69578951516127fa90612057565b61ffff1693505b600086858151811061282357634e487b7160e01b600052603260045260246000fd5b60200260200101516080015161ffff161161285757895151612846856001613a25565b6128509190613b2f565b9350612801565b88515161286390612057565b61ffff1691505b600085838151811061288c57634e487b7160e01b600052603260045260246000fd5b60200260200101516080015161ffff16116128c0578851516128af836001613a25565b6128b99190613b2f565b915061286a565b8482815181106128e057634e487b7160e01b600052603260045260246000fd5b60200260200101516020015186858151811061290c57634e487b7160e01b600052603260045260246000fd5b6020026020010151600001516129229190613a62565b85838151811061294257634e487b7160e01b600052603260045260246000fd5b602002602001015160800181815161295a9190613a62565b61ffff16905250845160009086908490811061298657634e487b7160e01b600052603260045260246000fd5b60200260200101516080015161ffff16116129a957866129a581613a9c565b9750505b8851516129b590612057565b61ffff1692505b60008584815181106129de57634e487b7160e01b600052603260045260246000fd5b60200260200101516080015161ffff1611612a1257885151612a01846001613a25565b612a0b9190613b2f565b92506129bc565b895151612a1e90612057565b61ffff1690505b6000868281518110612a4757634e487b7160e01b600052603260045260246000fd5b60200260200101516080015161ffff1611612a7b57895151612a6a826001613a25565b612a749190613b2f565b9050612a25565b858181518110612a9b57634e487b7160e01b600052603260045260246000fd5b602002602001015160200151858481518110612ac757634e487b7160e01b600052603260045260246000fd5b602002602001015160000151612add9190613a62565b868281518110612afd57634e487b7160e01b600052603260045260246000fd5b6020026020010151608001818151612b159190613a62565b61ffff169052508551600090879083908110612b4157634e487b7160e01b600052603260045260246000fd5b60200260200101516080015161ffff1611612b645787612b6081613a9c565b9850505b6127d3565b60005b85518160ff161015612cf257858160ff1681518110612b9b57634e487b7160e01b600052603260045260246000fd5b602002602001015160008b600001518360ff1681518110612bcc57634e487b7160e01b600052603260045260246000fd5b602002602001015181548110612bf257634e487b7160e01b600052603260045260246000fd5b60009182526020918290208351600292830290910180549385015160408601516060870151608088015161ffff908116600160401b0261ffff60401b19928216600160301b0261ffff60301b19948316600160201b0261ffff60201b19968416620100000263ffff0000199490991661ffff19909b169a909a17929092169690961793909316969096171617939093161780835560a084015191839160ff60501b191690600160501b908490811115612cbb57634e487b7160e01b600052602160045260246000fd5b021790555060c08201518051612cdb9160018401916020909101906130f1565b509050508080612cea90613b0f565b915050612b6c565b5060ff80881660208b01528816612d165760009a5050505050505050505050610e84565b600a9a5050505050505050505050610e84565b6040805160e0810182526000808252602082018190526001928201929092526060810182905260808101829052819060a08101856002811115612d7c57634e487b7160e01b600052602160045260246000fd5b815260200184905290506000846002811115612da857634e487b7160e01b600052602160045260246000fd5b1415612e0557600f81600001818151612dc191906139ff565b61ffff1690525060208101805160019190612ddd9083906139ff565b61ffff1690525060608101805160329190612df99083906139ff565b61ffff16905250612ed7565b6001846002811115612e2757634e487b7160e01b600052602160045260246000fd5b1415612e5c57600a81600001818151612e4091906139ff565b61ffff1690525060208101805160059190612ddd9083906139ff565b6002846002811115612e7e57634e487b7160e01b600052602160045260246000fd5b1415612ed757600a81600001818151612e9791906139ff565b61ffff1690525060208101805160019190612eb39083906139ff565b61ffff16905250606081018051604b9190612ecf9083906139ff565b61ffff169052505b60608101805161ffff9081166080840190815260008054600181018255818052855160029182027f290decd9548b62a8d60345a988386fc84ba6bc95484008f6362f93160ef3e563018054602089015160408a0151985196518816600160401b0261ffff60401b19978916600160301b0261ffff60301b199a8a16600160201b0261ffff60201b19938b16620100000263ffff00001997909b1661ffff1990951694909417959095169890981716179690961617929092169290921780845560a08501519293859390929091839160ff60501b1990911690600160501b908490811115612fd457634e487b7160e01b600052602160045260246000fd5b021790555060c08201518051612ff49160018401916020909101906130f1565b5050600054151590506130195760405162461bcd60e51b81526004016104a89061386d565b60005461302890600190613a85565b6000818152600960205260409020805460ff1916600317905595945050505050565b6000816001141561305d575060016108b3565b816003141561306e575060026108b3565b816005141561307f575060036108b3565b8160071415613090575060046108b3565b634e487b7160e01b600052600160045260246000fd5b8280548282559060005260206000209081019282156130e1579160200282015b828111156130e15782518255916020019190600101906130c6565b506130ed929150613215565b5090565b8280546130fd90613ab9565b90600052602060002090601f01602090048101928261311f57600085556130e1565b82601f1061313857805160ff19168380011785556130e1565b828001600101855582156130e157918201828111156130e15782518255916020019190600101906130c6565b82805461317090613ab9565b90600052602060002090601f01602090048101928261319257600085556130e1565b82601f106131ab5782800160ff198235161785556130e1565b828001600101855582156130e1579182015b828111156130e15782358255916020019190600101906131bd565b6040805160e08101825260008082526020820181905291810182905260608101829052608081018290529060a08201908152602001606081525090565b5b808211156130ed5760008155600101613216565b80356001600160a01b03811681146108b357600080fd5b60008083601f840112613252578182fd5b5081356001600160401b03811115613268578182fd5b602083019150836020808302850101111561205057600080fd5b8035600381106108b357600080fd5b60008083601f8401126132a2578182fd5b5081356001600160401b038111156132b8578182fd5b60208301915083602082850101111561205057600080fd5b6000602082840312156132e1578081fd5b6132ea8261322a565b9392505050565b600080600060608486031215613305578182fd5b61330e8461322a565b925061331c6020850161322a565b9150604084013590509250925092565b6000806040838503121561333e578182fd5b6133478361322a565b946020939093013593505050565b60008060208385031215613367578182fd5b82356001600160401b0381111561337c578283fd5b61338885828601613241565b90969095509350505050565b6000806000604084860312156133a8578283fd5b83356001600160401b038111156133bd578384fd5b6133c986828701613241565b909790965060209590950135949350505050565b6000602082840312156133ee578081fd5b815180151581146132ea578182fd5b60006020828403121561340e578081fd5b81356001600160e01b0319811681146132ea578182fd5b600060208284031215613436578081fd5b8135600581106132ea578182fd5b600060208284031215613455578081fd5b6132ea82613282565b600080600060408486031215613472578283fd5b61347b84613282565b925060208401356001600160401b03811115613495578283fd5b6134a186828701613291565b9497909650939450505050565b6000602082840312156134bf578081fd5b5035919050565b600080604083850312156134d8578182fd5b50508035926020909101359150565b600080600080606085870312156134fc578081fd5b843593506020850135925060408501356001600160401b0381111561351f578182fd5b61352b87828801613291565b95989497509550505050565b60008151808452815b8181101561355c57602081850181015186830182015201613540565b8181111561356d5782602083870101525b50601f01601f19169290920160200192915050565b6001600160a01b0391909116815260200190565b6001600160a01b039384168152919092166020820152604081019190915260600190565b6001600160a01b03929092168252602082015260400190565b6020808252825182820181905260009190848201906040850190845b8181101561360b578351835292840192918401916001016135ef565b50909695505050505050565b901515815260200190565b6020810161362f83613b7b565b91905290565b6000602082526132ea6020830184613537565b6020808252601590820152744e6f7420612076616c696420756e6974207479706560581b604082015260600190565b60208082526028908201527f497420697320746f6f206c61746520746f20776974686472617720746869732060408201526761756374696f6e2160c01b606082015260800190565b60208082526025908201527f596f7520617265206e6f742074686520686f7374206f6620746869732061756360408201526474696f6e2160d81b606082015260800190565b602080825260199082015278165bdd48185b1c9958591e481bdddb881d1a1a5cc81d5b9a5d603a1b604082015260600190565b602080825260189082015277596f7520646f6e2774206f776e207468697320756e69742160401b604082015260600190565b602080825260179082015276496e76616c6964206e756d626572206f6620756e69747360481b604082015260600190565b6020808252601e908201527f54686973206973206e6f742061206e6577206869676865737420626964210000604082015260600190565b6020808252600c908201526b556e6974206973206275737960a01b604082015260600190565b6020808252601b908201527a4e6f7420612076616c696420616464726573732e20536f7272792160281b604082015260600190565b60208082526021908201527f556e6974206973206e6f742070726f6d6973656420746f2074686174207573656040820152603960f91b606082015260800190565b602080825260199082015278756e6974732073686f756c64206e6f7420626520656d70747960381b604082015260600190565b602080825260179082015276165bdd48191bdb89dd081bdddb881d1a1a5cc81d5b9a5d604a1b604082015260600190565b602080825260139082015272556e697420697320756e617661696c61626c6560681b604082015260600190565b61ffff88811682528781166020830152868116604083015285811660608301528416608082015260006003841061393757613937613b65565b8360a083015260e060c083015261395160e0830184613537565b9998505050505050505050565b90815260200190565b8681526001600160a01b0386811660208301528516604082015260c06060820181905260009061399990830186613537565b82810360808401526139ab8186613537565b9150508260a0830152979650505050505050565b60ff8616815261ffff858116602083015260a08201906139de86613b7b565b85604084015280851660608401528084166080840152509695505050505050565b600061ffff808316818516808303821115613a1c57613a1c613b4f565b01949350505050565b60008219821115613a3857613a38613b4f565b500190565b600060ff821660ff84168060ff03821115613a5a57613a5a613b4f565b019392505050565b600061ffff83811690831681811015613a7d57613a7d613b4f565b039392505050565b600082821015613a9757613a97613b4f565b500390565b600060ff821680613aaf57613aaf613b4f565b6000190192915050565b600281046001821680613acd57607f821691505b60208210811415613aee57634e487b7160e01b600052602260045260246000fd5b50919050565b6000600019821415613b0857613b08613b4f565b5060010190565b600060ff821660ff811415613b2657613b26613b4f565b60010192915050565b600082613b4a57634e487b7160e01b81526012600452602481fd5b500690565b634e487b7160e01b600052601160045260246000fd5b634e487b7160e01b600052602160045260246000fd5b60058110613b8b57613b8b613b65565b5056fea2646970667358221220b85a7c17d2b9a050e5a95ce0dede5d52577561777006ef3c1da8dee5ae48a8ec64736f6c634300080100336080604052633b9aca0060005534801561001857600080fd5b50604051610c2a380380610c2a8339810160408190526100379161006c565b600480546001600160a01b039092166001600160a01b031990921682179055600080549181526001602052604090205561009a565b60006020828403121561007d578081fd5b81516001600160a01b0381168114610093578182fd5b9392505050565b610b81806100a96000396000f3fe6080604052600436106100c35760003560e01c806301ffc9a7146100c857806306fdde03146100fe578063095ea7b31461012057806318160ddd1461014057806323b872dd146101625780633290ce2914610182578063332b888d1461018c578063535b6773146101a757806370a08231146101c757806389eb068a146101e757806395d89b41146101fc578063a9059cbb14610211578063abb8d5c314610231578063af7d6ca314610251578063d4e7b8ad14610271578063dd62ed3e14610291575b600080fd5b3480156100d457600080fd5b506100e86100e3366004610918565b6102b1565b6040516100f59190610958565b60405180910390f35b34801561010a57600080fd5b506101136102b9565b6040516100f59190610963565b34801561012c57600080fd5b506100e861013b3660046108ef565b6102e8565b34801561014c57600080fd5b506101556102fc565b6040516100f59190610a9e565b34801561016e57600080fd5b506100e861017d3660046108b4565b610302565b61018a61041e565b005b34801561019857600080fd5b506100e86100e3366004610940565b3480156101b357600080fd5b506100e86101c23660046108ef565b61044f565b3480156101d357600080fd5b506101556101e2366004610868565b6104ea565b3480156101f357600080fd5b5061018a610505565b34801561020857600080fd5b50610113610527565b34801561021d57600080fd5b506100e861022c3660046108ef565b610547565b34801561023d57600080fd5b506100e861024c3660046108ef565b6105fd565b34801561025d57600080fd5b506100e861026c3660046108ef565b610642565b34801561027d57600080fd5b5061015561028c366004610868565b610709565b34801561029d57600080fd5b506101556102ac366004610882565b61073d565b60015b919050565b60408051808201909152601581527420baba37a1b432b9b99029ba37b932902a37b5b2b760591b602082015290565b60006102f5338484610768565b9392505050565b60005490565b6001600160a01b03808416600090815260026020908152604080832093861683529290529081205482106103515760405162461bcd60e51b8152600401610348906109b6565b60405180910390fd5b6001600160a01b03808516600090815260026020908152604080832093871683529290529081208054849290610388908490610ade565b90915550506001600160a01b038416600090815260036020526040812080548492906103b5908490610ade565b90915550506001600160a01b038416600090815260016020526040812080548492906103e2908490610ade565b90915550506001600160a01b0383166000908152600160205260408120805484929061040f908490610aa7565b90915550600195945050505050565b610429346064610abf565b3360009081526001602052604081208054909190610448908490610aa7565b9091555050565b6004546000906001600160a01b0316331461047c5760405162461bcd60e51b815260040161034890610a53565b6001600160a01b0383166000908152600260209081526040808320338452909152812080548492906104af908490610ade565b90915550506001600160a01b038316600090815260036020526040812080548492906104dc908490610ade565b909155506001949350505050565b6001600160a01b031660009081526001602052604090205490565b3360009081526001602052604081208054620186a09290610448908490610aa7565b6040805180820190915260068152651050d214d4d560d21b602082015290565b60008161055333610709565b116105705760405162461bcd60e51b8152600401610348906109e0565b336000908152600160205260408120805484929061058f908490610ade565b90915550506001600160a01b038316600090815260016020526040812080548492906105bc908490610aa7565b90915550506040516001600160a01b038416903390600080516020610b2c833981519152906105ec908690610a9e565b60405180910390a350600192915050565b6004546000906001600160a01b0316331461062a5760405162461bcd60e51b815260040161034890610a53565b6004546102f59084906001600160a01b031684610768565b6004546000906001600160a01b0316331461066f5760405162461bcd60e51b815260040161034890610a53565b8161067984610709565b116106965760405162461bcd60e51b8152600401610348906109e0565b816000808282546106a79190610ade565b90915550506001600160a01b038316600090815260016020526040812080548492906106d4908490610ade565b90915550506004546040516001600160a01b0391821691851690600080516020610b2c833981519152906105ec908690610a9e565b6001600160a01b03811660009081526003602090815260408083205460019092528220546107379190610ade565b92915050565b6001600160a01b03918216600090815260026020908152604080832093909416825291909152205490565b60008161077485610709565b116107915760405162461bcd60e51b815260040161034890610a1a565b6001600160a01b038085166000908152600260209081526040808320938716835292905290812080548492906107c8908490610aa7565b90915550506001600160a01b038416600090815260036020526040812080548492906107f5908490610aa7565b92505081905550826001600160a01b0316846001600160a01b03167f8c5be1e5ebec7d5bd14f71427d1e84f3dd0314c0f7b2291e5b200ac8c7c3b9258460405161083f9190610a9e565b60405180910390a35060019392505050565b80356001600160a01b03811681146102b457600080fd5b600060208284031215610879578081fd5b6102f582610851565b60008060408385031215610894578081fd5b61089d83610851565b91506108ab60208401610851565b90509250929050565b6000806000606084860312156108c8578081fd5b6108d184610851565b92506108df60208501610851565b9150604084013590509250925092565b60008060408385031215610901578182fd5b61090a83610851565b946020939093013593505050565b600060208284031215610929578081fd5b81356001600160e01b0319811681146102f5578182fd5b600060208284031215610951578081fd5b5035919050565b901515815260200190565b6000602080835283518082850152825b8181101561098f57858101830151858201604001528201610973565b818111156109a05783604083870101525b50601f01601f1916929092016040019392505050565b60208082526010908201526f416d6f756e7420746f6f206c6172676560801b604082015260600190565b6020808252602c90820152600080516020610b0c83398151915260408201526b6f7572206163636f756e742160a01b606082015260800190565b6020808252602b90820152600080516020610b0c83398151915260408201526a1bdd5c881858d8dbdd5b9d60aa1b606082015260800190565b6020808252602b908201527f4f6e6c79207468652053746f726546726f6e7420697320616c6c6f776564207460408201526a37903ab9b2903a3434b99760a91b606082015260800190565b90815260200190565b60008219821115610aba57610aba610af5565b500190565b6000816000190483118215151615610ad957610ad9610af5565b500290565b600082821015610af057610af0610af5565b500390565b634e487b7160e01b600052601160045260246000fdfe546f6f2066657720746f6b656e732061726520756e6c6f636b656420696e2079ddf252ad1be2c89b69c2b068fc378daa952ba7f163c4a11628f55a4df523b3efa2646970667358221220dcadc1899855c92acd5c5bd4aed0c6425cd41ffe0e9e7300e02e941222897d7064736f6c63430008010033a26469706673582212200877cc4d3e1c67624f46ddde4367e28d880ca3d4c284273f2c29e2855c936b8564736f6c63430008010033",
			"opcodes": "PUSH1 0x80 PUSH1 0x40 MSTORE CALLVALUE DUP1 ISZERO PUSH2 0x10 JUMPI PUSH1 0x0 DUP1 REVERT JUMPDEST POP PUSH2 0x70D0 DUP1 PUSH2 0x20 PUSH1 0x0 CODECOPY PUSH1 0x0 RETURN INVALID PUSH1 0x80 PUSH1 0x40 MSTORE CALLVALUE DUP1 ISZERO PUSH3 0x11 JUMPI PUSH1 0x0 DUP1 REVERT JUMPDEST POP PUSH1 0x4 CALLDATASIZE LT PUSH3 0x5E JUMPI PUSH1 0x0 CALLDATALOAD PUSH1 0xE0 SHR DUP1 PUSH4 0x259BE24 EQ PUSH3 0x63 JUMPI DUP1 PUSH4 0x7FEA0D4B EQ PUSH3 0x6F JUMPI DUP1 PUSH4 0xD23D3722 EQ PUSH3 0x79 JUMPI DUP1 PUSH4 0xD97DE67A EQ PUSH3 0x83 JUMPI DUP1 PUSH4 0xDEEAD6DB EQ PUSH3 0x8D JUMPI JUMPDEST PUSH1 0x0 DUP1 REVERT JUMPDEST PUSH3 0x6D PUSH3 0x97 JUMP JUMPDEST STOP JUMPDEST PUSH3 0x6D PUSH3 0x628 JUMP JUMPDEST PUSH3 0x6D PUSH3 0x75D JUMP JUMPDEST PUSH3 0x6D PUSH3 0xA0F JUMP JUMPDEST PUSH3 0x6D PUSH3 0xCBD JUMP JUMPDEST PUSH3 0xA1 PUSH3 0xCBD JUMP JUMPDEST PUSH1 0x0 DUP1 SLOAD PUSH1 0x40 MLOAD PUSH4 0x21188547 PUSH1 0xE2 SHL DUP2 MSTORE PUSH1 0x1 PUSH1 0x1 PUSH1 0xA0 SHL SUB SWAP1 SWAP2 AND SWAP1 PUSH4 0x8462151C SWAP1 PUSH3 0xD4 SWAP1 ADDRESS SWAP1 PUSH1 0x4 ADD PUSH3 0x1358 JUMP JUMPDEST PUSH1 0x0 PUSH1 0x40 MLOAD DUP1 DUP4 SUB DUP2 DUP7 DUP1 EXTCODESIZE ISZERO DUP1 ISZERO PUSH3 0xED JUMPI PUSH1 0x0 DUP1 REVERT JUMPDEST POP GAS STATICCALL ISZERO DUP1 ISZERO PUSH3 0x102 JUMPI RETURNDATASIZE PUSH1 0x0 DUP1 RETURNDATACOPY RETURNDATASIZE PUSH1 0x0 REVERT JUMPDEST POP POP POP POP PUSH1 0x40 MLOAD RETURNDATASIZE PUSH1 0x0 DUP3 RETURNDATACOPY PUSH1 0x1F RETURNDATASIZE SWAP1 DUP2 ADD PUSH1 0x1F NOT AND DUP3 ADD PUSH1 0x40 MSTORE PUSH3 0x12C SWAP2 SWAP1 DUP2 ADD SWAP1 PUSH3 0x11DF JUMP JUMPDEST PUSH1 0x0 DUP1 SLOAD PUSH1 0x40 MLOAD PUSH4 0xE56053EB PUSH1 0xE0 SHL DUP2 MSTORE SWAP3 SWAP4 POP PUSH1 0x1 PUSH1 0x1 PUSH1 0xA0 SHL SUB AND SWAP2 PUSH4 0xE56053EB SWAP2 PUSH3 0x161 SWAP2 DUP6 SWAP2 SWAP1 PUSH1 0x4 ADD PUSH3 0x13CD JUMP JUMPDEST PUSH1 0x20 PUSH1 0x40 MLOAD DUP1 DUP4 SUB DUP2 PUSH1 0x0 DUP8 DUP1 EXTCODESIZE ISZERO DUP1 ISZERO PUSH3 0x17C JUMPI PUSH1 0x0 DUP1 REVERT JUMPDEST POP GAS CALL ISZERO DUP1 ISZERO PUSH3 0x191 JUMPI RETURNDATASIZE PUSH1 0x0 DUP1 RETURNDATACOPY RETURNDATASIZE PUSH1 0x0 REVERT JUMPDEST POP POP POP POP PUSH1 0x40 MLOAD RETURNDATASIZE PUSH1 0x1F NOT PUSH1 0x1F DUP3 ADD AND DUP3 ADD DUP1 PUSH1 0x40 MSTORE POP DUP2 ADD SWAP1 PUSH3 0x1B7 SWAP2 SWAP1 PUSH3 0x12EC JUMP JUMPDEST POP PUSH1 0x0 JUMPDEST DUP2 MLOAD DUP2 LT ISZERO PUSH3 0x347 JUMPI PUSH20 0x0 PUSH4 0xABCD7960 PUSH1 0x0 DUP1 SLOAD SWAP1 PUSH2 0x100 EXP SWAP1 DIV PUSH1 0x1 PUSH1 0x1 PUSH1 0xA0 SHL SUB AND PUSH1 0x1 PUSH1 0x1 PUSH1 0xA0 SHL SUB AND PUSH4 0xA49955BE DUP6 DUP6 DUP2 MLOAD DUP2 LT PUSH3 0x222 JUMPI PUSH4 0x4E487B71 PUSH1 0xE0 SHL PUSH1 0x0 MSTORE PUSH1 0x32 PUSH1 0x4 MSTORE PUSH1 0x24 PUSH1 0x0 REVERT JUMPDEST PUSH1 0x20 MUL PUSH1 0x20 ADD ADD MLOAD PUSH1 0x40 MLOAD DUP3 PUSH4 0xFFFFFFFF AND PUSH1 0xE0 SHL DUP2 MSTORE PUSH1 0x4 ADD PUSH3 0x248 SWAP2 SWAP1 PUSH3 0x145D JUMP JUMPDEST PUSH1 0x20 PUSH1 0x40 MLOAD DUP1 DUP4 SUB DUP2 DUP7 DUP1 EXTCODESIZE ISZERO DUP1 ISZERO PUSH3 0x261 JUMPI PUSH1 0x0 DUP1 REVERT JUMPDEST POP GAS STATICCALL ISZERO DUP1 ISZERO PUSH3 0x276 JUMPI RETURNDATASIZE PUSH1 0x0 DUP1 RETURNDATACOPY RETURNDATASIZE PUSH1 0x0 REVERT JUMPDEST POP POP POP POP PUSH1 0x40 MLOAD RETURNDATASIZE PUSH1 0x1F NOT PUSH1 0x1F DUP3 ADD AND DUP3 ADD DUP1 PUSH1 0x40 MSTORE POP DUP2 ADD SWAP1 PUSH3 0x29C SWAP2 SWAP1 PUSH3 0x12CB JUMP JUMPDEST PUSH1 0x4 DUP2 GT ISZERO PUSH3 0x2BC JUMPI PUSH4 0x4E487B71 PUSH1 0xE0 SHL PUSH1 0x0 MSTORE PUSH1 0x21 PUSH1 0x4 MSTORE PUSH1 0x24 PUSH1 0x0 REVERT JUMPDEST PUSH1 0x1 PUSH1 0x40 MLOAD DUP4 PUSH4 0xFFFFFFFF AND PUSH1 0xE0 SHL DUP2 MSTORE PUSH1 0x4 ADD PUSH3 0x2DD SWAP3 SWAP2 SWAP1 PUSH3 0x1515 JUMP JUMPDEST PUSH1 0x20 PUSH1 0x40 MLOAD DUP1 DUP4 SUB DUP2 DUP7 DUP1 EXTCODESIZE ISZERO DUP1 ISZERO PUSH3 0x2F6 JUMPI PUSH1 0x0 DUP1 REVERT JUMPDEST POP GAS DELEGATECALL ISZERO DUP1 ISZERO PUSH3 0x30B JUMPI RETURNDATASIZE PUSH1 0x0 DUP1 RETURNDATACOPY RETURNDATASIZE PUSH1 0x0 REVERT JUMPDEST POP POP POP POP PUSH1 0x40 MLOAD RETURNDATASIZE PUSH1 0x1F NOT PUSH1 0x1F DUP3 ADD AND DUP3 ADD DUP1 PUSH1 0x40 MSTORE POP DUP2 ADD SWAP1 PUSH3 0x331 SWAP2 SWAP1 PUSH3 0x12A9 JUMP JUMPDEST POP DUP1 PUSH3 0x33E DUP2 PUSH3 0x1570 JUMP JUMPDEST SWAP2 POP POP PUSH3 0x1BB JUMP JUMPDEST POP PUSH1 0x0 SLOAD PUSH1 0x40 MLOAD PUSH4 0x64E0B81F PUSH1 0xE0 SHL DUP2 MSTORE PUSH20 0x0 SWAP2 PUSH4 0xA079F1A3 SWAP2 PUSH1 0x1 PUSH1 0x1 PUSH1 0xA0 SHL SUB SWAP1 SWAP2 AND SWAP1 PUSH4 0x64E0B81F SWAP1 PUSH3 0x397 SWAP1 PUSH1 0x2 SWAP1 PUSH1 0x4 ADD PUSH3 0x13F1 JUMP JUMPDEST PUSH1 0x0 PUSH1 0x40 MLOAD DUP1 DUP4 SUB DUP2 DUP7 DUP1 EXTCODESIZE ISZERO DUP1 ISZERO PUSH3 0x3B0 JUMPI PUSH1 0x0 DUP1 REVERT JUMPDEST POP GAS STATICCALL ISZERO DUP1 ISZERO PUSH3 0x3C5 JUMPI RETURNDATASIZE PUSH1 0x0 DUP1 RETURNDATACOPY RETURNDATASIZE PUSH1 0x0 REVERT JUMPDEST POP POP POP POP PUSH1 0x40 MLOAD RETURNDATASIZE PUSH1 0x0 DUP3 RETURNDATACOPY PUSH1 0x1F RETURNDATASIZE SWAP1 DUP2 ADD PUSH1 0x1F NOT AND DUP3 ADD PUSH1 0x40 MSTORE PUSH3 0x3EF SWAP2 SWAP1 DUP2 ADD SWAP1 PUSH3 0x11DF JUMP JUMPDEST MLOAD PUSH1 0x1 PUSH1 0x40 MLOAD DUP4 PUSH4 0xFFFFFFFF AND PUSH1 0xE0 SHL DUP2 MSTORE PUSH1 0x4 ADD PUSH3 0x411 SWAP3 SWAP2 SWAP1 PUSH3 0x14DD JUMP JUMPDEST PUSH1 0x20 PUSH1 0x40 MLOAD DUP1 DUP4 SUB DUP2 DUP7 DUP1 EXTCODESIZE ISZERO DUP1 ISZERO PUSH3 0x42A JUMPI PUSH1 0x0 DUP1 REVERT JUMPDEST POP GAS DELEGATECALL ISZERO DUP1 ISZERO PUSH3 0x43F JUMPI RETURNDATASIZE PUSH1 0x0 DUP1 RETURNDATACOPY RETURNDATASIZE PUSH1 0x0 REVERT JUMPDEST POP POP POP POP PUSH1 0x40 MLOAD RETURNDATASIZE PUSH1 0x1F NOT PUSH1 0x1F DUP3 ADD AND DUP3 ADD DUP1 PUSH1 0x40 MSTORE POP DUP2 ADD SWAP1 PUSH3 0x465 SWAP2 SWAP1 PUSH3 0x12A9 JUMP JUMPDEST POP PUSH1 0x0 SLOAD PUSH1 0x40 MLOAD PUSH4 0x64E0B81F PUSH1 0xE0 SHL DUP2 MSTORE PUSH20 0x0 SWAP2 PUSH4 0xBFBA5DD6 SWAP2 PUSH1 0x1 PUSH1 0x1 PUSH1 0xA0 SHL SUB SWAP1 SWAP2 AND SWAP1 PUSH4 0x313DE62B SWAP1 DUP3 SWAP1 PUSH4 0x64E0B81F SWAP1 PUSH3 0x4BD SWAP1 PUSH1 0x2 SWAP1 PUSH1 0x4 ADD PUSH3 0x13F1 JUMP JUMPDEST PUSH1 0x0 PUSH1 0x40 MLOAD DUP1 DUP4 SUB DUP2 DUP7 DUP1 EXTCODESIZE ISZERO DUP1 ISZERO PUSH3 0x4D6 JUMPI PUSH1 0x0 DUP1 REVERT JUMPDEST POP GAS STATICCALL ISZERO DUP1 ISZERO PUSH3 0x4EB JUMPI RETURNDATASIZE PUSH1 0x0 DUP1 RETURNDATACOPY RETURNDATASIZE PUSH1 0x0 REVERT JUMPDEST POP POP POP POP PUSH1 0x40 MLOAD RETURNDATASIZE PUSH1 0x0 DUP3 RETURNDATACOPY PUSH1 0x1F RETURNDATASIZE SWAP1 DUP2 ADD PUSH1 0x1F NOT AND DUP3 ADD PUSH1 0x40 MSTORE PUSH3 0x515 SWAP2 SWAP1 DUP2 ADD SWAP1 PUSH3 0x11DF JUMP JUMPDEST PUSH1 0x1 DUP2 MLOAD DUP2 LT PUSH3 0x536 JUMPI PUSH4 0x4E487B71 PUSH1 0xE0 SHL PUSH1 0x0 MSTORE PUSH1 0x32 PUSH1 0x4 MSTORE PUSH1 0x24 PUSH1 0x0 REVERT JUMPDEST PUSH1 0x20 MUL PUSH1 0x20 ADD ADD MLOAD PUSH1 0x40 MLOAD DUP3 PUSH4 0xFFFFFFFF AND PUSH1 0xE0 SHL DUP2 MSTORE PUSH1 0x4 ADD PUSH3 0x55C SWAP2 SWAP1 PUSH3 0x145D JUMP JUMPDEST PUSH1 0x20 PUSH1 0x40 MLOAD DUP1 DUP4 SUB DUP2 DUP7 DUP1 EXTCODESIZE ISZERO DUP1 ISZERO PUSH3 0x575 JUMPI PUSH1 0x0 DUP1 REVERT JUMPDEST POP GAS STATICCALL ISZERO DUP1 ISZERO PUSH3 0x58A JUMPI RETURNDATASIZE PUSH1 0x0 DUP1 RETURNDATACOPY RETURNDATASIZE PUSH1 0x0 REVERT JUMPDEST POP POP POP POP PUSH1 0x40 MLOAD RETURNDATASIZE PUSH1 0x1F NOT PUSH1 0x1F DUP3 ADD AND DUP3 ADD DUP1 PUSH1 0x40 MSTORE POP DUP2 ADD SWAP1 PUSH3 0x5B0 SWAP2 SWAP1 PUSH3 0x11B9 JUMP JUMPDEST ADDRESS PUSH1 0x40 MLOAD DUP4 PUSH4 0xFFFFFFFF AND PUSH1 0xE0 SHL DUP2 MSTORE PUSH1 0x4 ADD PUSH3 0x5D0 SWAP3 SWAP2 SWAP1 PUSH3 0x136C JUMP JUMPDEST PUSH1 0x20 PUSH1 0x40 MLOAD DUP1 DUP4 SUB DUP2 DUP7 DUP1 EXTCODESIZE ISZERO DUP1 ISZERO PUSH3 0x5E9 JUMPI PUSH1 0x0 DUP1 REVERT JUMPDEST POP GAS DELEGATECALL ISZERO DUP1 ISZERO PUSH3 0x5FE JUMPI RETURNDATASIZE PUSH1 0x0 DUP1 RETURNDATACOPY RETURNDATASIZE PUSH1 0x0 REVERT JUMPDEST POP POP POP POP PUSH1 0x40 MLOAD RETURNDATASIZE PUSH1 0x1F NOT PUSH1 0x1F DUP3 ADD AND DUP3 ADD DUP1 PUSH1 0x40 MSTORE POP DUP2 ADD SWAP1 PUSH3 0x624 SWAP2 SWAP1 PUSH3 0x12A9 JUMP JUMPDEST POP POP JUMP JUMPDEST PUSH1 0x40 MLOAD PUSH3 0x636 SWAP1 PUSH3 0x11AB JUMP JUMPDEST PUSH1 0x40 MLOAD DUP1 SWAP2 SUB SWAP1 PUSH1 0x0 CREATE DUP1 ISZERO DUP1 ISZERO PUSH3 0x653 JUMPI RETURNDATASIZE PUSH1 0x0 DUP1 RETURNDATACOPY RETURNDATASIZE PUSH1 0x0 REVERT JUMPDEST POP PUSH1 0x0 DUP1 SLOAD PUSH1 0x1 PUSH1 0x1 PUSH1 0xA0 SHL SUB NOT AND PUSH1 0x1 PUSH1 0x1 PUSH1 0xA0 SHL SUB SWAP3 DUP4 AND OR SWAP1 DUP2 SWAP1 SSTORE PUSH1 0x40 DUP1 MLOAD PUSH4 0x4CCBA913 PUSH1 0xE1 SHL DUP2 MSTORE SWAP1 MLOAD SWAP2 SWAP1 SWAP3 AND SWAP2 PUSH4 0x99975226 SWAP2 PUSH1 0x4 DUP1 DUP4 ADD SWAP3 PUSH1 0x20 SWAP3 SWAP2 SWAP1 DUP3 SWAP1 SUB ADD DUP2 DUP7 DUP1 EXTCODESIZE ISZERO DUP1 ISZERO PUSH3 0x6AD JUMPI PUSH1 0x0 DUP1 REVERT JUMPDEST POP GAS STATICCALL ISZERO DUP1 ISZERO PUSH3 0x6C2 JUMPI RETURNDATASIZE PUSH1 0x0 DUP1 RETURNDATACOPY RETURNDATASIZE PUSH1 0x0 REVERT JUMPDEST POP POP POP POP PUSH1 0x40 MLOAD RETURNDATASIZE PUSH1 0x1F NOT PUSH1 0x1F DUP3 ADD AND DUP3 ADD DUP1 PUSH1 0x40 MSTORE POP DUP2 ADD SWAP1 PUSH3 0x6E8 SWAP2 SWAP1 PUSH3 0x11B9 JUMP JUMPDEST PUSH1 0x1 DUP1 SLOAD PUSH1 0x1 PUSH1 0x1 PUSH1 0xA0 SHL SUB NOT AND PUSH1 0x1 PUSH1 0x1 PUSH1 0xA0 SHL SUB SWAP3 DUP4 AND OR SWAP1 DUP2 SWAP1 SSTORE PUSH1 0x40 DUP1 MLOAD PUSH4 0x44F58345 PUSH1 0xE1 SHL DUP2 MSTORE SWAP1 MLOAD SWAP2 SWAP1 SWAP3 AND SWAP2 PUSH4 0x89EB068A SWAP2 PUSH1 0x4 DUP1 DUP4 ADD SWAP3 PUSH1 0x0 SWAP3 SWAP2 SWAP1 DUP3 SWAP1 SUB ADD DUP2 DUP4 DUP8 DUP1 EXTCODESIZE ISZERO DUP1 ISZERO PUSH3 0x742 JUMPI PUSH1 0x0 DUP1 REVERT JUMPDEST POP GAS CALL ISZERO DUP1 ISZERO PUSH3 0x757 JUMPI RETURNDATASIZE PUSH1 0x0 DUP1 RETURNDATACOPY RETURNDATASIZE PUSH1 0x0 REVERT JUMPDEST POP POP POP POP JUMP JUMPDEST PUSH3 0x767 PUSH3 0xCBD JUMP JUMPDEST PUSH1 0x0 DUP1 SLOAD PUSH1 0x40 MLOAD PUSH4 0x21188547 PUSH1 0xE2 SHL DUP2 MSTORE PUSH1 0x1 PUSH1 0x1 PUSH1 0xA0 SHL SUB SWAP1 SWAP2 AND SWAP1 PUSH4 0x8462151C SWAP1 PUSH3 0x79A SWAP1 ADDRESS SWAP1 PUSH1 0x4 ADD PUSH3 0x1358 JUMP JUMPDEST PUSH1 0x0 PUSH1 0x40 MLOAD DUP1 DUP4 SUB DUP2 DUP7 DUP1 EXTCODESIZE ISZERO DUP1 ISZERO PUSH3 0x7B3 JUMPI PUSH1 0x0 DUP1 REVERT JUMPDEST POP GAS STATICCALL ISZERO DUP1 ISZERO PUSH3 0x7C8 JUMPI RETURNDATASIZE PUSH1 0x0 DUP1 RETURNDATACOPY RETURNDATASIZE PUSH1 0x0 REVERT JUMPDEST POP POP POP POP PUSH1 0x40 MLOAD RETURNDATASIZE PUSH1 0x0 DUP3 RETURNDATACOPY PUSH1 0x1F RETURNDATASIZE SWAP1 DUP2 ADD PUSH1 0x1F NOT AND DUP3 ADD PUSH1 0x40 MSTORE PUSH3 0x7F2 SWAP2 SWAP1 DUP2 ADD SWAP1 PUSH3 0x11DF JUMP JUMPDEST PUSH1 0x0 SLOAD PUSH1 0x40 MLOAD PUSH4 0x40B53391 PUSH1 0xE0 SHL DUP2 MSTORE SWAP2 SWAP3 POP PUSH1 0x1 PUSH1 0x1 PUSH1 0xA0 SHL SUB AND SWAP1 PUSH4 0x40B53391 SWAP1 PUSH3 0x829 SWAP1 DUP5 SWAP1 PUSH2 0x1F4 SWAP1 PUSH1 0x4 ADD PUSH3 0x13CD JUMP JUMPDEST PUSH1 0x20 PUSH1 0x40 MLOAD DUP1 DUP4 SUB DUP2 PUSH1 0x0 DUP8 DUP1 EXTCODESIZE ISZERO DUP1 ISZERO PUSH3 0x844 JUMPI PUSH1 0x0 DUP1 REVERT JUMPDEST POP GAS CALL ISZERO DUP1 ISZERO PUSH3 0x859 JUMPI RETURNDATASIZE PUSH1 0x0 DUP1 RETURNDATACOPY RETURNDATASIZE PUSH1 0x0 REVERT JUMPDEST POP POP POP POP PUSH1 0x40 MLOAD RETURNDATASIZE PUSH1 0x1F NOT PUSH1 0x1F DUP3 ADD AND DUP3 ADD DUP1 PUSH1 0x40 MSTORE POP DUP2 ADD SWAP1 PUSH3 0x87F SWAP2 SWAP1 PUSH3 0x12A9 JUMP JUMPDEST POP PUSH1 0x0 JUMPDEST DUP2 MLOAD DUP2 LT ISZERO PUSH3 0x624 JUMPI PUSH20 0x0 PUSH4 0xABCD7960 PUSH1 0x0 DUP1 SLOAD SWAP1 PUSH2 0x100 EXP SWAP1 DIV PUSH1 0x1 PUSH1 0x1 PUSH1 0xA0 SHL SUB AND PUSH1 0x1 PUSH1 0x1 PUSH1 0xA0 SHL SUB AND PUSH4 0xA49955BE DUP6 DUP6 DUP2 MLOAD DUP2 LT PUSH3 0x8EA JUMPI PUSH4 0x4E487B71 PUSH1 0xE0 SHL PUSH1 0x0 MSTORE PUSH1 0x32 PUSH1 0x4 MSTORE PUSH1 0x24 PUSH1 0x0 REVERT JUMPDEST PUSH1 0x20 MUL PUSH1 0x20 ADD ADD MLOAD PUSH1 0x40 MLOAD DUP3 PUSH4 0xFFFFFFFF AND PUSH1 0xE0 SHL DUP2 MSTORE PUSH1 0x4 ADD PUSH3 0x910 SWAP2 SWAP1 PUSH3 0x145D JUMP JUMPDEST PUSH1 0x20 PUSH1 0x40 MLOAD DUP1 DUP4 SUB DUP2 DUP7 DUP1 EXTCODESIZE ISZERO DUP1 ISZERO PUSH3 0x929 JUMPI PUSH1 0x0 DUP1 REVERT JUMPDEST POP GAS STATICCALL ISZERO DUP1 ISZERO PUSH3 0x93E JUMPI RETURNDATASIZE PUSH1 0x0 DUP1 RETURNDATACOPY RETURNDATASIZE PUSH1 0x0 REVERT JUMPDEST POP POP POP POP PUSH1 0x40 MLOAD RETURNDATASIZE PUSH1 0x1F NOT PUSH1 0x1F DUP3 ADD AND DUP3 ADD DUP1 PUSH1 0x40 MSTORE POP DUP2 ADD SWAP1 PUSH3 0x964 SWAP2 SWAP1 PUSH3 0x12CB JUMP JUMPDEST PUSH1 0x4 DUP2 GT ISZERO PUSH3 0x984 JUMPI PUSH4 0x4E487B71 PUSH1 0xE0 SHL PUSH1 0x0 MSTORE PUSH1 0x21 PUSH1 0x4 MSTORE PUSH1 0x24 PUSH1 0x0 REVERT JUMPDEST PUSH1 0x2 PUSH1 0x40 MLOAD DUP4 PUSH4 0xFFFFFFFF AND PUSH1 0xE0 SHL DUP2 MSTORE PUSH1 0x4 ADD PUSH3 0x9A5 SWAP3 SWAP2 SWAP1 PUSH3 0x1515 JUMP JUMPDEST PUSH1 0x20 PUSH1 0x40 MLOAD DUP1 DUP4 SUB DUP2 DUP7 DUP1 EXTCODESIZE ISZERO DUP1 ISZERO PUSH3 0x9BE JUMPI PUSH1 0x0 DUP1 REVERT JUMPDEST POP GAS DELEGATECALL ISZERO DUP1 ISZERO PUSH3 0x9D3 JUMPI RETURNDATASIZE PUSH1 0x0 DUP1 RETURNDATACOPY RETURNDATASIZE PUSH1 0x0 REVERT JUMPDEST POP POP POP POP PUSH1 0x40 MLOAD RETURNDATASIZE PUSH1 0x1F NOT PUSH1 0x1F DUP3 ADD AND DUP3 ADD DUP1 PUSH1 0x40 MSTORE POP DUP2 ADD SWAP1 PUSH3 0x9F9 SWAP2 SWAP1 PUSH3 0x12A9 JUMP JUMPDEST POP DUP1 PUSH3 0xA06 DUP2 PUSH3 0x1570 JUMP JUMPDEST SWAP2 POP POP PUSH3 0x883 JUMP JUMPDEST PUSH3 0xA19 PUSH3 0xCBD JUMP JUMPDEST PUSH1 0x0 DUP1 SLOAD PUSH1 0x40 MLOAD PUSH4 0x21188547 PUSH1 0xE2 SHL DUP2 MSTORE PUSH1 0x1 PUSH1 0x1 PUSH1 0xA0 SHL SUB SWAP1 SWAP2 AND SWAP1 PUSH4 0x8462151C SWAP1 PUSH3 0xA4C SWAP1 ADDRESS SWAP1 PUSH1 0x4 ADD PUSH3 0x1358 JUMP JUMPDEST PUSH1 0x0 PUSH1 0x40 MLOAD DUP1 DUP4 SUB DUP2 DUP7 DUP1 EXTCODESIZE ISZERO DUP1 ISZERO PUSH3 0xA65 JUMPI PUSH1 0x0 DUP1 REVERT JUMPDEST POP GAS STATICCALL ISZERO DUP1 ISZERO PUSH3 0xA7A JUMPI RETURNDATASIZE PUSH1 0x0 DUP1 RETURNDATACOPY RETURNDATASIZE PUSH1 0x0 REVERT JUMPDEST POP POP POP POP PUSH1 0x40 MLOAD RETURNDATASIZE PUSH1 0x0 DUP3 RETURNDATACOPY PUSH1 0x1F RETURNDATASIZE SWAP1 DUP2 ADD PUSH1 0x1F NOT AND DUP3 ADD PUSH1 0x40 MSTORE PUSH3 0xAA4 SWAP2 SWAP1 DUP2 ADD SWAP1 PUSH3 0x11DF JUMP JUMPDEST PUSH1 0x0 SLOAD PUSH1 0x40 MLOAD PUSH4 0xDBA7F943 PUSH1 0xE0 SHL DUP2 MSTORE SWAP2 SWAP3 POP PUSH1 0x1 PUSH1 0x1 PUSH1 0xA0 SHL SUB AND SWAP1 PUSH4 0xDBA7F943 SWAP1 PUSH3 0xAD7 SWAP1 DUP5 SWAP1 PUSH1 0x4 ADD PUSH3 0x13B8 JUMP JUMPDEST PUSH1 0x20 PUSH1 0x40 MLOAD DUP1 DUP4 SUB DUP2 PUSH1 0x0 DUP8 DUP1 EXTCODESIZE ISZERO DUP1 ISZERO PUSH3 0xAF2 JUMPI PUSH1 0x0 DUP1 REVERT JUMPDEST POP GAS CALL ISZERO DUP1 ISZERO PUSH3 0xB07 JUMPI RETURNDATASIZE PUSH1 0x0 DUP1 RETURNDATACOPY RETURNDATASIZE PUSH1 0x0 REVERT JUMPDEST POP POP POP POP PUSH1 0x40 MLOAD RETURNDATASIZE PUSH1 0x1F NOT PUSH1 0x1F DUP3 ADD AND DUP3 ADD DUP1 PUSH1 0x40 MSTORE POP DUP2 ADD SWAP1 PUSH3 0xB2D SWAP2 SWAP1 PUSH3 0x12EC JUMP JUMPDEST POP PUSH1 0x0 JUMPDEST DUP2 MLOAD DUP2 LT ISZERO PUSH3 0x347 JUMPI PUSH20 0x0 PUSH4 0xABCD7960 PUSH1 0x0 DUP1 SLOAD SWAP1 PUSH2 0x100 EXP SWAP1 DIV PUSH1 0x1 PUSH1 0x1 PUSH1 0xA0 SHL SUB AND PUSH1 0x1 PUSH1 0x1 PUSH1 0xA0 SHL SUB AND PUSH4 0xA49955BE DUP6 DUP6 DUP2 MLOAD DUP2 LT PUSH3 0xB98 JUMPI PUSH4 0x4E487B71 PUSH1 0xE0 SHL PUSH1 0x0 MSTORE PUSH1 0x32 PUSH1 0x4 MSTORE PUSH1 0x24 PUSH1 0x0 REVERT JUMPDEST PUSH1 0x20 MUL PUSH1 0x20 ADD ADD MLOAD PUSH1 0x40 MLOAD DUP3 PUSH4 0xFFFFFFFF AND PUSH1 0xE0 SHL DUP2 MSTORE PUSH1 0x4 ADD PUSH3 0xBBE SWAP2 SWAP1 PUSH3 0x145D JUMP JUMPDEST PUSH1 0x20 PUSH1 0x40 MLOAD DUP1 DUP4 SUB DUP2 DUP7 DUP1 EXTCODESIZE ISZERO DUP1 ISZERO PUSH3 0xBD7 JUMPI PUSH1 0x0 DUP1 REVERT JUMPDEST POP GAS STATICCALL ISZERO DUP1 ISZERO PUSH3 0xBEC JUMPI RETURNDATASIZE PUSH1 0x0 DUP1 RETURNDATACOPY RETURNDATASIZE PUSH1 0x0 REVERT JUMPDEST POP POP POP POP PUSH1 0x40 MLOAD RETURNDATASIZE PUSH1 0x1F NOT PUSH1 0x1F DUP3 ADD AND DUP3 ADD DUP1 PUSH1 0x40 MSTORE POP DUP2 ADD SWAP1 PUSH3 0xC12 SWAP2 SWAP1 PUSH3 0x12CB JUMP JUMPDEST PUSH1 0x4 DUP2 GT ISZERO PUSH3 0xC32 JUMPI PUSH4 0x4E487B71 PUSH1 0xE0 SHL PUSH1 0x0 MSTORE PUSH1 0x21 PUSH1 0x4 MSTORE PUSH1 0x24 PUSH1 0x0 REVERT JUMPDEST PUSH1 0x1 PUSH1 0x40 MLOAD DUP4 PUSH4 0xFFFFFFFF AND PUSH1 0xE0 SHL DUP2 MSTORE PUSH1 0x4 ADD PUSH3 0xC53 SWAP3 SWAP2 SWAP1 PUSH3 0x1515 JUMP JUMPDEST PUSH1 0x20 PUSH1 0x40 MLOAD DUP1 DUP4 SUB DUP2 DUP7 DUP1 EXTCODESIZE ISZERO DUP1 ISZERO PUSH3 0xC6C JUMPI PUSH1 0x0 DUP1 REVERT JUMPDEST POP GAS DELEGATECALL ISZERO DUP1 ISZERO PUSH3 0xC81 JUMPI RETURNDATASIZE PUSH1 0x0 DUP1 RETURNDATACOPY RETURNDATASIZE PUSH1 0x0 REVERT JUMPDEST POP POP POP POP PUSH1 0x40 MLOAD RETURNDATASIZE PUSH1 0x1F NOT PUSH1 0x1F DUP3 ADD AND DUP3 ADD DUP1 PUSH1 0x40 MSTORE POP DUP2 ADD SWAP1 PUSH3 0xCA7 SWAP2 SWAP1 PUSH3 0x12A9 JUMP JUMPDEST POP DUP1 PUSH3 0xCB4 DUP2 PUSH3 0x1570 JUMP JUMPDEST SWAP2 POP POP PUSH3 0xB31 JUMP JUMPDEST PUSH1 0x1 SLOAD PUSH1 0x40 MLOAD PUSH4 0x70A08231 PUSH1 0xE0 SHL DUP2 MSTORE PUSH1 0x0 SWAP2 PUSH1 0x1 PUSH1 0x1 PUSH1 0xA0 SHL SUB AND SWAP1 PUSH4 0x70A08231 SWAP1 PUSH3 0xCF0 SWAP1 ADDRESS SWAP1 PUSH1 0x4 ADD PUSH3 0x1358 JUMP JUMPDEST PUSH1 0x20 PUSH1 0x40 MLOAD DUP1 DUP4 SUB DUP2 DUP7 DUP1 EXTCODESIZE ISZERO DUP1 ISZERO PUSH3 0xD09 JUMPI PUSH1 0x0 DUP1 REVERT JUMPDEST POP GAS STATICCALL ISZERO DUP1 ISZERO PUSH3 0xD1E JUMPI RETURNDATASIZE PUSH1 0x0 DUP1 RETURNDATACOPY RETURNDATASIZE PUSH1 0x0 REVERT JUMPDEST POP POP POP POP PUSH1 0x40 MLOAD RETURNDATASIZE PUSH1 0x1F NOT PUSH1 0x1F DUP3 ADD AND DUP3 ADD DUP1 PUSH1 0x40 MSTORE POP DUP2 ADD SWAP1 PUSH3 0xD44 SWAP2 SWAP1 PUSH3 0x12EC JUMP JUMPDEST PUSH1 0x0 DUP1 SLOAD PUSH1 0x40 MLOAD PUSH4 0x70A08231 PUSH1 0xE0 SHL DUP2 MSTORE SWAP3 SWAP4 POP SWAP1 SWAP2 PUSH1 0x1 PUSH1 0x1 PUSH1 0xA0 SHL SUB SWAP1 SWAP2 AND SWAP1 PUSH4 0x70A08231 SWAP1 PUSH3 0xD7C SWAP1 ADDRESS SWAP1 PUSH1 0x4 ADD PUSH3 0x1358 JUMP JUMPDEST PUSH1 0x20 PUSH1 0x40 MLOAD DUP1 DUP4 SUB DUP2 DUP7 DUP1 EXTCODESIZE ISZERO DUP1 ISZERO PUSH3 0xD95 JUMPI PUSH1 0x0 DUP1 REVERT JUMPDEST POP GAS STATICCALL ISZERO DUP1 ISZERO PUSH3 0xDAA JUMPI RETURNDATASIZE PUSH1 0x0 DUP1 RETURNDATACOPY RETURNDATASIZE PUSH1 0x0 REVERT JUMPDEST POP POP POP POP PUSH1 0x40 MLOAD RETURNDATASIZE PUSH1 0x1F NOT PUSH1 0x1F DUP3 ADD AND DUP3 ADD DUP1 PUSH1 0x40 MSTORE POP DUP2 ADD SWAP1 PUSH3 0xDD0 SWAP2 SWAP1 PUSH3 0x12EC JUMP JUMPDEST PUSH1 0x0 DUP1 SLOAD PUSH1 0x40 MLOAD PUSH4 0x13F3C101 PUSH1 0xE1 SHL DUP2 MSTORE SWAP3 SWAP4 POP PUSH1 0x1 PUSH1 0x1 PUSH1 0xA0 SHL SUB AND SWAP2 PUSH4 0x27E78202 SWAP2 PUSH3 0xE02 SWAP2 PUSH1 0x4 ADD PUSH3 0x140E JUMP JUMPDEST PUSH1 0x20 PUSH1 0x40 MLOAD DUP1 DUP4 SUB DUP2 PUSH1 0x0 DUP8 DUP1 EXTCODESIZE ISZERO DUP1 ISZERO PUSH3 0xE1D JUMPI PUSH1 0x0 DUP1 REVERT JUMPDEST POP GAS CALL ISZERO DUP1 ISZERO PUSH3 0xE32 JUMPI RETURNDATASIZE PUSH1 0x0 DUP1 RETURNDATACOPY RETURNDATASIZE PUSH1 0x0 REVERT JUMPDEST POP POP POP POP PUSH1 0x40 MLOAD RETURNDATASIZE PUSH1 0x1F NOT PUSH1 0x1F DUP3 ADD AND DUP3 ADD DUP1 PUSH1 0x40 MSTORE POP DUP2 ADD SWAP1 PUSH3 0xE58 SWAP2 SWAP1 PUSH3 0x12EC JUMP JUMPDEST POP PUSH1 0x0 SLOAD PUSH1 0x40 MLOAD PUSH4 0x13F3C101 PUSH1 0xE1 SHL DUP2 MSTORE PUSH1 0x1 PUSH1 0x1 PUSH1 0xA0 SHL SUB SWAP1 SWAP2 AND SWAP1 PUSH4 0x27E78202 SWAP1 PUSH3 0xE8C SWAP1 PUSH1 0x1 SWAP1 PUSH1 0x4 ADD PUSH3 0x140E JUMP JUMPDEST PUSH1 0x20 PUSH1 0x40 MLOAD DUP1 DUP4 SUB DUP2 PUSH1 0x0 DUP8 DUP1 EXTCODESIZE ISZERO DUP1 ISZERO PUSH3 0xEA7 JUMPI PUSH1 0x0 DUP1 REVERT JUMPDEST POP GAS CALL ISZERO DUP1 ISZERO PUSH3 0xEBC JUMPI RETURNDATASIZE PUSH1 0x0 DUP1 RETURNDATACOPY RETURNDATASIZE PUSH1 0x0 REVERT JUMPDEST POP POP POP POP PUSH1 0x40 MLOAD RETURNDATASIZE PUSH1 0x1F NOT PUSH1 0x1F DUP3 ADD AND DUP3 ADD DUP1 PUSH1 0x40 MSTORE POP DUP2 ADD SWAP1 PUSH3 0xEE2 SWAP2 SWAP1 PUSH3 0x12EC JUMP JUMPDEST POP PUSH1 0x0 SLOAD PUSH1 0x40 MLOAD PUSH4 0x898F4299 PUSH1 0xE0 SHL DUP2 MSTORE PUSH1 0x1 PUSH1 0x1 PUSH1 0xA0 SHL SUB SWAP1 SWAP2 AND SWAP1 PUSH4 0x898F4299 SWAP1 PUSH3 0xF16 SWAP1 PUSH1 0x2 SWAP1 PUSH1 0x4 ADD PUSH3 0x1424 JUMP JUMPDEST PUSH1 0x20 PUSH1 0x40 MLOAD DUP1 DUP4 SUB DUP2 PUSH1 0x0 DUP8 DUP1 EXTCODESIZE ISZERO DUP1 ISZERO PUSH3 0xF31 JUMPI PUSH1 0x0 DUP1 REVERT JUMPDEST POP GAS CALL ISZERO DUP1 ISZERO PUSH3 0xF46 JUMPI RETURNDATASIZE PUSH1 0x0 DUP1 RETURNDATACOPY RETURNDATASIZE PUSH1 0x0 REVERT JUMPDEST POP POP POP POP PUSH1 0x40 MLOAD RETURNDATASIZE PUSH1 0x1F NOT PUSH1 0x1F DUP3 ADD AND DUP3 ADD DUP1 PUSH1 0x40 MSTORE POP DUP2 ADD SWAP1 PUSH3 0xF6C SWAP2 SWAP1 PUSH3 0x12EC JUMP JUMPDEST POP PUSH1 0x0 SLOAD PUSH1 0x40 MLOAD PUSH4 0x70A08231 PUSH1 0xE0 SHL DUP2 MSTORE PUSH20 0x0 SWAP2 PUSH4 0xABCD7960 SWAP2 PUSH1 0x1 PUSH1 0x1 PUSH1 0xA0 SHL SUB SWAP1 SWAP2 AND SWAP1 PUSH4 0x70A08231 SWAP1 PUSH3 0xFBB SWAP1 ADDRESS SWAP1 PUSH1 0x4 ADD PUSH3 0x1358 JUMP JUMPDEST PUSH1 0x20 PUSH1 0x40 MLOAD DUP1 DUP4 SUB DUP2 DUP7 DUP1 EXTCODESIZE ISZERO DUP1 ISZERO PUSH3 0xFD4 JUMPI PUSH1 0x0 DUP1 REVERT JUMPDEST POP GAS STATICCALL ISZERO DUP1 ISZERO PUSH3 0xFE9 JUMPI RETURNDATASIZE PUSH1 0x0 DUP1 RETURNDATACOPY RETURNDATASIZE PUSH1 0x0 REVERT JUMPDEST POP POP POP POP PUSH1 0x40 MLOAD RETURNDATASIZE PUSH1 0x1F NOT PUSH1 0x1F DUP3 ADD AND DUP3 ADD DUP1 PUSH1 0x40 MSTORE POP DUP2 ADD SWAP1 PUSH3 0x100F SWAP2 SWAP1 PUSH3 0x12EC JUMP JUMPDEST PUSH3 0x101C DUP5 PUSH1 0x3 PUSH3 0x1555 JUMP JUMPDEST PUSH1 0x40 MLOAD DUP4 PUSH4 0xFFFFFFFF AND PUSH1 0xE0 SHL DUP2 MSTORE PUSH1 0x4 ADD PUSH3 0x103B SWAP3 SWAP2 SWAP1 PUSH3 0x1466 JUMP JUMPDEST PUSH1 0x20 PUSH1 0x40 MLOAD DUP1 DUP4 SUB DUP2 DUP7 DUP1 EXTCODESIZE ISZERO DUP1 ISZERO PUSH3 0x1054 JUMPI PUSH1 0x0 DUP1 REVERT JUMPDEST POP GAS DELEGATECALL ISZERO DUP1 ISZERO PUSH3 0x1069 JUMPI RETURNDATASIZE PUSH1 0x0 DUP1 RETURNDATACOPY RETURNDATASIZE PUSH1 0x0 REVERT JUMPDEST POP POP POP POP PUSH1 0x40 MLOAD RETURNDATASIZE PUSH1 0x1F NOT PUSH1 0x1F DUP3 ADD AND DUP3 ADD DUP1 PUSH1 0x40 MSTORE POP DUP2 ADD SWAP1 PUSH3 0x108F SWAP2 SWAP1 PUSH3 0x12A9 JUMP JUMPDEST POP PUSH1 0x1 SLOAD PUSH1 0x40 MLOAD PUSH4 0x70A08231 PUSH1 0xE0 SHL DUP2 MSTORE PUSH20 0x0 SWAP2 PUSH4 0xAEA88952 SWAP2 PUSH1 0x1 PUSH1 0x1 PUSH1 0xA0 SHL SUB SWAP1 SWAP2 AND SWAP1 PUSH4 0x70A08231 SWAP1 PUSH3 0x10DE SWAP1 ADDRESS SWAP1 PUSH1 0x4 ADD PUSH3 0x1358 JUMP JUMPDEST PUSH1 0x20 PUSH1 0x40 MLOAD DUP1 DUP4 SUB DUP2 DUP7 DUP1 EXTCODESIZE ISZERO DUP1 ISZERO PUSH3 0x10F7 JUMPI PUSH1 0x0 DUP1 REVERT JUMPDEST POP GAS STATICCALL ISZERO DUP1 ISZERO PUSH3 0x110C JUMPI RETURNDATASIZE PUSH1 0x0 DUP1 RETURNDATACOPY RETURNDATASIZE PUSH1 0x0 REVERT JUMPDEST POP POP POP POP PUSH1 0x40 MLOAD RETURNDATASIZE PUSH1 0x1F NOT PUSH1 0x1F DUP3 ADD AND DUP3 ADD DUP1 PUSH1 0x40 MSTORE POP DUP2 ADD SWAP1 PUSH3 0x1132 SWAP2 SWAP1 PUSH3 0x12EC JUMP JUMPDEST DUP5 PUSH1 0x40 MLOAD DUP4 PUSH4 0xFFFFFFFF AND PUSH1 0xE0 SHL DUP2 MSTORE PUSH1 0x4 ADD PUSH3 0x1152 SWAP3 SWAP2 SWAP1 PUSH3 0x14A0 JUMP JUMPDEST PUSH1 0x20 PUSH1 0x40 MLOAD DUP1 DUP4 SUB DUP2 DUP7 DUP1 EXTCODESIZE ISZERO DUP1 ISZERO PUSH3 0x116B JUMPI PUSH1 0x0 DUP1 REVERT JUMPDEST POP GAS DELEGATECALL ISZERO DUP1 ISZERO PUSH3 0x1180 JUMPI RETURNDATASIZE PUSH1 0x0 DUP1 RETURNDATACOPY RETURNDATASIZE PUSH1 0x0 REVERT JUMPDEST POP POP POP POP PUSH1 0x40 MLOAD RETURNDATASIZE PUSH1 0x1F NOT PUSH1 0x1F DUP3 ADD AND DUP3 ADD DUP1 PUSH1 0x40 MSTORE POP DUP2 ADD SWAP1 PUSH3 0x11A6 SWAP2 SWAP1 PUSH3 0x12A9 JUMP JUMPDEST POP POP POP JUMP JUMPDEST PUSH2 0x5AB1 DUP1 PUSH3 0x15EA DUP4 CODECOPY ADD SWAP1 JUMP JUMPDEST PUSH1 0x0 PUSH1 0x20 DUP3 DUP5 SUB SLT ISZERO PUSH3 0x11CB JUMPI DUP1 DUP2 REVERT JUMPDEST DUP2 MLOAD PUSH3 0x11D8 DUP2 PUSH3 0x15D0 JUMP JUMPDEST SWAP4 SWAP3 POP POP POP JUMP JUMPDEST PUSH1 0x0 PUSH1 0x20 DUP1 DUP4 DUP6 SUB SLT ISZERO PUSH3 0x11F2 JUMPI DUP2 DUP3 REVERT JUMPDEST DUP3 MLOAD PUSH1 0x1 PUSH1 0x1 PUSH1 0x40 SHL SUB DUP1 DUP3 GT ISZERO PUSH3 0x1209 JUMPI DUP4 DUP5 REVERT JUMPDEST DUP2 DUP6 ADD SWAP2 POP DUP6 PUSH1 0x1F DUP4 ADD SLT PUSH3 0x121D JUMPI DUP4 DUP5 REVERT JUMPDEST DUP2 MLOAD DUP2 DUP2 GT ISZERO PUSH3 0x1232 JUMPI PUSH3 0x1232 PUSH3 0x15BA JUMP JUMPDEST DUP4 DUP2 MUL PUSH1 0x40 MLOAD PUSH1 0x1F NOT PUSH1 0x3F DUP4 ADD AND DUP2 ADD DUP2 DUP2 LT DUP6 DUP3 GT OR ISZERO PUSH3 0x1259 JUMPI PUSH3 0x1259 PUSH3 0x15BA JUMP JUMPDEST PUSH1 0x40 MSTORE DUP3 DUP2 MSTORE DUP6 DUP2 ADD SWAP4 POP DUP5 DUP7 ADD DUP3 DUP7 ADD DUP8 ADD DUP11 LT ISZERO PUSH3 0x1278 JUMPI DUP8 DUP9 REVERT JUMPDEST DUP8 SWAP6 POP JUMPDEST DUP4 DUP7 LT ISZERO PUSH3 0x129C JUMPI DUP1 MLOAD DUP6 MSTORE PUSH1 0x1 SWAP6 SWAP1 SWAP6 ADD SWAP5 SWAP4 DUP7 ADD SWAP4 DUP7 ADD PUSH3 0x127C JUMP JUMPDEST POP SWAP9 SWAP8 POP POP POP POP POP POP POP POP JUMP JUMPDEST PUSH1 0x0 PUSH1 0x20 DUP3 DUP5 SUB SLT ISZERO PUSH3 0x12BB JUMPI DUP1 DUP2 REVERT JUMPDEST DUP2 MLOAD DUP1 ISZERO ISZERO DUP2 EQ PUSH3 0x11D8 JUMPI DUP2 DUP3 REVERT JUMPDEST PUSH1 0x0 PUSH1 0x20 DUP3 DUP5 SUB SLT ISZERO PUSH3 0x12DD JUMPI DUP1 DUP2 REVERT JUMPDEST DUP2 MLOAD PUSH1 0x5 DUP2 LT PUSH3 0x11D8 JUMPI DUP2 DUP3 REVERT JUMPDEST PUSH1 0x0 PUSH1 0x20 DUP3 DUP5 SUB SLT ISZERO PUSH3 0x12FE JUMPI DUP1 DUP2 REVERT JUMPDEST POP MLOAD SWAP2 SWAP1 POP JUMP JUMPDEST PUSH1 0x0 DUP2 MLOAD DUP1 DUP5 MSTORE PUSH1 0x20 DUP1 DUP6 ADD SWAP5 POP DUP1 DUP5 ADD DUP4 JUMPDEST DUP4 DUP2 LT ISZERO PUSH3 0x1336 JUMPI DUP2 MLOAD DUP8 MSTORE SWAP6 DUP3 ADD SWAP6 SWAP1 DUP3 ADD SWAP1 PUSH1 0x1 ADD PUSH3 0x1318 JUMP JUMPDEST POP SWAP5 SWAP6 SWAP5 POP POP POP POP POP JUMP JUMPDEST PUSH1 0x3 DUP2 LT PUSH3 0x1354 JUMPI PUSH3 0x1354 PUSH3 0x15A4 JUMP JUMPDEST SWAP1 MSTORE JUMP JUMPDEST PUSH1 0x1 PUSH1 0x1 PUSH1 0xA0 SHL SUB SWAP2 SWAP1 SWAP2 AND DUP2 MSTORE PUSH1 0x20 ADD SWAP1 JUMP JUMPDEST PUSH1 0x1 PUSH1 0x1 PUSH1 0xA0 SHL SUB SWAP3 DUP4 AND DUP2 MSTORE SWAP2 AND PUSH1 0x20 DUP3 ADD MSTORE PUSH1 0x60 PUSH1 0x40 DUP3 ADD DUP2 SWAP1 MSTORE PUSH1 0x1A SWAP1 DUP3 ADD MSTORE PUSH26 0x14DC5D5859081BDDDB995C881DD85CDB89DD081D5C19185D1959 PUSH1 0x32 SHL PUSH1 0x80 DUP3 ADD MSTORE PUSH1 0xA0 ADD SWAP1 JUMP JUMPDEST PUSH1 0x0 PUSH1 0x20 DUP3 MSTORE PUSH3 0x11D8 PUSH1 0x20 DUP4 ADD DUP5 PUSH3 0x1305 JUMP JUMPDEST PUSH1 0x0 PUSH1 0x40 DUP3 MSTORE PUSH3 0x13E2 PUSH1 0x40 DUP4 ADD DUP6 PUSH3 0x1305 JUMP JUMPDEST SWAP1 POP DUP3 PUSH1 0x20 DUP4 ADD MSTORE SWAP4 SWAP3 POP POP POP JUMP JUMPDEST PUSH1 0x20 DUP2 ADD PUSH1 0x5 DUP4 LT PUSH3 0x1408 JUMPI PUSH3 0x1408 PUSH3 0x15A4 JUMP JUMPDEST SWAP2 SWAP1 MSTORE SWAP1 JUMP JUMPDEST PUSH1 0x20 DUP2 ADD PUSH3 0x141E DUP3 DUP5 PUSH3 0x1341 JUMP JUMPDEST SWAP3 SWAP2 POP POP JUMP JUMPDEST PUSH1 0x0 PUSH3 0x1432 DUP3 DUP5 PUSH3 0x1341 JUMP JUMPDEST POP PUSH1 0x40 PUSH1 0x20 DUP3 ADD DUP2 SWAP1 MSTORE PUSH1 0xA SWAP1 DUP3 ADD MSTORE PUSH10 0x73686F7274206E616D65 PUSH1 0xB0 SHL PUSH1 0x60 DUP3 ADD MSTORE PUSH1 0x80 ADD SWAP2 SWAP1 POP JUMP JUMPDEST SWAP1 DUP2 MSTORE PUSH1 0x20 ADD SWAP1 JUMP JUMPDEST SWAP2 DUP3 MSTORE PUSH1 0x20 DUP3 ADD MSTORE PUSH1 0x60 PUSH1 0x40 DUP3 ADD DUP2 SWAP1 MSTORE PUSH1 0x14 SWAP1 DUP3 ADD MSTORE PUSH20 0x155B9A5D1CC81DD95C99481B9BDD081859191959 PUSH1 0x62 SHL PUSH1 0x80 DUP3 ADD MSTORE PUSH1 0xA0 ADD SWAP1 JUMP JUMPDEST SWAP2 DUP3 MSTORE PUSH1 0x20 DUP3 ADD MSTORE PUSH1 0x60 PUSH1 0x40 DUP3 ADD DUP2 SWAP1 MSTORE PUSH1 0x17 SWAP1 DUP3 ADD MSTORE PUSH23 0x26B7B732BC903BB0B9903737BA103BB4BA34323930BBB7 PUSH1 0x49 SHL PUSH1 0x80 DUP3 ADD MSTORE PUSH1 0xA0 ADD SWAP1 JUMP JUMPDEST SWAP2 DUP3 MSTORE PUSH1 0x20 DUP3 ADD MSTORE PUSH1 0x60 PUSH1 0x40 DUP3 ADD DUP2 SWAP1 MSTORE PUSH1 0x12 SWAP1 DUP3 ADD MSTORE PUSH18 0x14DC5D5859081DD85CDB89DD081859191959 PUSH1 0x72 SHL PUSH1 0x80 DUP3 ADD MSTORE PUSH1 0xA0 ADD SWAP1 JUMP JUMPDEST PUSH1 0xFF SWAP3 DUP4 AND DUP2 MSTORE SWAP2 AND PUSH1 0x20 DUP3 ADD MSTORE PUSH1 0x60 PUSH1 0x40 DUP3 ADD DUP2 SWAP1 MSTORE PUSH1 0x14 SWAP1 DUP3 ADD MSTORE PUSH20 0x496E636F727265637420556E6974205374617465 PUSH1 0x60 SHL PUSH1 0x80 DUP3 ADD MSTORE PUSH1 0xA0 ADD SWAP1 JUMP JUMPDEST PUSH1 0x0 DUP3 NOT DUP3 GT ISZERO PUSH3 0x156B JUMPI PUSH3 0x156B PUSH3 0x158E JUMP JUMPDEST POP ADD SWAP1 JUMP JUMPDEST PUSH1 0x0 PUSH1 0x0 NOT DUP3 EQ ISZERO PUSH3 0x1587 JUMPI PUSH3 0x1587 PUSH3 0x158E JUMP JUMPDEST POP PUSH1 0x1 ADD SWAP1 JUMP JUMPDEST PUSH4 0x4E487B71 PUSH1 0xE0 SHL PUSH1 0x0 MSTORE PUSH1 0x11 PUSH1 0x4 MSTORE PUSH1 0x24 PUSH1 0x0 REVERT JUMPDEST PUSH4 0x4E487B71 PUSH1 0xE0 SHL PUSH1 0x0 MSTORE PUSH1 0x21 PUSH1 0x4 MSTORE PUSH1 0x24 PUSH1 0x0 REVERT JUMPDEST PUSH4 0x4E487B71 PUSH1 0xE0 SHL PUSH1 0x0 MSTORE PUSH1 0x41 PUSH1 0x4 MSTORE PUSH1 0x24 PUSH1 0x0 REVERT JUMPDEST PUSH1 0x1 PUSH1 0x1 PUSH1 0xA0 SHL SUB DUP2 AND DUP2 EQ PUSH3 0x15E6 JUMPI PUSH1 0x0 DUP1 REVERT JUMPDEST POP JUMP INVALID PUSH1 0x80 PUSH1 0x40 MSTORE PUSH4 0x3B9ACA00 PUSH1 0xB SSTORE CALLVALUE DUP1 ISZERO PUSH3 0x19 JUMPI PUSH1 0x0 DUP1 REVERT JUMPDEST POP ADDRESS PUSH1 0x40 MLOAD PUSH3 0x29 SWAP1 PUSH3 0xF3C JUMP JUMPDEST PUSH3 0x35 SWAP2 SWAP1 PUSH3 0x1056 JUMP JUMPDEST PUSH1 0x40 MLOAD DUP1 SWAP2 SUB SWAP1 PUSH1 0x0 CREATE DUP1 ISZERO DUP1 ISZERO PUSH3 0x52 JUMPI RETURNDATASIZE PUSH1 0x0 DUP1 RETURNDATACOPY RETURNDATASIZE PUSH1 0x0 REVERT JUMPDEST POP PUSH1 0xD DUP1 SLOAD PUSH1 0x1 PUSH1 0x1 PUSH1 0xA0 SHL SUB NOT SWAP1 DUP2 AND PUSH1 0x1 PUSH1 0x1 PUSH1 0xA0 SHL SUB SWAP4 DUP5 AND OR SWAP2 DUP3 SWAP1 SSTORE PUSH1 0xC DUP1 SLOAD SWAP3 SWAP1 SWAP4 AND SWAP2 AND OR SWAP1 SSTORE PUSH1 0x40 DUP1 MLOAD PUSH1 0x7 DUP1 DUP3 MSTORE PUSH2 0x100 DUP3 ADD SWAP1 SWAP3 MSTORE PUSH1 0x0 SWAP2 PUSH1 0x20 DUP3 ADD PUSH1 0xE0 DUP1 CALLDATASIZE DUP4 CALLDATACOPY POP POP PUSH1 0x40 DUP1 MLOAD PUSH1 0x5 DUP1 DUP3 MSTORE PUSH1 0xC0 DUP3 ADD SWAP1 SWAP3 MSTORE SWAP3 SWAP4 POP PUSH1 0x0 SWAP3 SWAP2 POP PUSH1 0x20 DUP3 ADD PUSH1 0xA0 DUP1 CALLDATASIZE DUP4 CALLDATACOPY POP POP PUSH1 0x40 DUP1 MLOAD PUSH1 0x3 DUP1 DUP3 MSTORE PUSH1 0x80 DUP3 ADD SWAP1 SWAP3 MSTORE SWAP3 SWAP4 POP PUSH1 0x0 SWAP3 SWAP2 POP PUSH1 0x20 DUP3 ADD PUSH1 0x60 DUP1 CALLDATASIZE DUP4 CALLDATACOPY POP POP PUSH1 0x40 DUP1 MLOAD PUSH1 0x1 DUP1 DUP3 MSTORE DUP2 DUP4 ADD SWAP1 SWAP3 MSTORE SWAP3 SWAP4 POP PUSH1 0x0 SWAP3 SWAP2 POP PUSH1 0x20 DUP1 DUP4 ADD SWAP1 DUP1 CALLDATASIZE DUP4 CALLDATACOPY ADD SWAP1 POP POP SWAP1 POP PUSH1 0x0 JUMPDEST PUSH1 0x7 DUP2 LT ISZERO PUSH3 0x190 JUMPI PUSH3 0x14F ADDRESS PUSH1 0x2 PUSH1 0x40 MLOAD DUP1 PUSH1 0x40 ADD PUSH1 0x40 MSTORE DUP1 PUSH1 0x7 DUP2 MSTORE PUSH1 0x20 ADD PUSH7 0x11115190555315 PUSH1 0xCA SHL DUP2 MSTORE POP PUSH3 0x3BE PUSH1 0x20 SHL PUSH1 0x20 SHR JUMP JUMPDEST DUP6 DUP3 DUP2 MLOAD DUP2 LT PUSH3 0x170 JUMPI PUSH4 0x4E487B71 PUSH1 0xE0 SHL PUSH1 0x0 MSTORE PUSH1 0x32 PUSH1 0x4 MSTORE PUSH1 0x24 PUSH1 0x0 REVERT JUMPDEST PUSH1 0x20 SWAP1 DUP2 MUL SWAP2 SWAP1 SWAP2 ADD ADD MSTORE PUSH3 0x188 PUSH1 0x1 DUP3 PUSH3 0x1203 JUMP JUMPDEST SWAP1 POP PUSH3 0x112 JUMP JUMPDEST POP PUSH1 0x0 JUMPDEST PUSH1 0x5 DUP2 LT ISZERO PUSH3 0x212 JUMPI PUSH3 0x1D1 ADDRESS PUSH1 0x2 PUSH1 0x40 MLOAD DUP1 PUSH1 0x40 ADD PUSH1 0x40 MSTORE DUP1 PUSH1 0x7 DUP2 MSTORE PUSH1 0x20 ADD PUSH7 0x11115190555315 PUSH1 0xCA SHL DUP2 MSTORE POP PUSH3 0x3BE PUSH1 0x20 SHL PUSH1 0x20 SHR JUMP JUMPDEST DUP5 DUP3 DUP2 MLOAD DUP2 LT PUSH3 0x1F2 JUMPI PUSH4 0x4E487B71 PUSH1 0xE0 SHL PUSH1 0x0 MSTORE PUSH1 0x32 PUSH1 0x4 MSTORE PUSH1 0x24 PUSH1 0x0 REVERT JUMPDEST PUSH1 0x20 SWAP1 DUP2 MUL SWAP2 SWAP1 SWAP2 ADD ADD MSTORE PUSH3 0x20A PUSH1 0x1 DUP3 PUSH3 0x1203 JUMP JUMPDEST SWAP1 POP PUSH3 0x194 JUMP JUMPDEST POP PUSH1 0x0 JUMPDEST PUSH1 0x3 DUP2 LT ISZERO PUSH3 0x294 JUMPI PUSH3 0x253 ADDRESS PUSH1 0x2 PUSH1 0x40 MLOAD DUP1 PUSH1 0x40 ADD PUSH1 0x40 MSTORE DUP1 PUSH1 0x7 DUP2 MSTORE PUSH1 0x20 ADD PUSH7 0x11115190555315 PUSH1 0xCA SHL DUP2 MSTORE POP PUSH3 0x3BE PUSH1 0x20 SHL PUSH1 0x20 SHR JUMP JUMPDEST DUP4 DUP3 DUP2 MLOAD DUP2 LT PUSH3 0x274 JUMPI PUSH4 0x4E487B71 PUSH1 0xE0 SHL PUSH1 0x0 MSTORE PUSH1 0x32 PUSH1 0x4 MSTORE PUSH1 0x24 PUSH1 0x0 REVERT JUMPDEST PUSH1 0x20 SWAP1 DUP2 MUL SWAP2 SWAP1 SWAP2 ADD ADD MSTORE PUSH3 0x28C PUSH1 0x1 DUP3 PUSH3 0x1203 JUMP JUMPDEST SWAP1 POP PUSH3 0x216 JUMP JUMPDEST POP PUSH1 0x0 JUMPDEST PUSH1 0x1 DUP2 LT ISZERO PUSH3 0x316 JUMPI PUSH3 0x2D5 ADDRESS PUSH1 0x2 PUSH1 0x40 MLOAD DUP1 PUSH1 0x40 ADD PUSH1 0x40 MSTORE DUP1 PUSH1 0x7 DUP2 MSTORE PUSH1 0x20 ADD PUSH7 0x11115190555315 PUSH1 0xCA SHL DUP2 MSTORE POP PUSH3 0x3BE PUSH1 0x20 SHL PUSH1 0x20 SHR JUMP JUMPDEST DUP3 DUP3 DUP2 MLOAD DUP2 LT PUSH3 0x2F6 JUMPI PUSH4 0x4E487B71 PUSH1 0xE0 SHL PUSH1 0x0 MSTORE PUSH1 0x32 PUSH1 0x4 MSTORE PUSH1 0x24 PUSH1 0x0 REVERT JUMPDEST PUSH1 0x20 SWAP1 DUP2 MUL SWAP2 SWAP1 SWAP2 ADD ADD MSTORE PUSH3 0x30E PUSH1 0x1 DUP3 PUSH3 0x1203 JUMP JUMPDEST SWAP1 POP PUSH3 0x298 JUMP JUMPDEST POP PUSH1 0x0 SLOAD PUSH1 0x10 LT ISZERO PUSH3 0x346 JUMPI PUSH1 0x40 MLOAD PUSH3 0x461BCD PUSH1 0xE5 SHL DUP2 MSTORE PUSH1 0x4 ADD PUSH3 0x33D SWAP1 PUSH3 0x10BA JUMP JUMPDEST PUSH1 0x40 MLOAD DUP1 SWAP2 SUB SWAP1 REVERT JUMPDEST ADDRESS PUSH1 0x0 SWAP1 DUP2 MSTORE PUSH1 0xA PUSH1 0x20 MSTORE PUSH1 0x40 SWAP1 KECCAK256 SLOAD PUSH1 0x10 LT ISZERO PUSH3 0x379 JUMPI PUSH1 0x40 MLOAD PUSH3 0x461BCD PUSH1 0xE5 SHL DUP2 MSTORE PUSH1 0x4 ADD PUSH3 0x33D SWAP1 PUSH3 0x11BC JUMP JUMPDEST PUSH3 0x385 ADDRESS DUP6 PUSH3 0x5DF JUMP JUMPDEST POP PUSH3 0x394 SWAP1 POP ADDRESS DUP5 PUSH3 0x5DF JUMP JUMPDEST POP PUSH3 0x3A3 SWAP1 POP ADDRESS DUP4 PUSH3 0x5DF JUMP JUMPDEST POP PUSH3 0x3B2 SWAP1 POP ADDRESS DUP3 PUSH3 0x5DF JUMP JUMPDEST POP POP POP POP POP POP PUSH3 0x12B3 JUMP JUMPDEST PUSH1 0x0 DUP1 DUP1 PUSH1 0x1 DUP6 PUSH1 0x2 DUP2 GT ISZERO PUSH3 0x3E5 JUMPI PUSH4 0x4E487B71 PUSH1 0xE0 SHL PUSH1 0x0 MSTORE PUSH1 0x21 PUSH1 0x4 MSTORE PUSH1 0x24 PUSH1 0x0 REVERT JUMPDEST EQ ISZERO PUSH3 0x401 JUMPI PUSH3 0x3F9 PUSH1 0xA DUP4 PUSH3 0x1203 JUMP JUMPDEST SWAP2 POP PUSH3 0x489 JUMP JUMPDEST PUSH1 0x0 DUP6 PUSH1 0x2 DUP2 GT ISZERO PUSH3 0x424 JUMPI PUSH4 0x4E487B71 PUSH1 0xE0 SHL PUSH1 0x0 MSTORE PUSH1 0x21 PUSH1 0x4 MSTORE PUSH1 0x24 PUSH1 0x0 REVERT JUMPDEST EQ ISZERO PUSH3 0x438 JUMPI PUSH3 0x3F9 PUSH1 0xF DUP4 PUSH3 0x1203 JUMP JUMPDEST PUSH1 0x2 DUP6 PUSH1 0x2 DUP2 GT ISZERO PUSH3 0x45B JUMPI PUSH4 0x4E487B71 PUSH1 0xE0 SHL PUSH1 0x0 MSTORE PUSH1 0x21 PUSH1 0x4 MSTORE PUSH1 0x24 PUSH1 0x0 REVERT JUMPDEST EQ ISZERO PUSH3 0x46F JUMPI PUSH3 0x3F9 PUSH1 0x14 DUP4 PUSH3 0x1203 JUMP JUMPDEST PUSH1 0x40 MLOAD PUSH3 0x461BCD PUSH1 0xE5 SHL DUP2 MSTORE PUSH1 0x4 ADD PUSH3 0x33D SWAP1 PUSH3 0x1083 JUMP JUMPDEST PUSH1 0xD SLOAD PUSH1 0x40 MLOAD PUSH4 0xAF7D6CA3 PUSH1 0xE0 SHL DUP2 MSTORE PUSH1 0x1 PUSH1 0x1 PUSH1 0xA0 SHL SUB SWAP1 SWAP2 AND SWAP1 PUSH4 0xAF7D6CA3 SWAP1 PUSH3 0x4BD SWAP1 DUP10 SWAP1 DUP7 SWAP1 PUSH1 0x4 ADD PUSH3 0x106A JUMP JUMPDEST PUSH1 0x20 PUSH1 0x40 MLOAD DUP1 DUP4 SUB DUP2 PUSH1 0x0 DUP8 DUP1 EXTCODESIZE ISZERO DUP1 ISZERO PUSH3 0x4D8 JUMPI PUSH1 0x0 DUP1 REVERT JUMPDEST POP GAS CALL ISZERO DUP1 ISZERO PUSH3 0x4ED JUMPI RETURNDATASIZE PUSH1 0x0 DUP1 RETURNDATACOPY RETURNDATASIZE PUSH1 0x0 REVERT JUMPDEST POP POP POP POP PUSH1 0x40 MLOAD RETURNDATASIZE PUSH1 0x1F NOT PUSH1 0x1F DUP3 ADD AND DUP3 ADD DUP1 PUSH1 0x40 MSTORE POP DUP2 ADD SWAP1 PUSH3 0x513 SWAP2 SWAP1 PUSH3 0x102D JUMP JUMPDEST POP PUSH3 0x520 DUP6 DUP6 PUSH3 0xB82 JUMP JUMPDEST SWAP1 POP DUP1 PUSH32 0xB89BE3B4BDC4059B3E8638AC07EF31FB78418648FFA34EACCB60B1C60F318D29 DUP8 PUSH1 0x40 MLOAD PUSH3 0x554 SWAP2 SWAP1 PUSH3 0x1056 JUMP JUMPDEST PUSH1 0x40 MLOAD DUP1 SWAP2 SUB SWAP1 LOG2 PUSH1 0x0 DUP2 DUP2 MSTORE PUSH1 0x5 PUSH1 0x20 SWAP1 DUP2 MSTORE PUSH1 0x40 DUP1 DUP4 KECCAK256 DUP1 SLOAD PUSH1 0x1 PUSH1 0x1 PUSH1 0xA0 SHL SUB NOT AND PUSH1 0x1 PUSH1 0x1 PUSH1 0xA0 SHL SUB DUP12 AND SWAP1 DUP2 OR SWAP1 SWAP2 SSTORE DUP4 MSTORE PUSH1 0x7 SWAP1 SWAP2 MSTORE DUP2 KECCAK256 DUP1 SLOAD PUSH1 0x1 SWAP3 SWAP1 PUSH3 0x5A5 SWAP1 DUP5 SWAP1 PUSH3 0x1203 JUMP JUMPDEST SWAP1 SWAP2 SSTORE POP POP PUSH1 0x1 PUSH1 0x1 PUSH1 0xA0 SHL SUB DUP7 AND PUSH1 0x0 SWAP1 DUP2 MSTORE PUSH1 0xA PUSH1 0x20 SWAP1 DUP2 MSTORE PUSH1 0x40 DUP3 KECCAK256 DUP1 SLOAD PUSH1 0x1 DUP2 ADD DUP3 SSTORE SWAP1 DUP4 MSTORE SWAP2 KECCAK256 ADD DUP2 SWAP1 SSTORE SWAP2 POP POP SWAP4 SWAP3 POP POP POP JUMP JUMPDEST PUSH1 0x0 DUP1 PUSH1 0x0 PUSH1 0x7 DUP5 MLOAD GT ISZERO PUSH3 0x609 JUMPI PUSH1 0x40 MLOAD PUSH3 0x461BCD PUSH1 0xE5 SHL DUP2 MSTORE PUSH1 0x4 ADD PUSH3 0x33D SWAP1 PUSH3 0x1128 JUMP JUMPDEST PUSH1 0x0 JUMPDEST DUP5 MLOAD DUP2 PUSH1 0xFF AND LT ISZERO PUSH3 0x811 JUMPI DUP6 PUSH1 0x1 PUSH1 0x1 PUSH1 0xA0 SHL SUB AND PUSH1 0x5 PUSH1 0x0 DUP8 DUP5 PUSH1 0xFF AND DUP2 MLOAD DUP2 LT PUSH3 0x64B JUMPI PUSH4 0x4E487B71 PUSH1 0xE0 SHL PUSH1 0x0 MSTORE PUSH1 0x32 PUSH1 0x4 MSTORE PUSH1 0x24 PUSH1 0x0 REVERT JUMPDEST PUSH1 0x20 SWAP1 DUP2 MUL SWAP2 SWAP1 SWAP2 ADD DUP2 ADD MLOAD DUP3 MSTORE DUP2 ADD SWAP2 SWAP1 SWAP2 MSTORE PUSH1 0x40 ADD PUSH1 0x0 KECCAK256 SLOAD PUSH1 0x1 PUSH1 0x1 PUSH1 0xA0 SHL SUB AND EQ PUSH3 0x68F JUMPI PUSH1 0x40 MLOAD PUSH3 0x461BCD PUSH1 0xE5 SHL DUP2 MSTORE PUSH1 0x4 ADD PUSH3 0x33D SWAP1 PUSH3 0x10F1 JUMP JUMPDEST PUSH1 0x3 PUSH1 0x9 PUSH1 0x0 DUP8 DUP5 PUSH1 0xFF AND DUP2 MLOAD DUP2 LT PUSH3 0x6B9 JUMPI PUSH4 0x4E487B71 PUSH1 0xE0 SHL PUSH1 0x0 MSTORE PUSH1 0x32 PUSH1 0x4 MSTORE PUSH1 0x24 PUSH1 0x0 REVERT JUMPDEST PUSH1 0x20 SWAP1 DUP2 MUL SWAP2 SWAP1 SWAP2 ADD DUP2 ADD MLOAD DUP3 MSTORE DUP2 ADD SWAP2 SWAP1 SWAP2 MSTORE PUSH1 0x40 ADD PUSH1 0x0 KECCAK256 SLOAD PUSH1 0xFF AND PUSH1 0x4 DUP2 GT ISZERO PUSH3 0x6F7 JUMPI PUSH4 0x4E487B71 PUSH1 0xE0 SHL PUSH1 0x0 MSTORE PUSH1 0x21 PUSH1 0x4 MSTORE PUSH1 0x24 PUSH1 0x0 REVERT JUMPDEST EQ PUSH3 0x717 JUMPI PUSH1 0x40 MLOAD PUSH3 0x461BCD PUSH1 0xE5 SHL DUP2 MSTORE PUSH1 0x4 ADD PUSH3 0x33D SWAP1 PUSH3 0x115F JUMP JUMPDEST PUSH1 0x1 PUSH1 0x9 PUSH1 0x0 DUP8 DUP5 PUSH1 0xFF AND DUP2 MLOAD DUP2 LT PUSH3 0x741 JUMPI PUSH4 0x4E487B71 PUSH1 0xE0 SHL PUSH1 0x0 MSTORE PUSH1 0x32 PUSH1 0x4 MSTORE PUSH1 0x24 PUSH1 0x0 REVERT JUMPDEST PUSH1 0x20 MUL PUSH1 0x20 ADD ADD MLOAD DUP2 MSTORE PUSH1 0x20 ADD SWAP1 DUP2 MSTORE PUSH1 0x20 ADD PUSH1 0x0 KECCAK256 PUSH1 0x0 PUSH2 0x100 EXP DUP2 SLOAD DUP2 PUSH1 0xFF MUL NOT AND SWAP1 DUP4 PUSH1 0x4 DUP2 GT ISZERO PUSH3 0x787 JUMPI PUSH4 0x4E487B71 PUSH1 0xE0 SHL PUSH1 0x0 MSTORE PUSH1 0x21 PUSH1 0x4 MSTORE PUSH1 0x24 PUSH1 0x0 REVERT JUMPDEST MUL OR SWAP1 SSTORE POP PUSH1 0x0 DUP6 DUP3 PUSH1 0xFF AND DUP2 MLOAD DUP2 LT PUSH3 0x7B2 JUMPI PUSH4 0x4E487B71 PUSH1 0xE0 SHL PUSH1 0x0 MSTORE PUSH1 0x32 PUSH1 0x4 MSTORE PUSH1 0x24 PUSH1 0x0 REVERT JUMPDEST PUSH1 0x20 MUL PUSH1 0x20 ADD ADD MLOAD DUP2 SLOAD DUP2 LT PUSH3 0x7D9 JUMPI PUSH4 0x4E487B71 PUSH1 0xE0 SHL PUSH1 0x0 MSTORE PUSH1 0x32 PUSH1 0x4 MSTORE PUSH1 0x24 PUSH1 0x0 REVERT JUMPDEST PUSH1 0x0 SWAP2 DUP3 MSTORE PUSH1 0x20 SWAP1 SWAP2 KECCAK256 PUSH1 0x2 SWAP1 SWAP2 MUL ADD SLOAD PUSH3 0x7FA SWAP1 PUSH2 0xFFFF AND DUP4 PUSH3 0x11DA JUMP JUMPDEST SWAP2 POP PUSH3 0x809 PUSH1 0x1 DUP3 PUSH3 0x121E JUMP JUMPDEST SWAP1 POP PUSH3 0x60C JUMP JUMPDEST POP PUSH1 0x0 PUSH3 0x826 DUP6 MLOAD PUSH3 0xED3 PUSH1 0x20 SHL PUSH1 0x20 SHR JUMP JUMPDEST SWAP1 POP PUSH1 0x0 PUSH1 0x40 MLOAD DUP1 PUSH1 0xC0 ADD PUSH1 0x40 MSTORE DUP1 PUSH1 0x0 PUSH1 0x1 PUSH1 0x1 PUSH1 0x40 SHL SUB DUP2 GT ISZERO PUSH3 0x85D JUMPI PUSH4 0x4E487B71 PUSH1 0xE0 SHL PUSH1 0x0 MSTORE PUSH1 0x41 PUSH1 0x4 MSTORE PUSH1 0x24 PUSH1 0x0 REVERT JUMPDEST PUSH1 0x40 MLOAD SWAP1 DUP1 DUP3 MSTORE DUP1 PUSH1 0x20 MUL PUSH1 0x20 ADD DUP3 ADD PUSH1 0x40 MSTORE DUP1 ISZERO PUSH3 0x887 JUMPI DUP2 PUSH1 0x20 ADD PUSH1 0x20 DUP3 MUL DUP1 CALLDATASIZE DUP4 CALLDATACOPY ADD SWAP1 POP JUMPDEST POP DUP2 MSTORE DUP8 MLOAD PUSH1 0xFF AND PUSH1 0x20 DUP3 ADD MSTORE PUSH1 0x0 PUSH1 0x40 DUP3 ADD MSTORE PUSH1 0x60 ADD DUP4 PUSH1 0x4 DUP2 GT ISZERO PUSH3 0x8BF JUMPI PUSH4 0x4E487B71 PUSH1 0xE0 SHL PUSH1 0x0 MSTORE PUSH1 0x21 PUSH1 0x4 MSTORE PUSH1 0x24 PUSH1 0x0 REVERT JUMPDEST DUP2 MSTORE PUSH2 0xFFFF TIMESTAMP DUP2 AND PUSH1 0x20 DUP1 DUP5 ADD SWAP2 SWAP1 SWAP2 MSTORE SWAP1 DUP7 AND PUSH1 0x40 SWAP1 SWAP3 ADD SWAP2 SWAP1 SWAP2 MSTORE PUSH1 0x1 DUP1 SLOAD DUP1 DUP3 ADD DUP3 SSTORE PUSH1 0x0 SWAP2 SWAP1 SWAP2 MSTORE DUP3 MLOAD DUP1 MLOAD SWAP4 SWAP5 POP DUP5 SWAP4 PUSH1 0x2 SWAP1 SWAP3 MUL PUSH32 0xB10E2D527612073B26EECDFD717E6A320CF44B4AFAC2B0732D9FCBE2B7FA0CF6 ADD SWAP3 PUSH3 0x92D SWAP3 DUP5 SWAP3 SWAP1 SWAP2 ADD SWAP1 PUSH3 0xF4A JUMP JUMPDEST POP PUSH1 0x20 DUP3 ADD MLOAD PUSH1 0x1 DUP3 ADD DUP1 SLOAD PUSH1 0x40 DUP6 ADD MLOAD PUSH2 0xFFFF AND PUSH2 0x100 MUL PUSH3 0xFFFF00 NOT PUSH1 0xFF SWAP1 SWAP5 AND PUSH1 0xFF NOT SWAP1 SWAP3 AND SWAP2 SWAP1 SWAP2 OR SWAP3 SWAP1 SWAP3 AND SWAP2 SWAP1 SWAP2 OR DUP1 DUP3 SSTORE PUSH1 0x60 DUP5 ADD MLOAD SWAP2 SWAP1 PUSH4 0xFF000000 NOT AND PUSH4 0x1000000 DUP4 PUSH1 0x4 DUP2 GT ISZERO PUSH3 0x999 JUMPI PUSH4 0x4E487B71 PUSH1 0xE0 SHL PUSH1 0x0 MSTORE PUSH1 0x21 PUSH1 0x4 MSTORE PUSH1 0x24 PUSH1 0x0 REVERT JUMPDEST MUL OR SWAP1 SSTORE POP PUSH1 0x80 DUP3 ADD MLOAD PUSH1 0x1 SWAP1 SWAP2 ADD DUP1 SLOAD PUSH1 0xA0 SWAP1 SWAP4 ADD MLOAD PUSH2 0xFFFF SWAP1 DUP2 AND PUSH7 0x1000000000000 MUL PUSH2 0xFFFF PUSH1 0x30 SHL NOT SWAP2 SWAP1 SWAP4 AND PUSH5 0x100000000 MUL PUSH2 0xFFFF PUSH1 0x20 SHL NOT SWAP1 SWAP5 AND SWAP4 SWAP1 SWAP4 OR SWAP3 SWAP1 SWAP3 AND OR SWAP1 SSTORE PUSH1 0x0 JUMPDEST DUP7 MLOAD DUP2 PUSH1 0xFF AND LT ISZERO PUSH3 0xA94 JUMPI PUSH1 0x1 DUP1 SLOAD PUSH3 0xA07 SWAP1 DUP3 SWAP1 PUSH3 0x1246 JUMP JUMPDEST DUP2 SLOAD DUP2 LT PUSH3 0xA26 JUMPI PUSH4 0x4E487B71 PUSH1 0xE0 SHL PUSH1 0x0 MSTORE PUSH1 0x32 PUSH1 0x4 MSTORE PUSH1 0x24 PUSH1 0x0 REVERT JUMPDEST SWAP1 PUSH1 0x0 MSTORE PUSH1 0x20 PUSH1 0x0 KECCAK256 SWAP1 PUSH1 0x2 MUL ADD PUSH1 0x0 ADD DUP8 DUP3 PUSH1 0xFF AND DUP2 MLOAD DUP2 LT PUSH3 0xA5B JUMPI PUSH4 0x4E487B71 PUSH1 0xE0 SHL PUSH1 0x0 MSTORE PUSH1 0x32 PUSH1 0x4 MSTORE PUSH1 0x24 PUSH1 0x0 REVERT JUMPDEST PUSH1 0x20 SWAP1 DUP2 MUL SWAP2 SWAP1 SWAP2 ADD DUP2 ADD MLOAD DUP3 SLOAD PUSH1 0x1 DUP2 DUP2 ADD DUP6 SSTORE PUSH1 0x0 SWAP5 DUP6 MSTORE SWAP3 SWAP1 SWAP4 KECCAK256 SWAP1 SWAP3 ADD SWAP2 SWAP1 SWAP2 SSTORE PUSH3 0xA8C SWAP1 DUP3 PUSH3 0x121E JUMP JUMPDEST SWAP1 POP PUSH3 0x9E9 JUMP JUMPDEST POP PUSH1 0x1 PUSH1 0x1 PUSH1 0xA0 SHL SUB DUP8 AND PUSH1 0x0 SWAP1 DUP2 MSTORE PUSH1 0x3 PUSH1 0x20 MSTORE PUSH1 0x40 SWAP1 KECCAK256 PUSH1 0x1 DUP1 SLOAD PUSH3 0xABD SWAP2 SWAP1 PUSH3 0x1246 JUMP JUMPDEST DUP2 SLOAD PUSH1 0x1 DUP2 DUP2 ADD DUP5 SSTORE PUSH1 0x0 SWAP4 DUP5 MSTORE PUSH1 0x20 DUP5 KECCAK256 SWAP1 SWAP2 ADD SWAP2 SWAP1 SWAP2 SSTORE DUP1 SLOAD DUP10 SWAP3 PUSH1 0x6 SWAP3 SWAP1 SWAP2 PUSH3 0xAEB SWAP2 SWAP1 PUSH3 0x1246 JUMP JUMPDEST DUP2 MSTORE PUSH1 0x20 DUP2 ADD SWAP2 SWAP1 SWAP2 MSTORE PUSH1 0x40 ADD PUSH1 0x0 KECCAK256 DUP1 SLOAD PUSH1 0x1 PUSH1 0x1 PUSH1 0xA0 SHL SUB NOT AND PUSH1 0x1 PUSH1 0x1 PUSH1 0xA0 SHL SUB SWAP3 SWAP1 SWAP3 AND SWAP2 SWAP1 SWAP2 OR SWAP1 SSTORE PUSH1 0x1 DUP1 SLOAD PUSH32 0x67F794A23800C26D9E9CE3C51A9E95DD2C5A724C30030822F589294AFC81231B SWAP2 DUP10 SWAP2 PUSH3 0xB4D SWAP2 SWAP1 PUSH3 0x1246 JUMP JUMPDEST PUSH1 0x40 MLOAD PUSH3 0xB5D SWAP3 SWAP2 SWAP1 PUSH3 0x106A JUMP JUMPDEST PUSH1 0x40 MLOAD DUP1 SWAP2 SUB SWAP1 LOG1 PUSH1 0x1 DUP1 SLOAD PUSH3 0xB75 SWAP2 SWAP1 PUSH3 0x1246 JUMP JUMPDEST SWAP8 SWAP2 SWAP7 POP SWAP1 SWAP5 POP POP POP POP POP JUMP JUMPDEST PUSH1 0x40 DUP1 MLOAD PUSH1 0xE0 DUP2 ADD DUP3 MSTORE PUSH1 0x0 DUP1 DUP3 MSTORE PUSH1 0x20 DUP3 ADD DUP2 SWAP1 MSTORE PUSH1 0x1 SWAP3 DUP3 ADD SWAP3 SWAP1 SWAP3 MSTORE PUSH1 0x60 DUP2 ADD DUP3 SWAP1 MSTORE PUSH1 0x80 DUP2 ADD DUP3 SWAP1 MSTORE DUP2 SWAP1 PUSH1 0xA0 DUP2 ADD DUP6 PUSH1 0x2 DUP2 GT ISZERO PUSH3 0xBD6 JUMPI PUSH4 0x4E487B71 PUSH1 0xE0 SHL PUSH1 0x0 MSTORE PUSH1 0x21 PUSH1 0x4 MSTORE PUSH1 0x24 PUSH1 0x0 REVERT JUMPDEST DUP2 MSTORE PUSH1 0x20 ADD DUP5 SWAP1 MSTORE SWAP1 POP PUSH1 0x0 DUP5 PUSH1 0x2 DUP2 GT ISZERO PUSH3 0xC03 JUMPI PUSH4 0x4E487B71 PUSH1 0xE0 SHL PUSH1 0x0 MSTORE PUSH1 0x21 PUSH1 0x4 MSTORE PUSH1 0x24 PUSH1 0x0 REVERT JUMPDEST EQ ISZERO PUSH3 0xC68 JUMPI PUSH1 0xF DUP2 PUSH1 0x0 ADD DUP2 DUP2 MLOAD PUSH3 0xC1F SWAP2 SWAP1 PUSH3 0x11DA JUMP JUMPDEST PUSH2 0xFFFF AND SWAP1 MSTORE POP PUSH1 0x20 DUP2 ADD DUP1 MLOAD PUSH1 0x1 SWAP2 SWAP1 PUSH3 0xC3D SWAP1 DUP4 SWAP1 PUSH3 0x11DA JUMP JUMPDEST PUSH2 0xFFFF AND SWAP1 MSTORE POP PUSH1 0x60 DUP2 ADD DUP1 MLOAD PUSH1 0x32 SWAP2 SWAP1 PUSH3 0xC5B SWAP1 DUP4 SWAP1 PUSH3 0x11DA JUMP JUMPDEST PUSH2 0xFFFF AND SWAP1 MSTORE POP PUSH3 0xD48 JUMP JUMPDEST PUSH1 0x1 DUP5 PUSH1 0x2 DUP2 GT ISZERO PUSH3 0xC8B JUMPI PUSH4 0x4E487B71 PUSH1 0xE0 SHL PUSH1 0x0 MSTORE PUSH1 0x21 PUSH1 0x4 MSTORE PUSH1 0x24 PUSH1 0x0 REVERT JUMPDEST EQ ISZERO PUSH3 0xCC5 JUMPI PUSH1 0xA DUP2 PUSH1 0x0 ADD DUP2 DUP2 MLOAD PUSH3 0xCA7 SWAP2 SWAP1 PUSH3 0x11DA JUMP JUMPDEST PUSH2 0xFFFF AND SWAP1 MSTORE POP PUSH1 0x20 DUP2 ADD DUP1 MLOAD PUSH1 0x5 SWAP2 SWAP1 PUSH3 0xC3D SWAP1 DUP4 SWAP1 PUSH3 0x11DA JUMP JUMPDEST PUSH1 0x2 DUP5 PUSH1 0x2 DUP2 GT ISZERO PUSH3 0xCE8 JUMPI PUSH4 0x4E487B71 PUSH1 0xE0 SHL PUSH1 0x0 MSTORE PUSH1 0x21 PUSH1 0x4 MSTORE PUSH1 0x24 PUSH1 0x0 REVERT JUMPDEST EQ ISZERO PUSH3 0xD48 JUMPI PUSH1 0xA DUP2 PUSH1 0x0 ADD DUP2 DUP2 MLOAD PUSH3 0xD04 SWAP2 SWAP1 PUSH3 0x11DA JUMP JUMPDEST PUSH2 0xFFFF AND SWAP1 MSTORE POP PUSH1 0x20 DUP2 ADD DUP1 MLOAD PUSH1 0x1 SWAP2 SWAP1 PUSH3 0xD22 SWAP1 DUP4 SWAP1 PUSH3 0x11DA JUMP JUMPDEST PUSH2 0xFFFF AND SWAP1 MSTORE POP PUSH1 0x60 DUP2 ADD DUP1 MLOAD PUSH1 0x4B SWAP2 SWAP1 PUSH3 0xD40 SWAP1 DUP4 SWAP1 PUSH3 0x11DA JUMP JUMPDEST PUSH2 0xFFFF AND SWAP1 MSTORE POP JUMPDEST PUSH1 0x60 DUP2 ADD DUP1 MLOAD PUSH2 0xFFFF SWAP1 DUP2 AND PUSH1 0x80 DUP5 ADD SWAP1 DUP2 MSTORE PUSH1 0x0 DUP1 SLOAD PUSH1 0x1 DUP2 ADD DUP3 SSTORE DUP2 DUP1 MSTORE DUP6 MLOAD PUSH1 0x2 SWAP2 DUP3 MUL PUSH32 0x290DECD9548B62A8D60345A988386FC84BA6BC95484008F6362F93160EF3E563 ADD DUP1 SLOAD PUSH1 0x20 DUP10 ADD MLOAD PUSH1 0x40 DUP11 ADD MLOAD SWAP9 MLOAD SWAP7 MLOAD DUP9 AND PUSH9 0x10000000000000000 MUL PUSH2 0xFFFF PUSH1 0x40 SHL NOT SWAP8 DUP10 AND PUSH7 0x1000000000000 MUL PUSH2 0xFFFF PUSH1 0x30 SHL NOT SWAP11 DUP11 AND PUSH5 0x100000000 MUL PUSH2 0xFFFF PUSH1 0x20 SHL NOT SWAP4 DUP12 AND PUSH3 0x10000 MUL PUSH4 0xFFFF0000 NOT SWAP8 SWAP1 SWAP12 AND PUSH2 0xFFFF NOT SWAP1 SWAP6 AND SWAP5 SWAP1 SWAP5 OR SWAP6 SWAP1 SWAP6 AND SWAP9 SWAP1 SWAP9 OR AND OR SWAP7 SWAP1 SWAP7 AND OR SWAP3 SWAP1 SWAP3 AND SWAP3 SWAP1 SWAP3 OR DUP1 DUP5 SSTORE PUSH1 0xA0 DUP6 ADD MLOAD SWAP3 SWAP4 DUP6 SWAP4 SWAP1 SWAP3 SWAP1 SWAP2 DUP4 SWAP2 PUSH1 0xFF PUSH1 0x50 SHL NOT SWAP1 SWAP2 AND SWAP1 PUSH11 0x100000000000000000000 SWAP1 DUP5 SWAP1 DUP2 GT ISZERO PUSH3 0xE56 JUMPI PUSH4 0x4E487B71 PUSH1 0xE0 SHL PUSH1 0x0 MSTORE PUSH1 0x21 PUSH1 0x4 MSTORE PUSH1 0x24 PUSH1 0x0 REVERT JUMPDEST MUL OR SWAP1 SSTORE POP PUSH1 0xC0 DUP3 ADD MLOAD DUP1 MLOAD PUSH3 0xE78 SWAP2 PUSH1 0x1 DUP5 ADD SWAP2 PUSH1 0x20 SWAP1 SWAP2 ADD SWAP1 PUSH3 0xF9A JUMP JUMPDEST POP POP PUSH1 0x0 SLOAD ISZERO ISZERO SWAP1 POP PUSH3 0xEA0 JUMPI PUSH1 0x40 MLOAD PUSH3 0x461BCD PUSH1 0xE5 SHL DUP2 MSTORE PUSH1 0x4 ADD PUSH3 0x33D SWAP1 PUSH3 0x1185 JUMP JUMPDEST PUSH1 0x0 SLOAD PUSH3 0xEB1 SWAP1 PUSH1 0x1 SWAP1 PUSH3 0x1246 JUMP JUMPDEST PUSH1 0x0 DUP2 DUP2 MSTORE PUSH1 0x9 PUSH1 0x20 MSTORE PUSH1 0x40 SWAP1 KECCAK256 DUP1 SLOAD PUSH1 0xFF NOT AND PUSH1 0x3 OR SWAP1 SSTORE SWAP6 SWAP5 POP POP POP POP POP JUMP JUMPDEST PUSH1 0x0 DUP2 PUSH1 0x1 EQ ISZERO PUSH3 0xEE8 JUMPI POP PUSH1 0x1 PUSH3 0xF37 JUMP JUMPDEST DUP2 PUSH1 0x3 EQ ISZERO PUSH3 0xEFB JUMPI POP PUSH1 0x2 PUSH3 0xF37 JUMP JUMPDEST DUP2 PUSH1 0x5 EQ ISZERO PUSH3 0xF0E JUMPI POP PUSH1 0x3 PUSH3 0xF37 JUMP JUMPDEST DUP2 PUSH1 0x7 EQ ISZERO PUSH3 0xF21 JUMPI POP PUSH1 0x4 PUSH3 0xF37 JUMP JUMPDEST PUSH4 0x4E487B71 PUSH1 0xE0 SHL PUSH1 0x0 MSTORE PUSH1 0x1 PUSH1 0x4 MSTORE PUSH1 0x24 PUSH1 0x0 REVERT JUMPDEST SWAP2 SWAP1 POP JUMP JUMPDEST PUSH2 0xC2A DUP1 PUSH3 0x4E87 DUP4 CODECOPY ADD SWAP1 JUMP JUMPDEST DUP3 DUP1 SLOAD DUP3 DUP3 SSTORE SWAP1 PUSH1 0x0 MSTORE PUSH1 0x20 PUSH1 0x0 KECCAK256 SWAP1 DUP2 ADD SWAP3 DUP3 ISZERO PUSH3 0xF88 JUMPI SWAP2 PUSH1 0x20 MUL DUP3 ADD JUMPDEST DUP3 DUP2 GT ISZERO PUSH3 0xF88 JUMPI DUP3 MLOAD DUP3 SSTORE SWAP2 PUSH1 0x20 ADD SWAP2 SWAP1 PUSH1 0x1 ADD SWAP1 PUSH3 0xF6B JUMP JUMPDEST POP PUSH3 0xF96 SWAP3 SWAP2 POP PUSH3 0x1016 JUMP JUMPDEST POP SWAP1 JUMP JUMPDEST DUP3 DUP1 SLOAD PUSH3 0xFA8 SWAP1 PUSH3 0x1260 JUMP JUMPDEST SWAP1 PUSH1 0x0 MSTORE PUSH1 0x20 PUSH1 0x0 KECCAK256 SWAP1 PUSH1 0x1F ADD PUSH1 0x20 SWAP1 DIV DUP2 ADD SWAP3 DUP3 PUSH3 0xFCC JUMPI PUSH1 0x0 DUP6 SSTORE PUSH3 0xF88 JUMP JUMPDEST DUP3 PUSH1 0x1F LT PUSH3 0xFE7 JUMPI DUP1 MLOAD PUSH1 0xFF NOT AND DUP4 DUP1 ADD OR DUP6 SSTORE PUSH3 0xF88 JUMP JUMPDEST DUP3 DUP1 ADD PUSH1 0x1 ADD DUP6 SSTORE DUP3 ISZERO PUSH3 0xF88 JUMPI SWAP2 DUP3 ADD DUP3 DUP2 GT ISZERO PUSH3 0xF88 JUMPI DUP3 MLOAD DUP3 SSTORE SWAP2 PUSH1 0x20 ADD SWAP2 SWAP1 PUSH1 0x1 ADD SWAP1 PUSH3 0xF6B JUMP JUMPDEST JUMPDEST DUP1 DUP3 GT ISZERO PUSH3 0xF96 JUMPI PUSH1 0x0 DUP2 SSTORE PUSH1 0x1 ADD PUSH3 0x1017 JUMP JUMPDEST PUSH1 0x0 PUSH1 0x20 DUP3 DUP5 SUB SLT ISZERO PUSH3 0x103F JUMPI DUP1 DUP2 REVERT JUMPDEST DUP2 MLOAD DUP1 ISZERO ISZERO DUP2 EQ PUSH3 0x104F JUMPI DUP2 DUP3 REVERT JUMPDEST SWAP4 SWAP3 POP POP POP JUMP JUMPDEST PUSH1 0x1 PUSH1 0x1 PUSH1 0xA0 SHL SUB SWAP2 SWAP1 SWAP2 AND DUP2 MSTORE PUSH1 0x20 ADD SWAP1 JUMP JUMPDEST PUSH1 0x1 PUSH1 0x1 PUSH1 0xA0 SHL SUB SWAP3 SWAP1 SWAP3 AND DUP3 MSTORE PUSH1 0x20 DUP3 ADD MSTORE PUSH1 0x40 ADD SWAP1 JUMP JUMPDEST PUSH1 0x20 DUP1 DUP3 MSTORE PUSH1 0x15 SWAP1 DUP3 ADD MSTORE PUSH32 0x4E6F7420612076616C696420756E697420747970650000000000000000000000 PUSH1 0x40 DUP3 ADD MSTORE PUSH1 0x60 ADD SWAP1 JUMP JUMPDEST PUSH1 0x20 DUP1 DUP3 MSTORE PUSH1 0x16 SWAP1 DUP3 ADD MSTORE PUSH32 0x746F6F206D616E7920756E697473206372656174656400000000000000000000 PUSH1 0x40 DUP3 ADD MSTORE PUSH1 0x60 ADD SWAP1 JUMP JUMPDEST PUSH1 0x20 DUP1 DUP3 MSTORE PUSH1 0x18 SWAP1 DUP3 ADD MSTORE PUSH32 0x596F7520646F6E2774206F776E207468697320756E6974210000000000000000 PUSH1 0x40 DUP3 ADD MSTORE PUSH1 0x60 ADD SWAP1 JUMP JUMPDEST PUSH1 0x20 DUP1 DUP3 MSTORE PUSH1 0x17 SWAP1 DUP3 ADD MSTORE PUSH32 0x496E76616C6964206E756D626572206F6620756E697473000000000000000000 PUSH1 0x40 DUP3 ADD MSTORE PUSH1 0x60 ADD SWAP1 JUMP JUMPDEST PUSH1 0x20 DUP1 DUP3 MSTORE PUSH1 0xC SWAP1 DUP3 ADD MSTORE PUSH12 0x556E69742069732062757379 PUSH1 0xA0 SHL PUSH1 0x40 DUP3 ADD MSTORE PUSH1 0x60 ADD SWAP1 JUMP JUMPDEST PUSH1 0x20 DUP1 DUP3 MSTORE PUSH1 0x19 SWAP1 DUP3 ADD MSTORE PUSH32 0x756E6974732073686F756C64206E6F7420626520656D70747900000000000000 PUSH1 0x40 DUP3 ADD MSTORE PUSH1 0x60 ADD SWAP1 JUMP JUMPDEST PUSH1 0x20 DUP1 DUP3 MSTORE PUSH1 0x4 SWAP1 DUP3 ADD MSTORE PUSH4 0x686D6D6D PUSH1 0xE0 SHL PUSH1 0x40 DUP3 ADD MSTORE PUSH1 0x60 ADD SWAP1 JUMP JUMPDEST PUSH1 0x0 PUSH2 0xFFFF DUP1 DUP4 AND DUP2 DUP6 AND DUP1 DUP4 SUB DUP3 GT ISZERO PUSH3 0x11FA JUMPI PUSH3 0x11FA PUSH3 0x129D JUMP JUMPDEST ADD SWAP5 SWAP4 POP POP POP POP JUMP JUMPDEST PUSH1 0x0 DUP3 NOT DUP3 GT ISZERO PUSH3 0x1219 JUMPI PUSH3 0x1219 PUSH3 0x129D JUMP JUMPDEST POP ADD SWAP1 JUMP JUMPDEST PUSH1 0x0 PUSH1 0xFF DUP3 AND PUSH1 0xFF DUP5 AND DUP1 PUSH1 0xFF SUB DUP3 GT ISZERO PUSH3 0x123E JUMPI PUSH3 0x123E PUSH3 0x129D JUMP JUMPDEST ADD SWAP4 SWAP3 POP POP POP JUMP JUMPDEST PUSH1 0x0 DUP3 DUP3 LT ISZERO PUSH3 0x125B JUMPI PUSH3 0x125B PUSH3 0x129D JUMP JUMPDEST POP SUB SWAP1 JUMP JUMPDEST PUSH1 0x2 DUP2 DIV PUSH1 0x1 DUP3 AND DUP1 PUSH3 0x1275 JUMPI PUSH1 0x7F DUP3 AND SWAP2 POP JUMPDEST PUSH1 0x20 DUP3 LT DUP2 EQ ISZERO PUSH3 0x1297 JUMPI PUSH4 0x4E487B71 PUSH1 0xE0 SHL PUSH1 0x0 MSTORE PUSH1 0x22 PUSH1 0x4 MSTORE PUSH1 0x24 PUSH1 0x0 REVERT JUMPDEST POP SWAP2 SWAP1 POP JUMP JUMPDEST PUSH4 0x4E487B71 PUSH1 0xE0 SHL PUSH1 0x0 MSTORE PUSH1 0x11 PUSH1 0x4 MSTORE PUSH1 0x24 PUSH1 0x0 REVERT JUMPDEST PUSH2 0x3BC4 DUP1 PUSH3 0x12C3 PUSH1 0x0 CODECOPY PUSH1 0x0 RETURN INVALID PUSH1 0x80 PUSH1 0x40 MSTORE CALLVALUE DUP1 ISZERO PUSH2 0x10 JUMPI PUSH1 0x0 DUP1 REVERT JUMPDEST POP PUSH1 0x4 CALLDATASIZE LT PUSH2 0x180 JUMPI PUSH1 0x0 CALLDATALOAD PUSH1 0xE0 SHR DUP1 PUSH4 0x1FFC9A7 EQ PUSH2 0x185 JUMPI DUP1 PUSH4 0x6FDDE03 EQ PUSH2 0x1AE JUMPI DUP1 PUSH4 0x95EA7B3 EQ PUSH2 0x1C3 JUMPI DUP1 PUSH4 0x17DC6BF6 EQ PUSH2 0x1D8 JUMPI DUP1 PUSH4 0x18160DDD EQ PUSH2 0x1FD JUMPI DUP1 PUSH4 0x198B367D EQ PUSH2 0x212 JUMPI DUP1 PUSH4 0x23B872DD EQ PUSH2 0x220 JUMPI DUP1 PUSH4 0x27E78202 EQ PUSH2 0x233 JUMPI DUP1 PUSH4 0x313DE62B EQ PUSH2 0x246 JUMPI DUP1 PUSH4 0x40B53391 EQ PUSH2 0x266 JUMPI DUP1 PUSH4 0x598647F8 EQ PUSH2 0x279 JUMPI DUP1 PUSH4 0x6352211E EQ PUSH2 0x28C JUMPI DUP1 PUSH4 0x64E0B81F EQ PUSH2 0x29F JUMPI DUP1 PUSH4 0x70A08231 EQ PUSH2 0x2BF JUMPI DUP1 PUSH4 0x76D4FC57 EQ PUSH2 0x2D2 JUMPI DUP1 PUSH4 0x8462151C EQ PUSH2 0x2E5 JUMPI DUP1 PUSH4 0x863858DE EQ PUSH2 0x2F8 JUMPI DUP1 PUSH4 0x898F4299 EQ PUSH2 0x30B JUMPI DUP1 PUSH4 0x95D89B41 EQ PUSH2 0x31E JUMPI DUP1 PUSH4 0x99975226 EQ PUSH2 0x326 JUMPI DUP1 PUSH4 0xA49955BE EQ PUSH2 0x32E JUMPI DUP1 PUSH4 0xA9059CBB EQ PUSH2 0x34E JUMPI DUP1 PUSH4 0xA98E99B1 EQ PUSH2 0x361 JUMPI DUP1 PUSH4 0xB5FC9833 EQ PUSH2 0x374 JUMPI DUP1 PUSH4 0xD1454521 EQ PUSH2 0x387 JUMPI DUP1 PUSH4 0xD9BD982A EQ PUSH2 0x38F JUMPI DUP1 PUSH4 0xDBA7F943 EQ PUSH2 0x3A2 JUMPI DUP1 PUSH4 0xDD481246 EQ PUSH2 0x3B5 JUMPI DUP1 PUSH4 0xDE1EECC9 EQ PUSH2 0x3C8 JUMPI DUP1 PUSH4 0xE380497D EQ PUSH2 0x3EC JUMPI DUP1 PUSH4 0xE56053EB EQ PUSH2 0x3FF JUMPI DUP1 PUSH4 0xE5FBA6CC EQ PUSH2 0x412 JUMPI JUMPDEST PUSH1 0x0 DUP1 REVERT JUMPDEST PUSH2 0x198 PUSH2 0x193 CALLDATASIZE PUSH1 0x4 PUSH2 0x33FD JUMP JUMPDEST PUSH2 0x438 JUMP JUMPDEST PUSH1 0x40 MLOAD PUSH2 0x1A5 SWAP2 SWAP1 PUSH2 0x3617 JUMP JUMPDEST PUSH1 0x40 MLOAD DUP1 SWAP2 SUB SWAP1 RETURN JUMPDEST PUSH2 0x1B6 PUSH2 0x43E JUMP JUMPDEST PUSH1 0x40 MLOAD PUSH2 0x1A5 SWAP2 SWAP1 PUSH2 0x3635 JUMP JUMPDEST PUSH2 0x1D6 PUSH2 0x1D1 CALLDATASIZE PUSH1 0x4 PUSH2 0x332C JUMP JUMPDEST PUSH2 0x46C JUMP JUMPDEST STOP JUMPDEST PUSH2 0x1EB PUSH2 0x1E6 CALLDATASIZE PUSH1 0x4 PUSH2 0x34AE JUMP JUMPDEST PUSH2 0x5DA JUMP JUMPDEST PUSH1 0x40 MLOAD PUSH2 0x1A5 SWAP7 SWAP6 SWAP5 SWAP4 SWAP3 SWAP2 SWAP1 PUSH2 0x3967 JUMP JUMPDEST PUSH2 0x205 PUSH2 0x740 JUMP JUMPDEST PUSH1 0x40 MLOAD PUSH2 0x1A5 SWAP2 SWAP1 PUSH2 0x395E JUMP JUMPDEST PUSH2 0x198 PUSH2 0x193 CALLDATASIZE PUSH1 0x4 PUSH2 0x34AE JUMP JUMPDEST PUSH2 0x1D6 PUSH2 0x22E CALLDATASIZE PUSH1 0x4 PUSH2 0x32F1 JUMP JUMPDEST PUSH2 0x746 JUMP JUMPDEST PUSH2 0x205 PUSH2 0x241 CALLDATASIZE PUSH1 0x4 PUSH2 0x3444 JUMP JUMPDEST PUSH2 0x876 JUMP JUMPDEST PUSH2 0x259 PUSH2 0x254 CALLDATASIZE PUSH1 0x4 PUSH2 0x34AE JUMP JUMPDEST PUSH2 0x8B8 JUMP JUMPDEST PUSH1 0x40 MLOAD PUSH2 0x1A5 SWAP2 SWAP1 PUSH2 0x3582 JUMP JUMPDEST PUSH2 0x198 PUSH2 0x274 CALLDATASIZE PUSH1 0x4 PUSH2 0x3394 JUMP JUMPDEST PUSH2 0x8D3 JUMP JUMPDEST PUSH2 0x198 PUSH2 0x287 CALLDATASIZE PUSH1 0x4 PUSH2 0x34C6 JUMP JUMPDEST PUSH2 0xB52 JUMP JUMPDEST PUSH2 0x259 PUSH2 0x29A CALLDATASIZE PUSH1 0x4 PUSH2 0x34AE JUMP JUMPDEST PUSH2 0xE8A JUMP JUMPDEST PUSH2 0x2B2 PUSH2 0x2AD CALLDATASIZE PUSH1 0x4 PUSH2 0x3425 JUMP JUMPDEST PUSH2 0xEA5 JUMP JUMPDEST PUSH1 0x40 MLOAD PUSH2 0x1A5 SWAP2 SWAP1 PUSH2 0x35D3 JUMP JUMPDEST PUSH2 0x205 PUSH2 0x2CD CALLDATASIZE PUSH1 0x4 PUSH2 0x32D0 JUMP JUMPDEST PUSH2 0xF4E JUMP JUMPDEST PUSH2 0x198 PUSH2 0x2E0 CALLDATASIZE PUSH1 0x4 PUSH2 0x34E7 JUMP JUMPDEST PUSH2 0xF69 JUMP JUMPDEST PUSH2 0x2B2 PUSH2 0x2F3 CALLDATASIZE PUSH1 0x4 PUSH2 0x32D0 JUMP JUMPDEST PUSH2 0xFDC JUMP JUMPDEST PUSH2 0x205 PUSH2 0x306 CALLDATASIZE PUSH1 0x4 PUSH2 0x332C JUMP JUMPDEST PUSH2 0x1046 JUMP JUMPDEST PUSH2 0x205 PUSH2 0x319 CALLDATASIZE PUSH1 0x4 PUSH2 0x345E JUMP JUMPDEST PUSH2 0x1077 JUMP JUMPDEST PUSH2 0x1B6 PUSH2 0x10C2 JUMP JUMPDEST PUSH2 0x259 PUSH2 0x10E2 JUMP JUMPDEST PUSH2 0x341 PUSH2 0x33C CALLDATASIZE PUSH1 0x4 PUSH2 0x34AE JUMP JUMPDEST PUSH2 0x10F1 JUMP JUMPDEST PUSH1 0x40 MLOAD PUSH2 0x1A5 SWAP2 SWAP1 PUSH2 0x3622 JUMP JUMPDEST PUSH2 0x1D6 PUSH2 0x35C CALLDATASIZE PUSH1 0x4 PUSH2 0x332C JUMP JUMPDEST PUSH2 0x1106 JUMP JUMPDEST PUSH2 0x259 PUSH2 0x36F CALLDATASIZE PUSH1 0x4 PUSH2 0x34AE JUMP JUMPDEST PUSH2 0x11FC JUMP JUMPDEST PUSH2 0x198 PUSH2 0x382 CALLDATASIZE PUSH1 0x4 PUSH2 0x34AE JUMP JUMPDEST PUSH2 0x1217 JUMP JUMPDEST PUSH2 0x259 PUSH2 0x14F4 JUMP JUMPDEST PUSH2 0x259 PUSH2 0x39D CALLDATASIZE PUSH1 0x4 PUSH2 0x34AE JUMP JUMPDEST PUSH2 0x1503 JUMP JUMPDEST PUSH2 0x205 PUSH2 0x3B0 CALLDATASIZE PUSH1 0x4 PUSH2 0x3355 JUMP JUMPDEST PUSH2 0x151E JUMP JUMPDEST PUSH2 0x205 PUSH2 0x3C3 CALLDATASIZE PUSH1 0x4 PUSH2 0x34AE JUMP JUMPDEST PUSH2 0x15DC JUMP JUMPDEST PUSH2 0x3DB PUSH2 0x3D6 CALLDATASIZE PUSH1 0x4 PUSH2 0x34AE JUMP JUMPDEST PUSH2 0x15EE JUMP JUMPDEST PUSH1 0x40 MLOAD PUSH2 0x1A5 SWAP6 SWAP5 SWAP4 SWAP3 SWAP2 SWAP1 PUSH2 0x39BF JUMP JUMPDEST PUSH2 0x205 PUSH2 0x3FA CALLDATASIZE PUSH1 0x4 PUSH2 0x32D0 JUMP JUMPDEST PUSH2 0x1645 JUMP JUMPDEST PUSH2 0x205 PUSH2 0x40D CALLDATASIZE PUSH1 0x4 PUSH2 0x3394 JUMP JUMPDEST PUSH2 0x1657 JUMP JUMPDEST PUSH2 0x425 PUSH2 0x420 CALLDATASIZE PUSH1 0x4 PUSH2 0x34AE JUMP JUMPDEST PUSH2 0x1718 JUMP JUMPDEST PUSH1 0x40 MLOAD PUSH2 0x1A5 SWAP8 SWAP7 SWAP6 SWAP5 SWAP4 SWAP3 SWAP2 SWAP1 PUSH2 0x38FE JUMP JUMPDEST POP PUSH1 0x0 SWAP1 JUMP JUMPDEST PUSH1 0x40 DUP1 MLOAD DUP1 DUP3 ADD SWAP1 SWAP2 MSTORE PUSH1 0x14 DUP2 MSTORE PUSH20 0x20BABA37A1B432B9B9902AB734BA102A37B5B2B7 PUSH1 0x61 SHL PUSH1 0x20 DUP3 ADD MSTORE SWAP1 JUMP JUMPDEST CALLER DUP3 DUP3 PUSH2 0x478 DUP2 PUSH2 0xE8A JUMP JUMPDEST PUSH1 0x1 PUSH1 0x1 PUSH1 0xA0 SHL SUB AND DUP4 PUSH1 0x1 PUSH1 0x1 PUSH1 0xA0 SHL SUB AND EQ PUSH2 0x4B1 JUMPI PUSH1 0x40 MLOAD PUSH3 0x461BCD PUSH1 0xE5 SHL DUP2 MSTORE PUSH1 0x4 ADD PUSH2 0x4A8 SWAP1 PUSH2 0x38A0 JUMP JUMPDEST PUSH1 0x40 MLOAD DUP1 SWAP2 SUB SWAP1 REVERT JUMPDEST DUP2 PUSH1 0x1 PUSH1 0x1 PUSH1 0xA0 SHL SUB AND DUP4 PUSH1 0x1 PUSH1 0x1 PUSH1 0xA0 SHL SUB AND EQ ISZERO PUSH2 0x4E3 JUMPI PUSH1 0x40 MLOAD PUSH3 0x461BCD PUSH1 0xE5 SHL DUP2 MSTORE PUSH1 0x4 ADD PUSH2 0x4A8 SWAP1 PUSH2 0x3704 JUMP JUMPDEST PUSH1 0x3 PUSH1 0x0 DUP3 DUP2 MSTORE PUSH1 0x9 PUSH1 0x20 MSTORE PUSH1 0x40 SWAP1 KECCAK256 SLOAD PUSH1 0xFF AND PUSH1 0x4 DUP2 GT ISZERO PUSH2 0x516 JUMPI PUSH4 0x4E487B71 PUSH1 0xE0 SHL PUSH1 0x0 MSTORE PUSH1 0x21 PUSH1 0x4 MSTORE PUSH1 0x24 PUSH1 0x0 REVERT JUMPDEST EQ PUSH2 0x533 JUMPI PUSH1 0x40 MLOAD PUSH3 0x461BCD PUSH1 0xE5 SHL DUP2 MSTORE PUSH1 0x4 ADD PUSH2 0x4A8 SWAP1 PUSH2 0x38D1 JUMP JUMPDEST PUSH1 0x1 PUSH1 0x1 PUSH1 0xA0 SHL SUB DUP3 AND PUSH2 0x559 JUMPI PUSH1 0x40 MLOAD PUSH3 0x461BCD PUSH1 0xE5 SHL DUP2 MSTORE PUSH1 0x4 ADD PUSH2 0x4A8 SWAP1 PUSH2 0x37F7 JUMP JUMPDEST PUSH1 0x0 DUP5 DUP2 MSTORE PUSH1 0x8 PUSH1 0x20 SWAP1 DUP2 MSTORE PUSH1 0x40 DUP1 DUP4 KECCAK256 DUP1 SLOAD PUSH1 0x1 PUSH1 0x1 PUSH1 0xA0 SHL SUB DUP11 AND PUSH1 0x1 PUSH1 0x1 PUSH1 0xA0 SHL SUB NOT SWAP1 SWAP2 AND OR SWAP1 SSTORE PUSH1 0x9 SWAP1 SWAP2 MSTORE SWAP1 DUP2 SWAP1 KECCAK256 DUP1 SLOAD PUSH1 0xFF NOT AND PUSH1 0x4 OR SWAP1 SSTORE MLOAD PUSH32 0x8C5BE1E5EBEC7D5BD14F71427D1E84F3DD0314C0F7B2291E5B200AC8C7C3B925 SWAP1 PUSH2 0x5CB SWAP1 CALLER SWAP1 DUP9 SWAP1 DUP9 SWAP1 PUSH2 0x3596 JUMP JUMPDEST PUSH1 0x40 MLOAD DUP1 SWAP2 SUB SWAP1 LOG1 POP POP POP POP POP JUMP JUMPDEST PUSH1 0xE DUP2 DUP2 SLOAD DUP2 LT PUSH2 0x5EA JUMPI PUSH1 0x0 DUP1 REVERT JUMPDEST PUSH1 0x0 SWAP2 DUP3 MSTORE PUSH1 0x20 SWAP1 SWAP2 KECCAK256 PUSH1 0x7 SWAP1 SWAP2 MUL ADD DUP1 SLOAD PUSH1 0x2 DUP3 ADD SLOAD PUSH1 0x3 DUP4 ADD SLOAD PUSH1 0x4 DUP5 ADD DUP1 SLOAD SWAP4 SWAP6 POP PUSH1 0x1 PUSH1 0x1 PUSH1 0xA0 SHL SUB SWAP3 DUP4 AND SWAP5 SWAP3 SWAP1 SWAP2 AND SWAP3 PUSH2 0x629 SWAP1 PUSH2 0x3AB9 JUMP JUMPDEST DUP1 PUSH1 0x1F ADD PUSH1 0x20 DUP1 SWAP2 DIV MUL PUSH1 0x20 ADD PUSH1 0x40 MLOAD SWAP1 DUP2 ADD PUSH1 0x40 MSTORE DUP1 SWAP3 SWAP2 SWAP1 DUP2 DUP2 MSTORE PUSH1 0x20 ADD DUP3 DUP1 SLOAD PUSH2 0x655 SWAP1 PUSH2 0x3AB9 JUMP JUMPDEST DUP1 ISZERO PUSH2 0x6A2 JUMPI DUP1 PUSH1 0x1F LT PUSH2 0x677 JUMPI PUSH2 0x100 DUP1 DUP4 SLOAD DIV MUL DUP4 MSTORE SWAP2 PUSH1 0x20 ADD SWAP2 PUSH2 0x6A2 JUMP JUMPDEST DUP3 ADD SWAP2 SWAP1 PUSH1 0x0 MSTORE PUSH1 0x20 PUSH1 0x0 KECCAK256 SWAP1 JUMPDEST DUP2 SLOAD DUP2 MSTORE SWAP1 PUSH1 0x1 ADD SWAP1 PUSH1 0x20 ADD DUP1 DUP4 GT PUSH2 0x685 JUMPI DUP3 SWAP1 SUB PUSH1 0x1F AND DUP3 ADD SWAP2 JUMPDEST POP POP POP POP POP SWAP1 DUP1 PUSH1 0x5 ADD DUP1 SLOAD PUSH2 0x6B7 SWAP1 PUSH2 0x3AB9 JUMP JUMPDEST DUP1 PUSH1 0x1F ADD PUSH1 0x20 DUP1 SWAP2 DIV MUL PUSH1 0x20 ADD PUSH1 0x40 MLOAD SWAP1 DUP2 ADD PUSH1 0x40 MSTORE DUP1 SWAP3 SWAP2 SWAP1 DUP2 DUP2 MSTORE PUSH1 0x20 ADD DUP3 DUP1 SLOAD PUSH2 0x6E3 SWAP1 PUSH2 0x3AB9 JUMP JUMPDEST DUP1 ISZERO PUSH2 0x730 JUMPI DUP1 PUSH1 0x1F LT PUSH2 0x705 JUMPI PUSH2 0x100 DUP1 DUP4 SLOAD DIV MUL DUP4 MSTORE SWAP2 PUSH1 0x20 ADD SWAP2 PUSH2 0x730 JUMP JUMPDEST DUP3 ADD SWAP2 SWAP1 PUSH1 0x0 MSTORE PUSH1 0x20 PUSH1 0x0 KECCAK256 SWAP1 JUMPDEST DUP2 SLOAD DUP2 MSTORE SWAP1 PUSH1 0x1 ADD SWAP1 PUSH1 0x20 ADD DUP1 DUP4 GT PUSH2 0x713 JUMPI DUP3 SWAP1 SUB PUSH1 0x1F AND DUP3 ADD SWAP2 JUMPDEST POP POP POP POP POP SWAP1 DUP1 PUSH1 0x6 ADD SLOAD SWAP1 POP DUP7 JUMP JUMPDEST PUSH1 0xB SLOAD SWAP1 JUMP JUMPDEST DUP3 DUP3 DUP3 PUSH2 0x752 DUP2 PUSH2 0xE8A JUMP JUMPDEST PUSH1 0x1 PUSH1 0x1 PUSH1 0xA0 SHL SUB AND DUP4 PUSH1 0x1 PUSH1 0x1 PUSH1 0xA0 SHL SUB AND EQ PUSH2 0x782 JUMPI PUSH1 0x40 MLOAD PUSH3 0x461BCD PUSH1 0xE5 SHL DUP2 MSTORE PUSH1 0x4 ADD PUSH2 0x4A8 SWAP1 PUSH2 0x38A0 JUMP JUMPDEST DUP2 PUSH1 0x1 PUSH1 0x1 PUSH1 0xA0 SHL SUB AND DUP4 PUSH1 0x1 PUSH1 0x1 PUSH1 0xA0 SHL SUB AND EQ ISZERO PUSH2 0x7B4 JUMPI PUSH1 0x40 MLOAD PUSH3 0x461BCD PUSH1 0xE5 SHL DUP2 MSTORE PUSH1 0x4 ADD PUSH2 0x4A8 SWAP1 PUSH2 0x3704 JUMP JUMPDEST PUSH1 0x3 PUSH1 0x0 DUP3 DUP2 MSTORE PUSH1 0x9 PUSH1 0x20 MSTORE PUSH1 0x40 SWAP1 KECCAK256 SLOAD PUSH1 0xFF AND PUSH1 0x4 DUP2 GT ISZERO PUSH2 0x7E7 JUMPI PUSH4 0x4E487B71 PUSH1 0xE0 SHL PUSH1 0x0 MSTORE PUSH1 0x21 PUSH1 0x4 MSTORE PUSH1 0x24 PUSH1 0x0 REVERT JUMPDEST EQ PUSH2 0x804 JUMPI PUSH1 0x40 MLOAD PUSH3 0x461BCD PUSH1 0xE5 SHL DUP2 MSTORE PUSH1 0x4 ADD PUSH2 0x4A8 SWAP1 PUSH2 0x38D1 JUMP JUMPDEST PUSH1 0x1 PUSH1 0x1 PUSH1 0xA0 SHL SUB DUP3 AND PUSH2 0x82A JUMPI PUSH1 0x40 MLOAD PUSH3 0x461BCD PUSH1 0xE5 SHL DUP2 MSTORE PUSH1 0x4 ADD PUSH2 0x4A8 SWAP1 PUSH2 0x37F7 JUMP JUMPDEST PUSH1 0x0 DUP5 DUP2 MSTORE PUSH1 0x8 PUSH1 0x20 MSTORE PUSH1 0x40 SWAP1 KECCAK256 SLOAD PUSH1 0x1 PUSH1 0x1 PUSH1 0xA0 SHL SUB DUP7 DUP2 AND SWAP2 AND EQ PUSH2 0x863 JUMPI PUSH1 0x40 MLOAD PUSH3 0x461BCD PUSH1 0xE5 SHL DUP2 MSTORE PUSH1 0x4 ADD PUSH2 0x4A8 SWAP1 PUSH2 0x382C JUMP JUMPDEST PUSH2 0x86E DUP7 DUP7 DUP7 PUSH2 0x1809 JUMP JUMPDEST POP POP POP POP POP POP JUMP JUMPDEST PUSH1 0x0 PUSH2 0x8B0 CALLER DUP4 PUSH1 0x40 MLOAD DUP1 PUSH1 0x40 ADD PUSH1 0x40 MSTORE DUP1 PUSH1 0x15 DUP2 MSTORE PUSH1 0x20 ADD PUSH21 0x4D6175726963652C20746865204D6564696F637265 PUSH1 0x58 SHL DUP2 MSTORE POP PUSH2 0x18E6 JUMP JUMPDEST SWAP1 POP JUMPDEST SWAP2 SWAP1 POP JUMP JUMPDEST PUSH1 0x6 PUSH1 0x20 MSTORE PUSH1 0x0 SWAP1 DUP2 MSTORE PUSH1 0x40 SWAP1 KECCAK256 SLOAD PUSH1 0x1 PUSH1 0x1 PUSH1 0xA0 SHL SUB AND DUP2 JUMP JUMPDEST PUSH1 0x0 PUSH1 0xE PUSH1 0x40 MLOAD DUP1 PUSH1 0xE0 ADD PUSH1 0x40 MSTORE DUP1 DUP5 DUP2 MSTORE PUSH1 0x20 ADD PUSH1 0x0 PUSH1 0x1 PUSH1 0x1 PUSH1 0x40 SHL SUB DUP2 GT ISZERO PUSH2 0x90F JUMPI PUSH4 0x4E487B71 PUSH1 0xE0 SHL PUSH1 0x0 MSTORE PUSH1 0x41 PUSH1 0x4 MSTORE PUSH1 0x24 PUSH1 0x0 REVERT JUMPDEST PUSH1 0x40 MLOAD SWAP1 DUP1 DUP3 MSTORE DUP1 PUSH1 0x20 MUL PUSH1 0x20 ADD DUP3 ADD PUSH1 0x40 MSTORE DUP1 ISZERO PUSH2 0x938 JUMPI DUP2 PUSH1 0x20 ADD PUSH1 0x20 DUP3 MUL DUP1 CALLDATASIZE DUP4 CALLDATACOPY ADD SWAP1 POP JUMPDEST POP DUP2 MSTORE PUSH1 0x20 ADD CALLER PUSH1 0x1 PUSH1 0x1 PUSH1 0xA0 SHL SUB AND DUP2 MSTORE PUSH1 0x20 ADD CALLER PUSH1 0x1 PUSH1 0x1 PUSH1 0xA0 SHL SUB AND DUP2 MSTORE PUSH1 0x20 ADD PUSH1 0x40 MLOAD DUP1 PUSH1 0x40 ADD PUSH1 0x40 MSTORE DUP1 PUSH1 0xB DUP2 MSTORE PUSH1 0x20 ADD PUSH11 0x282620A1A2A427A62222A9 PUSH1 0xA9 SHL DUP2 MSTORE POP DUP2 MSTORE PUSH1 0x20 ADD PUSH1 0x40 MLOAD DUP1 PUSH1 0x40 ADD PUSH1 0x40 MSTORE DUP1 PUSH1 0xB DUP2 MSTORE PUSH1 0x20 ADD PUSH11 0x111959985D5B1D08109A59 PUSH1 0xAA SHL DUP2 MSTORE POP DUP2 MSTORE PUSH1 0x20 ADD TIMESTAMP PUSH2 0xE10 PUSH2 0x9BC SWAP2 SWAP1 PUSH2 0x3A25 JUMP JUMPDEST SWAP1 MSTORE DUP2 SLOAD PUSH1 0x1 DUP2 DUP2 ADD DUP5 SSTORE PUSH1 0x0 SWAP4 DUP5 MSTORE PUSH1 0x20 SWAP4 DUP5 SWAP1 KECCAK256 DUP4 MLOAD PUSH1 0x7 SWAP1 SWAP4 MUL ADD SWAP2 DUP3 SSTORE DUP4 DUP4 ADD MLOAD DUP1 MLOAD SWAP4 SWAP5 SWAP3 SWAP4 PUSH2 0x9F9 SWAP4 SWAP3 DUP6 ADD SWAP3 SWAP2 SWAP1 SWAP2 ADD SWAP1 PUSH2 0x30A6 JUMP JUMPDEST POP PUSH1 0x40 DUP3 ADD MLOAD PUSH1 0x2 DUP3 ADD DUP1 SLOAD PUSH1 0x1 PUSH1 0x1 PUSH1 0xA0 SHL SUB SWAP3 DUP4 AND PUSH1 0x1 PUSH1 0x1 PUSH1 0xA0 SHL SUB NOT SWAP2 DUP3 AND OR SWAP1 SWAP2 SSTORE PUSH1 0x60 DUP5 ADD MLOAD PUSH1 0x3 DUP5 ADD DUP1 SLOAD SWAP2 SWAP1 SWAP4 AND SWAP2 AND OR SWAP1 SSTORE PUSH1 0x80 DUP3 ADD MLOAD DUP1 MLOAD PUSH2 0xA4F SWAP2 PUSH1 0x4 DUP5 ADD SWAP2 PUSH1 0x20 SWAP1 SWAP2 ADD SWAP1 PUSH2 0x30F1 JUMP JUMPDEST POP PUSH1 0xA0 DUP3 ADD MLOAD DUP1 MLOAD PUSH2 0xA6B SWAP2 PUSH1 0x5 DUP5 ADD SWAP2 PUSH1 0x20 SWAP1 SWAP2 ADD SWAP1 PUSH2 0x30F1 JUMP JUMPDEST POP PUSH1 0xC0 DUP3 ADD MLOAD DUP2 PUSH1 0x6 ADD SSTORE POP POP PUSH1 0x0 JUMPDEST DUP4 DUP2 LT ISZERO PUSH2 0xB47 JUMPI PUSH2 0xAB4 CALLER ADDRESS DUP8 DUP8 DUP6 DUP2 DUP2 LT PUSH2 0xAA8 JUMPI PUSH4 0x4E487B71 PUSH1 0xE0 SHL PUSH1 0x0 MSTORE PUSH1 0x32 PUSH1 0x4 MSTORE PUSH1 0x24 PUSH1 0x0 REVERT JUMPDEST SWAP1 POP PUSH1 0x20 MUL ADD CALLDATALOAD PUSH2 0x1809 JUMP JUMPDEST PUSH1 0xE DUP1 SLOAD PUSH2 0xAC4 SWAP1 PUSH1 0x1 SWAP1 PUSH2 0x3A85 JUMP JUMPDEST DUP2 SLOAD DUP2 LT PUSH2 0xAE2 JUMPI PUSH4 0x4E487B71 PUSH1 0xE0 SHL PUSH1 0x0 MSTORE PUSH1 0x32 PUSH1 0x4 MSTORE PUSH1 0x24 PUSH1 0x0 REVERT JUMPDEST SWAP1 PUSH1 0x0 MSTORE PUSH1 0x20 PUSH1 0x0 KECCAK256 SWAP1 PUSH1 0x7 MUL ADD PUSH1 0x1 ADD DUP6 DUP6 DUP4 DUP2 DUP2 LT PUSH2 0xB13 JUMPI PUSH4 0x4E487B71 PUSH1 0xE0 SHL PUSH1 0x0 MSTORE PUSH1 0x32 PUSH1 0x4 MSTORE PUSH1 0x24 PUSH1 0x0 REVERT JUMPDEST DUP4 SLOAD PUSH1 0x1 DUP2 ADD DUP6 SSTORE PUSH1 0x0 SWAP5 DUP6 MSTORE PUSH1 0x20 SWAP5 DUP6 SWAP1 KECCAK256 SWAP2 SWAP1 SWAP5 MUL SWAP3 SWAP1 SWAP3 ADD CALLDATALOAD SWAP2 SWAP1 SWAP3 ADD SSTORE POP DUP1 PUSH2 0xB3F DUP2 PUSH2 0x3AF4 JUMP JUMPDEST SWAP2 POP POP PUSH2 0xA7B JUMP JUMPDEST POP PUSH1 0x1 SWAP5 SWAP4 POP POP POP POP JUMP JUMPDEST PUSH1 0x0 DUP1 PUSH1 0xE DUP5 DUP2 SLOAD DUP2 LT PUSH2 0xB76 JUMPI PUSH4 0x4E487B71 PUSH1 0xE0 SHL PUSH1 0x0 MSTORE PUSH1 0x32 PUSH1 0x4 MSTORE PUSH1 0x24 PUSH1 0x0 REVERT JUMPDEST SWAP1 PUSH1 0x0 MSTORE PUSH1 0x20 PUSH1 0x0 KECCAK256 SWAP1 PUSH1 0x7 MUL ADD PUSH1 0x40 MLOAD DUP1 PUSH1 0xE0 ADD PUSH1 0x40 MSTORE SWAP1 DUP2 PUSH1 0x0 DUP3 ADD SLOAD DUP2 MSTORE PUSH1 0x20 ADD PUSH1 0x1 DUP3 ADD DUP1 SLOAD DUP1 PUSH1 0x20 MUL PUSH1 0x20 ADD PUSH1 0x40 MLOAD SWAP1 DUP2 ADD PUSH1 0x40 MSTORE DUP1 SWAP3 SWAP2 SWAP1 DUP2 DUP2 MSTORE PUSH1 0x20 ADD DUP3 DUP1 SLOAD DUP1 ISZERO PUSH2 0xBE8 JUMPI PUSH1 0x20 MUL DUP3 ADD SWAP2 SWAP1 PUSH1 0x0 MSTORE PUSH1 0x20 PUSH1 0x0 KECCAK256 SWAP1 JUMPDEST DUP2 SLOAD DUP2 MSTORE PUSH1 0x20 ADD SWAP1 PUSH1 0x1 ADD SWAP1 DUP1 DUP4 GT PUSH2 0xBD4 JUMPI JUMPDEST POP POP POP SWAP2 DUP4 MSTORE POP POP PUSH1 0x2 DUP3 ADD SLOAD PUSH1 0x1 PUSH1 0x1 PUSH1 0xA0 SHL SUB SWAP1 DUP2 AND PUSH1 0x20 DUP4 ADD MSTORE PUSH1 0x3 DUP4 ADD SLOAD AND PUSH1 0x40 DUP3 ADD MSTORE PUSH1 0x4 DUP3 ADD DUP1 SLOAD PUSH1 0x60 SWAP1 SWAP3 ADD SWAP2 PUSH2 0xC25 SWAP1 PUSH2 0x3AB9 JUMP JUMPDEST DUP1 PUSH1 0x1F ADD PUSH1 0x20 DUP1 SWAP2 DIV MUL PUSH1 0x20 ADD PUSH1 0x40 MLOAD SWAP1 DUP2 ADD PUSH1 0x40 MSTORE DUP1 SWAP3 SWAP2 SWAP1 DUP2 DUP2 MSTORE PUSH1 0x20 ADD DUP3 DUP1 SLOAD PUSH2 0xC51 SWAP1 PUSH2 0x3AB9 JUMP JUMPDEST DUP1 ISZERO PUSH2 0xC9E JUMPI DUP1 PUSH1 0x1F LT PUSH2 0xC73 JUMPI PUSH2 0x100 DUP1 DUP4 SLOAD DIV MUL DUP4 MSTORE SWAP2 PUSH1 0x20 ADD SWAP2 PUSH2 0xC9E JUMP JUMPDEST DUP3 ADD SWAP2 SWAP1 PUSH1 0x0 MSTORE PUSH1 0x20 PUSH1 0x0 KECCAK256 SWAP1 JUMPDEST DUP2 SLOAD DUP2 MSTORE SWAP1 PUSH1 0x1 ADD SWAP1 PUSH1 0x20 ADD DUP1 DUP4 GT PUSH2 0xC81 JUMPI DUP3 SWAP1 SUB PUSH1 0x1F AND DUP3 ADD SWAP2 JUMPDEST POP POP POP POP POP DUP2 MSTORE PUSH1 0x20 ADD PUSH1 0x5 DUP3 ADD DUP1 SLOAD PUSH2 0xCB7 SWAP1 PUSH2 0x3AB9 JUMP JUMPDEST DUP1 PUSH1 0x1F ADD PUSH1 0x20 DUP1 SWAP2 DIV MUL PUSH1 0x20 ADD PUSH1 0x40 MLOAD SWAP1 DUP2 ADD PUSH1 0x40 MSTORE DUP1 SWAP3 SWAP2 SWAP1 DUP2 DUP2 MSTORE PUSH1 0x20 ADD DUP3 DUP1 SLOAD PUSH2 0xCE3 SWAP1 PUSH2 0x3AB9 JUMP JUMPDEST DUP1 ISZERO PUSH2 0xD30 JUMPI DUP1 PUSH1 0x1F LT PUSH2 0xD05 JUMPI PUSH2 0x100 DUP1 DUP4 SLOAD DIV MUL DUP4 MSTORE SWAP2 PUSH1 0x20 ADD SWAP2 PUSH2 0xD30 JUMP JUMPDEST DUP3 ADD SWAP2 SWAP1 PUSH1 0x0 MSTORE PUSH1 0x20 PUSH1 0x0 KECCAK256 SWAP1 JUMPDEST DUP2 SLOAD DUP2 MSTORE SWAP1 PUSH1 0x1 ADD SWAP1 PUSH1 0x20 ADD DUP1 DUP4 GT PUSH2 0xD13 JUMPI DUP3 SWAP1 SUB PUSH1 0x1F AND DUP3 ADD SWAP2 JUMPDEST POP POP POP POP POP DUP2 MSTORE PUSH1 0x20 ADD PUSH1 0x6 DUP3 ADD SLOAD DUP2 MSTORE POP POP SWAP1 POP DUP1 PUSH1 0x0 ADD MLOAD DUP4 GT PUSH2 0xD68 JUMPI PUSH1 0x40 MLOAD PUSH3 0x461BCD PUSH1 0xE5 SHL DUP2 MSTORE PUSH1 0x4 ADD PUSH2 0x4A8 SWAP1 PUSH2 0x379A JUMP JUMPDEST PUSH1 0xD SLOAD PUSH1 0x40 MLOAD PUSH4 0xABB8D5C3 PUSH1 0xE0 SHL DUP2 MSTORE PUSH1 0x1 PUSH1 0x1 PUSH1 0xA0 SHL SUB SWAP1 SWAP2 AND SWAP1 PUSH4 0xABB8D5C3 SWAP1 PUSH2 0xD9A SWAP1 CALLER SWAP1 DUP8 SWAP1 PUSH1 0x4 ADD PUSH2 0x35BA JUMP JUMPDEST PUSH1 0x20 PUSH1 0x40 MLOAD DUP1 DUP4 SUB DUP2 PUSH1 0x0 DUP8 DUP1 EXTCODESIZE ISZERO DUP1 ISZERO PUSH2 0xDB4 JUMPI PUSH1 0x0 DUP1 REVERT JUMPDEST POP GAS CALL ISZERO DUP1 ISZERO PUSH2 0xDC8 JUMPI RETURNDATASIZE PUSH1 0x0 DUP1 RETURNDATACOPY RETURNDATASIZE PUSH1 0x0 REVERT JUMPDEST POP POP POP POP PUSH1 0x40 MLOAD RETURNDATASIZE PUSH1 0x1F NOT PUSH1 0x1F DUP3 ADD AND DUP3 ADD DUP1 PUSH1 0x40 MSTORE POP DUP2 ADD SWAP1 PUSH2 0xDEC SWAP2 SWAP1 PUSH2 0x33DD JUMP JUMPDEST POP PUSH1 0xD SLOAD PUSH1 0x40 DUP1 DUP4 ADD MLOAD DUP4 MLOAD SWAP2 MLOAD PUSH4 0x535B6773 PUSH1 0xE0 SHL DUP2 MSTORE PUSH1 0x1 PUSH1 0x1 PUSH1 0xA0 SHL SUB SWAP1 SWAP4 AND SWAP3 PUSH4 0x535B6773 SWAP3 PUSH2 0xE23 SWAP3 SWAP2 PUSH1 0x4 ADD PUSH2 0x35BA JUMP JUMPDEST PUSH1 0x20 PUSH1 0x40 MLOAD DUP1 DUP4 SUB DUP2 PUSH1 0x0 DUP8 DUP1 EXTCODESIZE ISZERO DUP1 ISZERO PUSH2 0xE3D JUMPI PUSH1 0x0 DUP1 REVERT JUMPDEST POP GAS CALL ISZERO DUP1 ISZERO PUSH2 0xE51 JUMPI RETURNDATASIZE PUSH1 0x0 DUP1 RETURNDATACOPY RETURNDATASIZE PUSH1 0x0 REVERT JUMPDEST POP POP POP POP PUSH1 0x40 MLOAD RETURNDATASIZE PUSH1 0x1F NOT PUSH1 0x1F DUP3 ADD AND DUP3 ADD DUP1 PUSH1 0x40 MSTORE POP DUP2 ADD SWAP1 PUSH2 0xE75 SWAP2 SWAP1 PUSH2 0x33DD JUMP JUMPDEST POP DUP3 DUP2 MSTORE CALLER PUSH1 0x40 SWAP1 SWAP2 ADD MSTORE POP PUSH1 0x1 JUMPDEST SWAP3 SWAP2 POP POP JUMP JUMPDEST PUSH1 0x0 SWAP1 DUP2 MSTORE PUSH1 0x5 PUSH1 0x20 MSTORE PUSH1 0x40 SWAP1 KECCAK256 SLOAD PUSH1 0x1 PUSH1 0x1 PUSH1 0xA0 SHL SUB AND SWAP1 JUMP JUMPDEST PUSH1 0x60 PUSH1 0x2 PUSH1 0x0 DUP4 PUSH1 0x4 DUP2 GT ISZERO PUSH2 0xECB JUMPI PUSH4 0x4E487B71 PUSH1 0xE0 SHL PUSH1 0x0 MSTORE PUSH1 0x21 PUSH1 0x4 MSTORE PUSH1 0x24 PUSH1 0x0 REVERT JUMPDEST PUSH1 0x4 DUP2 GT ISZERO PUSH2 0xEEA JUMPI PUSH4 0x4E487B71 PUSH1 0xE0 SHL PUSH1 0x0 MSTORE PUSH1 0x21 PUSH1 0x4 MSTORE PUSH1 0x24 PUSH1 0x0 REVERT JUMPDEST DUP2 MSTORE PUSH1 0x20 ADD SWAP1 DUP2 MSTORE PUSH1 0x20 ADD PUSH1 0x0 KECCAK256 DUP1 SLOAD DUP1 PUSH1 0x20 MUL PUSH1 0x20 ADD PUSH1 0x40 MLOAD SWAP1 DUP2 ADD PUSH1 0x40 MSTORE DUP1 SWAP3 SWAP2 SWAP1 DUP2 DUP2 MSTORE PUSH1 0x20 ADD DUP3 DUP1 SLOAD DUP1 ISZERO PUSH2 0xF42 JUMPI PUSH1 0x20 MUL DUP3 ADD SWAP2 SWAP1 PUSH1 0x0 MSTORE PUSH1 0x20 PUSH1 0x0 KECCAK256 SWAP1 JUMPDEST DUP2 SLOAD DUP2 MSTORE PUSH1 0x20 ADD SWAP1 PUSH1 0x1 ADD SWAP1 DUP1 DUP4 GT PUSH2 0xF2E JUMPI JUMPDEST POP POP POP POP POP SWAP1 POP SWAP2 SWAP1 POP JUMP JUMPDEST PUSH1 0x1 PUSH1 0x1 PUSH1 0xA0 SHL SUB AND PUSH1 0x0 SWAP1 DUP2 MSTORE PUSH1 0x7 PUSH1 0x20 MSTORE PUSH1 0x40 SWAP1 KECCAK256 SLOAD SWAP1 JUMP JUMPDEST PUSH1 0x0 PUSH2 0xF75 DUP6 DUP6 PUSH2 0xB52 JUMP JUMPDEST PUSH2 0xF8F JUMPI PUSH4 0x4E487B71 PUSH1 0xE0 SHL PUSH1 0x0 MSTORE PUSH1 0x1 PUSH1 0x4 MSTORE PUSH1 0x24 PUSH1 0x0 REVERT JUMPDEST DUP3 DUP3 PUSH1 0xE DUP8 DUP2 SLOAD DUP2 LT PUSH2 0xFB2 JUMPI PUSH4 0x4E487B71 PUSH1 0xE0 SHL PUSH1 0x0 MSTORE PUSH1 0x32 PUSH1 0x4 MSTORE PUSH1 0x24 PUSH1 0x0 REVERT JUMPDEST SWAP1 PUSH1 0x0 MSTORE PUSH1 0x20 PUSH1 0x0 KECCAK256 SWAP1 PUSH1 0x7 MUL ADD PUSH1 0x5 ADD SWAP2 SWAP1 PUSH2 0xFD0 SWAP3 SWAP2 SWAP1 PUSH2 0x3164 JUMP JUMPDEST POP PUSH1 0x1 SWAP6 SWAP5 POP POP POP POP POP JUMP JUMPDEST PUSH1 0x1 PUSH1 0x1 PUSH1 0xA0 SHL SUB DUP2 AND PUSH1 0x0 SWAP1 DUP2 MSTORE PUSH1 0xA PUSH1 0x20 SWAP1 DUP2 MSTORE PUSH1 0x40 SWAP2 DUP3 SWAP1 KECCAK256 DUP1 SLOAD DUP4 MLOAD DUP2 DUP5 MUL DUP2 ADD DUP5 ADD SWAP1 SWAP5 MSTORE DUP1 DUP5 MSTORE PUSH1 0x60 SWAP4 SWAP3 DUP4 ADD DUP3 DUP3 DUP1 ISZERO PUSH2 0xF42 JUMPI PUSH1 0x20 MUL DUP3 ADD SWAP2 SWAP1 PUSH1 0x0 MSTORE PUSH1 0x20 PUSH1 0x0 KECCAK256 SWAP1 DUP2 SLOAD DUP2 MSTORE PUSH1 0x20 ADD SWAP1 PUSH1 0x1 ADD SWAP1 DUP1 DUP4 GT PUSH2 0xF2E JUMPI POP POP POP POP POP SWAP1 POP SWAP2 SWAP1 POP JUMP JUMPDEST PUSH1 0xA PUSH1 0x20 MSTORE DUP2 PUSH1 0x0 MSTORE PUSH1 0x40 PUSH1 0x0 KECCAK256 DUP2 DUP2 SLOAD DUP2 LT PUSH2 0x1062 JUMPI PUSH1 0x0 DUP1 REVERT JUMPDEST SWAP1 PUSH1 0x0 MSTORE PUSH1 0x20 PUSH1 0x0 KECCAK256 ADD PUSH1 0x0 SWAP2 POP SWAP2 POP POP SLOAD DUP2 JUMP JUMPDEST PUSH1 0x0 PUSH2 0x10BA CALLER DUP6 DUP6 DUP6 DUP1 DUP1 PUSH1 0x1F ADD PUSH1 0x20 DUP1 SWAP2 DIV MUL PUSH1 0x20 ADD PUSH1 0x40 MLOAD SWAP1 DUP2 ADD PUSH1 0x40 MSTORE DUP1 SWAP4 SWAP3 SWAP2 SWAP1 DUP2 DUP2 MSTORE PUSH1 0x20 ADD DUP4 DUP4 DUP1 DUP3 DUP5 CALLDATACOPY PUSH1 0x0 SWAP3 ADD SWAP2 SWAP1 SWAP2 MSTORE POP PUSH2 0x18E6 SWAP3 POP POP POP JUMP JUMPDEST SWAP5 SWAP4 POP POP POP POP JUMP JUMPDEST PUSH1 0x40 DUP1 MLOAD DUP1 DUP3 ADD SWAP1 SWAP2 MSTORE PUSH1 0x6 DUP2 MSTORE PUSH6 0x414348535355 PUSH1 0xD0 SHL PUSH1 0x20 DUP3 ADD MSTORE SWAP1 JUMP JUMPDEST PUSH1 0xD SLOAD PUSH1 0x1 PUSH1 0x1 PUSH1 0xA0 SHL SUB AND DUP2 JUMP JUMPDEST PUSH1 0x9 PUSH1 0x20 MSTORE PUSH1 0x0 SWAP1 DUP2 MSTORE PUSH1 0x40 SWAP1 KECCAK256 SLOAD PUSH1 0xFF AND DUP2 JUMP JUMPDEST CALLER DUP3 DUP3 PUSH2 0x1112 DUP2 PUSH2 0xE8A JUMP JUMPDEST PUSH1 0x1 PUSH1 0x1 PUSH1 0xA0 SHL SUB AND DUP4 PUSH1 0x1 PUSH1 0x1 PUSH1 0xA0 SHL SUB AND EQ PUSH2 0x1142 JUMPI PUSH1 0x40 MLOAD PUSH3 0x461BCD PUSH1 0xE5 SHL DUP2 MSTORE PUSH1 0x4 ADD PUSH2 0x4A8 SWAP1 PUSH2 0x38A0 JUMP JUMPDEST DUP2 PUSH1 0x1 PUSH1 0x1 PUSH1 0xA0 SHL SUB AND DUP4 PUSH1 0x1 PUSH1 0x1 PUSH1 0xA0 SHL SUB AND EQ ISZERO PUSH2 0x1174 JUMPI PUSH1 0x40 MLOAD PUSH3 0x461BCD PUSH1 0xE5 SHL DUP2 MSTORE PUSH1 0x4 ADD PUSH2 0x4A8 SWAP1 PUSH2 0x3704 JUMP JUMPDEST PUSH1 0x3 PUSH1 0x0 DUP3 DUP2 MSTORE PUSH1 0x9 PUSH1 0x20 MSTORE PUSH1 0x40 SWAP1 KECCAK256 SLOAD PUSH1 0xFF AND PUSH1 0x4 DUP2 GT ISZERO PUSH2 0x11A7 JUMPI PUSH4 0x4E487B71 PUSH1 0xE0 SHL PUSH1 0x0 MSTORE PUSH1 0x21 PUSH1 0x4 MSTORE PUSH1 0x24 PUSH1 0x0 REVERT JUMPDEST EQ PUSH2 0x11C4 JUMPI PUSH1 0x40 MLOAD PUSH3 0x461BCD PUSH1 0xE5 SHL DUP2 MSTORE PUSH1 0x4 ADD PUSH2 0x4A8 SWAP1 PUSH2 0x38D1 JUMP JUMPDEST PUSH1 0x1 PUSH1 0x1 PUSH1 0xA0 SHL SUB DUP3 AND PUSH2 0x11EA JUMPI PUSH1 0x40 MLOAD PUSH3 0x461BCD PUSH1 0xE5 SHL DUP2 MSTORE PUSH1 0x4 ADD PUSH2 0x4A8 SWAP1 PUSH2 0x37F7 JUMP JUMPDEST PUSH2 0x11F5 CALLER DUP7 DUP7 PUSH2 0x1809 JUMP JUMPDEST POP POP POP POP POP JUMP JUMPDEST PUSH1 0x8 PUSH1 0x20 MSTORE PUSH1 0x0 SWAP1 DUP2 MSTORE PUSH1 0x40 SWAP1 KECCAK256 SLOAD PUSH1 0x1 PUSH1 0x1 PUSH1 0xA0 SHL SUB AND DUP2 JUMP JUMPDEST PUSH1 0x0 DUP1 PUSH1 0xE DUP4 DUP2 SLOAD DUP2 LT PUSH2 0x123B JUMPI PUSH4 0x4E487B71 PUSH1 0xE0 SHL PUSH1 0x0 MSTORE PUSH1 0x32 PUSH1 0x4 MSTORE PUSH1 0x24 PUSH1 0x0 REVERT JUMPDEST SWAP1 PUSH1 0x0 MSTORE PUSH1 0x20 PUSH1 0x0 KECCAK256 SWAP1 PUSH1 0x7 MUL ADD PUSH1 0x40 MLOAD DUP1 PUSH1 0xE0 ADD PUSH1 0x40 MSTORE SWAP1 DUP2 PUSH1 0x0 DUP3 ADD SLOAD DUP2 MSTORE PUSH1 0x20 ADD PUSH1 0x1 DUP3 ADD DUP1 SLOAD DUP1 PUSH1 0x20 MUL PUSH1 0x20 ADD PUSH1 0x40 MLOAD SWAP1 DUP2 ADD PUSH1 0x40 MSTORE DUP1 SWAP3 SWAP2 SWAP1 DUP2 DUP2 MSTORE PUSH1 0x20 ADD DUP3 DUP1 SLOAD DUP1 ISZERO PUSH2 0x12AD JUMPI PUSH1 0x20 MUL DUP3 ADD SWAP2 SWAP1 PUSH1 0x0 MSTORE PUSH1 0x20 PUSH1 0x0 KECCAK256 SWAP1 JUMPDEST DUP2 SLOAD DUP2 MSTORE PUSH1 0x20 ADD SWAP1 PUSH1 0x1 ADD SWAP1 DUP1 DUP4 GT PUSH2 0x1299 JUMPI JUMPDEST POP POP POP SWAP2 DUP4 MSTORE POP POP PUSH1 0x2 DUP3 ADD SLOAD PUSH1 0x1 PUSH1 0x1 PUSH1 0xA0 SHL SUB SWAP1 DUP2 AND PUSH1 0x20 DUP4 ADD MSTORE PUSH1 0x3 DUP4 ADD SLOAD AND PUSH1 0x40 DUP3 ADD MSTORE PUSH1 0x4 DUP3 ADD DUP1 SLOAD PUSH1 0x60 SWAP1 SWAP3 ADD SWAP2 PUSH2 0x12EA SWAP1 PUSH2 0x3AB9 JUMP JUMPDEST DUP1 PUSH1 0x1F ADD PUSH1 0x20 DUP1 SWAP2 DIV MUL PUSH1 0x20 ADD PUSH1 0x40 MLOAD SWAP1 DUP2 ADD PUSH1 0x40 MSTORE DUP1 SWAP3 SWAP2 SWAP1 DUP2 DUP2 MSTORE PUSH1 0x20 ADD DUP3 DUP1 SLOAD PUSH2 0x1316 SWAP1 PUSH2 0x3AB9 JUMP JUMPDEST DUP1 ISZERO PUSH2 0x1363 JUMPI DUP1 PUSH1 0x1F LT PUSH2 0x1338 JUMPI PUSH2 0x100 DUP1 DUP4 SLOAD DIV MUL DUP4 MSTORE SWAP2 PUSH1 0x20 ADD SWAP2 PUSH2 0x1363 JUMP JUMPDEST DUP3 ADD SWAP2 SWAP1 PUSH1 0x0 MSTORE PUSH1 0x20 PUSH1 0x0 KECCAK256 SWAP1 JUMPDEST DUP2 SLOAD DUP2 MSTORE SWAP1 PUSH1 0x1 ADD SWAP1 PUSH1 0x20 ADD DUP1 DUP4 GT PUSH2 0x1346 JUMPI DUP3 SWAP1 SUB PUSH1 0x1F AND DUP3 ADD SWAP2 JUMPDEST POP POP POP POP POP DUP2 MSTORE PUSH1 0x20 ADD PUSH1 0x5 DUP3 ADD DUP1 SLOAD PUSH2 0x137C SWAP1 PUSH2 0x3AB9 JUMP JUMPDEST DUP1 PUSH1 0x1F ADD PUSH1 0x20 DUP1 SWAP2 DIV MUL PUSH1 0x20 ADD PUSH1 0x40 MLOAD SWAP1 DUP2 ADD PUSH1 0x40 MSTORE DUP1 SWAP3 SWAP2 SWAP1 DUP2 DUP2 MSTORE PUSH1 0x20 ADD DUP3 DUP1 SLOAD PUSH2 0x13A8 SWAP1 PUSH2 0x3AB9 JUMP JUMPDEST DUP1 ISZERO PUSH2 0x13F5 JUMPI DUP1 PUSH1 0x1F LT PUSH2 0x13CA JUMPI PUSH2 0x100 DUP1 DUP4 SLOAD DIV MUL DUP4 MSTORE SWAP2 PUSH1 0x20 ADD SWAP2 PUSH2 0x13F5 JUMP JUMPDEST DUP3 ADD SWAP2 SWAP1 PUSH1 0x0 MSTORE PUSH1 0x20 PUSH1 0x0 KECCAK256 SWAP1 JUMPDEST DUP2 SLOAD DUP2 MSTORE SWAP1 PUSH1 0x1 ADD SWAP1 PUSH1 0x20 ADD DUP1 DUP4 GT PUSH2 0x13D8 JUMPI DUP3 SWAP1 SUB PUSH1 0x1F AND DUP3 ADD SWAP2 JUMPDEST POP POP POP POP POP DUP2 MSTORE PUSH1 0x20 ADD PUSH1 0x6 DUP3 ADD SLOAD DUP2 MSTORE POP POP SWAP1 POP CALLER PUSH1 0x1 PUSH1 0x1 PUSH1 0xA0 SHL SUB AND DUP2 PUSH1 0x60 ADD MLOAD PUSH1 0x1 PUSH1 0x1 PUSH1 0xA0 SHL SUB AND EQ PUSH2 0x143F JUMPI PUSH1 0x40 MLOAD PUSH3 0x461BCD PUSH1 0xE5 SHL DUP2 MSTORE PUSH1 0x4 ADD PUSH2 0x4A8 SWAP1 PUSH2 0x36BF JUMP JUMPDEST TIMESTAMP DUP2 PUSH1 0xC0 ADD MLOAD GT PUSH2 0x1462 JUMPI PUSH1 0x40 MLOAD PUSH3 0x461BCD PUSH1 0xE5 SHL DUP2 MSTORE PUSH1 0x4 ADD PUSH2 0x4A8 SWAP1 PUSH2 0x3677 JUMP JUMPDEST PUSH1 0xD SLOAD PUSH1 0x40 DUP1 DUP4 ADD MLOAD DUP4 MLOAD SWAP2 MLOAD PUSH4 0x535B6773 PUSH1 0xE0 SHL DUP2 MSTORE PUSH1 0x1 PUSH1 0x1 PUSH1 0xA0 SHL SUB SWAP1 SWAP4 AND SWAP3 PUSH4 0x535B6773 SWAP3 PUSH2 0x1498 SWAP3 SWAP2 PUSH1 0x4 ADD PUSH2 0x35BA JUMP JUMPDEST PUSH1 0x20 PUSH1 0x40 MLOAD DUP1 DUP4 SUB DUP2 PUSH1 0x0 DUP8 DUP1 EXTCODESIZE ISZERO DUP1 ISZERO PUSH2 0x14B2 JUMPI PUSH1 0x0 DUP1 REVERT JUMPDEST POP GAS CALL ISZERO DUP1 ISZERO PUSH2 0x14C6 JUMPI RETURNDATASIZE PUSH1 0x0 DUP1 RETURNDATACOPY RETURNDATASIZE PUSH1 0x0 REVERT JUMPDEST POP POP POP POP PUSH1 0x40 MLOAD RETURNDATASIZE PUSH1 0x1F NOT PUSH1 0x1F DUP3 ADD AND DUP3 ADD DUP1 PUSH1 0x40 MSTORE POP DUP2 ADD SWAP1 PUSH2 0x14EA SWAP2 SWAP1 PUSH2 0x33DD JUMP JUMPDEST POP PUSH1 0x1 SWAP4 SWAP3 POP POP POP JUMP JUMPDEST PUSH1 0xC SLOAD PUSH1 0x1 PUSH1 0x1 PUSH1 0xA0 SHL SUB AND DUP2 JUMP JUMPDEST PUSH1 0x5 PUSH1 0x20 MSTORE PUSH1 0x0 SWAP1 DUP2 MSTORE PUSH1 0x40 SWAP1 KECCAK256 SLOAD PUSH1 0x1 PUSH1 0x1 PUSH1 0xA0 SHL SUB AND DUP2 JUMP JUMPDEST PUSH1 0x0 DUP1 PUSH1 0x0 PUSH2 0x1560 CALLER DUP7 DUP7 DUP1 DUP1 PUSH1 0x20 MUL PUSH1 0x20 ADD PUSH1 0x40 MLOAD SWAP1 DUP2 ADD PUSH1 0x40 MSTORE DUP1 SWAP4 SWAP3 SWAP2 SWAP1 DUP2 DUP2 MSTORE PUSH1 0x20 ADD DUP4 DUP4 PUSH1 0x20 MUL DUP1 DUP3 DUP5 CALLDATACOPY PUSH1 0x0 SWAP3 ADD SWAP2 SWAP1 SWAP2 MSTORE POP PUSH2 0x1AEC SWAP3 POP POP POP JUMP JUMPDEST SWAP1 SWAP3 POP SWAP1 POP PUSH1 0x0 PUSH2 0x15C2 PUSH1 0x2 DUP3 DUP5 PUSH1 0x4 DUP2 GT ISZERO PUSH2 0x158D JUMPI PUSH4 0x4E487B71 PUSH1 0xE0 SHL PUSH1 0x0 MSTORE PUSH1 0x21 PUSH1 0x4 MSTORE PUSH1 0x24 PUSH1 0x0 REVERT JUMPDEST PUSH1 0x4 DUP2 GT ISZERO PUSH2 0x15AC JUMPI PUSH4 0x4E487B71 PUSH1 0xE0 SHL PUSH1 0x0 MSTORE PUSH1 0x21 PUSH1 0x4 MSTORE PUSH1 0x24 PUSH1 0x0 REVERT JUMPDEST DUP2 MSTORE PUSH1 0x20 DUP2 ADD SWAP2 SWAP1 SWAP2 MSTORE PUSH1 0x40 ADD PUSH1 0x0 KECCAK256 SLOAD PUSH2 0x2057 JUMP JUMPDEST PUSH2 0xFFFF AND SWAP1 POP PUSH2 0x15D2 DUP4 DUP3 PUSH2 0x2070 JUMP JUMPDEST SWAP7 SWAP6 POP POP POP POP POP POP JUMP JUMPDEST PUSH1 0x4 PUSH1 0x20 MSTORE PUSH1 0x0 SWAP1 DUP2 MSTORE PUSH1 0x40 SWAP1 KECCAK256 SLOAD DUP2 JUMP JUMPDEST PUSH1 0x1 DUP2 DUP2 SLOAD DUP2 LT PUSH2 0x15FE JUMPI PUSH1 0x0 DUP1 REVERT JUMPDEST PUSH1 0x0 SWAP2 DUP3 MSTORE PUSH1 0x20 SWAP1 SWAP2 KECCAK256 PUSH1 0x1 PUSH1 0x2 SWAP1 SWAP3 MUL ADD ADD SLOAD PUSH1 0xFF DUP1 DUP3 AND SWAP3 POP PUSH2 0xFFFF PUSH2 0x100 DUP4 DIV DUP2 AND SWAP3 PUSH4 0x1000000 DUP2 DIV SWAP1 SWAP3 AND SWAP2 PUSH1 0x1 PUSH1 0x20 SHL DUP2 DIV DUP3 AND SWAP2 PUSH1 0x1 PUSH1 0x30 SHL SWAP1 SWAP2 DIV AND DUP6 JUMP JUMPDEST PUSH1 0x7 PUSH1 0x20 MSTORE PUSH1 0x0 SWAP1 DUP2 MSTORE PUSH1 0x40 SWAP1 KECCAK256 SLOAD DUP2 JUMP JUMPDEST PUSH1 0x0 DUP1 PUSH1 0x0 PUSH2 0x1699 CALLER DUP8 DUP8 DUP1 DUP1 PUSH1 0x20 MUL PUSH1 0x20 ADD PUSH1 0x40 MLOAD SWAP1 DUP2 ADD PUSH1 0x40 MSTORE DUP1 SWAP4 SWAP3 SWAP2 SWAP1 DUP2 DUP2 MSTORE PUSH1 0x20 ADD DUP4 DUP4 PUSH1 0x20 MUL DUP1 DUP3 DUP5 CALLDATACOPY PUSH1 0x0 SWAP3 ADD SWAP2 SWAP1 SWAP2 MSTORE POP PUSH2 0x1AEC SWAP3 POP POP POP JUMP JUMPDEST SWAP1 SWAP3 POP SWAP1 POP DUP4 PUSH1 0x2 PUSH1 0x0 DUP4 PUSH1 0x4 DUP2 GT ISZERO PUSH2 0x16C3 JUMPI PUSH4 0x4E487B71 PUSH1 0xE0 SHL PUSH1 0x0 MSTORE PUSH1 0x21 PUSH1 0x4 MSTORE PUSH1 0x24 PUSH1 0x0 REVERT JUMPDEST PUSH1 0x4 DUP2 GT ISZERO PUSH2 0x16E2 JUMPI PUSH4 0x4E487B71 PUSH1 0xE0 SHL PUSH1 0x0 MSTORE PUSH1 0x21 PUSH1 0x4 MSTORE PUSH1 0x24 PUSH1 0x0 REVERT JUMPDEST DUP2 MSTORE PUSH1 0x20 DUP2 ADD SWAP2 SWAP1 SWAP2 MSTORE PUSH1 0x40 ADD PUSH1 0x0 KECCAK256 SLOAD GT PUSH2 0x170E JUMPI PUSH4 0x4E487B71 PUSH1 0xE0 SHL PUSH1 0x0 MSTORE PUSH1 0x1 PUSH1 0x4 MSTORE PUSH1 0x24 PUSH1 0x0 REVERT JUMPDEST PUSH2 0x15D2 DUP3 DUP6 PUSH2 0x2070 JUMP JUMPDEST PUSH1 0x0 DUP2 DUP2 SLOAD DUP2 LT PUSH2 0x1728 JUMPI PUSH1 0x0 DUP1 REVERT JUMPDEST PUSH1 0x0 SWAP2 DUP3 MSTORE PUSH1 0x20 SWAP1 SWAP2 KECCAK256 PUSH1 0x2 SWAP1 SWAP2 MUL ADD DUP1 SLOAD PUSH1 0x1 DUP3 ADD DUP1 SLOAD PUSH2 0xFFFF DUP1 DUP5 AND SWAP6 POP PUSH3 0x10000 DUP5 DIV DUP2 AND SWAP5 PUSH1 0x1 PUSH1 0x20 SHL DUP6 DIV DUP3 AND SWAP5 PUSH1 0x1 PUSH1 0x30 SHL DUP2 DIV DUP4 AND SWAP5 PUSH1 0x1 PUSH1 0x40 SHL DUP3 DIV SWAP1 SWAP4 AND SWAP4 PUSH1 0x1 PUSH1 0x50 SHL SWAP1 SWAP2 DIV PUSH1 0xFF AND SWAP3 SWAP1 PUSH2 0x1786 SWAP1 PUSH2 0x3AB9 JUMP JUMPDEST DUP1 PUSH1 0x1F ADD PUSH1 0x20 DUP1 SWAP2 DIV MUL PUSH1 0x20 ADD PUSH1 0x40 MLOAD SWAP1 DUP2 ADD PUSH1 0x40 MSTORE DUP1 SWAP3 SWAP2 SWAP1 DUP2 DUP2 MSTORE PUSH1 0x20 ADD DUP3 DUP1 SLOAD PUSH2 0x17B2 SWAP1 PUSH2 0x3AB9 JUMP JUMPDEST DUP1 ISZERO PUSH2 0x17FF JUMPI DUP1 PUSH1 0x1F LT PUSH2 0x17D4 JUMPI PUSH2 0x100 DUP1 DUP4 SLOAD DIV MUL DUP4 MSTORE SWAP2 PUSH1 0x20 ADD SWAP2 PUSH2 0x17FF JUMP JUMPDEST DUP3 ADD SWAP2 SWAP1 PUSH1 0x0 MSTORE PUSH1 0x20 PUSH1 0x0 KECCAK256 SWAP1 JUMPDEST DUP2 SLOAD DUP2 MSTORE SWAP1 PUSH1 0x1 ADD SWAP1 PUSH1 0x20 ADD DUP1 DUP4 GT PUSH2 0x17E2 JUMPI DUP3 SWAP1 SUB PUSH1 0x1F AND DUP3 ADD SWAP2 JUMPDEST POP POP POP POP POP SWAP1 POP DUP8 JUMP JUMPDEST PUSH1 0x1 PUSH1 0x1 PUSH1 0xA0 SHL SUB DUP4 AND PUSH1 0x0 SWAP1 DUP2 MSTORE PUSH1 0x7 PUSH1 0x20 MSTORE PUSH1 0x40 DUP2 KECCAK256 DUP1 SLOAD PUSH1 0x1 SWAP3 SWAP1 PUSH2 0x1832 SWAP1 DUP5 SWAP1 PUSH2 0x3A85 JUMP JUMPDEST SWAP1 SWAP2 SSTORE POP POP PUSH1 0x0 DUP2 DUP2 MSTORE PUSH1 0x5 PUSH1 0x20 SWAP1 DUP2 MSTORE PUSH1 0x40 DUP1 DUP4 KECCAK256 DUP1 SLOAD PUSH1 0x1 PUSH1 0x1 PUSH1 0xA0 SHL SUB NOT SWAP1 DUP2 AND PUSH1 0x1 PUSH1 0x1 PUSH1 0xA0 SHL SUB DUP9 AND SWAP1 DUP2 OR SWAP1 SWAP3 SSTORE PUSH1 0x8 DUP5 MSTORE DUP3 DUP6 KECCAK256 DUP1 SLOAD SWAP1 SWAP2 AND SWAP1 SSTORE PUSH1 0x9 DUP4 MSTORE DUP2 DUP5 KECCAK256 DUP1 SLOAD PUSH1 0xFF NOT AND PUSH1 0x3 OR SWAP1 SSTORE DUP4 MSTORE PUSH1 0x7 SWAP1 SWAP2 MSTORE DUP2 KECCAK256 DUP1 SLOAD PUSH1 0x1 SWAP3 SWAP1 PUSH2 0x18A0 SWAP1 DUP5 SWAP1 PUSH2 0x3A25 JUMP JUMPDEST SWAP1 SWAP2 SSTORE POP POP PUSH1 0x40 MLOAD PUSH32 0xDDF252AD1BE2C89B69C2B068FC378DAA952BA7F163C4A11628F55A4DF523B3EF SWAP1 PUSH2 0x18D9 SWAP1 DUP6 SWAP1 DUP6 SWAP1 DUP6 SWAP1 PUSH2 0x3596 JUMP JUMPDEST PUSH1 0x40 MLOAD DUP1 SWAP2 SUB SWAP1 LOG1 POP POP POP JUMP JUMPDEST PUSH1 0x0 DUP1 DUP1 PUSH1 0x1 DUP6 PUSH1 0x2 DUP2 GT ISZERO PUSH2 0x190C JUMPI PUSH4 0x4E487B71 PUSH1 0xE0 SHL PUSH1 0x0 MSTORE PUSH1 0x21 PUSH1 0x4 MSTORE PUSH1 0x24 PUSH1 0x0 REVERT JUMPDEST EQ ISZERO PUSH2 0x1924 JUMPI PUSH2 0x191D PUSH1 0xA DUP4 PUSH2 0x3A25 JUMP JUMPDEST SWAP2 POP PUSH2 0x19A2 JUMP JUMPDEST PUSH1 0x0 DUP6 PUSH1 0x2 DUP2 GT ISZERO PUSH2 0x1946 JUMPI PUSH4 0x4E487B71 PUSH1 0xE0 SHL PUSH1 0x0 MSTORE PUSH1 0x21 PUSH1 0x4 MSTORE PUSH1 0x24 PUSH1 0x0 REVERT JUMPDEST EQ ISZERO PUSH2 0x1957 JUMPI PUSH2 0x191D PUSH1 0xF DUP4 PUSH2 0x3A25 JUMP JUMPDEST PUSH1 0x2 DUP6 PUSH1 0x2 DUP2 GT ISZERO PUSH2 0x1979 JUMPI PUSH4 0x4E487B71 PUSH1 0xE0 SHL PUSH1 0x0 MSTORE PUSH1 0x21 PUSH1 0x4 MSTORE PUSH1 0x24 PUSH1 0x0 REVERT JUMPDEST EQ ISZERO PUSH2 0x198A JUMPI PUSH2 0x191D PUSH1 0x14 DUP4 PUSH2 0x3A25 JUMP JUMPDEST PUSH1 0x40 MLOAD PUSH3 0x461BCD PUSH1 0xE5 SHL DUP2 MSTORE PUSH1 0x4 ADD PUSH2 0x4A8 SWAP1 PUSH2 0x3648 JUMP JUMPDEST PUSH1 0xD SLOAD PUSH1 0x40 MLOAD PUSH4 0xAF7D6CA3 PUSH1 0xE0 SHL DUP2 MSTORE PUSH1 0x1 PUSH1 0x1 PUSH1 0xA0 SHL SUB SWAP1 SWAP2 AND SWAP1 PUSH4 0xAF7D6CA3 SWAP1 PUSH2 0x19D4 SWAP1 DUP10 SWAP1 DUP7 SWAP1 PUSH1 0x4 ADD PUSH2 0x35BA JUMP JUMPDEST PUSH1 0x20 PUSH1 0x40 MLOAD DUP1 DUP4 SUB DUP2 PUSH1 0x0 DUP8 DUP1 EXTCODESIZE ISZERO DUP1 ISZERO PUSH2 0x19EE JUMPI PUSH1 0x0 DUP1 REVERT JUMPDEST POP GAS CALL ISZERO DUP1 ISZERO PUSH2 0x1A02 JUMPI RETURNDATASIZE PUSH1 0x0 DUP1 RETURNDATACOPY RETURNDATASIZE PUSH1 0x0 REVERT JUMPDEST POP POP POP POP PUSH1 0x40 MLOAD RETURNDATASIZE PUSH1 0x1F NOT PUSH1 0x1F DUP3 ADD AND DUP3 ADD DUP1 PUSH1 0x40 MSTORE POP DUP2 ADD SWAP1 PUSH2 0x1A26 SWAP2 SWAP1 PUSH2 0x33DD JUMP JUMPDEST POP PUSH2 0x1A31 DUP6 DUP6 PUSH2 0x2D29 JUMP JUMPDEST SWAP1 POP DUP1 PUSH32 0xB89BE3B4BDC4059B3E8638AC07EF31FB78418648FFA34EACCB60B1C60F318D29 DUP8 PUSH1 0x40 MLOAD PUSH2 0x1A63 SWAP2 SWAP1 PUSH2 0x3582 JUMP JUMPDEST PUSH1 0x40 MLOAD DUP1 SWAP2 SUB SWAP1 LOG2 PUSH1 0x0 DUP2 DUP2 MSTORE PUSH1 0x5 PUSH1 0x20 SWAP1 DUP2 MSTORE PUSH1 0x40 DUP1 DUP4 KECCAK256 DUP1 SLOAD PUSH1 0x1 PUSH1 0x1 PUSH1 0xA0 SHL SUB NOT AND PUSH1 0x1 PUSH1 0x1 PUSH1 0xA0 SHL SUB DUP12 AND SWAP1 DUP2 OR SWAP1 SWAP2 SSTORE DUP4 MSTORE PUSH1 0x7 SWAP1 SWAP2 MSTORE DUP2 KECCAK256 DUP1 SLOAD PUSH1 0x1 SWAP3 SWAP1 PUSH2 0x1AB2 SWAP1 DUP5 SWAP1 PUSH2 0x3A25 JUMP JUMPDEST SWAP1 SWAP2 SSTORE POP POP PUSH1 0x1 PUSH1 0x1 PUSH1 0xA0 SHL SUB DUP7 AND PUSH1 0x0 SWAP1 DUP2 MSTORE PUSH1 0xA PUSH1 0x20 SWAP1 DUP2 MSTORE PUSH1 0x40 DUP3 KECCAK256 DUP1 SLOAD PUSH1 0x1 DUP2 ADD DUP3 SSTORE SWAP1 DUP4 MSTORE SWAP2 KECCAK256 ADD DUP2 SWAP1 SSTORE SWAP2 POP POP SWAP4 SWAP3 POP POP POP JUMP JUMPDEST PUSH1 0x0 DUP1 PUSH1 0x0 PUSH1 0x7 DUP5 MLOAD GT ISZERO PUSH2 0x1B13 JUMPI PUSH1 0x40 MLOAD PUSH3 0x461BCD PUSH1 0xE5 SHL DUP2 MSTORE PUSH1 0x4 ADD PUSH2 0x4A8 SWAP1 PUSH2 0x3769 JUMP JUMPDEST PUSH1 0x0 JUMPDEST DUP5 MLOAD DUP2 PUSH1 0xFF AND LT ISZERO PUSH2 0x1D08 JUMPI DUP6 PUSH1 0x1 PUSH1 0x1 PUSH1 0xA0 SHL SUB AND PUSH1 0x5 PUSH1 0x0 DUP8 DUP5 PUSH1 0xFF AND DUP2 MLOAD DUP2 LT PUSH2 0x1B53 JUMPI PUSH4 0x4E487B71 PUSH1 0xE0 SHL PUSH1 0x0 MSTORE PUSH1 0x32 PUSH1 0x4 MSTORE PUSH1 0x24 PUSH1 0x0 REVERT JUMPDEST PUSH1 0x20 SWAP1 DUP2 MUL SWAP2 SWAP1 SWAP2 ADD DUP2 ADD MLOAD DUP3 MSTORE DUP2 ADD SWAP2 SWAP1 SWAP2 MSTORE PUSH1 0x40 ADD PUSH1 0x0 KECCAK256 SLOAD PUSH1 0x1 PUSH1 0x1 PUSH1 0xA0 SHL SUB AND EQ PUSH2 0x1B94 JUMPI PUSH1 0x40 MLOAD PUSH3 0x461BCD PUSH1 0xE5 SHL DUP2 MSTORE PUSH1 0x4 ADD PUSH2 0x4A8 SWAP1 PUSH2 0x3737 JUMP JUMPDEST PUSH1 0x3 PUSH1 0x9 PUSH1 0x0 DUP8 DUP5 PUSH1 0xFF AND DUP2 MLOAD DUP2 LT PUSH2 0x1BBD JUMPI PUSH4 0x4E487B71 PUSH1 0xE0 SHL PUSH1 0x0 MSTORE PUSH1 0x32 PUSH1 0x4 MSTORE PUSH1 0x24 PUSH1 0x0 REVERT JUMPDEST PUSH1 0x20 SWAP1 DUP2 MUL SWAP2 SWAP1 SWAP2 ADD DUP2 ADD MLOAD DUP3 MSTORE DUP2 ADD SWAP2 SWAP1 SWAP2 MSTORE PUSH1 0x40 ADD PUSH1 0x0 KECCAK256 SLOAD PUSH1 0xFF AND PUSH1 0x4 DUP2 GT ISZERO PUSH2 0x1BFA JUMPI PUSH4 0x4E487B71 PUSH1 0xE0 SHL PUSH1 0x0 MSTORE PUSH1 0x21 PUSH1 0x4 MSTORE PUSH1 0x24 PUSH1 0x0 REVERT JUMPDEST EQ PUSH2 0x1C17 JUMPI PUSH1 0x40 MLOAD PUSH3 0x461BCD PUSH1 0xE5 SHL DUP2 MSTORE PUSH1 0x4 ADD PUSH2 0x4A8 SWAP1 PUSH2 0x37D1 JUMP JUMPDEST PUSH1 0x1 PUSH1 0x9 PUSH1 0x0 DUP8 DUP5 PUSH1 0xFF AND DUP2 MLOAD DUP2 LT PUSH2 0x1C40 JUMPI PUSH4 0x4E487B71 PUSH1 0xE0 SHL PUSH1 0x0 MSTORE PUSH1 0x32 PUSH1 0x4 MSTORE PUSH1 0x24 PUSH1 0x0 REVERT JUMPDEST PUSH1 0x20 MUL PUSH1 0x20 ADD ADD MLOAD DUP2 MSTORE PUSH1 0x20 ADD SWAP1 DUP2 MSTORE PUSH1 0x20 ADD PUSH1 0x0 KECCAK256 PUSH1 0x0 PUSH2 0x100 EXP DUP2 SLOAD DUP2 PUSH1 0xFF MUL NOT AND SWAP1 DUP4 PUSH1 0x4 DUP2 GT ISZERO PUSH2 0x1C85 JUMPI PUSH4 0x4E487B71 PUSH1 0xE0 SHL PUSH1 0x0 MSTORE PUSH1 0x21 PUSH1 0x4 MSTORE PUSH1 0x24 PUSH1 0x0 REVERT JUMPDEST MUL OR SWAP1 SSTORE POP PUSH1 0x0 DUP6 DUP3 PUSH1 0xFF AND DUP2 MLOAD DUP2 LT PUSH2 0x1CAF JUMPI PUSH4 0x4E487B71 PUSH1 0xE0 SHL PUSH1 0x0 MSTORE PUSH1 0x32 PUSH1 0x4 MSTORE PUSH1 0x24 PUSH1 0x0 REVERT JUMPDEST PUSH1 0x20 MUL PUSH1 0x20 ADD ADD MLOAD DUP2 SLOAD DUP2 LT PUSH2 0x1CD5 JUMPI PUSH4 0x4E487B71 PUSH1 0xE0 SHL PUSH1 0x0 MSTORE PUSH1 0x32 PUSH1 0x4 MSTORE PUSH1 0x24 PUSH1 0x0 REVERT JUMPDEST PUSH1 0x0 SWAP2 DUP3 MSTORE PUSH1 0x20 SWAP1 SWAP2 KECCAK256 PUSH1 0x2 SWAP1 SWAP2 MUL ADD SLOAD PUSH2 0x1CF4 SWAP1 PUSH2 0xFFFF AND DUP4 PUSH2 0x39FF JUMP JUMPDEST SWAP2 POP PUSH2 0x1D01 PUSH1 0x1 DUP3 PUSH2 0x3A3D JUMP JUMPDEST SWAP1 POP PUSH2 0x1B16 JUMP JUMPDEST POP PUSH1 0x0 PUSH2 0x1D15 DUP6 MLOAD PUSH2 0x304A JUMP JUMPDEST SWAP1 POP PUSH1 0x0 PUSH1 0x40 MLOAD DUP1 PUSH1 0xC0 ADD PUSH1 0x40 MSTORE DUP1 PUSH1 0x0 PUSH1 0x1 PUSH1 0x1 PUSH1 0x40 SHL SUB DUP2 GT ISZERO PUSH2 0x1D4B JUMPI PUSH4 0x4E487B71 PUSH1 0xE0 SHL PUSH1 0x0 MSTORE PUSH1 0x41 PUSH1 0x4 MSTORE PUSH1 0x24 PUSH1 0x0 REVERT JUMPDEST PUSH1 0x40 MLOAD SWAP1 DUP1 DUP3 MSTORE DUP1 PUSH1 0x20 MUL PUSH1 0x20 ADD DUP3 ADD PUSH1 0x40 MSTORE DUP1 ISZERO PUSH2 0x1D74 JUMPI DUP2 PUSH1 0x20 ADD PUSH1 0x20 DUP3 MUL DUP1 CALLDATASIZE DUP4 CALLDATACOPY ADD SWAP1 POP JUMPDEST POP DUP2 MSTORE DUP8 MLOAD PUSH1 0xFF AND PUSH1 0x20 DUP3 ADD MSTORE PUSH1 0x0 PUSH1 0x40 DUP3 ADD MSTORE PUSH1 0x60 ADD DUP4 PUSH1 0x4 DUP2 GT ISZERO PUSH2 0x1DAB JUMPI PUSH4 0x4E487B71 PUSH1 0xE0 SHL PUSH1 0x0 MSTORE PUSH1 0x21 PUSH1 0x4 MSTORE PUSH1 0x24 PUSH1 0x0 REVERT JUMPDEST DUP2 MSTORE PUSH2 0xFFFF TIMESTAMP DUP2 AND PUSH1 0x20 DUP1 DUP5 ADD SWAP2 SWAP1 SWAP2 MSTORE SWAP1 DUP7 AND PUSH1 0x40 SWAP1 SWAP3 ADD SWAP2 SWAP1 SWAP2 MSTORE PUSH1 0x1 DUP1 SLOAD DUP1 DUP3 ADD DUP3 SSTORE PUSH1 0x0 SWAP2 SWAP1 SWAP2 MSTORE DUP3 MLOAD DUP1 MLOAD SWAP4 SWAP5 POP DUP5 SWAP4 PUSH1 0x2 SWAP1 SWAP3 MUL PUSH32 0xB10E2D527612073B26EECDFD717E6A320CF44B4AFAC2B0732D9FCBE2B7FA0CF6 ADD SWAP3 PUSH2 0x1E17 SWAP3 DUP5 SWAP3 SWAP1 SWAP2 ADD SWAP1 PUSH2 0x30A6 JUMP JUMPDEST POP PUSH1 0x20 DUP3 ADD MLOAD PUSH1 0x1 DUP3 ADD DUP1 SLOAD PUSH1 0x40 DUP6 ADD MLOAD PUSH2 0xFFFF AND PUSH2 0x100 MUL PUSH3 0xFFFF00 NOT PUSH1 0xFF SWAP1 SWAP5 AND PUSH1 0xFF NOT SWAP1 SWAP3 AND SWAP2 SWAP1 SWAP2 OR SWAP3 SWAP1 SWAP3 AND SWAP2 SWAP1 SWAP2 OR DUP1 DUP3 SSTORE PUSH1 0x60 DUP5 ADD MLOAD SWAP2 SWAP1 PUSH4 0xFF000000 NOT AND PUSH4 0x1000000 DUP4 PUSH1 0x4 DUP2 GT ISZERO PUSH2 0x1E82 JUMPI PUSH4 0x4E487B71 PUSH1 0xE0 SHL PUSH1 0x0 MSTORE PUSH1 0x21 PUSH1 0x4 MSTORE PUSH1 0x24 PUSH1 0x0 REVERT JUMPDEST MUL OR SWAP1 SSTORE POP PUSH1 0x80 DUP3 ADD MLOAD PUSH1 0x1 SWAP1 SWAP2 ADD DUP1 SLOAD PUSH1 0xA0 SWAP1 SWAP4 ADD MLOAD PUSH2 0xFFFF SWAP1 DUP2 AND PUSH1 0x1 PUSH1 0x30 SHL MUL PUSH2 0xFFFF PUSH1 0x30 SHL NOT SWAP2 SWAP1 SWAP4 AND PUSH1 0x1 PUSH1 0x20 SHL MUL PUSH2 0xFFFF PUSH1 0x20 SHL NOT SWAP1 SWAP5 AND SWAP4 SWAP1 SWAP4 OR SWAP3 SWAP1 SWAP3 AND OR SWAP1 SSTORE PUSH1 0x0 JUMPDEST DUP7 MLOAD DUP2 PUSH1 0xFF AND LT ISZERO PUSH2 0x1F71 JUMPI PUSH1 0x1 DUP1 SLOAD PUSH2 0x1EE9 SWAP1 DUP3 SWAP1 PUSH2 0x3A85 JUMP JUMPDEST DUP2 SLOAD DUP2 LT PUSH2 0x1F07 JUMPI PUSH4 0x4E487B71 PUSH1 0xE0 SHL PUSH1 0x0 MSTORE PUSH1 0x32 PUSH1 0x4 MSTORE PUSH1 0x24 PUSH1 0x0 REVERT JUMPDEST SWAP1 PUSH1 0x0 MSTORE PUSH1 0x20 PUSH1 0x0 KECCAK256 SWAP1 PUSH1 0x2 MUL ADD PUSH1 0x0 ADD DUP8 DUP3 PUSH1 0xFF AND DUP2 MLOAD DUP2 LT PUSH2 0x1F3B JUMPI PUSH4 0x4E487B71 PUSH1 0xE0 SHL PUSH1 0x0 MSTORE PUSH1 0x32 PUSH1 0x4 MSTORE PUSH1 0x24 PUSH1 0x0 REVERT JUMPDEST PUSH1 0x20 SWAP1 DUP2 MUL SWAP2 SWAP1 SWAP2 ADD DUP2 ADD MLOAD DUP3 SLOAD PUSH1 0x1 DUP2 DUP2 ADD DUP6 SSTORE PUSH1 0x0 SWAP5 DUP6 MSTORE SWAP3 SWAP1 SWAP4 KECCAK256 SWAP1 SWAP3 ADD SWAP2 SWAP1 SWAP2 SSTORE PUSH2 0x1F6A SWAP1 DUP3 PUSH2 0x3A3D JUMP JUMPDEST SWAP1 POP PUSH2 0x1ECE JUMP JUMPDEST POP PUSH1 0x1 PUSH1 0x1 PUSH1 0xA0 SHL SUB DUP8 AND PUSH1 0x0 SWAP1 DUP2 MSTORE PUSH1 0x3 PUSH1 0x20 MSTORE PUSH1 0x40 SWAP1 KECCAK256 PUSH1 0x1 DUP1 SLOAD PUSH2 0x1F98 SWAP2 SWAP1 PUSH2 0x3A85 JUMP JUMPDEST DUP2 SLOAD PUSH1 0x1 DUP2 DUP2 ADD DUP5 SSTORE PUSH1 0x0 SWAP4 DUP5 MSTORE PUSH1 0x20 DUP5 KECCAK256 SWAP1 SWAP2 ADD SWAP2 SWAP1 SWAP2 SSTORE DUP1 SLOAD DUP10 SWAP3 PUSH1 0x6 SWAP3 SWAP1 SWAP2 PUSH2 0x1FC4 SWAP2 SWAP1 PUSH2 0x3A85 JUMP JUMPDEST DUP2 MSTORE PUSH1 0x20 DUP2 ADD SWAP2 SWAP1 SWAP2 MSTORE PUSH1 0x40 ADD PUSH1 0x0 KECCAK256 DUP1 SLOAD PUSH1 0x1 PUSH1 0x1 PUSH1 0xA0 SHL SUB NOT AND PUSH1 0x1 PUSH1 0x1 PUSH1 0xA0 SHL SUB SWAP3 SWAP1 SWAP3 AND SWAP2 SWAP1 SWAP2 OR SWAP1 SSTORE PUSH1 0x1 DUP1 SLOAD PUSH32 0x67F794A23800C26D9E9CE3C51A9E95DD2C5A724C30030822F589294AFC81231B SWAP2 DUP10 SWAP2 PUSH2 0x2024 SWAP2 SWAP1 PUSH2 0x3A85 JUMP JUMPDEST PUSH1 0x40 MLOAD PUSH2 0x2032 SWAP3 SWAP2 SWAP1 PUSH2 0x35BA JUMP JUMPDEST PUSH1 0x40 MLOAD DUP1 SWAP2 SUB SWAP1 LOG1 PUSH1 0x1 DUP1 SLOAD PUSH2 0x2048 SWAP2 SWAP1 PUSH2 0x3A85 JUMP JUMPDEST SWAP5 POP SWAP1 SWAP3 POP POP POP JUMPDEST SWAP3 POP SWAP3 SWAP1 POP JUMP JUMPDEST PUSH1 0x0 DUP2 PUSH2 0x2065 PUSH1 0x1 NUMBER PUSH2 0x3A85 JUMP JUMPDEST PUSH2 0x8B0 SWAP2 SWAP1 BLOCKHASH PUSH2 0x3B2F JUMP JUMPDEST PUSH1 0x0 DUP1 PUSH1 0x1 DUP5 DUP2 SLOAD DUP2 LT PUSH2 0x2094 JUMPI PUSH4 0x4E487B71 PUSH1 0xE0 SHL PUSH1 0x0 MSTORE PUSH1 0x32 PUSH1 0x4 MSTORE PUSH1 0x24 PUSH1 0x0 REVERT JUMPDEST SWAP1 PUSH1 0x0 MSTORE PUSH1 0x20 PUSH1 0x0 KECCAK256 SWAP1 PUSH1 0x2 MUL ADD PUSH1 0x40 MLOAD DUP1 PUSH1 0xC0 ADD PUSH1 0x40 MSTORE SWAP1 DUP2 PUSH1 0x0 DUP3 ADD DUP1 SLOAD DUP1 PUSH1 0x20 MUL PUSH1 0x20 ADD PUSH1 0x40 MLOAD SWAP1 DUP2 ADD PUSH1 0x40 MSTORE DUP1 SWAP3 SWAP2 SWAP1 DUP2 DUP2 MSTORE PUSH1 0x20 ADD DUP3 DUP1 SLOAD DUP1 ISZERO PUSH2 0x20FC JUMPI PUSH1 0x20 MUL DUP3 ADD SWAP2 SWAP1 PUSH1 0x0 MSTORE PUSH1 0x20 PUSH1 0x0 KECCAK256 SWAP1 JUMPDEST DUP2 SLOAD DUP2 MSTORE PUSH1 0x20 ADD SWAP1 PUSH1 0x1 ADD SWAP1 DUP1 DUP4 GT PUSH2 0x20E8 JUMPI JUMPDEST POP POP POP SWAP2 DUP4 MSTORE POP POP PUSH1 0x1 DUP3 ADD SLOAD PUSH1 0xFF DUP1 DUP3 AND PUSH1 0x20 DUP5 ADD MSTORE PUSH2 0xFFFF PUSH2 0x100 DUP4 DIV AND PUSH1 0x40 DUP5 ADD MSTORE PUSH1 0x60 SWAP1 SWAP3 ADD SWAP2 PUSH4 0x1000000 SWAP1 SWAP2 DIV AND PUSH1 0x4 DUP2 GT ISZERO PUSH2 0x214F JUMPI PUSH4 0x4E487B71 PUSH1 0xE0 SHL PUSH1 0x0 MSTORE PUSH1 0x21 PUSH1 0x4 MSTORE PUSH1 0x24 PUSH1 0x0 REVERT JUMPDEST PUSH1 0x4 DUP2 GT ISZERO PUSH2 0x216E JUMPI PUSH4 0x4E487B71 PUSH1 0xE0 SHL PUSH1 0x0 MSTORE PUSH1 0x21 PUSH1 0x4 MSTORE PUSH1 0x24 PUSH1 0x0 REVERT JUMPDEST DUP2 MSTORE PUSH1 0x1 SWAP2 DUP3 ADD SLOAD PUSH2 0xFFFF PUSH1 0x1 PUSH1 0x20 SHL DUP3 DIV DUP2 AND PUSH1 0x20 DUP5 ADD MSTORE PUSH1 0x1 PUSH1 0x30 SHL SWAP1 SWAP2 DIV AND PUSH1 0x40 SWAP1 SWAP2 ADD MSTORE DUP1 SLOAD SWAP2 SWAP3 POP PUSH1 0x0 SWAP2 DUP6 SWAP1 DUP2 LT PUSH2 0x21BC JUMPI PUSH4 0x4E487B71 PUSH1 0xE0 SHL PUSH1 0x0 MSTORE PUSH1 0x32 PUSH1 0x4 MSTORE PUSH1 0x24 PUSH1 0x0 REVERT JUMPDEST SWAP1 PUSH1 0x0 MSTORE PUSH1 0x20 PUSH1 0x0 KECCAK256 SWAP1 PUSH1 0x2 MUL ADD PUSH1 0x40 MLOAD DUP1 PUSH1 0xC0 ADD PUSH1 0x40 MSTORE SWAP1 DUP2 PUSH1 0x0 DUP3 ADD DUP1 SLOAD DUP1 PUSH1 0x20 MUL PUSH1 0x20 ADD PUSH1 0x40 MLOAD SWAP1 DUP2 ADD PUSH1 0x40 MSTORE DUP1 SWAP3 SWAP2 SWAP1 DUP2 DUP2 MSTORE PUSH1 0x20 ADD DUP3 DUP1 SLOAD DUP1 ISZERO PUSH2 0x2224 JUMPI PUSH1 0x20 MUL DUP3 ADD SWAP2 SWAP1 PUSH1 0x0 MSTORE PUSH1 0x20 PUSH1 0x0 KECCAK256 SWAP1 JUMPDEST DUP2 SLOAD DUP2 MSTORE PUSH1 0x20 ADD SWAP1 PUSH1 0x1 ADD SWAP1 DUP1 DUP4 GT PUSH2 0x2210 JUMPI JUMPDEST POP POP POP SWAP2 DUP4 MSTORE POP POP PUSH1 0x1 DUP3 ADD SLOAD PUSH1 0xFF DUP1 DUP3 AND PUSH1 0x20 DUP5 ADD MSTORE PUSH2 0xFFFF PUSH2 0x100 DUP4 DIV AND PUSH1 0x40 DUP5 ADD MSTORE PUSH1 0x60 SWAP1 SWAP3 ADD SWAP2 PUSH4 0x1000000 SWAP1 SWAP2 DIV AND PUSH1 0x4 DUP2 GT ISZERO PUSH2 0x2277 JUMPI PUSH4 0x4E487B71 PUSH1 0xE0 SHL PUSH1 0x0 MSTORE PUSH1 0x21 PUSH1 0x4 MSTORE PUSH1 0x24 PUSH1 0x0 REVERT JUMPDEST PUSH1 0x4 DUP2 GT ISZERO PUSH2 0x2296 JUMPI PUSH4 0x4E487B71 PUSH1 0xE0 SHL PUSH1 0x0 MSTORE PUSH1 0x21 PUSH1 0x4 MSTORE PUSH1 0x24 PUSH1 0x0 REVERT JUMPDEST DUP2 MSTORE PUSH1 0x1 SWAP2 SWAP1 SWAP2 ADD SLOAD PUSH2 0xFFFF PUSH1 0x1 PUSH1 0x20 SHL DUP3 DIV DUP2 AND PUSH1 0x20 DUP5 ADD MSTORE PUSH1 0x1 PUSH1 0x30 SHL SWAP1 SWAP2 DIV AND PUSH1 0x40 SWAP1 SWAP2 ADD MSTORE PUSH1 0x60 DUP2 ADD MLOAD SWAP1 SWAP2 POP PUSH1 0x4 DUP2 GT ISZERO PUSH2 0x22E6 JUMPI PUSH4 0x4E487B71 PUSH1 0xE0 SHL PUSH1 0x0 MSTORE PUSH1 0x21 PUSH1 0x4 MSTORE PUSH1 0x24 PUSH1 0x0 REVERT JUMPDEST DUP3 PUSH1 0x60 ADD MLOAD PUSH1 0x4 DUP2 GT ISZERO PUSH2 0x230A JUMPI PUSH4 0x4E487B71 PUSH1 0xE0 SHL PUSH1 0x0 MSTORE PUSH1 0x21 PUSH1 0x4 MSTORE PUSH1 0x24 PUSH1 0x0 REVERT JUMPDEST EQ PUSH2 0x2314 JUMPI PUSH1 0x0 DUP1 REVERT JUMPDEST PUSH1 0x0 DUP3 PUSH1 0x60 ADD MLOAD PUSH1 0x4 DUP2 GT ISZERO PUSH2 0x233A JUMPI PUSH4 0x4E487B71 PUSH1 0xE0 SHL PUSH1 0x0 MSTORE PUSH1 0x21 PUSH1 0x4 MSTORE PUSH1 0x24 PUSH1 0x0 REVERT JUMPDEST EQ ISZERO PUSH2 0x2345 JUMPI PUSH1 0x0 DUP1 REVERT JUMPDEST PUSH1 0x20 DUP1 DUP4 ADD MLOAD SWAP1 DUP3 ADD MLOAD PUSH1 0x0 PUSH1 0xFF DUP4 AND PUSH1 0x1 PUSH1 0x1 PUSH1 0x40 SHL SUB DUP2 GT ISZERO PUSH2 0x237A JUMPI PUSH4 0x4E487B71 PUSH1 0xE0 SHL PUSH1 0x0 MSTORE PUSH1 0x41 PUSH1 0x4 MSTORE PUSH1 0x24 PUSH1 0x0 REVERT JUMPDEST PUSH1 0x40 MLOAD SWAP1 DUP1 DUP3 MSTORE DUP1 PUSH1 0x20 MUL PUSH1 0x20 ADD DUP3 ADD PUSH1 0x40 MSTORE DUP1 ISZERO PUSH2 0x23B3 JUMPI DUP2 PUSH1 0x20 ADD JUMPDEST PUSH2 0x23A0 PUSH2 0x31D8 JUMP JUMPDEST DUP2 MSTORE PUSH1 0x20 ADD SWAP1 PUSH1 0x1 SWAP1 SUB SWAP1 DUP2 PUSH2 0x2398 JUMPI SWAP1 POP JUMPDEST POP SWAP1 POP PUSH1 0x0 DUP3 PUSH1 0xFF AND PUSH1 0x1 PUSH1 0x1 PUSH1 0x40 SHL SUB DUP2 GT ISZERO PUSH2 0x23E1 JUMPI PUSH4 0x4E487B71 PUSH1 0xE0 SHL PUSH1 0x0 MSTORE PUSH1 0x41 PUSH1 0x4 MSTORE PUSH1 0x24 PUSH1 0x0 REVERT JUMPDEST PUSH1 0x40 MLOAD SWAP1 DUP1 DUP3 MSTORE DUP1 PUSH1 0x20 MUL PUSH1 0x20 ADD DUP3 ADD PUSH1 0x40 MSTORE DUP1 ISZERO PUSH2 0x241A JUMPI DUP2 PUSH1 0x20 ADD JUMPDEST PUSH2 0x2407 PUSH2 0x31D8 JUMP JUMPDEST DUP2 MSTORE PUSH1 0x20 ADD SWAP1 PUSH1 0x1 SWAP1 SUB SWAP1 DUP2 PUSH2 0x23FF JUMPI SWAP1 POP JUMPDEST POP SWAP1 POP PUSH1 0x0 JUMPDEST DUP5 PUSH1 0xFF AND DUP2 PUSH1 0xFF AND LT ISZERO PUSH2 0x27CB JUMPI PUSH1 0x0 DUP8 PUSH1 0x0 ADD MLOAD DUP3 PUSH1 0xFF AND DUP2 MLOAD DUP2 LT PUSH2 0x2457 JUMPI PUSH4 0x4E487B71 PUSH1 0xE0 SHL PUSH1 0x0 MSTORE PUSH1 0x32 PUSH1 0x4 MSTORE PUSH1 0x24 PUSH1 0x0 REVERT JUMPDEST PUSH1 0x20 MUL PUSH1 0x20 ADD ADD MLOAD DUP2 SLOAD DUP2 LT PUSH2 0x247D JUMPI PUSH4 0x4E487B71 PUSH1 0xE0 SHL PUSH1 0x0 MSTORE PUSH1 0x32 PUSH1 0x4 MSTORE PUSH1 0x24 PUSH1 0x0 REVERT JUMPDEST PUSH1 0x0 SWAP2 DUP3 MSTORE PUSH1 0x20 SWAP2 DUP3 SWAP1 KECCAK256 PUSH1 0x40 DUP1 MLOAD PUSH1 0xE0 DUP2 ADD DUP3 MSTORE PUSH1 0x2 SWAP4 DUP5 MUL SWAP1 SWAP3 ADD DUP1 SLOAD PUSH2 0xFFFF DUP1 DUP3 AND DUP6 MSTORE PUSH3 0x10000 DUP3 DIV DUP2 AND SWAP7 DUP6 ADD SWAP7 SWAP1 SWAP7 MSTORE PUSH1 0x1 PUSH1 0x20 SHL DUP2 DIV DUP7 AND SWAP3 DUP5 ADD SWAP3 SWAP1 SWAP3 MSTORE PUSH1 0x1 PUSH1 0x30 SHL DUP3 DIV DUP6 AND PUSH1 0x60 DUP5 ADD MSTORE PUSH1 0x1 PUSH1 0x40 SHL DUP3 DIV SWAP1 SWAP5 AND PUSH1 0x80 DUP4 ADD MSTORE SWAP1 SWAP3 SWAP2 PUSH1 0xA0 DUP5 ADD SWAP2 PUSH1 0x1 PUSH1 0x50 SHL SWAP1 DIV PUSH1 0xFF AND SWAP1 DUP2 GT ISZERO PUSH2 0x2510 JUMPI PUSH4 0x4E487B71 PUSH1 0xE0 SHL PUSH1 0x0 MSTORE PUSH1 0x21 PUSH1 0x4 MSTORE PUSH1 0x24 PUSH1 0x0 REVERT JUMPDEST PUSH1 0x2 DUP2 GT ISZERO PUSH2 0x252F JUMPI PUSH4 0x4E487B71 PUSH1 0xE0 SHL PUSH1 0x0 MSTORE PUSH1 0x21 PUSH1 0x4 MSTORE PUSH1 0x24 PUSH1 0x0 REVERT JUMPDEST DUP2 MSTORE PUSH1 0x20 ADD PUSH1 0x1 DUP3 ADD DUP1 SLOAD PUSH2 0x2543 SWAP1 PUSH2 0x3AB9 JUMP JUMPDEST DUP1 PUSH1 0x1F ADD PUSH1 0x20 DUP1 SWAP2 DIV MUL PUSH1 0x20 ADD PUSH1 0x40 MLOAD SWAP1 DUP2 ADD PUSH1 0x40 MSTORE DUP1 SWAP3 SWAP2 SWAP1 DUP2 DUP2 MSTORE PUSH1 0x20 ADD DUP3 DUP1 SLOAD PUSH2 0x256F SWAP1 PUSH2 0x3AB9 JUMP JUMPDEST DUP1 ISZERO PUSH2 0x25BC JUMPI DUP1 PUSH1 0x1F LT PUSH2 0x2591 JUMPI PUSH2 0x100 DUP1 DUP4 SLOAD DIV MUL DUP4 MSTORE SWAP2 PUSH1 0x20 ADD SWAP2 PUSH2 0x25BC JUMP JUMPDEST DUP3 ADD SWAP2 SWAP1 PUSH1 0x0 MSTORE PUSH1 0x20 PUSH1 0x0 KECCAK256 SWAP1 JUMPDEST DUP2 SLOAD DUP2 MSTORE SWAP1 PUSH1 0x1 ADD SWAP1 PUSH1 0x20 ADD DUP1 DUP4 GT PUSH2 0x259F JUMPI DUP3 SWAP1 SUB PUSH1 0x1F AND DUP3 ADD SWAP2 JUMPDEST POP POP POP POP POP DUP2 MSTORE POP POP DUP4 DUP3 PUSH1 0xFF AND DUP2 MLOAD DUP2 LT PUSH2 0x25E8 JUMPI PUSH4 0x4E487B71 PUSH1 0xE0 SHL PUSH1 0x0 MSTORE PUSH1 0x32 PUSH1 0x4 MSTORE PUSH1 0x24 PUSH1 0x0 REVERT JUMPDEST PUSH1 0x20 MUL PUSH1 0x20 ADD ADD DUP2 SWAP1 MSTORE POP PUSH1 0x0 DUP7 PUSH1 0x0 ADD MLOAD DUP3 PUSH1 0xFF AND DUP2 MLOAD DUP2 LT PUSH2 0x261C JUMPI PUSH4 0x4E487B71 PUSH1 0xE0 SHL PUSH1 0x0 MSTORE PUSH1 0x32 PUSH1 0x4 MSTORE PUSH1 0x24 PUSH1 0x0 REVERT JUMPDEST PUSH1 0x20 MUL PUSH1 0x20 ADD ADD MLOAD DUP2 SLOAD DUP2 LT PUSH2 0x2642 JUMPI PUSH4 0x4E487B71 PUSH1 0xE0 SHL PUSH1 0x0 MSTORE PUSH1 0x32 PUSH1 0x4 MSTORE PUSH1 0x24 PUSH1 0x0 REVERT JUMPDEST PUSH1 0x0 SWAP2 DUP3 MSTORE PUSH1 0x20 SWAP2 DUP3 SWAP1 KECCAK256 PUSH1 0x40 DUP1 MLOAD PUSH1 0xE0 DUP2 ADD DUP3 MSTORE PUSH1 0x2 SWAP4 DUP5 MUL SWAP1 SWAP3 ADD DUP1 SLOAD PUSH2 0xFFFF DUP1 DUP3 AND DUP6 MSTORE PUSH3 0x10000 DUP3 DIV DUP2 AND SWAP7 DUP6 ADD SWAP7 SWAP1 SWAP7 MSTORE PUSH1 0x1 PUSH1 0x20 SHL DUP2 DIV DUP7 AND SWAP3 DUP5 ADD SWAP3 SWAP1 SWAP3 MSTORE PUSH1 0x1 PUSH1 0x30 SHL DUP3 DIV DUP6 AND PUSH1 0x60 DUP5 ADD MSTORE PUSH1 0x1 PUSH1 0x40 SHL DUP3 DIV SWAP1 SWAP5 AND PUSH1 0x80 DUP4 ADD MSTORE SWAP1 SWAP3 SWAP2 PUSH1 0xA0 DUP5 ADD SWAP2 PUSH1 0x1 PUSH1 0x50 SHL SWAP1 DIV PUSH1 0xFF AND SWAP1 DUP2 GT ISZERO PUSH2 0x26D5 JUMPI PUSH4 0x4E487B71 PUSH1 0xE0 SHL PUSH1 0x0 MSTORE PUSH1 0x21 PUSH1 0x4 MSTORE PUSH1 0x24 PUSH1 0x0 REVERT JUMPDEST PUSH1 0x2 DUP2 GT ISZERO PUSH2 0x26F4 JUMPI PUSH4 0x4E487B71 PUSH1 0xE0 SHL PUSH1 0x0 MSTORE PUSH1 0x21 PUSH1 0x4 MSTORE PUSH1 0x24 PUSH1 0x0 REVERT JUMPDEST DUP2 MSTORE PUSH1 0x20 ADD PUSH1 0x1 DUP3 ADD DUP1 SLOAD PUSH2 0x2708 SWAP1 PUSH2 0x3AB9 JUMP JUMPDEST DUP1 PUSH1 0x1F ADD PUSH1 0x20 DUP1 SWAP2 DIV MUL PUSH1 0x20 ADD PUSH1 0x40 MLOAD SWAP1 DUP2 ADD PUSH1 0x40 MSTORE DUP1 SWAP3 SWAP2 SWAP1 DUP2 DUP2 MSTORE PUSH1 0x20 ADD DUP3 DUP1 SLOAD PUSH2 0x2734 SWAP1 PUSH2 0x3AB9 JUMP JUMPDEST DUP1 ISZERO PUSH2 0x2781 JUMPI DUP1 PUSH1 0x1F LT PUSH2 0x2756 JUMPI PUSH2 0x100 DUP1 DUP4 SLOAD DIV MUL DUP4 MSTORE SWAP2 PUSH1 0x20 ADD SWAP2 PUSH2 0x2781 JUMP JUMPDEST DUP3 ADD SWAP2 SWAP1 PUSH1 0x0 MSTORE PUSH1 0x20 PUSH1 0x0 KECCAK256 SWAP1 JUMPDEST DUP2 SLOAD DUP2 MSTORE SWAP1 PUSH1 0x1 ADD SWAP1 PUSH1 0x20 ADD DUP1 DUP4 GT PUSH2 0x2764 JUMPI DUP3 SWAP1 SUB PUSH1 0x1F AND DUP3 ADD SWAP2 JUMPDEST POP POP POP POP POP DUP2 MSTORE POP POP DUP3 DUP3 PUSH1 0xFF AND DUP2 MLOAD DUP2 LT PUSH2 0x27AD JUMPI PUSH4 0x4E487B71 PUSH1 0xE0 SHL PUSH1 0x0 MSTORE PUSH1 0x32 PUSH1 0x4 MSTORE PUSH1 0x24 PUSH1 0x0 REVERT JUMPDEST PUSH1 0x20 MUL PUSH1 0x20 ADD ADD DUP2 SWAP1 MSTORE POP DUP1 DUP1 PUSH2 0x27C3 SWAP1 PUSH2 0x3B0F JUMP JUMPDEST SWAP2 POP POP PUSH2 0x2420 JUMP JUMPDEST POP PUSH1 0x0 DUP1 PUSH1 0x0 DUP1 JUMPDEST PUSH1 0x0 DUP9 PUSH1 0xFF AND GT DUP1 ISZERO PUSH2 0x27E9 JUMPI POP PUSH1 0x0 DUP8 PUSH1 0xFF AND GT JUMPDEST ISZERO PUSH2 0x2B69 JUMPI DUP10 MLOAD MLOAD PUSH2 0x27FA SWAP1 PUSH2 0x2057 JUMP JUMPDEST PUSH2 0xFFFF AND SWAP4 POP JUMPDEST PUSH1 0x0 DUP7 DUP6 DUP2 MLOAD DUP2 LT PUSH2 0x2823 JUMPI PUSH4 0x4E487B71 PUSH1 0xE0 SHL PUSH1 0x0 MSTORE PUSH1 0x32 PUSH1 0x4 MSTORE PUSH1 0x24 PUSH1 0x0 REVERT JUMPDEST PUSH1 0x20 MUL PUSH1 0x20 ADD ADD MLOAD PUSH1 0x80 ADD MLOAD PUSH2 0xFFFF AND GT PUSH2 0x2857 JUMPI DUP10 MLOAD MLOAD PUSH2 0x2846 DUP6 PUSH1 0x1 PUSH2 0x3A25 JUMP JUMPDEST PUSH2 0x2850 SWAP2 SWAP1 PUSH2 0x3B2F JUMP JUMPDEST SWAP4 POP PUSH2 0x2801 JUMP JUMPDEST DUP9 MLOAD MLOAD PUSH2 0x2863 SWAP1 PUSH2 0x2057 JUMP JUMPDEST PUSH2 0xFFFF AND SWAP2 POP JUMPDEST PUSH1 0x0 DUP6 DUP4 DUP2 MLOAD DUP2 LT PUSH2 0x288C JUMPI PUSH4 0x4E487B71 PUSH1 0xE0 SHL PUSH1 0x0 MSTORE PUSH1 0x32 PUSH1 0x4 MSTORE PUSH1 0x24 PUSH1 0x0 REVERT JUMPDEST PUSH1 0x20 MUL PUSH1 0x20 ADD ADD MLOAD PUSH1 0x80 ADD MLOAD PUSH2 0xFFFF AND GT PUSH2 0x28C0 JUMPI DUP9 MLOAD MLOAD PUSH2 0x28AF DUP4 PUSH1 0x1 PUSH2 0x3A25 JUMP JUMPDEST PUSH2 0x28B9 SWAP2 SWAP1 PUSH2 0x3B2F JUMP JUMPDEST SWAP2 POP PUSH2 0x286A JUMP JUMPDEST DUP5 DUP3 DUP2 MLOAD DUP2 LT PUSH2 0x28E0 JUMPI PUSH4 0x4E487B71 PUSH1 0xE0 SHL PUSH1 0x0 MSTORE PUSH1 0x32 PUSH1 0x4 MSTORE PUSH1 0x24 PUSH1 0x0 REVERT JUMPDEST PUSH1 0x20 MUL PUSH1 0x20 ADD ADD MLOAD PUSH1 0x20 ADD MLOAD DUP7 DUP6 DUP2 MLOAD DUP2 LT PUSH2 0x290C JUMPI PUSH4 0x4E487B71 PUSH1 0xE0 SHL PUSH1 0x0 MSTORE PUSH1 0x32 PUSH1 0x4 MSTORE PUSH1 0x24 PUSH1 0x0 REVERT JUMPDEST PUSH1 0x20 MUL PUSH1 0x20 ADD ADD MLOAD PUSH1 0x0 ADD MLOAD PUSH2 0x2922 SWAP2 SWAP1 PUSH2 0x3A62 JUMP JUMPDEST DUP6 DUP4 DUP2 MLOAD DUP2 LT PUSH2 0x2942 JUMPI PUSH4 0x4E487B71 PUSH1 0xE0 SHL PUSH1 0x0 MSTORE PUSH1 0x32 PUSH1 0x4 MSTORE PUSH1 0x24 PUSH1 0x0 REVERT JUMPDEST PUSH1 0x20 MUL PUSH1 0x20 ADD ADD MLOAD PUSH1 0x80 ADD DUP2 DUP2 MLOAD PUSH2 0x295A SWAP2 SWAP1 PUSH2 0x3A62 JUMP JUMPDEST PUSH2 0xFFFF AND SWAP1 MSTORE POP DUP5 MLOAD PUSH1 0x0 SWAP1 DUP7 SWAP1 DUP5 SWAP1 DUP2 LT PUSH2 0x2986 JUMPI PUSH4 0x4E487B71 PUSH1 0xE0 SHL PUSH1 0x0 MSTORE PUSH1 0x32 PUSH1 0x4 MSTORE PUSH1 0x24 PUSH1 0x0 REVERT JUMPDEST PUSH1 0x20 MUL PUSH1 0x20 ADD ADD MLOAD PUSH1 0x80 ADD MLOAD PUSH2 0xFFFF AND GT PUSH2 0x29A9 JUMPI DUP7 PUSH2 0x29A5 DUP2 PUSH2 0x3A9C JUMP JUMPDEST SWAP8 POP POP JUMPDEST DUP9 MLOAD MLOAD PUSH2 0x29B5 SWAP1 PUSH2 0x2057 JUMP JUMPDEST PUSH2 0xFFFF AND SWAP3 POP JUMPDEST PUSH1 0x0 DUP6 DUP5 DUP2 MLOAD DUP2 LT PUSH2 0x29DE JUMPI PUSH4 0x4E487B71 PUSH1 0xE0 SHL PUSH1 0x0 MSTORE PUSH1 0x32 PUSH1 0x4 MSTORE PUSH1 0x24 PUSH1 0x0 REVERT JUMPDEST PUSH1 0x20 MUL PUSH1 0x20 ADD ADD MLOAD PUSH1 0x80 ADD MLOAD PUSH2 0xFFFF AND GT PUSH2 0x2A12 JUMPI DUP9 MLOAD MLOAD PUSH2 0x2A01 DUP5 PUSH1 0x1 PUSH2 0x3A25 JUMP JUMPDEST PUSH2 0x2A0B SWAP2 SWAP1 PUSH2 0x3B2F JUMP JUMPDEST SWAP3 POP PUSH2 0x29BC JUMP JUMPDEST DUP10 MLOAD MLOAD PUSH2 0x2A1E SWAP1 PUSH2 0x2057 JUMP JUMPDEST PUSH2 0xFFFF AND SWAP1 POP JUMPDEST PUSH1 0x0 DUP7 DUP3 DUP2 MLOAD DUP2 LT PUSH2 0x2A47 JUMPI PUSH4 0x4E487B71 PUSH1 0xE0 SHL PUSH1 0x0 MSTORE PUSH1 0x32 PUSH1 0x4 MSTORE PUSH1 0x24 PUSH1 0x0 REVERT JUMPDEST PUSH1 0x20 MUL PUSH1 0x20 ADD ADD MLOAD PUSH1 0x80 ADD MLOAD PUSH2 0xFFFF AND GT PUSH2 0x2A7B JUMPI DUP10 MLOAD MLOAD PUSH2 0x2A6A DUP3 PUSH1 0x1 PUSH2 0x3A25 JUMP JUMPDEST PUSH2 0x2A74 SWAP2 SWAP1 PUSH2 0x3B2F JUMP JUMPDEST SWAP1 POP PUSH2 0x2A25 JUMP JUMPDEST DUP6 DUP2 DUP2 MLOAD DUP2 LT PUSH2 0x2A9B JUMPI PUSH4 0x4E487B71 PUSH1 0xE0 SHL PUSH1 0x0 MSTORE PUSH1 0x32 PUSH1 0x4 MSTORE PUSH1 0x24 PUSH1 0x0 REVERT JUMPDEST PUSH1 0x20 MUL PUSH1 0x20 ADD ADD MLOAD PUSH1 0x20 ADD MLOAD DUP6 DUP5 DUP2 MLOAD DUP2 LT PUSH2 0x2AC7 JUMPI PUSH4 0x4E487B71 PUSH1 0xE0 SHL PUSH1 0x0 MSTORE PUSH1 0x32 PUSH1 0x4 MSTORE PUSH1 0x24 PUSH1 0x0 REVERT JUMPDEST PUSH1 0x20 MUL PUSH1 0x20 ADD ADD MLOAD PUSH1 0x0 ADD MLOAD PUSH2 0x2ADD SWAP2 SWAP1 PUSH2 0x3A62 JUMP JUMPDEST DUP7 DUP3 DUP2 MLOAD DUP2 LT PUSH2 0x2AFD JUMPI PUSH4 0x4E487B71 PUSH1 0xE0 SHL PUSH1 0x0 MSTORE PUSH1 0x32 PUSH1 0x4 MSTORE PUSH1 0x24 PUSH1 0x0 REVERT JUMPDEST PUSH1 0x20 MUL PUSH1 0x20 ADD ADD MLOAD PUSH1 0x80 ADD DUP2 DUP2 MLOAD PUSH2 0x2B15 SWAP2 SWAP1 PUSH2 0x3A62 JUMP JUMPDEST PUSH2 0xFFFF AND SWAP1 MSTORE POP DUP6 MLOAD PUSH1 0x0 SWAP1 DUP8 SWAP1 DUP4 SWAP1 DUP2 LT PUSH2 0x2B41 JUMPI PUSH4 0x4E487B71 PUSH1 0xE0 SHL PUSH1 0x0 MSTORE PUSH1 0x32 PUSH1 0x4 MSTORE PUSH1 0x24 PUSH1 0x0 REVERT JUMPDEST PUSH1 0x20 MUL PUSH1 0x20 ADD ADD MLOAD PUSH1 0x80 ADD MLOAD PUSH2 0xFFFF AND GT PUSH2 0x2B64 JUMPI DUP8 PUSH2 0x2B60 DUP2 PUSH2 0x3A9C JUMP JUMPDEST SWAP9 POP POP JUMPDEST PUSH2 0x27D3 JUMP JUMPDEST PUSH1 0x0 JUMPDEST DUP6 MLOAD DUP2 PUSH1 0xFF AND LT ISZERO PUSH2 0x2CF2 JUMPI DUP6 DUP2 PUSH1 0xFF AND DUP2 MLOAD DUP2 LT PUSH2 0x2B9B JUMPI PUSH4 0x4E487B71 PUSH1 0xE0 SHL PUSH1 0x0 MSTORE PUSH1 0x32 PUSH1 0x4 MSTORE PUSH1 0x24 PUSH1 0x0 REVERT JUMPDEST PUSH1 0x20 MUL PUSH1 0x20 ADD ADD MLOAD PUSH1 0x0 DUP12 PUSH1 0x0 ADD MLOAD DUP4 PUSH1 0xFF AND DUP2 MLOAD DUP2 LT PUSH2 0x2BCC JUMPI PUSH4 0x4E487B71 PUSH1 0xE0 SHL PUSH1 0x0 MSTORE PUSH1 0x32 PUSH1 0x4 MSTORE PUSH1 0x24 PUSH1 0x0 REVERT JUMPDEST PUSH1 0x20 MUL PUSH1 0x20 ADD ADD MLOAD DUP2 SLOAD DUP2 LT PUSH2 0x2BF2 JUMPI PUSH4 0x4E487B71 PUSH1 0xE0 SHL PUSH1 0x0 MSTORE PUSH1 0x32 PUSH1 0x4 MSTORE PUSH1 0x24 PUSH1 0x0 REVERT JUMPDEST PUSH1 0x0 SWAP2 DUP3 MSTORE PUSH1 0x20 SWAP2 DUP3 SWAP1 KECCAK256 DUP4 MLOAD PUSH1 0x2 SWAP3 DUP4 MUL SWAP1 SWAP2 ADD DUP1 SLOAD SWAP4 DUP6 ADD MLOAD PUSH1 0x40 DUP7 ADD MLOAD PUSH1 0x60 DUP8 ADD MLOAD PUSH1 0x80 DUP9 ADD MLOAD PUSH2 0xFFFF SWAP1 DUP2 AND PUSH1 0x1 PUSH1 0x40 SHL MUL PUSH2 0xFFFF PUSH1 0x40 SHL NOT SWAP3 DUP3 AND PUSH1 0x1 PUSH1 0x30 SHL MUL PUSH2 0xFFFF PUSH1 0x30 SHL NOT SWAP5 DUP4 AND PUSH1 0x1 PUSH1 0x20 SHL MUL PUSH2 0xFFFF PUSH1 0x20 SHL NOT SWAP7 DUP5 AND PUSH3 0x10000 MUL PUSH4 0xFFFF0000 NOT SWAP5 SWAP1 SWAP10 AND PUSH2 0xFFFF NOT SWAP1 SWAP12 AND SWAP11 SWAP1 SWAP11 OR SWAP3 SWAP1 SWAP3 AND SWAP7 SWAP1 SWAP7 OR SWAP4 SWAP1 SWAP4 AND SWAP7 SWAP1 SWAP7 OR AND OR SWAP4 SWAP1 SWAP4 AND OR DUP1 DUP4 SSTORE PUSH1 0xA0 DUP5 ADD MLOAD SWAP2 DUP4 SWAP2 PUSH1 0xFF PUSH1 0x50 SHL NOT AND SWAP1 PUSH1 0x1 PUSH1 0x50 SHL SWAP1 DUP5 SWAP1 DUP2 GT ISZERO PUSH2 0x2CBB JUMPI PUSH4 0x4E487B71 PUSH1 0xE0 SHL PUSH1 0x0 MSTORE PUSH1 0x21 PUSH1 0x4 MSTORE PUSH1 0x24 PUSH1 0x0 REVERT JUMPDEST MUL OR SWAP1 SSTORE POP PUSH1 0xC0 DUP3 ADD MLOAD DUP1 MLOAD PUSH2 0x2CDB SWAP2 PUSH1 0x1 DUP5 ADD SWAP2 PUSH1 0x20 SWAP1 SWAP2 ADD SWAP1 PUSH2 0x30F1 JUMP JUMPDEST POP SWAP1 POP POP DUP1 DUP1 PUSH2 0x2CEA SWAP1 PUSH2 0x3B0F JUMP JUMPDEST SWAP2 POP POP PUSH2 0x2B6C JUMP JUMPDEST POP PUSH1 0xFF DUP1 DUP9 AND PUSH1 0x20 DUP12 ADD MSTORE DUP9 AND PUSH2 0x2D16 JUMPI PUSH1 0x0 SWAP11 POP POP POP POP POP POP POP POP POP POP POP PUSH2 0xE84 JUMP JUMPDEST PUSH1 0xA SWAP11 POP POP POP POP POP POP POP POP POP POP POP PUSH2 0xE84 JUMP JUMPDEST PUSH1 0x40 DUP1 MLOAD PUSH1 0xE0 DUP2 ADD DUP3 MSTORE PUSH1 0x0 DUP1 DUP3 MSTORE PUSH1 0x20 DUP3 ADD DUP2 SWAP1 MSTORE PUSH1 0x1 SWAP3 DUP3 ADD SWAP3 SWAP1 SWAP3 MSTORE PUSH1 0x60 DUP2 ADD DUP3 SWAP1 MSTORE PUSH1 0x80 DUP2 ADD DUP3 SWAP1 MSTORE DUP2 SWAP1 PUSH1 0xA0 DUP2 ADD DUP6 PUSH1 0x2 DUP2 GT ISZERO PUSH2 0x2D7C JUMPI PUSH4 0x4E487B71 PUSH1 0xE0 SHL PUSH1 0x0 MSTORE PUSH1 0x21 PUSH1 0x4 MSTORE PUSH1 0x24 PUSH1 0x0 REVERT JUMPDEST DUP2 MSTORE PUSH1 0x20 ADD DUP5 SWAP1 MSTORE SWAP1 POP PUSH1 0x0 DUP5 PUSH1 0x2 DUP2 GT ISZERO PUSH2 0x2DA8 JUMPI PUSH4 0x4E487B71 PUSH1 0xE0 SHL PUSH1 0x0 MSTORE PUSH1 0x21 PUSH1 0x4 MSTORE PUSH1 0x24 PUSH1 0x0 REVERT JUMPDEST EQ ISZERO PUSH2 0x2E05 JUMPI PUSH1 0xF DUP2 PUSH1 0x0 ADD DUP2 DUP2 MLOAD PUSH2 0x2DC1 SWAP2 SWAP1 PUSH2 0x39FF JUMP JUMPDEST PUSH2 0xFFFF AND SWAP1 MSTORE POP PUSH1 0x20 DUP2 ADD DUP1 MLOAD PUSH1 0x1 SWAP2 SWAP1 PUSH2 0x2DDD SWAP1 DUP4 SWAP1 PUSH2 0x39FF JUMP JUMPDEST PUSH2 0xFFFF AND SWAP1 MSTORE POP PUSH1 0x60 DUP2 ADD DUP1 MLOAD PUSH1 0x32 SWAP2 SWAP1 PUSH2 0x2DF9 SWAP1 DUP4 SWAP1 PUSH2 0x39FF JUMP JUMPDEST PUSH2 0xFFFF AND SWAP1 MSTORE POP PUSH2 0x2ED7 JUMP JUMPDEST PUSH1 0x1 DUP5 PUSH1 0x2 DUP2 GT ISZERO PUSH2 0x2E27 JUMPI PUSH4 0x4E487B71 PUSH1 0xE0 SHL PUSH1 0x0 MSTORE PUSH1 0x21 PUSH1 0x4 MSTORE PUSH1 0x24 PUSH1 0x0 REVERT JUMPDEST EQ ISZERO PUSH2 0x2E5C JUMPI PUSH1 0xA DUP2 PUSH1 0x0 ADD DUP2 DUP2 MLOAD PUSH2 0x2E40 SWAP2 SWAP1 PUSH2 0x39FF JUMP JUMPDEST PUSH2 0xFFFF AND SWAP1 MSTORE POP PUSH1 0x20 DUP2 ADD DUP1 MLOAD PUSH1 0x5 SWAP2 SWAP1 PUSH2 0x2DDD SWAP1 DUP4 SWAP1 PUSH2 0x39FF JUMP JUMPDEST PUSH1 0x2 DUP5 PUSH1 0x2 DUP2 GT ISZERO PUSH2 0x2E7E JUMPI PUSH4 0x4E487B71 PUSH1 0xE0 SHL PUSH1 0x0 MSTORE PUSH1 0x21 PUSH1 0x4 MSTORE PUSH1 0x24 PUSH1 0x0 REVERT JUMPDEST EQ ISZERO PUSH2 0x2ED7 JUMPI PUSH1 0xA DUP2 PUSH1 0x0 ADD DUP2 DUP2 MLOAD PUSH2 0x2E97 SWAP2 SWAP1 PUSH2 0x39FF JUMP JUMPDEST PUSH2 0xFFFF AND SWAP1 MSTORE POP PUSH1 0x20 DUP2 ADD DUP1 MLOAD PUSH1 0x1 SWAP2 SWAP1 PUSH2 0x2EB3 SWAP1 DUP4 SWAP1 PUSH2 0x39FF JUMP JUMPDEST PUSH2 0xFFFF AND SWAP1 MSTORE POP PUSH1 0x60 DUP2 ADD DUP1 MLOAD PUSH1 0x4B SWAP2 SWAP1 PUSH2 0x2ECF SWAP1 DUP4 SWAP1 PUSH2 0x39FF JUMP JUMPDEST PUSH2 0xFFFF AND SWAP1 MSTORE POP JUMPDEST PUSH1 0x60 DUP2 ADD DUP1 MLOAD PUSH2 0xFFFF SWAP1 DUP2 AND PUSH1 0x80 DUP5 ADD SWAP1 DUP2 MSTORE PUSH1 0x0 DUP1 SLOAD PUSH1 0x1 DUP2 ADD DUP3 SSTORE DUP2 DUP1 MSTORE DUP6 MLOAD PUSH1 0x2 SWAP2 DUP3 MUL PUSH32 0x290DECD9548B62A8D60345A988386FC84BA6BC95484008F6362F93160EF3E563 ADD DUP1 SLOAD PUSH1 0x20 DUP10 ADD MLOAD PUSH1 0x40 DUP11 ADD MLOAD SWAP9 MLOAD SWAP7 MLOAD DUP9 AND PUSH1 0x1 PUSH1 0x40 SHL MUL PUSH2 0xFFFF PUSH1 0x40 SHL NOT SWAP8 DUP10 AND PUSH1 0x1 PUSH1 0x30 SHL MUL PUSH2 0xFFFF PUSH1 0x30 SHL NOT SWAP11 DUP11 AND PUSH1 0x1 PUSH1 0x20 SHL MUL PUSH2 0xFFFF PUSH1 0x20 SHL NOT SWAP4 DUP12 AND PUSH3 0x10000 MUL PUSH4 0xFFFF0000 NOT SWAP8 SWAP1 SWAP12 AND PUSH2 0xFFFF NOT SWAP1 SWAP6 AND SWAP5 SWAP1 SWAP5 OR SWAP6 SWAP1 SWAP6 AND SWAP9 SWAP1 SWAP9 OR AND OR SWAP7 SWAP1 SWAP7 AND OR SWAP3 SWAP1 SWAP3 AND SWAP3 SWAP1 SWAP3 OR DUP1 DUP5 SSTORE PUSH1 0xA0 DUP6 ADD MLOAD SWAP3 SWAP4 DUP6 SWAP4 SWAP1 SWAP3 SWAP1 SWAP2 DUP4 SWAP2 PUSH1 0xFF PUSH1 0x50 SHL NOT SWAP1 SWAP2 AND SWAP1 PUSH1 0x1 PUSH1 0x50 SHL SWAP1 DUP5 SWAP1 DUP2 GT ISZERO PUSH2 0x2FD4 JUMPI PUSH4 0x4E487B71 PUSH1 0xE0 SHL PUSH1 0x0 MSTORE PUSH1 0x21 PUSH1 0x4 MSTORE PUSH1 0x24 PUSH1 0x0 REVERT JUMPDEST MUL OR SWAP1 SSTORE POP PUSH1 0xC0 DUP3 ADD MLOAD DUP1 MLOAD PUSH2 0x2FF4 SWAP2 PUSH1 0x1 DUP5 ADD SWAP2 PUSH1 0x20 SWAP1 SWAP2 ADD SWAP1 PUSH2 0x30F1 JUMP JUMPDEST POP POP PUSH1 0x0 SLOAD ISZERO ISZERO SWAP1 POP PUSH2 0x3019 JUMPI PUSH1 0x40 MLOAD PUSH3 0x461BCD PUSH1 0xE5 SHL DUP2 MSTORE PUSH1 0x4 ADD PUSH2 0x4A8 SWAP1 PUSH2 0x386D JUMP JUMPDEST PUSH1 0x0 SLOAD PUSH2 0x3028 SWAP1 PUSH1 0x1 SWAP1 PUSH2 0x3A85 JUMP JUMPDEST PUSH1 0x0 DUP2 DUP2 MSTORE PUSH1 0x9 PUSH1 0x20 MSTORE PUSH1 0x40 SWAP1 KECCAK256 DUP1 SLOAD PUSH1 0xFF NOT AND PUSH1 0x3 OR SWAP1 SSTORE SWAP6 SWAP5 POP POP POP POP POP JUMP JUMPDEST PUSH1 0x0 DUP2 PUSH1 0x1 EQ ISZERO PUSH2 0x305D JUMPI POP PUSH1 0x1 PUSH2 0x8B3 JUMP JUMPDEST DUP2 PUSH1 0x3 EQ ISZERO PUSH2 0x306E JUMPI POP PUSH1 0x2 PUSH2 0x8B3 JUMP JUMPDEST DUP2 PUSH1 0x5 EQ ISZERO PUSH2 0x307F JUMPI POP PUSH1 0x3 PUSH2 0x8B3 JUMP JUMPDEST DUP2 PUSH1 0x7 EQ ISZERO PUSH2 0x3090 JUMPI POP PUSH1 0x4 PUSH2 0x8B3 JUMP JUMPDEST PUSH4 0x4E487B71 PUSH1 0xE0 SHL PUSH1 0x0 MSTORE PUSH1 0x1 PUSH1 0x4 MSTORE PUSH1 0x24 PUSH1 0x0 REVERT JUMPDEST DUP3 DUP1 SLOAD DUP3 DUP3 SSTORE SWAP1 PUSH1 0x0 MSTORE PUSH1 0x20 PUSH1 0x0 KECCAK256 SWAP1 DUP2 ADD SWAP3 DUP3 ISZERO PUSH2 0x30E1 JUMPI SWAP2 PUSH1 0x20 MUL DUP3 ADD JUMPDEST DUP3 DUP2 GT ISZERO PUSH2 0x30E1 JUMPI DUP3 MLOAD DUP3 SSTORE SWAP2 PUSH1 0x20 ADD SWAP2 SWAP1 PUSH1 0x1 ADD SWAP1 PUSH2 0x30C6 JUMP JUMPDEST POP PUSH2 0x30ED SWAP3 SWAP2 POP PUSH2 0x3215 JUMP JUMPDEST POP SWAP1 JUMP JUMPDEST DUP3 DUP1 SLOAD PUSH2 0x30FD SWAP1 PUSH2 0x3AB9 JUMP JUMPDEST SWAP1 PUSH1 0x0 MSTORE PUSH1 0x20 PUSH1 0x0 KECCAK256 SWAP1 PUSH1 0x1F ADD PUSH1 0x20 SWAP1 DIV DUP2 ADD SWAP3 DUP3 PUSH2 0x311F JUMPI PUSH1 0x0 DUP6 SSTORE PUSH2 0x30E1 JUMP JUMPDEST DUP3 PUSH1 0x1F LT PUSH2 0x3138 JUMPI DUP1 MLOAD PUSH1 0xFF NOT AND DUP4 DUP1 ADD OR DUP6 SSTORE PUSH2 0x30E1 JUMP JUMPDEST DUP3 DUP1 ADD PUSH1 0x1 ADD DUP6 SSTORE DUP3 ISZERO PUSH2 0x30E1 JUMPI SWAP2 DUP3 ADD DUP3 DUP2 GT ISZERO PUSH2 0x30E1 JUMPI DUP3 MLOAD DUP3 SSTORE SWAP2 PUSH1 0x20 ADD SWAP2 SWAP1 PUSH1 0x1 ADD SWAP1 PUSH2 0x30C6 JUMP JUMPDEST DUP3 DUP1 SLOAD PUSH2 0x3170 SWAP1 PUSH2 0x3AB9 JUMP JUMPDEST SWAP1 PUSH1 0x0 MSTORE PUSH1 0x20 PUSH1 0x0 KECCAK256 SWAP1 PUSH1 0x1F ADD PUSH1 0x20 SWAP1 DIV DUP2 ADD SWAP3 DUP3 PUSH2 0x3192 JUMPI PUSH1 0x0 DUP6 SSTORE PUSH2 0x30E1 JUMP JUMPDEST DUP3 PUSH1 0x1F LT PUSH2 0x31AB JUMPI DUP3 DUP1 ADD PUSH1 0xFF NOT DUP3 CALLDATALOAD AND OR DUP6 SSTORE PUSH2 0x30E1 JUMP JUMPDEST DUP3 DUP1 ADD PUSH1 0x1 ADD DUP6 SSTORE DUP3 ISZERO PUSH2 0x30E1 JUMPI SWAP2 DUP3 ADD JUMPDEST DUP3 DUP2 GT ISZERO PUSH2 0x30E1 JUMPI DUP3 CALLDATALOAD DUP3 SSTORE SWAP2 PUSH1 0x20 ADD SWAP2 SWAP1 PUSH1 0x1 ADD SWAP1 PUSH2 0x31BD JUMP JUMPDEST PUSH1 0x40 DUP1 MLOAD PUSH1 0xE0 DUP2 ADD DUP3 MSTORE PUSH1 0x0 DUP1 DUP3 MSTORE PUSH1 0x20 DUP3 ADD DUP2 SWAP1 MSTORE SWAP2 DUP2 ADD DUP3 SWAP1 MSTORE PUSH1 0x60 DUP2 ADD DUP3 SWAP1 MSTORE PUSH1 0x80 DUP2 ADD DUP3 SWAP1 MSTORE SWAP1 PUSH1 0xA0 DUP3 ADD SWAP1 DUP2 MSTORE PUSH1 0x20 ADD PUSH1 0x60 DUP2 MSTORE POP SWAP1 JUMP JUMPDEST JUMPDEST DUP1 DUP3 GT ISZERO PUSH2 0x30ED JUMPI PUSH1 0x0 DUP2 SSTORE PUSH1 0x1 ADD PUSH2 0x3216 JUMP JUMPDEST DUP1 CALLDATALOAD PUSH1 0x1 PUSH1 0x1 PUSH1 0xA0 SHL SUB DUP2 AND DUP2 EQ PUSH2 0x8B3 JUMPI PUSH1 0x0 DUP1 REVERT JUMPDEST PUSH1 0x0 DUP1 DUP4 PUSH1 0x1F DUP5 ADD SLT PUSH2 0x3252 JUMPI DUP2 DUP3 REVERT JUMPDEST POP DUP2 CALLDATALOAD PUSH1 0x1 PUSH1 0x1 PUSH1 0x40 SHL SUB DUP2 GT ISZERO PUSH2 0x3268 JUMPI DUP2 DUP3 REVERT JUMPDEST PUSH1 0x20 DUP4 ADD SWAP2 POP DUP4 PUSH1 0x20 DUP1 DUP4 MUL DUP6 ADD ADD GT ISZERO PUSH2 0x2050 JUMPI PUSH1 0x0 DUP1 REVERT JUMPDEST DUP1 CALLDATALOAD PUSH1 0x3 DUP2 LT PUSH2 0x8B3 JUMPI PUSH1 0x0 DUP1 REVERT JUMPDEST PUSH1 0x0 DUP1 DUP4 PUSH1 0x1F DUP5 ADD SLT PUSH2 0x32A2 JUMPI DUP2 DUP3 REVERT JUMPDEST POP DUP2 CALLDATALOAD PUSH1 0x1 PUSH1 0x1 PUSH1 0x40 SHL SUB DUP2 GT ISZERO PUSH2 0x32B8 JUMPI DUP2 DUP3 REVERT JUMPDEST PUSH1 0x20 DUP4 ADD SWAP2 POP DUP4 PUSH1 0x20 DUP3 DUP6 ADD ADD GT ISZERO PUSH2 0x2050 JUMPI PUSH1 0x0 DUP1 REVERT JUMPDEST PUSH1 0x0 PUSH1 0x20 DUP3 DUP5 SUB SLT ISZERO PUSH2 0x32E1 JUMPI DUP1 DUP2 REVERT JUMPDEST PUSH2 0x32EA DUP3 PUSH2 0x322A JUMP JUMPDEST SWAP4 SWAP3 POP POP POP JUMP JUMPDEST PUSH1 0x0 DUP1 PUSH1 0x0 PUSH1 0x60 DUP5 DUP7 SUB SLT ISZERO PUSH2 0x3305 JUMPI DUP2 DUP3 REVERT JUMPDEST PUSH2 0x330E DUP5 PUSH2 0x322A JUMP JUMPDEST SWAP3 POP PUSH2 0x331C PUSH1 0x20 DUP6 ADD PUSH2 0x322A JUMP JUMPDEST SWAP2 POP PUSH1 0x40 DUP5 ADD CALLDATALOAD SWAP1 POP SWAP3 POP SWAP3 POP SWAP3 JUMP JUMPDEST PUSH1 0x0 DUP1 PUSH1 0x40 DUP4 DUP6 SUB SLT ISZERO PUSH2 0x333E JUMPI DUP2 DUP3 REVERT JUMPDEST PUSH2 0x3347 DUP4 PUSH2 0x322A JUMP JUMPDEST SWAP5 PUSH1 0x20 SWAP4 SWAP1 SWAP4 ADD CALLDATALOAD SWAP4 POP POP POP JUMP JUMPDEST PUSH1 0x0 DUP1 PUSH1 0x20 DUP4 DUP6 SUB SLT ISZERO PUSH2 0x3367 JUMPI DUP2 DUP3 REVERT JUMPDEST DUP3 CALLDATALOAD PUSH1 0x1 PUSH1 0x1 PUSH1 0x40 SHL SUB DUP2 GT ISZERO PUSH2 0x337C JUMPI DUP3 DUP4 REVERT JUMPDEST PUSH2 0x3388 DUP6 DUP3 DUP7 ADD PUSH2 0x3241 JUMP JUMPDEST SWAP1 SWAP7 SWAP1 SWAP6 POP SWAP4 POP POP POP POP JUMP JUMPDEST PUSH1 0x0 DUP1 PUSH1 0x0 PUSH1 0x40 DUP5 DUP7 SUB SLT ISZERO PUSH2 0x33A8 JUMPI DUP3 DUP4 REVERT JUMPDEST DUP4 CALLDATALOAD PUSH1 0x1 PUSH1 0x1 PUSH1 0x40 SHL SUB DUP2 GT ISZERO PUSH2 0x33BD JUMPI DUP4 DUP5 REVERT JUMPDEST PUSH2 0x33C9 DUP7 DUP3 DUP8 ADD PUSH2 0x3241 JUMP JUMPDEST SWAP1 SWAP8 SWAP1 SWAP7 POP PUSH1 0x20 SWAP6 SWAP1 SWAP6 ADD CALLDATALOAD SWAP5 SWAP4 POP POP POP POP JUMP JUMPDEST PUSH1 0x0 PUSH1 0x20 DUP3 DUP5 SUB SLT ISZERO PUSH2 0x33EE JUMPI DUP1 DUP2 REVERT JUMPDEST DUP2 MLOAD DUP1 ISZERO ISZERO DUP2 EQ PUSH2 0x32EA JUMPI DUP2 DUP3 REVERT JUMPDEST PUSH1 0x0 PUSH1 0x20 DUP3 DUP5 SUB SLT ISZERO PUSH2 0x340E JUMPI DUP1 DUP2 REVERT JUMPDEST DUP2 CALLDATALOAD PUSH1 0x1 PUSH1 0x1 PUSH1 0xE0 SHL SUB NOT DUP2 AND DUP2 EQ PUSH2 0x32EA JUMPI DUP2 DUP3 REVERT JUMPDEST PUSH1 0x0 PUSH1 0x20 DUP3 DUP5 SUB SLT ISZERO PUSH2 0x3436 JUMPI DUP1 DUP2 REVERT JUMPDEST DUP2 CALLDATALOAD PUSH1 0x5 DUP2 LT PUSH2 0x32EA JUMPI DUP2 DUP3 REVERT JUMPDEST PUSH1 0x0 PUSH1 0x20 DUP3 DUP5 SUB SLT ISZERO PUSH2 0x3455 JUMPI DUP1 DUP2 REVERT JUMPDEST PUSH2 0x32EA DUP3 PUSH2 0x3282 JUMP JUMPDEST PUSH1 0x0 DUP1 PUSH1 0x0 PUSH1 0x40 DUP5 DUP7 SUB SLT ISZERO PUSH2 0x3472 JUMPI DUP3 DUP4 REVERT JUMPDEST PUSH2 0x347B DUP5 PUSH2 0x3282 JUMP JUMPDEST SWAP3 POP PUSH1 0x20 DUP5 ADD CALLDATALOAD PUSH1 0x1 PUSH1 0x1 PUSH1 0x40 SHL SUB DUP2 GT ISZERO PUSH2 0x3495 JUMPI DUP3 DUP4 REVERT JUMPDEST PUSH2 0x34A1 DUP7 DUP3 DUP8 ADD PUSH2 0x3291 JUMP JUMPDEST SWAP5 SWAP8 SWAP1 SWAP7 POP SWAP4 SWAP5 POP POP POP POP JUMP JUMPDEST PUSH1 0x0 PUSH1 0x20 DUP3 DUP5 SUB SLT ISZERO PUSH2 0x34BF JUMPI DUP1 DUP2 REVERT JUMPDEST POP CALLDATALOAD SWAP2 SWAP1 POP JUMP JUMPDEST PUSH1 0x0 DUP1 PUSH1 0x40 DUP4 DUP6 SUB SLT ISZERO PUSH2 0x34D8 JUMPI DUP2 DUP3 REVERT JUMPDEST POP POP DUP1 CALLDATALOAD SWAP3 PUSH1 0x20 SWAP1 SWAP2 ADD CALLDATALOAD SWAP2 POP JUMP JUMPDEST PUSH1 0x0 DUP1 PUSH1 0x0 DUP1 PUSH1 0x60 DUP6 DUP8 SUB SLT ISZERO PUSH2 0x34FC JUMPI DUP1 DUP2 REVERT JUMPDEST DUP5 CALLDATALOAD SWAP4 POP PUSH1 0x20 DUP6 ADD CALLDATALOAD SWAP3 POP PUSH1 0x40 DUP6 ADD CALLDATALOAD PUSH1 0x1 PUSH1 0x1 PUSH1 0x40 SHL SUB DUP2 GT ISZERO PUSH2 0x351F JUMPI DUP2 DUP3 REVERT JUMPDEST PUSH2 0x352B DUP8 DUP3 DUP9 ADD PUSH2 0x3291 JUMP JUMPDEST SWAP6 SWAP9 SWAP5 SWAP8 POP SWAP6 POP POP POP POP JUMP JUMPDEST PUSH1 0x0 DUP2 MLOAD DUP1 DUP5 MSTORE DUP2 JUMPDEST DUP2 DUP2 LT ISZERO PUSH2 0x355C JUMPI PUSH1 0x20 DUP2 DUP6 ADD DUP2 ADD MLOAD DUP7 DUP4 ADD DUP3 ADD MSTORE ADD PUSH2 0x3540 JUMP JUMPDEST DUP2 DUP2 GT ISZERO PUSH2 0x356D JUMPI DUP3 PUSH1 0x20 DUP4 DUP8 ADD ADD MSTORE JUMPDEST POP PUSH1 0x1F ADD PUSH1 0x1F NOT AND SWAP3 SWAP1 SWAP3 ADD PUSH1 0x20 ADD SWAP3 SWAP2 POP POP JUMP JUMPDEST PUSH1 0x1 PUSH1 0x1 PUSH1 0xA0 SHL SUB SWAP2 SWAP1 SWAP2 AND DUP2 MSTORE PUSH1 0x20 ADD SWAP1 JUMP JUMPDEST PUSH1 0x1 PUSH1 0x1 PUSH1 0xA0 SHL SUB SWAP4 DUP5 AND DUP2 MSTORE SWAP2 SWAP1 SWAP3 AND PUSH1 0x20 DUP3 ADD MSTORE PUSH1 0x40 DUP2 ADD SWAP2 SWAP1 SWAP2 MSTORE PUSH1 0x60 ADD SWAP1 JUMP JUMPDEST PUSH1 0x1 PUSH1 0x1 PUSH1 0xA0 SHL SUB SWAP3 SWAP1 SWAP3 AND DUP3 MSTORE PUSH1 0x20 DUP3 ADD MSTORE PUSH1 0x40 ADD SWAP1 JUMP JUMPDEST PUSH1 0x20 DUP1 DUP3 MSTORE DUP3 MLOAD DUP3 DUP3 ADD DUP2 SWAP1 MSTORE PUSH1 0x0 SWAP2 SWAP1 DUP5 DUP3 ADD SWAP1 PUSH1 0x40 DUP6 ADD SWAP1 DUP5 JUMPDEST DUP2 DUP2 LT ISZERO PUSH2 0x360B JUMPI DUP4 MLOAD DUP4 MSTORE SWAP3 DUP5 ADD SWAP3 SWAP2 DUP5 ADD SWAP2 PUSH1 0x1 ADD PUSH2 0x35EF JUMP JUMPDEST POP SWAP1 SWAP7 SWAP6 POP POP POP POP POP POP JUMP JUMPDEST SWAP1 ISZERO ISZERO DUP2 MSTORE PUSH1 0x20 ADD SWAP1 JUMP JUMPDEST PUSH1 0x20 DUP2 ADD PUSH2 0x362F DUP4 PUSH2 0x3B7B JUMP JUMPDEST SWAP2 SWAP1 MSTORE SWAP1 JUMP JUMPDEST PUSH1 0x0 PUSH1 0x20 DUP3 MSTORE PUSH2 0x32EA PUSH1 0x20 DUP4 ADD DUP5 PUSH2 0x3537 JUMP JUMPDEST PUSH1 0x20 DUP1 DUP3 MSTORE PUSH1 0x15 SWAP1 DUP3 ADD MSTORE PUSH21 0x4E6F7420612076616C696420756E69742074797065 PUSH1 0x58 SHL PUSH1 0x40 DUP3 ADD MSTORE PUSH1 0x60 ADD SWAP1 JUMP JUMPDEST PUSH1 0x20 DUP1 DUP3 MSTORE PUSH1 0x28 SWAP1 DUP3 ADD MSTORE PUSH32 0x497420697320746F6F206C61746520746F207769746864726177207468697320 PUSH1 0x40 DUP3 ADD MSTORE PUSH8 0x61756374696F6E21 PUSH1 0xC0 SHL PUSH1 0x60 DUP3 ADD MSTORE PUSH1 0x80 ADD SWAP1 JUMP JUMPDEST PUSH1 0x20 DUP1 DUP3 MSTORE PUSH1 0x25 SWAP1 DUP3 ADD MSTORE PUSH32 0x596F7520617265206E6F742074686520686F7374206F66207468697320617563 PUSH1 0x40 DUP3 ADD MSTORE PUSH5 0x74696F6E21 PUSH1 0xD8 SHL PUSH1 0x60 DUP3 ADD MSTORE PUSH1 0x80 ADD SWAP1 JUMP JUMPDEST PUSH1 0x20 DUP1 DUP3 MSTORE PUSH1 0x19 SWAP1 DUP3 ADD MSTORE PUSH25 0x165BDD48185B1C9958591E481BDDDB881D1A1A5CC81D5B9A5D PUSH1 0x3A SHL PUSH1 0x40 DUP3 ADD MSTORE PUSH1 0x60 ADD SWAP1 JUMP JUMPDEST PUSH1 0x20 DUP1 DUP3 MSTORE PUSH1 0x18 SWAP1 DUP3 ADD MSTORE PUSH24 0x596F7520646F6E2774206F776E207468697320756E697421 PUSH1 0x40 SHL PUSH1 0x40 DUP3 ADD MSTORE PUSH1 0x60 ADD SWAP1 JUMP JUMPDEST PUSH1 0x20 DUP1 DUP3 MSTORE PUSH1 0x17 SWAP1 DUP3 ADD MSTORE PUSH23 0x496E76616C6964206E756D626572206F6620756E697473 PUSH1 0x48 SHL PUSH1 0x40 DUP3 ADD MSTORE PUSH1 0x60 ADD SWAP1 JUMP JUMPDEST PUSH1 0x20 DUP1 DUP3 MSTORE PUSH1 0x1E SWAP1 DUP3 ADD MSTORE PUSH32 0x54686973206973206E6F742061206E6577206869676865737420626964210000 PUSH1 0x40 DUP3 ADD MSTORE PUSH1 0x60 ADD SWAP1 JUMP JUMPDEST PUSH1 0x20 DUP1 DUP3 MSTORE PUSH1 0xC SWAP1 DUP3 ADD MSTORE PUSH12 0x556E69742069732062757379 PUSH1 0xA0 SHL PUSH1 0x40 DUP3 ADD MSTORE PUSH1 0x60 ADD SWAP1 JUMP JUMPDEST PUSH1 0x20 DUP1 DUP3 MSTORE PUSH1 0x1B SWAP1 DUP3 ADD MSTORE PUSH27 0x4E6F7420612076616C696420616464726573732E20536F72727921 PUSH1 0x28 SHL PUSH1 0x40 DUP3 ADD MSTORE PUSH1 0x60 ADD SWAP1 JUMP JUMPDEST PUSH1 0x20 DUP1 DUP3 MSTORE PUSH1 0x21 SWAP1 DUP3 ADD MSTORE PUSH32 0x556E6974206973206E6F742070726F6D6973656420746F207468617420757365 PUSH1 0x40 DUP3 ADD MSTORE PUSH1 0x39 PUSH1 0xF9 SHL PUSH1 0x60 DUP3 ADD MSTORE PUSH1 0x80 ADD SWAP1 JUMP JUMPDEST PUSH1 0x20 DUP1 DUP3 MSTORE PUSH1 0x19 SWAP1 DUP3 ADD MSTORE PUSH25 0x756E6974732073686F756C64206E6F7420626520656D707479 PUSH1 0x38 SHL PUSH1 0x40 DUP3 ADD MSTORE PUSH1 0x60 ADD SWAP1 JUMP JUMPDEST PUSH1 0x20 DUP1 DUP3 MSTORE PUSH1 0x17 SWAP1 DUP3 ADD MSTORE PUSH23 0x165BDD48191BDB89DD081BDDDB881D1A1A5CC81D5B9A5D PUSH1 0x4A SHL PUSH1 0x40 DUP3 ADD MSTORE PUSH1 0x60 ADD SWAP1 JUMP JUMPDEST PUSH1 0x20 DUP1 DUP3 MSTORE PUSH1 0x13 SWAP1 DUP3 ADD MSTORE PUSH19 0x556E697420697320756E617661696C61626C65 PUSH1 0x68 SHL PUSH1 0x40 DUP3 ADD MSTORE PUSH1 0x60 ADD SWAP1 JUMP JUMPDEST PUSH2 0xFFFF DUP9 DUP2 AND DUP3 MSTORE DUP8 DUP2 AND PUSH1 0x20 DUP4 ADD MSTORE DUP7 DUP2 AND PUSH1 0x40 DUP4 ADD MSTORE DUP6 DUP2 AND PUSH1 0x60 DUP4 ADD MSTORE DUP5 AND PUSH1 0x80 DUP3 ADD MSTORE PUSH1 0x0 PUSH1 0x3 DUP5 LT PUSH2 0x3937 JUMPI PUSH2 0x3937 PUSH2 0x3B65 JUMP JUMPDEST DUP4 PUSH1 0xA0 DUP4 ADD MSTORE PUSH1 0xE0 PUSH1 0xC0 DUP4 ADD MSTORE PUSH2 0x3951 PUSH1 0xE0 DUP4 ADD DUP5 PUSH2 0x3537 JUMP JUMPDEST SWAP10 SWAP9 POP POP POP POP POP POP POP POP POP JUMP JUMPDEST SWAP1 DUP2 MSTORE PUSH1 0x20 ADD SWAP1 JUMP JUMPDEST DUP7 DUP2 MSTORE PUSH1 0x1 PUSH1 0x1 PUSH1 0xA0 SHL SUB DUP7 DUP2 AND PUSH1 0x20 DUP4 ADD MSTORE DUP6 AND PUSH1 0x40 DUP3 ADD MSTORE PUSH1 0xC0 PUSH1 0x60 DUP3 ADD DUP2 SWAP1 MSTORE PUSH1 0x0 SWAP1 PUSH2 0x3999 SWAP1 DUP4 ADD DUP7 PUSH2 0x3537 JUMP JUMPDEST DUP3 DUP2 SUB PUSH1 0x80 DUP5 ADD MSTORE PUSH2 0x39AB DUP2 DUP7 PUSH2 0x3537 JUMP JUMPDEST SWAP2 POP POP DUP3 PUSH1 0xA0 DUP4 ADD MSTORE SWAP8 SWAP7 POP POP POP POP POP POP POP JUMP JUMPDEST PUSH1 0xFF DUP7 AND DUP2 MSTORE PUSH2 0xFFFF DUP6 DUP2 AND PUSH1 0x20 DUP4 ADD MSTORE PUSH1 0xA0 DUP3 ADD SWAP1 PUSH2 0x39DE DUP7 PUSH2 0x3B7B JUMP JUMPDEST DUP6 PUSH1 0x40 DUP5 ADD MSTORE DUP1 DUP6 AND PUSH1 0x60 DUP5 ADD MSTORE DUP1 DUP5 AND PUSH1 0x80 DUP5 ADD MSTORE POP SWAP7 SWAP6 POP POP POP POP POP POP JUMP JUMPDEST PUSH1 0x0 PUSH2 0xFFFF DUP1 DUP4 AND DUP2 DUP6 AND DUP1 DUP4 SUB DUP3 GT ISZERO PUSH2 0x3A1C JUMPI PUSH2 0x3A1C PUSH2 0x3B4F JUMP JUMPDEST ADD SWAP5 SWAP4 POP POP POP POP JUMP JUMPDEST PUSH1 0x0 DUP3 NOT DUP3 GT ISZERO PUSH2 0x3A38 JUMPI PUSH2 0x3A38 PUSH2 0x3B4F JUMP JUMPDEST POP ADD SWAP1 JUMP JUMPDEST PUSH1 0x0 PUSH1 0xFF DUP3 AND PUSH1 0xFF DUP5 AND DUP1 PUSH1 0xFF SUB DUP3 GT ISZERO PUSH2 0x3A5A JUMPI PUSH2 0x3A5A PUSH2 0x3B4F JUMP JUMPDEST ADD SWAP4 SWAP3 POP POP POP JUMP JUMPDEST PUSH1 0x0 PUSH2 0xFFFF DUP4 DUP2 AND SWAP1 DUP4 AND DUP2 DUP2 LT ISZERO PUSH2 0x3A7D JUMPI PUSH2 0x3A7D PUSH2 0x3B4F JUMP JUMPDEST SUB SWAP4 SWAP3 POP POP POP JUMP JUMPDEST PUSH1 0x0 DUP3 DUP3 LT ISZERO PUSH2 0x3A97 JUMPI PUSH2 0x3A97 PUSH2 0x3B4F JUMP JUMPDEST POP SUB SWAP1 JUMP JUMPDEST PUSH1 0x0 PUSH1 0xFF DUP3 AND DUP1 PUSH2 0x3AAF JUMPI PUSH2 0x3AAF PUSH2 0x3B4F JUMP JUMPDEST PUSH1 0x0 NOT ADD SWAP3 SWAP2 POP POP JUMP JUMPDEST PUSH1 0x2 DUP2 DIV PUSH1 0x1 DUP3 AND DUP1 PUSH2 0x3ACD JUMPI PUSH1 0x7F DUP3 AND SWAP2 POP JUMPDEST PUSH1 0x20 DUP3 LT DUP2 EQ ISZERO PUSH2 0x3AEE JUMPI PUSH4 0x4E487B71 PUSH1 0xE0 SHL PUSH1 0x0 MSTORE PUSH1 0x22 PUSH1 0x4 MSTORE PUSH1 0x24 PUSH1 0x0 REVERT JUMPDEST POP SWAP2 SWAP1 POP JUMP JUMPDEST PUSH1 0x0 PUSH1 0x0 NOT DUP3 EQ ISZERO PUSH2 0x3B08 JUMPI PUSH2 0x3B08 PUSH2 0x3B4F JUMP JUMPDEST POP PUSH1 0x1 ADD SWAP1 JUMP JUMPDEST PUSH1 0x0 PUSH1 0xFF DUP3 AND PUSH1 0xFF DUP2 EQ ISZERO PUSH2 0x3B26 JUMPI PUSH2 0x3B26 PUSH2 0x3B4F JUMP JUMPDEST PUSH1 0x1 ADD SWAP3 SWAP2 POP POP JUMP JUMPDEST PUSH1 0x0 DUP3 PUSH2 0x3B4A JUMPI PUSH4 0x4E487B71 PUSH1 0xE0 SHL DUP2 MSTORE PUSH1 0x12 PUSH1 0x4 MSTORE PUSH1 0x24 DUP2 REVERT JUMPDEST POP MOD SWAP1 JUMP JUMPDEST PUSH4 0x4E487B71 PUSH1 0xE0 SHL PUSH1 0x0 MSTORE PUSH1 0x11 PUSH1 0x4 MSTORE PUSH1 0x24 PUSH1 0x0 REVERT JUMPDEST PUSH4 0x4E487B71 PUSH1 0xE0 SHL PUSH1 0x0 MSTORE PUSH1 0x21 PUSH1 0x4 MSTORE PUSH1 0x24 PUSH1 0x0 REVERT JUMPDEST PUSH1 0x5 DUP2 LT PUSH2 0x3B8B JUMPI PUSH2 0x3B8B PUSH2 0x3B65 JUMP JUMPDEST POP JUMP INVALID LOG2 PUSH5 0x6970667358 0x22 SLT KECCAK256 0xB8 GAS PUSH29 0x17D2B9A050E5A95CE0DEDE5D52577561777006EF3C1DA8DEE5AE48A8EC PUSH5 0x736F6C6343 STOP ADDMOD ADD STOP CALLER PUSH1 0x80 PUSH1 0x40 MSTORE PUSH4 0x3B9ACA00 PUSH1 0x0 SSTORE CALLVALUE DUP1 ISZERO PUSH2 0x18 JUMPI PUSH1 0x0 DUP1 REVERT JUMPDEST POP PUSH1 0x40 MLOAD PUSH2 0xC2A CODESIZE SUB DUP1 PUSH2 0xC2A DUP4 CODECOPY DUP2 ADD PUSH1 0x40 DUP2 SWAP1 MSTORE PUSH2 0x37 SWAP2 PUSH2 0x6C JUMP JUMPDEST PUSH1 0x4 DUP1 SLOAD PUSH1 0x1 PUSH1 0x1 PUSH1 0xA0 SHL SUB SWAP1 SWAP3 AND PUSH1 0x1 PUSH1 0x1 PUSH1 0xA0 SHL SUB NOT SWAP1 SWAP3 AND DUP3 OR SWAP1 SSTORE PUSH1 0x0 DUP1 SLOAD SWAP2 DUP2 MSTORE PUSH1 0x1 PUSH1 0x20 MSTORE PUSH1 0x40 SWAP1 KECCAK256 SSTORE PUSH2 0x9A JUMP JUMPDEST PUSH1 0x0 PUSH1 0x20 DUP3 DUP5 SUB SLT ISZERO PUSH2 0x7D JUMPI DUP1 DUP2 REVERT JUMPDEST DUP2 MLOAD PUSH1 0x1 PUSH1 0x1 PUSH1 0xA0 SHL SUB DUP2 AND DUP2 EQ PUSH2 0x93 JUMPI DUP2 DUP3 REVERT JUMPDEST SWAP4 SWAP3 POP POP POP JUMP JUMPDEST PUSH2 0xB81 DUP1 PUSH2 0xA9 PUSH1 0x0 CODECOPY PUSH1 0x0 RETURN INVALID PUSH1 0x80 PUSH1 0x40 MSTORE PUSH1 0x4 CALLDATASIZE LT PUSH2 0xC3 JUMPI PUSH1 0x0 CALLDATALOAD PUSH1 0xE0 SHR DUP1 PUSH4 0x1FFC9A7 EQ PUSH2 0xC8 JUMPI DUP1 PUSH4 0x6FDDE03 EQ PUSH2 0xFE JUMPI DUP1 PUSH4 0x95EA7B3 EQ PUSH2 0x120 JUMPI DUP1 PUSH4 0x18160DDD EQ PUSH2 0x140 JUMPI DUP1 PUSH4 0x23B872DD EQ PUSH2 0x162 JUMPI DUP1 PUSH4 0x3290CE29 EQ PUSH2 0x182 JUMPI DUP1 PUSH4 0x332B888D EQ PUSH2 0x18C JUMPI DUP1 PUSH4 0x535B6773 EQ PUSH2 0x1A7 JUMPI DUP1 PUSH4 0x70A08231 EQ PUSH2 0x1C7 JUMPI DUP1 PUSH4 0x89EB068A EQ PUSH2 0x1E7 JUMPI DUP1 PUSH4 0x95D89B41 EQ PUSH2 0x1FC JUMPI DUP1 PUSH4 0xA9059CBB EQ PUSH2 0x211 JUMPI DUP1 PUSH4 0xABB8D5C3 EQ PUSH2 0x231 JUMPI DUP1 PUSH4 0xAF7D6CA3 EQ PUSH2 0x251 JUMPI DUP1 PUSH4 0xD4E7B8AD EQ PUSH2 0x271 JUMPI DUP1 PUSH4 0xDD62ED3E EQ PUSH2 0x291 JUMPI JUMPDEST PUSH1 0x0 DUP1 REVERT JUMPDEST CALLVALUE DUP1 ISZERO PUSH2 0xD4 JUMPI PUSH1 0x0 DUP1 REVERT JUMPDEST POP PUSH2 0xE8 PUSH2 0xE3 CALLDATASIZE PUSH1 0x4 PUSH2 0x918 JUMP JUMPDEST PUSH2 0x2B1 JUMP JUMPDEST PUSH1 0x40 MLOAD PUSH2 0xF5 SWAP2 SWAP1 PUSH2 0x958 JUMP JUMPDEST PUSH1 0x40 MLOAD DUP1 SWAP2 SUB SWAP1 RETURN JUMPDEST CALLVALUE DUP1 ISZERO PUSH2 0x10A JUMPI PUSH1 0x0 DUP1 REVERT JUMPDEST POP PUSH2 0x113 PUSH2 0x2B9 JUMP JUMPDEST PUSH1 0x40 MLOAD PUSH2 0xF5 SWAP2 SWAP1 PUSH2 0x963 JUMP JUMPDEST CALLVALUE DUP1 ISZERO PUSH2 0x12C JUMPI PUSH1 0x0 DUP1 REVERT JUMPDEST POP PUSH2 0xE8 PUSH2 0x13B CALLDATASIZE PUSH1 0x4 PUSH2 0x8EF JUMP JUMPDEST PUSH2 0x2E8 JUMP JUMPDEST CALLVALUE DUP1 ISZERO PUSH2 0x14C JUMPI PUSH1 0x0 DUP1 REVERT JUMPDEST POP PUSH2 0x155 PUSH2 0x2FC JUMP JUMPDEST PUSH1 0x40 MLOAD PUSH2 0xF5 SWAP2 SWAP1 PUSH2 0xA9E JUMP JUMPDEST CALLVALUE DUP1 ISZERO PUSH2 0x16E JUMPI PUSH1 0x0 DUP1 REVERT JUMPDEST POP PUSH2 0xE8 PUSH2 0x17D CALLDATASIZE PUSH1 0x4 PUSH2 0x8B4 JUMP JUMPDEST PUSH2 0x302 JUMP JUMPDEST PUSH2 0x18A PUSH2 0x41E JUMP JUMPDEST STOP JUMPDEST CALLVALUE DUP1 ISZERO PUSH2 0x198 JUMPI PUSH1 0x0 DUP1 REVERT JUMPDEST POP PUSH2 0xE8 PUSH2 0xE3 CALLDATASIZE PUSH1 0x4 PUSH2 0x940 JUMP JUMPDEST CALLVALUE DUP1 ISZERO PUSH2 0x1B3 JUMPI PUSH1 0x0 DUP1 REVERT JUMPDEST POP PUSH2 0xE8 PUSH2 0x1C2 CALLDATASIZE PUSH1 0x4 PUSH2 0x8EF JUMP JUMPDEST PUSH2 0x44F JUMP JUMPDEST CALLVALUE DUP1 ISZERO PUSH2 0x1D3 JUMPI PUSH1 0x0 DUP1 REVERT JUMPDEST POP PUSH2 0x155 PUSH2 0x1E2 CALLDATASIZE PUSH1 0x4 PUSH2 0x868 JUMP JUMPDEST PUSH2 0x4EA JUMP JUMPDEST CALLVALUE DUP1 ISZERO PUSH2 0x1F3 JUMPI PUSH1 0x0 DUP1 REVERT JUMPDEST POP PUSH2 0x18A PUSH2 0x505 JUMP JUMPDEST CALLVALUE DUP1 ISZERO PUSH2 0x208 JUMPI PUSH1 0x0 DUP1 REVERT JUMPDEST POP PUSH2 0x113 PUSH2 0x527 JUMP JUMPDEST CALLVALUE DUP1 ISZERO PUSH2 0x21D JUMPI PUSH1 0x0 DUP1 REVERT JUMPDEST POP PUSH2 0xE8 PUSH2 0x22C CALLDATASIZE PUSH1 0x4 PUSH2 0x8EF JUMP JUMPDEST PUSH2 0x547 JUMP JUMPDEST CALLVALUE DUP1 ISZERO PUSH2 0x23D JUMPI PUSH1 0x0 DUP1 REVERT JUMPDEST POP PUSH2 0xE8 PUSH2 0x24C CALLDATASIZE PUSH1 0x4 PUSH2 0x8EF JUMP JUMPDEST PUSH2 0x5FD JUMP JUMPDEST CALLVALUE DUP1 ISZERO PUSH2 0x25D JUMPI PUSH1 0x0 DUP1 REVERT JUMPDEST POP PUSH2 0xE8 PUSH2 0x26C CALLDATASIZE PUSH1 0x4 PUSH2 0x8EF JUMP JUMPDEST PUSH2 0x642 JUMP JUMPDEST CALLVALUE DUP1 ISZERO PUSH2 0x27D JUMPI PUSH1 0x0 DUP1 REVERT JUMPDEST POP PUSH2 0x155 PUSH2 0x28C CALLDATASIZE PUSH1 0x4 PUSH2 0x868 JUMP JUMPDEST PUSH2 0x709 JUMP JUMPDEST CALLVALUE DUP1 ISZERO PUSH2 0x29D JUMPI PUSH1 0x0 DUP1 REVERT JUMPDEST POP PUSH2 0x155 PUSH2 0x2AC CALLDATASIZE PUSH1 0x4 PUSH2 0x882 JUMP JUMPDEST PUSH2 0x73D JUMP JUMPDEST PUSH1 0x1 JUMPDEST SWAP2 SWAP1 POP JUMP JUMPDEST PUSH1 0x40 DUP1 MLOAD DUP1 DUP3 ADD SWAP1 SWAP2 MSTORE PUSH1 0x15 DUP2 MSTORE PUSH21 0x20BABA37A1B432B9B99029BA37B932902A37B5B2B7 PUSH1 0x59 SHL PUSH1 0x20 DUP3 ADD MSTORE SWAP1 JUMP JUMPDEST PUSH1 0x0 PUSH2 0x2F5 CALLER DUP5 DUP5 PUSH2 0x768 JUMP JUMPDEST SWAP4 SWAP3 POP POP POP JUMP JUMPDEST PUSH1 0x0 SLOAD SWAP1 JUMP JUMPDEST PUSH1 0x1 PUSH1 0x1 PUSH1 0xA0 SHL SUB DUP1 DUP5 AND PUSH1 0x0 SWAP1 DUP2 MSTORE PUSH1 0x2 PUSH1 0x20 SWAP1 DUP2 MSTORE PUSH1 0x40 DUP1 DUP4 KECCAK256 SWAP4 DUP7 AND DUP4 MSTORE SWAP3 SWAP1 MSTORE SWAP1 DUP2 KECCAK256 SLOAD DUP3 LT PUSH2 0x351 JUMPI PUSH1 0x40 MLOAD PUSH3 0x461BCD PUSH1 0xE5 SHL DUP2 MSTORE PUSH1 0x4 ADD PUSH2 0x348 SWAP1 PUSH2 0x9B6 JUMP JUMPDEST PUSH1 0x40 MLOAD DUP1 SWAP2 SUB SWAP1 REVERT JUMPDEST PUSH1 0x1 PUSH1 0x1 PUSH1 0xA0 SHL SUB DUP1 DUP6 AND PUSH1 0x0 SWAP1 DUP2 MSTORE PUSH1 0x2 PUSH1 0x20 SWAP1 DUP2 MSTORE PUSH1 0x40 DUP1 DUP4 KECCAK256 SWAP4 DUP8 AND DUP4 MSTORE SWAP3 SWAP1 MSTORE SWAP1 DUP2 KECCAK256 DUP1 SLOAD DUP5 SWAP3 SWAP1 PUSH2 0x388 SWAP1 DUP5 SWAP1 PUSH2 0xADE JUMP JUMPDEST SWAP1 SWAP2 SSTORE POP POP PUSH1 0x1 PUSH1 0x1 PUSH1 0xA0 SHL SUB DUP5 AND PUSH1 0x0 SWAP1 DUP2 MSTORE PUSH1 0x3 PUSH1 0x20 MSTORE PUSH1 0x40 DUP2 KECCAK256 DUP1 SLOAD DUP5 SWAP3 SWAP1 PUSH2 0x3B5 SWAP1 DUP5 SWAP1 PUSH2 0xADE JUMP JUMPDEST SWAP1 SWAP2 SSTORE POP POP PUSH1 0x1 PUSH1 0x1 PUSH1 0xA0 SHL SUB DUP5 AND PUSH1 0x0 SWAP1 DUP2 MSTORE PUSH1 0x1 PUSH1 0x20 MSTORE PUSH1 0x40 DUP2 KECCAK256 DUP1 SLOAD DUP5 SWAP3 SWAP1 PUSH2 0x3E2 SWAP1 DUP5 SWAP1 PUSH2 0xADE JUMP JUMPDEST SWAP1 SWAP2 SSTORE POP POP PUSH1 0x1 PUSH1 0x1 PUSH1 0xA0 SHL SUB DUP4 AND PUSH1 0x0 SWAP1 DUP2 MSTORE PUSH1 0x1 PUSH1 0x20 MSTORE PUSH1 0x40 DUP2 KECCAK256 DUP1 SLOAD DUP5 SWAP3 SWAP1 PUSH2 0x40F SWAP1 DUP5 SWAP1 PUSH2 0xAA7 JUMP JUMPDEST SWAP1 SWAP2 SSTORE POP PUSH1 0x1 SWAP6 SWAP5 POP POP POP POP POP JUMP JUMPDEST PUSH2 0x429 CALLVALUE PUSH1 0x64 PUSH2 0xABF JUMP JUMPDEST CALLER PUSH1 0x0 SWAP1 DUP2 MSTORE PUSH1 0x1 PUSH1 0x20 MSTORE PUSH1 0x40 DUP2 KECCAK256 DUP1 SLOAD SWAP1 SWAP2 SWAP1 PUSH2 0x448 SWAP1 DUP5 SWAP1 PUSH2 0xAA7 JUMP JUMPDEST SWAP1 SWAP2 SSTORE POP POP JUMP JUMPDEST PUSH1 0x4 SLOAD PUSH1 0x0 SWAP1 PUSH1 0x1 PUSH1 0x1 PUSH1 0xA0 SHL SUB AND CALLER EQ PUSH2 0x47C JUMPI PUSH1 0x40 MLOAD PUSH3 0x461BCD PUSH1 0xE5 SHL DUP2 MSTORE PUSH1 0x4 ADD PUSH2 0x348 SWAP1 PUSH2 0xA53 JUMP JUMPDEST PUSH1 0x1 PUSH1 0x1 PUSH1 0xA0 SHL SUB DUP4 AND PUSH1 0x0 SWAP1 DUP2 MSTORE PUSH1 0x2 PUSH1 0x20 SWAP1 DUP2 MSTORE PUSH1 0x40 DUP1 DUP4 KECCAK256 CALLER DUP5 MSTORE SWAP1 SWAP2 MSTORE DUP2 KECCAK256 DUP1 SLOAD DUP5 SWAP3 SWAP1 PUSH2 0x4AF SWAP1 DUP5 SWAP1 PUSH2 0xADE JUMP JUMPDEST SWAP1 SWAP2 SSTORE POP POP PUSH1 0x1 PUSH1 0x1 PUSH1 0xA0 SHL SUB DUP4 AND PUSH1 0x0 SWAP1 DUP2 MSTORE PUSH1 0x3 PUSH1 0x20 MSTORE PUSH1 0x40 DUP2 KECCAK256 DUP1 SLOAD DUP5 SWAP3 SWAP1 PUSH2 0x4DC SWAP1 DUP5 SWAP1 PUSH2 0xADE JUMP JUMPDEST SWAP1 SWAP2 SSTORE POP PUSH1 0x1 SWAP5 SWAP4 POP POP POP POP JUMP JUMPDEST PUSH1 0x1 PUSH1 0x1 PUSH1 0xA0 SHL SUB AND PUSH1 0x0 SWAP1 DUP2 MSTORE PUSH1 0x1 PUSH1 0x20 MSTORE PUSH1 0x40 SWAP1 KECCAK256 SLOAD SWAP1 JUMP JUMPDEST CALLER PUSH1 0x0 SWAP1 DUP2 MSTORE PUSH1 0x1 PUSH1 0x20 MSTORE PUSH1 0x40 DUP2 KECCAK256 DUP1 SLOAD PUSH3 0x186A0 SWAP3 SWAP1 PUSH2 0x448 SWAP1 DUP5 SWAP1 PUSH2 0xAA7 JUMP JUMPDEST PUSH1 0x40 DUP1 MLOAD DUP1 DUP3 ADD SWAP1 SWAP2 MSTORE PUSH1 0x6 DUP2 MSTORE PUSH6 0x1050D214D4D5 PUSH1 0xD2 SHL PUSH1 0x20 DUP3 ADD MSTORE SWAP1 JUMP JUMPDEST PUSH1 0x0 DUP2 PUSH2 0x553 CALLER PUSH2 0x709 JUMP JUMPDEST GT PUSH2 0x570 JUMPI PUSH1 0x40 MLOAD PUSH3 0x461BCD PUSH1 0xE5 SHL DUP2 MSTORE PUSH1 0x4 ADD PUSH2 0x348 SWAP1 PUSH2 0x9E0 JUMP JUMPDEST CALLER PUSH1 0x0 SWAP1 DUP2 MSTORE PUSH1 0x1 PUSH1 0x20 MSTORE PUSH1 0x40 DUP2 KECCAK256 DUP1 SLOAD DUP5 SWAP3 SWAP1 PUSH2 0x58F SWAP1 DUP5 SWAP1 PUSH2 0xADE JUMP JUMPDEST SWAP1 SWAP2 SSTORE POP POP PUSH1 0x1 PUSH1 0x1 PUSH1 0xA0 SHL SUB DUP4 AND PUSH1 0x0 SWAP1 DUP2 MSTORE PUSH1 0x1 PUSH1 0x20 MSTORE PUSH1 0x40 DUP2 KECCAK256 DUP1 SLOAD DUP5 SWAP3 SWAP1 PUSH2 0x5BC SWAP1 DUP5 SWAP1 PUSH2 0xAA7 JUMP JUMPDEST SWAP1 SWAP2 SSTORE POP POP PUSH1 0x40 MLOAD PUSH1 0x1 PUSH1 0x1 PUSH1 0xA0 SHL SUB DUP5 AND SWAP1 CALLER SWAP1 PUSH1 0x0 DUP1 MLOAD PUSH1 0x20 PUSH2 0xB2C DUP4 CODECOPY DUP2 MLOAD SWAP2 MSTORE SWAP1 PUSH2 0x5EC SWAP1 DUP7 SWAP1 PUSH2 0xA9E JUMP JUMPDEST PUSH1 0x40 MLOAD DUP1 SWAP2 SUB SWAP1 LOG3 POP PUSH1 0x1 SWAP3 SWAP2 POP POP JUMP JUMPDEST PUSH1 0x4 SLOAD PUSH1 0x0 SWAP1 PUSH1 0x1 PUSH1 0x1 PUSH1 0xA0 SHL SUB AND CALLER EQ PUSH2 0x62A JUMPI PUSH1 0x40 MLOAD PUSH3 0x461BCD PUSH1 0xE5 SHL DUP2 MSTORE PUSH1 0x4 ADD PUSH2 0x348 SWAP1 PUSH2 0xA53 JUMP JUMPDEST PUSH1 0x4 SLOAD PUSH2 0x2F5 SWAP1 DUP5 SWAP1 PUSH1 0x1 PUSH1 0x1 PUSH1 0xA0 SHL SUB AND DUP5 PUSH2 0x768 JUMP JUMPDEST PUSH1 0x4 SLOAD PUSH1 0x0 SWAP1 PUSH1 0x1 PUSH1 0x1 PUSH1 0xA0 SHL SUB AND CALLER EQ PUSH2 0x66F JUMPI PUSH1 0x40 MLOAD PUSH3 0x461BCD PUSH1 0xE5 SHL DUP2 MSTORE PUSH1 0x4 ADD PUSH2 0x348 SWAP1 PUSH2 0xA53 JUMP JUMPDEST DUP2 PUSH2 0x679 DUP5 PUSH2 0x709 JUMP JUMPDEST GT PUSH2 0x696 JUMPI PUSH1 0x40 MLOAD PUSH3 0x461BCD PUSH1 0xE5 SHL DUP2 MSTORE PUSH1 0x4 ADD PUSH2 0x348 SWAP1 PUSH2 0x9E0 JUMP JUMPDEST DUP2 PUSH1 0x0 DUP1 DUP3 DUP3 SLOAD PUSH2 0x6A7 SWAP2 SWAP1 PUSH2 0xADE JUMP JUMPDEST SWAP1 SWAP2 SSTORE POP POP PUSH1 0x1 PUSH1 0x1 PUSH1 0xA0 SHL SUB DUP4 AND PUSH1 0x0 SWAP1 DUP2 MSTORE PUSH1 0x1 PUSH1 0x20 MSTORE PUSH1 0x40 DUP2 KECCAK256 DUP1 SLOAD DUP5 SWAP3 SWAP1 PUSH2 0x6D4 SWAP1 DUP5 SWAP1 PUSH2 0xADE JUMP JUMPDEST SWAP1 SWAP2 SSTORE POP POP PUSH1 0x4 SLOAD PUSH1 0x40 MLOAD PUSH1 0x1 PUSH1 0x1 PUSH1 0xA0 SHL SUB SWAP2 DUP3 AND SWAP2 DUP6 AND SWAP1 PUSH1 0x0 DUP1 MLOAD PUSH1 0x20 PUSH2 0xB2C DUP4 CODECOPY DUP2 MLOAD SWAP2 MSTORE SWAP1 PUSH2 0x5EC SWAP1 DUP7 SWAP1 PUSH2 0xA9E JUMP JUMPDEST PUSH1 0x1 PUSH1 0x1 PUSH1 0xA0 SHL SUB DUP2 AND PUSH1 0x0 SWAP1 DUP2 MSTORE PUSH1 0x3 PUSH1 0x20 SWAP1 DUP2 MSTORE PUSH1 0x40 DUP1 DUP4 KECCAK256 SLOAD PUSH1 0x1 SWAP1 SWAP3 MSTORE DUP3 KECCAK256 SLOAD PUSH2 0x737 SWAP2 SWAP1 PUSH2 0xADE JUMP JUMPDEST SWAP3 SWAP2 POP POP JUMP JUMPDEST PUSH1 0x1 PUSH1 0x1 PUSH1 0xA0 SHL SUB SWAP2 DUP3 AND PUSH1 0x0 SWAP1 DUP2 MSTORE PUSH1 0x2 PUSH1 0x20 SWAP1 DUP2 MSTORE PUSH1 0x40 DUP1 DUP4 KECCAK256 SWAP4 SWAP1 SWAP5 AND DUP3 MSTORE SWAP2 SWAP1 SWAP2 MSTORE KECCAK256 SLOAD SWAP1 JUMP JUMPDEST PUSH1 0x0 DUP2 PUSH2 0x774 DUP6 PUSH2 0x709 JUMP JUMPDEST GT PUSH2 0x791 JUMPI PUSH1 0x40 MLOAD PUSH3 0x461BCD PUSH1 0xE5 SHL DUP2 MSTORE PUSH1 0x4 ADD PUSH2 0x348 SWAP1 PUSH2 0xA1A JUMP JUMPDEST PUSH1 0x1 PUSH1 0x1 PUSH1 0xA0 SHL SUB DUP1 DUP6 AND PUSH1 0x0 SWAP1 DUP2 MSTORE PUSH1 0x2 PUSH1 0x20 SWAP1 DUP2 MSTORE PUSH1 0x40 DUP1 DUP4 KECCAK256 SWAP4 DUP8 AND DUP4 MSTORE SWAP3 SWAP1 MSTORE SWAP1 DUP2 KECCAK256 DUP1 SLOAD DUP5 SWAP3 SWAP1 PUSH2 0x7C8 SWAP1 DUP5 SWAP1 PUSH2 0xAA7 JUMP JUMPDEST SWAP1 SWAP2 SSTORE POP POP PUSH1 0x1 PUSH1 0x1 PUSH1 0xA0 SHL SUB DUP5 AND PUSH1 0x0 SWAP1 DUP2 MSTORE PUSH1 0x3 PUSH1 0x20 MSTORE PUSH1 0x40 DUP2 KECCAK256 DUP1 SLOAD DUP5 SWAP3 SWAP1 PUSH2 0x7F5 SWAP1 DUP5 SWAP1 PUSH2 0xAA7 JUMP JUMPDEST SWAP3 POP POP DUP2 SWAP1 SSTORE POP DUP3 PUSH1 0x1 PUSH1 0x1 PUSH1 0xA0 SHL SUB AND DUP5 PUSH1 0x1 PUSH1 0x1 PUSH1 0xA0 SHL SUB AND PUSH32 0x8C5BE1E5EBEC7D5BD14F71427D1E84F3DD0314C0F7B2291E5B200AC8C7C3B925 DUP5 PUSH1 0x40 MLOAD PUSH2 0x83F SWAP2 SWAP1 PUSH2 0xA9E JUMP JUMPDEST PUSH1 0x40 MLOAD DUP1 SWAP2 SUB SWAP1 LOG3 POP PUSH1 0x1 SWAP4 SWAP3 POP POP POP JUMP JUMPDEST DUP1 CALLDATALOAD PUSH1 0x1 PUSH1 0x1 PUSH1 0xA0 SHL SUB DUP2 AND DUP2 EQ PUSH2 0x2B4 JUMPI PUSH1 0x0 DUP1 REVERT JUMPDEST PUSH1 0x0 PUSH1 0x20 DUP3 DUP5 SUB SLT ISZERO PUSH2 0x879 JUMPI DUP1 DUP2 REVERT JUMPDEST PUSH2 0x2F5 DUP3 PUSH2 0x851 JUMP JUMPDEST PUSH1 0x0 DUP1 PUSH1 0x40 DUP4 DUP6 SUB SLT ISZERO PUSH2 0x894 JUMPI DUP1 DUP2 REVERT JUMPDEST PUSH2 0x89D DUP4 PUSH2 0x851 JUMP JUMPDEST SWAP2 POP PUSH2 0x8AB PUSH1 0x20 DUP5 ADD PUSH2 0x851 JUMP JUMPDEST SWAP1 POP SWAP3 POP SWAP3 SWAP1 POP JUMP JUMPDEST PUSH1 0x0 DUP1 PUSH1 0x0 PUSH1 0x60 DUP5 DUP7 SUB SLT ISZERO PUSH2 0x8C8 JUMPI DUP1 DUP2 REVERT JUMPDEST PUSH2 0x8D1 DUP5 PUSH2 0x851 JUMP JUMPDEST SWAP3 POP PUSH2 0x8DF PUSH1 0x20 DUP6 ADD PUSH2 0x851 JUMP JUMPDEST SWAP2 POP PUSH1 0x40 DUP5 ADD CALLDATALOAD SWAP1 POP SWAP3 POP SWAP3 POP SWAP3 JUMP JUMPDEST PUSH1 0x0 DUP1 PUSH1 0x40 DUP4 DUP6 SUB SLT ISZERO PUSH2 0x901 JUMPI DUP2 DUP3 REVERT JUMPDEST PUSH2 0x90A DUP4 PUSH2 0x851 JUMP JUMPDEST SWAP5 PUSH1 0x20 SWAP4 SWAP1 SWAP4 ADD CALLDATALOAD SWAP4 POP POP POP JUMP JUMPDEST PUSH1 0x0 PUSH1 0x20 DUP3 DUP5 SUB SLT ISZERO PUSH2 0x929 JUMPI DUP1 DUP2 REVERT JUMPDEST DUP2 CALLDATALOAD PUSH1 0x1 PUSH1 0x1 PUSH1 0xE0 SHL SUB NOT DUP2 AND DUP2 EQ PUSH2 0x2F5 JUMPI DUP2 DUP3 REVERT JUMPDEST PUSH1 0x0 PUSH1 0x20 DUP3 DUP5 SUB SLT ISZERO PUSH2 0x951 JUMPI DUP1 DUP2 REVERT JUMPDEST POP CALLDATALOAD SWAP2 SWAP1 POP JUMP JUMPDEST SWAP1 ISZERO ISZERO DUP2 MSTORE PUSH1 0x20 ADD SWAP1 JUMP JUMPDEST PUSH1 0x0 PUSH1 0x20 DUP1 DUP4 MSTORE DUP4 MLOAD DUP1 DUP3 DUP6 ADD MSTORE DUP3 JUMPDEST DUP2 DUP2 LT ISZERO PUSH2 0x98F JUMPI DUP6 DUP2 ADD DUP4 ADD MLOAD DUP6 DUP3 ADD PUSH1 0x40 ADD MSTORE DUP3 ADD PUSH2 0x973 JUMP JUMPDEST DUP2 DUP2 GT ISZERO PUSH2 0x9A0 JUMPI DUP4 PUSH1 0x40 DUP4 DUP8 ADD ADD MSTORE JUMPDEST POP PUSH1 0x1F ADD PUSH1 0x1F NOT AND SWAP3 SWAP1 SWAP3 ADD PUSH1 0x40 ADD SWAP4 SWAP3 POP POP POP JUMP JUMPDEST PUSH1 0x20 DUP1 DUP3 MSTORE PUSH1 0x10 SWAP1 DUP3 ADD MSTORE PUSH16 0x416D6F756E7420746F6F206C61726765 PUSH1 0x80 SHL PUSH1 0x40 DUP3 ADD MSTORE PUSH1 0x60 ADD SWAP1 JUMP JUMPDEST PUSH1 0x20 DUP1 DUP3 MSTORE PUSH1 0x2C SWAP1 DUP3 ADD MSTORE PUSH1 0x0 DUP1 MLOAD PUSH1 0x20 PUSH2 0xB0C DUP4 CODECOPY DUP2 MLOAD SWAP2 MSTORE PUSH1 0x40 DUP3 ADD MSTORE PUSH12 0x6F7572206163636F756E7421 PUSH1 0xA0 SHL PUSH1 0x60 DUP3 ADD MSTORE PUSH1 0x80 ADD SWAP1 JUMP JUMPDEST PUSH1 0x20 DUP1 DUP3 MSTORE PUSH1 0x2B SWAP1 DUP3 ADD MSTORE PUSH1 0x0 DUP1 MLOAD PUSH1 0x20 PUSH2 0xB0C DUP4 CODECOPY DUP2 MLOAD SWAP2 MSTORE PUSH1 0x40 DUP3 ADD MSTORE PUSH11 0x1BDD5C881858D8DBDD5B9D PUSH1 0xAA SHL PUSH1 0x60 DUP3 ADD MSTORE PUSH1 0x80 ADD SWAP1 JUMP JUMPDEST PUSH1 0x20 DUP1 DUP3 MSTORE PUSH1 0x2B SWAP1 DUP3 ADD MSTORE PUSH32 0x4F6E6C79207468652053746F726546726F6E7420697320616C6C6F7765642074 PUSH1 0x40 DUP3 ADD MSTORE PUSH11 0x37903AB9B2903A3434B997 PUSH1 0xA9 SHL PUSH1 0x60 DUP3 ADD MSTORE PUSH1 0x80 ADD SWAP1 JUMP JUMPDEST SWAP1 DUP2 MSTORE PUSH1 0x20 ADD SWAP1 JUMP JUMPDEST PUSH1 0x0 DUP3 NOT DUP3 GT ISZERO PUSH2 0xABA JUMPI PUSH2 0xABA PUSH2 0xAF5 JUMP JUMPDEST POP ADD SWAP1 JUMP JUMPDEST PUSH1 0x0 DUP2 PUSH1 0x0 NOT DIV DUP4 GT DUP3 ISZERO ISZERO AND ISZERO PUSH2 0xAD9 JUMPI PUSH2 0xAD9 PUSH2 0xAF5 JUMP JUMPDEST POP MUL SWAP1 JUMP JUMPDEST PUSH1 0x0 DUP3 DUP3 LT ISZERO PUSH2 0xAF0 JUMPI PUSH2 0xAF0 PUSH2 0xAF5 JUMP JUMPDEST POP SUB SWAP1 JUMP JUMPDEST PUSH4 0x4E487B71 PUSH1 0xE0 SHL PUSH1 0x0 MSTORE PUSH1 0x11 PUSH1 0x4 MSTORE PUSH1 0x24 PUSH1 0x0 REVERT INVALID SLOAD PUSH16 0x6F2066657720746F6B656E7320617265 KECCAK256 PUSH22 0x6E6C6F636B656420696E2079DDF252AD1BE2C89B69C2 0xB0 PUSH9 0xFC378DAA952BA7F163 0xC4 LOG1 AND 0x28 CREATE2 GAS 0x4D CREATE2 0x23 0xB3 0xEF LOG2 PUSH5 0x6970667358 0x22 SLT KECCAK256 0xDC 0xAD 0xC1 DUP10 SWAP9 SSTORE 0xC9 0x2A 0xCD 0x5C JUMPDEST 0xD4 0xAE 0xD0 0xC6 TIMESTAMP 0x5C 0xD4 0x1F INVALID 0xE SWAP15 PUSH20 0xE02E941222897D7064736F6C63430008010033 LOG2 PUSH5 0x6970667358 0x22 SLT KECCAK256 ADDMOD PUSH24 0xCC4D3E1C67624F46DDDE4367E28D880CA3D4C284273F2C29 0xE2 DUP6 0x5C SWAP4 PUSH12 0x8564736F6C63430008010033 "
		},
		"gasEstimates": {
			"creation": {
				"codeDepositCost": "5776000",
				"executionCost": "7061",
				"totalCost": "5783061"
			},
			"external": {
				"beforeAll()": "infinite",
				"testBuyUnit()": "infinite",
				"testCreateAuction()": "infinite",
				"testCreateSquad()": "infinite",
				"testCreateSquadRandom()": "infinite"
			}
		},
		"methodIdentifiers": {
			"beforeAll()": "7fea0d4b",
			"testBuyUnit()": "deead6db",
			"testCreateAuction()": "d23d3722",
			"testCreateSquad()": "0259be24",
			"testCreateSquadRandom()": "d97de67a"
		}
	},
	"abi": [
		{
			"inputs": [],
			"name": "beforeAll",
			"outputs": [],
			"stateMutability": "nonpayable",
			"type": "function"
		},
		{
			"inputs": [],
			"name": "testBuyUnit",
			"outputs": [],
			"stateMutability": "nonpayable",
			"type": "function"
		},
		{
			"inputs": [],
			"name": "testCreateAuction",
			"outputs": [],
			"stateMutability": "nonpayable",
			"type": "function"
		},
		{
			"inputs": [],
			"name": "testCreateSquad",
			"outputs": [],
			"stateMutability": "nonpayable",
			"type": "function"
		},
		{
			"inputs": [],
			"name": "testCreateSquadRandom",
			"outputs": [],
			"stateMutability": "nonpayable",
			"type": "function"
		}
	]
}