{
	"data": {
		"bytecode": {
			"linkReferences": {},
			"object": "61010f61003a600b82828239805160001a60731461002d57634e487b7160e01b600052600060045260246000fd5b30600052607381538281f3fe730000000000000000000000000000000000000000301460806040526004361060335760003560e01c80634f062c5a146038575b600080fd5b60476043366004609b565b605b565b6040516052919060b2565b60405180910390f35b60008160011415606c575060026096565b8160031415607b575060036096565b8160051415608a575060046096565b81600714156096575060055b919050565b60006020828403121560ab578081fd5b5035919050565b602081016006831060d357634e487b7160e01b600052602160045260246000fd5b9190529056fea264697066735822122012ad26c12877c94d2a63e9c9f3fdd8d0524cb856faf6f1987874b394d1c2eebc64736f6c63430008030033",
			"opcodes": "PUSH2 0x10F PUSH2 0x3A PUSH1 0xB DUP3 DUP3 DUP3 CODECOPY DUP1 MLOAD PUSH1 0x0 BYTE PUSH1 0x73 EQ PUSH2 0x2D JUMPI PUSH4 0x4E487B71 PUSH1 0xE0 SHL PUSH1 0x0 MSTORE PUSH1 0x0 PUSH1 0x4 MSTORE PUSH1 0x24 PUSH1 0x0 REVERT JUMPDEST ADDRESS PUSH1 0x0 MSTORE PUSH1 0x73 DUP2 MSTORE8 DUP3 DUP2 RETURN INVALID PUSH20 0x0 ADDRESS EQ PUSH1 0x80 PUSH1 0x40 MSTORE PUSH1 0x4 CALLDATASIZE LT PUSH1 0x33 JUMPI PUSH1 0x0 CALLDATALOAD PUSH1 0xE0 SHR DUP1 PUSH4 0x4F062C5A EQ PUSH1 0x38 JUMPI JUMPDEST PUSH1 0x0 DUP1 REVERT JUMPDEST PUSH1 0x47 PUSH1 0x43 CALLDATASIZE PUSH1 0x4 PUSH1 0x9B JUMP JUMPDEST PUSH1 0x5B JUMP JUMPDEST PUSH1 0x40 MLOAD PUSH1 0x52 SWAP2 SWAP1 PUSH1 0xB2 JUMP JUMPDEST PUSH1 0x40 MLOAD DUP1 SWAP2 SUB SWAP1 RETURN JUMPDEST PUSH1 0x0 DUP2 PUSH1 0x1 EQ ISZERO PUSH1 0x6C JUMPI POP PUSH1 0x2 PUSH1 0x96 JUMP JUMPDEST DUP2 PUSH1 0x3 EQ ISZERO PUSH1 0x7B JUMPI POP PUSH1 0x3 PUSH1 0x96 JUMP JUMPDEST DUP2 PUSH1 0x5 EQ ISZERO PUSH1 0x8A JUMPI POP PUSH1 0x4 PUSH1 0x96 JUMP JUMPDEST DUP2 PUSH1 0x7 EQ ISZERO PUSH1 0x96 JUMPI POP PUSH1 0x5 JUMPDEST SWAP2 SWAP1 POP JUMP JUMPDEST PUSH1 0x0 PUSH1 0x20 DUP3 DUP5 SUB SLT ISZERO PUSH1 0xAB JUMPI DUP1 DUP2 REVERT JUMPDEST POP CALLDATALOAD SWAP2 SWAP1 POP JUMP JUMPDEST PUSH1 0x20 DUP2 ADD PUSH1 0x6 DUP4 LT PUSH1 0xD3 JUMPI PUSH4 0x4E487B71 PUSH1 0xE0 SHL PUSH1 0x0 MSTORE PUSH1 0x21 PUSH1 0x4 MSTORE PUSH1 0x24 PUSH1 0x0 REVERT JUMPDEST SWAP2 SWAP1 MSTORE SWAP1 JUMP INVALID LOG2 PUSH5 0x6970667358 0x22 SLT KECCAK256 SLT 0xAD 0x26 0xC1 0x28 PUSH24 0xC94D2A63E9C9F3FDD8D0524CB856FAF6F1987874B394D1C2 0xEE 0xBC PUSH5 0x736F6C6343 STOP ADDMOD SUB STOP CALLER "
		},
		"gasEstimates": {
			"creation": {
				"codeDepositCost": "54200",
				"executionCost": "136",
				"totalCost": "54336"
			},
			"external": {
				"getTier(uint256)": "407"
			}
		},
		"methodIdentifiers": {
			"getTier(uint256)": "4f062c5a"
		}
	},
	"abi": [
		{
			"inputs": [
				{
					"internalType": "uint256",
					"name": "unitCount",
					"type": "uint256"
				}
			],
			"name": "getTier",
			"outputs": [
				{
					"internalType": "enum DeploymentState",
					"name": "state",
					"type": "DeploymentState"
				}
			],
			"stateMutability": "pure",
			"type": "function"
		}
	]
}