{
	"data": {
		"bytecode": {
			"linkReferences": {},
			"object": "6101bc61003a600b82828239805160001a60731461002d57634e487b7160e01b600052600060045260246000fd5b30600052607381538281f3fe73000000000000000000000000000000000000000030146080604052600436106100405760003560e01c80634f062c5a14610045578063f970dd021461006e575b600080fd5b6100586100533660046100f4565b61008e565b604051610065919061010c565b60405180910390f35b61008161007c3660046100f4565b6100d5565b6040516100659190610134565b600081600114156100a1575060016100d0565b81600314156100b2575060026100d0565b81600514156100c3575060036100d0565b81600714156100d0575060045b919050565b6000816100e3600143610143565b6100ee919040610166565b92915050565b600060208284031215610105578081fd5b5035919050565b602081016005831061012e57634e487b7160e01b600052602160045260246000fd5b91905290565b61ffff91909116815260200190565b60008282101561016157634e487b7160e01b81526011600452602481fd5b500390565b60008261018157634e487b7160e01b81526012600452602481fd5b50069056fea264697066735822122031e6dbf2519847d5ca6bce6b915458b3d53f0a5b37c9a0d8ce4d4d89de80277064736f6c63430008010033",
			"opcodes": "PUSH2 0x1BC PUSH2 0x3A PUSH1 0xB DUP3 DUP3 DUP3 CODECOPY DUP1 MLOAD PUSH1 0x0 BYTE PUSH1 0x73 EQ PUSH2 0x2D JUMPI PUSH4 0x4E487B71 PUSH1 0xE0 SHL PUSH1 0x0 MSTORE PUSH1 0x0 PUSH1 0x4 MSTORE PUSH1 0x24 PUSH1 0x0 REVERT JUMPDEST ADDRESS PUSH1 0x0 MSTORE PUSH1 0x73 DUP2 MSTORE8 DUP3 DUP2 RETURN INVALID PUSH20 0x0 ADDRESS EQ PUSH1 0x80 PUSH1 0x40 MSTORE PUSH1 0x4 CALLDATASIZE LT PUSH2 0x40 JUMPI PUSH1 0x0 CALLDATALOAD PUSH1 0xE0 SHR DUP1 PUSH4 0x4F062C5A EQ PUSH2 0x45 JUMPI DUP1 PUSH4 0xF970DD02 EQ PUSH2 0x6E JUMPI JUMPDEST PUSH1 0x0 DUP1 REVERT JUMPDEST PUSH2 0x58 PUSH2 0x53 CALLDATASIZE PUSH1 0x4 PUSH2 0xF4 JUMP JUMPDEST PUSH2 0x8E JUMP JUMPDEST PUSH1 0x40 MLOAD PUSH2 0x65 SWAP2 SWAP1 PUSH2 0x10C JUMP JUMPDEST PUSH1 0x40 MLOAD DUP1 SWAP2 SUB SWAP1 RETURN JUMPDEST PUSH2 0x81 PUSH2 0x7C CALLDATASIZE PUSH1 0x4 PUSH2 0xF4 JUMP JUMPDEST PUSH2 0xD5 JUMP JUMPDEST PUSH1 0x40 MLOAD PUSH2 0x65 SWAP2 SWAP1 PUSH2 0x134 JUMP JUMPDEST PUSH1 0x0 DUP2 PUSH1 0x1 EQ ISZERO PUSH2 0xA1 JUMPI POP PUSH1 0x1 PUSH2 0xD0 JUMP JUMPDEST DUP2 PUSH1 0x3 EQ ISZERO PUSH2 0xB2 JUMPI POP PUSH1 0x2 PUSH2 0xD0 JUMP JUMPDEST DUP2 PUSH1 0x5 EQ ISZERO PUSH2 0xC3 JUMPI POP PUSH1 0x3 PUSH2 0xD0 JUMP JUMPDEST DUP2 PUSH1 0x7 EQ ISZERO PUSH2 0xD0 JUMPI POP PUSH1 0x4 JUMPDEST SWAP2 SWAP1 POP JUMP JUMPDEST PUSH1 0x0 DUP2 PUSH2 0xE3 PUSH1 0x1 NUMBER PUSH2 0x143 JUMP JUMPDEST PUSH2 0xEE SWAP2 SWAP1 BLOCKHASH PUSH2 0x166 JUMP JUMPDEST SWAP3 SWAP2 POP POP JUMP JUMPDEST PUSH1 0x0 PUSH1 0x20 DUP3 DUP5 SUB SLT ISZERO PUSH2 0x105 JUMPI DUP1 DUP2 REVERT JUMPDEST POP CALLDATALOAD SWAP2 SWAP1 POP JUMP JUMPDEST PUSH1 0x20 DUP2 ADD PUSH1 0x5 DUP4 LT PUSH2 0x12E JUMPI PUSH4 0x4E487B71 PUSH1 0xE0 SHL PUSH1 0x0 MSTORE PUSH1 0x21 PUSH1 0x4 MSTORE PUSH1 0x24 PUSH1 0x0 REVERT JUMPDEST SWAP2 SWAP1 MSTORE SWAP1 JUMP JUMPDEST PUSH2 0xFFFF SWAP2 SWAP1 SWAP2 AND DUP2 MSTORE PUSH1 0x20 ADD SWAP1 JUMP JUMPDEST PUSH1 0x0 DUP3 DUP3 LT ISZERO PUSH2 0x161 JUMPI PUSH4 0x4E487B71 PUSH1 0xE0 SHL DUP2 MSTORE PUSH1 0x11 PUSH1 0x4 MSTORE PUSH1 0x24 DUP2 REVERT JUMPDEST POP SUB SWAP1 JUMP JUMPDEST PUSH1 0x0 DUP3 PUSH2 0x181 JUMPI PUSH4 0x4E487B71 PUSH1 0xE0 SHL DUP2 MSTORE PUSH1 0x12 PUSH1 0x4 MSTORE PUSH1 0x24 DUP2 REVERT JUMPDEST POP MOD SWAP1 JUMP INVALID LOG2 PUSH5 0x6970667358 0x22 SLT KECCAK256 BALANCE 0xE6 0xDB CALLCODE MLOAD SWAP9 SELFBALANCE 0xD5 0xCA PUSH12 0xCE6B915458B3D53F0A5B37C9 LOG0 0xD8 0xCE 0x4D 0x4D DUP10 0xDE DUP1 0x27 PUSH17 0x64736F6C63430008010033000000000000 "
		},
		"gasEstimates": {
			"creation": {
				"codeDepositCost": "88800",
				"executionCost": "169",
				"totalCost": "88969"
			},
			"external": {
				"getTier(uint256)": "407",
				"randomNumber(uint256)": "457"
			}
		},
		"methodIdentifiers": {
			"getTier(uint256)": "4f062c5a",
			"randomNumber(uint256)": "f970dd02"
		}
	},
	"abi": [
		{
			"inputs": [
				{
					"internalType": "uint256",
					"name": "unitCount",
					"type": "uint256"
				}
			],
			"name": "getTier",
			"outputs": [
				{
					"internalType": "enum DeploymentState",
					"name": "state",
					"type": "DeploymentState"
				}
			],
			"stateMutability": "pure",
			"type": "function"
		},
		{
			"inputs": [
				{
					"internalType": "uint256",
					"name": "options",
					"type": "uint256"
				}
			],
			"name": "randomNumber",
			"outputs": [
				{
					"internalType": "uint16",
					"name": "",
					"type": "uint16"
				}
			],
			"stateMutability": "view",
			"type": "function"
		}
	]
}