{
	"data": {
		"bytecode": {
			"linkReferences": {},
			"object": "61015f61003a600b82828239805160001a60731461002d57634e487b7160e01b600052600060045260246000fd5b30600052607381538281f3fe73000000000000000000000000000000000000000030146080604052600436106100405760003560e01c80634f062c5a14610045578063f970dd021461006e575b600080fd5b6100586100533660046100db565b61008e565b60405161006591906100f3565b60405180910390f35b61008161007c3660046100db565b6100d5565b604051610065919061011b565b600081600114156100a1575060026100d0565b81600314156100b2575060036100d0565b81600514156100c3575060046100d0565b81600714156100d0575060055b919050565b50600090565b6000602082840312156100ec578081fd5b5035919050565b602081016006831061011557634e487b7160e01b600052602160045260246000fd5b91905290565b60ff9190911681526020019056fea264697066735822122086bb2488e20af265e3bc69d50c9a6b91104086e64b7d99360fb2889256bb8c3f64736f6c63430008010033",
			"opcodes": "PUSH2 0x15F PUSH2 0x3A PUSH1 0xB DUP3 DUP3 DUP3 CODECOPY DUP1 MLOAD PUSH1 0x0 BYTE PUSH1 0x73 EQ PUSH2 0x2D JUMPI PUSH4 0x4E487B71 PUSH1 0xE0 SHL PUSH1 0x0 MSTORE PUSH1 0x0 PUSH1 0x4 MSTORE PUSH1 0x24 PUSH1 0x0 REVERT JUMPDEST ADDRESS PUSH1 0x0 MSTORE PUSH1 0x73 DUP2 MSTORE8 DUP3 DUP2 RETURN INVALID PUSH20 0x0 ADDRESS EQ PUSH1 0x80 PUSH1 0x40 MSTORE PUSH1 0x4 CALLDATASIZE LT PUSH2 0x40 JUMPI PUSH1 0x0 CALLDATALOAD PUSH1 0xE0 SHR DUP1 PUSH4 0x4F062C5A EQ PUSH2 0x45 JUMPI DUP1 PUSH4 0xF970DD02 EQ PUSH2 0x6E JUMPI JUMPDEST PUSH1 0x0 DUP1 REVERT JUMPDEST PUSH2 0x58 PUSH2 0x53 CALLDATASIZE PUSH1 0x4 PUSH2 0xDB JUMP JUMPDEST PUSH2 0x8E JUMP JUMPDEST PUSH1 0x40 MLOAD PUSH2 0x65 SWAP2 SWAP1 PUSH2 0xF3 JUMP JUMPDEST PUSH1 0x40 MLOAD DUP1 SWAP2 SUB SWAP1 RETURN JUMPDEST PUSH2 0x81 PUSH2 0x7C CALLDATASIZE PUSH1 0x4 PUSH2 0xDB JUMP JUMPDEST PUSH2 0xD5 JUMP JUMPDEST PUSH1 0x40 MLOAD PUSH2 0x65 SWAP2 SWAP1 PUSH2 0x11B JUMP JUMPDEST PUSH1 0x0 DUP2 PUSH1 0x1 EQ ISZERO PUSH2 0xA1 JUMPI POP PUSH1 0x2 PUSH2 0xD0 JUMP JUMPDEST DUP2 PUSH1 0x3 EQ ISZERO PUSH2 0xB2 JUMPI POP PUSH1 0x3 PUSH2 0xD0 JUMP JUMPDEST DUP2 PUSH1 0x5 EQ ISZERO PUSH2 0xC3 JUMPI POP PUSH1 0x4 PUSH2 0xD0 JUMP JUMPDEST DUP2 PUSH1 0x7 EQ ISZERO PUSH2 0xD0 JUMPI POP PUSH1 0x5 JUMPDEST SWAP2 SWAP1 POP JUMP JUMPDEST POP PUSH1 0x0 SWAP1 JUMP JUMPDEST PUSH1 0x0 PUSH1 0x20 DUP3 DUP5 SUB SLT ISZERO PUSH2 0xEC JUMPI DUP1 DUP2 REVERT JUMPDEST POP CALLDATALOAD SWAP2 SWAP1 POP JUMP JUMPDEST PUSH1 0x20 DUP2 ADD PUSH1 0x6 DUP4 LT PUSH2 0x115 JUMPI PUSH4 0x4E487B71 PUSH1 0xE0 SHL PUSH1 0x0 MSTORE PUSH1 0x21 PUSH1 0x4 MSTORE PUSH1 0x24 PUSH1 0x0 REVERT JUMPDEST SWAP2 SWAP1 MSTORE SWAP1 JUMP JUMPDEST PUSH1 0xFF SWAP2 SWAP1 SWAP2 AND DUP2 MSTORE PUSH1 0x20 ADD SWAP1 JUMP INVALID LOG2 PUSH5 0x6970667358 0x22 SLT KECCAK256 DUP7 0xBB 0x24 DUP9 0xE2 EXP CALLCODE PUSH6 0xE3BC69D50C9A PUSH12 0x91104086E64B7D99360FB288 SWAP3 JUMP 0xBB DUP13 EXTCODEHASH PUSH5 0x736F6C6343 STOP ADDMOD ADD STOP CALLER "
		},
		"gasEstimates": {
			"creation": {
				"codeDepositCost": "70200",
				"executionCost": "151",
				"totalCost": "70351"
			},
			"external": {
				"getTier(uint256)": "407",
				"randomNumber(uint256)": "303"
			}
		},
		"methodIdentifiers": {
			"getTier(uint256)": "4f062c5a",
			"randomNumber(uint256)": "f970dd02"
		}
	},
	"abi": [
		{
			"inputs": [
				{
					"internalType": "uint256",
					"name": "unitCount",
					"type": "uint256"
				}
			],
			"name": "getTier",
			"outputs": [
				{
					"internalType": "enum DeploymentState",
					"name": "state",
					"type": "DeploymentState"
				}
			],
			"stateMutability": "pure",
			"type": "function"
		},
		{
			"inputs": [
				{
					"internalType": "uint256",
					"name": "options",
					"type": "uint256"
				}
			],
			"name": "randomNumber",
			"outputs": [
				{
					"internalType": "uint8",
					"name": "",
					"type": "uint8"
				}
			],
			"stateMutability": "view",
			"type": "function"
		}
	]
}