{
	"data": {
		"bytecode": {
			"linkReferences": {},
			"object": "61089461003a600b82828239805160001a60731461002d57634e487b7160e01b600052600060045260246000fd5b30600052607381538281f3fe73000000000000000000000000000000000000000030146080604052600436106100565760003560e01c806323b4762b1461005b578063eb2898a714610084578063ee28668d146100a4578063f970dd02146100c4575b600080fd5b61006e6100693660046106a7565b6100e4565b60405161007b9190610779565b60405180910390f35b6100976100923660046106c8565b6101ac565b60405161007b91906106e0565b8180156100b057600080fd5b5061006e6100bf3660046105da565b610208565b6100d76100d23660046106c8565b610513565b60405161007b919061076a565b6000600182600281111561010857634e487b7160e01b600052602160045260246000fd5b141561012057610119600a826107a8565b90506101a7565b600082600281111561014257634e487b7160e01b600052602160045260246000fd5b141561015357610119600f826107a8565b600282600281111561017557634e487b7160e01b600052602160045260246000fd5b1415610186576101196014826107a8565b60405162461bcd60e51b815260040161019e90610708565b60405180910390fd5b919050565b600081600114156101bf575060016101a7565b81600314156101d0575060026101a7565b81600514156101e1575060036101a7565b81600714156101f2575060046101a7565b634e487b7160e01b600052600160045260246000fd5b6040805160e0810182526000808252602082018190526001928201929092526060810182905260808101829052819060a0810185600281111561025b57634e487b7160e01b600052602160045260246000fd5b81526020018490529050600084600281111561028757634e487b7160e01b600052602160045260246000fd5b14156102e457600f816000018181516102a09190610782565b61ffff16905250602081018051600191906102bc908390610782565b61ffff16905250606081018051603291906102d8908390610782565b61ffff169052506103b6565b600184600281111561030657634e487b7160e01b600052602160045260246000fd5b141561033b57600a8160000181815161031f9190610782565b61ffff16905250602081018051600591906102bc908390610782565b600284600281111561035d57634e487b7160e01b600052602160045260246000fd5b14156103b657600a816000018181516103769190610782565b61ffff1690525060208101805160019190610392908390610782565b61ffff16905250606081018051604b91906103ae908390610782565b61ffff169052505b60608101805161ffff908116608084019081528854600181018a5560008a8152602090819020865160029384029091018054928801516040890151975195518716600160401b0261ffff60401b19968816600160301b0261ffff60301b19998916600160201b0261ffff60201b19938a16620100000263ffff00001996909a1661ffff1990971696909617949094169790971716929092179590951694909417919091169190911780835560a08401518493929091839160ff60501b1990911690600160501b90849081111561049c57634e487b7160e01b600052602160045260246000fd5b021790555060c082015180516104bc916001840191602090910190610532565b50508654151590506104e05760405162461bcd60e51b815260040161019e90610737565b85546104ee906001906107c0565b60008181526020969096526040909520805460ff191660031790555092949350505050565b6000816105216001436107c0565b61052c919040610812565b92915050565b82805461053e906107d7565b90600052602060002090601f01602090048101928261056057600085556105a6565b82601f1061057957805160ff19168380011785556105a6565b828001600101855582156105a6579182015b828111156105a657825182559160200191906001019061058b565b506105b29291506105b6565b5090565b5b808211156105b257600081556001016105b7565b8035600381106101a757600080fd5b600080600080608085870312156105ef578384fd5b8435935060208501359250610606604086016105cb565b915060608501356001600160401b0380821115610621578283fd5b818701915087601f830112610634578283fd5b81358181111561064657610646610848565b604051601f8201601f19908116603f0116810190838211818310171561066e5761066e610848565b816040528281528a6020848701011115610686578586fd5b82602086016020830137918201602001949094529598949750929550505050565b6000602082840312156106b8578081fd5b6106c1826105cb565b9392505050565b6000602082840312156106d9578081fd5b5035919050565b602081016005831061070257634e487b7160e01b600052602160045260246000fd5b91905290565b6020808252601590820152744e6f7420612076616c696420756e6974207479706560581b604082015260600190565b602080825260199082015278756e6974732073686f756c64206e6f7420626520656d70747960381b604082015260600190565b61ffff91909116815260200190565b90815260200190565b600061ffff80831681851680830382111561079f5761079f610832565b01949350505050565b600082198211156107bb576107bb610832565b500190565b6000828210156107d2576107d2610832565b500390565b6002810460018216806107eb57607f821691505b6020821081141561080c57634e487b7160e01b600052602260045260246000fd5b50919050565b60008261082d57634e487b7160e01b81526012600452602481fd5b500690565b634e487b7160e01b600052601160045260246000fd5b634e487b7160e01b600052604160045260246000fdfea2646970667358221220785541f519fee872e8b070f7b7ca65ca3fdbe09c1f67fd7d5ab08c0f2f84f39664736f6c63430008010033",
			"opcodes": "PUSH2 0x894 PUSH2 0x3A PUSH1 0xB DUP3 DUP3 DUP3 CODECOPY DUP1 MLOAD PUSH1 0x0 BYTE PUSH1 0x73 EQ PUSH2 0x2D JUMPI PUSH4 0x4E487B71 PUSH1 0xE0 SHL PUSH1 0x0 MSTORE PUSH1 0x0 PUSH1 0x4 MSTORE PUSH1 0x24 PUSH1 0x0 REVERT JUMPDEST ADDRESS PUSH1 0x0 MSTORE PUSH1 0x73 DUP2 MSTORE8 DUP3 DUP2 RETURN INVALID PUSH20 0x0 ADDRESS EQ PUSH1 0x80 PUSH1 0x40 MSTORE PUSH1 0x4 CALLDATASIZE LT PUSH2 0x56 JUMPI PUSH1 0x0 CALLDATALOAD PUSH1 0xE0 SHR DUP1 PUSH4 0x23B4762B EQ PUSH2 0x5B JUMPI DUP1 PUSH4 0xEB2898A7 EQ PUSH2 0x84 JUMPI DUP1 PUSH4 0xEE28668D EQ PUSH2 0xA4 JUMPI DUP1 PUSH4 0xF970DD02 EQ PUSH2 0xC4 JUMPI JUMPDEST PUSH1 0x0 DUP1 REVERT JUMPDEST PUSH2 0x6E PUSH2 0x69 CALLDATASIZE PUSH1 0x4 PUSH2 0x6A7 JUMP JUMPDEST PUSH2 0xE4 JUMP JUMPDEST PUSH1 0x40 MLOAD PUSH2 0x7B SWAP2 SWAP1 PUSH2 0x779 JUMP JUMPDEST PUSH1 0x40 MLOAD DUP1 SWAP2 SUB SWAP1 RETURN JUMPDEST PUSH2 0x97 PUSH2 0x92 CALLDATASIZE PUSH1 0x4 PUSH2 0x6C8 JUMP JUMPDEST PUSH2 0x1AC JUMP JUMPDEST PUSH1 0x40 MLOAD PUSH2 0x7B SWAP2 SWAP1 PUSH2 0x6E0 JUMP JUMPDEST DUP2 DUP1 ISZERO PUSH2 0xB0 JUMPI PUSH1 0x0 DUP1 REVERT JUMPDEST POP PUSH2 0x6E PUSH2 0xBF CALLDATASIZE PUSH1 0x4 PUSH2 0x5DA JUMP JUMPDEST PUSH2 0x208 JUMP JUMPDEST PUSH2 0xD7 PUSH2 0xD2 CALLDATASIZE PUSH1 0x4 PUSH2 0x6C8 JUMP JUMPDEST PUSH2 0x513 JUMP JUMPDEST PUSH1 0x40 MLOAD PUSH2 0x7B SWAP2 SWAP1 PUSH2 0x76A JUMP JUMPDEST PUSH1 0x0 PUSH1 0x1 DUP3 PUSH1 0x2 DUP2 GT ISZERO PUSH2 0x108 JUMPI PUSH4 0x4E487B71 PUSH1 0xE0 SHL PUSH1 0x0 MSTORE PUSH1 0x21 PUSH1 0x4 MSTORE PUSH1 0x24 PUSH1 0x0 REVERT JUMPDEST EQ ISZERO PUSH2 0x120 JUMPI PUSH2 0x119 PUSH1 0xA DUP3 PUSH2 0x7A8 JUMP JUMPDEST SWAP1 POP PUSH2 0x1A7 JUMP JUMPDEST PUSH1 0x0 DUP3 PUSH1 0x2 DUP2 GT ISZERO PUSH2 0x142 JUMPI PUSH4 0x4E487B71 PUSH1 0xE0 SHL PUSH1 0x0 MSTORE PUSH1 0x21 PUSH1 0x4 MSTORE PUSH1 0x24 PUSH1 0x0 REVERT JUMPDEST EQ ISZERO PUSH2 0x153 JUMPI PUSH2 0x119 PUSH1 0xF DUP3 PUSH2 0x7A8 JUMP JUMPDEST PUSH1 0x2 DUP3 PUSH1 0x2 DUP2 GT ISZERO PUSH2 0x175 JUMPI PUSH4 0x4E487B71 PUSH1 0xE0 SHL PUSH1 0x0 MSTORE PUSH1 0x21 PUSH1 0x4 MSTORE PUSH1 0x24 PUSH1 0x0 REVERT JUMPDEST EQ ISZERO PUSH2 0x186 JUMPI PUSH2 0x119 PUSH1 0x14 DUP3 PUSH2 0x7A8 JUMP JUMPDEST PUSH1 0x40 MLOAD PUSH3 0x461BCD PUSH1 0xE5 SHL DUP2 MSTORE PUSH1 0x4 ADD PUSH2 0x19E SWAP1 PUSH2 0x708 JUMP JUMPDEST PUSH1 0x40 MLOAD DUP1 SWAP2 SUB SWAP1 REVERT JUMPDEST SWAP2 SWAP1 POP JUMP JUMPDEST PUSH1 0x0 DUP2 PUSH1 0x1 EQ ISZERO PUSH2 0x1BF JUMPI POP PUSH1 0x1 PUSH2 0x1A7 JUMP JUMPDEST DUP2 PUSH1 0x3 EQ ISZERO PUSH2 0x1D0 JUMPI POP PUSH1 0x2 PUSH2 0x1A7 JUMP JUMPDEST DUP2 PUSH1 0x5 EQ ISZERO PUSH2 0x1E1 JUMPI POP PUSH1 0x3 PUSH2 0x1A7 JUMP JUMPDEST DUP2 PUSH1 0x7 EQ ISZERO PUSH2 0x1F2 JUMPI POP PUSH1 0x4 PUSH2 0x1A7 JUMP JUMPDEST PUSH4 0x4E487B71 PUSH1 0xE0 SHL PUSH1 0x0 MSTORE PUSH1 0x1 PUSH1 0x4 MSTORE PUSH1 0x24 PUSH1 0x0 REVERT JUMPDEST PUSH1 0x40 DUP1 MLOAD PUSH1 0xE0 DUP2 ADD DUP3 MSTORE PUSH1 0x0 DUP1 DUP3 MSTORE PUSH1 0x20 DUP3 ADD DUP2 SWAP1 MSTORE PUSH1 0x1 SWAP3 DUP3 ADD SWAP3 SWAP1 SWAP3 MSTORE PUSH1 0x60 DUP2 ADD DUP3 SWAP1 MSTORE PUSH1 0x80 DUP2 ADD DUP3 SWAP1 MSTORE DUP2 SWAP1 PUSH1 0xA0 DUP2 ADD DUP6 PUSH1 0x2 DUP2 GT ISZERO PUSH2 0x25B JUMPI PUSH4 0x4E487B71 PUSH1 0xE0 SHL PUSH1 0x0 MSTORE PUSH1 0x21 PUSH1 0x4 MSTORE PUSH1 0x24 PUSH1 0x0 REVERT JUMPDEST DUP2 MSTORE PUSH1 0x20 ADD DUP5 SWAP1 MSTORE SWAP1 POP PUSH1 0x0 DUP5 PUSH1 0x2 DUP2 GT ISZERO PUSH2 0x287 JUMPI PUSH4 0x4E487B71 PUSH1 0xE0 SHL PUSH1 0x0 MSTORE PUSH1 0x21 PUSH1 0x4 MSTORE PUSH1 0x24 PUSH1 0x0 REVERT JUMPDEST EQ ISZERO PUSH2 0x2E4 JUMPI PUSH1 0xF DUP2 PUSH1 0x0 ADD DUP2 DUP2 MLOAD PUSH2 0x2A0 SWAP2 SWAP1 PUSH2 0x782 JUMP JUMPDEST PUSH2 0xFFFF AND SWAP1 MSTORE POP PUSH1 0x20 DUP2 ADD DUP1 MLOAD PUSH1 0x1 SWAP2 SWAP1 PUSH2 0x2BC SWAP1 DUP4 SWAP1 PUSH2 0x782 JUMP JUMPDEST PUSH2 0xFFFF AND SWAP1 MSTORE POP PUSH1 0x60 DUP2 ADD DUP1 MLOAD PUSH1 0x32 SWAP2 SWAP1 PUSH2 0x2D8 SWAP1 DUP4 SWAP1 PUSH2 0x782 JUMP JUMPDEST PUSH2 0xFFFF AND SWAP1 MSTORE POP PUSH2 0x3B6 JUMP JUMPDEST PUSH1 0x1 DUP5 PUSH1 0x2 DUP2 GT ISZERO PUSH2 0x306 JUMPI PUSH4 0x4E487B71 PUSH1 0xE0 SHL PUSH1 0x0 MSTORE PUSH1 0x21 PUSH1 0x4 MSTORE PUSH1 0x24 PUSH1 0x0 REVERT JUMPDEST EQ ISZERO PUSH2 0x33B JUMPI PUSH1 0xA DUP2 PUSH1 0x0 ADD DUP2 DUP2 MLOAD PUSH2 0x31F SWAP2 SWAP1 PUSH2 0x782 JUMP JUMPDEST PUSH2 0xFFFF AND SWAP1 MSTORE POP PUSH1 0x20 DUP2 ADD DUP1 MLOAD PUSH1 0x5 SWAP2 SWAP1 PUSH2 0x2BC SWAP1 DUP4 SWAP1 PUSH2 0x782 JUMP JUMPDEST PUSH1 0x2 DUP5 PUSH1 0x2 DUP2 GT ISZERO PUSH2 0x35D JUMPI PUSH4 0x4E487B71 PUSH1 0xE0 SHL PUSH1 0x0 MSTORE PUSH1 0x21 PUSH1 0x4 MSTORE PUSH1 0x24 PUSH1 0x0 REVERT JUMPDEST EQ ISZERO PUSH2 0x3B6 JUMPI PUSH1 0xA DUP2 PUSH1 0x0 ADD DUP2 DUP2 MLOAD PUSH2 0x376 SWAP2 SWAP1 PUSH2 0x782 JUMP JUMPDEST PUSH2 0xFFFF AND SWAP1 MSTORE POP PUSH1 0x20 DUP2 ADD DUP1 MLOAD PUSH1 0x1 SWAP2 SWAP1 PUSH2 0x392 SWAP1 DUP4 SWAP1 PUSH2 0x782 JUMP JUMPDEST PUSH2 0xFFFF AND SWAP1 MSTORE POP PUSH1 0x60 DUP2 ADD DUP1 MLOAD PUSH1 0x4B SWAP2 SWAP1 PUSH2 0x3AE SWAP1 DUP4 SWAP1 PUSH2 0x782 JUMP JUMPDEST PUSH2 0xFFFF AND SWAP1 MSTORE POP JUMPDEST PUSH1 0x60 DUP2 ADD DUP1 MLOAD PUSH2 0xFFFF SWAP1 DUP2 AND PUSH1 0x80 DUP5 ADD SWAP1 DUP2 MSTORE DUP9 SLOAD PUSH1 0x1 DUP2 ADD DUP11 SSTORE PUSH1 0x0 DUP11 DUP2 MSTORE PUSH1 0x20 SWAP1 DUP2 SWAP1 KECCAK256 DUP7 MLOAD PUSH1 0x2 SWAP4 DUP5 MUL SWAP1 SWAP2 ADD DUP1 SLOAD SWAP3 DUP9 ADD MLOAD PUSH1 0x40 DUP10 ADD MLOAD SWAP8 MLOAD SWAP6 MLOAD DUP8 AND PUSH1 0x1 PUSH1 0x40 SHL MUL PUSH2 0xFFFF PUSH1 0x40 SHL NOT SWAP7 DUP9 AND PUSH1 0x1 PUSH1 0x30 SHL MUL PUSH2 0xFFFF PUSH1 0x30 SHL NOT SWAP10 DUP10 AND PUSH1 0x1 PUSH1 0x20 SHL MUL PUSH2 0xFFFF PUSH1 0x20 SHL NOT SWAP4 DUP11 AND PUSH3 0x10000 MUL PUSH4 0xFFFF0000 NOT SWAP7 SWAP1 SWAP11 AND PUSH2 0xFFFF NOT SWAP1 SWAP8 AND SWAP7 SWAP1 SWAP7 OR SWAP5 SWAP1 SWAP5 AND SWAP8 SWAP1 SWAP8 OR AND SWAP3 SWAP1 SWAP3 OR SWAP6 SWAP1 SWAP6 AND SWAP5 SWAP1 SWAP5 OR SWAP2 SWAP1 SWAP2 AND SWAP2 SWAP1 SWAP2 OR DUP1 DUP4 SSTORE PUSH1 0xA0 DUP5 ADD MLOAD DUP5 SWAP4 SWAP3 SWAP1 SWAP2 DUP4 SWAP2 PUSH1 0xFF PUSH1 0x50 SHL NOT SWAP1 SWAP2 AND SWAP1 PUSH1 0x1 PUSH1 0x50 SHL SWAP1 DUP5 SWAP1 DUP2 GT ISZERO PUSH2 0x49C JUMPI PUSH4 0x4E487B71 PUSH1 0xE0 SHL PUSH1 0x0 MSTORE PUSH1 0x21 PUSH1 0x4 MSTORE PUSH1 0x24 PUSH1 0x0 REVERT JUMPDEST MUL OR SWAP1 SSTORE POP PUSH1 0xC0 DUP3 ADD MLOAD DUP1 MLOAD PUSH2 0x4BC SWAP2 PUSH1 0x1 DUP5 ADD SWAP2 PUSH1 0x20 SWAP1 SWAP2 ADD SWAP1 PUSH2 0x532 JUMP JUMPDEST POP POP DUP7 SLOAD ISZERO ISZERO SWAP1 POP PUSH2 0x4E0 JUMPI PUSH1 0x40 MLOAD PUSH3 0x461BCD PUSH1 0xE5 SHL DUP2 MSTORE PUSH1 0x4 ADD PUSH2 0x19E SWAP1 PUSH2 0x737 JUMP JUMPDEST DUP6 SLOAD PUSH2 0x4EE SWAP1 PUSH1 0x1 SWAP1 PUSH2 0x7C0 JUMP JUMPDEST PUSH1 0x0 DUP2 DUP2 MSTORE PUSH1 0x20 SWAP7 SWAP1 SWAP7 MSTORE PUSH1 0x40 SWAP1 SWAP6 KECCAK256 DUP1 SLOAD PUSH1 0xFF NOT AND PUSH1 0x3 OR SWAP1 SSTORE POP SWAP3 SWAP5 SWAP4 POP POP POP POP JUMP JUMPDEST PUSH1 0x0 DUP2 PUSH2 0x521 PUSH1 0x1 NUMBER PUSH2 0x7C0 JUMP JUMPDEST PUSH2 0x52C SWAP2 SWAP1 BLOCKHASH PUSH2 0x812 JUMP JUMPDEST SWAP3 SWAP2 POP POP JUMP JUMPDEST DUP3 DUP1 SLOAD PUSH2 0x53E SWAP1 PUSH2 0x7D7 JUMP JUMPDEST SWAP1 PUSH1 0x0 MSTORE PUSH1 0x20 PUSH1 0x0 KECCAK256 SWAP1 PUSH1 0x1F ADD PUSH1 0x20 SWAP1 DIV DUP2 ADD SWAP3 DUP3 PUSH2 0x560 JUMPI PUSH1 0x0 DUP6 SSTORE PUSH2 0x5A6 JUMP JUMPDEST DUP3 PUSH1 0x1F LT PUSH2 0x579 JUMPI DUP1 MLOAD PUSH1 0xFF NOT AND DUP4 DUP1 ADD OR DUP6 SSTORE PUSH2 0x5A6 JUMP JUMPDEST DUP3 DUP1 ADD PUSH1 0x1 ADD DUP6 SSTORE DUP3 ISZERO PUSH2 0x5A6 JUMPI SWAP2 DUP3 ADD JUMPDEST DUP3 DUP2 GT ISZERO PUSH2 0x5A6 JUMPI DUP3 MLOAD DUP3 SSTORE SWAP2 PUSH1 0x20 ADD SWAP2 SWAP1 PUSH1 0x1 ADD SWAP1 PUSH2 0x58B JUMP JUMPDEST POP PUSH2 0x5B2 SWAP3 SWAP2 POP PUSH2 0x5B6 JUMP JUMPDEST POP SWAP1 JUMP JUMPDEST JUMPDEST DUP1 DUP3 GT ISZERO PUSH2 0x5B2 JUMPI PUSH1 0x0 DUP2 SSTORE PUSH1 0x1 ADD PUSH2 0x5B7 JUMP JUMPDEST DUP1 CALLDATALOAD PUSH1 0x3 DUP2 LT PUSH2 0x1A7 JUMPI PUSH1 0x0 DUP1 REVERT JUMPDEST PUSH1 0x0 DUP1 PUSH1 0x0 DUP1 PUSH1 0x80 DUP6 DUP8 SUB SLT ISZERO PUSH2 0x5EF JUMPI DUP4 DUP5 REVERT JUMPDEST DUP5 CALLDATALOAD SWAP4 POP PUSH1 0x20 DUP6 ADD CALLDATALOAD SWAP3 POP PUSH2 0x606 PUSH1 0x40 DUP7 ADD PUSH2 0x5CB JUMP JUMPDEST SWAP2 POP PUSH1 0x60 DUP6 ADD CALLDATALOAD PUSH1 0x1 PUSH1 0x1 PUSH1 0x40 SHL SUB DUP1 DUP3 GT ISZERO PUSH2 0x621 JUMPI DUP3 DUP4 REVERT JUMPDEST DUP2 DUP8 ADD SWAP2 POP DUP8 PUSH1 0x1F DUP4 ADD SLT PUSH2 0x634 JUMPI DUP3 DUP4 REVERT JUMPDEST DUP2 CALLDATALOAD DUP2 DUP2 GT ISZERO PUSH2 0x646 JUMPI PUSH2 0x646 PUSH2 0x848 JUMP JUMPDEST PUSH1 0x40 MLOAD PUSH1 0x1F DUP3 ADD PUSH1 0x1F NOT SWAP1 DUP2 AND PUSH1 0x3F ADD AND DUP2 ADD SWAP1 DUP4 DUP3 GT DUP2 DUP4 LT OR ISZERO PUSH2 0x66E JUMPI PUSH2 0x66E PUSH2 0x848 JUMP JUMPDEST DUP2 PUSH1 0x40 MSTORE DUP3 DUP2 MSTORE DUP11 PUSH1 0x20 DUP5 DUP8 ADD ADD GT ISZERO PUSH2 0x686 JUMPI DUP6 DUP7 REVERT JUMPDEST DUP3 PUSH1 0x20 DUP7 ADD PUSH1 0x20 DUP4 ADD CALLDATACOPY SWAP2 DUP3 ADD PUSH1 0x20 ADD SWAP5 SWAP1 SWAP5 MSTORE SWAP6 SWAP9 SWAP5 SWAP8 POP SWAP3 SWAP6 POP POP POP POP JUMP JUMPDEST PUSH1 0x0 PUSH1 0x20 DUP3 DUP5 SUB SLT ISZERO PUSH2 0x6B8 JUMPI DUP1 DUP2 REVERT JUMPDEST PUSH2 0x6C1 DUP3 PUSH2 0x5CB JUMP JUMPDEST SWAP4 SWAP3 POP POP POP JUMP JUMPDEST PUSH1 0x0 PUSH1 0x20 DUP3 DUP5 SUB SLT ISZERO PUSH2 0x6D9 JUMPI DUP1 DUP2 REVERT JUMPDEST POP CALLDATALOAD SWAP2 SWAP1 POP JUMP JUMPDEST PUSH1 0x20 DUP2 ADD PUSH1 0x5 DUP4 LT PUSH2 0x702 JUMPI PUSH4 0x4E487B71 PUSH1 0xE0 SHL PUSH1 0x0 MSTORE PUSH1 0x21 PUSH1 0x4 MSTORE PUSH1 0x24 PUSH1 0x0 REVERT JUMPDEST SWAP2 SWAP1 MSTORE SWAP1 JUMP JUMPDEST PUSH1 0x20 DUP1 DUP3 MSTORE PUSH1 0x15 SWAP1 DUP3 ADD MSTORE PUSH21 0x4E6F7420612076616C696420756E69742074797065 PUSH1 0x58 SHL PUSH1 0x40 DUP3 ADD MSTORE PUSH1 0x60 ADD SWAP1 JUMP JUMPDEST PUSH1 0x20 DUP1 DUP3 MSTORE PUSH1 0x19 SWAP1 DUP3 ADD MSTORE PUSH25 0x756E6974732073686F756C64206E6F7420626520656D707479 PUSH1 0x38 SHL PUSH1 0x40 DUP3 ADD MSTORE PUSH1 0x60 ADD SWAP1 JUMP JUMPDEST PUSH2 0xFFFF SWAP2 SWAP1 SWAP2 AND DUP2 MSTORE PUSH1 0x20 ADD SWAP1 JUMP JUMPDEST SWAP1 DUP2 MSTORE PUSH1 0x20 ADD SWAP1 JUMP JUMPDEST PUSH1 0x0 PUSH2 0xFFFF DUP1 DUP4 AND DUP2 DUP6 AND DUP1 DUP4 SUB DUP3 GT ISZERO PUSH2 0x79F JUMPI PUSH2 0x79F PUSH2 0x832 JUMP JUMPDEST ADD SWAP5 SWAP4 POP POP POP POP JUMP JUMPDEST PUSH1 0x0 DUP3 NOT DUP3 GT ISZERO PUSH2 0x7BB JUMPI PUSH2 0x7BB PUSH2 0x832 JUMP JUMPDEST POP ADD SWAP1 JUMP JUMPDEST PUSH1 0x0 DUP3 DUP3 LT ISZERO PUSH2 0x7D2 JUMPI PUSH2 0x7D2 PUSH2 0x832 JUMP JUMPDEST POP SUB SWAP1 JUMP JUMPDEST PUSH1 0x2 DUP2 DIV PUSH1 0x1 DUP3 AND DUP1 PUSH2 0x7EB JUMPI PUSH1 0x7F DUP3 AND SWAP2 POP JUMPDEST PUSH1 0x20 DUP3 LT DUP2 EQ ISZERO PUSH2 0x80C JUMPI PUSH4 0x4E487B71 PUSH1 0xE0 SHL PUSH1 0x0 MSTORE PUSH1 0x22 PUSH1 0x4 MSTORE PUSH1 0x24 PUSH1 0x0 REVERT JUMPDEST POP SWAP2 SWAP1 POP JUMP JUMPDEST PUSH1 0x0 DUP3 PUSH2 0x82D JUMPI PUSH4 0x4E487B71 PUSH1 0xE0 SHL DUP2 MSTORE PUSH1 0x12 PUSH1 0x4 MSTORE PUSH1 0x24 DUP2 REVERT JUMPDEST POP MOD SWAP1 JUMP JUMPDEST PUSH4 0x4E487B71 PUSH1 0xE0 SHL PUSH1 0x0 MSTORE PUSH1 0x11 PUSH1 0x4 MSTORE PUSH1 0x24 PUSH1 0x0 REVERT JUMPDEST PUSH4 0x4E487B71 PUSH1 0xE0 SHL PUSH1 0x0 MSTORE PUSH1 0x41 PUSH1 0x4 MSTORE PUSH1 0x24 PUSH1 0x0 REVERT INVALID LOG2 PUSH5 0x6970667358 0x22 SLT KECCAK256 PUSH25 0x5541F519FEE872E8B070F7B7CA65CA3FDBE09C1F67FD7D5AB0 DUP13 0xF 0x2F DUP5 RETURN SWAP7 PUSH5 0x736F6C6343 STOP ADDMOD ADD STOP CALLER "
		},
		"gasEstimates": {
			"creation": {
				"codeDepositCost": "439200",
				"executionCost": "505",
				"totalCost": "439705"
			},
			"external": {
				"_getTier(uint256)": "440",
				"createUnit(Unit[] storage,mapping(uint256 => UnitState) storage,UnitType,string)": "infinite",
				"getUnitCost(UnitType)": "infinite",
				"randomNumber(uint256)": "501"
			}
		},
		"methodIdentifiers": {
			"_getTier(uint256)": "eb2898a7",
			"createUnit(Unit[] storage,mapping(uint256 => UnitState) storage,UnitType,string)": "ee28668d",
			"getUnitCost(UnitType)": "23b4762b",
			"randomNumber(uint256)": "f970dd02"
		}
	},
	"abi": [
		{
			"inputs": [
				{
					"internalType": "uint256",
					"name": "_unitCount",
					"type": "uint256"
				}
			],
			"name": "_getTier",
			"outputs": [
				{
					"internalType": "enum DeploymentState",
					"name": "state",
					"type": "DeploymentState"
				}
			],
			"stateMutability": "pure",
			"type": "function"
		},
		{
			"inputs": [
				{
					"internalType": "enum UnitType",
					"name": "_type",
					"type": "UnitType"
				}
			],
			"name": "getUnitCost",
			"outputs": [
				{
					"internalType": "uint256",
					"name": "cost",
					"type": "uint256"
				}
			],
			"stateMutability": "pure",
			"type": "function"
		},
		{
			"inputs": [
				{
					"internalType": "uint256",
					"name": "options",
					"type": "uint256"
				}
			],
			"name": "randomNumber",
			"outputs": [
				{
					"internalType": "uint16",
					"name": "",
					"type": "uint16"
				}
			],
			"stateMutability": "view",
			"type": "function"
		}
	]
}