{
	"data": {
		"bytecode": {
			"linkReferences": {},
			"object": "610bb061003a600b82828239805160001a60731461002d57634e487b7160e01b600052600060045260246000fd5b30600052607381538281f3fe730000000000000000000000000000000000000000301460806040526004361061004b5760003560e01c806355a3e90f1461005057806361a931ec1461006e578063b73ab75d14610091575b600080fd5b6100586100a4565b6040516100659190610af3565b60405180910390f35b61008161007c366004610a9f565b6100b6565b6040516100659493929190610afc565b61008161009f366004610a65565b610244565b600080516020610b5b83398151915290565b60008080808b1580156100c757508a155b80156100d1575089155b80156100db575088155b1561013a57871580156100ec575086155b80156100f6575085155b8015610100575084155b61012a57610110888888886102d9565b61012a57634e487b7160e01b600052600160045260246000fd5b5086925085915084905083610235565b87158015610146575086155b8015610150575085155b801561015a575084155b156101955761016b8c8c8c8c6102d9565b61018557634e487b7160e01b600052600160045260246000fd5b508a925089915088905087610235565b6101a18c8c8c8c6102d9565b6101bb57634e487b7160e01b600052600160045260246000fd5b6101c7888888886102d9565b6101e157634e487b7160e01b600052600160045260246000fd5b60006101fb8d8d8d8d600160008f8f8f8f6001600061038e565b905061022b8160005b602090810291909101519083015160408401516060850151608086015160a0870151610617565b9450945094509450505b98509850985098945050505050565b6000808080600188158015610257575087155b8015610261575086155b801561026b575085155b1561027f57506001975087955060006102a5565b61028b898989896102d9565b6102a557634e487b7160e01b600052600160045260246000fd5b60006102b78b8b8b8b8b876000610661565b90506102c4816000610204565b929e919d509b50909950975050505050505050565b60008060008060006102ed878789896106e4565b90945092506102fe898981816106e4565b909250905061030f82828b8b6106e4565b909250905061032084848484610755565b909450925061037084847f2b149d40ceb8aaae81be18991be06ac3b5b4c5e559dbefa33267e6dc24a138e57e9713b03af0fed4cd2cafadeed8fdf4a74fa084e52d1852e4a2bd0685c315d2610755565b909450925083158015610381575082155b9998505050505050505050565b610396610a47565b881580156103a2575087155b156103e4578686868686868660005b60a08901929092526080880192909252606087019290925260408601929092526020858101939093529091020152610607565b821580156103f0575081155b15610403578c8c8c8c8c8c8660006103b1565b61040f85858b8b6106e4565b90955093506104208b8b85856106e4565b6060830152604082015261043687878b8b6106e4565b90975095506104478d8d85856106e4565b60a08301526080820181905287148015610464575060a081015186145b156104a95760408101518514801561047f5750606081015184145b1561049a576104928d8d8d8d8d8d610797565b8660006103b1565b600160008181808086816103b1565b6104b5898985856106e4565b90935091506104d5858583600260200201518460035b6020020151610755565b909d509b506104ef878783600460200201518460056104cb565b909b5099506105008b8b81816106e4565b9099509750610520898983600460200201518460055b60200201516106e4565b909550935061053189898d8d6106e4565b9099509750610542898985856106e4565b60a083015260808201526105588d8d81816106e4565b9097509550610569878785856106e4565b909750955061057a87878b8b610755565b909750955061058b85856002610906565b909350915061059c87878585610755565b90975095506105ad8b8b89896106e4565b602083015281526105c085858989610755565b909b5099506105d18d8d8d8d6106e4565b909b5099506105eb89898360026020020151846003610516565b909d509b506105fc8b8b8f8f610755565b606083015260408201525b9c9b505050505050505050505050565b60008060008060008061062a8888610939565b909250905061063b8c8c84846106e4565b909650945061064c8a8a84846106e4565b969d959c509a50949850929650505050505050565b610669610a47565b87156106d95760018816156106aa578051602082015160408301516060840151608085015160a08601516106a79594939291908d8d8d8d8d8d61038e565b90505b6106b8878787878787610797565b949b509299509097509550935091506106d2600289610b17565b9750610669565b979650505050505050565b600080610722600080516020610b5b833981519152858809600080516020610b5b833981519152858809600080516020610b5b8339815191526109c4565b600080516020610b5b83398151915280868809600080516020610b5b833981519152868a09089150915094509492505050565b6000806107718685600080516020610b5b8339815191526109c4565b61078a8685600080516020610b5b8339815191526109c4565b9150915094509492505050565b6000806000806000806107ac8c8c6003610906565b90965094506107bd86868e8e6106e4565b90965094506107ce8a8a8a8a6106e4565b90985096506107df8c8c8c8c6106e4565b90945092506107f084848a8a6106e4565b9094509250610801868681816106e4565b909c509a5061081284846008610906565b90925090506108238c8c8484610755565b909c509a50610834888881816106e4565b909250905061084584846004610906565b909450925061085684848e8e610755565b9094509250610867848488886106e4565b90945092506108788a8a6008610906565b909650945061088986868c8c6106e4565b909650945061089a868684846106e4565b90965094506108ab84848888610755565b90945092506108bc8c8c6002610906565b90965094506108cd86868a8a6106e4565b90965094506108de888884846106e4565b90925090506108ef82826008610906565b809250819350505096509650965096509650969050565b600080600080516020610b5b833981519152838609600080516020610b5b83398151915284860991509150935093915050565b6000808061097a600080516020610b5b83398151915280878809600080516020610b5b83398151915287880908600080516020610b5b8339815191526109f6565b9050600080516020610b5b833981519152818609600080516020610b5b8339815191528286096109b890600080516020610b5b833981519152610b37565b92509250509250929050565b600081806109e257634e487b7160e01b600052601260045260246000fd5b6109ec8484610b37565b8508949350505050565b60008060405160208152602080820152602060408201528460608201526002840360808201528360a082015260208160c08360056107d05a03fa90519250905080610a4057600080fd5b5092915050565b6040518060c001604052806006906020820280368337509192915050565b600080600080600060a08688031215610a7c578081fd5b505083359560208501359550604085013594606081013594506080013592509050565b600080600080600080600080610100898b031215610abb578283fd5b505086359860208801359850604088013597606081013597506080810135965060a0810135955060c0810135945060e0013592509050565b90815260200190565b93845260208401929092526040830152606082015260800190565b600082610b3257634e487b7160e01b81526012600452602481fd5b500490565b600082821015610b5557634e487b7160e01b81526011600452602481fd5b50039056fe30644e72e131a029b85045b68181585d97816a916871ca8d3c208c16d87cfd47a2646970667358221220a9580d70ffbf9327c63ee4b1cea2c19fbb105460c6cfd7b8069fcc181a1cae0d64736f6c63430008010033",
			"opcodes": "PUSH2 0xBB0 PUSH2 0x3A PUSH1 0xB DUP3 DUP3 DUP3 CODECOPY DUP1 MLOAD PUSH1 0x0 BYTE PUSH1 0x73 EQ PUSH2 0x2D JUMPI PUSH4 0x4E487B71 PUSH1 0xE0 SHL PUSH1 0x0 MSTORE PUSH1 0x0 PUSH1 0x4 MSTORE PUSH1 0x24 PUSH1 0x0 REVERT JUMPDEST ADDRESS PUSH1 0x0 MSTORE PUSH1 0x73 DUP2 MSTORE8 DUP3 DUP2 RETURN INVALID PUSH20 0x0 ADDRESS EQ PUSH1 0x80 PUSH1 0x40 MSTORE PUSH1 0x4 CALLDATASIZE LT PUSH2 0x4B JUMPI PUSH1 0x0 CALLDATALOAD PUSH1 0xE0 SHR DUP1 PUSH4 0x55A3E90F EQ PUSH2 0x50 JUMPI DUP1 PUSH4 0x61A931EC EQ PUSH2 0x6E JUMPI DUP1 PUSH4 0xB73AB75D EQ PUSH2 0x91 JUMPI JUMPDEST PUSH1 0x0 DUP1 REVERT JUMPDEST PUSH2 0x58 PUSH2 0xA4 JUMP JUMPDEST PUSH1 0x40 MLOAD PUSH2 0x65 SWAP2 SWAP1 PUSH2 0xAF3 JUMP JUMPDEST PUSH1 0x40 MLOAD DUP1 SWAP2 SUB SWAP1 RETURN JUMPDEST PUSH2 0x81 PUSH2 0x7C CALLDATASIZE PUSH1 0x4 PUSH2 0xA9F JUMP JUMPDEST PUSH2 0xB6 JUMP JUMPDEST PUSH1 0x40 MLOAD PUSH2 0x65 SWAP5 SWAP4 SWAP3 SWAP2 SWAP1 PUSH2 0xAFC JUMP JUMPDEST PUSH2 0x81 PUSH2 0x9F CALLDATASIZE PUSH1 0x4 PUSH2 0xA65 JUMP JUMPDEST PUSH2 0x244 JUMP JUMPDEST PUSH1 0x0 DUP1 MLOAD PUSH1 0x20 PUSH2 0xB5B DUP4 CODECOPY DUP2 MLOAD SWAP2 MSTORE SWAP1 JUMP JUMPDEST PUSH1 0x0 DUP1 DUP1 DUP1 DUP12 ISZERO DUP1 ISZERO PUSH2 0xC7 JUMPI POP DUP11 ISZERO JUMPDEST DUP1 ISZERO PUSH2 0xD1 JUMPI POP DUP10 ISZERO JUMPDEST DUP1 ISZERO PUSH2 0xDB JUMPI POP DUP9 ISZERO JUMPDEST ISZERO PUSH2 0x13A JUMPI DUP8 ISZERO DUP1 ISZERO PUSH2 0xEC JUMPI POP DUP7 ISZERO JUMPDEST DUP1 ISZERO PUSH2 0xF6 JUMPI POP DUP6 ISZERO JUMPDEST DUP1 ISZERO PUSH2 0x100 JUMPI POP DUP5 ISZERO JUMPDEST PUSH2 0x12A JUMPI PUSH2 0x110 DUP9 DUP9 DUP9 DUP9 PUSH2 0x2D9 JUMP JUMPDEST PUSH2 0x12A JUMPI PUSH4 0x4E487B71 PUSH1 0xE0 SHL PUSH1 0x0 MSTORE PUSH1 0x1 PUSH1 0x4 MSTORE PUSH1 0x24 PUSH1 0x0 REVERT JUMPDEST POP DUP7 SWAP3 POP DUP6 SWAP2 POP DUP5 SWAP1 POP DUP4 PUSH2 0x235 JUMP JUMPDEST DUP8 ISZERO DUP1 ISZERO PUSH2 0x146 JUMPI POP DUP7 ISZERO JUMPDEST DUP1 ISZERO PUSH2 0x150 JUMPI POP DUP6 ISZERO JUMPDEST DUP1 ISZERO PUSH2 0x15A JUMPI POP DUP5 ISZERO JUMPDEST ISZERO PUSH2 0x195 JUMPI PUSH2 0x16B DUP13 DUP13 DUP13 DUP13 PUSH2 0x2D9 JUMP JUMPDEST PUSH2 0x185 JUMPI PUSH4 0x4E487B71 PUSH1 0xE0 SHL PUSH1 0x0 MSTORE PUSH1 0x1 PUSH1 0x4 MSTORE PUSH1 0x24 PUSH1 0x0 REVERT JUMPDEST POP DUP11 SWAP3 POP DUP10 SWAP2 POP DUP9 SWAP1 POP DUP8 PUSH2 0x235 JUMP JUMPDEST PUSH2 0x1A1 DUP13 DUP13 DUP13 DUP13 PUSH2 0x2D9 JUMP JUMPDEST PUSH2 0x1BB JUMPI PUSH4 0x4E487B71 PUSH1 0xE0 SHL PUSH1 0x0 MSTORE PUSH1 0x1 PUSH1 0x4 MSTORE PUSH1 0x24 PUSH1 0x0 REVERT JUMPDEST PUSH2 0x1C7 DUP9 DUP9 DUP9 DUP9 PUSH2 0x2D9 JUMP JUMPDEST PUSH2 0x1E1 JUMPI PUSH4 0x4E487B71 PUSH1 0xE0 SHL PUSH1 0x0 MSTORE PUSH1 0x1 PUSH1 0x4 MSTORE PUSH1 0x24 PUSH1 0x0 REVERT JUMPDEST PUSH1 0x0 PUSH2 0x1FB DUP14 DUP14 DUP14 DUP14 PUSH1 0x1 PUSH1 0x0 DUP16 DUP16 DUP16 DUP16 PUSH1 0x1 PUSH1 0x0 PUSH2 0x38E JUMP JUMPDEST SWAP1 POP PUSH2 0x22B DUP2 PUSH1 0x0 JUMPDEST PUSH1 0x20 SWAP1 DUP2 MUL SWAP2 SWAP1 SWAP2 ADD MLOAD SWAP1 DUP4 ADD MLOAD PUSH1 0x40 DUP5 ADD MLOAD PUSH1 0x60 DUP6 ADD MLOAD PUSH1 0x80 DUP7 ADD MLOAD PUSH1 0xA0 DUP8 ADD MLOAD PUSH2 0x617 JUMP JUMPDEST SWAP5 POP SWAP5 POP SWAP5 POP SWAP5 POP POP JUMPDEST SWAP9 POP SWAP9 POP SWAP9 POP SWAP9 SWAP5 POP POP POP POP POP JUMP JUMPDEST PUSH1 0x0 DUP1 DUP1 DUP1 PUSH1 0x1 DUP9 ISZERO DUP1 ISZERO PUSH2 0x257 JUMPI POP DUP8 ISZERO JUMPDEST DUP1 ISZERO PUSH2 0x261 JUMPI POP DUP7 ISZERO JUMPDEST DUP1 ISZERO PUSH2 0x26B JUMPI POP DUP6 ISZERO JUMPDEST ISZERO PUSH2 0x27F JUMPI POP PUSH1 0x1 SWAP8 POP DUP8 SWAP6 POP PUSH1 0x0 PUSH2 0x2A5 JUMP JUMPDEST PUSH2 0x28B DUP10 DUP10 DUP10 DUP10 PUSH2 0x2D9 JUMP JUMPDEST PUSH2 0x2A5 JUMPI PUSH4 0x4E487B71 PUSH1 0xE0 SHL PUSH1 0x0 MSTORE PUSH1 0x1 PUSH1 0x4 MSTORE PUSH1 0x24 PUSH1 0x0 REVERT JUMPDEST PUSH1 0x0 PUSH2 0x2B7 DUP12 DUP12 DUP12 DUP12 DUP12 DUP8 PUSH1 0x0 PUSH2 0x661 JUMP JUMPDEST SWAP1 POP PUSH2 0x2C4 DUP2 PUSH1 0x0 PUSH2 0x204 JUMP JUMPDEST SWAP3 SWAP15 SWAP2 SWAP14 POP SWAP12 POP SWAP1 SWAP10 POP SWAP8 POP POP POP POP POP POP POP POP JUMP JUMPDEST PUSH1 0x0 DUP1 PUSH1 0x0 DUP1 PUSH1 0x0 PUSH2 0x2ED DUP8 DUP8 DUP10 DUP10 PUSH2 0x6E4 JUMP JUMPDEST SWAP1 SWAP5 POP SWAP3 POP PUSH2 0x2FE DUP10 DUP10 DUP2 DUP2 PUSH2 0x6E4 JUMP JUMPDEST SWAP1 SWAP3 POP SWAP1 POP PUSH2 0x30F DUP3 DUP3 DUP12 DUP12 PUSH2 0x6E4 JUMP JUMPDEST SWAP1 SWAP3 POP SWAP1 POP PUSH2 0x320 DUP5 DUP5 DUP5 DUP5 PUSH2 0x755 JUMP JUMPDEST SWAP1 SWAP5 POP SWAP3 POP PUSH2 0x370 DUP5 DUP5 PUSH32 0x2B149D40CEB8AAAE81BE18991BE06AC3B5B4C5E559DBEFA33267E6DC24A138E5 PUSH31 0x9713B03AF0FED4CD2CAFADEED8FDF4A74FA084E52D1852E4A2BD0685C315D2 PUSH2 0x755 JUMP JUMPDEST SWAP1 SWAP5 POP SWAP3 POP DUP4 ISZERO DUP1 ISZERO PUSH2 0x381 JUMPI POP DUP3 ISZERO JUMPDEST SWAP10 SWAP9 POP POP POP POP POP POP POP POP POP JUMP JUMPDEST PUSH2 0x396 PUSH2 0xA47 JUMP JUMPDEST DUP9 ISZERO DUP1 ISZERO PUSH2 0x3A2 JUMPI POP DUP8 ISZERO JUMPDEST ISZERO PUSH2 0x3E4 JUMPI DUP7 DUP7 DUP7 DUP7 DUP7 DUP7 DUP7 PUSH1 0x0 JUMPDEST PUSH1 0xA0 DUP10 ADD SWAP3 SWAP1 SWAP3 MSTORE PUSH1 0x80 DUP9 ADD SWAP3 SWAP1 SWAP3 MSTORE PUSH1 0x60 DUP8 ADD SWAP3 SWAP1 SWAP3 MSTORE PUSH1 0x40 DUP7 ADD SWAP3 SWAP1 SWAP3 MSTORE PUSH1 0x20 DUP6 DUP2 ADD SWAP4 SWAP1 SWAP4 MSTORE SWAP1 SWAP2 MUL ADD MSTORE PUSH2 0x607 JUMP JUMPDEST DUP3 ISZERO DUP1 ISZERO PUSH2 0x3F0 JUMPI POP DUP2 ISZERO JUMPDEST ISZERO PUSH2 0x403 JUMPI DUP13 DUP13 DUP13 DUP13 DUP13 DUP13 DUP7 PUSH1 0x0 PUSH2 0x3B1 JUMP JUMPDEST PUSH2 0x40F DUP6 DUP6 DUP12 DUP12 PUSH2 0x6E4 JUMP JUMPDEST SWAP1 SWAP6 POP SWAP4 POP PUSH2 0x420 DUP12 DUP12 DUP6 DUP6 PUSH2 0x6E4 JUMP JUMPDEST PUSH1 0x60 DUP4 ADD MSTORE PUSH1 0x40 DUP3 ADD MSTORE PUSH2 0x436 DUP8 DUP8 DUP12 DUP12 PUSH2 0x6E4 JUMP JUMPDEST SWAP1 SWAP8 POP SWAP6 POP PUSH2 0x447 DUP14 DUP14 DUP6 DUP6 PUSH2 0x6E4 JUMP JUMPDEST PUSH1 0xA0 DUP4 ADD MSTORE PUSH1 0x80 DUP3 ADD DUP2 SWAP1 MSTORE DUP8 EQ DUP1 ISZERO PUSH2 0x464 JUMPI POP PUSH1 0xA0 DUP2 ADD MLOAD DUP7 EQ JUMPDEST ISZERO PUSH2 0x4A9 JUMPI PUSH1 0x40 DUP2 ADD MLOAD DUP6 EQ DUP1 ISZERO PUSH2 0x47F JUMPI POP PUSH1 0x60 DUP2 ADD MLOAD DUP5 EQ JUMPDEST ISZERO PUSH2 0x49A JUMPI PUSH2 0x492 DUP14 DUP14 DUP14 DUP14 DUP14 DUP14 PUSH2 0x797 JUMP JUMPDEST DUP7 PUSH1 0x0 PUSH2 0x3B1 JUMP JUMPDEST PUSH1 0x1 PUSH1 0x0 DUP2 DUP2 DUP1 DUP1 DUP7 DUP2 PUSH2 0x3B1 JUMP JUMPDEST PUSH2 0x4B5 DUP10 DUP10 DUP6 DUP6 PUSH2 0x6E4 JUMP JUMPDEST SWAP1 SWAP4 POP SWAP2 POP PUSH2 0x4D5 DUP6 DUP6 DUP4 PUSH1 0x2 PUSH1 0x20 MUL ADD MLOAD DUP5 PUSH1 0x3 JUMPDEST PUSH1 0x20 MUL ADD MLOAD PUSH2 0x755 JUMP JUMPDEST SWAP1 SWAP14 POP SWAP12 POP PUSH2 0x4EF DUP8 DUP8 DUP4 PUSH1 0x4 PUSH1 0x20 MUL ADD MLOAD DUP5 PUSH1 0x5 PUSH2 0x4CB JUMP JUMPDEST SWAP1 SWAP12 POP SWAP10 POP PUSH2 0x500 DUP12 DUP12 DUP2 DUP2 PUSH2 0x6E4 JUMP JUMPDEST SWAP1 SWAP10 POP SWAP8 POP PUSH2 0x520 DUP10 DUP10 DUP4 PUSH1 0x4 PUSH1 0x20 MUL ADD MLOAD DUP5 PUSH1 0x5 JUMPDEST PUSH1 0x20 MUL ADD MLOAD PUSH2 0x6E4 JUMP JUMPDEST SWAP1 SWAP6 POP SWAP4 POP PUSH2 0x531 DUP10 DUP10 DUP14 DUP14 PUSH2 0x6E4 JUMP JUMPDEST SWAP1 SWAP10 POP SWAP8 POP PUSH2 0x542 DUP10 DUP10 DUP6 DUP6 PUSH2 0x6E4 JUMP JUMPDEST PUSH1 0xA0 DUP4 ADD MSTORE PUSH1 0x80 DUP3 ADD MSTORE PUSH2 0x558 DUP14 DUP14 DUP2 DUP2 PUSH2 0x6E4 JUMP JUMPDEST SWAP1 SWAP8 POP SWAP6 POP PUSH2 0x569 DUP8 DUP8 DUP6 DUP6 PUSH2 0x6E4 JUMP JUMPDEST SWAP1 SWAP8 POP SWAP6 POP PUSH2 0x57A DUP8 DUP8 DUP12 DUP12 PUSH2 0x755 JUMP JUMPDEST SWAP1 SWAP8 POP SWAP6 POP PUSH2 0x58B DUP6 DUP6 PUSH1 0x2 PUSH2 0x906 JUMP JUMPDEST SWAP1 SWAP4 POP SWAP2 POP PUSH2 0x59C DUP8 DUP8 DUP6 DUP6 PUSH2 0x755 JUMP JUMPDEST SWAP1 SWAP8 POP SWAP6 POP PUSH2 0x5AD DUP12 DUP12 DUP10 DUP10 PUSH2 0x6E4 JUMP JUMPDEST PUSH1 0x20 DUP4 ADD MSTORE DUP2 MSTORE PUSH2 0x5C0 DUP6 DUP6 DUP10 DUP10 PUSH2 0x755 JUMP JUMPDEST SWAP1 SWAP12 POP SWAP10 POP PUSH2 0x5D1 DUP14 DUP14 DUP14 DUP14 PUSH2 0x6E4 JUMP JUMPDEST SWAP1 SWAP12 POP SWAP10 POP PUSH2 0x5EB DUP10 DUP10 DUP4 PUSH1 0x2 PUSH1 0x20 MUL ADD MLOAD DUP5 PUSH1 0x3 PUSH2 0x516 JUMP JUMPDEST SWAP1 SWAP14 POP SWAP12 POP PUSH2 0x5FC DUP12 DUP12 DUP16 DUP16 PUSH2 0x755 JUMP JUMPDEST PUSH1 0x60 DUP4 ADD MSTORE PUSH1 0x40 DUP3 ADD MSTORE JUMPDEST SWAP13 SWAP12 POP POP POP POP POP POP POP POP POP POP POP POP JUMP JUMPDEST PUSH1 0x0 DUP1 PUSH1 0x0 DUP1 PUSH1 0x0 DUP1 PUSH2 0x62A DUP9 DUP9 PUSH2 0x939 JUMP JUMPDEST SWAP1 SWAP3 POP SWAP1 POP PUSH2 0x63B DUP13 DUP13 DUP5 DUP5 PUSH2 0x6E4 JUMP JUMPDEST SWAP1 SWAP7 POP SWAP5 POP PUSH2 0x64C DUP11 DUP11 DUP5 DUP5 PUSH2 0x6E4 JUMP JUMPDEST SWAP7 SWAP14 SWAP6 SWAP13 POP SWAP11 POP SWAP5 SWAP9 POP SWAP3 SWAP7 POP POP POP POP POP POP POP JUMP JUMPDEST PUSH2 0x669 PUSH2 0xA47 JUMP JUMPDEST DUP8 ISZERO PUSH2 0x6D9 JUMPI PUSH1 0x1 DUP9 AND ISZERO PUSH2 0x6AA JUMPI DUP1 MLOAD PUSH1 0x20 DUP3 ADD MLOAD PUSH1 0x40 DUP4 ADD MLOAD PUSH1 0x60 DUP5 ADD MLOAD PUSH1 0x80 DUP6 ADD MLOAD PUSH1 0xA0 DUP7 ADD MLOAD PUSH2 0x6A7 SWAP6 SWAP5 SWAP4 SWAP3 SWAP2 SWAP1 DUP14 DUP14 DUP14 DUP14 DUP14 DUP14 PUSH2 0x38E JUMP JUMPDEST SWAP1 POP JUMPDEST PUSH2 0x6B8 DUP8 DUP8 DUP8 DUP8 DUP8 DUP8 PUSH2 0x797 JUMP JUMPDEST SWAP5 SWAP12 POP SWAP3 SWAP10 POP SWAP1 SWAP8 POP SWAP6 POP SWAP4 POP SWAP2 POP PUSH2 0x6D2 PUSH1 0x2 DUP10 PUSH2 0xB17 JUMP JUMPDEST SWAP8 POP PUSH2 0x669 JUMP JUMPDEST SWAP8 SWAP7 POP POP POP POP POP POP POP JUMP JUMPDEST PUSH1 0x0 DUP1 PUSH2 0x722 PUSH1 0x0 DUP1 MLOAD PUSH1 0x20 PUSH2 0xB5B DUP4 CODECOPY DUP2 MLOAD SWAP2 MSTORE DUP6 DUP9 MULMOD PUSH1 0x0 DUP1 MLOAD PUSH1 0x20 PUSH2 0xB5B DUP4 CODECOPY DUP2 MLOAD SWAP2 MSTORE DUP6 DUP9 MULMOD PUSH1 0x0 DUP1 MLOAD PUSH1 0x20 PUSH2 0xB5B DUP4 CODECOPY DUP2 MLOAD SWAP2 MSTORE PUSH2 0x9C4 JUMP JUMPDEST PUSH1 0x0 DUP1 MLOAD PUSH1 0x20 PUSH2 0xB5B DUP4 CODECOPY DUP2 MLOAD SWAP2 MSTORE DUP1 DUP7 DUP9 MULMOD PUSH1 0x0 DUP1 MLOAD PUSH1 0x20 PUSH2 0xB5B DUP4 CODECOPY DUP2 MLOAD SWAP2 MSTORE DUP7 DUP11 MULMOD ADDMOD SWAP2 POP SWAP2 POP SWAP5 POP SWAP5 SWAP3 POP POP POP JUMP JUMPDEST PUSH1 0x0 DUP1 PUSH2 0x771 DUP7 DUP6 PUSH1 0x0 DUP1 MLOAD PUSH1 0x20 PUSH2 0xB5B DUP4 CODECOPY DUP2 MLOAD SWAP2 MSTORE PUSH2 0x9C4 JUMP JUMPDEST PUSH2 0x78A DUP7 DUP6 PUSH1 0x0 DUP1 MLOAD PUSH1 0x20 PUSH2 0xB5B DUP4 CODECOPY DUP2 MLOAD SWAP2 MSTORE PUSH2 0x9C4 JUMP JUMPDEST SWAP2 POP SWAP2 POP SWAP5 POP SWAP5 SWAP3 POP POP POP JUMP JUMPDEST PUSH1 0x0 DUP1 PUSH1 0x0 DUP1 PUSH1 0x0 DUP1 PUSH2 0x7AC DUP13 DUP13 PUSH1 0x3 PUSH2 0x906 JUMP JUMPDEST SWAP1 SWAP7 POP SWAP5 POP PUSH2 0x7BD DUP7 DUP7 DUP15 DUP15 PUSH2 0x6E4 JUMP JUMPDEST SWAP1 SWAP7 POP SWAP5 POP PUSH2 0x7CE DUP11 DUP11 DUP11 DUP11 PUSH2 0x6E4 JUMP JUMPDEST SWAP1 SWAP9 POP SWAP7 POP PUSH2 0x7DF DUP13 DUP13 DUP13 DUP13 PUSH2 0x6E4 JUMP JUMPDEST SWAP1 SWAP5 POP SWAP3 POP PUSH2 0x7F0 DUP5 DUP5 DUP11 DUP11 PUSH2 0x6E4 JUMP JUMPDEST SWAP1 SWAP5 POP SWAP3 POP PUSH2 0x801 DUP7 DUP7 DUP2 DUP2 PUSH2 0x6E4 JUMP JUMPDEST SWAP1 SWAP13 POP SWAP11 POP PUSH2 0x812 DUP5 DUP5 PUSH1 0x8 PUSH2 0x906 JUMP JUMPDEST SWAP1 SWAP3 POP SWAP1 POP PUSH2 0x823 DUP13 DUP13 DUP5 DUP5 PUSH2 0x755 JUMP JUMPDEST SWAP1 SWAP13 POP SWAP11 POP PUSH2 0x834 DUP9 DUP9 DUP2 DUP2 PUSH2 0x6E4 JUMP JUMPDEST SWAP1 SWAP3 POP SWAP1 POP PUSH2 0x845 DUP5 DUP5 PUSH1 0x4 PUSH2 0x906 JUMP JUMPDEST SWAP1 SWAP5 POP SWAP3 POP PUSH2 0x856 DUP5 DUP5 DUP15 DUP15 PUSH2 0x755 JUMP JUMPDEST SWAP1 SWAP5 POP SWAP3 POP PUSH2 0x867 DUP5 DUP5 DUP9 DUP9 PUSH2 0x6E4 JUMP JUMPDEST SWAP1 SWAP5 POP SWAP3 POP PUSH2 0x878 DUP11 DUP11 PUSH1 0x8 PUSH2 0x906 JUMP JUMPDEST SWAP1 SWAP7 POP SWAP5 POP PUSH2 0x889 DUP7 DUP7 DUP13 DUP13 PUSH2 0x6E4 JUMP JUMPDEST SWAP1 SWAP7 POP SWAP5 POP PUSH2 0x89A DUP7 DUP7 DUP5 DUP5 PUSH2 0x6E4 JUMP JUMPDEST SWAP1 SWAP7 POP SWAP5 POP PUSH2 0x8AB DUP5 DUP5 DUP9 DUP9 PUSH2 0x755 JUMP JUMPDEST SWAP1 SWAP5 POP SWAP3 POP PUSH2 0x8BC DUP13 DUP13 PUSH1 0x2 PUSH2 0x906 JUMP JUMPDEST SWAP1 SWAP7 POP SWAP5 POP PUSH2 0x8CD DUP7 DUP7 DUP11 DUP11 PUSH2 0x6E4 JUMP JUMPDEST SWAP1 SWAP7 POP SWAP5 POP PUSH2 0x8DE DUP9 DUP9 DUP5 DUP5 PUSH2 0x6E4 JUMP JUMPDEST SWAP1 SWAP3 POP SWAP1 POP PUSH2 0x8EF DUP3 DUP3 PUSH1 0x8 PUSH2 0x906 JUMP JUMPDEST DUP1 SWAP3 POP DUP2 SWAP4 POP POP POP SWAP7 POP SWAP7 POP SWAP7 POP SWAP7 POP SWAP7 POP SWAP7 SWAP1 POP JUMP JUMPDEST PUSH1 0x0 DUP1 PUSH1 0x0 DUP1 MLOAD PUSH1 0x20 PUSH2 0xB5B DUP4 CODECOPY DUP2 MLOAD SWAP2 MSTORE DUP4 DUP7 MULMOD PUSH1 0x0 DUP1 MLOAD PUSH1 0x20 PUSH2 0xB5B DUP4 CODECOPY DUP2 MLOAD SWAP2 MSTORE DUP5 DUP7 MULMOD SWAP2 POP SWAP2 POP SWAP4 POP SWAP4 SWAP2 POP POP JUMP JUMPDEST PUSH1 0x0 DUP1 DUP1 PUSH2 0x97A PUSH1 0x0 DUP1 MLOAD PUSH1 0x20 PUSH2 0xB5B DUP4 CODECOPY DUP2 MLOAD SWAP2 MSTORE DUP1 DUP8 DUP9 MULMOD PUSH1 0x0 DUP1 MLOAD PUSH1 0x20 PUSH2 0xB5B DUP4 CODECOPY DUP2 MLOAD SWAP2 MSTORE DUP8 DUP9 MULMOD ADDMOD PUSH1 0x0 DUP1 MLOAD PUSH1 0x20 PUSH2 0xB5B DUP4 CODECOPY DUP2 MLOAD SWAP2 MSTORE PUSH2 0x9F6 JUMP JUMPDEST SWAP1 POP PUSH1 0x0 DUP1 MLOAD PUSH1 0x20 PUSH2 0xB5B DUP4 CODECOPY DUP2 MLOAD SWAP2 MSTORE DUP2 DUP7 MULMOD PUSH1 0x0 DUP1 MLOAD PUSH1 0x20 PUSH2 0xB5B DUP4 CODECOPY DUP2 MLOAD SWAP2 MSTORE DUP3 DUP7 MULMOD PUSH2 0x9B8 SWAP1 PUSH1 0x0 DUP1 MLOAD PUSH1 0x20 PUSH2 0xB5B DUP4 CODECOPY DUP2 MLOAD SWAP2 MSTORE PUSH2 0xB37 JUMP JUMPDEST SWAP3 POP SWAP3 POP POP SWAP3 POP SWAP3 SWAP1 POP JUMP JUMPDEST PUSH1 0x0 DUP2 DUP1 PUSH2 0x9E2 JUMPI PUSH4 0x4E487B71 PUSH1 0xE0 SHL PUSH1 0x0 MSTORE PUSH1 0x12 PUSH1 0x4 MSTORE PUSH1 0x24 PUSH1 0x0 REVERT JUMPDEST PUSH2 0x9EC DUP5 DUP5 PUSH2 0xB37 JUMP JUMPDEST DUP6 ADDMOD SWAP5 SWAP4 POP POP POP POP JUMP JUMPDEST PUSH1 0x0 DUP1 PUSH1 0x40 MLOAD PUSH1 0x20 DUP2 MSTORE PUSH1 0x20 DUP1 DUP3 ADD MSTORE PUSH1 0x20 PUSH1 0x40 DUP3 ADD MSTORE DUP5 PUSH1 0x60 DUP3 ADD MSTORE PUSH1 0x2 DUP5 SUB PUSH1 0x80 DUP3 ADD MSTORE DUP4 PUSH1 0xA0 DUP3 ADD MSTORE PUSH1 0x20 DUP2 PUSH1 0xC0 DUP4 PUSH1 0x5 PUSH2 0x7D0 GAS SUB STATICCALL SWAP1 MLOAD SWAP3 POP SWAP1 POP DUP1 PUSH2 0xA40 JUMPI PUSH1 0x0 DUP1 REVERT JUMPDEST POP SWAP3 SWAP2 POP POP JUMP JUMPDEST PUSH1 0x40 MLOAD DUP1 PUSH1 0xC0 ADD PUSH1 0x40 MSTORE DUP1 PUSH1 0x6 SWAP1 PUSH1 0x20 DUP3 MUL DUP1 CALLDATASIZE DUP4 CALLDATACOPY POP SWAP2 SWAP3 SWAP2 POP POP JUMP JUMPDEST PUSH1 0x0 DUP1 PUSH1 0x0 DUP1 PUSH1 0x0 PUSH1 0xA0 DUP7 DUP9 SUB SLT ISZERO PUSH2 0xA7C JUMPI DUP1 DUP2 REVERT JUMPDEST POP POP DUP4 CALLDATALOAD SWAP6 PUSH1 0x20 DUP6 ADD CALLDATALOAD SWAP6 POP PUSH1 0x40 DUP6 ADD CALLDATALOAD SWAP5 PUSH1 0x60 DUP2 ADD CALLDATALOAD SWAP5 POP PUSH1 0x80 ADD CALLDATALOAD SWAP3 POP SWAP1 POP JUMP JUMPDEST PUSH1 0x0 DUP1 PUSH1 0x0 DUP1 PUSH1 0x0 DUP1 PUSH1 0x0 DUP1 PUSH2 0x100 DUP10 DUP12 SUB SLT ISZERO PUSH2 0xABB JUMPI DUP3 DUP4 REVERT JUMPDEST POP POP DUP7 CALLDATALOAD SWAP9 PUSH1 0x20 DUP9 ADD CALLDATALOAD SWAP9 POP PUSH1 0x40 DUP9 ADD CALLDATALOAD SWAP8 PUSH1 0x60 DUP2 ADD CALLDATALOAD SWAP8 POP PUSH1 0x80 DUP2 ADD CALLDATALOAD SWAP7 POP PUSH1 0xA0 DUP2 ADD CALLDATALOAD SWAP6 POP PUSH1 0xC0 DUP2 ADD CALLDATALOAD SWAP5 POP PUSH1 0xE0 ADD CALLDATALOAD SWAP3 POP SWAP1 POP JUMP JUMPDEST SWAP1 DUP2 MSTORE PUSH1 0x20 ADD SWAP1 JUMP JUMPDEST SWAP4 DUP5 MSTORE PUSH1 0x20 DUP5 ADD SWAP3 SWAP1 SWAP3 MSTORE PUSH1 0x40 DUP4 ADD MSTORE PUSH1 0x60 DUP3 ADD MSTORE PUSH1 0x80 ADD SWAP1 JUMP JUMPDEST PUSH1 0x0 DUP3 PUSH2 0xB32 JUMPI PUSH4 0x4E487B71 PUSH1 0xE0 SHL DUP2 MSTORE PUSH1 0x12 PUSH1 0x4 MSTORE PUSH1 0x24 DUP2 REVERT JUMPDEST POP DIV SWAP1 JUMP JUMPDEST PUSH1 0x0 DUP3 DUP3 LT ISZERO PUSH2 0xB55 JUMPI PUSH4 0x4E487B71 PUSH1 0xE0 SHL DUP2 MSTORE PUSH1 0x11 PUSH1 0x4 MSTORE PUSH1 0x24 DUP2 REVERT JUMPDEST POP SUB SWAP1 JUMP INVALID ADDRESS PUSH5 0x4E72E131A0 0x29 0xB8 POP GASLIMIT 0xB6 DUP2 DUP2 PC 0x5D SWAP8 DUP2 PUSH11 0x916871CA8D3C208C16D87C REVERT SELFBALANCE LOG2 PUSH5 0x6970667358 0x22 SLT KECCAK256 0xA9 PC 0xD PUSH17 0xFFBF9327C63EE4B1CEA2C19FBB105460C6 0xCF 0xD7 0xB8 MOD SWAP16 0xCC XOR BYTE SHR 0xAE 0xD PUSH5 0x736F6C6343 STOP ADDMOD ADD STOP CALLER "
		},
		"gasEstimates": {
			"creation": {
				"codeDepositCost": "598400",
				"executionCost": "663",
				"totalCost": "599063"
			},
			"external": {
				"ECTwistAdd(uint256,uint256,uint256,uint256,uint256,uint256,uint256,uint256)": "infinite",
				"ECTwistMul(uint256,uint256,uint256,uint256,uint256)": "infinite",
				"GetFieldModulus()": "infinite"
			},
			"internal": {
				"_ECTwistAddJacobian(uint256,uint256,uint256,uint256,uint256,uint256,uint256,uint256,uint256,uint256,uint256,uint256)": "infinite",
				"_ECTwistDoubleJacobian(uint256,uint256,uint256,uint256,uint256,uint256)": "infinite",
				"_ECTwistMulJacobian(uint256,uint256,uint256,uint256,uint256,uint256,uint256)": "infinite",
				"_FQ2Add(uint256,uint256,uint256,uint256)": "infinite",
				"_FQ2Div(uint256,uint256,uint256,uint256)": "infinite",
				"_FQ2Inv(uint256,uint256)": "infinite",
				"_FQ2Muc(uint256,uint256,uint256)": "143",
				"_FQ2Mul(uint256,uint256,uint256,uint256)": "431",
				"_FQ2Sub(uint256,uint256,uint256,uint256)": "infinite",
				"_fromJacobian(uint256,uint256,uint256,uint256,uint256,uint256)": "infinite",
				"_isOnCurve(uint256,uint256,uint256,uint256)": "infinite",
				"_modInv(uint256,uint256)": "infinite",
				"submod(uint256,uint256,uint256)": "124"
			}
		},
		"methodIdentifiers": {
			"ECTwistAdd(uint256,uint256,uint256,uint256,uint256,uint256,uint256,uint256)": "61a931ec",
			"ECTwistMul(uint256,uint256,uint256,uint256,uint256)": "b73ab75d",
			"GetFieldModulus()": "55a3e90f"
		}
	},
	"abi": [
		{
			"inputs": [
				{
					"internalType": "uint256",
					"name": "pt1xx",
					"type": "uint256"
				},
				{
					"internalType": "uint256",
					"name": "pt1xy",
					"type": "uint256"
				},
				{
					"internalType": "uint256",
					"name": "pt1yx",
					"type": "uint256"
				},
				{
					"internalType": "uint256",
					"name": "pt1yy",
					"type": "uint256"
				},
				{
					"internalType": "uint256",
					"name": "pt2xx",
					"type": "uint256"
				},
				{
					"internalType": "uint256",
					"name": "pt2xy",
					"type": "uint256"
				},
				{
					"internalType": "uint256",
					"name": "pt2yx",
					"type": "uint256"
				},
				{
					"internalType": "uint256",
					"name": "pt2yy",
					"type": "uint256"
				}
			],
			"name": "ECTwistAdd",
			"outputs": [
				{
					"internalType": "uint256",
					"name": "",
					"type": "uint256"
				},
				{
					"internalType": "uint256",
					"name": "",
					"type": "uint256"
				},
				{
					"internalType": "uint256",
					"name": "",
					"type": "uint256"
				},
				{
					"internalType": "uint256",
					"name": "",
					"type": "uint256"
				}
			],
			"stateMutability": "view",
			"type": "function"
		},
		{
			"inputs": [
				{
					"internalType": "uint256",
					"name": "s",
					"type": "uint256"
				},
				{
					"internalType": "uint256",
					"name": "pt1xx",
					"type": "uint256"
				},
				{
					"internalType": "uint256",
					"name": "pt1xy",
					"type": "uint256"
				},
				{
					"internalType": "uint256",
					"name": "pt1yx",
					"type": "uint256"
				},
				{
					"internalType": "uint256",
					"name": "pt1yy",
					"type": "uint256"
				}
			],
			"name": "ECTwistMul",
			"outputs": [
				{
					"internalType": "uint256",
					"name": "",
					"type": "uint256"
				},
				{
					"internalType": "uint256",
					"name": "",
					"type": "uint256"
				},
				{
					"internalType": "uint256",
					"name": "",
					"type": "uint256"
				},
				{
					"internalType": "uint256",
					"name": "",
					"type": "uint256"
				}
			],
			"stateMutability": "view",
			"type": "function"
		},
		{
			"inputs": [],
			"name": "GetFieldModulus",
			"outputs": [
				{
					"internalType": "uint256",
					"name": "",
					"type": "uint256"
				}
			],
			"stateMutability": "pure",
			"type": "function"
		}
	]
}