{
	"data": {
		"bytecode": {
			"linkReferences": {},
			"object": "61119d610026600b82828239805160001a60731461001957fe5b30600052607381538281f3fe730000000000000000000000000000000000000000301460806040526004361061004b5760003560e01c806355a3e90f1461005057806361a931ec1461006e578063b73ab75d1461010c575b600080fd5b61005861018b565b6040518082815260200191505060405180910390f35b6100e1600480360361010081101561008557600080fd5b8101908080359060200190929190803590602001909291908035906020019092919080359060200190929190803590602001909291908035906020019092919080359060200190929190803590602001909291905050506101b3565b6040518085815260200184815260200183815260200182815260200194505050505060405180910390f35b610160600480360360a081101561012257600080fd5b810190808035906020019092919080359060200190929190803590602001909291908035906020019092919080359060200190929190505050610359565b6040518085815260200184815260200183815260200182815260200194505050505060405180910390f35b60007f30644e72e131a029b85045b68181585d97816a916871ca8d3c208c16d87cfd47905090565b60008060008060008c1480156101c9575060008b145b80156101d5575060008a145b80156101e15750600089145b15610236576000881480156101f65750600087145b80156102025750600086145b801561020e5750600085145b6102255761021e8888888861045a565b61022457fe5b5b87878787935093509350935061034a565b6000881480156102465750600087145b80156102525750600086145b801561025e5750600085145b156102865761026f8c8c8c8c61045a565b61027557fe5b8b8b8b8b935093509350935061034a565b6102928c8c8c8c61045a565b61029857fe5b6102a48888888861045a565b6102aa57fe5b6102b2611145565b6102ca8d8d8d8d600160008f8f8f8f60016000610523565b9050610340816000600681106102dc57fe5b6020020151826001600681106102ee57fe5b60200201518360026006811061030057fe5b60200201518460036006811061031257fe5b60200201518560046006811061032457fe5b60200201518660056006811061033657fe5b6020020151610af9565b9450945094509450505b98509850985098945050505050565b6000806000806000600190506000891480156103755750600088145b80156103815750600087145b801561038d5750600086145b156103a3576001985060019650600090506103b6565b6103af8989898961045a565b6103b557fe5b5b6103be611145565b6103ce8b8b8b8b8b876000610b4b565b9050610444816000600681106103e057fe5b6020020151826001600681106103f257fe5b60200201518360026006811061040457fe5b60200201518460036006811061041657fe5b60200201518560046006811061042857fe5b60200201518660056006811061043a57fe5b6020020151610af9565b9550955095509550505095509550955095915050565b600080600080600061046e87878989610c27565b809450819550505061048289898b8b610c27565b809250819350505061049682828b8b610c27565b80925081935050506104aa84848484610d35565b80945081955050506104fd84847f2b149d40ceb8aaae81be18991be06ac3b5b4c5e559dbefa33267e6dc24a138e57e9713b03af0fed4cd2cafadeed8fdf4a74fa084e52d1852e4a2bd0685c315d2610d35565b80945081955050506000841480156105155750600083145b945050505050949350505050565b61052b611145565b60008914801561053b5750600088145b156105cf578686868686868660006006811061055357fe5b602002018760016006811061056457fe5b602002018860026006811061057557fe5b602002018960036006811061058657fe5b602002018a60046006811061059757fe5b602002018b6005600681106105a857fe5b60200201868152508681525086815250868152508681525086815250505050505050610ae9565b6000831480156105df5750600082145b15610673578c8c8c8c8c8c866000600681106105f757fe5b602002018760016006811061060857fe5b602002018860026006811061061957fe5b602002018960036006811061062a57fe5b602002018a60046006811061063b57fe5b602002018b60056006811061064c57fe5b60200201868152508681525086815250868152508681525086815250505050505050610ae9565b61067f85858b8b610c27565b80955081965050506106938b8b8585610c27565b826002600681106106a057fe5b60200201836003600681106106b157fe5b60200201828152508281525050506106cb87878b8b610c27565b80975081985050506106df8d8d8585610c27565b826004600681106106ec57fe5b60200201836005600681106106fd57fe5b60200201828152508281525050508060046006811061071857fe5b60200201518714801561073b57508060056006811061073357fe5b602002015186145b156108a0578060026006811061074d57fe5b60200201518514801561077057508060036006811061076857fe5b602002015184145b1561080c576107838d8d8d8d8d8d610d9b565b8660006006811061079057fe5b60200201876001600681106107a157fe5b60200201886002600681106107b257fe5b60200201896003600681106107c357fe5b602002018a6004600681106107d457fe5b602002018b6005600681106107e557fe5b60200201868152508681525086815250868152508681525086815250505050505050610ae9565b60016000600160008060008660006006811061082457fe5b602002018760016006811061083557fe5b602002018860026006811061084657fe5b602002018960036006811061085757fe5b602002018a60046006811061086857fe5b602002018b60056006811061087957fe5b60200201868152508681525086815250868152508681525086815250505050505050610ae9565b6108ac89898585610c27565b80935081945050506108e28585836002600681106108c657fe5b6020020151846003600681106108d857fe5b6020020151610d35565b809d50819e5050506109188787836004600681106108fc57fe5b60200201518460056006811061090e57fe5b6020020151610d35565b809b50819c50505061092c8b8b8d8d610c27565b809950819a50505061096289898360046006811061094657fe5b60200201518460056006811061095857fe5b6020020151610c27565b809550819650505061097689898d8d610c27565b809950819a50505061098a89898585610c27565b8260046006811061099757fe5b60200201836005600681106109a857fe5b60200201828152508281525050506109c28d8d8f8f610c27565b80975081985050506109d687878585610c27565b80975081985050506109ea87878b8b610d35565b80975081985050506109fe85856002610f43565b8093508194505050610a1287878585610d35565b8097508198505050610a268b8b8989610c27565b82600060068110610a3357fe5b6020020183600160068110610a4457fe5b6020020182815250828152505050610a5e85858989610d35565b809b50819c505050610a728d8d8d8d610c27565b809b50819c505050610aa8898983600260068110610a8c57fe5b602002015184600360068110610a9e57fe5b6020020151610c27565b809d50819e505050610abc8b8b8f8f610d35565b82600260068110610ac957fe5b6020020183600360068110610ada57fe5b60200201828152508281525050505b9c9b505050505050505050505050565b600080600080600080610b0c8888610fa8565b8092508193505050610b208c8c8484610c27565b8096508197505050610b348a8a8484610c27565b809450819550505050509650965096509692505050565b610b53611145565b5b60008814610c1c5760006001891614610be457610be181600060068110610b7757fe5b602002015182600160068110610b8957fe5b602002015183600260068110610b9b57fe5b602002015184600360068110610bad57fe5b602002015185600460068110610bbf57fe5b602002015186600560068110610bd157fe5b60200201518d8d8d8d8d8d610523565b90505b610bf2878787878787610d9b565b809750819850829950839a50849b50859c5050505050505060028881610c1457fe5b049750610b54565b979650505050505050565b600080610ca97f30644e72e131a029b85045b68181585d97816a916871ca8d3c208c16d87cfd4780610c5557fe5b8588097f30644e72e131a029b85045b68181585d97816a916871ca8d3c208c16d87cfd4780610c8057fe5b8588097f30644e72e131a029b85045b68181585d97816a916871ca8d3c208c16d87cfd476110db565b7f30644e72e131a029b85045b68181585d97816a916871ca8d3c208c16d87cfd4780610cd157fe5b7f30644e72e131a029b85045b68181585d97816a916871ca8d3c208c16d87cfd4780610cf957fe5b8688097f30644e72e131a029b85045b68181585d97816a916871ca8d3c208c16d87cfd4780610d2457fe5b868a09089150915094509492505050565b600080610d6386857f30644e72e131a029b85045b68181585d97816a916871ca8d3c208c16d87cfd476110db565b610d8e86857f30644e72e131a029b85045b68181585d97816a916871ca8d3c208c16d87cfd476110db565b9150915094509492505050565b600080600080600080610db08c8c6003610f43565b8096508197505050610dc486868e8e610c27565b8096508197505050610dd88a8a8a8a610c27565b8098508199505050610dec8c8c8c8c610c27565b8094508195505050610e0084848a8a610c27565b8094508195505050610e1486868888610c27565b809c50819d505050610e2884846008610f43565b8092508193505050610e3c8c8c8484610d35565b809c50819d505050610e5088888a8a610c27565b8092508193505050610e6484846004610f43565b8094508195505050610e7884848e8e610d35565b8094508195505050610e8c84848888610c27565b8094508195505050610ea08a8a6008610f43565b8096508197505050610eb486868c8c610c27565b8096508197505050610ec886868484610c27565b8096508197505050610edc84848888610d35565b8094508195505050610ef08c8c6002610f43565b8096508197505050610f0486868a8a610c27565b8096508197505050610f1888888484610c27565b8092508193505050610f2c82826008610f43565b809250819350505096509650965096509650969050565b6000807f30644e72e131a029b85045b68181585d97816a916871ca8d3c208c16d87cfd4780610f6e57fe5b8386097f30644e72e131a029b85045b68181585d97816a916871ca8d3c208c16d87cfd4780610f9957fe5b84860991509150935093915050565b60008060006110557f30644e72e131a029b85045b68181585d97816a916871ca8d3c208c16d87cfd4780610fd857fe5b7f30644e72e131a029b85045b68181585d97816a916871ca8d3c208c16d87cfd478061100057fe5b8788097f30644e72e131a029b85045b68181585d97816a916871ca8d3c208c16d87cfd478061102b57fe5b878809087f30644e72e131a029b85045b68181585d97816a916871ca8d3c208c16d87cfd476110f3565b90507f30644e72e131a029b85045b68181585d97816a916871ca8d3c208c16d87cfd478061107f57fe5b8186097f30644e72e131a029b85045b68181585d97816a916871ca8d3c208c16d87cfd47806110aa57fe5b8286097f30644e72e131a029b85045b68181585d97816a916871ca8d3c208c16d87cfd470392509250509250929050565b600081806110e557fe5b838303850890509392505050565b60008060405160208152602080820152602060408201528460608201526002840360808201528360a082015260208160c08360056107d05a03fa915080519250508061113e57600080fd5b5092915050565b6040518060c0016040528060069060208202803683378082019150509050509056fea26469706673582212209523b0af0ce37357d7fa91a9e24af7f28104b9f6bde410852e385045b030565c64736f6c634300060c0033",
			"opcodes": "PUSH2 0x119D PUSH2 0x26 PUSH1 0xB DUP3 DUP3 DUP3 CODECOPY DUP1 MLOAD PUSH1 0x0 BYTE PUSH1 0x73 EQ PUSH2 0x19 JUMPI INVALID JUMPDEST ADDRESS PUSH1 0x0 MSTORE PUSH1 0x73 DUP2 MSTORE8 DUP3 DUP2 RETURN INVALID PUSH20 0x0 ADDRESS EQ PUSH1 0x80 PUSH1 0x40 MSTORE PUSH1 0x4 CALLDATASIZE LT PUSH2 0x4B JUMPI PUSH1 0x0 CALLDATALOAD PUSH1 0xE0 SHR DUP1 PUSH4 0x55A3E90F EQ PUSH2 0x50 JUMPI DUP1 PUSH4 0x61A931EC EQ PUSH2 0x6E JUMPI DUP1 PUSH4 0xB73AB75D EQ PUSH2 0x10C JUMPI JUMPDEST PUSH1 0x0 DUP1 REVERT JUMPDEST PUSH2 0x58 PUSH2 0x18B JUMP JUMPDEST PUSH1 0x40 MLOAD DUP1 DUP3 DUP2 MSTORE PUSH1 0x20 ADD SWAP2 POP POP PUSH1 0x40 MLOAD DUP1 SWAP2 SUB SWAP1 RETURN JUMPDEST PUSH2 0xE1 PUSH1 0x4 DUP1 CALLDATASIZE SUB PUSH2 0x100 DUP2 LT ISZERO PUSH2 0x85 JUMPI PUSH1 0x0 DUP1 REVERT JUMPDEST DUP2 ADD SWAP1 DUP1 DUP1 CALLDATALOAD SWAP1 PUSH1 0x20 ADD SWAP1 SWAP3 SWAP2 SWAP1 DUP1 CALLDATALOAD SWAP1 PUSH1 0x20 ADD SWAP1 SWAP3 SWAP2 SWAP1 DUP1 CALLDATALOAD SWAP1 PUSH1 0x20 ADD SWAP1 SWAP3 SWAP2 SWAP1 DUP1 CALLDATALOAD SWAP1 PUSH1 0x20 ADD SWAP1 SWAP3 SWAP2 SWAP1 DUP1 CALLDATALOAD SWAP1 PUSH1 0x20 ADD SWAP1 SWAP3 SWAP2 SWAP1 DUP1 CALLDATALOAD SWAP1 PUSH1 0x20 ADD SWAP1 SWAP3 SWAP2 SWAP1 DUP1 CALLDATALOAD SWAP1 PUSH1 0x20 ADD SWAP1 SWAP3 SWAP2 SWAP1 DUP1 CALLDATALOAD SWAP1 PUSH1 0x20 ADD SWAP1 SWAP3 SWAP2 SWAP1 POP POP POP PUSH2 0x1B3 JUMP JUMPDEST PUSH1 0x40 MLOAD DUP1 DUP6 DUP2 MSTORE PUSH1 0x20 ADD DUP5 DUP2 MSTORE PUSH1 0x20 ADD DUP4 DUP2 MSTORE PUSH1 0x20 ADD DUP3 DUP2 MSTORE PUSH1 0x20 ADD SWAP5 POP POP POP POP POP PUSH1 0x40 MLOAD DUP1 SWAP2 SUB SWAP1 RETURN JUMPDEST PUSH2 0x160 PUSH1 0x4 DUP1 CALLDATASIZE SUB PUSH1 0xA0 DUP2 LT ISZERO PUSH2 0x122 JUMPI PUSH1 0x0 DUP1 REVERT JUMPDEST DUP2 ADD SWAP1 DUP1 DUP1 CALLDATALOAD SWAP1 PUSH1 0x20 ADD SWAP1 SWAP3 SWAP2 SWAP1 DUP1 CALLDATALOAD SWAP1 PUSH1 0x20 ADD SWAP1 SWAP3 SWAP2 SWAP1 DUP1 CALLDATALOAD SWAP1 PUSH1 0x20 ADD SWAP1 SWAP3 SWAP2 SWAP1 DUP1 CALLDATALOAD SWAP1 PUSH1 0x20 ADD SWAP1 SWAP3 SWAP2 SWAP1 DUP1 CALLDATALOAD SWAP1 PUSH1 0x20 ADD SWAP1 SWAP3 SWAP2 SWAP1 POP POP POP PUSH2 0x359 JUMP JUMPDEST PUSH1 0x40 MLOAD DUP1 DUP6 DUP2 MSTORE PUSH1 0x20 ADD DUP5 DUP2 MSTORE PUSH1 0x20 ADD DUP4 DUP2 MSTORE PUSH1 0x20 ADD DUP3 DUP2 MSTORE PUSH1 0x20 ADD SWAP5 POP POP POP POP POP PUSH1 0x40 MLOAD DUP1 SWAP2 SUB SWAP1 RETURN JUMPDEST PUSH1 0x0 PUSH32 0x30644E72E131A029B85045B68181585D97816A916871CA8D3C208C16D87CFD47 SWAP1 POP SWAP1 JUMP JUMPDEST PUSH1 0x0 DUP1 PUSH1 0x0 DUP1 PUSH1 0x0 DUP13 EQ DUP1 ISZERO PUSH2 0x1C9 JUMPI POP PUSH1 0x0 DUP12 EQ JUMPDEST DUP1 ISZERO PUSH2 0x1D5 JUMPI POP PUSH1 0x0 DUP11 EQ JUMPDEST DUP1 ISZERO PUSH2 0x1E1 JUMPI POP PUSH1 0x0 DUP10 EQ JUMPDEST ISZERO PUSH2 0x236 JUMPI PUSH1 0x0 DUP9 EQ DUP1 ISZERO PUSH2 0x1F6 JUMPI POP PUSH1 0x0 DUP8 EQ JUMPDEST DUP1 ISZERO PUSH2 0x202 JUMPI POP PUSH1 0x0 DUP7 EQ JUMPDEST DUP1 ISZERO PUSH2 0x20E JUMPI POP PUSH1 0x0 DUP6 EQ JUMPDEST PUSH2 0x225 JUMPI PUSH2 0x21E DUP9 DUP9 DUP9 DUP9 PUSH2 0x45A JUMP JUMPDEST PUSH2 0x224 JUMPI INVALID JUMPDEST JUMPDEST DUP8 DUP8 DUP8 DUP8 SWAP4 POP SWAP4 POP SWAP4 POP SWAP4 POP PUSH2 0x34A JUMP JUMPDEST PUSH1 0x0 DUP9 EQ DUP1 ISZERO PUSH2 0x246 JUMPI POP PUSH1 0x0 DUP8 EQ JUMPDEST DUP1 ISZERO PUSH2 0x252 JUMPI POP PUSH1 0x0 DUP7 EQ JUMPDEST DUP1 ISZERO PUSH2 0x25E JUMPI POP PUSH1 0x0 DUP6 EQ JUMPDEST ISZERO PUSH2 0x286 JUMPI PUSH2 0x26F DUP13 DUP13 DUP13 DUP13 PUSH2 0x45A JUMP JUMPDEST PUSH2 0x275 JUMPI INVALID JUMPDEST DUP12 DUP12 DUP12 DUP12 SWAP4 POP SWAP4 POP SWAP4 POP SWAP4 POP PUSH2 0x34A JUMP JUMPDEST PUSH2 0x292 DUP13 DUP13 DUP13 DUP13 PUSH2 0x45A JUMP JUMPDEST PUSH2 0x298 JUMPI INVALID JUMPDEST PUSH2 0x2A4 DUP9 DUP9 DUP9 DUP9 PUSH2 0x45A JUMP JUMPDEST PUSH2 0x2AA JUMPI INVALID JUMPDEST PUSH2 0x2B2 PUSH2 0x1145 JUMP JUMPDEST PUSH2 0x2CA DUP14 DUP14 DUP14 DUP14 PUSH1 0x1 PUSH1 0x0 DUP16 DUP16 DUP16 DUP16 PUSH1 0x1 PUSH1 0x0 PUSH2 0x523 JUMP JUMPDEST SWAP1 POP PUSH2 0x340 DUP2 PUSH1 0x0 PUSH1 0x6 DUP2 LT PUSH2 0x2DC JUMPI INVALID JUMPDEST PUSH1 0x20 MUL ADD MLOAD DUP3 PUSH1 0x1 PUSH1 0x6 DUP2 LT PUSH2 0x2EE JUMPI INVALID JUMPDEST PUSH1 0x20 MUL ADD MLOAD DUP4 PUSH1 0x2 PUSH1 0x6 DUP2 LT PUSH2 0x300 JUMPI INVALID JUMPDEST PUSH1 0x20 MUL ADD MLOAD DUP5 PUSH1 0x3 PUSH1 0x6 DUP2 LT PUSH2 0x312 JUMPI INVALID JUMPDEST PUSH1 0x20 MUL ADD MLOAD DUP6 PUSH1 0x4 PUSH1 0x6 DUP2 LT PUSH2 0x324 JUMPI INVALID JUMPDEST PUSH1 0x20 MUL ADD MLOAD DUP7 PUSH1 0x5 PUSH1 0x6 DUP2 LT PUSH2 0x336 JUMPI INVALID JUMPDEST PUSH1 0x20 MUL ADD MLOAD PUSH2 0xAF9 JUMP JUMPDEST SWAP5 POP SWAP5 POP SWAP5 POP SWAP5 POP POP JUMPDEST SWAP9 POP SWAP9 POP SWAP9 POP SWAP9 SWAP5 POP POP POP POP POP JUMP JUMPDEST PUSH1 0x0 DUP1 PUSH1 0x0 DUP1 PUSH1 0x0 PUSH1 0x1 SWAP1 POP PUSH1 0x0 DUP10 EQ DUP1 ISZERO PUSH2 0x375 JUMPI POP PUSH1 0x0 DUP9 EQ JUMPDEST DUP1 ISZERO PUSH2 0x381 JUMPI POP PUSH1 0x0 DUP8 EQ JUMPDEST DUP1 ISZERO PUSH2 0x38D JUMPI POP PUSH1 0x0 DUP7 EQ JUMPDEST ISZERO PUSH2 0x3A3 JUMPI PUSH1 0x1 SWAP9 POP PUSH1 0x1 SWAP7 POP PUSH1 0x0 SWAP1 POP PUSH2 0x3B6 JUMP JUMPDEST PUSH2 0x3AF DUP10 DUP10 DUP10 DUP10 PUSH2 0x45A JUMP JUMPDEST PUSH2 0x3B5 JUMPI INVALID JUMPDEST JUMPDEST PUSH2 0x3BE PUSH2 0x1145 JUMP JUMPDEST PUSH2 0x3CE DUP12 DUP12 DUP12 DUP12 DUP12 DUP8 PUSH1 0x0 PUSH2 0xB4B JUMP JUMPDEST SWAP1 POP PUSH2 0x444 DUP2 PUSH1 0x0 PUSH1 0x6 DUP2 LT PUSH2 0x3E0 JUMPI INVALID JUMPDEST PUSH1 0x20 MUL ADD MLOAD DUP3 PUSH1 0x1 PUSH1 0x6 DUP2 LT PUSH2 0x3F2 JUMPI INVALID JUMPDEST PUSH1 0x20 MUL ADD MLOAD DUP4 PUSH1 0x2 PUSH1 0x6 DUP2 LT PUSH2 0x404 JUMPI INVALID JUMPDEST PUSH1 0x20 MUL ADD MLOAD DUP5 PUSH1 0x3 PUSH1 0x6 DUP2 LT PUSH2 0x416 JUMPI INVALID JUMPDEST PUSH1 0x20 MUL ADD MLOAD DUP6 PUSH1 0x4 PUSH1 0x6 DUP2 LT PUSH2 0x428 JUMPI INVALID JUMPDEST PUSH1 0x20 MUL ADD MLOAD DUP7 PUSH1 0x5 PUSH1 0x6 DUP2 LT PUSH2 0x43A JUMPI INVALID JUMPDEST PUSH1 0x20 MUL ADD MLOAD PUSH2 0xAF9 JUMP JUMPDEST SWAP6 POP SWAP6 POP SWAP6 POP SWAP6 POP POP POP SWAP6 POP SWAP6 POP SWAP6 POP SWAP6 SWAP2 POP POP JUMP JUMPDEST PUSH1 0x0 DUP1 PUSH1 0x0 DUP1 PUSH1 0x0 PUSH2 0x46E DUP8 DUP8 DUP10 DUP10 PUSH2 0xC27 JUMP JUMPDEST DUP1 SWAP5 POP DUP2 SWAP6 POP POP POP PUSH2 0x482 DUP10 DUP10 DUP12 DUP12 PUSH2 0xC27 JUMP JUMPDEST DUP1 SWAP3 POP DUP2 SWAP4 POP POP POP PUSH2 0x496 DUP3 DUP3 DUP12 DUP12 PUSH2 0xC27 JUMP JUMPDEST DUP1 SWAP3 POP DUP2 SWAP4 POP POP POP PUSH2 0x4AA DUP5 DUP5 DUP5 DUP5 PUSH2 0xD35 JUMP JUMPDEST DUP1 SWAP5 POP DUP2 SWAP6 POP POP POP PUSH2 0x4FD DUP5 DUP5 PUSH32 0x2B149D40CEB8AAAE81BE18991BE06AC3B5B4C5E559DBEFA33267E6DC24A138E5 PUSH31 0x9713B03AF0FED4CD2CAFADEED8FDF4A74FA084E52D1852E4A2BD0685C315D2 PUSH2 0xD35 JUMP JUMPDEST DUP1 SWAP5 POP DUP2 SWAP6 POP POP POP PUSH1 0x0 DUP5 EQ DUP1 ISZERO PUSH2 0x515 JUMPI POP PUSH1 0x0 DUP4 EQ JUMPDEST SWAP5 POP POP POP POP POP SWAP5 SWAP4 POP POP POP POP JUMP JUMPDEST PUSH2 0x52B PUSH2 0x1145 JUMP JUMPDEST PUSH1 0x0 DUP10 EQ DUP1 ISZERO PUSH2 0x53B JUMPI POP PUSH1 0x0 DUP9 EQ JUMPDEST ISZERO PUSH2 0x5CF JUMPI DUP7 DUP7 DUP7 DUP7 DUP7 DUP7 DUP7 PUSH1 0x0 PUSH1 0x6 DUP2 LT PUSH2 0x553 JUMPI INVALID JUMPDEST PUSH1 0x20 MUL ADD DUP8 PUSH1 0x1 PUSH1 0x6 DUP2 LT PUSH2 0x564 JUMPI INVALID JUMPDEST PUSH1 0x20 MUL ADD DUP9 PUSH1 0x2 PUSH1 0x6 DUP2 LT PUSH2 0x575 JUMPI INVALID JUMPDEST PUSH1 0x20 MUL ADD DUP10 PUSH1 0x3 PUSH1 0x6 DUP2 LT PUSH2 0x586 JUMPI INVALID JUMPDEST PUSH1 0x20 MUL ADD DUP11 PUSH1 0x4 PUSH1 0x6 DUP2 LT PUSH2 0x597 JUMPI INVALID JUMPDEST PUSH1 0x20 MUL ADD DUP12 PUSH1 0x5 PUSH1 0x6 DUP2 LT PUSH2 0x5A8 JUMPI INVALID JUMPDEST PUSH1 0x20 MUL ADD DUP7 DUP2 MSTORE POP DUP7 DUP2 MSTORE POP DUP7 DUP2 MSTORE POP DUP7 DUP2 MSTORE POP DUP7 DUP2 MSTORE POP DUP7 DUP2 MSTORE POP POP POP POP POP POP POP PUSH2 0xAE9 JUMP JUMPDEST PUSH1 0x0 DUP4 EQ DUP1 ISZERO PUSH2 0x5DF JUMPI POP PUSH1 0x0 DUP3 EQ JUMPDEST ISZERO PUSH2 0x673 JUMPI DUP13 DUP13 DUP13 DUP13 DUP13 DUP13 DUP7 PUSH1 0x0 PUSH1 0x6 DUP2 LT PUSH2 0x5F7 JUMPI INVALID JUMPDEST PUSH1 0x20 MUL ADD DUP8 PUSH1 0x1 PUSH1 0x6 DUP2 LT PUSH2 0x608 JUMPI INVALID JUMPDEST PUSH1 0x20 MUL ADD DUP9 PUSH1 0x2 PUSH1 0x6 DUP2 LT PUSH2 0x619 JUMPI INVALID JUMPDEST PUSH1 0x20 MUL ADD DUP10 PUSH1 0x3 PUSH1 0x6 DUP2 LT PUSH2 0x62A JUMPI INVALID JUMPDEST PUSH1 0x20 MUL ADD DUP11 PUSH1 0x4 PUSH1 0x6 DUP2 LT PUSH2 0x63B JUMPI INVALID JUMPDEST PUSH1 0x20 MUL ADD DUP12 PUSH1 0x5 PUSH1 0x6 DUP2 LT PUSH2 0x64C JUMPI INVALID JUMPDEST PUSH1 0x20 MUL ADD DUP7 DUP2 MSTORE POP DUP7 DUP2 MSTORE POP DUP7 DUP2 MSTORE POP DUP7 DUP2 MSTORE POP DUP7 DUP2 MSTORE POP DUP7 DUP2 MSTORE POP POP POP POP POP POP POP PUSH2 0xAE9 JUMP JUMPDEST PUSH2 0x67F DUP6 DUP6 DUP12 DUP12 PUSH2 0xC27 JUMP JUMPDEST DUP1 SWAP6 POP DUP2 SWAP7 POP POP POP PUSH2 0x693 DUP12 DUP12 DUP6 DUP6 PUSH2 0xC27 JUMP JUMPDEST DUP3 PUSH1 0x2 PUSH1 0x6 DUP2 LT PUSH2 0x6A0 JUMPI INVALID JUMPDEST PUSH1 0x20 MUL ADD DUP4 PUSH1 0x3 PUSH1 0x6 DUP2 LT PUSH2 0x6B1 JUMPI INVALID JUMPDEST PUSH1 0x20 MUL ADD DUP3 DUP2 MSTORE POP DUP3 DUP2 MSTORE POP POP POP PUSH2 0x6CB DUP8 DUP8 DUP12 DUP12 PUSH2 0xC27 JUMP JUMPDEST DUP1 SWAP8 POP DUP2 SWAP9 POP POP POP PUSH2 0x6DF DUP14 DUP14 DUP6 DUP6 PUSH2 0xC27 JUMP JUMPDEST DUP3 PUSH1 0x4 PUSH1 0x6 DUP2 LT PUSH2 0x6EC JUMPI INVALID JUMPDEST PUSH1 0x20 MUL ADD DUP4 PUSH1 0x5 PUSH1 0x6 DUP2 LT PUSH2 0x6FD JUMPI INVALID JUMPDEST PUSH1 0x20 MUL ADD DUP3 DUP2 MSTORE POP DUP3 DUP2 MSTORE POP POP POP DUP1 PUSH1 0x4 PUSH1 0x6 DUP2 LT PUSH2 0x718 JUMPI INVALID JUMPDEST PUSH1 0x20 MUL ADD MLOAD DUP8 EQ DUP1 ISZERO PUSH2 0x73B JUMPI POP DUP1 PUSH1 0x5 PUSH1 0x6 DUP2 LT PUSH2 0x733 JUMPI INVALID JUMPDEST PUSH1 0x20 MUL ADD MLOAD DUP7 EQ JUMPDEST ISZERO PUSH2 0x8A0 JUMPI DUP1 PUSH1 0x2 PUSH1 0x6 DUP2 LT PUSH2 0x74D JUMPI INVALID JUMPDEST PUSH1 0x20 MUL ADD MLOAD DUP6 EQ DUP1 ISZERO PUSH2 0x770 JUMPI POP DUP1 PUSH1 0x3 PUSH1 0x6 DUP2 LT PUSH2 0x768 JUMPI INVALID JUMPDEST PUSH1 0x20 MUL ADD MLOAD DUP5 EQ JUMPDEST ISZERO PUSH2 0x80C JUMPI PUSH2 0x783 DUP14 DUP14 DUP14 DUP14 DUP14 DUP14 PUSH2 0xD9B JUMP JUMPDEST DUP7 PUSH1 0x0 PUSH1 0x6 DUP2 LT PUSH2 0x790 JUMPI INVALID JUMPDEST PUSH1 0x20 MUL ADD DUP8 PUSH1 0x1 PUSH1 0x6 DUP2 LT PUSH2 0x7A1 JUMPI INVALID JUMPDEST PUSH1 0x20 MUL ADD DUP9 PUSH1 0x2 PUSH1 0x6 DUP2 LT PUSH2 0x7B2 JUMPI INVALID JUMPDEST PUSH1 0x20 MUL ADD DUP10 PUSH1 0x3 PUSH1 0x6 DUP2 LT PUSH2 0x7C3 JUMPI INVALID JUMPDEST PUSH1 0x20 MUL ADD DUP11 PUSH1 0x4 PUSH1 0x6 DUP2 LT PUSH2 0x7D4 JUMPI INVALID JUMPDEST PUSH1 0x20 MUL ADD DUP12 PUSH1 0x5 PUSH1 0x6 DUP2 LT PUSH2 0x7E5 JUMPI INVALID JUMPDEST PUSH1 0x20 MUL ADD DUP7 DUP2 MSTORE POP DUP7 DUP2 MSTORE POP DUP7 DUP2 MSTORE POP DUP7 DUP2 MSTORE POP DUP7 DUP2 MSTORE POP DUP7 DUP2 MSTORE POP POP POP POP POP POP POP PUSH2 0xAE9 JUMP JUMPDEST PUSH1 0x1 PUSH1 0x0 PUSH1 0x1 PUSH1 0x0 DUP1 PUSH1 0x0 DUP7 PUSH1 0x0 PUSH1 0x6 DUP2 LT PUSH2 0x824 JUMPI INVALID JUMPDEST PUSH1 0x20 MUL ADD DUP8 PUSH1 0x1 PUSH1 0x6 DUP2 LT PUSH2 0x835 JUMPI INVALID JUMPDEST PUSH1 0x20 MUL ADD DUP9 PUSH1 0x2 PUSH1 0x6 DUP2 LT PUSH2 0x846 JUMPI INVALID JUMPDEST PUSH1 0x20 MUL ADD DUP10 PUSH1 0x3 PUSH1 0x6 DUP2 LT PUSH2 0x857 JUMPI INVALID JUMPDEST PUSH1 0x20 MUL ADD DUP11 PUSH1 0x4 PUSH1 0x6 DUP2 LT PUSH2 0x868 JUMPI INVALID JUMPDEST PUSH1 0x20 MUL ADD DUP12 PUSH1 0x5 PUSH1 0x6 DUP2 LT PUSH2 0x879 JUMPI INVALID JUMPDEST PUSH1 0x20 MUL ADD DUP7 DUP2 MSTORE POP DUP7 DUP2 MSTORE POP DUP7 DUP2 MSTORE POP DUP7 DUP2 MSTORE POP DUP7 DUP2 MSTORE POP DUP7 DUP2 MSTORE POP POP POP POP POP POP POP PUSH2 0xAE9 JUMP JUMPDEST PUSH2 0x8AC DUP10 DUP10 DUP6 DUP6 PUSH2 0xC27 JUMP JUMPDEST DUP1 SWAP4 POP DUP2 SWAP5 POP POP POP PUSH2 0x8E2 DUP6 DUP6 DUP4 PUSH1 0x2 PUSH1 0x6 DUP2 LT PUSH2 0x8C6 JUMPI INVALID JUMPDEST PUSH1 0x20 MUL ADD MLOAD DUP5 PUSH1 0x3 PUSH1 0x6 DUP2 LT PUSH2 0x8D8 JUMPI INVALID JUMPDEST PUSH1 0x20 MUL ADD MLOAD PUSH2 0xD35 JUMP JUMPDEST DUP1 SWAP14 POP DUP2 SWAP15 POP POP POP PUSH2 0x918 DUP8 DUP8 DUP4 PUSH1 0x4 PUSH1 0x6 DUP2 LT PUSH2 0x8FC JUMPI INVALID JUMPDEST PUSH1 0x20 MUL ADD MLOAD DUP5 PUSH1 0x5 PUSH1 0x6 DUP2 LT PUSH2 0x90E JUMPI INVALID JUMPDEST PUSH1 0x20 MUL ADD MLOAD PUSH2 0xD35 JUMP JUMPDEST DUP1 SWAP12 POP DUP2 SWAP13 POP POP POP PUSH2 0x92C DUP12 DUP12 DUP14 DUP14 PUSH2 0xC27 JUMP JUMPDEST DUP1 SWAP10 POP DUP2 SWAP11 POP POP POP PUSH2 0x962 DUP10 DUP10 DUP4 PUSH1 0x4 PUSH1 0x6 DUP2 LT PUSH2 0x946 JUMPI INVALID JUMPDEST PUSH1 0x20 MUL ADD MLOAD DUP5 PUSH1 0x5 PUSH1 0x6 DUP2 LT PUSH2 0x958 JUMPI INVALID JUMPDEST PUSH1 0x20 MUL ADD MLOAD PUSH2 0xC27 JUMP JUMPDEST DUP1 SWAP6 POP DUP2 SWAP7 POP POP POP PUSH2 0x976 DUP10 DUP10 DUP14 DUP14 PUSH2 0xC27 JUMP JUMPDEST DUP1 SWAP10 POP DUP2 SWAP11 POP POP POP PUSH2 0x98A DUP10 DUP10 DUP6 DUP6 PUSH2 0xC27 JUMP JUMPDEST DUP3 PUSH1 0x4 PUSH1 0x6 DUP2 LT PUSH2 0x997 JUMPI INVALID JUMPDEST PUSH1 0x20 MUL ADD DUP4 PUSH1 0x5 PUSH1 0x6 DUP2 LT PUSH2 0x9A8 JUMPI INVALID JUMPDEST PUSH1 0x20 MUL ADD DUP3 DUP2 MSTORE POP DUP3 DUP2 MSTORE POP POP POP PUSH2 0x9C2 DUP14 DUP14 DUP16 DUP16 PUSH2 0xC27 JUMP JUMPDEST DUP1 SWAP8 POP DUP2 SWAP9 POP POP POP PUSH2 0x9D6 DUP8 DUP8 DUP6 DUP6 PUSH2 0xC27 JUMP JUMPDEST DUP1 SWAP8 POP DUP2 SWAP9 POP POP POP PUSH2 0x9EA DUP8 DUP8 DUP12 DUP12 PUSH2 0xD35 JUMP JUMPDEST DUP1 SWAP8 POP DUP2 SWAP9 POP POP POP PUSH2 0x9FE DUP6 DUP6 PUSH1 0x2 PUSH2 0xF43 JUMP JUMPDEST DUP1 SWAP4 POP DUP2 SWAP5 POP POP POP PUSH2 0xA12 DUP8 DUP8 DUP6 DUP6 PUSH2 0xD35 JUMP JUMPDEST DUP1 SWAP8 POP DUP2 SWAP9 POP POP POP PUSH2 0xA26 DUP12 DUP12 DUP10 DUP10 PUSH2 0xC27 JUMP JUMPDEST DUP3 PUSH1 0x0 PUSH1 0x6 DUP2 LT PUSH2 0xA33 JUMPI INVALID JUMPDEST PUSH1 0x20 MUL ADD DUP4 PUSH1 0x1 PUSH1 0x6 DUP2 LT PUSH2 0xA44 JUMPI INVALID JUMPDEST PUSH1 0x20 MUL ADD DUP3 DUP2 MSTORE POP DUP3 DUP2 MSTORE POP POP POP PUSH2 0xA5E DUP6 DUP6 DUP10 DUP10 PUSH2 0xD35 JUMP JUMPDEST DUP1 SWAP12 POP DUP2 SWAP13 POP POP POP PUSH2 0xA72 DUP14 DUP14 DUP14 DUP14 PUSH2 0xC27 JUMP JUMPDEST DUP1 SWAP12 POP DUP2 SWAP13 POP POP POP PUSH2 0xAA8 DUP10 DUP10 DUP4 PUSH1 0x2 PUSH1 0x6 DUP2 LT PUSH2 0xA8C JUMPI INVALID JUMPDEST PUSH1 0x20 MUL ADD MLOAD DUP5 PUSH1 0x3 PUSH1 0x6 DUP2 LT PUSH2 0xA9E JUMPI INVALID JUMPDEST PUSH1 0x20 MUL ADD MLOAD PUSH2 0xC27 JUMP JUMPDEST DUP1 SWAP14 POP DUP2 SWAP15 POP POP POP PUSH2 0xABC DUP12 DUP12 DUP16 DUP16 PUSH2 0xD35 JUMP JUMPDEST DUP3 PUSH1 0x2 PUSH1 0x6 DUP2 LT PUSH2 0xAC9 JUMPI INVALID JUMPDEST PUSH1 0x20 MUL ADD DUP4 PUSH1 0x3 PUSH1 0x6 DUP2 LT PUSH2 0xADA JUMPI INVALID JUMPDEST PUSH1 0x20 MUL ADD DUP3 DUP2 MSTORE POP DUP3 DUP2 MSTORE POP POP POP JUMPDEST SWAP13 SWAP12 POP POP POP POP POP POP POP POP POP POP POP POP JUMP JUMPDEST PUSH1 0x0 DUP1 PUSH1 0x0 DUP1 PUSH1 0x0 DUP1 PUSH2 0xB0C DUP9 DUP9 PUSH2 0xFA8 JUMP JUMPDEST DUP1 SWAP3 POP DUP2 SWAP4 POP POP POP PUSH2 0xB20 DUP13 DUP13 DUP5 DUP5 PUSH2 0xC27 JUMP JUMPDEST DUP1 SWAP7 POP DUP2 SWAP8 POP POP POP PUSH2 0xB34 DUP11 DUP11 DUP5 DUP5 PUSH2 0xC27 JUMP JUMPDEST DUP1 SWAP5 POP DUP2 SWAP6 POP POP POP POP POP SWAP7 POP SWAP7 POP SWAP7 POP SWAP7 SWAP3 POP POP POP JUMP JUMPDEST PUSH2 0xB53 PUSH2 0x1145 JUMP JUMPDEST JUMPDEST PUSH1 0x0 DUP9 EQ PUSH2 0xC1C JUMPI PUSH1 0x0 PUSH1 0x1 DUP10 AND EQ PUSH2 0xBE4 JUMPI PUSH2 0xBE1 DUP2 PUSH1 0x0 PUSH1 0x6 DUP2 LT PUSH2 0xB77 JUMPI INVALID JUMPDEST PUSH1 0x20 MUL ADD MLOAD DUP3 PUSH1 0x1 PUSH1 0x6 DUP2 LT PUSH2 0xB89 JUMPI INVALID JUMPDEST PUSH1 0x20 MUL ADD MLOAD DUP4 PUSH1 0x2 PUSH1 0x6 DUP2 LT PUSH2 0xB9B JUMPI INVALID JUMPDEST PUSH1 0x20 MUL ADD MLOAD DUP5 PUSH1 0x3 PUSH1 0x6 DUP2 LT PUSH2 0xBAD JUMPI INVALID JUMPDEST PUSH1 0x20 MUL ADD MLOAD DUP6 PUSH1 0x4 PUSH1 0x6 DUP2 LT PUSH2 0xBBF JUMPI INVALID JUMPDEST PUSH1 0x20 MUL ADD MLOAD DUP7 PUSH1 0x5 PUSH1 0x6 DUP2 LT PUSH2 0xBD1 JUMPI INVALID JUMPDEST PUSH1 0x20 MUL ADD MLOAD DUP14 DUP14 DUP14 DUP14 DUP14 DUP14 PUSH2 0x523 JUMP JUMPDEST SWAP1 POP JUMPDEST PUSH2 0xBF2 DUP8 DUP8 DUP8 DUP8 DUP8 DUP8 PUSH2 0xD9B JUMP JUMPDEST DUP1 SWAP8 POP DUP2 SWAP9 POP DUP3 SWAP10 POP DUP4 SWAP11 POP DUP5 SWAP12 POP DUP6 SWAP13 POP POP POP POP POP POP POP PUSH1 0x2 DUP9 DUP2 PUSH2 0xC14 JUMPI INVALID JUMPDEST DIV SWAP8 POP PUSH2 0xB54 JUMP JUMPDEST SWAP8 SWAP7 POP POP POP POP POP POP POP JUMP JUMPDEST PUSH1 0x0 DUP1 PUSH2 0xCA9 PUSH32 0x30644E72E131A029B85045B68181585D97816A916871CA8D3C208C16D87CFD47 DUP1 PUSH2 0xC55 JUMPI INVALID JUMPDEST DUP6 DUP9 MULMOD PUSH32 0x30644E72E131A029B85045B68181585D97816A916871CA8D3C208C16D87CFD47 DUP1 PUSH2 0xC80 JUMPI INVALID JUMPDEST DUP6 DUP9 MULMOD PUSH32 0x30644E72E131A029B85045B68181585D97816A916871CA8D3C208C16D87CFD47 PUSH2 0x10DB JUMP JUMPDEST PUSH32 0x30644E72E131A029B85045B68181585D97816A916871CA8D3C208C16D87CFD47 DUP1 PUSH2 0xCD1 JUMPI INVALID JUMPDEST PUSH32 0x30644E72E131A029B85045B68181585D97816A916871CA8D3C208C16D87CFD47 DUP1 PUSH2 0xCF9 JUMPI INVALID JUMPDEST DUP7 DUP9 MULMOD PUSH32 0x30644E72E131A029B85045B68181585D97816A916871CA8D3C208C16D87CFD47 DUP1 PUSH2 0xD24 JUMPI INVALID JUMPDEST DUP7 DUP11 MULMOD ADDMOD SWAP2 POP SWAP2 POP SWAP5 POP SWAP5 SWAP3 POP POP POP JUMP JUMPDEST PUSH1 0x0 DUP1 PUSH2 0xD63 DUP7 DUP6 PUSH32 0x30644E72E131A029B85045B68181585D97816A916871CA8D3C208C16D87CFD47 PUSH2 0x10DB JUMP JUMPDEST PUSH2 0xD8E DUP7 DUP6 PUSH32 0x30644E72E131A029B85045B68181585D97816A916871CA8D3C208C16D87CFD47 PUSH2 0x10DB JUMP JUMPDEST SWAP2 POP SWAP2 POP SWAP5 POP SWAP5 SWAP3 POP POP POP JUMP JUMPDEST PUSH1 0x0 DUP1 PUSH1 0x0 DUP1 PUSH1 0x0 DUP1 PUSH2 0xDB0 DUP13 DUP13 PUSH1 0x3 PUSH2 0xF43 JUMP JUMPDEST DUP1 SWAP7 POP DUP2 SWAP8 POP POP POP PUSH2 0xDC4 DUP7 DUP7 DUP15 DUP15 PUSH2 0xC27 JUMP JUMPDEST DUP1 SWAP7 POP DUP2 SWAP8 POP POP POP PUSH2 0xDD8 DUP11 DUP11 DUP11 DUP11 PUSH2 0xC27 JUMP JUMPDEST DUP1 SWAP9 POP DUP2 SWAP10 POP POP POP PUSH2 0xDEC DUP13 DUP13 DUP13 DUP13 PUSH2 0xC27 JUMP JUMPDEST DUP1 SWAP5 POP DUP2 SWAP6 POP POP POP PUSH2 0xE00 DUP5 DUP5 DUP11 DUP11 PUSH2 0xC27 JUMP JUMPDEST DUP1 SWAP5 POP DUP2 SWAP6 POP POP POP PUSH2 0xE14 DUP7 DUP7 DUP9 DUP9 PUSH2 0xC27 JUMP JUMPDEST DUP1 SWAP13 POP DUP2 SWAP14 POP POP POP PUSH2 0xE28 DUP5 DUP5 PUSH1 0x8 PUSH2 0xF43 JUMP JUMPDEST DUP1 SWAP3 POP DUP2 SWAP4 POP POP POP PUSH2 0xE3C DUP13 DUP13 DUP5 DUP5 PUSH2 0xD35 JUMP JUMPDEST DUP1 SWAP13 POP DUP2 SWAP14 POP POP POP PUSH2 0xE50 DUP9 DUP9 DUP11 DUP11 PUSH2 0xC27 JUMP JUMPDEST DUP1 SWAP3 POP DUP2 SWAP4 POP POP POP PUSH2 0xE64 DUP5 DUP5 PUSH1 0x4 PUSH2 0xF43 JUMP JUMPDEST DUP1 SWAP5 POP DUP2 SWAP6 POP POP POP PUSH2 0xE78 DUP5 DUP5 DUP15 DUP15 PUSH2 0xD35 JUMP JUMPDEST DUP1 SWAP5 POP DUP2 SWAP6 POP POP POP PUSH2 0xE8C DUP5 DUP5 DUP9 DUP9 PUSH2 0xC27 JUMP JUMPDEST DUP1 SWAP5 POP DUP2 SWAP6 POP POP POP PUSH2 0xEA0 DUP11 DUP11 PUSH1 0x8 PUSH2 0xF43 JUMP JUMPDEST DUP1 SWAP7 POP DUP2 SWAP8 POP POP POP PUSH2 0xEB4 DUP7 DUP7 DUP13 DUP13 PUSH2 0xC27 JUMP JUMPDEST DUP1 SWAP7 POP DUP2 SWAP8 POP POP POP PUSH2 0xEC8 DUP7 DUP7 DUP5 DUP5 PUSH2 0xC27 JUMP JUMPDEST DUP1 SWAP7 POP DUP2 SWAP8 POP POP POP PUSH2 0xEDC DUP5 DUP5 DUP9 DUP9 PUSH2 0xD35 JUMP JUMPDEST DUP1 SWAP5 POP DUP2 SWAP6 POP POP POP PUSH2 0xEF0 DUP13 DUP13 PUSH1 0x2 PUSH2 0xF43 JUMP JUMPDEST DUP1 SWAP7 POP DUP2 SWAP8 POP POP POP PUSH2 0xF04 DUP7 DUP7 DUP11 DUP11 PUSH2 0xC27 JUMP JUMPDEST DUP1 SWAP7 POP DUP2 SWAP8 POP POP POP PUSH2 0xF18 DUP9 DUP9 DUP5 DUP5 PUSH2 0xC27 JUMP JUMPDEST DUP1 SWAP3 POP DUP2 SWAP4 POP POP POP PUSH2 0xF2C DUP3 DUP3 PUSH1 0x8 PUSH2 0xF43 JUMP JUMPDEST DUP1 SWAP3 POP DUP2 SWAP4 POP POP POP SWAP7 POP SWAP7 POP SWAP7 POP SWAP7 POP SWAP7 POP SWAP7 SWAP1 POP JUMP JUMPDEST PUSH1 0x0 DUP1 PUSH32 0x30644E72E131A029B85045B68181585D97816A916871CA8D3C208C16D87CFD47 DUP1 PUSH2 0xF6E JUMPI INVALID JUMPDEST DUP4 DUP7 MULMOD PUSH32 0x30644E72E131A029B85045B68181585D97816A916871CA8D3C208C16D87CFD47 DUP1 PUSH2 0xF99 JUMPI INVALID JUMPDEST DUP5 DUP7 MULMOD SWAP2 POP SWAP2 POP SWAP4 POP SWAP4 SWAP2 POP POP JUMP JUMPDEST PUSH1 0x0 DUP1 PUSH1 0x0 PUSH2 0x1055 PUSH32 0x30644E72E131A029B85045B68181585D97816A916871CA8D3C208C16D87CFD47 DUP1 PUSH2 0xFD8 JUMPI INVALID JUMPDEST PUSH32 0x30644E72E131A029B85045B68181585D97816A916871CA8D3C208C16D87CFD47 DUP1 PUSH2 0x1000 JUMPI INVALID JUMPDEST DUP8 DUP9 MULMOD PUSH32 0x30644E72E131A029B85045B68181585D97816A916871CA8D3C208C16D87CFD47 DUP1 PUSH2 0x102B JUMPI INVALID JUMPDEST DUP8 DUP9 MULMOD ADDMOD PUSH32 0x30644E72E131A029B85045B68181585D97816A916871CA8D3C208C16D87CFD47 PUSH2 0x10F3 JUMP JUMPDEST SWAP1 POP PUSH32 0x30644E72E131A029B85045B68181585D97816A916871CA8D3C208C16D87CFD47 DUP1 PUSH2 0x107F JUMPI INVALID JUMPDEST DUP2 DUP7 MULMOD PUSH32 0x30644E72E131A029B85045B68181585D97816A916871CA8D3C208C16D87CFD47 DUP1 PUSH2 0x10AA JUMPI INVALID JUMPDEST DUP3 DUP7 MULMOD PUSH32 0x30644E72E131A029B85045B68181585D97816A916871CA8D3C208C16D87CFD47 SUB SWAP3 POP SWAP3 POP POP SWAP3 POP SWAP3 SWAP1 POP JUMP JUMPDEST PUSH1 0x0 DUP2 DUP1 PUSH2 0x10E5 JUMPI INVALID JUMPDEST DUP4 DUP4 SUB DUP6 ADDMOD SWAP1 POP SWAP4 SWAP3 POP POP POP JUMP JUMPDEST PUSH1 0x0 DUP1 PUSH1 0x40 MLOAD PUSH1 0x20 DUP2 MSTORE PUSH1 0x20 DUP1 DUP3 ADD MSTORE PUSH1 0x20 PUSH1 0x40 DUP3 ADD MSTORE DUP5 PUSH1 0x60 DUP3 ADD MSTORE PUSH1 0x2 DUP5 SUB PUSH1 0x80 DUP3 ADD MSTORE DUP4 PUSH1 0xA0 DUP3 ADD MSTORE PUSH1 0x20 DUP2 PUSH1 0xC0 DUP4 PUSH1 0x5 PUSH2 0x7D0 GAS SUB STATICCALL SWAP2 POP DUP1 MLOAD SWAP3 POP POP DUP1 PUSH2 0x113E JUMPI PUSH1 0x0 DUP1 REVERT JUMPDEST POP SWAP3 SWAP2 POP POP JUMP JUMPDEST PUSH1 0x40 MLOAD DUP1 PUSH1 0xC0 ADD PUSH1 0x40 MSTORE DUP1 PUSH1 0x6 SWAP1 PUSH1 0x20 DUP3 MUL DUP1 CALLDATASIZE DUP4 CALLDATACOPY DUP1 DUP3 ADD SWAP2 POP POP SWAP1 POP POP SWAP1 JUMP INVALID LOG2 PUSH5 0x6970667358 0x22 SLT KECCAK256 SWAP6 0x23 0xB0 0xAF 0xC 0xE3 PUSH20 0x57D7FA91A9E24AF7F28104B9F6BDE410852E3850 GASLIMIT 0xB0 ADDRESS JUMP 0x5C PUSH5 0x736F6C6343 STOP MOD 0xC STOP CALLER "
		},
		"gasEstimates": {
			"creation": {
				"codeDepositCost": "901800",
				"executionCost": "964",
				"totalCost": "902764"
			},
			"external": {
				"ECTwistAdd(uint256,uint256,uint256,uint256,uint256,uint256,uint256,uint256)": "infinite",
				"ECTwistMul(uint256,uint256,uint256,uint256,uint256)": "infinite",
				"GetFieldModulus()": "175"
			},
			"internal": {
				"_ECTwistAddJacobian(uint256,uint256,uint256,uint256,uint256,uint256,uint256,uint256,uint256,uint256,uint256,uint256)": "infinite",
				"_ECTwistDoubleJacobian(uint256,uint256,uint256,uint256,uint256,uint256)": "infinite",
				"_ECTwistMulJacobian(uint256,uint256,uint256,uint256,uint256,uint256,uint256)": "infinite",
				"_FQ2Add(uint256,uint256,uint256,uint256)": "infinite",
				"_FQ2Div(uint256,uint256,uint256,uint256)": "infinite",
				"_FQ2Inv(uint256,uint256)": "infinite",
				"_FQ2Muc(uint256,uint256,uint256)": "108",
				"_FQ2Mul(uint256,uint256,uint256,uint256)": "293",
				"_FQ2Sub(uint256,uint256,uint256,uint256)": "infinite",
				"_fromJacobian(uint256,uint256,uint256,uint256,uint256,uint256)": "infinite",
				"_isOnCurve(uint256,uint256,uint256,uint256)": "infinite",
				"_modInv(uint256,uint256)": "infinite",
				"submod(uint256,uint256,uint256)": "69"
			}
		},
		"methodIdentifiers": {
			"ECTwistAdd(uint256,uint256,uint256,uint256,uint256,uint256,uint256,uint256)": "61a931ec",
			"ECTwistMul(uint256,uint256,uint256,uint256,uint256)": "b73ab75d",
			"GetFieldModulus()": "55a3e90f"
		}
	},
	"abi": [
		{
			"inputs": [
				{
					"internalType": "uint256",
					"name": "pt1xx",
					"type": "uint256"
				},
				{
					"internalType": "uint256",
					"name": "pt1xy",
					"type": "uint256"
				},
				{
					"internalType": "uint256",
					"name": "pt1yx",
					"type": "uint256"
				},
				{
					"internalType": "uint256",
					"name": "pt1yy",
					"type": "uint256"
				},
				{
					"internalType": "uint256",
					"name": "pt2xx",
					"type": "uint256"
				},
				{
					"internalType": "uint256",
					"name": "pt2xy",
					"type": "uint256"
				},
				{
					"internalType": "uint256",
					"name": "pt2yx",
					"type": "uint256"
				},
				{
					"internalType": "uint256",
					"name": "pt2yy",
					"type": "uint256"
				}
			],
			"name": "ECTwistAdd",
			"outputs": [
				{
					"internalType": "uint256",
					"name": "",
					"type": "uint256"
				},
				{
					"internalType": "uint256",
					"name": "",
					"type": "uint256"
				},
				{
					"internalType": "uint256",
					"name": "",
					"type": "uint256"
				},
				{
					"internalType": "uint256",
					"name": "",
					"type": "uint256"
				}
			],
			"stateMutability": "view",
			"type": "function"
		},
		{
			"inputs": [
				{
					"internalType": "uint256",
					"name": "s",
					"type": "uint256"
				},
				{
					"internalType": "uint256",
					"name": "pt1xx",
					"type": "uint256"
				},
				{
					"internalType": "uint256",
					"name": "pt1xy",
					"type": "uint256"
				},
				{
					"internalType": "uint256",
					"name": "pt1yx",
					"type": "uint256"
				},
				{
					"internalType": "uint256",
					"name": "pt1yy",
					"type": "uint256"
				}
			],
			"name": "ECTwistMul",
			"outputs": [
				{
					"internalType": "uint256",
					"name": "",
					"type": "uint256"
				},
				{
					"internalType": "uint256",
					"name": "",
					"type": "uint256"
				},
				{
					"internalType": "uint256",
					"name": "",
					"type": "uint256"
				},
				{
					"internalType": "uint256",
					"name": "",
					"type": "uint256"
				}
			],
			"stateMutability": "view",
			"type": "function"
		},
		{
			"inputs": [],
			"name": "GetFieldModulus",
			"outputs": [
				{
					"internalType": "uint256",
					"name": "",
					"type": "uint256"
				}
			],
			"stateMutability": "pure",
			"type": "function"
		}
	]
}