{
	"data": {
		"bytecode": {
			"linkReferences": {
				"MatchMaker_flat.sol": {
					"AuctionFunctions": [
						{
							"length": 20,
							"start": 3891
						},
						{
							"length": 20,
							"start": 4120
						},
						{
							"length": 20,
							"start": 4570
						}
					],
					"UnitHelpers": [
						{
							"length": 20,
							"start": 8081
						},
						{
							"length": 20,
							"start": 8395
						}
					]
				}
			},
			"object": "6080604052633b9aca00600d553480156200001957600080fd5b50306040516200002990620000fc565b6200003591906200011b565b604051809103906000f08015801562000052573d6000803e3d6000fd5b50600f60006101000a81548173ffffffffffffffffffffffffffffffffffffffff021916908373ffffffffffffffffffffffffffffffffffffffff160217905550600f60009054906101000a900473ffffffffffffffffffffffffffffffffffffffff16600e60006101000a81548173ffffffffffffffffffffffffffffffffffffffff021916908373ffffffffffffffffffffffffffffffffffffffff1602179055506200016c565b6118be806200371583390190565b620001158162000138565b82525050565b60006020820190506200013260008301846200010a565b92915050565b600062000145826200014c565b9050919050565b600073ffffffffffffffffffffffffffffffffffffffff82169050919050565b613599806200017c6000396000f3fe608060405234801561001057600080fd5b506004361061014d5760003560e01c806370a08231116100c3578063a367dd3c1161007c578063a367dd3c146103ef578063a9059cbb1461041f578063b5fc98331461043b578063c44e66401461046b578063d145452114610489578063e4b50cb8146104a75761014d565b806370a082311461030757806376d4fc57146103375780638462151c14610353578063898f42991461038357806395d89b41146103b357806399975226146103d15761014d565b806323b872dd1161011557806323b872dd1461020f57806327e782021461022b5780632e009f761461025b57806354c8a21e1461028b578063598647f8146102bb5780636352211e146102d75761014d565b806301ffc9a71461015257806306fdde0314610182578063095ea7b3146101a057806317dc6bf6146101bc57806318160ddd146101f1575b600080fd5b61016c600480360381019061016791906126a4565b6104d7565b6040516101799190612d3d565b60405180910390f35b61018a6104de565b6040516101979190612da9565b60405180910390f35b6101ba60048036038101906101b591906125b6565b61051b565b005b6101d660048036038101906101d1919061274e565b610845565b6040516101e896959493929190612f7d565b60405180910390f35b6101f96109e1565b6040516102069190612f62565b60405180910390f35b61022960048036038101906102249190612567565b6109eb565b005b610245600480360381019061024091906126cd565b610cd0565b6040516102529190612f62565b60405180910390f35b6102756004803603810190610270919061274e565b610d19565b6040516102829190612d73565b60405180910390f35b6102a560048036038101906102a091906125f2565b610d45565b6040516102b29190612f62565b60405180910390f35b6102d560048036038101906102d091906127a0565b610e52565b005b6102f160048036038101906102ec919061274e565b610f2c565b6040516102fe9190612c49565b60405180910390f35b610321600480360381019061031c919061253e565b610f6b565b60405161032e9190612f62565b60405180910390f35b610351600480360381019061034c91906127dc565b611014565b005b61036d6004803603810190610368919061253e565b61114b565b60405161037a9190612d1b565b60405180910390f35b61039d600480360381019061039891906126f6565b6112e8565b6040516103aa9190612f62565b60405180910390f35b6103bb611342565b6040516103c89190612da9565b60405180910390f35b6103d961137f565b6040516103e69190612d58565b60405180910390f35b6104096004803603810190610404919061274e565b6113a5565b6040516104169190612d1b565b60405180910390f35b610439600480360381019061043491906125b6565b611448565b005b6104556004803603810190610450919061274e565b611688565b6040516104629190612d3d565b60405180910390f35b61047361195f565b6040516104809190612f62565b60405180910390f35b61049161196c565b60405161049e9190612c49565b60405180910390f35b6104c160048036038101906104bc919061274e565b611992565b6040516104ce9190612f40565b60405180910390f35b6000919050565b60606040518060400160405280601481526020017f4175746f436865737320556e697420546f6b656e000000000000000000000000815250905090565b33828261052781610f2c565b73ffffffffffffffffffffffffffffffffffffffff168373ffffffffffffffffffffffffffffffffffffffff1614610594576040517f08c379a000000000000000000000000000000000000000000000000000000000815260040161058b90612e8b565b60405180910390fd5b8173ffffffffffffffffffffffffffffffffffffffff168373ffffffffffffffffffffffffffffffffffffffff161415610603576040517f08c379a00000000000000000000000000000000000000000000000000000000081526004016105fa90612e0b565b60405180910390fd5b6003600481111561063d577f4e487b7100000000000000000000000000000000000000000000000000000000600052602160045260246000fd5b6000600201600083815260200190815260200160002060009054906101000a900460ff166004811115610699577f4e487b7100000000000000000000000000000000000000000000000000000000600052602160045260246000fd5b146106d9576040517f08c379a00000000000000000000000000000000000000000000000000000000081526004016106d090612eab565b60405180910390fd5b600073ffffffffffffffffffffffffffffffffffffffff168273ffffffffffffffffffffffffffffffffffffffff161415610749576040517f08c379a000000000000000000000000000000000000000000000000000000000815260040161074090612e4b565b60405180910390fd5b846000600401600086815260200190815260200160002060006101000a81548173ffffffffffffffffffffffffffffffffffffffff021916908373ffffffffffffffffffffffffffffffffffffffff16021790555060046000600201600086815260200190815260200160002060006101000a81548160ff021916908360048111156107fe577f4e487b7100000000000000000000000000000000000000000000000000000000600052602160045260246000fd5b02179055507f8c5be1e5ebec7d5bd14f71427d1e84f3dd0314c0f7b2291e5b200ac8c7c3b92533868660405161083693929190612c64565b60405180910390a15050505050565b6010818154811061085557600080fd5b90600052602060002090600702016000915090508060000154908060020160009054906101000a900473ffffffffffffffffffffffffffffffffffffffff16908060030160009054906101000a900473ffffffffffffffffffffffffffffffffffffffff16908060040180546108ca906131fc565b80601f01602080910402602001604051908101604052809291908181526020018280546108f6906131fc565b80156109435780601f1061091857610100808354040283529160200191610943565b820191906000526020600020905b81548152906001019060200180831161092657829003601f168201915b505050505090806005018054610958906131fc565b80601f0160208091040260200160405190810160405280929190818152602001828054610984906131fc565b80156109d15780601f106109a6576101008083540402835291602001916109d1565b820191906000526020600020905b8154815290600101906020018083116109b457829003601f168201915b5050505050908060060154905086565b6000600d54905090565b8282826109f781610f2c565b73ffffffffffffffffffffffffffffffffffffffff168373ffffffffffffffffffffffffffffffffffffffff1614610a64576040517f08c379a0000000000000000000000000000000000000000000000000000000008152600401610a5b90612e8b565b60405180910390fd5b8173ffffffffffffffffffffffffffffffffffffffff168373ffffffffffffffffffffffffffffffffffffffff161415610ad3576040517f08c379a0000000000000000000000000000000000000000000000000000000008152600401610aca90612e0b565b60405180910390fd5b60036004811115610b0d577f4e487b7100000000000000000000000000000000000000000000000000000000600052602160045260246000fd5b6000600201600083815260200190815260200160002060009054906101000a900460ff166004811115610b69577f4e487b7100000000000000000000000000000000000000000000000000000000600052602160045260246000fd5b14610ba9576040517f08c379a0000000000000000000000000000000000000000000000000000000008152600401610ba090612eab565b60405180910390fd5b600073ffffffffffffffffffffffffffffffffffffffff168273ffffffffffffffffffffffffffffffffffffffff161415610c19576040517f08c379a0000000000000000000000000000000000000000000000000000000008152600401610c1090612e4b565b60405180910390fd5b8473ffffffffffffffffffffffffffffffffffffffff166000600401600086815260200190815260200160002060009054906101000a900473ffffffffffffffffffffffffffffffffffffffff1673ffffffffffffffffffffffffffffffffffffffff1614610cbd576040517f08c379a0000000000000000000000000000000000000000000000000000000008152600401610cb490612e6b565b60405180910390fd5b610cc8868686611b8f565b505050505050565b6000610d1233836040518060400160405280601581526020017f4d6175726963652c20746865204d6564696f6372650000000000000000000000815250611dd7565b9050919050565b600080600201600083815260200190815260200160002060009054906101000a900460ff169050919050565b600080600090505b86869050811015610db457610da133888884818110610d95577f4e487b7100000000000000000000000000000000000000000000000000000000600052603260045260246000fd5b905060200201356120c7565b8080610dac9061322e565b915050610d4d565b5073__$df95346506231f8a1998d6cd168cb00904$__63b4cc2966601088888888886040518763ffffffff1660e01b8152600401610df796959493929190612cc4565b60206040518083038186803b158015610e0f57600080fd5b505af4158015610e23573d6000803e3d6000fd5b505050506040513d601f19601f82011682018060405250810190610e479190612777565b905095945050505050565b60108281548110610e8c577f4e487b7100000000000000000000000000000000000000000000000000000000600052603260045260246000fd5b906000526020600020906007020173__$df95346506231f8a1998d6cd168cb00904$__63e16d50cc909183600f60009054906101000a900473ffffffffffffffffffffffffffffffffffffffff166040518463ffffffff1660e01b8152600401610ef893929190612ecb565b60006040518083038186803b158015610f1057600080fd5b505af4158015610f24573d6000803e3d6000fd5b505050505050565b600080600301600083815260200190815260200160002060009054906101000a900473ffffffffffffffffffffffffffffffffffffffff169050919050565b600080600090505b600080018054905081101561100e578273ffffffffffffffffffffffffffffffffffffffff166000600301600083815260200190815260200160002060009054906101000a900473ffffffffffffffffffffffffffffffffffffffff1673ffffffffffffffffffffffffffffffffffffffff161415610ffb578180610ff79061322e565b9250505b80806110069061322e565b915050610f73565b50919050565b6010848154811061104e577f4e487b7100000000000000000000000000000000000000000000000000000000600052603260045260246000fd5b906000526020600020906007020173__$df95346506231f8a1998d6cd168cb00904$__63e16d50cc909185600f60009054906101000a900473ffffffffffffffffffffffffffffffffffffffff166040518463ffffffff1660e01b81526004016110ba93929190612ecb565b60006040518083038186803b1580156110d257600080fd5b505af41580156110e6573d6000803e3d6000fd5b50505050818160108681548110611126577f4e487b7100000000000000000000000000000000000000000000000000000000600052603260045260246000fd5b9060005260206000209060070201600501919061114492919061230b565b5050505050565b60606000600c60008473ffffffffffffffffffffffffffffffffffffffff1673ffffffffffffffffffffffffffffffffffffffff1681526020019081526020016000205467ffffffffffffffff8111156111ce577f4e487b7100000000000000000000000000000000000000000000000000000000600052604160045260246000fd5b6040519080825280602002602001820160405280156111fc5781602001602082028036833780820191505090505b50915060005b60008001805490508110156112e1578373ffffffffffffffffffffffffffffffffffffffff166000600301600083815260200190815260200160002060009054906101000a900473ffffffffffffffffffffffffffffffffffffffff1673ffffffffffffffffffffffffffffffffffffffff1614156112ce57808383806112889061322e565b9450815181106112c1577f4e487b7100000000000000000000000000000000000000000000000000000000600052603260045260246000fd5b6020026020010181815250505b80806112d99061322e565b915050611202565b5050919050565b6000611339338585858080601f016020809104026020016040519081016040528093929190818152602001838380828437600081840152601f19601f82011690508083019250505050505050611dd7565b90509392505050565b60606040518060400160405280600681526020017f4143485353550000000000000000000000000000000000000000000000000000815250905090565b600f60009054906101000a900473ffffffffffffffffffffffffffffffffffffffff1681565b6060601082815481106113e1577f4e487b7100000000000000000000000000000000000000000000000000000000600052603260045260246000fd5b906000526020600020906007020160010180548060200260200160405190810160405280929190818152602001828054801561143c57602002820191906000526020600020905b815481526020019060010190808311611428575b50505050509050919050565b33828261145481610f2c565b73ffffffffffffffffffffffffffffffffffffffff168373ffffffffffffffffffffffffffffffffffffffff16146114c1576040517f08c379a00000000000000000000000000000000000000000000000000000000081526004016114b890612e8b565b60405180910390fd5b8173ffffffffffffffffffffffffffffffffffffffff168373ffffffffffffffffffffffffffffffffffffffff161415611530576040517f08c379a000000000000000000000000000000000000000000000000000000000815260040161152790612e0b565b60405180910390fd5b6003600481111561156a577f4e487b7100000000000000000000000000000000000000000000000000000000600052602160045260246000fd5b6000600201600083815260200190815260200160002060009054906101000a900460ff1660048111156115c6577f4e487b7100000000000000000000000000000000000000000000000000000000600052602160045260246000fd5b14611606576040517f08c379a00000000000000000000000000000000000000000000000000000000081526004016115fd90612eab565b60405180910390fd5b600073ffffffffffffffffffffffffffffffffffffffff168273ffffffffffffffffffffffffffffffffffffffff161415611676576040517f08c379a000000000000000000000000000000000000000000000000000000000815260040161166d90612e4b565b60405180910390fd5b611681338686611b8f565b5050505050565b60003373ffffffffffffffffffffffffffffffffffffffff16601083815481106116db577f4e487b7100000000000000000000000000000000000000000000000000000000600052603260045260246000fd5b906000526020600020906007020160030160009054906101000a900473ffffffffffffffffffffffffffffffffffffffff1673ffffffffffffffffffffffffffffffffffffffff1614611763576040517f08c379a000000000000000000000000000000000000000000000000000000000815260040161175a90612deb565b60405180910390fd5b426010838154811061179e577f4e487b7100000000000000000000000000000000000000000000000000000000600052603260045260246000fd5b906000526020600020906007020160060154116117f0576040517f08c379a00000000000000000000000000000000000000000000000000000000081526004016117e790612dcb565b60405180910390fd5b600f60009054906101000a900473ffffffffffffffffffffffffffffffffffffffff1673ffffffffffffffffffffffffffffffffffffffff1663535b677360108481548110611868577f4e487b7100000000000000000000000000000000000000000000000000000000600052603260045260246000fd5b906000526020600020906007020160020160009054906101000a900473ffffffffffffffffffffffffffffffffffffffff16601085815481106118d4577f4e487b7100000000000000000000000000000000000000000000000000000000600052603260045260246000fd5b9060005260206000209060070201600001546040518363ffffffff1660e01b8152600401611903929190612c9b565b602060405180830381600087803b15801561191d57600080fd5b505af1158015611931573d6000803e3d6000fd5b505050506040513d601f19601f82011682018060405250810190611955919061267b565b5060019050919050565b6000601080549050905090565b600e60009054906101000a900473ffffffffffffffffffffffffffffffffffffffff1681565b61199a612391565b6000800182815481106119d6577f4e487b7100000000000000000000000000000000000000000000000000000000600052603260045260246000fd5b90600052602060002090600202016040518060c00160405290816000820160009054906101000a900461ffff1661ffff1661ffff1681526020016000820160029054906101000a900461ffff1661ffff1661ffff1681526020016000820160049054906101000a900461ffff1661ffff1661ffff1681526020016000820160069054906101000a900461ffff1661ffff1661ffff1681526020016000820160089054906101000a900460ff166002811115611aba577f4e487b7100000000000000000000000000000000000000000000000000000000600052602160045260246000fd5b6002811115611af2577f4e487b7100000000000000000000000000000000000000000000000000000000600052602160045260246000fd5b8152602001600182018054611b06906131fc565b80601f0160208091040260200160405190810160405280929190818152602001828054611b32906131fc565b8015611b7f5780601f10611b5457610100808354040283529160200191611b7f565b820191906000526020600020905b815481529060010190602001808311611b6257829003601f168201915b5050505050815250509050919050565b60036004811115611bc9577f4e487b7100000000000000000000000000000000000000000000000000000000600052602160045260246000fd5b6000600201600083815260200190815260200160002060009054906101000a900460ff166004811115611c25577f4e487b7100000000000000000000000000000000000000000000000000000000600052602160045260246000fd5b14611c65576040517f08c379a0000000000000000000000000000000000000000000000000000000008152600401611c5c90612e2b565b60405180910390fd5b8273ffffffffffffffffffffffffffffffffffffffff166000600301600083815260200190815260200160002060009054906101000a900473ffffffffffffffffffffffffffffffffffffffff1673ffffffffffffffffffffffffffffffffffffffff1614611d09576040517f08c379a0000000000000000000000000000000000000000000000000000000008152600401611d0090612e2b565b60405180910390fd5b816000600301600083815260200190815260200160002060006101000a81548173ffffffffffffffffffffffffffffffffffffffff021916908373ffffffffffffffffffffffffffffffffffffffff1602179055506000600401600082815260200190815260200160002060006101000a81549073ffffffffffffffffffffffffffffffffffffffff02191690557fddf252ad1be2c89b69c2b068fc378daa952ba7f163c4a11628f55a4df523b3ef838383604051611dca93929190612c64565b60405180910390a1505050565b600080836002811115611e13577f4e487b7100000000000000000000000000000000000000000000000000000000600052602160045260246000fd5b73__$fc5b9f10ef01c0fbaa7e8430f43b2a1a96$__63b9bf30a590916040518263ffffffff1660e01b8152600401611e4b9190612d8e565b60206040518083038186803b158015611e6357600080fd5b505af4158015611e77573d6000803e3d6000fd5b505050506040513d601f19601f82011682018060405250810190611e9b9190612777565b9050600f60009054906101000a900473ffffffffffffffffffffffffffffffffffffffff1673ffffffffffffffffffffffffffffffffffffffff1663af7d6ca386836040518363ffffffff1660e01b8152600401611efa929190612c9b565b602060405180830381600087803b158015611f1457600080fd5b505af1158015611f28573d6000803e3d6000fd5b505050506040513d601f19601f82011682018060405250810190611f4c919061267b565b5073__$fc5b9f10ef01c0fbaa7e8430f43b2a1a96$__63b64a97ba600086866040518463ffffffff1660e01b8152600401611f8993929190612f02565b60206040518083038186803b158015611fa157600080fd5b505af4158015611fb5573d6000803e3d6000fd5b505050506040513d601f19601f82011682018060405250810190611fd99190612777565b9150817fb89be3b4bdc4059b3e8638ac07ef31fb78418648ffa34eaccb60b1c60f318d298660405161200b9190612c49565b60405180910390a2846000600301600084815260200190815260200160002060006101000a81548173ffffffffffffffffffffffffffffffffffffffff021916908373ffffffffffffffffffffffffffffffffffffffff1602179055506001600c60008773ffffffffffffffffffffffffffffffffffffffff1673ffffffffffffffffffffffffffffffffffffffff16815260200190815260200160002060008282546120b89190613074565b92505081905550509392505050565b6120d081610f2c565b73ffffffffffffffffffffffffffffffffffffffff168273ffffffffffffffffffffffffffffffffffffffff161461213d576040517f08c379a000000000000000000000000000000000000000000000000000000000815260040161213490612e8b565b60405180910390fd5b60036004811115612177577f4e487b7100000000000000000000000000000000000000000000000000000000600052602160045260246000fd5b6000600201600083815260200190815260200160002060009054906101000a900460ff1660048111156121d3577f4e487b7100000000000000000000000000000000000000000000000000000000600052602160045260246000fd5b14612213576040517f08c379a000000000000000000000000000000000000000000000000000000000815260040161220a90612eab565b60405180910390fd5b600073ffffffffffffffffffffffffffffffffffffffff168273ffffffffffffffffffffffffffffffffffffffff16141561224d57600080fd5b816000600401600083815260200190815260200160002060006101000a81548173ffffffffffffffffffffffffffffffffffffffff021916908373ffffffffffffffffffffffffffffffffffffffff16021790555060026000600201600083815260200190815260200160002060006101000a81548160ff02191690836004811115612302577f4e487b7100000000000000000000000000000000000000000000000000000000600052602160045260246000fd5b02179055505050565b828054612317906131fc565b90600052602060002090601f0160209004810192826123395760008555612380565b82601f1061235257803560ff1916838001178555612380565b82800160010185558215612380579182015b8281111561237f578235825591602001919060010190612364565b5b50905061238d919061240f565b5090565b6040518060c00160405280600061ffff168152602001600061ffff168152602001600061ffff168152602001600061ffff16815260200160006002811115612402577f4e487b7100000000000000000000000000000000000000000000000000000000600052602160045260246000fd5b8152602001606081525090565b5b80821115612428576000816000905550600101612410565b5090565b60008135905061243b816134f7565b92915050565b60008083601f84011261245357600080fd5b8235905067ffffffffffffffff81111561246c57600080fd5b60208301915083602082028301111561248457600080fd5b9250929050565b60008151905061249a8161350e565b92915050565b6000813590506124af81613525565b92915050565b6000813590506124c48161353c565b92915050565b60008083601f8401126124dc57600080fd5b8235905067ffffffffffffffff8111156124f557600080fd5b60208301915083600182028301111561250d57600080fd5b9250929050565b6000813590506125238161354c565b92915050565b6000815190506125388161354c565b92915050565b60006020828403121561255057600080fd5b600061255e8482850161242c565b91505092915050565b60008060006060848603121561257c57600080fd5b600061258a8682870161242c565b935050602061259b8682870161242c565b92505060406125ac86828701612514565b9150509250925092565b600080604083850312156125c957600080fd5b60006125d78582860161242c565b92505060206125e885828601612514565b9150509250929050565b60008060008060006060868803121561260a57600080fd5b600086013567ffffffffffffffff81111561262457600080fd5b61263088828901612441565b9550955050602061264388828901612514565b935050604086013567ffffffffffffffff81111561266057600080fd5b61266c888289016124ca565b92509250509295509295909350565b60006020828403121561268d57600080fd5b600061269b8482850161248b565b91505092915050565b6000602082840312156126b657600080fd5b60006126c4848285016124a0565b91505092915050565b6000602082840312156126df57600080fd5b60006126ed848285016124b5565b91505092915050565b60008060006040848603121561270b57600080fd5b6000612719868287016124b5565b935050602084013567ffffffffffffffff81111561273657600080fd5b612742868287016124ca565b92509250509250925092565b60006020828403121561276057600080fd5b600061276e84828501612514565b91505092915050565b60006020828403121561278957600080fd5b600061279784828501612529565b91505092915050565b600080604083850312156127b357600080fd5b60006127c185828601612514565b92505060206127d285828601612514565b9150509250929050565b600080600080606085870312156127f257600080fd5b600061280087828801612514565b945050602061281187828801612514565b935050604085013567ffffffffffffffff81111561282e57600080fd5b61283a878288016124ca565b925092505092959194509250565b60006128548383612c1c565b60208301905092915050565b612869816130ca565b82525050565b8082525050565b60006128828385613030565b93507f07ffffffffffffffffffffffffffffffffffffffffffffffffffffffffffffff8311156128b157600080fd5b6020830292506128c28385846131ba565b82840190509392505050565b60006128d982612ffc565b6128e3818561301f565b93506128ee83612fec565b8060005b8381101561291f5781516129068882612848565b975061291183613012565b9250506001810190506128f2565b5085935050505092915050565b612935816130dc565b82525050565b61294481613172565b82525050565b61295381613172565b82525050565b61296281613196565b82525050565b612971816131a8565b82525050565b612980816131a8565b82525050565b60006129928385613063565b935061299f8385846131ba565b6129a883613304565b840190509392505050565b60006129be82613007565b6129c88185613041565b93506129d88185602086016131c9565b6129e181613304565b840191505092915050565b60006129f782613007565b612a018185613052565b9350612a118185602086016131c9565b612a1a81613304565b840191505092915050565b6000612a3082613007565b612a3a8185613063565b9350612a4a8185602086016131c9565b612a5381613304565b840191505092915050565b6000612a6b602883613052565b9150612a7682613315565b604082019050919050565b6000612a8e602583613052565b9150612a9982613364565b604082019050919050565b6000612ab1601983613052565b9150612abc826133b3565b602082019050919050565b6000612ad4600c83613052565b9150612adf826133dc565b602082019050919050565b6000612af7601b83613052565b9150612b0282613405565b602082019050919050565b6000612b1a602183613052565b9150612b258261342e565b604082019050919050565b6000612b3d601783613052565b9150612b488261347d565b602082019050919050565b6000612b60601383613052565b9150612b6b826134a6565b602082019050919050565b8082525050565b8082525050565b600060c083016000830151612b9c6000860182612c0d565b506020830151612baf6020860182612c0d565b506040830151612bc26040860182612c0d565b506060830151612bd56060860182612c0d565b506080830151612be86080860182612968565b5060a083015184820360a0860152612c0082826129b3565b9150508091505092915050565b612c168161313a565b82525050565b612c2581613168565b82525050565b612c3481613168565b82525050565b612c4381613168565b82525050565b6000602082019050612c5e6000830184612860565b92915050565b6000606082019050612c796000830186612860565b612c866020830185612860565b612c936040830184612c2b565b949350505050565b6000604082019050612cb06000830185612860565b612cbd6020830184612c2b565b9392505050565b6000608082019050612cd9600083018961286f565b8181036020830152612cec818789612876565b9050612cfb6040830186612c3a565b8181036060830152612d0e818486612986565b9050979650505050505050565b60006020820190508181036000830152612d3581846128ce565b905092915050565b6000602082019050612d52600083018461292c565b92915050565b6000602082019050612d6d600083018461293b565b92915050565b6000602082019050612d886000830184612959565b92915050565b6000602082019050612da36000830184612977565b92915050565b60006020820190508181036000830152612dc381846129ec565b905092915050565b60006020820190508181036000830152612de481612a5e565b9050919050565b60006020820190508181036000830152612e0481612a81565b9050919050565b60006020820190508181036000830152612e2481612aa4565b9050919050565b60006020820190508181036000830152612e4481612ac7565b9050919050565b60006020820190508181036000830152612e6481612aea565b9050919050565b60006020820190508181036000830152612e8481612b0d565b9050919050565b60006020820190508181036000830152612ea481612b30565b9050919050565b60006020820190508181036000830152612ec481612b53565b9050919050565b6000606082019050612ee06000830186612b76565b612eed6020830185612c3a565b612efa604083018461294a565b949350505050565b6000606082019050612f176000830186612b7d565b612f246020830185612977565b8181036040830152612f368184612a25565b9050949350505050565b60006020820190508181036000830152612f5a8184612b84565b905092915050565b6000602082019050612f776000830184612c2b565b92915050565b600060c082019050612f926000830189612c2b565b612f9f6020830188612860565b612fac6040830187612860565b8181036060830152612fbe81866129ec565b90508181036080830152612fd281856129ec565b9050612fe160a0830184612c2b565b979650505050505050565b6000819050602082019050919050565b600081519050919050565b600081519050919050565b6000602082019050919050565b600082825260208201905092915050565b600082825260208201905092915050565b600082825260208201905092915050565b600082825260208201905092915050565b600082825260208201905092915050565b600061307f82613168565b915061308a83613168565b9250827fffffffffffffffffffffffffffffffffffffffffffffffffffffffffffffffff038211156130bf576130be613277565b5b828201905092915050565b60006130d582613148565b9050919050565b60008115159050919050565b60007fffffffff0000000000000000000000000000000000000000000000000000000082169050919050565b6000819050613122826134cf565b919050565b6000819050613135826134e3565b919050565b600061ffff82169050919050565b600073ffffffffffffffffffffffffffffffffffffffff82169050919050565b6000819050919050565b600061317d82613184565b9050919050565b600061318f82613148565b9050919050565b60006131a182613114565b9050919050565b60006131b382613127565b9050919050565b82818337600083830152505050565b60005b838110156131e75780820151818401526020810190506131cc565b838111156131f6576000848401525b50505050565b6000600282049050600182168061321457607f821691505b60208210811415613228576132276132d5565b5b50919050565b600061323982613168565b91507fffffffffffffffffffffffffffffffffffffffffffffffffffffffffffffffff82141561326c5761326b613277565b5b600182019050919050565b7f4e487b7100000000000000000000000000000000000000000000000000000000600052601160045260246000fd5b7f4e487b7100000000000000000000000000000000000000000000000000000000600052602160045260246000fd5b7f4e487b7100000000000000000000000000000000000000000000000000000000600052602260045260246000fd5b6000601f19601f8301169050919050565b7f497420697320746f6f206c61746520746f20776974686472617720746869732060008201527f61756374696f6e21000000000000000000000000000000000000000000000000602082015250565b7f596f7520617265206e6f742074686520686f7374206f6620746869732061756360008201527f74696f6e21000000000000000000000000000000000000000000000000000000602082015250565b7f596f7520616c7265616479206f776e207468697320756e697400000000000000600082015250565b7f556e697420697320627573790000000000000000000000000000000000000000600082015250565b7f4e6f7420612076616c696420616464726573732e20536f727279210000000000600082015250565b7f556e6974206973206e6f742070726f6d6973656420746f20746861742075736560008201527f7200000000000000000000000000000000000000000000000000000000000000602082015250565b7f596f7520646f6e2774206f776e207468697320756e6974000000000000000000600082015250565b7f556e697420697320756e617661696c61626c6500000000000000000000000000600082015250565b600581106134e0576134df6132a6565b5b50565b600381106134f4576134f36132a6565b5b50565b613500816130ca565b811461350b57600080fd5b50565b613517816130dc565b811461352257600080fd5b50565b61352e816130e8565b811461353957600080fd5b50565b6003811061354957600080fd5b50565b61355581613168565b811461356057600080fd5b5056fea26469706673582212201e6be38e6eae6da45e130b199c57a07472753077022daf9da29cf23ccc29dd2b64736f6c634300080100336080604052633b9aca006000553480156200001957600080fd5b50604051620018be380380620018be83398181016040528101906200003f9190620000e4565b80600460006101000a81548173ffffffffffffffffffffffffffffffffffffffff021916908373ffffffffffffffffffffffffffffffffffffffff160217905550600054600160008373ffffffffffffffffffffffffffffffffffffffff1673ffffffffffffffffffffffffffffffffffffffff16815260200190815260200160002081905550506200015e565b600081519050620000de8162000144565b92915050565b600060208284031215620000f757600080fd5b60006200010784828501620000cd565b91505092915050565b60006200011d8262000124565b9050919050565b600073ffffffffffffffffffffffffffffffffffffffff82169050919050565b6200014f8162000110565b81146200015b57600080fd5b50565b611750806200016e6000396000f3fe6080604052600436106100f35760003560e01c806370a082311161008a578063abb8d5c311610059578063abb8d5c314610345578063af7d6ca314610382578063d4e7b8ad146103bf578063dd62ed3e146103fc576100f3565b806370a082311461028957806389eb068a146102c657806395d89b41146102dd578063a9059cbb14610308576100f3565b806323b872dd116100c657806323b872dd146101c85780633290ce2914610205578063332b888d1461020f578063535b67731461024c576100f3565b806301ffc9a7146100f857806306fdde0314610135578063095ea7b31461016057806318160ddd1461019d575b600080fd5b34801561010457600080fd5b5061011f600480360381019061011a91906111cb565b610439565b60405161012c9190611300565b60405180910390f35b34801561014157600080fd5b5061014a610444565b604051610157919061131b565b60405180910390f35b34801561016c57600080fd5b506101876004803603810190610182919061118f565b610481565b6040516101949190611300565b60405180910390f35b3480156101a957600080fd5b506101b2610496565b6040516101bf91906113bd565b60405180910390f35b3480156101d457600080fd5b506101ef60048036038101906101ea9190611140565b61049f565b6040516101fc9190611300565b60405180910390f35b61020d6106ff565b005b34801561021b57600080fd5b50610236600480360381019061023191906111f4565b610763565b6040516102439190611300565b60405180910390f35b34801561025857600080fd5b50610273600480360381019061026e919061118f565b61076e565b6040516102809190611300565b60405180910390f35b34801561029557600080fd5b506102b060048036038101906102ab91906110db565b6108f3565b6040516102bd91906113bd565b60405180910390f35b3480156102d257600080fd5b506102db61093c565b005b3480156102e957600080fd5b506102f2610997565b6040516102ff919061131b565b60405180910390f35b34801561031457600080fd5b5061032f600480360381019061032a919061118f565b6109d4565b60405161033c9190611300565b60405180910390f35b34801561035157600080fd5b5061036c6004803603810190610367919061118f565b610b3b565b6040516103799190611300565b60405180910390f35b34801561038e57600080fd5b506103a960048036038101906103a4919061118f565b610c02565b6040516103b69190611300565b60405180910390f35b3480156103cb57600080fd5b506103e660048036038101906103e191906110db565b610ddd565b6040516103f391906113bd565b60405180910390f35b34801561040857600080fd5b50610423600480360381019061041e9190611104565b610e70565b60405161043091906113bd565b60405180910390f35b600060019050919050565b60606040518060400160405280601581526020017f4175746f43686573732053746f726520546f6b656e0000000000000000000000815250905090565b600061048e338484610ef7565b905092915050565b60008054905090565b600081600260008673ffffffffffffffffffffffffffffffffffffffff1673ffffffffffffffffffffffffffffffffffffffff16815260200190815260200160002060008573ffffffffffffffffffffffffffffffffffffffff1673ffffffffffffffffffffffffffffffffffffffff168152602001908152602001600020541161055f576040517f08c379a00000000000000000000000000000000000000000000000000000000081526004016105569061133d565b60405180910390fd5b81600260008673ffffffffffffffffffffffffffffffffffffffff1673ffffffffffffffffffffffffffffffffffffffff16815260200190815260200160002060008573ffffffffffffffffffffffffffffffffffffffff1673ffffffffffffffffffffffffffffffffffffffff16815260200190815260200160002060008282546105eb91906114a4565b9250508190555081600360008673ffffffffffffffffffffffffffffffffffffffff1673ffffffffffffffffffffffffffffffffffffffff168152602001908152602001600020600082825461064191906114a4565b9250508190555081600160008673ffffffffffffffffffffffffffffffffffffffff1673ffffffffffffffffffffffffffffffffffffffff168152602001908152602001600020600082825461069791906114a4565b9250508190555081600160008573ffffffffffffffffffffffffffffffffffffffff1673ffffffffffffffffffffffffffffffffffffffff16815260200190815260200160002060008282546106ed91906113f4565b92505081905550600190509392505050565b60643461070c919061144a565b600160003373ffffffffffffffffffffffffffffffffffffffff1673ffffffffffffffffffffffffffffffffffffffff168152602001908152602001600020600082825461075a91906113f4565b92505081905550565b600060019050919050565b6000600460009054906101000a900473ffffffffffffffffffffffffffffffffffffffff1673ffffffffffffffffffffffffffffffffffffffff163373ffffffffffffffffffffffffffffffffffffffff1614610800576040517f08c379a00000000000000000000000000000000000000000000000000000000081526004016107f79061139d565b60405180910390fd5b81600260008573ffffffffffffffffffffffffffffffffffffffff1673ffffffffffffffffffffffffffffffffffffffff16815260200190815260200160002060003373ffffffffffffffffffffffffffffffffffffffff1673ffffffffffffffffffffffffffffffffffffffff168152602001908152602001600020600082825461088c91906114a4565b9250508190555081600360008573ffffffffffffffffffffffffffffffffffffffff1673ffffffffffffffffffffffffffffffffffffffff16815260200190815260200160002060008282546108e291906114a4565b925050819055506001905092915050565b6000600160008373ffffffffffffffffffffffffffffffffffffffff1673ffffffffffffffffffffffffffffffffffffffff168152602001908152602001600020549050919050565b620186a0600160003373ffffffffffffffffffffffffffffffffffffffff1673ffffffffffffffffffffffffffffffffffffffff168152602001908152602001600020600082825461098e91906113f4565b92505081905550565b60606040518060400160405280600681526020017f4143485353540000000000000000000000000000000000000000000000000000815250905090565b6000816109e033610ddd565b11610a20576040517f08c379a0000000000000000000000000000000000000000000000000000000008152600401610a179061135d565b60405180910390fd5b81600160003373ffffffffffffffffffffffffffffffffffffffff1673ffffffffffffffffffffffffffffffffffffffff1681526020019081526020016000206000828254610a6f91906114a4565b9250508190555081600160008573ffffffffffffffffffffffffffffffffffffffff1673ffffffffffffffffffffffffffffffffffffffff1681526020019081526020016000206000828254610ac591906113f4565b925050819055508273ffffffffffffffffffffffffffffffffffffffff163373ffffffffffffffffffffffffffffffffffffffff167fddf252ad1be2c89b69c2b068fc378daa952ba7f163c4a11628f55a4df523b3ef84604051610b2991906113bd565b60405180910390a36001905092915050565b6000600460009054906101000a900473ffffffffffffffffffffffffffffffffffffffff1673ffffffffffffffffffffffffffffffffffffffff163373ffffffffffffffffffffffffffffffffffffffff1614610bcd576040517f08c379a0000000000000000000000000000000000000000000000000000000008152600401610bc49061139d565b60405180910390fd5b610bfa83600460009054906101000a900473ffffffffffffffffffffffffffffffffffffffff1684610ef7565b905092915050565b6000600460009054906101000a900473ffffffffffffffffffffffffffffffffffffffff1673ffffffffffffffffffffffffffffffffffffffff163373ffffffffffffffffffffffffffffffffffffffff1614610c94576040517f08c379a0000000000000000000000000000000000000000000000000000000008152600401610c8b9061139d565b60405180910390fd5b81610c9e84610ddd565b11610cde576040517f08c379a0000000000000000000000000000000000000000000000000000000008152600401610cd59061135d565b60405180910390fd5b81600080828254610cef91906114a4565b9250508190555081600160008573ffffffffffffffffffffffffffffffffffffffff1673ffffffffffffffffffffffffffffffffffffffff1681526020019081526020016000206000828254610d4591906114a4565b92505081905550600460009054906101000a900473ffffffffffffffffffffffffffffffffffffffff1673ffffffffffffffffffffffffffffffffffffffff168373ffffffffffffffffffffffffffffffffffffffff167fddf252ad1be2c89b69c2b068fc378daa952ba7f163c4a11628f55a4df523b3ef84604051610dcb91906113bd565b60405180910390a36001905092915050565b6000600360008373ffffffffffffffffffffffffffffffffffffffff1673ffffffffffffffffffffffffffffffffffffffff16815260200190815260200160002054600160008473ffffffffffffffffffffffffffffffffffffffff1673ffffffffffffffffffffffffffffffffffffffff16815260200190815260200160002054610e6991906114a4565b9050919050565b6000600260008473ffffffffffffffffffffffffffffffffffffffff1673ffffffffffffffffffffffffffffffffffffffff16815260200190815260200160002060008373ffffffffffffffffffffffffffffffffffffffff1673ffffffffffffffffffffffffffffffffffffffff16815260200190815260200160002054905092915050565b600081610f0385610ddd565b11610f43576040517f08c379a0000000000000000000000000000000000000000000000000000000008152600401610f3a9061137d565b60405180910390fd5b81600260008673ffffffffffffffffffffffffffffffffffffffff1673ffffffffffffffffffffffffffffffffffffffff16815260200190815260200160002060008573ffffffffffffffffffffffffffffffffffffffff1673ffffffffffffffffffffffffffffffffffffffff1681526020019081526020016000206000828254610fcf91906113f4565b9250508190555081600360008673ffffffffffffffffffffffffffffffffffffffff1673ffffffffffffffffffffffffffffffffffffffff168152602001908152602001600020600082825461102591906113f4565b925050819055508273ffffffffffffffffffffffffffffffffffffffff168473ffffffffffffffffffffffffffffffffffffffff167f8c5be1e5ebec7d5bd14f71427d1e84f3dd0314c0f7b2291e5b200ac8c7c3b9258460405161108991906113bd565b60405180910390a3600190509392505050565b6000813590506110ab816116d5565b92915050565b6000813590506110c0816116ec565b92915050565b6000813590506110d581611703565b92915050565b6000602082840312156110ed57600080fd5b60006110fb8482850161109c565b91505092915050565b6000806040838503121561111757600080fd5b60006111258582860161109c565b92505060206111368582860161109c565b9150509250929050565b60008060006060848603121561115557600080fd5b60006111638682870161109c565b93505060206111748682870161109c565b9250506040611185868287016110c6565b9150509250925092565b600080604083850312156111a257600080fd5b60006111b08582860161109c565b92505060206111c1858286016110c6565b9150509250929050565b6000602082840312156111dd57600080fd5b60006111eb848285016110b1565b91505092915050565b60006020828403121561120657600080fd5b6000611214848285016110c6565b91505092915050565b611226816114ea565b82525050565b6000611237826113d8565b61124181856113e3565b935061125181856020860161154c565b61125a816115ae565b840191505092915050565b60006112726010836113e3565b915061127d826115bf565b602082019050919050565b6000611295602c836113e3565b91506112a0826115e8565b604082019050919050565b60006112b8602b836113e3565b91506112c382611637565b604082019050919050565b60006112db602b836113e3565b91506112e682611686565b604082019050919050565b6112fa81611542565b82525050565b6000602082019050611315600083018461121d565b92915050565b60006020820190508181036000830152611335818461122c565b905092915050565b6000602082019050818103600083015261135681611265565b9050919050565b6000602082019050818103600083015261137681611288565b9050919050565b60006020820190508181036000830152611396816112ab565b9050919050565b600060208201905081810360008301526113b6816112ce565b9050919050565b60006020820190506113d260008301846112f1565b92915050565b600081519050919050565b600082825260208201905092915050565b60006113ff82611542565b915061140a83611542565b9250827fffffffffffffffffffffffffffffffffffffffffffffffffffffffffffffffff0382111561143f5761143e61157f565b5b828201905092915050565b600061145582611542565b915061146083611542565b9250817fffffffffffffffffffffffffffffffffffffffffffffffffffffffffffffffff04831182151516156114995761149861157f565b5b828202905092915050565b60006114af82611542565b91506114ba83611542565b9250828210156114cd576114cc61157f565b5b828203905092915050565b60006114e382611522565b9050919050565b60008115159050919050565b60007fffffffff0000000000000000000000000000000000000000000000000000000082169050919050565b600073ffffffffffffffffffffffffffffffffffffffff82169050919050565b6000819050919050565b60005b8381101561156a57808201518184015260208101905061154f565b83811115611579576000848401525b50505050565b7f4e487b7100000000000000000000000000000000000000000000000000000000600052601160045260246000fd5b6000601f19601f8301169050919050565b7f416d6f756e7420746f6f206c6172676500000000000000000000000000000000600082015250565b7f546f6f2066657720746f6b656e732061726520756e6c6f636b656420696e207960008201527f6f7572206163636f756e74210000000000000000000000000000000000000000602082015250565b7f546f6f2066657720746f6b656e732061726520756e6c6f636b656420696e207960008201527f6f7572206163636f756e74000000000000000000000000000000000000000000602082015250565b7f4f6e6c79207468652053746f726546726f6e7420697320616c6c6f776564207460008201527f6f2075736520746869732e000000000000000000000000000000000000000000602082015250565b6116de816114d8565b81146116e957600080fd5b50565b6116f5816114f6565b811461170057600080fd5b50565b61170c81611542565b811461171757600080fd5b5056fea2646970667358221220dade9c4a737a982f26f8f7d789524a6649355b13872de3be245dc74f08f6c8f264736f6c63430008010033",
			"opcodes": "PUSH1 0x80 PUSH1 0x40 MSTORE PUSH4 0x3B9ACA00 PUSH1 0xD SSTORE CALLVALUE DUP1 ISZERO PUSH3 0x19 JUMPI PUSH1 0x0 DUP1 REVERT JUMPDEST POP ADDRESS PUSH1 0x40 MLOAD PUSH3 0x29 SWAP1 PUSH3 0xFC JUMP JUMPDEST PUSH3 0x35 SWAP2 SWAP1 PUSH3 0x11B JUMP JUMPDEST PUSH1 0x40 MLOAD DUP1 SWAP2 SUB SWAP1 PUSH1 0x0 CREATE DUP1 ISZERO DUP1 ISZERO PUSH3 0x52 JUMPI RETURNDATASIZE PUSH1 0x0 DUP1 RETURNDATACOPY RETURNDATASIZE PUSH1 0x0 REVERT JUMPDEST POP PUSH1 0xF PUSH1 0x0 PUSH2 0x100 EXP DUP2 SLOAD DUP2 PUSH20 0xFFFFFFFFFFFFFFFFFFFFFFFFFFFFFFFFFFFFFFFF MUL NOT AND SWAP1 DUP4 PUSH20 0xFFFFFFFFFFFFFFFFFFFFFFFFFFFFFFFFFFFFFFFF AND MUL OR SWAP1 SSTORE POP PUSH1 0xF PUSH1 0x0 SWAP1 SLOAD SWAP1 PUSH2 0x100 EXP SWAP1 DIV PUSH20 0xFFFFFFFFFFFFFFFFFFFFFFFFFFFFFFFFFFFFFFFF AND PUSH1 0xE PUSH1 0x0 PUSH2 0x100 EXP DUP2 SLOAD DUP2 PUSH20 0xFFFFFFFFFFFFFFFFFFFFFFFFFFFFFFFFFFFFFFFF MUL NOT AND SWAP1 DUP4 PUSH20 0xFFFFFFFFFFFFFFFFFFFFFFFFFFFFFFFFFFFFFFFF AND MUL OR SWAP1 SSTORE POP PUSH3 0x16C JUMP JUMPDEST PUSH2 0x18BE DUP1 PUSH3 0x3715 DUP4 CODECOPY ADD SWAP1 JUMP JUMPDEST PUSH3 0x115 DUP2 PUSH3 0x138 JUMP JUMPDEST DUP3 MSTORE POP POP JUMP JUMPDEST PUSH1 0x0 PUSH1 0x20 DUP3 ADD SWAP1 POP PUSH3 0x132 PUSH1 0x0 DUP4 ADD DUP5 PUSH3 0x10A JUMP JUMPDEST SWAP3 SWAP2 POP POP JUMP JUMPDEST PUSH1 0x0 PUSH3 0x145 DUP3 PUSH3 0x14C JUMP JUMPDEST SWAP1 POP SWAP2 SWAP1 POP JUMP JUMPDEST PUSH1 0x0 PUSH20 0xFFFFFFFFFFFFFFFFFFFFFFFFFFFFFFFFFFFFFFFF DUP3 AND SWAP1 POP SWAP2 SWAP1 POP JUMP JUMPDEST PUSH2 0x3599 DUP1 PUSH3 0x17C PUSH1 0x0 CODECOPY PUSH1 0x0 RETURN INVALID PUSH1 0x80 PUSH1 0x40 MSTORE CALLVALUE DUP1 ISZERO PUSH2 0x10 JUMPI PUSH1 0x0 DUP1 REVERT JUMPDEST POP PUSH1 0x4 CALLDATASIZE LT PUSH2 0x14D JUMPI PUSH1 0x0 CALLDATALOAD PUSH1 0xE0 SHR DUP1 PUSH4 0x70A08231 GT PUSH2 0xC3 JUMPI DUP1 PUSH4 0xA367DD3C GT PUSH2 0x7C JUMPI DUP1 PUSH4 0xA367DD3C EQ PUSH2 0x3EF JUMPI DUP1 PUSH4 0xA9059CBB EQ PUSH2 0x41F JUMPI DUP1 PUSH4 0xB5FC9833 EQ PUSH2 0x43B JUMPI DUP1 PUSH4 0xC44E6640 EQ PUSH2 0x46B JUMPI DUP1 PUSH4 0xD1454521 EQ PUSH2 0x489 JUMPI DUP1 PUSH4 0xE4B50CB8 EQ PUSH2 0x4A7 JUMPI PUSH2 0x14D JUMP JUMPDEST DUP1 PUSH4 0x70A08231 EQ PUSH2 0x307 JUMPI DUP1 PUSH4 0x76D4FC57 EQ PUSH2 0x337 JUMPI DUP1 PUSH4 0x8462151C EQ PUSH2 0x353 JUMPI DUP1 PUSH4 0x898F4299 EQ PUSH2 0x383 JUMPI DUP1 PUSH4 0x95D89B41 EQ PUSH2 0x3B3 JUMPI DUP1 PUSH4 0x99975226 EQ PUSH2 0x3D1 JUMPI PUSH2 0x14D JUMP JUMPDEST DUP1 PUSH4 0x23B872DD GT PUSH2 0x115 JUMPI DUP1 PUSH4 0x23B872DD EQ PUSH2 0x20F JUMPI DUP1 PUSH4 0x27E78202 EQ PUSH2 0x22B JUMPI DUP1 PUSH4 0x2E009F76 EQ PUSH2 0x25B JUMPI DUP1 PUSH4 0x54C8A21E EQ PUSH2 0x28B JUMPI DUP1 PUSH4 0x598647F8 EQ PUSH2 0x2BB JUMPI DUP1 PUSH4 0x6352211E EQ PUSH2 0x2D7 JUMPI PUSH2 0x14D JUMP JUMPDEST DUP1 PUSH4 0x1FFC9A7 EQ PUSH2 0x152 JUMPI DUP1 PUSH4 0x6FDDE03 EQ PUSH2 0x182 JUMPI DUP1 PUSH4 0x95EA7B3 EQ PUSH2 0x1A0 JUMPI DUP1 PUSH4 0x17DC6BF6 EQ PUSH2 0x1BC JUMPI DUP1 PUSH4 0x18160DDD EQ PUSH2 0x1F1 JUMPI JUMPDEST PUSH1 0x0 DUP1 REVERT JUMPDEST PUSH2 0x16C PUSH1 0x4 DUP1 CALLDATASIZE SUB DUP2 ADD SWAP1 PUSH2 0x167 SWAP2 SWAP1 PUSH2 0x26A4 JUMP JUMPDEST PUSH2 0x4D7 JUMP JUMPDEST PUSH1 0x40 MLOAD PUSH2 0x179 SWAP2 SWAP1 PUSH2 0x2D3D JUMP JUMPDEST PUSH1 0x40 MLOAD DUP1 SWAP2 SUB SWAP1 RETURN JUMPDEST PUSH2 0x18A PUSH2 0x4DE JUMP JUMPDEST PUSH1 0x40 MLOAD PUSH2 0x197 SWAP2 SWAP1 PUSH2 0x2DA9 JUMP JUMPDEST PUSH1 0x40 MLOAD DUP1 SWAP2 SUB SWAP1 RETURN JUMPDEST PUSH2 0x1BA PUSH1 0x4 DUP1 CALLDATASIZE SUB DUP2 ADD SWAP1 PUSH2 0x1B5 SWAP2 SWAP1 PUSH2 0x25B6 JUMP JUMPDEST PUSH2 0x51B JUMP JUMPDEST STOP JUMPDEST PUSH2 0x1D6 PUSH1 0x4 DUP1 CALLDATASIZE SUB DUP2 ADD SWAP1 PUSH2 0x1D1 SWAP2 SWAP1 PUSH2 0x274E JUMP JUMPDEST PUSH2 0x845 JUMP JUMPDEST PUSH1 0x40 MLOAD PUSH2 0x1E8 SWAP7 SWAP6 SWAP5 SWAP4 SWAP3 SWAP2 SWAP1 PUSH2 0x2F7D JUMP JUMPDEST PUSH1 0x40 MLOAD DUP1 SWAP2 SUB SWAP1 RETURN JUMPDEST PUSH2 0x1F9 PUSH2 0x9E1 JUMP JUMPDEST PUSH1 0x40 MLOAD PUSH2 0x206 SWAP2 SWAP1 PUSH2 0x2F62 JUMP JUMPDEST PUSH1 0x40 MLOAD DUP1 SWAP2 SUB SWAP1 RETURN JUMPDEST PUSH2 0x229 PUSH1 0x4 DUP1 CALLDATASIZE SUB DUP2 ADD SWAP1 PUSH2 0x224 SWAP2 SWAP1 PUSH2 0x2567 JUMP JUMPDEST PUSH2 0x9EB JUMP JUMPDEST STOP JUMPDEST PUSH2 0x245 PUSH1 0x4 DUP1 CALLDATASIZE SUB DUP2 ADD SWAP1 PUSH2 0x240 SWAP2 SWAP1 PUSH2 0x26CD JUMP JUMPDEST PUSH2 0xCD0 JUMP JUMPDEST PUSH1 0x40 MLOAD PUSH2 0x252 SWAP2 SWAP1 PUSH2 0x2F62 JUMP JUMPDEST PUSH1 0x40 MLOAD DUP1 SWAP2 SUB SWAP1 RETURN JUMPDEST PUSH2 0x275 PUSH1 0x4 DUP1 CALLDATASIZE SUB DUP2 ADD SWAP1 PUSH2 0x270 SWAP2 SWAP1 PUSH2 0x274E JUMP JUMPDEST PUSH2 0xD19 JUMP JUMPDEST PUSH1 0x40 MLOAD PUSH2 0x282 SWAP2 SWAP1 PUSH2 0x2D73 JUMP JUMPDEST PUSH1 0x40 MLOAD DUP1 SWAP2 SUB SWAP1 RETURN JUMPDEST PUSH2 0x2A5 PUSH1 0x4 DUP1 CALLDATASIZE SUB DUP2 ADD SWAP1 PUSH2 0x2A0 SWAP2 SWAP1 PUSH2 0x25F2 JUMP JUMPDEST PUSH2 0xD45 JUMP JUMPDEST PUSH1 0x40 MLOAD PUSH2 0x2B2 SWAP2 SWAP1 PUSH2 0x2F62 JUMP JUMPDEST PUSH1 0x40 MLOAD DUP1 SWAP2 SUB SWAP1 RETURN JUMPDEST PUSH2 0x2D5 PUSH1 0x4 DUP1 CALLDATASIZE SUB DUP2 ADD SWAP1 PUSH2 0x2D0 SWAP2 SWAP1 PUSH2 0x27A0 JUMP JUMPDEST PUSH2 0xE52 JUMP JUMPDEST STOP JUMPDEST PUSH2 0x2F1 PUSH1 0x4 DUP1 CALLDATASIZE SUB DUP2 ADD SWAP1 PUSH2 0x2EC SWAP2 SWAP1 PUSH2 0x274E JUMP JUMPDEST PUSH2 0xF2C JUMP JUMPDEST PUSH1 0x40 MLOAD PUSH2 0x2FE SWAP2 SWAP1 PUSH2 0x2C49 JUMP JUMPDEST PUSH1 0x40 MLOAD DUP1 SWAP2 SUB SWAP1 RETURN JUMPDEST PUSH2 0x321 PUSH1 0x4 DUP1 CALLDATASIZE SUB DUP2 ADD SWAP1 PUSH2 0x31C SWAP2 SWAP1 PUSH2 0x253E JUMP JUMPDEST PUSH2 0xF6B JUMP JUMPDEST PUSH1 0x40 MLOAD PUSH2 0x32E SWAP2 SWAP1 PUSH2 0x2F62 JUMP JUMPDEST PUSH1 0x40 MLOAD DUP1 SWAP2 SUB SWAP1 RETURN JUMPDEST PUSH2 0x351 PUSH1 0x4 DUP1 CALLDATASIZE SUB DUP2 ADD SWAP1 PUSH2 0x34C SWAP2 SWAP1 PUSH2 0x27DC JUMP JUMPDEST PUSH2 0x1014 JUMP JUMPDEST STOP JUMPDEST PUSH2 0x36D PUSH1 0x4 DUP1 CALLDATASIZE SUB DUP2 ADD SWAP1 PUSH2 0x368 SWAP2 SWAP1 PUSH2 0x253E JUMP JUMPDEST PUSH2 0x114B JUMP JUMPDEST PUSH1 0x40 MLOAD PUSH2 0x37A SWAP2 SWAP1 PUSH2 0x2D1B JUMP JUMPDEST PUSH1 0x40 MLOAD DUP1 SWAP2 SUB SWAP1 RETURN JUMPDEST PUSH2 0x39D PUSH1 0x4 DUP1 CALLDATASIZE SUB DUP2 ADD SWAP1 PUSH2 0x398 SWAP2 SWAP1 PUSH2 0x26F6 JUMP JUMPDEST PUSH2 0x12E8 JUMP JUMPDEST PUSH1 0x40 MLOAD PUSH2 0x3AA SWAP2 SWAP1 PUSH2 0x2F62 JUMP JUMPDEST PUSH1 0x40 MLOAD DUP1 SWAP2 SUB SWAP1 RETURN JUMPDEST PUSH2 0x3BB PUSH2 0x1342 JUMP JUMPDEST PUSH1 0x40 MLOAD PUSH2 0x3C8 SWAP2 SWAP1 PUSH2 0x2DA9 JUMP JUMPDEST PUSH1 0x40 MLOAD DUP1 SWAP2 SUB SWAP1 RETURN JUMPDEST PUSH2 0x3D9 PUSH2 0x137F JUMP JUMPDEST PUSH1 0x40 MLOAD PUSH2 0x3E6 SWAP2 SWAP1 PUSH2 0x2D58 JUMP JUMPDEST PUSH1 0x40 MLOAD DUP1 SWAP2 SUB SWAP1 RETURN JUMPDEST PUSH2 0x409 PUSH1 0x4 DUP1 CALLDATASIZE SUB DUP2 ADD SWAP1 PUSH2 0x404 SWAP2 SWAP1 PUSH2 0x274E JUMP JUMPDEST PUSH2 0x13A5 JUMP JUMPDEST PUSH1 0x40 MLOAD PUSH2 0x416 SWAP2 SWAP1 PUSH2 0x2D1B JUMP JUMPDEST PUSH1 0x40 MLOAD DUP1 SWAP2 SUB SWAP1 RETURN JUMPDEST PUSH2 0x439 PUSH1 0x4 DUP1 CALLDATASIZE SUB DUP2 ADD SWAP1 PUSH2 0x434 SWAP2 SWAP1 PUSH2 0x25B6 JUMP JUMPDEST PUSH2 0x1448 JUMP JUMPDEST STOP JUMPDEST PUSH2 0x455 PUSH1 0x4 DUP1 CALLDATASIZE SUB DUP2 ADD SWAP1 PUSH2 0x450 SWAP2 SWAP1 PUSH2 0x274E JUMP JUMPDEST PUSH2 0x1688 JUMP JUMPDEST PUSH1 0x40 MLOAD PUSH2 0x462 SWAP2 SWAP1 PUSH2 0x2D3D JUMP JUMPDEST PUSH1 0x40 MLOAD DUP1 SWAP2 SUB SWAP1 RETURN JUMPDEST PUSH2 0x473 PUSH2 0x195F JUMP JUMPDEST PUSH1 0x40 MLOAD PUSH2 0x480 SWAP2 SWAP1 PUSH2 0x2F62 JUMP JUMPDEST PUSH1 0x40 MLOAD DUP1 SWAP2 SUB SWAP1 RETURN JUMPDEST PUSH2 0x491 PUSH2 0x196C JUMP JUMPDEST PUSH1 0x40 MLOAD PUSH2 0x49E SWAP2 SWAP1 PUSH2 0x2C49 JUMP JUMPDEST PUSH1 0x40 MLOAD DUP1 SWAP2 SUB SWAP1 RETURN JUMPDEST PUSH2 0x4C1 PUSH1 0x4 DUP1 CALLDATASIZE SUB DUP2 ADD SWAP1 PUSH2 0x4BC SWAP2 SWAP1 PUSH2 0x274E JUMP JUMPDEST PUSH2 0x1992 JUMP JUMPDEST PUSH1 0x40 MLOAD PUSH2 0x4CE SWAP2 SWAP1 PUSH2 0x2F40 JUMP JUMPDEST PUSH1 0x40 MLOAD DUP1 SWAP2 SUB SWAP1 RETURN JUMPDEST PUSH1 0x0 SWAP2 SWAP1 POP JUMP JUMPDEST PUSH1 0x60 PUSH1 0x40 MLOAD DUP1 PUSH1 0x40 ADD PUSH1 0x40 MSTORE DUP1 PUSH1 0x14 DUP2 MSTORE PUSH1 0x20 ADD PUSH32 0x4175746F436865737320556E697420546F6B656E000000000000000000000000 DUP2 MSTORE POP SWAP1 POP SWAP1 JUMP JUMPDEST CALLER DUP3 DUP3 PUSH2 0x527 DUP2 PUSH2 0xF2C JUMP JUMPDEST PUSH20 0xFFFFFFFFFFFFFFFFFFFFFFFFFFFFFFFFFFFFFFFF AND DUP4 PUSH20 0xFFFFFFFFFFFFFFFFFFFFFFFFFFFFFFFFFFFFFFFF AND EQ PUSH2 0x594 JUMPI PUSH1 0x40 MLOAD PUSH32 0x8C379A000000000000000000000000000000000000000000000000000000000 DUP2 MSTORE PUSH1 0x4 ADD PUSH2 0x58B SWAP1 PUSH2 0x2E8B JUMP JUMPDEST PUSH1 0x40 MLOAD DUP1 SWAP2 SUB SWAP1 REVERT JUMPDEST DUP2 PUSH20 0xFFFFFFFFFFFFFFFFFFFFFFFFFFFFFFFFFFFFFFFF AND DUP4 PUSH20 0xFFFFFFFFFFFFFFFFFFFFFFFFFFFFFFFFFFFFFFFF AND EQ ISZERO PUSH2 0x603 JUMPI PUSH1 0x40 MLOAD PUSH32 0x8C379A000000000000000000000000000000000000000000000000000000000 DUP2 MSTORE PUSH1 0x4 ADD PUSH2 0x5FA SWAP1 PUSH2 0x2E0B JUMP JUMPDEST PUSH1 0x40 MLOAD DUP1 SWAP2 SUB SWAP1 REVERT JUMPDEST PUSH1 0x3 PUSH1 0x4 DUP2 GT ISZERO PUSH2 0x63D JUMPI PUSH32 0x4E487B7100000000000000000000000000000000000000000000000000000000 PUSH1 0x0 MSTORE PUSH1 0x21 PUSH1 0x4 MSTORE PUSH1 0x24 PUSH1 0x0 REVERT JUMPDEST PUSH1 0x0 PUSH1 0x2 ADD PUSH1 0x0 DUP4 DUP2 MSTORE PUSH1 0x20 ADD SWAP1 DUP2 MSTORE PUSH1 0x20 ADD PUSH1 0x0 KECCAK256 PUSH1 0x0 SWAP1 SLOAD SWAP1 PUSH2 0x100 EXP SWAP1 DIV PUSH1 0xFF AND PUSH1 0x4 DUP2 GT ISZERO PUSH2 0x699 JUMPI PUSH32 0x4E487B7100000000000000000000000000000000000000000000000000000000 PUSH1 0x0 MSTORE PUSH1 0x21 PUSH1 0x4 MSTORE PUSH1 0x24 PUSH1 0x0 REVERT JUMPDEST EQ PUSH2 0x6D9 JUMPI PUSH1 0x40 MLOAD PUSH32 0x8C379A000000000000000000000000000000000000000000000000000000000 DUP2 MSTORE PUSH1 0x4 ADD PUSH2 0x6D0 SWAP1 PUSH2 0x2EAB JUMP JUMPDEST PUSH1 0x40 MLOAD DUP1 SWAP2 SUB SWAP1 REVERT JUMPDEST PUSH1 0x0 PUSH20 0xFFFFFFFFFFFFFFFFFFFFFFFFFFFFFFFFFFFFFFFF AND DUP3 PUSH20 0xFFFFFFFFFFFFFFFFFFFFFFFFFFFFFFFFFFFFFFFF AND EQ ISZERO PUSH2 0x749 JUMPI PUSH1 0x40 MLOAD PUSH32 0x8C379A000000000000000000000000000000000000000000000000000000000 DUP2 MSTORE PUSH1 0x4 ADD PUSH2 0x740 SWAP1 PUSH2 0x2E4B JUMP JUMPDEST PUSH1 0x40 MLOAD DUP1 SWAP2 SUB SWAP1 REVERT JUMPDEST DUP5 PUSH1 0x0 PUSH1 0x4 ADD PUSH1 0x0 DUP7 DUP2 MSTORE PUSH1 0x20 ADD SWAP1 DUP2 MSTORE PUSH1 0x20 ADD PUSH1 0x0 KECCAK256 PUSH1 0x0 PUSH2 0x100 EXP DUP2 SLOAD DUP2 PUSH20 0xFFFFFFFFFFFFFFFFFFFFFFFFFFFFFFFFFFFFFFFF MUL NOT AND SWAP1 DUP4 PUSH20 0xFFFFFFFFFFFFFFFFFFFFFFFFFFFFFFFFFFFFFFFF AND MUL OR SWAP1 SSTORE POP PUSH1 0x4 PUSH1 0x0 PUSH1 0x2 ADD PUSH1 0x0 DUP7 DUP2 MSTORE PUSH1 0x20 ADD SWAP1 DUP2 MSTORE PUSH1 0x20 ADD PUSH1 0x0 KECCAK256 PUSH1 0x0 PUSH2 0x100 EXP DUP2 SLOAD DUP2 PUSH1 0xFF MUL NOT AND SWAP1 DUP4 PUSH1 0x4 DUP2 GT ISZERO PUSH2 0x7FE JUMPI PUSH32 0x4E487B7100000000000000000000000000000000000000000000000000000000 PUSH1 0x0 MSTORE PUSH1 0x21 PUSH1 0x4 MSTORE PUSH1 0x24 PUSH1 0x0 REVERT JUMPDEST MUL OR SWAP1 SSTORE POP PUSH32 0x8C5BE1E5EBEC7D5BD14F71427D1E84F3DD0314C0F7B2291E5B200AC8C7C3B925 CALLER DUP7 DUP7 PUSH1 0x40 MLOAD PUSH2 0x836 SWAP4 SWAP3 SWAP2 SWAP1 PUSH2 0x2C64 JUMP JUMPDEST PUSH1 0x40 MLOAD DUP1 SWAP2 SUB SWAP1 LOG1 POP POP POP POP POP JUMP JUMPDEST PUSH1 0x10 DUP2 DUP2 SLOAD DUP2 LT PUSH2 0x855 JUMPI PUSH1 0x0 DUP1 REVERT JUMPDEST SWAP1 PUSH1 0x0 MSTORE PUSH1 0x20 PUSH1 0x0 KECCAK256 SWAP1 PUSH1 0x7 MUL ADD PUSH1 0x0 SWAP2 POP SWAP1 POP DUP1 PUSH1 0x0 ADD SLOAD SWAP1 DUP1 PUSH1 0x2 ADD PUSH1 0x0 SWAP1 SLOAD SWAP1 PUSH2 0x100 EXP SWAP1 DIV PUSH20 0xFFFFFFFFFFFFFFFFFFFFFFFFFFFFFFFFFFFFFFFF AND SWAP1 DUP1 PUSH1 0x3 ADD PUSH1 0x0 SWAP1 SLOAD SWAP1 PUSH2 0x100 EXP SWAP1 DIV PUSH20 0xFFFFFFFFFFFFFFFFFFFFFFFFFFFFFFFFFFFFFFFF AND SWAP1 DUP1 PUSH1 0x4 ADD DUP1 SLOAD PUSH2 0x8CA SWAP1 PUSH2 0x31FC JUMP JUMPDEST DUP1 PUSH1 0x1F ADD PUSH1 0x20 DUP1 SWAP2 DIV MUL PUSH1 0x20 ADD PUSH1 0x40 MLOAD SWAP1 DUP2 ADD PUSH1 0x40 MSTORE DUP1 SWAP3 SWAP2 SWAP1 DUP2 DUP2 MSTORE PUSH1 0x20 ADD DUP3 DUP1 SLOAD PUSH2 0x8F6 SWAP1 PUSH2 0x31FC JUMP JUMPDEST DUP1 ISZERO PUSH2 0x943 JUMPI DUP1 PUSH1 0x1F LT PUSH2 0x918 JUMPI PUSH2 0x100 DUP1 DUP4 SLOAD DIV MUL DUP4 MSTORE SWAP2 PUSH1 0x20 ADD SWAP2 PUSH2 0x943 JUMP JUMPDEST DUP3 ADD SWAP2 SWAP1 PUSH1 0x0 MSTORE PUSH1 0x20 PUSH1 0x0 KECCAK256 SWAP1 JUMPDEST DUP2 SLOAD DUP2 MSTORE SWAP1 PUSH1 0x1 ADD SWAP1 PUSH1 0x20 ADD DUP1 DUP4 GT PUSH2 0x926 JUMPI DUP3 SWAP1 SUB PUSH1 0x1F AND DUP3 ADD SWAP2 JUMPDEST POP POP POP POP POP SWAP1 DUP1 PUSH1 0x5 ADD DUP1 SLOAD PUSH2 0x958 SWAP1 PUSH2 0x31FC JUMP JUMPDEST DUP1 PUSH1 0x1F ADD PUSH1 0x20 DUP1 SWAP2 DIV MUL PUSH1 0x20 ADD PUSH1 0x40 MLOAD SWAP1 DUP2 ADD PUSH1 0x40 MSTORE DUP1 SWAP3 SWAP2 SWAP1 DUP2 DUP2 MSTORE PUSH1 0x20 ADD DUP3 DUP1 SLOAD PUSH2 0x984 SWAP1 PUSH2 0x31FC JUMP JUMPDEST DUP1 ISZERO PUSH2 0x9D1 JUMPI DUP1 PUSH1 0x1F LT PUSH2 0x9A6 JUMPI PUSH2 0x100 DUP1 DUP4 SLOAD DIV MUL DUP4 MSTORE SWAP2 PUSH1 0x20 ADD SWAP2 PUSH2 0x9D1 JUMP JUMPDEST DUP3 ADD SWAP2 SWAP1 PUSH1 0x0 MSTORE PUSH1 0x20 PUSH1 0x0 KECCAK256 SWAP1 JUMPDEST DUP2 SLOAD DUP2 MSTORE SWAP1 PUSH1 0x1 ADD SWAP1 PUSH1 0x20 ADD DUP1 DUP4 GT PUSH2 0x9B4 JUMPI DUP3 SWAP1 SUB PUSH1 0x1F AND DUP3 ADD SWAP2 JUMPDEST POP POP POP POP POP SWAP1 DUP1 PUSH1 0x6 ADD SLOAD SWAP1 POP DUP7 JUMP JUMPDEST PUSH1 0x0 PUSH1 0xD SLOAD SWAP1 POP SWAP1 JUMP JUMPDEST DUP3 DUP3 DUP3 PUSH2 0x9F7 DUP2 PUSH2 0xF2C JUMP JUMPDEST PUSH20 0xFFFFFFFFFFFFFFFFFFFFFFFFFFFFFFFFFFFFFFFF AND DUP4 PUSH20 0xFFFFFFFFFFFFFFFFFFFFFFFFFFFFFFFFFFFFFFFF AND EQ PUSH2 0xA64 JUMPI PUSH1 0x40 MLOAD PUSH32 0x8C379A000000000000000000000000000000000000000000000000000000000 DUP2 MSTORE PUSH1 0x4 ADD PUSH2 0xA5B SWAP1 PUSH2 0x2E8B JUMP JUMPDEST PUSH1 0x40 MLOAD DUP1 SWAP2 SUB SWAP1 REVERT JUMPDEST DUP2 PUSH20 0xFFFFFFFFFFFFFFFFFFFFFFFFFFFFFFFFFFFFFFFF AND DUP4 PUSH20 0xFFFFFFFFFFFFFFFFFFFFFFFFFFFFFFFFFFFFFFFF AND EQ ISZERO PUSH2 0xAD3 JUMPI PUSH1 0x40 MLOAD PUSH32 0x8C379A000000000000000000000000000000000000000000000000000000000 DUP2 MSTORE PUSH1 0x4 ADD PUSH2 0xACA SWAP1 PUSH2 0x2E0B JUMP JUMPDEST PUSH1 0x40 MLOAD DUP1 SWAP2 SUB SWAP1 REVERT JUMPDEST PUSH1 0x3 PUSH1 0x4 DUP2 GT ISZERO PUSH2 0xB0D JUMPI PUSH32 0x4E487B7100000000000000000000000000000000000000000000000000000000 PUSH1 0x0 MSTORE PUSH1 0x21 PUSH1 0x4 MSTORE PUSH1 0x24 PUSH1 0x0 REVERT JUMPDEST PUSH1 0x0 PUSH1 0x2 ADD PUSH1 0x0 DUP4 DUP2 MSTORE PUSH1 0x20 ADD SWAP1 DUP2 MSTORE PUSH1 0x20 ADD PUSH1 0x0 KECCAK256 PUSH1 0x0 SWAP1 SLOAD SWAP1 PUSH2 0x100 EXP SWAP1 DIV PUSH1 0xFF AND PUSH1 0x4 DUP2 GT ISZERO PUSH2 0xB69 JUMPI PUSH32 0x4E487B7100000000000000000000000000000000000000000000000000000000 PUSH1 0x0 MSTORE PUSH1 0x21 PUSH1 0x4 MSTORE PUSH1 0x24 PUSH1 0x0 REVERT JUMPDEST EQ PUSH2 0xBA9 JUMPI PUSH1 0x40 MLOAD PUSH32 0x8C379A000000000000000000000000000000000000000000000000000000000 DUP2 MSTORE PUSH1 0x4 ADD PUSH2 0xBA0 SWAP1 PUSH2 0x2EAB JUMP JUMPDEST PUSH1 0x40 MLOAD DUP1 SWAP2 SUB SWAP1 REVERT JUMPDEST PUSH1 0x0 PUSH20 0xFFFFFFFFFFFFFFFFFFFFFFFFFFFFFFFFFFFFFFFF AND DUP3 PUSH20 0xFFFFFFFFFFFFFFFFFFFFFFFFFFFFFFFFFFFFFFFF AND EQ ISZERO PUSH2 0xC19 JUMPI PUSH1 0x40 MLOAD PUSH32 0x8C379A000000000000000000000000000000000000000000000000000000000 DUP2 MSTORE PUSH1 0x4 ADD PUSH2 0xC10 SWAP1 PUSH2 0x2E4B JUMP JUMPDEST PUSH1 0x40 MLOAD DUP1 SWAP2 SUB SWAP1 REVERT JUMPDEST DUP5 PUSH20 0xFFFFFFFFFFFFFFFFFFFFFFFFFFFFFFFFFFFFFFFF AND PUSH1 0x0 PUSH1 0x4 ADD PUSH1 0x0 DUP7 DUP2 MSTORE PUSH1 0x20 ADD SWAP1 DUP2 MSTORE PUSH1 0x20 ADD PUSH1 0x0 KECCAK256 PUSH1 0x0 SWAP1 SLOAD SWAP1 PUSH2 0x100 EXP SWAP1 DIV PUSH20 0xFFFFFFFFFFFFFFFFFFFFFFFFFFFFFFFFFFFFFFFF AND PUSH20 0xFFFFFFFFFFFFFFFFFFFFFFFFFFFFFFFFFFFFFFFF AND EQ PUSH2 0xCBD JUMPI PUSH1 0x40 MLOAD PUSH32 0x8C379A000000000000000000000000000000000000000000000000000000000 DUP2 MSTORE PUSH1 0x4 ADD PUSH2 0xCB4 SWAP1 PUSH2 0x2E6B JUMP JUMPDEST PUSH1 0x40 MLOAD DUP1 SWAP2 SUB SWAP1 REVERT JUMPDEST PUSH2 0xCC8 DUP7 DUP7 DUP7 PUSH2 0x1B8F JUMP JUMPDEST POP POP POP POP POP POP JUMP JUMPDEST PUSH1 0x0 PUSH2 0xD12 CALLER DUP4 PUSH1 0x40 MLOAD DUP1 PUSH1 0x40 ADD PUSH1 0x40 MSTORE DUP1 PUSH1 0x15 DUP2 MSTORE PUSH1 0x20 ADD PUSH32 0x4D6175726963652C20746865204D6564696F6372650000000000000000000000 DUP2 MSTORE POP PUSH2 0x1DD7 JUMP JUMPDEST SWAP1 POP SWAP2 SWAP1 POP JUMP JUMPDEST PUSH1 0x0 DUP1 PUSH1 0x2 ADD PUSH1 0x0 DUP4 DUP2 MSTORE PUSH1 0x20 ADD SWAP1 DUP2 MSTORE PUSH1 0x20 ADD PUSH1 0x0 KECCAK256 PUSH1 0x0 SWAP1 SLOAD SWAP1 PUSH2 0x100 EXP SWAP1 DIV PUSH1 0xFF AND SWAP1 POP SWAP2 SWAP1 POP JUMP JUMPDEST PUSH1 0x0 DUP1 PUSH1 0x0 SWAP1 POP JUMPDEST DUP7 DUP7 SWAP1 POP DUP2 LT ISZERO PUSH2 0xDB4 JUMPI PUSH2 0xDA1 CALLER DUP9 DUP9 DUP5 DUP2 DUP2 LT PUSH2 0xD95 JUMPI PUSH32 0x4E487B7100000000000000000000000000000000000000000000000000000000 PUSH1 0x0 MSTORE PUSH1 0x32 PUSH1 0x4 MSTORE PUSH1 0x24 PUSH1 0x0 REVERT JUMPDEST SWAP1 POP PUSH1 0x20 MUL ADD CALLDATALOAD PUSH2 0x20C7 JUMP JUMPDEST DUP1 DUP1 PUSH2 0xDAC SWAP1 PUSH2 0x322E JUMP JUMPDEST SWAP2 POP POP PUSH2 0xD4D JUMP JUMPDEST POP PUSH20 0x0 PUSH4 0xB4CC2966 PUSH1 0x10 DUP9 DUP9 DUP9 DUP9 DUP9 PUSH1 0x40 MLOAD DUP8 PUSH4 0xFFFFFFFF AND PUSH1 0xE0 SHL DUP2 MSTORE PUSH1 0x4 ADD PUSH2 0xDF7 SWAP7 SWAP6 SWAP5 SWAP4 SWAP3 SWAP2 SWAP1 PUSH2 0x2CC4 JUMP JUMPDEST PUSH1 0x20 PUSH1 0x40 MLOAD DUP1 DUP4 SUB DUP2 DUP7 DUP1 EXTCODESIZE ISZERO DUP1 ISZERO PUSH2 0xE0F JUMPI PUSH1 0x0 DUP1 REVERT JUMPDEST POP GAS DELEGATECALL ISZERO DUP1 ISZERO PUSH2 0xE23 JUMPI RETURNDATASIZE PUSH1 0x0 DUP1 RETURNDATACOPY RETURNDATASIZE PUSH1 0x0 REVERT JUMPDEST POP POP POP POP PUSH1 0x40 MLOAD RETURNDATASIZE PUSH1 0x1F NOT PUSH1 0x1F DUP3 ADD AND DUP3 ADD DUP1 PUSH1 0x40 MSTORE POP DUP2 ADD SWAP1 PUSH2 0xE47 SWAP2 SWAP1 PUSH2 0x2777 JUMP JUMPDEST SWAP1 POP SWAP6 SWAP5 POP POP POP POP POP JUMP JUMPDEST PUSH1 0x10 DUP3 DUP2 SLOAD DUP2 LT PUSH2 0xE8C JUMPI PUSH32 0x4E487B7100000000000000000000000000000000000000000000000000000000 PUSH1 0x0 MSTORE PUSH1 0x32 PUSH1 0x4 MSTORE PUSH1 0x24 PUSH1 0x0 REVERT JUMPDEST SWAP1 PUSH1 0x0 MSTORE PUSH1 0x20 PUSH1 0x0 KECCAK256 SWAP1 PUSH1 0x7 MUL ADD PUSH20 0x0 PUSH4 0xE16D50CC SWAP1 SWAP2 DUP4 PUSH1 0xF PUSH1 0x0 SWAP1 SLOAD SWAP1 PUSH2 0x100 EXP SWAP1 DIV PUSH20 0xFFFFFFFFFFFFFFFFFFFFFFFFFFFFFFFFFFFFFFFF AND PUSH1 0x40 MLOAD DUP5 PUSH4 0xFFFFFFFF AND PUSH1 0xE0 SHL DUP2 MSTORE PUSH1 0x4 ADD PUSH2 0xEF8 SWAP4 SWAP3 SWAP2 SWAP1 PUSH2 0x2ECB JUMP JUMPDEST PUSH1 0x0 PUSH1 0x40 MLOAD DUP1 DUP4 SUB DUP2 DUP7 DUP1 EXTCODESIZE ISZERO DUP1 ISZERO PUSH2 0xF10 JUMPI PUSH1 0x0 DUP1 REVERT JUMPDEST POP GAS DELEGATECALL ISZERO DUP1 ISZERO PUSH2 0xF24 JUMPI RETURNDATASIZE PUSH1 0x0 DUP1 RETURNDATACOPY RETURNDATASIZE PUSH1 0x0 REVERT JUMPDEST POP POP POP POP POP POP JUMP JUMPDEST PUSH1 0x0 DUP1 PUSH1 0x3 ADD PUSH1 0x0 DUP4 DUP2 MSTORE PUSH1 0x20 ADD SWAP1 DUP2 MSTORE PUSH1 0x20 ADD PUSH1 0x0 KECCAK256 PUSH1 0x0 SWAP1 SLOAD SWAP1 PUSH2 0x100 EXP SWAP1 DIV PUSH20 0xFFFFFFFFFFFFFFFFFFFFFFFFFFFFFFFFFFFFFFFF AND SWAP1 POP SWAP2 SWAP1 POP JUMP JUMPDEST PUSH1 0x0 DUP1 PUSH1 0x0 SWAP1 POP JUMPDEST PUSH1 0x0 DUP1 ADD DUP1 SLOAD SWAP1 POP DUP2 LT ISZERO PUSH2 0x100E JUMPI DUP3 PUSH20 0xFFFFFFFFFFFFFFFFFFFFFFFFFFFFFFFFFFFFFFFF AND PUSH1 0x0 PUSH1 0x3 ADD PUSH1 0x0 DUP4 DUP2 MSTORE PUSH1 0x20 ADD SWAP1 DUP2 MSTORE PUSH1 0x20 ADD PUSH1 0x0 KECCAK256 PUSH1 0x0 SWAP1 SLOAD SWAP1 PUSH2 0x100 EXP SWAP1 DIV PUSH20 0xFFFFFFFFFFFFFFFFFFFFFFFFFFFFFFFFFFFFFFFF AND PUSH20 0xFFFFFFFFFFFFFFFFFFFFFFFFFFFFFFFFFFFFFFFF AND EQ ISZERO PUSH2 0xFFB JUMPI DUP2 DUP1 PUSH2 0xFF7 SWAP1 PUSH2 0x322E JUMP JUMPDEST SWAP3 POP POP JUMPDEST DUP1 DUP1 PUSH2 0x1006 SWAP1 PUSH2 0x322E JUMP JUMPDEST SWAP2 POP POP PUSH2 0xF73 JUMP JUMPDEST POP SWAP2 SWAP1 POP JUMP JUMPDEST PUSH1 0x10 DUP5 DUP2 SLOAD DUP2 LT PUSH2 0x104E JUMPI PUSH32 0x4E487B7100000000000000000000000000000000000000000000000000000000 PUSH1 0x0 MSTORE PUSH1 0x32 PUSH1 0x4 MSTORE PUSH1 0x24 PUSH1 0x0 REVERT JUMPDEST SWAP1 PUSH1 0x0 MSTORE PUSH1 0x20 PUSH1 0x0 KECCAK256 SWAP1 PUSH1 0x7 MUL ADD PUSH20 0x0 PUSH4 0xE16D50CC SWAP1 SWAP2 DUP6 PUSH1 0xF PUSH1 0x0 SWAP1 SLOAD SWAP1 PUSH2 0x100 EXP SWAP1 DIV PUSH20 0xFFFFFFFFFFFFFFFFFFFFFFFFFFFFFFFFFFFFFFFF AND PUSH1 0x40 MLOAD DUP5 PUSH4 0xFFFFFFFF AND PUSH1 0xE0 SHL DUP2 MSTORE PUSH1 0x4 ADD PUSH2 0x10BA SWAP4 SWAP3 SWAP2 SWAP1 PUSH2 0x2ECB JUMP JUMPDEST PUSH1 0x0 PUSH1 0x40 MLOAD DUP1 DUP4 SUB DUP2 DUP7 DUP1 EXTCODESIZE ISZERO DUP1 ISZERO PUSH2 0x10D2 JUMPI PUSH1 0x0 DUP1 REVERT JUMPDEST POP GAS DELEGATECALL ISZERO DUP1 ISZERO PUSH2 0x10E6 JUMPI RETURNDATASIZE PUSH1 0x0 DUP1 RETURNDATACOPY RETURNDATASIZE PUSH1 0x0 REVERT JUMPDEST POP POP POP POP DUP2 DUP2 PUSH1 0x10 DUP7 DUP2 SLOAD DUP2 LT PUSH2 0x1126 JUMPI PUSH32 0x4E487B7100000000000000000000000000000000000000000000000000000000 PUSH1 0x0 MSTORE PUSH1 0x32 PUSH1 0x4 MSTORE PUSH1 0x24 PUSH1 0x0 REVERT JUMPDEST SWAP1 PUSH1 0x0 MSTORE PUSH1 0x20 PUSH1 0x0 KECCAK256 SWAP1 PUSH1 0x7 MUL ADD PUSH1 0x5 ADD SWAP2 SWAP1 PUSH2 0x1144 SWAP3 SWAP2 SWAP1 PUSH2 0x230B JUMP JUMPDEST POP POP POP POP POP JUMP JUMPDEST PUSH1 0x60 PUSH1 0x0 PUSH1 0xC PUSH1 0x0 DUP5 PUSH20 0xFFFFFFFFFFFFFFFFFFFFFFFFFFFFFFFFFFFFFFFF AND PUSH20 0xFFFFFFFFFFFFFFFFFFFFFFFFFFFFFFFFFFFFFFFF AND DUP2 MSTORE PUSH1 0x20 ADD SWAP1 DUP2 MSTORE PUSH1 0x20 ADD PUSH1 0x0 KECCAK256 SLOAD PUSH8 0xFFFFFFFFFFFFFFFF DUP2 GT ISZERO PUSH2 0x11CE JUMPI PUSH32 0x4E487B7100000000000000000000000000000000000000000000000000000000 PUSH1 0x0 MSTORE PUSH1 0x41 PUSH1 0x4 MSTORE PUSH1 0x24 PUSH1 0x0 REVERT JUMPDEST PUSH1 0x40 MLOAD SWAP1 DUP1 DUP3 MSTORE DUP1 PUSH1 0x20 MUL PUSH1 0x20 ADD DUP3 ADD PUSH1 0x40 MSTORE DUP1 ISZERO PUSH2 0x11FC JUMPI DUP2 PUSH1 0x20 ADD PUSH1 0x20 DUP3 MUL DUP1 CALLDATASIZE DUP4 CALLDATACOPY DUP1 DUP3 ADD SWAP2 POP POP SWAP1 POP JUMPDEST POP SWAP2 POP PUSH1 0x0 JUMPDEST PUSH1 0x0 DUP1 ADD DUP1 SLOAD SWAP1 POP DUP2 LT ISZERO PUSH2 0x12E1 JUMPI DUP4 PUSH20 0xFFFFFFFFFFFFFFFFFFFFFFFFFFFFFFFFFFFFFFFF AND PUSH1 0x0 PUSH1 0x3 ADD PUSH1 0x0 DUP4 DUP2 MSTORE PUSH1 0x20 ADD SWAP1 DUP2 MSTORE PUSH1 0x20 ADD PUSH1 0x0 KECCAK256 PUSH1 0x0 SWAP1 SLOAD SWAP1 PUSH2 0x100 EXP SWAP1 DIV PUSH20 0xFFFFFFFFFFFFFFFFFFFFFFFFFFFFFFFFFFFFFFFF AND PUSH20 0xFFFFFFFFFFFFFFFFFFFFFFFFFFFFFFFFFFFFFFFF AND EQ ISZERO PUSH2 0x12CE JUMPI DUP1 DUP4 DUP4 DUP1 PUSH2 0x1288 SWAP1 PUSH2 0x322E JUMP JUMPDEST SWAP5 POP DUP2 MLOAD DUP2 LT PUSH2 0x12C1 JUMPI PUSH32 0x4E487B7100000000000000000000000000000000000000000000000000000000 PUSH1 0x0 MSTORE PUSH1 0x32 PUSH1 0x4 MSTORE PUSH1 0x24 PUSH1 0x0 REVERT JUMPDEST PUSH1 0x20 MUL PUSH1 0x20 ADD ADD DUP2 DUP2 MSTORE POP POP JUMPDEST DUP1 DUP1 PUSH2 0x12D9 SWAP1 PUSH2 0x322E JUMP JUMPDEST SWAP2 POP POP PUSH2 0x1202 JUMP JUMPDEST POP POP SWAP2 SWAP1 POP JUMP JUMPDEST PUSH1 0x0 PUSH2 0x1339 CALLER DUP6 DUP6 DUP6 DUP1 DUP1 PUSH1 0x1F ADD PUSH1 0x20 DUP1 SWAP2 DIV MUL PUSH1 0x20 ADD PUSH1 0x40 MLOAD SWAP1 DUP2 ADD PUSH1 0x40 MSTORE DUP1 SWAP4 SWAP3 SWAP2 SWAP1 DUP2 DUP2 MSTORE PUSH1 0x20 ADD DUP4 DUP4 DUP1 DUP3 DUP5 CALLDATACOPY PUSH1 0x0 DUP2 DUP5 ADD MSTORE PUSH1 0x1F NOT PUSH1 0x1F DUP3 ADD AND SWAP1 POP DUP1 DUP4 ADD SWAP3 POP POP POP POP POP POP POP PUSH2 0x1DD7 JUMP JUMPDEST SWAP1 POP SWAP4 SWAP3 POP POP POP JUMP JUMPDEST PUSH1 0x60 PUSH1 0x40 MLOAD DUP1 PUSH1 0x40 ADD PUSH1 0x40 MSTORE DUP1 PUSH1 0x6 DUP2 MSTORE PUSH1 0x20 ADD PUSH32 0x4143485353550000000000000000000000000000000000000000000000000000 DUP2 MSTORE POP SWAP1 POP SWAP1 JUMP JUMPDEST PUSH1 0xF PUSH1 0x0 SWAP1 SLOAD SWAP1 PUSH2 0x100 EXP SWAP1 DIV PUSH20 0xFFFFFFFFFFFFFFFFFFFFFFFFFFFFFFFFFFFFFFFF AND DUP2 JUMP JUMPDEST PUSH1 0x60 PUSH1 0x10 DUP3 DUP2 SLOAD DUP2 LT PUSH2 0x13E1 JUMPI PUSH32 0x4E487B7100000000000000000000000000000000000000000000000000000000 PUSH1 0x0 MSTORE PUSH1 0x32 PUSH1 0x4 MSTORE PUSH1 0x24 PUSH1 0x0 REVERT JUMPDEST SWAP1 PUSH1 0x0 MSTORE PUSH1 0x20 PUSH1 0x0 KECCAK256 SWAP1 PUSH1 0x7 MUL ADD PUSH1 0x1 ADD DUP1 SLOAD DUP1 PUSH1 0x20 MUL PUSH1 0x20 ADD PUSH1 0x40 MLOAD SWAP1 DUP2 ADD PUSH1 0x40 MSTORE DUP1 SWAP3 SWAP2 SWAP1 DUP2 DUP2 MSTORE PUSH1 0x20 ADD DUP3 DUP1 SLOAD DUP1 ISZERO PUSH2 0x143C JUMPI PUSH1 0x20 MUL DUP3 ADD SWAP2 SWAP1 PUSH1 0x0 MSTORE PUSH1 0x20 PUSH1 0x0 KECCAK256 SWAP1 JUMPDEST DUP2 SLOAD DUP2 MSTORE PUSH1 0x20 ADD SWAP1 PUSH1 0x1 ADD SWAP1 DUP1 DUP4 GT PUSH2 0x1428 JUMPI JUMPDEST POP POP POP POP POP SWAP1 POP SWAP2 SWAP1 POP JUMP JUMPDEST CALLER DUP3 DUP3 PUSH2 0x1454 DUP2 PUSH2 0xF2C JUMP JUMPDEST PUSH20 0xFFFFFFFFFFFFFFFFFFFFFFFFFFFFFFFFFFFFFFFF AND DUP4 PUSH20 0xFFFFFFFFFFFFFFFFFFFFFFFFFFFFFFFFFFFFFFFF AND EQ PUSH2 0x14C1 JUMPI PUSH1 0x40 MLOAD PUSH32 0x8C379A000000000000000000000000000000000000000000000000000000000 DUP2 MSTORE PUSH1 0x4 ADD PUSH2 0x14B8 SWAP1 PUSH2 0x2E8B JUMP JUMPDEST PUSH1 0x40 MLOAD DUP1 SWAP2 SUB SWAP1 REVERT JUMPDEST DUP2 PUSH20 0xFFFFFFFFFFFFFFFFFFFFFFFFFFFFFFFFFFFFFFFF AND DUP4 PUSH20 0xFFFFFFFFFFFFFFFFFFFFFFFFFFFFFFFFFFFFFFFF AND EQ ISZERO PUSH2 0x1530 JUMPI PUSH1 0x40 MLOAD PUSH32 0x8C379A000000000000000000000000000000000000000000000000000000000 DUP2 MSTORE PUSH1 0x4 ADD PUSH2 0x1527 SWAP1 PUSH2 0x2E0B JUMP JUMPDEST PUSH1 0x40 MLOAD DUP1 SWAP2 SUB SWAP1 REVERT JUMPDEST PUSH1 0x3 PUSH1 0x4 DUP2 GT ISZERO PUSH2 0x156A JUMPI PUSH32 0x4E487B7100000000000000000000000000000000000000000000000000000000 PUSH1 0x0 MSTORE PUSH1 0x21 PUSH1 0x4 MSTORE PUSH1 0x24 PUSH1 0x0 REVERT JUMPDEST PUSH1 0x0 PUSH1 0x2 ADD PUSH1 0x0 DUP4 DUP2 MSTORE PUSH1 0x20 ADD SWAP1 DUP2 MSTORE PUSH1 0x20 ADD PUSH1 0x0 KECCAK256 PUSH1 0x0 SWAP1 SLOAD SWAP1 PUSH2 0x100 EXP SWAP1 DIV PUSH1 0xFF AND PUSH1 0x4 DUP2 GT ISZERO PUSH2 0x15C6 JUMPI PUSH32 0x4E487B7100000000000000000000000000000000000000000000000000000000 PUSH1 0x0 MSTORE PUSH1 0x21 PUSH1 0x4 MSTORE PUSH1 0x24 PUSH1 0x0 REVERT JUMPDEST EQ PUSH2 0x1606 JUMPI PUSH1 0x40 MLOAD PUSH32 0x8C379A000000000000000000000000000000000000000000000000000000000 DUP2 MSTORE PUSH1 0x4 ADD PUSH2 0x15FD SWAP1 PUSH2 0x2EAB JUMP JUMPDEST PUSH1 0x40 MLOAD DUP1 SWAP2 SUB SWAP1 REVERT JUMPDEST PUSH1 0x0 PUSH20 0xFFFFFFFFFFFFFFFFFFFFFFFFFFFFFFFFFFFFFFFF AND DUP3 PUSH20 0xFFFFFFFFFFFFFFFFFFFFFFFFFFFFFFFFFFFFFFFF AND EQ ISZERO PUSH2 0x1676 JUMPI PUSH1 0x40 MLOAD PUSH32 0x8C379A000000000000000000000000000000000000000000000000000000000 DUP2 MSTORE PUSH1 0x4 ADD PUSH2 0x166D SWAP1 PUSH2 0x2E4B JUMP JUMPDEST PUSH1 0x40 MLOAD DUP1 SWAP2 SUB SWAP1 REVERT JUMPDEST PUSH2 0x1681 CALLER DUP7 DUP7 PUSH2 0x1B8F JUMP JUMPDEST POP POP POP POP POP JUMP JUMPDEST PUSH1 0x0 CALLER PUSH20 0xFFFFFFFFFFFFFFFFFFFFFFFFFFFFFFFFFFFFFFFF AND PUSH1 0x10 DUP4 DUP2 SLOAD DUP2 LT PUSH2 0x16DB JUMPI PUSH32 0x4E487B7100000000000000000000000000000000000000000000000000000000 PUSH1 0x0 MSTORE PUSH1 0x32 PUSH1 0x4 MSTORE PUSH1 0x24 PUSH1 0x0 REVERT JUMPDEST SWAP1 PUSH1 0x0 MSTORE PUSH1 0x20 PUSH1 0x0 KECCAK256 SWAP1 PUSH1 0x7 MUL ADD PUSH1 0x3 ADD PUSH1 0x0 SWAP1 SLOAD SWAP1 PUSH2 0x100 EXP SWAP1 DIV PUSH20 0xFFFFFFFFFFFFFFFFFFFFFFFFFFFFFFFFFFFFFFFF AND PUSH20 0xFFFFFFFFFFFFFFFFFFFFFFFFFFFFFFFFFFFFFFFF AND EQ PUSH2 0x1763 JUMPI PUSH1 0x40 MLOAD PUSH32 0x8C379A000000000000000000000000000000000000000000000000000000000 DUP2 MSTORE PUSH1 0x4 ADD PUSH2 0x175A SWAP1 PUSH2 0x2DEB JUMP JUMPDEST PUSH1 0x40 MLOAD DUP1 SWAP2 SUB SWAP1 REVERT JUMPDEST TIMESTAMP PUSH1 0x10 DUP4 DUP2 SLOAD DUP2 LT PUSH2 0x179E JUMPI PUSH32 0x4E487B7100000000000000000000000000000000000000000000000000000000 PUSH1 0x0 MSTORE PUSH1 0x32 PUSH1 0x4 MSTORE PUSH1 0x24 PUSH1 0x0 REVERT JUMPDEST SWAP1 PUSH1 0x0 MSTORE PUSH1 0x20 PUSH1 0x0 KECCAK256 SWAP1 PUSH1 0x7 MUL ADD PUSH1 0x6 ADD SLOAD GT PUSH2 0x17F0 JUMPI PUSH1 0x40 MLOAD PUSH32 0x8C379A000000000000000000000000000000000000000000000000000000000 DUP2 MSTORE PUSH1 0x4 ADD PUSH2 0x17E7 SWAP1 PUSH2 0x2DCB JUMP JUMPDEST PUSH1 0x40 MLOAD DUP1 SWAP2 SUB SWAP1 REVERT JUMPDEST PUSH1 0xF PUSH1 0x0 SWAP1 SLOAD SWAP1 PUSH2 0x100 EXP SWAP1 DIV PUSH20 0xFFFFFFFFFFFFFFFFFFFFFFFFFFFFFFFFFFFFFFFF AND PUSH20 0xFFFFFFFFFFFFFFFFFFFFFFFFFFFFFFFFFFFFFFFF AND PUSH4 0x535B6773 PUSH1 0x10 DUP5 DUP2 SLOAD DUP2 LT PUSH2 0x1868 JUMPI PUSH32 0x4E487B7100000000000000000000000000000000000000000000000000000000 PUSH1 0x0 MSTORE PUSH1 0x32 PUSH1 0x4 MSTORE PUSH1 0x24 PUSH1 0x0 REVERT JUMPDEST SWAP1 PUSH1 0x0 MSTORE PUSH1 0x20 PUSH1 0x0 KECCAK256 SWAP1 PUSH1 0x7 MUL ADD PUSH1 0x2 ADD PUSH1 0x0 SWAP1 SLOAD SWAP1 PUSH2 0x100 EXP SWAP1 DIV PUSH20 0xFFFFFFFFFFFFFFFFFFFFFFFFFFFFFFFFFFFFFFFF AND PUSH1 0x10 DUP6 DUP2 SLOAD DUP2 LT PUSH2 0x18D4 JUMPI PUSH32 0x4E487B7100000000000000000000000000000000000000000000000000000000 PUSH1 0x0 MSTORE PUSH1 0x32 PUSH1 0x4 MSTORE PUSH1 0x24 PUSH1 0x0 REVERT JUMPDEST SWAP1 PUSH1 0x0 MSTORE PUSH1 0x20 PUSH1 0x0 KECCAK256 SWAP1 PUSH1 0x7 MUL ADD PUSH1 0x0 ADD SLOAD PUSH1 0x40 MLOAD DUP4 PUSH4 0xFFFFFFFF AND PUSH1 0xE0 SHL DUP2 MSTORE PUSH1 0x4 ADD PUSH2 0x1903 SWAP3 SWAP2 SWAP1 PUSH2 0x2C9B JUMP JUMPDEST PUSH1 0x20 PUSH1 0x40 MLOAD DUP1 DUP4 SUB DUP2 PUSH1 0x0 DUP8 DUP1 EXTCODESIZE ISZERO DUP1 ISZERO PUSH2 0x191D JUMPI PUSH1 0x0 DUP1 REVERT JUMPDEST POP GAS CALL ISZERO DUP1 ISZERO PUSH2 0x1931 JUMPI RETURNDATASIZE PUSH1 0x0 DUP1 RETURNDATACOPY RETURNDATASIZE PUSH1 0x0 REVERT JUMPDEST POP POP POP POP PUSH1 0x40 MLOAD RETURNDATASIZE PUSH1 0x1F NOT PUSH1 0x1F DUP3 ADD AND DUP3 ADD DUP1 PUSH1 0x40 MSTORE POP DUP2 ADD SWAP1 PUSH2 0x1955 SWAP2 SWAP1 PUSH2 0x267B JUMP JUMPDEST POP PUSH1 0x1 SWAP1 POP SWAP2 SWAP1 POP JUMP JUMPDEST PUSH1 0x0 PUSH1 0x10 DUP1 SLOAD SWAP1 POP SWAP1 POP SWAP1 JUMP JUMPDEST PUSH1 0xE PUSH1 0x0 SWAP1 SLOAD SWAP1 PUSH2 0x100 EXP SWAP1 DIV PUSH20 0xFFFFFFFFFFFFFFFFFFFFFFFFFFFFFFFFFFFFFFFF AND DUP2 JUMP JUMPDEST PUSH2 0x199A PUSH2 0x2391 JUMP JUMPDEST PUSH1 0x0 DUP1 ADD DUP3 DUP2 SLOAD DUP2 LT PUSH2 0x19D6 JUMPI PUSH32 0x4E487B7100000000000000000000000000000000000000000000000000000000 PUSH1 0x0 MSTORE PUSH1 0x32 PUSH1 0x4 MSTORE PUSH1 0x24 PUSH1 0x0 REVERT JUMPDEST SWAP1 PUSH1 0x0 MSTORE PUSH1 0x20 PUSH1 0x0 KECCAK256 SWAP1 PUSH1 0x2 MUL ADD PUSH1 0x40 MLOAD DUP1 PUSH1 0xC0 ADD PUSH1 0x40 MSTORE SWAP1 DUP2 PUSH1 0x0 DUP3 ADD PUSH1 0x0 SWAP1 SLOAD SWAP1 PUSH2 0x100 EXP SWAP1 DIV PUSH2 0xFFFF AND PUSH2 0xFFFF AND PUSH2 0xFFFF AND DUP2 MSTORE PUSH1 0x20 ADD PUSH1 0x0 DUP3 ADD PUSH1 0x2 SWAP1 SLOAD SWAP1 PUSH2 0x100 EXP SWAP1 DIV PUSH2 0xFFFF AND PUSH2 0xFFFF AND PUSH2 0xFFFF AND DUP2 MSTORE PUSH1 0x20 ADD PUSH1 0x0 DUP3 ADD PUSH1 0x4 SWAP1 SLOAD SWAP1 PUSH2 0x100 EXP SWAP1 DIV PUSH2 0xFFFF AND PUSH2 0xFFFF AND PUSH2 0xFFFF AND DUP2 MSTORE PUSH1 0x20 ADD PUSH1 0x0 DUP3 ADD PUSH1 0x6 SWAP1 SLOAD SWAP1 PUSH2 0x100 EXP SWAP1 DIV PUSH2 0xFFFF AND PUSH2 0xFFFF AND PUSH2 0xFFFF AND DUP2 MSTORE PUSH1 0x20 ADD PUSH1 0x0 DUP3 ADD PUSH1 0x8 SWAP1 SLOAD SWAP1 PUSH2 0x100 EXP SWAP1 DIV PUSH1 0xFF AND PUSH1 0x2 DUP2 GT ISZERO PUSH2 0x1ABA JUMPI PUSH32 0x4E487B7100000000000000000000000000000000000000000000000000000000 PUSH1 0x0 MSTORE PUSH1 0x21 PUSH1 0x4 MSTORE PUSH1 0x24 PUSH1 0x0 REVERT JUMPDEST PUSH1 0x2 DUP2 GT ISZERO PUSH2 0x1AF2 JUMPI PUSH32 0x4E487B7100000000000000000000000000000000000000000000000000000000 PUSH1 0x0 MSTORE PUSH1 0x21 PUSH1 0x4 MSTORE PUSH1 0x24 PUSH1 0x0 REVERT JUMPDEST DUP2 MSTORE PUSH1 0x20 ADD PUSH1 0x1 DUP3 ADD DUP1 SLOAD PUSH2 0x1B06 SWAP1 PUSH2 0x31FC JUMP JUMPDEST DUP1 PUSH1 0x1F ADD PUSH1 0x20 DUP1 SWAP2 DIV MUL PUSH1 0x20 ADD PUSH1 0x40 MLOAD SWAP1 DUP2 ADD PUSH1 0x40 MSTORE DUP1 SWAP3 SWAP2 SWAP1 DUP2 DUP2 MSTORE PUSH1 0x20 ADD DUP3 DUP1 SLOAD PUSH2 0x1B32 SWAP1 PUSH2 0x31FC JUMP JUMPDEST DUP1 ISZERO PUSH2 0x1B7F JUMPI DUP1 PUSH1 0x1F LT PUSH2 0x1B54 JUMPI PUSH2 0x100 DUP1 DUP4 SLOAD DIV MUL DUP4 MSTORE SWAP2 PUSH1 0x20 ADD SWAP2 PUSH2 0x1B7F JUMP JUMPDEST DUP3 ADD SWAP2 SWAP1 PUSH1 0x0 MSTORE PUSH1 0x20 PUSH1 0x0 KECCAK256 SWAP1 JUMPDEST DUP2 SLOAD DUP2 MSTORE SWAP1 PUSH1 0x1 ADD SWAP1 PUSH1 0x20 ADD DUP1 DUP4 GT PUSH2 0x1B62 JUMPI DUP3 SWAP1 SUB PUSH1 0x1F AND DUP3 ADD SWAP2 JUMPDEST POP POP POP POP POP DUP2 MSTORE POP POP SWAP1 POP SWAP2 SWAP1 POP JUMP JUMPDEST PUSH1 0x3 PUSH1 0x4 DUP2 GT ISZERO PUSH2 0x1BC9 JUMPI PUSH32 0x4E487B7100000000000000000000000000000000000000000000000000000000 PUSH1 0x0 MSTORE PUSH1 0x21 PUSH1 0x4 MSTORE PUSH1 0x24 PUSH1 0x0 REVERT JUMPDEST PUSH1 0x0 PUSH1 0x2 ADD PUSH1 0x0 DUP4 DUP2 MSTORE PUSH1 0x20 ADD SWAP1 DUP2 MSTORE PUSH1 0x20 ADD PUSH1 0x0 KECCAK256 PUSH1 0x0 SWAP1 SLOAD SWAP1 PUSH2 0x100 EXP SWAP1 DIV PUSH1 0xFF AND PUSH1 0x4 DUP2 GT ISZERO PUSH2 0x1C25 JUMPI PUSH32 0x4E487B7100000000000000000000000000000000000000000000000000000000 PUSH1 0x0 MSTORE PUSH1 0x21 PUSH1 0x4 MSTORE PUSH1 0x24 PUSH1 0x0 REVERT JUMPDEST EQ PUSH2 0x1C65 JUMPI PUSH1 0x40 MLOAD PUSH32 0x8C379A000000000000000000000000000000000000000000000000000000000 DUP2 MSTORE PUSH1 0x4 ADD PUSH2 0x1C5C SWAP1 PUSH2 0x2E2B JUMP JUMPDEST PUSH1 0x40 MLOAD DUP1 SWAP2 SUB SWAP1 REVERT JUMPDEST DUP3 PUSH20 0xFFFFFFFFFFFFFFFFFFFFFFFFFFFFFFFFFFFFFFFF AND PUSH1 0x0 PUSH1 0x3 ADD PUSH1 0x0 DUP4 DUP2 MSTORE PUSH1 0x20 ADD SWAP1 DUP2 MSTORE PUSH1 0x20 ADD PUSH1 0x0 KECCAK256 PUSH1 0x0 SWAP1 SLOAD SWAP1 PUSH2 0x100 EXP SWAP1 DIV PUSH20 0xFFFFFFFFFFFFFFFFFFFFFFFFFFFFFFFFFFFFFFFF AND PUSH20 0xFFFFFFFFFFFFFFFFFFFFFFFFFFFFFFFFFFFFFFFF AND EQ PUSH2 0x1D09 JUMPI PUSH1 0x40 MLOAD PUSH32 0x8C379A000000000000000000000000000000000000000000000000000000000 DUP2 MSTORE PUSH1 0x4 ADD PUSH2 0x1D00 SWAP1 PUSH2 0x2E2B JUMP JUMPDEST PUSH1 0x40 MLOAD DUP1 SWAP2 SUB SWAP1 REVERT JUMPDEST DUP2 PUSH1 0x0 PUSH1 0x3 ADD PUSH1 0x0 DUP4 DUP2 MSTORE PUSH1 0x20 ADD SWAP1 DUP2 MSTORE PUSH1 0x20 ADD PUSH1 0x0 KECCAK256 PUSH1 0x0 PUSH2 0x100 EXP DUP2 SLOAD DUP2 PUSH20 0xFFFFFFFFFFFFFFFFFFFFFFFFFFFFFFFFFFFFFFFF MUL NOT AND SWAP1 DUP4 PUSH20 0xFFFFFFFFFFFFFFFFFFFFFFFFFFFFFFFFFFFFFFFF AND MUL OR SWAP1 SSTORE POP PUSH1 0x0 PUSH1 0x4 ADD PUSH1 0x0 DUP3 DUP2 MSTORE PUSH1 0x20 ADD SWAP1 DUP2 MSTORE PUSH1 0x20 ADD PUSH1 0x0 KECCAK256 PUSH1 0x0 PUSH2 0x100 EXP DUP2 SLOAD SWAP1 PUSH20 0xFFFFFFFFFFFFFFFFFFFFFFFFFFFFFFFFFFFFFFFF MUL NOT AND SWAP1 SSTORE PUSH32 0xDDF252AD1BE2C89B69C2B068FC378DAA952BA7F163C4A11628F55A4DF523B3EF DUP4 DUP4 DUP4 PUSH1 0x40 MLOAD PUSH2 0x1DCA SWAP4 SWAP3 SWAP2 SWAP1 PUSH2 0x2C64 JUMP JUMPDEST PUSH1 0x40 MLOAD DUP1 SWAP2 SUB SWAP1 LOG1 POP POP POP JUMP JUMPDEST PUSH1 0x0 DUP1 DUP4 PUSH1 0x2 DUP2 GT ISZERO PUSH2 0x1E13 JUMPI PUSH32 0x4E487B7100000000000000000000000000000000000000000000000000000000 PUSH1 0x0 MSTORE PUSH1 0x21 PUSH1 0x4 MSTORE PUSH1 0x24 PUSH1 0x0 REVERT JUMPDEST PUSH20 0x0 PUSH4 0xB9BF30A5 SWAP1 SWAP2 PUSH1 0x40 MLOAD DUP3 PUSH4 0xFFFFFFFF AND PUSH1 0xE0 SHL DUP2 MSTORE PUSH1 0x4 ADD PUSH2 0x1E4B SWAP2 SWAP1 PUSH2 0x2D8E JUMP JUMPDEST PUSH1 0x20 PUSH1 0x40 MLOAD DUP1 DUP4 SUB DUP2 DUP7 DUP1 EXTCODESIZE ISZERO DUP1 ISZERO PUSH2 0x1E63 JUMPI PUSH1 0x0 DUP1 REVERT JUMPDEST POP GAS DELEGATECALL ISZERO DUP1 ISZERO PUSH2 0x1E77 JUMPI RETURNDATASIZE PUSH1 0x0 DUP1 RETURNDATACOPY RETURNDATASIZE PUSH1 0x0 REVERT JUMPDEST POP POP POP POP PUSH1 0x40 MLOAD RETURNDATASIZE PUSH1 0x1F NOT PUSH1 0x1F DUP3 ADD AND DUP3 ADD DUP1 PUSH1 0x40 MSTORE POP DUP2 ADD SWAP1 PUSH2 0x1E9B SWAP2 SWAP1 PUSH2 0x2777 JUMP JUMPDEST SWAP1 POP PUSH1 0xF PUSH1 0x0 SWAP1 SLOAD SWAP1 PUSH2 0x100 EXP SWAP1 DIV PUSH20 0xFFFFFFFFFFFFFFFFFFFFFFFFFFFFFFFFFFFFFFFF AND PUSH20 0xFFFFFFFFFFFFFFFFFFFFFFFFFFFFFFFFFFFFFFFF AND PUSH4 0xAF7D6CA3 DUP7 DUP4 PUSH1 0x40 MLOAD DUP4 PUSH4 0xFFFFFFFF AND PUSH1 0xE0 SHL DUP2 MSTORE PUSH1 0x4 ADD PUSH2 0x1EFA SWAP3 SWAP2 SWAP1 PUSH2 0x2C9B JUMP JUMPDEST PUSH1 0x20 PUSH1 0x40 MLOAD DUP1 DUP4 SUB DUP2 PUSH1 0x0 DUP8 DUP1 EXTCODESIZE ISZERO DUP1 ISZERO PUSH2 0x1F14 JUMPI PUSH1 0x0 DUP1 REVERT JUMPDEST POP GAS CALL ISZERO DUP1 ISZERO PUSH2 0x1F28 JUMPI RETURNDATASIZE PUSH1 0x0 DUP1 RETURNDATACOPY RETURNDATASIZE PUSH1 0x0 REVERT JUMPDEST POP POP POP POP PUSH1 0x40 MLOAD RETURNDATASIZE PUSH1 0x1F NOT PUSH1 0x1F DUP3 ADD AND DUP3 ADD DUP1 PUSH1 0x40 MSTORE POP DUP2 ADD SWAP1 PUSH2 0x1F4C SWAP2 SWAP1 PUSH2 0x267B JUMP JUMPDEST POP PUSH20 0x0 PUSH4 0xB64A97BA PUSH1 0x0 DUP7 DUP7 PUSH1 0x40 MLOAD DUP5 PUSH4 0xFFFFFFFF AND PUSH1 0xE0 SHL DUP2 MSTORE PUSH1 0x4 ADD PUSH2 0x1F89 SWAP4 SWAP3 SWAP2 SWAP1 PUSH2 0x2F02 JUMP JUMPDEST PUSH1 0x20 PUSH1 0x40 MLOAD DUP1 DUP4 SUB DUP2 DUP7 DUP1 EXTCODESIZE ISZERO DUP1 ISZERO PUSH2 0x1FA1 JUMPI PUSH1 0x0 DUP1 REVERT JUMPDEST POP GAS DELEGATECALL ISZERO DUP1 ISZERO PUSH2 0x1FB5 JUMPI RETURNDATASIZE PUSH1 0x0 DUP1 RETURNDATACOPY RETURNDATASIZE PUSH1 0x0 REVERT JUMPDEST POP POP POP POP PUSH1 0x40 MLOAD RETURNDATASIZE PUSH1 0x1F NOT PUSH1 0x1F DUP3 ADD AND DUP3 ADD DUP1 PUSH1 0x40 MSTORE POP DUP2 ADD SWAP1 PUSH2 0x1FD9 SWAP2 SWAP1 PUSH2 0x2777 JUMP JUMPDEST SWAP2 POP DUP2 PUSH32 0xB89BE3B4BDC4059B3E8638AC07EF31FB78418648FFA34EACCB60B1C60F318D29 DUP7 PUSH1 0x40 MLOAD PUSH2 0x200B SWAP2 SWAP1 PUSH2 0x2C49 JUMP JUMPDEST PUSH1 0x40 MLOAD DUP1 SWAP2 SUB SWAP1 LOG2 DUP5 PUSH1 0x0 PUSH1 0x3 ADD PUSH1 0x0 DUP5 DUP2 MSTORE PUSH1 0x20 ADD SWAP1 DUP2 MSTORE PUSH1 0x20 ADD PUSH1 0x0 KECCAK256 PUSH1 0x0 PUSH2 0x100 EXP DUP2 SLOAD DUP2 PUSH20 0xFFFFFFFFFFFFFFFFFFFFFFFFFFFFFFFFFFFFFFFF MUL NOT AND SWAP1 DUP4 PUSH20 0xFFFFFFFFFFFFFFFFFFFFFFFFFFFFFFFFFFFFFFFF AND MUL OR SWAP1 SSTORE POP PUSH1 0x1 PUSH1 0xC PUSH1 0x0 DUP8 PUSH20 0xFFFFFFFFFFFFFFFFFFFFFFFFFFFFFFFFFFFFFFFF AND PUSH20 0xFFFFFFFFFFFFFFFFFFFFFFFFFFFFFFFFFFFFFFFF AND DUP2 MSTORE PUSH1 0x20 ADD SWAP1 DUP2 MSTORE PUSH1 0x20 ADD PUSH1 0x0 KECCAK256 PUSH1 0x0 DUP3 DUP3 SLOAD PUSH2 0x20B8 SWAP2 SWAP1 PUSH2 0x3074 JUMP JUMPDEST SWAP3 POP POP DUP2 SWAP1 SSTORE POP POP SWAP4 SWAP3 POP POP POP JUMP JUMPDEST PUSH2 0x20D0 DUP2 PUSH2 0xF2C JUMP JUMPDEST PUSH20 0xFFFFFFFFFFFFFFFFFFFFFFFFFFFFFFFFFFFFFFFF AND DUP3 PUSH20 0xFFFFFFFFFFFFFFFFFFFFFFFFFFFFFFFFFFFFFFFF AND EQ PUSH2 0x213D JUMPI PUSH1 0x40 MLOAD PUSH32 0x8C379A000000000000000000000000000000000000000000000000000000000 DUP2 MSTORE PUSH1 0x4 ADD PUSH2 0x2134 SWAP1 PUSH2 0x2E8B JUMP JUMPDEST PUSH1 0x40 MLOAD DUP1 SWAP2 SUB SWAP1 REVERT JUMPDEST PUSH1 0x3 PUSH1 0x4 DUP2 GT ISZERO PUSH2 0x2177 JUMPI PUSH32 0x4E487B7100000000000000000000000000000000000000000000000000000000 PUSH1 0x0 MSTORE PUSH1 0x21 PUSH1 0x4 MSTORE PUSH1 0x24 PUSH1 0x0 REVERT JUMPDEST PUSH1 0x0 PUSH1 0x2 ADD PUSH1 0x0 DUP4 DUP2 MSTORE PUSH1 0x20 ADD SWAP1 DUP2 MSTORE PUSH1 0x20 ADD PUSH1 0x0 KECCAK256 PUSH1 0x0 SWAP1 SLOAD SWAP1 PUSH2 0x100 EXP SWAP1 DIV PUSH1 0xFF AND PUSH1 0x4 DUP2 GT ISZERO PUSH2 0x21D3 JUMPI PUSH32 0x4E487B7100000000000000000000000000000000000000000000000000000000 PUSH1 0x0 MSTORE PUSH1 0x21 PUSH1 0x4 MSTORE PUSH1 0x24 PUSH1 0x0 REVERT JUMPDEST EQ PUSH2 0x2213 JUMPI PUSH1 0x40 MLOAD PUSH32 0x8C379A000000000000000000000000000000000000000000000000000000000 DUP2 MSTORE PUSH1 0x4 ADD PUSH2 0x220A SWAP1 PUSH2 0x2EAB JUMP JUMPDEST PUSH1 0x40 MLOAD DUP1 SWAP2 SUB SWAP1 REVERT JUMPDEST PUSH1 0x0 PUSH20 0xFFFFFFFFFFFFFFFFFFFFFFFFFFFFFFFFFFFFFFFF AND DUP3 PUSH20 0xFFFFFFFFFFFFFFFFFFFFFFFFFFFFFFFFFFFFFFFF AND EQ ISZERO PUSH2 0x224D JUMPI PUSH1 0x0 DUP1 REVERT JUMPDEST DUP2 PUSH1 0x0 PUSH1 0x4 ADD PUSH1 0x0 DUP4 DUP2 MSTORE PUSH1 0x20 ADD SWAP1 DUP2 MSTORE PUSH1 0x20 ADD PUSH1 0x0 KECCAK256 PUSH1 0x0 PUSH2 0x100 EXP DUP2 SLOAD DUP2 PUSH20 0xFFFFFFFFFFFFFFFFFFFFFFFFFFFFFFFFFFFFFFFF MUL NOT AND SWAP1 DUP4 PUSH20 0xFFFFFFFFFFFFFFFFFFFFFFFFFFFFFFFFFFFFFFFF AND MUL OR SWAP1 SSTORE POP PUSH1 0x2 PUSH1 0x0 PUSH1 0x2 ADD PUSH1 0x0 DUP4 DUP2 MSTORE PUSH1 0x20 ADD SWAP1 DUP2 MSTORE PUSH1 0x20 ADD PUSH1 0x0 KECCAK256 PUSH1 0x0 PUSH2 0x100 EXP DUP2 SLOAD DUP2 PUSH1 0xFF MUL NOT AND SWAP1 DUP4 PUSH1 0x4 DUP2 GT ISZERO PUSH2 0x2302 JUMPI PUSH32 0x4E487B7100000000000000000000000000000000000000000000000000000000 PUSH1 0x0 MSTORE PUSH1 0x21 PUSH1 0x4 MSTORE PUSH1 0x24 PUSH1 0x0 REVERT JUMPDEST MUL OR SWAP1 SSTORE POP POP POP JUMP JUMPDEST DUP3 DUP1 SLOAD PUSH2 0x2317 SWAP1 PUSH2 0x31FC JUMP JUMPDEST SWAP1 PUSH1 0x0 MSTORE PUSH1 0x20 PUSH1 0x0 KECCAK256 SWAP1 PUSH1 0x1F ADD PUSH1 0x20 SWAP1 DIV DUP2 ADD SWAP3 DUP3 PUSH2 0x2339 JUMPI PUSH1 0x0 DUP6 SSTORE PUSH2 0x2380 JUMP JUMPDEST DUP3 PUSH1 0x1F LT PUSH2 0x2352 JUMPI DUP1 CALLDATALOAD PUSH1 0xFF NOT AND DUP4 DUP1 ADD OR DUP6 SSTORE PUSH2 0x2380 JUMP JUMPDEST DUP3 DUP1 ADD PUSH1 0x1 ADD DUP6 SSTORE DUP3 ISZERO PUSH2 0x2380 JUMPI SWAP2 DUP3 ADD JUMPDEST DUP3 DUP2 GT ISZERO PUSH2 0x237F JUMPI DUP3 CALLDATALOAD DUP3 SSTORE SWAP2 PUSH1 0x20 ADD SWAP2 SWAP1 PUSH1 0x1 ADD SWAP1 PUSH2 0x2364 JUMP JUMPDEST JUMPDEST POP SWAP1 POP PUSH2 0x238D SWAP2 SWAP1 PUSH2 0x240F JUMP JUMPDEST POP SWAP1 JUMP JUMPDEST PUSH1 0x40 MLOAD DUP1 PUSH1 0xC0 ADD PUSH1 0x40 MSTORE DUP1 PUSH1 0x0 PUSH2 0xFFFF AND DUP2 MSTORE PUSH1 0x20 ADD PUSH1 0x0 PUSH2 0xFFFF AND DUP2 MSTORE PUSH1 0x20 ADD PUSH1 0x0 PUSH2 0xFFFF AND DUP2 MSTORE PUSH1 0x20 ADD PUSH1 0x0 PUSH2 0xFFFF AND DUP2 MSTORE PUSH1 0x20 ADD PUSH1 0x0 PUSH1 0x2 DUP2 GT ISZERO PUSH2 0x2402 JUMPI PUSH32 0x4E487B7100000000000000000000000000000000000000000000000000000000 PUSH1 0x0 MSTORE PUSH1 0x21 PUSH1 0x4 MSTORE PUSH1 0x24 PUSH1 0x0 REVERT JUMPDEST DUP2 MSTORE PUSH1 0x20 ADD PUSH1 0x60 DUP2 MSTORE POP SWAP1 JUMP JUMPDEST JUMPDEST DUP1 DUP3 GT ISZERO PUSH2 0x2428 JUMPI PUSH1 0x0 DUP2 PUSH1 0x0 SWAP1 SSTORE POP PUSH1 0x1 ADD PUSH2 0x2410 JUMP JUMPDEST POP SWAP1 JUMP JUMPDEST PUSH1 0x0 DUP2 CALLDATALOAD SWAP1 POP PUSH2 0x243B DUP2 PUSH2 0x34F7 JUMP JUMPDEST SWAP3 SWAP2 POP POP JUMP JUMPDEST PUSH1 0x0 DUP1 DUP4 PUSH1 0x1F DUP5 ADD SLT PUSH2 0x2453 JUMPI PUSH1 0x0 DUP1 REVERT JUMPDEST DUP3 CALLDATALOAD SWAP1 POP PUSH8 0xFFFFFFFFFFFFFFFF DUP2 GT ISZERO PUSH2 0x246C JUMPI PUSH1 0x0 DUP1 REVERT JUMPDEST PUSH1 0x20 DUP4 ADD SWAP2 POP DUP4 PUSH1 0x20 DUP3 MUL DUP4 ADD GT ISZERO PUSH2 0x2484 JUMPI PUSH1 0x0 DUP1 REVERT JUMPDEST SWAP3 POP SWAP3 SWAP1 POP JUMP JUMPDEST PUSH1 0x0 DUP2 MLOAD SWAP1 POP PUSH2 0x249A DUP2 PUSH2 0x350E JUMP JUMPDEST SWAP3 SWAP2 POP POP JUMP JUMPDEST PUSH1 0x0 DUP2 CALLDATALOAD SWAP1 POP PUSH2 0x24AF DUP2 PUSH2 0x3525 JUMP JUMPDEST SWAP3 SWAP2 POP POP JUMP JUMPDEST PUSH1 0x0 DUP2 CALLDATALOAD SWAP1 POP PUSH2 0x24C4 DUP2 PUSH2 0x353C JUMP JUMPDEST SWAP3 SWAP2 POP POP JUMP JUMPDEST PUSH1 0x0 DUP1 DUP4 PUSH1 0x1F DUP5 ADD SLT PUSH2 0x24DC JUMPI PUSH1 0x0 DUP1 REVERT JUMPDEST DUP3 CALLDATALOAD SWAP1 POP PUSH8 0xFFFFFFFFFFFFFFFF DUP2 GT ISZERO PUSH2 0x24F5 JUMPI PUSH1 0x0 DUP1 REVERT JUMPDEST PUSH1 0x20 DUP4 ADD SWAP2 POP DUP4 PUSH1 0x1 DUP3 MUL DUP4 ADD GT ISZERO PUSH2 0x250D JUMPI PUSH1 0x0 DUP1 REVERT JUMPDEST SWAP3 POP SWAP3 SWAP1 POP JUMP JUMPDEST PUSH1 0x0 DUP2 CALLDATALOAD SWAP1 POP PUSH2 0x2523 DUP2 PUSH2 0x354C JUMP JUMPDEST SWAP3 SWAP2 POP POP JUMP JUMPDEST PUSH1 0x0 DUP2 MLOAD SWAP1 POP PUSH2 0x2538 DUP2 PUSH2 0x354C JUMP JUMPDEST SWAP3 SWAP2 POP POP JUMP JUMPDEST PUSH1 0x0 PUSH1 0x20 DUP3 DUP5 SUB SLT ISZERO PUSH2 0x2550 JUMPI PUSH1 0x0 DUP1 REVERT JUMPDEST PUSH1 0x0 PUSH2 0x255E DUP5 DUP3 DUP6 ADD PUSH2 0x242C JUMP JUMPDEST SWAP2 POP POP SWAP3 SWAP2 POP POP JUMP JUMPDEST PUSH1 0x0 DUP1 PUSH1 0x0 PUSH1 0x60 DUP5 DUP7 SUB SLT ISZERO PUSH2 0x257C JUMPI PUSH1 0x0 DUP1 REVERT JUMPDEST PUSH1 0x0 PUSH2 0x258A DUP7 DUP3 DUP8 ADD PUSH2 0x242C JUMP JUMPDEST SWAP4 POP POP PUSH1 0x20 PUSH2 0x259B DUP7 DUP3 DUP8 ADD PUSH2 0x242C JUMP JUMPDEST SWAP3 POP POP PUSH1 0x40 PUSH2 0x25AC DUP7 DUP3 DUP8 ADD PUSH2 0x2514 JUMP JUMPDEST SWAP2 POP POP SWAP3 POP SWAP3 POP SWAP3 JUMP JUMPDEST PUSH1 0x0 DUP1 PUSH1 0x40 DUP4 DUP6 SUB SLT ISZERO PUSH2 0x25C9 JUMPI PUSH1 0x0 DUP1 REVERT JUMPDEST PUSH1 0x0 PUSH2 0x25D7 DUP6 DUP3 DUP7 ADD PUSH2 0x242C JUMP JUMPDEST SWAP3 POP POP PUSH1 0x20 PUSH2 0x25E8 DUP6 DUP3 DUP7 ADD PUSH2 0x2514 JUMP JUMPDEST SWAP2 POP POP SWAP3 POP SWAP3 SWAP1 POP JUMP JUMPDEST PUSH1 0x0 DUP1 PUSH1 0x0 DUP1 PUSH1 0x0 PUSH1 0x60 DUP7 DUP9 SUB SLT ISZERO PUSH2 0x260A JUMPI PUSH1 0x0 DUP1 REVERT JUMPDEST PUSH1 0x0 DUP7 ADD CALLDATALOAD PUSH8 0xFFFFFFFFFFFFFFFF DUP2 GT ISZERO PUSH2 0x2624 JUMPI PUSH1 0x0 DUP1 REVERT JUMPDEST PUSH2 0x2630 DUP9 DUP3 DUP10 ADD PUSH2 0x2441 JUMP JUMPDEST SWAP6 POP SWAP6 POP POP PUSH1 0x20 PUSH2 0x2643 DUP9 DUP3 DUP10 ADD PUSH2 0x2514 JUMP JUMPDEST SWAP4 POP POP PUSH1 0x40 DUP7 ADD CALLDATALOAD PUSH8 0xFFFFFFFFFFFFFFFF DUP2 GT ISZERO PUSH2 0x2660 JUMPI PUSH1 0x0 DUP1 REVERT JUMPDEST PUSH2 0x266C DUP9 DUP3 DUP10 ADD PUSH2 0x24CA JUMP JUMPDEST SWAP3 POP SWAP3 POP POP SWAP3 SWAP6 POP SWAP3 SWAP6 SWAP1 SWAP4 POP JUMP JUMPDEST PUSH1 0x0 PUSH1 0x20 DUP3 DUP5 SUB SLT ISZERO PUSH2 0x268D JUMPI PUSH1 0x0 DUP1 REVERT JUMPDEST PUSH1 0x0 PUSH2 0x269B DUP5 DUP3 DUP6 ADD PUSH2 0x248B JUMP JUMPDEST SWAP2 POP POP SWAP3 SWAP2 POP POP JUMP JUMPDEST PUSH1 0x0 PUSH1 0x20 DUP3 DUP5 SUB SLT ISZERO PUSH2 0x26B6 JUMPI PUSH1 0x0 DUP1 REVERT JUMPDEST PUSH1 0x0 PUSH2 0x26C4 DUP5 DUP3 DUP6 ADD PUSH2 0x24A0 JUMP JUMPDEST SWAP2 POP POP SWAP3 SWAP2 POP POP JUMP JUMPDEST PUSH1 0x0 PUSH1 0x20 DUP3 DUP5 SUB SLT ISZERO PUSH2 0x26DF JUMPI PUSH1 0x0 DUP1 REVERT JUMPDEST PUSH1 0x0 PUSH2 0x26ED DUP5 DUP3 DUP6 ADD PUSH2 0x24B5 JUMP JUMPDEST SWAP2 POP POP SWAP3 SWAP2 POP POP JUMP JUMPDEST PUSH1 0x0 DUP1 PUSH1 0x0 PUSH1 0x40 DUP5 DUP7 SUB SLT ISZERO PUSH2 0x270B JUMPI PUSH1 0x0 DUP1 REVERT JUMPDEST PUSH1 0x0 PUSH2 0x2719 DUP7 DUP3 DUP8 ADD PUSH2 0x24B5 JUMP JUMPDEST SWAP4 POP POP PUSH1 0x20 DUP5 ADD CALLDATALOAD PUSH8 0xFFFFFFFFFFFFFFFF DUP2 GT ISZERO PUSH2 0x2736 JUMPI PUSH1 0x0 DUP1 REVERT JUMPDEST PUSH2 0x2742 DUP7 DUP3 DUP8 ADD PUSH2 0x24CA JUMP JUMPDEST SWAP3 POP SWAP3 POP POP SWAP3 POP SWAP3 POP SWAP3 JUMP JUMPDEST PUSH1 0x0 PUSH1 0x20 DUP3 DUP5 SUB SLT ISZERO PUSH2 0x2760 JUMPI PUSH1 0x0 DUP1 REVERT JUMPDEST PUSH1 0x0 PUSH2 0x276E DUP5 DUP3 DUP6 ADD PUSH2 0x2514 JUMP JUMPDEST SWAP2 POP POP SWAP3 SWAP2 POP POP JUMP JUMPDEST PUSH1 0x0 PUSH1 0x20 DUP3 DUP5 SUB SLT ISZERO PUSH2 0x2789 JUMPI PUSH1 0x0 DUP1 REVERT JUMPDEST PUSH1 0x0 PUSH2 0x2797 DUP5 DUP3 DUP6 ADD PUSH2 0x2529 JUMP JUMPDEST SWAP2 POP POP SWAP3 SWAP2 POP POP JUMP JUMPDEST PUSH1 0x0 DUP1 PUSH1 0x40 DUP4 DUP6 SUB SLT ISZERO PUSH2 0x27B3 JUMPI PUSH1 0x0 DUP1 REVERT JUMPDEST PUSH1 0x0 PUSH2 0x27C1 DUP6 DUP3 DUP7 ADD PUSH2 0x2514 JUMP JUMPDEST SWAP3 POP POP PUSH1 0x20 PUSH2 0x27D2 DUP6 DUP3 DUP7 ADD PUSH2 0x2514 JUMP JUMPDEST SWAP2 POP POP SWAP3 POP SWAP3 SWAP1 POP JUMP JUMPDEST PUSH1 0x0 DUP1 PUSH1 0x0 DUP1 PUSH1 0x60 DUP6 DUP8 SUB SLT ISZERO PUSH2 0x27F2 JUMPI PUSH1 0x0 DUP1 REVERT JUMPDEST PUSH1 0x0 PUSH2 0x2800 DUP8 DUP3 DUP9 ADD PUSH2 0x2514 JUMP JUMPDEST SWAP5 POP POP PUSH1 0x20 PUSH2 0x2811 DUP8 DUP3 DUP9 ADD PUSH2 0x2514 JUMP JUMPDEST SWAP4 POP POP PUSH1 0x40 DUP6 ADD CALLDATALOAD PUSH8 0xFFFFFFFFFFFFFFFF DUP2 GT ISZERO PUSH2 0x282E JUMPI PUSH1 0x0 DUP1 REVERT JUMPDEST PUSH2 0x283A DUP8 DUP3 DUP9 ADD PUSH2 0x24CA JUMP JUMPDEST SWAP3 POP SWAP3 POP POP SWAP3 SWAP6 SWAP2 SWAP5 POP SWAP3 POP JUMP JUMPDEST PUSH1 0x0 PUSH2 0x2854 DUP4 DUP4 PUSH2 0x2C1C JUMP JUMPDEST PUSH1 0x20 DUP4 ADD SWAP1 POP SWAP3 SWAP2 POP POP JUMP JUMPDEST PUSH2 0x2869 DUP2 PUSH2 0x30CA JUMP JUMPDEST DUP3 MSTORE POP POP JUMP JUMPDEST DUP1 DUP3 MSTORE POP POP JUMP JUMPDEST PUSH1 0x0 PUSH2 0x2882 DUP4 DUP6 PUSH2 0x3030 JUMP JUMPDEST SWAP4 POP PUSH32 0x7FFFFFFFFFFFFFFFFFFFFFFFFFFFFFFFFFFFFFFFFFFFFFFFFFFFFFFFFFFFFFF DUP4 GT ISZERO PUSH2 0x28B1 JUMPI PUSH1 0x0 DUP1 REVERT JUMPDEST PUSH1 0x20 DUP4 MUL SWAP3 POP PUSH2 0x28C2 DUP4 DUP6 DUP5 PUSH2 0x31BA JUMP JUMPDEST DUP3 DUP5 ADD SWAP1 POP SWAP4 SWAP3 POP POP POP JUMP JUMPDEST PUSH1 0x0 PUSH2 0x28D9 DUP3 PUSH2 0x2FFC JUMP JUMPDEST PUSH2 0x28E3 DUP2 DUP6 PUSH2 0x301F JUMP JUMPDEST SWAP4 POP PUSH2 0x28EE DUP4 PUSH2 0x2FEC JUMP JUMPDEST DUP1 PUSH1 0x0 JUMPDEST DUP4 DUP2 LT ISZERO PUSH2 0x291F JUMPI DUP2 MLOAD PUSH2 0x2906 DUP9 DUP3 PUSH2 0x2848 JUMP JUMPDEST SWAP8 POP PUSH2 0x2911 DUP4 PUSH2 0x3012 JUMP JUMPDEST SWAP3 POP POP PUSH1 0x1 DUP2 ADD SWAP1 POP PUSH2 0x28F2 JUMP JUMPDEST POP DUP6 SWAP4 POP POP POP POP SWAP3 SWAP2 POP POP JUMP JUMPDEST PUSH2 0x2935 DUP2 PUSH2 0x30DC JUMP JUMPDEST DUP3 MSTORE POP POP JUMP JUMPDEST PUSH2 0x2944 DUP2 PUSH2 0x3172 JUMP JUMPDEST DUP3 MSTORE POP POP JUMP JUMPDEST PUSH2 0x2953 DUP2 PUSH2 0x3172 JUMP JUMPDEST DUP3 MSTORE POP POP JUMP JUMPDEST PUSH2 0x2962 DUP2 PUSH2 0x3196 JUMP JUMPDEST DUP3 MSTORE POP POP JUMP JUMPDEST PUSH2 0x2971 DUP2 PUSH2 0x31A8 JUMP JUMPDEST DUP3 MSTORE POP POP JUMP JUMPDEST PUSH2 0x2980 DUP2 PUSH2 0x31A8 JUMP JUMPDEST DUP3 MSTORE POP POP JUMP JUMPDEST PUSH1 0x0 PUSH2 0x2992 DUP4 DUP6 PUSH2 0x3063 JUMP JUMPDEST SWAP4 POP PUSH2 0x299F DUP4 DUP6 DUP5 PUSH2 0x31BA JUMP JUMPDEST PUSH2 0x29A8 DUP4 PUSH2 0x3304 JUMP JUMPDEST DUP5 ADD SWAP1 POP SWAP4 SWAP3 POP POP POP JUMP JUMPDEST PUSH1 0x0 PUSH2 0x29BE DUP3 PUSH2 0x3007 JUMP JUMPDEST PUSH2 0x29C8 DUP2 DUP6 PUSH2 0x3041 JUMP JUMPDEST SWAP4 POP PUSH2 0x29D8 DUP2 DUP6 PUSH1 0x20 DUP7 ADD PUSH2 0x31C9 JUMP JUMPDEST PUSH2 0x29E1 DUP2 PUSH2 0x3304 JUMP JUMPDEST DUP5 ADD SWAP2 POP POP SWAP3 SWAP2 POP POP JUMP JUMPDEST PUSH1 0x0 PUSH2 0x29F7 DUP3 PUSH2 0x3007 JUMP JUMPDEST PUSH2 0x2A01 DUP2 DUP6 PUSH2 0x3052 JUMP JUMPDEST SWAP4 POP PUSH2 0x2A11 DUP2 DUP6 PUSH1 0x20 DUP7 ADD PUSH2 0x31C9 JUMP JUMPDEST PUSH2 0x2A1A DUP2 PUSH2 0x3304 JUMP JUMPDEST DUP5 ADD SWAP2 POP POP SWAP3 SWAP2 POP POP JUMP JUMPDEST PUSH1 0x0 PUSH2 0x2A30 DUP3 PUSH2 0x3007 JUMP JUMPDEST PUSH2 0x2A3A DUP2 DUP6 PUSH2 0x3063 JUMP JUMPDEST SWAP4 POP PUSH2 0x2A4A DUP2 DUP6 PUSH1 0x20 DUP7 ADD PUSH2 0x31C9 JUMP JUMPDEST PUSH2 0x2A53 DUP2 PUSH2 0x3304 JUMP JUMPDEST DUP5 ADD SWAP2 POP POP SWAP3 SWAP2 POP POP JUMP JUMPDEST PUSH1 0x0 PUSH2 0x2A6B PUSH1 0x28 DUP4 PUSH2 0x3052 JUMP JUMPDEST SWAP2 POP PUSH2 0x2A76 DUP3 PUSH2 0x3315 JUMP JUMPDEST PUSH1 0x40 DUP3 ADD SWAP1 POP SWAP2 SWAP1 POP JUMP JUMPDEST PUSH1 0x0 PUSH2 0x2A8E PUSH1 0x25 DUP4 PUSH2 0x3052 JUMP JUMPDEST SWAP2 POP PUSH2 0x2A99 DUP3 PUSH2 0x3364 JUMP JUMPDEST PUSH1 0x40 DUP3 ADD SWAP1 POP SWAP2 SWAP1 POP JUMP JUMPDEST PUSH1 0x0 PUSH2 0x2AB1 PUSH1 0x19 DUP4 PUSH2 0x3052 JUMP JUMPDEST SWAP2 POP PUSH2 0x2ABC DUP3 PUSH2 0x33B3 JUMP JUMPDEST PUSH1 0x20 DUP3 ADD SWAP1 POP SWAP2 SWAP1 POP JUMP JUMPDEST PUSH1 0x0 PUSH2 0x2AD4 PUSH1 0xC DUP4 PUSH2 0x3052 JUMP JUMPDEST SWAP2 POP PUSH2 0x2ADF DUP3 PUSH2 0x33DC JUMP JUMPDEST PUSH1 0x20 DUP3 ADD SWAP1 POP SWAP2 SWAP1 POP JUMP JUMPDEST PUSH1 0x0 PUSH2 0x2AF7 PUSH1 0x1B DUP4 PUSH2 0x3052 JUMP JUMPDEST SWAP2 POP PUSH2 0x2B02 DUP3 PUSH2 0x3405 JUMP JUMPDEST PUSH1 0x20 DUP3 ADD SWAP1 POP SWAP2 SWAP1 POP JUMP JUMPDEST PUSH1 0x0 PUSH2 0x2B1A PUSH1 0x21 DUP4 PUSH2 0x3052 JUMP JUMPDEST SWAP2 POP PUSH2 0x2B25 DUP3 PUSH2 0x342E JUMP JUMPDEST PUSH1 0x40 DUP3 ADD SWAP1 POP SWAP2 SWAP1 POP JUMP JUMPDEST PUSH1 0x0 PUSH2 0x2B3D PUSH1 0x17 DUP4 PUSH2 0x3052 JUMP JUMPDEST SWAP2 POP PUSH2 0x2B48 DUP3 PUSH2 0x347D JUMP JUMPDEST PUSH1 0x20 DUP3 ADD SWAP1 POP SWAP2 SWAP1 POP JUMP JUMPDEST PUSH1 0x0 PUSH2 0x2B60 PUSH1 0x13 DUP4 PUSH2 0x3052 JUMP JUMPDEST SWAP2 POP PUSH2 0x2B6B DUP3 PUSH2 0x34A6 JUMP JUMPDEST PUSH1 0x20 DUP3 ADD SWAP1 POP SWAP2 SWAP1 POP JUMP JUMPDEST DUP1 DUP3 MSTORE POP POP JUMP JUMPDEST DUP1 DUP3 MSTORE POP POP JUMP JUMPDEST PUSH1 0x0 PUSH1 0xC0 DUP4 ADD PUSH1 0x0 DUP4 ADD MLOAD PUSH2 0x2B9C PUSH1 0x0 DUP7 ADD DUP3 PUSH2 0x2C0D JUMP JUMPDEST POP PUSH1 0x20 DUP4 ADD MLOAD PUSH2 0x2BAF PUSH1 0x20 DUP7 ADD DUP3 PUSH2 0x2C0D JUMP JUMPDEST POP PUSH1 0x40 DUP4 ADD MLOAD PUSH2 0x2BC2 PUSH1 0x40 DUP7 ADD DUP3 PUSH2 0x2C0D JUMP JUMPDEST POP PUSH1 0x60 DUP4 ADD MLOAD PUSH2 0x2BD5 PUSH1 0x60 DUP7 ADD DUP3 PUSH2 0x2C0D JUMP JUMPDEST POP PUSH1 0x80 DUP4 ADD MLOAD PUSH2 0x2BE8 PUSH1 0x80 DUP7 ADD DUP3 PUSH2 0x2968 JUMP JUMPDEST POP PUSH1 0xA0 DUP4 ADD MLOAD DUP5 DUP3 SUB PUSH1 0xA0 DUP7 ADD MSTORE PUSH2 0x2C00 DUP3 DUP3 PUSH2 0x29B3 JUMP JUMPDEST SWAP2 POP POP DUP1 SWAP2 POP POP SWAP3 SWAP2 POP POP JUMP JUMPDEST PUSH2 0x2C16 DUP2 PUSH2 0x313A JUMP JUMPDEST DUP3 MSTORE POP POP JUMP JUMPDEST PUSH2 0x2C25 DUP2 PUSH2 0x3168 JUMP JUMPDEST DUP3 MSTORE POP POP JUMP JUMPDEST PUSH2 0x2C34 DUP2 PUSH2 0x3168 JUMP JUMPDEST DUP3 MSTORE POP POP JUMP JUMPDEST PUSH2 0x2C43 DUP2 PUSH2 0x3168 JUMP JUMPDEST DUP3 MSTORE POP POP JUMP JUMPDEST PUSH1 0x0 PUSH1 0x20 DUP3 ADD SWAP1 POP PUSH2 0x2C5E PUSH1 0x0 DUP4 ADD DUP5 PUSH2 0x2860 JUMP JUMPDEST SWAP3 SWAP2 POP POP JUMP JUMPDEST PUSH1 0x0 PUSH1 0x60 DUP3 ADD SWAP1 POP PUSH2 0x2C79 PUSH1 0x0 DUP4 ADD DUP7 PUSH2 0x2860 JUMP JUMPDEST PUSH2 0x2C86 PUSH1 0x20 DUP4 ADD DUP6 PUSH2 0x2860 JUMP JUMPDEST PUSH2 0x2C93 PUSH1 0x40 DUP4 ADD DUP5 PUSH2 0x2C2B JUMP JUMPDEST SWAP5 SWAP4 POP POP POP POP JUMP JUMPDEST PUSH1 0x0 PUSH1 0x40 DUP3 ADD SWAP1 POP PUSH2 0x2CB0 PUSH1 0x0 DUP4 ADD DUP6 PUSH2 0x2860 JUMP JUMPDEST PUSH2 0x2CBD PUSH1 0x20 DUP4 ADD DUP5 PUSH2 0x2C2B JUMP JUMPDEST SWAP4 SWAP3 POP POP POP JUMP JUMPDEST PUSH1 0x0 PUSH1 0x80 DUP3 ADD SWAP1 POP PUSH2 0x2CD9 PUSH1 0x0 DUP4 ADD DUP10 PUSH2 0x286F JUMP JUMPDEST DUP2 DUP2 SUB PUSH1 0x20 DUP4 ADD MSTORE PUSH2 0x2CEC DUP2 DUP8 DUP10 PUSH2 0x2876 JUMP JUMPDEST SWAP1 POP PUSH2 0x2CFB PUSH1 0x40 DUP4 ADD DUP7 PUSH2 0x2C3A JUMP JUMPDEST DUP2 DUP2 SUB PUSH1 0x60 DUP4 ADD MSTORE PUSH2 0x2D0E DUP2 DUP5 DUP7 PUSH2 0x2986 JUMP JUMPDEST SWAP1 POP SWAP8 SWAP7 POP POP POP POP POP POP POP JUMP JUMPDEST PUSH1 0x0 PUSH1 0x20 DUP3 ADD SWAP1 POP DUP2 DUP2 SUB PUSH1 0x0 DUP4 ADD MSTORE PUSH2 0x2D35 DUP2 DUP5 PUSH2 0x28CE JUMP JUMPDEST SWAP1 POP SWAP3 SWAP2 POP POP JUMP JUMPDEST PUSH1 0x0 PUSH1 0x20 DUP3 ADD SWAP1 POP PUSH2 0x2D52 PUSH1 0x0 DUP4 ADD DUP5 PUSH2 0x292C JUMP JUMPDEST SWAP3 SWAP2 POP POP JUMP JUMPDEST PUSH1 0x0 PUSH1 0x20 DUP3 ADD SWAP1 POP PUSH2 0x2D6D PUSH1 0x0 DUP4 ADD DUP5 PUSH2 0x293B JUMP JUMPDEST SWAP3 SWAP2 POP POP JUMP JUMPDEST PUSH1 0x0 PUSH1 0x20 DUP3 ADD SWAP1 POP PUSH2 0x2D88 PUSH1 0x0 DUP4 ADD DUP5 PUSH2 0x2959 JUMP JUMPDEST SWAP3 SWAP2 POP POP JUMP JUMPDEST PUSH1 0x0 PUSH1 0x20 DUP3 ADD SWAP1 POP PUSH2 0x2DA3 PUSH1 0x0 DUP4 ADD DUP5 PUSH2 0x2977 JUMP JUMPDEST SWAP3 SWAP2 POP POP JUMP JUMPDEST PUSH1 0x0 PUSH1 0x20 DUP3 ADD SWAP1 POP DUP2 DUP2 SUB PUSH1 0x0 DUP4 ADD MSTORE PUSH2 0x2DC3 DUP2 DUP5 PUSH2 0x29EC JUMP JUMPDEST SWAP1 POP SWAP3 SWAP2 POP POP JUMP JUMPDEST PUSH1 0x0 PUSH1 0x20 DUP3 ADD SWAP1 POP DUP2 DUP2 SUB PUSH1 0x0 DUP4 ADD MSTORE PUSH2 0x2DE4 DUP2 PUSH2 0x2A5E JUMP JUMPDEST SWAP1 POP SWAP2 SWAP1 POP JUMP JUMPDEST PUSH1 0x0 PUSH1 0x20 DUP3 ADD SWAP1 POP DUP2 DUP2 SUB PUSH1 0x0 DUP4 ADD MSTORE PUSH2 0x2E04 DUP2 PUSH2 0x2A81 JUMP JUMPDEST SWAP1 POP SWAP2 SWAP1 POP JUMP JUMPDEST PUSH1 0x0 PUSH1 0x20 DUP3 ADD SWAP1 POP DUP2 DUP2 SUB PUSH1 0x0 DUP4 ADD MSTORE PUSH2 0x2E24 DUP2 PUSH2 0x2AA4 JUMP JUMPDEST SWAP1 POP SWAP2 SWAP1 POP JUMP JUMPDEST PUSH1 0x0 PUSH1 0x20 DUP3 ADD SWAP1 POP DUP2 DUP2 SUB PUSH1 0x0 DUP4 ADD MSTORE PUSH2 0x2E44 DUP2 PUSH2 0x2AC7 JUMP JUMPDEST SWAP1 POP SWAP2 SWAP1 POP JUMP JUMPDEST PUSH1 0x0 PUSH1 0x20 DUP3 ADD SWAP1 POP DUP2 DUP2 SUB PUSH1 0x0 DUP4 ADD MSTORE PUSH2 0x2E64 DUP2 PUSH2 0x2AEA JUMP JUMPDEST SWAP1 POP SWAP2 SWAP1 POP JUMP JUMPDEST PUSH1 0x0 PUSH1 0x20 DUP3 ADD SWAP1 POP DUP2 DUP2 SUB PUSH1 0x0 DUP4 ADD MSTORE PUSH2 0x2E84 DUP2 PUSH2 0x2B0D JUMP JUMPDEST SWAP1 POP SWAP2 SWAP1 POP JUMP JUMPDEST PUSH1 0x0 PUSH1 0x20 DUP3 ADD SWAP1 POP DUP2 DUP2 SUB PUSH1 0x0 DUP4 ADD MSTORE PUSH2 0x2EA4 DUP2 PUSH2 0x2B30 JUMP JUMPDEST SWAP1 POP SWAP2 SWAP1 POP JUMP JUMPDEST PUSH1 0x0 PUSH1 0x20 DUP3 ADD SWAP1 POP DUP2 DUP2 SUB PUSH1 0x0 DUP4 ADD MSTORE PUSH2 0x2EC4 DUP2 PUSH2 0x2B53 JUMP JUMPDEST SWAP1 POP SWAP2 SWAP1 POP JUMP JUMPDEST PUSH1 0x0 PUSH1 0x60 DUP3 ADD SWAP1 POP PUSH2 0x2EE0 PUSH1 0x0 DUP4 ADD DUP7 PUSH2 0x2B76 JUMP JUMPDEST PUSH2 0x2EED PUSH1 0x20 DUP4 ADD DUP6 PUSH2 0x2C3A JUMP JUMPDEST PUSH2 0x2EFA PUSH1 0x40 DUP4 ADD DUP5 PUSH2 0x294A JUMP JUMPDEST SWAP5 SWAP4 POP POP POP POP JUMP JUMPDEST PUSH1 0x0 PUSH1 0x60 DUP3 ADD SWAP1 POP PUSH2 0x2F17 PUSH1 0x0 DUP4 ADD DUP7 PUSH2 0x2B7D JUMP JUMPDEST PUSH2 0x2F24 PUSH1 0x20 DUP4 ADD DUP6 PUSH2 0x2977 JUMP JUMPDEST DUP2 DUP2 SUB PUSH1 0x40 DUP4 ADD MSTORE PUSH2 0x2F36 DUP2 DUP5 PUSH2 0x2A25 JUMP JUMPDEST SWAP1 POP SWAP5 SWAP4 POP POP POP POP JUMP JUMPDEST PUSH1 0x0 PUSH1 0x20 DUP3 ADD SWAP1 POP DUP2 DUP2 SUB PUSH1 0x0 DUP4 ADD MSTORE PUSH2 0x2F5A DUP2 DUP5 PUSH2 0x2B84 JUMP JUMPDEST SWAP1 POP SWAP3 SWAP2 POP POP JUMP JUMPDEST PUSH1 0x0 PUSH1 0x20 DUP3 ADD SWAP1 POP PUSH2 0x2F77 PUSH1 0x0 DUP4 ADD DUP5 PUSH2 0x2C2B JUMP JUMPDEST SWAP3 SWAP2 POP POP JUMP JUMPDEST PUSH1 0x0 PUSH1 0xC0 DUP3 ADD SWAP1 POP PUSH2 0x2F92 PUSH1 0x0 DUP4 ADD DUP10 PUSH2 0x2C2B JUMP JUMPDEST PUSH2 0x2F9F PUSH1 0x20 DUP4 ADD DUP9 PUSH2 0x2860 JUMP JUMPDEST PUSH2 0x2FAC PUSH1 0x40 DUP4 ADD DUP8 PUSH2 0x2860 JUMP JUMPDEST DUP2 DUP2 SUB PUSH1 0x60 DUP4 ADD MSTORE PUSH2 0x2FBE DUP2 DUP7 PUSH2 0x29EC JUMP JUMPDEST SWAP1 POP DUP2 DUP2 SUB PUSH1 0x80 DUP4 ADD MSTORE PUSH2 0x2FD2 DUP2 DUP6 PUSH2 0x29EC JUMP JUMPDEST SWAP1 POP PUSH2 0x2FE1 PUSH1 0xA0 DUP4 ADD DUP5 PUSH2 0x2C2B JUMP JUMPDEST SWAP8 SWAP7 POP POP POP POP POP POP POP JUMP JUMPDEST PUSH1 0x0 DUP2 SWAP1 POP PUSH1 0x20 DUP3 ADD SWAP1 POP SWAP2 SWAP1 POP JUMP JUMPDEST PUSH1 0x0 DUP2 MLOAD SWAP1 POP SWAP2 SWAP1 POP JUMP JUMPDEST PUSH1 0x0 DUP2 MLOAD SWAP1 POP SWAP2 SWAP1 POP JUMP JUMPDEST PUSH1 0x0 PUSH1 0x20 DUP3 ADD SWAP1 POP SWAP2 SWAP1 POP JUMP JUMPDEST PUSH1 0x0 DUP3 DUP3 MSTORE PUSH1 0x20 DUP3 ADD SWAP1 POP SWAP3 SWAP2 POP POP JUMP JUMPDEST PUSH1 0x0 DUP3 DUP3 MSTORE PUSH1 0x20 DUP3 ADD SWAP1 POP SWAP3 SWAP2 POP POP JUMP JUMPDEST PUSH1 0x0 DUP3 DUP3 MSTORE PUSH1 0x20 DUP3 ADD SWAP1 POP SWAP3 SWAP2 POP POP JUMP JUMPDEST PUSH1 0x0 DUP3 DUP3 MSTORE PUSH1 0x20 DUP3 ADD SWAP1 POP SWAP3 SWAP2 POP POP JUMP JUMPDEST PUSH1 0x0 DUP3 DUP3 MSTORE PUSH1 0x20 DUP3 ADD SWAP1 POP SWAP3 SWAP2 POP POP JUMP JUMPDEST PUSH1 0x0 PUSH2 0x307F DUP3 PUSH2 0x3168 JUMP JUMPDEST SWAP2 POP PUSH2 0x308A DUP4 PUSH2 0x3168 JUMP JUMPDEST SWAP3 POP DUP3 PUSH32 0xFFFFFFFFFFFFFFFFFFFFFFFFFFFFFFFFFFFFFFFFFFFFFFFFFFFFFFFFFFFFFFFF SUB DUP3 GT ISZERO PUSH2 0x30BF JUMPI PUSH2 0x30BE PUSH2 0x3277 JUMP JUMPDEST JUMPDEST DUP3 DUP3 ADD SWAP1 POP SWAP3 SWAP2 POP POP JUMP JUMPDEST PUSH1 0x0 PUSH2 0x30D5 DUP3 PUSH2 0x3148 JUMP JUMPDEST SWAP1 POP SWAP2 SWAP1 POP JUMP JUMPDEST PUSH1 0x0 DUP2 ISZERO ISZERO SWAP1 POP SWAP2 SWAP1 POP JUMP JUMPDEST PUSH1 0x0 PUSH32 0xFFFFFFFF00000000000000000000000000000000000000000000000000000000 DUP3 AND SWAP1 POP SWAP2 SWAP1 POP JUMP JUMPDEST PUSH1 0x0 DUP2 SWAP1 POP PUSH2 0x3122 DUP3 PUSH2 0x34CF JUMP JUMPDEST SWAP2 SWAP1 POP JUMP JUMPDEST PUSH1 0x0 DUP2 SWAP1 POP PUSH2 0x3135 DUP3 PUSH2 0x34E3 JUMP JUMPDEST SWAP2 SWAP1 POP JUMP JUMPDEST PUSH1 0x0 PUSH2 0xFFFF DUP3 AND SWAP1 POP SWAP2 SWAP1 POP JUMP JUMPDEST PUSH1 0x0 PUSH20 0xFFFFFFFFFFFFFFFFFFFFFFFFFFFFFFFFFFFFFFFF DUP3 AND SWAP1 POP SWAP2 SWAP1 POP JUMP JUMPDEST PUSH1 0x0 DUP2 SWAP1 POP SWAP2 SWAP1 POP JUMP JUMPDEST PUSH1 0x0 PUSH2 0x317D DUP3 PUSH2 0x3184 JUMP JUMPDEST SWAP1 POP SWAP2 SWAP1 POP JUMP JUMPDEST PUSH1 0x0 PUSH2 0x318F DUP3 PUSH2 0x3148 JUMP JUMPDEST SWAP1 POP SWAP2 SWAP1 POP JUMP JUMPDEST PUSH1 0x0 PUSH2 0x31A1 DUP3 PUSH2 0x3114 JUMP JUMPDEST SWAP1 POP SWAP2 SWAP1 POP JUMP JUMPDEST PUSH1 0x0 PUSH2 0x31B3 DUP3 PUSH2 0x3127 JUMP JUMPDEST SWAP1 POP SWAP2 SWAP1 POP JUMP JUMPDEST DUP3 DUP2 DUP4 CALLDATACOPY PUSH1 0x0 DUP4 DUP4 ADD MSTORE POP POP POP JUMP JUMPDEST PUSH1 0x0 JUMPDEST DUP4 DUP2 LT ISZERO PUSH2 0x31E7 JUMPI DUP1 DUP3 ADD MLOAD DUP2 DUP5 ADD MSTORE PUSH1 0x20 DUP2 ADD SWAP1 POP PUSH2 0x31CC JUMP JUMPDEST DUP4 DUP2 GT ISZERO PUSH2 0x31F6 JUMPI PUSH1 0x0 DUP5 DUP5 ADD MSTORE JUMPDEST POP POP POP POP JUMP JUMPDEST PUSH1 0x0 PUSH1 0x2 DUP3 DIV SWAP1 POP PUSH1 0x1 DUP3 AND DUP1 PUSH2 0x3214 JUMPI PUSH1 0x7F DUP3 AND SWAP2 POP JUMPDEST PUSH1 0x20 DUP3 LT DUP2 EQ ISZERO PUSH2 0x3228 JUMPI PUSH2 0x3227 PUSH2 0x32D5 JUMP JUMPDEST JUMPDEST POP SWAP2 SWAP1 POP JUMP JUMPDEST PUSH1 0x0 PUSH2 0x3239 DUP3 PUSH2 0x3168 JUMP JUMPDEST SWAP2 POP PUSH32 0xFFFFFFFFFFFFFFFFFFFFFFFFFFFFFFFFFFFFFFFFFFFFFFFFFFFFFFFFFFFFFFFF DUP3 EQ ISZERO PUSH2 0x326C JUMPI PUSH2 0x326B PUSH2 0x3277 JUMP JUMPDEST JUMPDEST PUSH1 0x1 DUP3 ADD SWAP1 POP SWAP2 SWAP1 POP JUMP JUMPDEST PUSH32 0x4E487B7100000000000000000000000000000000000000000000000000000000 PUSH1 0x0 MSTORE PUSH1 0x11 PUSH1 0x4 MSTORE PUSH1 0x24 PUSH1 0x0 REVERT JUMPDEST PUSH32 0x4E487B7100000000000000000000000000000000000000000000000000000000 PUSH1 0x0 MSTORE PUSH1 0x21 PUSH1 0x4 MSTORE PUSH1 0x24 PUSH1 0x0 REVERT JUMPDEST PUSH32 0x4E487B7100000000000000000000000000000000000000000000000000000000 PUSH1 0x0 MSTORE PUSH1 0x22 PUSH1 0x4 MSTORE PUSH1 0x24 PUSH1 0x0 REVERT JUMPDEST PUSH1 0x0 PUSH1 0x1F NOT PUSH1 0x1F DUP4 ADD AND SWAP1 POP SWAP2 SWAP1 POP JUMP JUMPDEST PUSH32 0x497420697320746F6F206C61746520746F207769746864726177207468697320 PUSH1 0x0 DUP3 ADD MSTORE PUSH32 0x61756374696F6E21000000000000000000000000000000000000000000000000 PUSH1 0x20 DUP3 ADD MSTORE POP JUMP JUMPDEST PUSH32 0x596F7520617265206E6F742074686520686F7374206F66207468697320617563 PUSH1 0x0 DUP3 ADD MSTORE PUSH32 0x74696F6E21000000000000000000000000000000000000000000000000000000 PUSH1 0x20 DUP3 ADD MSTORE POP JUMP JUMPDEST PUSH32 0x596F7520616C7265616479206F776E207468697320756E697400000000000000 PUSH1 0x0 DUP3 ADD MSTORE POP JUMP JUMPDEST PUSH32 0x556E697420697320627573790000000000000000000000000000000000000000 PUSH1 0x0 DUP3 ADD MSTORE POP JUMP JUMPDEST PUSH32 0x4E6F7420612076616C696420616464726573732E20536F727279210000000000 PUSH1 0x0 DUP3 ADD MSTORE POP JUMP JUMPDEST PUSH32 0x556E6974206973206E6F742070726F6D6973656420746F207468617420757365 PUSH1 0x0 DUP3 ADD MSTORE PUSH32 0x7200000000000000000000000000000000000000000000000000000000000000 PUSH1 0x20 DUP3 ADD MSTORE POP JUMP JUMPDEST PUSH32 0x596F7520646F6E2774206F776E207468697320756E6974000000000000000000 PUSH1 0x0 DUP3 ADD MSTORE POP JUMP JUMPDEST PUSH32 0x556E697420697320756E617661696C61626C6500000000000000000000000000 PUSH1 0x0 DUP3 ADD MSTORE POP JUMP JUMPDEST PUSH1 0x5 DUP2 LT PUSH2 0x34E0 JUMPI PUSH2 0x34DF PUSH2 0x32A6 JUMP JUMPDEST JUMPDEST POP JUMP JUMPDEST PUSH1 0x3 DUP2 LT PUSH2 0x34F4 JUMPI PUSH2 0x34F3 PUSH2 0x32A6 JUMP JUMPDEST JUMPDEST POP JUMP JUMPDEST PUSH2 0x3500 DUP2 PUSH2 0x30CA JUMP JUMPDEST DUP2 EQ PUSH2 0x350B JUMPI PUSH1 0x0 DUP1 REVERT JUMPDEST POP JUMP JUMPDEST PUSH2 0x3517 DUP2 PUSH2 0x30DC JUMP JUMPDEST DUP2 EQ PUSH2 0x3522 JUMPI PUSH1 0x0 DUP1 REVERT JUMPDEST POP JUMP JUMPDEST PUSH2 0x352E DUP2 PUSH2 0x30E8 JUMP JUMPDEST DUP2 EQ PUSH2 0x3539 JUMPI PUSH1 0x0 DUP1 REVERT JUMPDEST POP JUMP JUMPDEST PUSH1 0x3 DUP2 LT PUSH2 0x3549 JUMPI PUSH1 0x0 DUP1 REVERT JUMPDEST POP JUMP JUMPDEST PUSH2 0x3555 DUP2 PUSH2 0x3168 JUMP JUMPDEST DUP2 EQ PUSH2 0x3560 JUMPI PUSH1 0x0 DUP1 REVERT JUMPDEST POP JUMP INVALID LOG2 PUSH5 0x6970667358 0x22 SLT KECCAK256 0x1E PUSH12 0xE38E6EAE6DA45E130B199C57 LOG0 PUSH21 0x72753077022DAF9DA29CF23CCC29DD2B64736F6C63 NUMBER STOP ADDMOD ADD STOP CALLER PUSH1 0x80 PUSH1 0x40 MSTORE PUSH4 0x3B9ACA00 PUSH1 0x0 SSTORE CALLVALUE DUP1 ISZERO PUSH3 0x19 JUMPI PUSH1 0x0 DUP1 REVERT JUMPDEST POP PUSH1 0x40 MLOAD PUSH3 0x18BE CODESIZE SUB DUP1 PUSH3 0x18BE DUP4 CODECOPY DUP2 DUP2 ADD PUSH1 0x40 MSTORE DUP2 ADD SWAP1 PUSH3 0x3F SWAP2 SWAP1 PUSH3 0xE4 JUMP JUMPDEST DUP1 PUSH1 0x4 PUSH1 0x0 PUSH2 0x100 EXP DUP2 SLOAD DUP2 PUSH20 0xFFFFFFFFFFFFFFFFFFFFFFFFFFFFFFFFFFFFFFFF MUL NOT AND SWAP1 DUP4 PUSH20 0xFFFFFFFFFFFFFFFFFFFFFFFFFFFFFFFFFFFFFFFF AND MUL OR SWAP1 SSTORE POP PUSH1 0x0 SLOAD PUSH1 0x1 PUSH1 0x0 DUP4 PUSH20 0xFFFFFFFFFFFFFFFFFFFFFFFFFFFFFFFFFFFFFFFF AND PUSH20 0xFFFFFFFFFFFFFFFFFFFFFFFFFFFFFFFFFFFFFFFF AND DUP2 MSTORE PUSH1 0x20 ADD SWAP1 DUP2 MSTORE PUSH1 0x20 ADD PUSH1 0x0 KECCAK256 DUP2 SWAP1 SSTORE POP POP PUSH3 0x15E JUMP JUMPDEST PUSH1 0x0 DUP2 MLOAD SWAP1 POP PUSH3 0xDE DUP2 PUSH3 0x144 JUMP JUMPDEST SWAP3 SWAP2 POP POP JUMP JUMPDEST PUSH1 0x0 PUSH1 0x20 DUP3 DUP5 SUB SLT ISZERO PUSH3 0xF7 JUMPI PUSH1 0x0 DUP1 REVERT JUMPDEST PUSH1 0x0 PUSH3 0x107 DUP5 DUP3 DUP6 ADD PUSH3 0xCD JUMP JUMPDEST SWAP2 POP POP SWAP3 SWAP2 POP POP JUMP JUMPDEST PUSH1 0x0 PUSH3 0x11D DUP3 PUSH3 0x124 JUMP JUMPDEST SWAP1 POP SWAP2 SWAP1 POP JUMP JUMPDEST PUSH1 0x0 PUSH20 0xFFFFFFFFFFFFFFFFFFFFFFFFFFFFFFFFFFFFFFFF DUP3 AND SWAP1 POP SWAP2 SWAP1 POP JUMP JUMPDEST PUSH3 0x14F DUP2 PUSH3 0x110 JUMP JUMPDEST DUP2 EQ PUSH3 0x15B JUMPI PUSH1 0x0 DUP1 REVERT JUMPDEST POP JUMP JUMPDEST PUSH2 0x1750 DUP1 PUSH3 0x16E PUSH1 0x0 CODECOPY PUSH1 0x0 RETURN INVALID PUSH1 0x80 PUSH1 0x40 MSTORE PUSH1 0x4 CALLDATASIZE LT PUSH2 0xF3 JUMPI PUSH1 0x0 CALLDATALOAD PUSH1 0xE0 SHR DUP1 PUSH4 0x70A08231 GT PUSH2 0x8A JUMPI DUP1 PUSH4 0xABB8D5C3 GT PUSH2 0x59 JUMPI DUP1 PUSH4 0xABB8D5C3 EQ PUSH2 0x345 JUMPI DUP1 PUSH4 0xAF7D6CA3 EQ PUSH2 0x382 JUMPI DUP1 PUSH4 0xD4E7B8AD EQ PUSH2 0x3BF JUMPI DUP1 PUSH4 0xDD62ED3E EQ PUSH2 0x3FC JUMPI PUSH2 0xF3 JUMP JUMPDEST DUP1 PUSH4 0x70A08231 EQ PUSH2 0x289 JUMPI DUP1 PUSH4 0x89EB068A EQ PUSH2 0x2C6 JUMPI DUP1 PUSH4 0x95D89B41 EQ PUSH2 0x2DD JUMPI DUP1 PUSH4 0xA9059CBB EQ PUSH2 0x308 JUMPI PUSH2 0xF3 JUMP JUMPDEST DUP1 PUSH4 0x23B872DD GT PUSH2 0xC6 JUMPI DUP1 PUSH4 0x23B872DD EQ PUSH2 0x1C8 JUMPI DUP1 PUSH4 0x3290CE29 EQ PUSH2 0x205 JUMPI DUP1 PUSH4 0x332B888D EQ PUSH2 0x20F JUMPI DUP1 PUSH4 0x535B6773 EQ PUSH2 0x24C JUMPI PUSH2 0xF3 JUMP JUMPDEST DUP1 PUSH4 0x1FFC9A7 EQ PUSH2 0xF8 JUMPI DUP1 PUSH4 0x6FDDE03 EQ PUSH2 0x135 JUMPI DUP1 PUSH4 0x95EA7B3 EQ PUSH2 0x160 JUMPI DUP1 PUSH4 0x18160DDD EQ PUSH2 0x19D JUMPI JUMPDEST PUSH1 0x0 DUP1 REVERT JUMPDEST CALLVALUE DUP1 ISZERO PUSH2 0x104 JUMPI PUSH1 0x0 DUP1 REVERT JUMPDEST POP PUSH2 0x11F PUSH1 0x4 DUP1 CALLDATASIZE SUB DUP2 ADD SWAP1 PUSH2 0x11A SWAP2 SWAP1 PUSH2 0x11CB JUMP JUMPDEST PUSH2 0x439 JUMP JUMPDEST PUSH1 0x40 MLOAD PUSH2 0x12C SWAP2 SWAP1 PUSH2 0x1300 JUMP JUMPDEST PUSH1 0x40 MLOAD DUP1 SWAP2 SUB SWAP1 RETURN JUMPDEST CALLVALUE DUP1 ISZERO PUSH2 0x141 JUMPI PUSH1 0x0 DUP1 REVERT JUMPDEST POP PUSH2 0x14A PUSH2 0x444 JUMP JUMPDEST PUSH1 0x40 MLOAD PUSH2 0x157 SWAP2 SWAP1 PUSH2 0x131B JUMP JUMPDEST PUSH1 0x40 MLOAD DUP1 SWAP2 SUB SWAP1 RETURN JUMPDEST CALLVALUE DUP1 ISZERO PUSH2 0x16C JUMPI PUSH1 0x0 DUP1 REVERT JUMPDEST POP PUSH2 0x187 PUSH1 0x4 DUP1 CALLDATASIZE SUB DUP2 ADD SWAP1 PUSH2 0x182 SWAP2 SWAP1 PUSH2 0x118F JUMP JUMPDEST PUSH2 0x481 JUMP JUMPDEST PUSH1 0x40 MLOAD PUSH2 0x194 SWAP2 SWAP1 PUSH2 0x1300 JUMP JUMPDEST PUSH1 0x40 MLOAD DUP1 SWAP2 SUB SWAP1 RETURN JUMPDEST CALLVALUE DUP1 ISZERO PUSH2 0x1A9 JUMPI PUSH1 0x0 DUP1 REVERT JUMPDEST POP PUSH2 0x1B2 PUSH2 0x496 JUMP JUMPDEST PUSH1 0x40 MLOAD PUSH2 0x1BF SWAP2 SWAP1 PUSH2 0x13BD JUMP JUMPDEST PUSH1 0x40 MLOAD DUP1 SWAP2 SUB SWAP1 RETURN JUMPDEST CALLVALUE DUP1 ISZERO PUSH2 0x1D4 JUMPI PUSH1 0x0 DUP1 REVERT JUMPDEST POP PUSH2 0x1EF PUSH1 0x4 DUP1 CALLDATASIZE SUB DUP2 ADD SWAP1 PUSH2 0x1EA SWAP2 SWAP1 PUSH2 0x1140 JUMP JUMPDEST PUSH2 0x49F JUMP JUMPDEST PUSH1 0x40 MLOAD PUSH2 0x1FC SWAP2 SWAP1 PUSH2 0x1300 JUMP JUMPDEST PUSH1 0x40 MLOAD DUP1 SWAP2 SUB SWAP1 RETURN JUMPDEST PUSH2 0x20D PUSH2 0x6FF JUMP JUMPDEST STOP JUMPDEST CALLVALUE DUP1 ISZERO PUSH2 0x21B JUMPI PUSH1 0x0 DUP1 REVERT JUMPDEST POP PUSH2 0x236 PUSH1 0x4 DUP1 CALLDATASIZE SUB DUP2 ADD SWAP1 PUSH2 0x231 SWAP2 SWAP1 PUSH2 0x11F4 JUMP JUMPDEST PUSH2 0x763 JUMP JUMPDEST PUSH1 0x40 MLOAD PUSH2 0x243 SWAP2 SWAP1 PUSH2 0x1300 JUMP JUMPDEST PUSH1 0x40 MLOAD DUP1 SWAP2 SUB SWAP1 RETURN JUMPDEST CALLVALUE DUP1 ISZERO PUSH2 0x258 JUMPI PUSH1 0x0 DUP1 REVERT JUMPDEST POP PUSH2 0x273 PUSH1 0x4 DUP1 CALLDATASIZE SUB DUP2 ADD SWAP1 PUSH2 0x26E SWAP2 SWAP1 PUSH2 0x118F JUMP JUMPDEST PUSH2 0x76E JUMP JUMPDEST PUSH1 0x40 MLOAD PUSH2 0x280 SWAP2 SWAP1 PUSH2 0x1300 JUMP JUMPDEST PUSH1 0x40 MLOAD DUP1 SWAP2 SUB SWAP1 RETURN JUMPDEST CALLVALUE DUP1 ISZERO PUSH2 0x295 JUMPI PUSH1 0x0 DUP1 REVERT JUMPDEST POP PUSH2 0x2B0 PUSH1 0x4 DUP1 CALLDATASIZE SUB DUP2 ADD SWAP1 PUSH2 0x2AB SWAP2 SWAP1 PUSH2 0x10DB JUMP JUMPDEST PUSH2 0x8F3 JUMP JUMPDEST PUSH1 0x40 MLOAD PUSH2 0x2BD SWAP2 SWAP1 PUSH2 0x13BD JUMP JUMPDEST PUSH1 0x40 MLOAD DUP1 SWAP2 SUB SWAP1 RETURN JUMPDEST CALLVALUE DUP1 ISZERO PUSH2 0x2D2 JUMPI PUSH1 0x0 DUP1 REVERT JUMPDEST POP PUSH2 0x2DB PUSH2 0x93C JUMP JUMPDEST STOP JUMPDEST CALLVALUE DUP1 ISZERO PUSH2 0x2E9 JUMPI PUSH1 0x0 DUP1 REVERT JUMPDEST POP PUSH2 0x2F2 PUSH2 0x997 JUMP JUMPDEST PUSH1 0x40 MLOAD PUSH2 0x2FF SWAP2 SWAP1 PUSH2 0x131B JUMP JUMPDEST PUSH1 0x40 MLOAD DUP1 SWAP2 SUB SWAP1 RETURN JUMPDEST CALLVALUE DUP1 ISZERO PUSH2 0x314 JUMPI PUSH1 0x0 DUP1 REVERT JUMPDEST POP PUSH2 0x32F PUSH1 0x4 DUP1 CALLDATASIZE SUB DUP2 ADD SWAP1 PUSH2 0x32A SWAP2 SWAP1 PUSH2 0x118F JUMP JUMPDEST PUSH2 0x9D4 JUMP JUMPDEST PUSH1 0x40 MLOAD PUSH2 0x33C SWAP2 SWAP1 PUSH2 0x1300 JUMP JUMPDEST PUSH1 0x40 MLOAD DUP1 SWAP2 SUB SWAP1 RETURN JUMPDEST CALLVALUE DUP1 ISZERO PUSH2 0x351 JUMPI PUSH1 0x0 DUP1 REVERT JUMPDEST POP PUSH2 0x36C PUSH1 0x4 DUP1 CALLDATASIZE SUB DUP2 ADD SWAP1 PUSH2 0x367 SWAP2 SWAP1 PUSH2 0x118F JUMP JUMPDEST PUSH2 0xB3B JUMP JUMPDEST PUSH1 0x40 MLOAD PUSH2 0x379 SWAP2 SWAP1 PUSH2 0x1300 JUMP JUMPDEST PUSH1 0x40 MLOAD DUP1 SWAP2 SUB SWAP1 RETURN JUMPDEST CALLVALUE DUP1 ISZERO PUSH2 0x38E JUMPI PUSH1 0x0 DUP1 REVERT JUMPDEST POP PUSH2 0x3A9 PUSH1 0x4 DUP1 CALLDATASIZE SUB DUP2 ADD SWAP1 PUSH2 0x3A4 SWAP2 SWAP1 PUSH2 0x118F JUMP JUMPDEST PUSH2 0xC02 JUMP JUMPDEST PUSH1 0x40 MLOAD PUSH2 0x3B6 SWAP2 SWAP1 PUSH2 0x1300 JUMP JUMPDEST PUSH1 0x40 MLOAD DUP1 SWAP2 SUB SWAP1 RETURN JUMPDEST CALLVALUE DUP1 ISZERO PUSH2 0x3CB JUMPI PUSH1 0x0 DUP1 REVERT JUMPDEST POP PUSH2 0x3E6 PUSH1 0x4 DUP1 CALLDATASIZE SUB DUP2 ADD SWAP1 PUSH2 0x3E1 SWAP2 SWAP1 PUSH2 0x10DB JUMP JUMPDEST PUSH2 0xDDD JUMP JUMPDEST PUSH1 0x40 MLOAD PUSH2 0x3F3 SWAP2 SWAP1 PUSH2 0x13BD JUMP JUMPDEST PUSH1 0x40 MLOAD DUP1 SWAP2 SUB SWAP1 RETURN JUMPDEST CALLVALUE DUP1 ISZERO PUSH2 0x408 JUMPI PUSH1 0x0 DUP1 REVERT JUMPDEST POP PUSH2 0x423 PUSH1 0x4 DUP1 CALLDATASIZE SUB DUP2 ADD SWAP1 PUSH2 0x41E SWAP2 SWAP1 PUSH2 0x1104 JUMP JUMPDEST PUSH2 0xE70 JUMP JUMPDEST PUSH1 0x40 MLOAD PUSH2 0x430 SWAP2 SWAP1 PUSH2 0x13BD JUMP JUMPDEST PUSH1 0x40 MLOAD DUP1 SWAP2 SUB SWAP1 RETURN JUMPDEST PUSH1 0x0 PUSH1 0x1 SWAP1 POP SWAP2 SWAP1 POP JUMP JUMPDEST PUSH1 0x60 PUSH1 0x40 MLOAD DUP1 PUSH1 0x40 ADD PUSH1 0x40 MSTORE DUP1 PUSH1 0x15 DUP2 MSTORE PUSH1 0x20 ADD PUSH32 0x4175746F43686573732053746F726520546F6B656E0000000000000000000000 DUP2 MSTORE POP SWAP1 POP SWAP1 JUMP JUMPDEST PUSH1 0x0 PUSH2 0x48E CALLER DUP5 DUP5 PUSH2 0xEF7 JUMP JUMPDEST SWAP1 POP SWAP3 SWAP2 POP POP JUMP JUMPDEST PUSH1 0x0 DUP1 SLOAD SWAP1 POP SWAP1 JUMP JUMPDEST PUSH1 0x0 DUP2 PUSH1 0x2 PUSH1 0x0 DUP7 PUSH20 0xFFFFFFFFFFFFFFFFFFFFFFFFFFFFFFFFFFFFFFFF AND PUSH20 0xFFFFFFFFFFFFFFFFFFFFFFFFFFFFFFFFFFFFFFFF AND DUP2 MSTORE PUSH1 0x20 ADD SWAP1 DUP2 MSTORE PUSH1 0x20 ADD PUSH1 0x0 KECCAK256 PUSH1 0x0 DUP6 PUSH20 0xFFFFFFFFFFFFFFFFFFFFFFFFFFFFFFFFFFFFFFFF AND PUSH20 0xFFFFFFFFFFFFFFFFFFFFFFFFFFFFFFFFFFFFFFFF AND DUP2 MSTORE PUSH1 0x20 ADD SWAP1 DUP2 MSTORE PUSH1 0x20 ADD PUSH1 0x0 KECCAK256 SLOAD GT PUSH2 0x55F JUMPI PUSH1 0x40 MLOAD PUSH32 0x8C379A000000000000000000000000000000000000000000000000000000000 DUP2 MSTORE PUSH1 0x4 ADD PUSH2 0x556 SWAP1 PUSH2 0x133D JUMP JUMPDEST PUSH1 0x40 MLOAD DUP1 SWAP2 SUB SWAP1 REVERT JUMPDEST DUP2 PUSH1 0x2 PUSH1 0x0 DUP7 PUSH20 0xFFFFFFFFFFFFFFFFFFFFFFFFFFFFFFFFFFFFFFFF AND PUSH20 0xFFFFFFFFFFFFFFFFFFFFFFFFFFFFFFFFFFFFFFFF AND DUP2 MSTORE PUSH1 0x20 ADD SWAP1 DUP2 MSTORE PUSH1 0x20 ADD PUSH1 0x0 KECCAK256 PUSH1 0x0 DUP6 PUSH20 0xFFFFFFFFFFFFFFFFFFFFFFFFFFFFFFFFFFFFFFFF AND PUSH20 0xFFFFFFFFFFFFFFFFFFFFFFFFFFFFFFFFFFFFFFFF AND DUP2 MSTORE PUSH1 0x20 ADD SWAP1 DUP2 MSTORE PUSH1 0x20 ADD PUSH1 0x0 KECCAK256 PUSH1 0x0 DUP3 DUP3 SLOAD PUSH2 0x5EB SWAP2 SWAP1 PUSH2 0x14A4 JUMP JUMPDEST SWAP3 POP POP DUP2 SWAP1 SSTORE POP DUP2 PUSH1 0x3 PUSH1 0x0 DUP7 PUSH20 0xFFFFFFFFFFFFFFFFFFFFFFFFFFFFFFFFFFFFFFFF AND PUSH20 0xFFFFFFFFFFFFFFFFFFFFFFFFFFFFFFFFFFFFFFFF AND DUP2 MSTORE PUSH1 0x20 ADD SWAP1 DUP2 MSTORE PUSH1 0x20 ADD PUSH1 0x0 KECCAK256 PUSH1 0x0 DUP3 DUP3 SLOAD PUSH2 0x641 SWAP2 SWAP1 PUSH2 0x14A4 JUMP JUMPDEST SWAP3 POP POP DUP2 SWAP1 SSTORE POP DUP2 PUSH1 0x1 PUSH1 0x0 DUP7 PUSH20 0xFFFFFFFFFFFFFFFFFFFFFFFFFFFFFFFFFFFFFFFF AND PUSH20 0xFFFFFFFFFFFFFFFFFFFFFFFFFFFFFFFFFFFFFFFF AND DUP2 MSTORE PUSH1 0x20 ADD SWAP1 DUP2 MSTORE PUSH1 0x20 ADD PUSH1 0x0 KECCAK256 PUSH1 0x0 DUP3 DUP3 SLOAD PUSH2 0x697 SWAP2 SWAP1 PUSH2 0x14A4 JUMP JUMPDEST SWAP3 POP POP DUP2 SWAP1 SSTORE POP DUP2 PUSH1 0x1 PUSH1 0x0 DUP6 PUSH20 0xFFFFFFFFFFFFFFFFFFFFFFFFFFFFFFFFFFFFFFFF AND PUSH20 0xFFFFFFFFFFFFFFFFFFFFFFFFFFFFFFFFFFFFFFFF AND DUP2 MSTORE PUSH1 0x20 ADD SWAP1 DUP2 MSTORE PUSH1 0x20 ADD PUSH1 0x0 KECCAK256 PUSH1 0x0 DUP3 DUP3 SLOAD PUSH2 0x6ED SWAP2 SWAP1 PUSH2 0x13F4 JUMP JUMPDEST SWAP3 POP POP DUP2 SWAP1 SSTORE POP PUSH1 0x1 SWAP1 POP SWAP4 SWAP3 POP POP POP JUMP JUMPDEST PUSH1 0x64 CALLVALUE PUSH2 0x70C SWAP2 SWAP1 PUSH2 0x144A JUMP JUMPDEST PUSH1 0x1 PUSH1 0x0 CALLER PUSH20 0xFFFFFFFFFFFFFFFFFFFFFFFFFFFFFFFFFFFFFFFF AND PUSH20 0xFFFFFFFFFFFFFFFFFFFFFFFFFFFFFFFFFFFFFFFF AND DUP2 MSTORE PUSH1 0x20 ADD SWAP1 DUP2 MSTORE PUSH1 0x20 ADD PUSH1 0x0 KECCAK256 PUSH1 0x0 DUP3 DUP3 SLOAD PUSH2 0x75A SWAP2 SWAP1 PUSH2 0x13F4 JUMP JUMPDEST SWAP3 POP POP DUP2 SWAP1 SSTORE POP JUMP JUMPDEST PUSH1 0x0 PUSH1 0x1 SWAP1 POP SWAP2 SWAP1 POP JUMP JUMPDEST PUSH1 0x0 PUSH1 0x4 PUSH1 0x0 SWAP1 SLOAD SWAP1 PUSH2 0x100 EXP SWAP1 DIV PUSH20 0xFFFFFFFFFFFFFFFFFFFFFFFFFFFFFFFFFFFFFFFF AND PUSH20 0xFFFFFFFFFFFFFFFFFFFFFFFFFFFFFFFFFFFFFFFF AND CALLER PUSH20 0xFFFFFFFFFFFFFFFFFFFFFFFFFFFFFFFFFFFFFFFF AND EQ PUSH2 0x800 JUMPI PUSH1 0x40 MLOAD PUSH32 0x8C379A000000000000000000000000000000000000000000000000000000000 DUP2 MSTORE PUSH1 0x4 ADD PUSH2 0x7F7 SWAP1 PUSH2 0x139D JUMP JUMPDEST PUSH1 0x40 MLOAD DUP1 SWAP2 SUB SWAP1 REVERT JUMPDEST DUP2 PUSH1 0x2 PUSH1 0x0 DUP6 PUSH20 0xFFFFFFFFFFFFFFFFFFFFFFFFFFFFFFFFFFFFFFFF AND PUSH20 0xFFFFFFFFFFFFFFFFFFFFFFFFFFFFFFFFFFFFFFFF AND DUP2 MSTORE PUSH1 0x20 ADD SWAP1 DUP2 MSTORE PUSH1 0x20 ADD PUSH1 0x0 KECCAK256 PUSH1 0x0 CALLER PUSH20 0xFFFFFFFFFFFFFFFFFFFFFFFFFFFFFFFFFFFFFFFF AND PUSH20 0xFFFFFFFFFFFFFFFFFFFFFFFFFFFFFFFFFFFFFFFF AND DUP2 MSTORE PUSH1 0x20 ADD SWAP1 DUP2 MSTORE PUSH1 0x20 ADD PUSH1 0x0 KECCAK256 PUSH1 0x0 DUP3 DUP3 SLOAD PUSH2 0x88C SWAP2 SWAP1 PUSH2 0x14A4 JUMP JUMPDEST SWAP3 POP POP DUP2 SWAP1 SSTORE POP DUP2 PUSH1 0x3 PUSH1 0x0 DUP6 PUSH20 0xFFFFFFFFFFFFFFFFFFFFFFFFFFFFFFFFFFFFFFFF AND PUSH20 0xFFFFFFFFFFFFFFFFFFFFFFFFFFFFFFFFFFFFFFFF AND DUP2 MSTORE PUSH1 0x20 ADD SWAP1 DUP2 MSTORE PUSH1 0x20 ADD PUSH1 0x0 KECCAK256 PUSH1 0x0 DUP3 DUP3 SLOAD PUSH2 0x8E2 SWAP2 SWAP1 PUSH2 0x14A4 JUMP JUMPDEST SWAP3 POP POP DUP2 SWAP1 SSTORE POP PUSH1 0x1 SWAP1 POP SWAP3 SWAP2 POP POP JUMP JUMPDEST PUSH1 0x0 PUSH1 0x1 PUSH1 0x0 DUP4 PUSH20 0xFFFFFFFFFFFFFFFFFFFFFFFFFFFFFFFFFFFFFFFF AND PUSH20 0xFFFFFFFFFFFFFFFFFFFFFFFFFFFFFFFFFFFFFFFF AND DUP2 MSTORE PUSH1 0x20 ADD SWAP1 DUP2 MSTORE PUSH1 0x20 ADD PUSH1 0x0 KECCAK256 SLOAD SWAP1 POP SWAP2 SWAP1 POP JUMP JUMPDEST PUSH3 0x186A0 PUSH1 0x1 PUSH1 0x0 CALLER PUSH20 0xFFFFFFFFFFFFFFFFFFFFFFFFFFFFFFFFFFFFFFFF AND PUSH20 0xFFFFFFFFFFFFFFFFFFFFFFFFFFFFFFFFFFFFFFFF AND DUP2 MSTORE PUSH1 0x20 ADD SWAP1 DUP2 MSTORE PUSH1 0x20 ADD PUSH1 0x0 KECCAK256 PUSH1 0x0 DUP3 DUP3 SLOAD PUSH2 0x98E SWAP2 SWAP1 PUSH2 0x13F4 JUMP JUMPDEST SWAP3 POP POP DUP2 SWAP1 SSTORE POP JUMP JUMPDEST PUSH1 0x60 PUSH1 0x40 MLOAD DUP1 PUSH1 0x40 ADD PUSH1 0x40 MSTORE DUP1 PUSH1 0x6 DUP2 MSTORE PUSH1 0x20 ADD PUSH32 0x4143485353540000000000000000000000000000000000000000000000000000 DUP2 MSTORE POP SWAP1 POP SWAP1 JUMP JUMPDEST PUSH1 0x0 DUP2 PUSH2 0x9E0 CALLER PUSH2 0xDDD JUMP JUMPDEST GT PUSH2 0xA20 JUMPI PUSH1 0x40 MLOAD PUSH32 0x8C379A000000000000000000000000000000000000000000000000000000000 DUP2 MSTORE PUSH1 0x4 ADD PUSH2 0xA17 SWAP1 PUSH2 0x135D JUMP JUMPDEST PUSH1 0x40 MLOAD DUP1 SWAP2 SUB SWAP1 REVERT JUMPDEST DUP2 PUSH1 0x1 PUSH1 0x0 CALLER PUSH20 0xFFFFFFFFFFFFFFFFFFFFFFFFFFFFFFFFFFFFFFFF AND PUSH20 0xFFFFFFFFFFFFFFFFFFFFFFFFFFFFFFFFFFFFFFFF AND DUP2 MSTORE PUSH1 0x20 ADD SWAP1 DUP2 MSTORE PUSH1 0x20 ADD PUSH1 0x0 KECCAK256 PUSH1 0x0 DUP3 DUP3 SLOAD PUSH2 0xA6F SWAP2 SWAP1 PUSH2 0x14A4 JUMP JUMPDEST SWAP3 POP POP DUP2 SWAP1 SSTORE POP DUP2 PUSH1 0x1 PUSH1 0x0 DUP6 PUSH20 0xFFFFFFFFFFFFFFFFFFFFFFFFFFFFFFFFFFFFFFFF AND PUSH20 0xFFFFFFFFFFFFFFFFFFFFFFFFFFFFFFFFFFFFFFFF AND DUP2 MSTORE PUSH1 0x20 ADD SWAP1 DUP2 MSTORE PUSH1 0x20 ADD PUSH1 0x0 KECCAK256 PUSH1 0x0 DUP3 DUP3 SLOAD PUSH2 0xAC5 SWAP2 SWAP1 PUSH2 0x13F4 JUMP JUMPDEST SWAP3 POP POP DUP2 SWAP1 SSTORE POP DUP3 PUSH20 0xFFFFFFFFFFFFFFFFFFFFFFFFFFFFFFFFFFFFFFFF AND CALLER PUSH20 0xFFFFFFFFFFFFFFFFFFFFFFFFFFFFFFFFFFFFFFFF AND PUSH32 0xDDF252AD1BE2C89B69C2B068FC378DAA952BA7F163C4A11628F55A4DF523B3EF DUP5 PUSH1 0x40 MLOAD PUSH2 0xB29 SWAP2 SWAP1 PUSH2 0x13BD JUMP JUMPDEST PUSH1 0x40 MLOAD DUP1 SWAP2 SUB SWAP1 LOG3 PUSH1 0x1 SWAP1 POP SWAP3 SWAP2 POP POP JUMP JUMPDEST PUSH1 0x0 PUSH1 0x4 PUSH1 0x0 SWAP1 SLOAD SWAP1 PUSH2 0x100 EXP SWAP1 DIV PUSH20 0xFFFFFFFFFFFFFFFFFFFFFFFFFFFFFFFFFFFFFFFF AND PUSH20 0xFFFFFFFFFFFFFFFFFFFFFFFFFFFFFFFFFFFFFFFF AND CALLER PUSH20 0xFFFFFFFFFFFFFFFFFFFFFFFFFFFFFFFFFFFFFFFF AND EQ PUSH2 0xBCD JUMPI PUSH1 0x40 MLOAD PUSH32 0x8C379A000000000000000000000000000000000000000000000000000000000 DUP2 MSTORE PUSH1 0x4 ADD PUSH2 0xBC4 SWAP1 PUSH2 0x139D JUMP JUMPDEST PUSH1 0x40 MLOAD DUP1 SWAP2 SUB SWAP1 REVERT JUMPDEST PUSH2 0xBFA DUP4 PUSH1 0x4 PUSH1 0x0 SWAP1 SLOAD SWAP1 PUSH2 0x100 EXP SWAP1 DIV PUSH20 0xFFFFFFFFFFFFFFFFFFFFFFFFFFFFFFFFFFFFFFFF AND DUP5 PUSH2 0xEF7 JUMP JUMPDEST SWAP1 POP SWAP3 SWAP2 POP POP JUMP JUMPDEST PUSH1 0x0 PUSH1 0x4 PUSH1 0x0 SWAP1 SLOAD SWAP1 PUSH2 0x100 EXP SWAP1 DIV PUSH20 0xFFFFFFFFFFFFFFFFFFFFFFFFFFFFFFFFFFFFFFFF AND PUSH20 0xFFFFFFFFFFFFFFFFFFFFFFFFFFFFFFFFFFFFFFFF AND CALLER PUSH20 0xFFFFFFFFFFFFFFFFFFFFFFFFFFFFFFFFFFFFFFFF AND EQ PUSH2 0xC94 JUMPI PUSH1 0x40 MLOAD PUSH32 0x8C379A000000000000000000000000000000000000000000000000000000000 DUP2 MSTORE PUSH1 0x4 ADD PUSH2 0xC8B SWAP1 PUSH2 0x139D JUMP JUMPDEST PUSH1 0x40 MLOAD DUP1 SWAP2 SUB SWAP1 REVERT JUMPDEST DUP2 PUSH2 0xC9E DUP5 PUSH2 0xDDD JUMP JUMPDEST GT PUSH2 0xCDE JUMPI PUSH1 0x40 MLOAD PUSH32 0x8C379A000000000000000000000000000000000000000000000000000000000 DUP2 MSTORE PUSH1 0x4 ADD PUSH2 0xCD5 SWAP1 PUSH2 0x135D JUMP JUMPDEST PUSH1 0x40 MLOAD DUP1 SWAP2 SUB SWAP1 REVERT JUMPDEST DUP2 PUSH1 0x0 DUP1 DUP3 DUP3 SLOAD PUSH2 0xCEF SWAP2 SWAP1 PUSH2 0x14A4 JUMP JUMPDEST SWAP3 POP POP DUP2 SWAP1 SSTORE POP DUP2 PUSH1 0x1 PUSH1 0x0 DUP6 PUSH20 0xFFFFFFFFFFFFFFFFFFFFFFFFFFFFFFFFFFFFFFFF AND PUSH20 0xFFFFFFFFFFFFFFFFFFFFFFFFFFFFFFFFFFFFFFFF AND DUP2 MSTORE PUSH1 0x20 ADD SWAP1 DUP2 MSTORE PUSH1 0x20 ADD PUSH1 0x0 KECCAK256 PUSH1 0x0 DUP3 DUP3 SLOAD PUSH2 0xD45 SWAP2 SWAP1 PUSH2 0x14A4 JUMP JUMPDEST SWAP3 POP POP DUP2 SWAP1 SSTORE POP PUSH1 0x4 PUSH1 0x0 SWAP1 SLOAD SWAP1 PUSH2 0x100 EXP SWAP1 DIV PUSH20 0xFFFFFFFFFFFFFFFFFFFFFFFFFFFFFFFFFFFFFFFF AND PUSH20 0xFFFFFFFFFFFFFFFFFFFFFFFFFFFFFFFFFFFFFFFF AND DUP4 PUSH20 0xFFFFFFFFFFFFFFFFFFFFFFFFFFFFFFFFFFFFFFFF AND PUSH32 0xDDF252AD1BE2C89B69C2B068FC378DAA952BA7F163C4A11628F55A4DF523B3EF DUP5 PUSH1 0x40 MLOAD PUSH2 0xDCB SWAP2 SWAP1 PUSH2 0x13BD JUMP JUMPDEST PUSH1 0x40 MLOAD DUP1 SWAP2 SUB SWAP1 LOG3 PUSH1 0x1 SWAP1 POP SWAP3 SWAP2 POP POP JUMP JUMPDEST PUSH1 0x0 PUSH1 0x3 PUSH1 0x0 DUP4 PUSH20 0xFFFFFFFFFFFFFFFFFFFFFFFFFFFFFFFFFFFFFFFF AND PUSH20 0xFFFFFFFFFFFFFFFFFFFFFFFFFFFFFFFFFFFFFFFF AND DUP2 MSTORE PUSH1 0x20 ADD SWAP1 DUP2 MSTORE PUSH1 0x20 ADD PUSH1 0x0 KECCAK256 SLOAD PUSH1 0x1 PUSH1 0x0 DUP5 PUSH20 0xFFFFFFFFFFFFFFFFFFFFFFFFFFFFFFFFFFFFFFFF AND PUSH20 0xFFFFFFFFFFFFFFFFFFFFFFFFFFFFFFFFFFFFFFFF AND DUP2 MSTORE PUSH1 0x20 ADD SWAP1 DUP2 MSTORE PUSH1 0x20 ADD PUSH1 0x0 KECCAK256 SLOAD PUSH2 0xE69 SWAP2 SWAP1 PUSH2 0x14A4 JUMP JUMPDEST SWAP1 POP SWAP2 SWAP1 POP JUMP JUMPDEST PUSH1 0x0 PUSH1 0x2 PUSH1 0x0 DUP5 PUSH20 0xFFFFFFFFFFFFFFFFFFFFFFFFFFFFFFFFFFFFFFFF AND PUSH20 0xFFFFFFFFFFFFFFFFFFFFFFFFFFFFFFFFFFFFFFFF AND DUP2 MSTORE PUSH1 0x20 ADD SWAP1 DUP2 MSTORE PUSH1 0x20 ADD PUSH1 0x0 KECCAK256 PUSH1 0x0 DUP4 PUSH20 0xFFFFFFFFFFFFFFFFFFFFFFFFFFFFFFFFFFFFFFFF AND PUSH20 0xFFFFFFFFFFFFFFFFFFFFFFFFFFFFFFFFFFFFFFFF AND DUP2 MSTORE PUSH1 0x20 ADD SWAP1 DUP2 MSTORE PUSH1 0x20 ADD PUSH1 0x0 KECCAK256 SLOAD SWAP1 POP SWAP3 SWAP2 POP POP JUMP JUMPDEST PUSH1 0x0 DUP2 PUSH2 0xF03 DUP6 PUSH2 0xDDD JUMP JUMPDEST GT PUSH2 0xF43 JUMPI PUSH1 0x40 MLOAD PUSH32 0x8C379A000000000000000000000000000000000000000000000000000000000 DUP2 MSTORE PUSH1 0x4 ADD PUSH2 0xF3A SWAP1 PUSH2 0x137D JUMP JUMPDEST PUSH1 0x40 MLOAD DUP1 SWAP2 SUB SWAP1 REVERT JUMPDEST DUP2 PUSH1 0x2 PUSH1 0x0 DUP7 PUSH20 0xFFFFFFFFFFFFFFFFFFFFFFFFFFFFFFFFFFFFFFFF AND PUSH20 0xFFFFFFFFFFFFFFFFFFFFFFFFFFFFFFFFFFFFFFFF AND DUP2 MSTORE PUSH1 0x20 ADD SWAP1 DUP2 MSTORE PUSH1 0x20 ADD PUSH1 0x0 KECCAK256 PUSH1 0x0 DUP6 PUSH20 0xFFFFFFFFFFFFFFFFFFFFFFFFFFFFFFFFFFFFFFFF AND PUSH20 0xFFFFFFFFFFFFFFFFFFFFFFFFFFFFFFFFFFFFFFFF AND DUP2 MSTORE PUSH1 0x20 ADD SWAP1 DUP2 MSTORE PUSH1 0x20 ADD PUSH1 0x0 KECCAK256 PUSH1 0x0 DUP3 DUP3 SLOAD PUSH2 0xFCF SWAP2 SWAP1 PUSH2 0x13F4 JUMP JUMPDEST SWAP3 POP POP DUP2 SWAP1 SSTORE POP DUP2 PUSH1 0x3 PUSH1 0x0 DUP7 PUSH20 0xFFFFFFFFFFFFFFFFFFFFFFFFFFFFFFFFFFFFFFFF AND PUSH20 0xFFFFFFFFFFFFFFFFFFFFFFFFFFFFFFFFFFFFFFFF AND DUP2 MSTORE PUSH1 0x20 ADD SWAP1 DUP2 MSTORE PUSH1 0x20 ADD PUSH1 0x0 KECCAK256 PUSH1 0x0 DUP3 DUP3 SLOAD PUSH2 0x1025 SWAP2 SWAP1 PUSH2 0x13F4 JUMP JUMPDEST SWAP3 POP POP DUP2 SWAP1 SSTORE POP DUP3 PUSH20 0xFFFFFFFFFFFFFFFFFFFFFFFFFFFFFFFFFFFFFFFF AND DUP5 PUSH20 0xFFFFFFFFFFFFFFFFFFFFFFFFFFFFFFFFFFFFFFFF AND PUSH32 0x8C5BE1E5EBEC7D5BD14F71427D1E84F3DD0314C0F7B2291E5B200AC8C7C3B925 DUP5 PUSH1 0x40 MLOAD PUSH2 0x1089 SWAP2 SWAP1 PUSH2 0x13BD JUMP JUMPDEST PUSH1 0x40 MLOAD DUP1 SWAP2 SUB SWAP1 LOG3 PUSH1 0x1 SWAP1 POP SWAP4 SWAP3 POP POP POP JUMP JUMPDEST PUSH1 0x0 DUP2 CALLDATALOAD SWAP1 POP PUSH2 0x10AB DUP2 PUSH2 0x16D5 JUMP JUMPDEST SWAP3 SWAP2 POP POP JUMP JUMPDEST PUSH1 0x0 DUP2 CALLDATALOAD SWAP1 POP PUSH2 0x10C0 DUP2 PUSH2 0x16EC JUMP JUMPDEST SWAP3 SWAP2 POP POP JUMP JUMPDEST PUSH1 0x0 DUP2 CALLDATALOAD SWAP1 POP PUSH2 0x10D5 DUP2 PUSH2 0x1703 JUMP JUMPDEST SWAP3 SWAP2 POP POP JUMP JUMPDEST PUSH1 0x0 PUSH1 0x20 DUP3 DUP5 SUB SLT ISZERO PUSH2 0x10ED JUMPI PUSH1 0x0 DUP1 REVERT JUMPDEST PUSH1 0x0 PUSH2 0x10FB DUP5 DUP3 DUP6 ADD PUSH2 0x109C JUMP JUMPDEST SWAP2 POP POP SWAP3 SWAP2 POP POP JUMP JUMPDEST PUSH1 0x0 DUP1 PUSH1 0x40 DUP4 DUP6 SUB SLT ISZERO PUSH2 0x1117 JUMPI PUSH1 0x0 DUP1 REVERT JUMPDEST PUSH1 0x0 PUSH2 0x1125 DUP6 DUP3 DUP7 ADD PUSH2 0x109C JUMP JUMPDEST SWAP3 POP POP PUSH1 0x20 PUSH2 0x1136 DUP6 DUP3 DUP7 ADD PUSH2 0x109C JUMP JUMPDEST SWAP2 POP POP SWAP3 POP SWAP3 SWAP1 POP JUMP JUMPDEST PUSH1 0x0 DUP1 PUSH1 0x0 PUSH1 0x60 DUP5 DUP7 SUB SLT ISZERO PUSH2 0x1155 JUMPI PUSH1 0x0 DUP1 REVERT JUMPDEST PUSH1 0x0 PUSH2 0x1163 DUP7 DUP3 DUP8 ADD PUSH2 0x109C JUMP JUMPDEST SWAP4 POP POP PUSH1 0x20 PUSH2 0x1174 DUP7 DUP3 DUP8 ADD PUSH2 0x109C JUMP JUMPDEST SWAP3 POP POP PUSH1 0x40 PUSH2 0x1185 DUP7 DUP3 DUP8 ADD PUSH2 0x10C6 JUMP JUMPDEST SWAP2 POP POP SWAP3 POP SWAP3 POP SWAP3 JUMP JUMPDEST PUSH1 0x0 DUP1 PUSH1 0x40 DUP4 DUP6 SUB SLT ISZERO PUSH2 0x11A2 JUMPI PUSH1 0x0 DUP1 REVERT JUMPDEST PUSH1 0x0 PUSH2 0x11B0 DUP6 DUP3 DUP7 ADD PUSH2 0x109C JUMP JUMPDEST SWAP3 POP POP PUSH1 0x20 PUSH2 0x11C1 DUP6 DUP3 DUP7 ADD PUSH2 0x10C6 JUMP JUMPDEST SWAP2 POP POP SWAP3 POP SWAP3 SWAP1 POP JUMP JUMPDEST PUSH1 0x0 PUSH1 0x20 DUP3 DUP5 SUB SLT ISZERO PUSH2 0x11DD JUMPI PUSH1 0x0 DUP1 REVERT JUMPDEST PUSH1 0x0 PUSH2 0x11EB DUP5 DUP3 DUP6 ADD PUSH2 0x10B1 JUMP JUMPDEST SWAP2 POP POP SWAP3 SWAP2 POP POP JUMP JUMPDEST PUSH1 0x0 PUSH1 0x20 DUP3 DUP5 SUB SLT ISZERO PUSH2 0x1206 JUMPI PUSH1 0x0 DUP1 REVERT JUMPDEST PUSH1 0x0 PUSH2 0x1214 DUP5 DUP3 DUP6 ADD PUSH2 0x10C6 JUMP JUMPDEST SWAP2 POP POP SWAP3 SWAP2 POP POP JUMP JUMPDEST PUSH2 0x1226 DUP2 PUSH2 0x14EA JUMP JUMPDEST DUP3 MSTORE POP POP JUMP JUMPDEST PUSH1 0x0 PUSH2 0x1237 DUP3 PUSH2 0x13D8 JUMP JUMPDEST PUSH2 0x1241 DUP2 DUP6 PUSH2 0x13E3 JUMP JUMPDEST SWAP4 POP PUSH2 0x1251 DUP2 DUP6 PUSH1 0x20 DUP7 ADD PUSH2 0x154C JUMP JUMPDEST PUSH2 0x125A DUP2 PUSH2 0x15AE JUMP JUMPDEST DUP5 ADD SWAP2 POP POP SWAP3 SWAP2 POP POP JUMP JUMPDEST PUSH1 0x0 PUSH2 0x1272 PUSH1 0x10 DUP4 PUSH2 0x13E3 JUMP JUMPDEST SWAP2 POP PUSH2 0x127D DUP3 PUSH2 0x15BF JUMP JUMPDEST PUSH1 0x20 DUP3 ADD SWAP1 POP SWAP2 SWAP1 POP JUMP JUMPDEST PUSH1 0x0 PUSH2 0x1295 PUSH1 0x2C DUP4 PUSH2 0x13E3 JUMP JUMPDEST SWAP2 POP PUSH2 0x12A0 DUP3 PUSH2 0x15E8 JUMP JUMPDEST PUSH1 0x40 DUP3 ADD SWAP1 POP SWAP2 SWAP1 POP JUMP JUMPDEST PUSH1 0x0 PUSH2 0x12B8 PUSH1 0x2B DUP4 PUSH2 0x13E3 JUMP JUMPDEST SWAP2 POP PUSH2 0x12C3 DUP3 PUSH2 0x1637 JUMP JUMPDEST PUSH1 0x40 DUP3 ADD SWAP1 POP SWAP2 SWAP1 POP JUMP JUMPDEST PUSH1 0x0 PUSH2 0x12DB PUSH1 0x2B DUP4 PUSH2 0x13E3 JUMP JUMPDEST SWAP2 POP PUSH2 0x12E6 DUP3 PUSH2 0x1686 JUMP JUMPDEST PUSH1 0x40 DUP3 ADD SWAP1 POP SWAP2 SWAP1 POP JUMP JUMPDEST PUSH2 0x12FA DUP2 PUSH2 0x1542 JUMP JUMPDEST DUP3 MSTORE POP POP JUMP JUMPDEST PUSH1 0x0 PUSH1 0x20 DUP3 ADD SWAP1 POP PUSH2 0x1315 PUSH1 0x0 DUP4 ADD DUP5 PUSH2 0x121D JUMP JUMPDEST SWAP3 SWAP2 POP POP JUMP JUMPDEST PUSH1 0x0 PUSH1 0x20 DUP3 ADD SWAP1 POP DUP2 DUP2 SUB PUSH1 0x0 DUP4 ADD MSTORE PUSH2 0x1335 DUP2 DUP5 PUSH2 0x122C JUMP JUMPDEST SWAP1 POP SWAP3 SWAP2 POP POP JUMP JUMPDEST PUSH1 0x0 PUSH1 0x20 DUP3 ADD SWAP1 POP DUP2 DUP2 SUB PUSH1 0x0 DUP4 ADD MSTORE PUSH2 0x1356 DUP2 PUSH2 0x1265 JUMP JUMPDEST SWAP1 POP SWAP2 SWAP1 POP JUMP JUMPDEST PUSH1 0x0 PUSH1 0x20 DUP3 ADD SWAP1 POP DUP2 DUP2 SUB PUSH1 0x0 DUP4 ADD MSTORE PUSH2 0x1376 DUP2 PUSH2 0x1288 JUMP JUMPDEST SWAP1 POP SWAP2 SWAP1 POP JUMP JUMPDEST PUSH1 0x0 PUSH1 0x20 DUP3 ADD SWAP1 POP DUP2 DUP2 SUB PUSH1 0x0 DUP4 ADD MSTORE PUSH2 0x1396 DUP2 PUSH2 0x12AB JUMP JUMPDEST SWAP1 POP SWAP2 SWAP1 POP JUMP JUMPDEST PUSH1 0x0 PUSH1 0x20 DUP3 ADD SWAP1 POP DUP2 DUP2 SUB PUSH1 0x0 DUP4 ADD MSTORE PUSH2 0x13B6 DUP2 PUSH2 0x12CE JUMP JUMPDEST SWAP1 POP SWAP2 SWAP1 POP JUMP JUMPDEST PUSH1 0x0 PUSH1 0x20 DUP3 ADD SWAP1 POP PUSH2 0x13D2 PUSH1 0x0 DUP4 ADD DUP5 PUSH2 0x12F1 JUMP JUMPDEST SWAP3 SWAP2 POP POP JUMP JUMPDEST PUSH1 0x0 DUP2 MLOAD SWAP1 POP SWAP2 SWAP1 POP JUMP JUMPDEST PUSH1 0x0 DUP3 DUP3 MSTORE PUSH1 0x20 DUP3 ADD SWAP1 POP SWAP3 SWAP2 POP POP JUMP JUMPDEST PUSH1 0x0 PUSH2 0x13FF DUP3 PUSH2 0x1542 JUMP JUMPDEST SWAP2 POP PUSH2 0x140A DUP4 PUSH2 0x1542 JUMP JUMPDEST SWAP3 POP DUP3 PUSH32 0xFFFFFFFFFFFFFFFFFFFFFFFFFFFFFFFFFFFFFFFFFFFFFFFFFFFFFFFFFFFFFFFF SUB DUP3 GT ISZERO PUSH2 0x143F JUMPI PUSH2 0x143E PUSH2 0x157F JUMP JUMPDEST JUMPDEST DUP3 DUP3 ADD SWAP1 POP SWAP3 SWAP2 POP POP JUMP JUMPDEST PUSH1 0x0 PUSH2 0x1455 DUP3 PUSH2 0x1542 JUMP JUMPDEST SWAP2 POP PUSH2 0x1460 DUP4 PUSH2 0x1542 JUMP JUMPDEST SWAP3 POP DUP2 PUSH32 0xFFFFFFFFFFFFFFFFFFFFFFFFFFFFFFFFFFFFFFFFFFFFFFFFFFFFFFFFFFFFFFFF DIV DUP4 GT DUP3 ISZERO ISZERO AND ISZERO PUSH2 0x1499 JUMPI PUSH2 0x1498 PUSH2 0x157F JUMP JUMPDEST JUMPDEST DUP3 DUP3 MUL SWAP1 POP SWAP3 SWAP2 POP POP JUMP JUMPDEST PUSH1 0x0 PUSH2 0x14AF DUP3 PUSH2 0x1542 JUMP JUMPDEST SWAP2 POP PUSH2 0x14BA DUP4 PUSH2 0x1542 JUMP JUMPDEST SWAP3 POP DUP3 DUP3 LT ISZERO PUSH2 0x14CD JUMPI PUSH2 0x14CC PUSH2 0x157F JUMP JUMPDEST JUMPDEST DUP3 DUP3 SUB SWAP1 POP SWAP3 SWAP2 POP POP JUMP JUMPDEST PUSH1 0x0 PUSH2 0x14E3 DUP3 PUSH2 0x1522 JUMP JUMPDEST SWAP1 POP SWAP2 SWAP1 POP JUMP JUMPDEST PUSH1 0x0 DUP2 ISZERO ISZERO SWAP1 POP SWAP2 SWAP1 POP JUMP JUMPDEST PUSH1 0x0 PUSH32 0xFFFFFFFF00000000000000000000000000000000000000000000000000000000 DUP3 AND SWAP1 POP SWAP2 SWAP1 POP JUMP JUMPDEST PUSH1 0x0 PUSH20 0xFFFFFFFFFFFFFFFFFFFFFFFFFFFFFFFFFFFFFFFF DUP3 AND SWAP1 POP SWAP2 SWAP1 POP JUMP JUMPDEST PUSH1 0x0 DUP2 SWAP1 POP SWAP2 SWAP1 POP JUMP JUMPDEST PUSH1 0x0 JUMPDEST DUP4 DUP2 LT ISZERO PUSH2 0x156A JUMPI DUP1 DUP3 ADD MLOAD DUP2 DUP5 ADD MSTORE PUSH1 0x20 DUP2 ADD SWAP1 POP PUSH2 0x154F JUMP JUMPDEST DUP4 DUP2 GT ISZERO PUSH2 0x1579 JUMPI PUSH1 0x0 DUP5 DUP5 ADD MSTORE JUMPDEST POP POP POP POP JUMP JUMPDEST PUSH32 0x4E487B7100000000000000000000000000000000000000000000000000000000 PUSH1 0x0 MSTORE PUSH1 0x11 PUSH1 0x4 MSTORE PUSH1 0x24 PUSH1 0x0 REVERT JUMPDEST PUSH1 0x0 PUSH1 0x1F NOT PUSH1 0x1F DUP4 ADD AND SWAP1 POP SWAP2 SWAP1 POP JUMP JUMPDEST PUSH32 0x416D6F756E7420746F6F206C6172676500000000000000000000000000000000 PUSH1 0x0 DUP3 ADD MSTORE POP JUMP JUMPDEST PUSH32 0x546F6F2066657720746F6B656E732061726520756E6C6F636B656420696E2079 PUSH1 0x0 DUP3 ADD MSTORE PUSH32 0x6F7572206163636F756E74210000000000000000000000000000000000000000 PUSH1 0x20 DUP3 ADD MSTORE POP JUMP JUMPDEST PUSH32 0x546F6F2066657720746F6B656E732061726520756E6C6F636B656420696E2079 PUSH1 0x0 DUP3 ADD MSTORE PUSH32 0x6F7572206163636F756E74000000000000000000000000000000000000000000 PUSH1 0x20 DUP3 ADD MSTORE POP JUMP JUMPDEST PUSH32 0x4F6E6C79207468652053746F726546726F6E7420697320616C6C6F7765642074 PUSH1 0x0 DUP3 ADD MSTORE PUSH32 0x6F2075736520746869732E000000000000000000000000000000000000000000 PUSH1 0x20 DUP3 ADD MSTORE POP JUMP JUMPDEST PUSH2 0x16DE DUP2 PUSH2 0x14D8 JUMP JUMPDEST DUP2 EQ PUSH2 0x16E9 JUMPI PUSH1 0x0 DUP1 REVERT JUMPDEST POP JUMP JUMPDEST PUSH2 0x16F5 DUP2 PUSH2 0x14F6 JUMP JUMPDEST DUP2 EQ PUSH2 0x1700 JUMPI PUSH1 0x0 DUP1 REVERT JUMPDEST POP JUMP JUMPDEST PUSH2 0x170C DUP2 PUSH2 0x1542 JUMP JUMPDEST DUP2 EQ PUSH2 0x1717 JUMPI PUSH1 0x0 DUP1 REVERT JUMPDEST POP JUMP INVALID LOG2 PUSH5 0x6970667358 0x22 SLT KECCAK256 0xDA 0xDE SWAP13 0x4A PUSH20 0x7A982F26F8F7D789524A6649355B13872DE3BE24 0x5D 0xC7 0x4F ADDMOD 0xF6 0xC8 CALLCODE PUSH5 0x736F6C6343 STOP ADDMOD ADD STOP CALLER "
		},
		"gasEstimates": {
			"creation": {
				"codeDepositCost": "2744200",
				"executionCost": "infinite",
				"totalCost": "infinite"
			},
			"external": {
				"CurrencyProvider()": "1390",
				"ProviderAddress()": "1324",
				"_auctions(uint256)": "infinite",
				"approve(address,uint256)": "infinite",
				"balanceOf(address)": "infinite",
				"bid(uint256,uint256)": "infinite",
				"bid(uint256,uint256,string)": "infinite",
				"buyUnit(uint8)": "infinite",
				"buyUnit(uint8,string)": "infinite",
				"getAssetIds(uint256)": "infinite",
				"getAuctionCount()": "1233",
				"getToken(uint256)": "infinite",
				"getUnitState(uint256)": "1684",
				"name()": "infinite",
				"ownerOf(uint256)": "1704",
				"startAuction(uint256[],uint256,string)": "infinite",
				"supportsInterface(bytes4)": "630",
				"symbol()": "infinite",
				"tokensOfOwner(address)": "infinite",
				"totalSupply()": "1249",
				"transfer(address,uint256)": "infinite",
				"transferFrom(address,address,uint256)": "infinite",
				"withdrawAuction(uint256)": "infinite"
			},
			"internal": {
				"_squadBattle(uint256,uint256)": "infinite"
			}
		},
		"methodIdentifiers": {
			"CurrencyProvider()": "99975226",
			"ProviderAddress()": "d1454521",
			"_auctions(uint256)": "17dc6bf6",
			"approve(address,uint256)": "095ea7b3",
			"balanceOf(address)": "70a08231",
			"bid(uint256,uint256)": "598647f8",
			"bid(uint256,uint256,string)": "76d4fc57",
			"buyUnit(uint8)": "27e78202",
			"buyUnit(uint8,string)": "898f4299",
			"getAssetIds(uint256)": "a367dd3c",
			"getAuctionCount()": "c44e6640",
			"getToken(uint256)": "e4b50cb8",
			"getUnitState(uint256)": "2e009f76",
			"name()": "06fdde03",
			"ownerOf(uint256)": "6352211e",
			"startAuction(uint256[],uint256,string)": "54c8a21e",
			"supportsInterface(bytes4)": "01ffc9a7",
			"symbol()": "95d89b41",
			"tokensOfOwner(address)": "8462151c",
			"totalSupply()": "18160ddd",
			"transfer(address,uint256)": "a9059cbb",
			"transferFrom(address,address,uint256)": "23b872dd",
			"withdrawAuction(uint256)": "b5fc9833"
		}
	},
	"abi": [
		{
			"inputs": [],
			"stateMutability": "nonpayable",
			"type": "constructor"
		},
		{
			"anonymous": false,
			"inputs": [
				{
					"indexed": false,
					"internalType": "address",
					"name": "owner",
					"type": "address"
				},
				{
					"indexed": false,
					"internalType": "address",
					"name": "approved",
					"type": "address"
				},
				{
					"indexed": false,
					"internalType": "uint256",
					"name": "tokenId",
					"type": "uint256"
				}
			],
			"name": "Approval",
			"type": "event"
		},
		{
			"anonymous": false,
			"inputs": [
				{
					"indexed": false,
					"internalType": "address",
					"name": "owner",
					"type": "address"
				},
				{
					"indexed": false,
					"internalType": "uint256",
					"name": "_id",
					"type": "uint256"
				}
			],
			"name": "SquadCreated",
			"type": "event"
		},
		{
			"anonymous": false,
			"inputs": [
				{
					"indexed": false,
					"internalType": "address",
					"name": "from",
					"type": "address"
				},
				{
					"indexed": false,
					"internalType": "address",
					"name": "to",
					"type": "address"
				},
				{
					"indexed": false,
					"internalType": "uint256",
					"name": "tokenId",
					"type": "uint256"
				}
			],
			"name": "Transfer",
			"type": "event"
		},
		{
			"anonymous": false,
			"inputs": [
				{
					"indexed": false,
					"internalType": "address",
					"name": "owner",
					"type": "address"
				},
				{
					"indexed": true,
					"internalType": "uint256",
					"name": "id",
					"type": "uint256"
				}
			],
			"name": "UnitCreated",
			"type": "event"
		},
		{
			"inputs": [],
			"name": "CurrencyProvider",
			"outputs": [
				{
					"internalType": "contract StoreToken",
					"name": "",
					"type": "address"
				}
			],
			"stateMutability": "view",
			"type": "function"
		},
		{
			"inputs": [],
			"name": "ProviderAddress",
			"outputs": [
				{
					"internalType": "address",
					"name": "",
					"type": "address"
				}
			],
			"stateMutability": "view",
			"type": "function"
		},
		{
			"inputs": [
				{
					"internalType": "uint256",
					"name": "",
					"type": "uint256"
				}
			],
			"name": "_auctions",
			"outputs": [
				{
					"internalType": "uint256",
					"name": "highestBid",
					"type": "uint256"
				},
				{
					"internalType": "address",
					"name": "highestBidder",
					"type": "address"
				},
				{
					"internalType": "address",
					"name": "host",
					"type": "address"
				},
				{
					"internalType": "string",
					"name": "name",
					"type": "string"
				},
				{
					"internalType": "string",
					"name": "highestBidText",
					"type": "string"
				},
				{
					"internalType": "uint256",
					"name": "endTime",
					"type": "uint256"
				}
			],
			"stateMutability": "view",
			"type": "function"
		},
		{
			"inputs": [
				{
					"internalType": "address",
					"name": "_to",
					"type": "address"
				},
				{
					"internalType": "uint256",
					"name": "_tokenId",
					"type": "uint256"
				}
			],
			"name": "approve",
			"outputs": [],
			"stateMutability": "nonpayable",
			"type": "function"
		},
		{
			"inputs": [
				{
					"internalType": "address",
					"name": "_owner",
					"type": "address"
				}
			],
			"name": "balanceOf",
			"outputs": [
				{
					"internalType": "uint256",
					"name": "balance",
					"type": "uint256"
				}
			],
			"stateMutability": "view",
			"type": "function"
		},
		{
			"inputs": [
				{
					"internalType": "uint256",
					"name": "_auctionId",
					"type": "uint256"
				},
				{
					"internalType": "uint256",
					"name": "_value",
					"type": "uint256"
				}
			],
			"name": "bid",
			"outputs": [],
			"stateMutability": "nonpayable",
			"type": "function"
		},
		{
			"inputs": [
				{
					"internalType": "uint256",
					"name": "_auctionId",
					"type": "uint256"
				},
				{
					"internalType": "uint256",
					"name": "_value",
					"type": "uint256"
				},
				{
					"internalType": "string",
					"name": "_msg",
					"type": "string"
				}
			],
			"name": "bid",
			"outputs": [],
			"stateMutability": "nonpayable",
			"type": "function"
		},
		{
			"inputs": [
				{
					"internalType": "enum UnitType",
					"name": "_type",
					"type": "uint8"
				}
			],
			"name": "buyUnit",
			"outputs": [
				{
					"internalType": "uint256",
					"name": "",
					"type": "uint256"
				}
			],
			"stateMutability": "nonpayable",
			"type": "function"
		},
		{
			"inputs": [
				{
					"internalType": "enum UnitType",
					"name": "_type",
					"type": "uint8"
				},
				{
					"internalType": "string",
					"name": "_name",
					"type": "string"
				}
			],
			"name": "buyUnit",
			"outputs": [
				{
					"internalType": "uint256",
					"name": "",
					"type": "uint256"
				}
			],
			"stateMutability": "nonpayable",
			"type": "function"
		},
		{
			"inputs": [
				{
					"internalType": "uint256",
					"name": "_auctionId",
					"type": "uint256"
				}
			],
			"name": "getAssetIds",
			"outputs": [
				{
					"internalType": "uint256[]",
					"name": "assetIds",
					"type": "uint256[]"
				}
			],
			"stateMutability": "view",
			"type": "function"
		},
		{
			"inputs": [],
			"name": "getAuctionCount",
			"outputs": [
				{
					"internalType": "uint256",
					"name": "count",
					"type": "uint256"
				}
			],
			"stateMutability": "view",
			"type": "function"
		},
		{
			"inputs": [
				{
					"internalType": "uint256",
					"name": "tokenId",
					"type": "uint256"
				}
			],
			"name": "getToken",
			"outputs": [
				{
					"components": [
						{
							"internalType": "uint16",
							"name": "power",
							"type": "uint16"
						},
						{
							"internalType": "uint16",
							"name": "defence",
							"type": "uint16"
						},
						{
							"internalType": "uint16",
							"name": "level",
							"type": "uint16"
						},
						{
							"internalType": "uint16",
							"name": "health",
							"type": "uint16"
						},
						{
							"internalType": "enum UnitType",
							"name": "utype",
							"type": "uint8"
						},
						{
							"internalType": "string",
							"name": "name",
							"type": "string"
						}
					],
					"internalType": "struct Unit",
					"name": "unit",
					"type": "tuple"
				}
			],
			"stateMutability": "view",
			"type": "function"
		},
		{
			"inputs": [
				{
					"internalType": "uint256",
					"name": "unitId",
					"type": "uint256"
				}
			],
			"name": "getUnitState",
			"outputs": [
				{
					"internalType": "enum UnitState",
					"name": "state",
					"type": "uint8"
				}
			],
			"stateMutability": "view",
			"type": "function"
		},
		{
			"inputs": [],
			"name": "name",
			"outputs": [
				{
					"internalType": "string",
					"name": "",
					"type": "string"
				}
			],
			"stateMutability": "pure",
			"type": "function"
		},
		{
			"inputs": [
				{
					"internalType": "uint256",
					"name": "_tokenId",
					"type": "uint256"
				}
			],
			"name": "ownerOf",
			"outputs": [
				{
					"internalType": "address",
					"name": "owner",
					"type": "address"
				}
			],
			"stateMutability": "view",
			"type": "function"
		},
		{
			"inputs": [
				{
					"internalType": "uint256[]",
					"name": "_assets",
					"type": "uint256[]"
				},
				{
					"internalType": "uint256",
					"name": "_asking",
					"type": "uint256"
				},
				{
					"internalType": "string",
					"name": "title",
					"type": "string"
				}
			],
			"name": "startAuction",
			"outputs": [
				{
					"internalType": "uint256",
					"name": "auctionId",
					"type": "uint256"
				}
			],
			"stateMutability": "nonpayable",
			"type": "function"
		},
		{
			"inputs": [
				{
					"internalType": "bytes4",
					"name": "_interfaceID",
					"type": "bytes4"
				}
			],
			"name": "supportsInterface",
			"outputs": [
				{
					"internalType": "bool",
					"name": "",
					"type": "bool"
				}
			],
			"stateMutability": "view",
			"type": "function"
		},
		{
			"inputs": [],
			"name": "symbol",
			"outputs": [
				{
					"internalType": "string",
					"name": "",
					"type": "string"
				}
			],
			"stateMutability": "pure",
			"type": "function"
		},
		{
			"inputs": [
				{
					"internalType": "address",
					"name": "_owner",
					"type": "address"
				}
			],
			"name": "tokensOfOwner",
			"outputs": [
				{
					"internalType": "uint256[]",
					"name": "tokenIds",
					"type": "uint256[]"
				}
			],
			"stateMutability": "view",
			"type": "function"
		},
		{
			"inputs": [],
			"name": "totalSupply",
			"outputs": [
				{
					"internalType": "uint256",
					"name": "total",
					"type": "uint256"
				}
			],
			"stateMutability": "view",
			"type": "function"
		},
		{
			"inputs": [
				{
					"internalType": "address",
					"name": "_to",
					"type": "address"
				},
				{
					"internalType": "uint256",
					"name": "_tokenId",
					"type": "uint256"
				}
			],
			"name": "transfer",
			"outputs": [],
			"stateMutability": "nonpayable",
			"type": "function"
		},
		{
			"inputs": [
				{
					"internalType": "address",
					"name": "_from",
					"type": "address"
				},
				{
					"internalType": "address",
					"name": "_to",
					"type": "address"
				},
				{
					"internalType": "uint256",
					"name": "_tokenId",
					"type": "uint256"
				}
			],
			"name": "transferFrom",
			"outputs": [],
			"stateMutability": "nonpayable",
			"type": "function"
		},
		{
			"inputs": [
				{
					"internalType": "uint256",
					"name": "_auctionId",
					"type": "uint256"
				}
			],
			"name": "withdrawAuction",
			"outputs": [
				{
					"internalType": "bool",
					"name": "success",
					"type": "bool"
				}
			],
			"stateMutability": "nonpayable",
			"type": "function"
		}
	]
}