{
	"data": {
		"bytecode": {
			"linkReferences": {
				"MatchMaker_flat.sol": {
					"AuctionFunctions": [
						{
							"length": 20,
							"start": 4753
						},
						{
							"length": 20,
							"start": 4955
						},
						{
							"length": 20,
							"start": 5966
						}
					],
					"AutoChessHelpers": [
						{
							"length": 20,
							"start": 7627
						},
						{
							"length": 20,
							"start": 10757
						},
						{
							"length": 20,
							"start": 11098
						}
					],
					"SquadHelpers": [
						{
							"length": 20,
							"start": 1587
						},
						{
							"length": 20,
							"start": 10084
						},
						{
							"length": 20,
							"start": 10366
						},
						{
							"length": 20,
							"start": 10516
						},
						{
							"length": 20,
							"start": 11434
						}
					],
					"UnitHelpers": [
						{
							"length": 20,
							"start": 1009
						},
						{
							"length": 20,
							"start": 1289
						},
						{
							"length": 20,
							"start": 9303
						},
						{
							"length": 20,
							"start": 9571
						}
					]
				}
			},
			"object": "6080604052633b9aca00600d553480156200001957600080fd5b50306040516200002990620006c2565b62000035919062000769565b604051809103906000f08015801562000052573d6000803e3d6000fd5b50600f80546001600160a01b03199081166001600160a01b039384161791829055600e805492909316911617905560408051600780825261010082019092526000916020820160e080368337505060408051600580825260c0820190925292935060009291506020820160a080368337505060408051600380825260808201909252929350600092915060208201606080368337505060408051600180825281830190925292935060009291506020808301908036833701905050905060005b600781101562000190576200014f306002604051806040016040528060078152602001661111519055531560ca1b815250620003be60201b60201c565b8582815181106200017057634e487b7160e01b600052603260045260246000fd5b602090810291909101015262000188600182620008da565b905062000112565b5060005b60058110156200021257620001d1306002604051806040016040528060078152602001661111519055531560ca1b815250620003be60201b60201c565b848281518110620001f257634e487b7160e01b600052603260045260246000fd5b60209081029190910101526200020a600182620008da565b905062000194565b5060005b6003811015620002945762000253306002604051806040016040528060078152602001661111519055531560ca1b815250620003be60201b60201c565b8382815181106200027457634e487b7160e01b600052603260045260246000fd5b60209081029190910101526200028c600182620008da565b905062000216565b5060005b60018110156200031657620002d5306002604051806040016040528060078152602001661111519055531560ca1b815250620003be60201b60201c565b828281518110620002f657634e487b7160e01b600052603260045260246000fd5b60209081029190910101526200030e600182620008da565b905062000298565b5060005460101015620003465760405162461bcd60e51b81526004016200033d90620007ac565b60405180910390fd5b306000908152600c602052604090205460101015620003795760405162461bcd60e51b81526004016200033d90620007e3565b6200038530856200061f565b5062000394905030846200061f565b50620003a3905030836200061f565b50620003b2905030826200061f565b505050505050620008ff565b600080836002811115620003e257634e487b7160e01b600052602160045260246000fd5b60405163b9bf30a560e01b815273__$fc5b9f10ef01c0fbaa7e8430f43b2a1a96$__9163b9bf30a5916200041a919060040162000796565b60206040518083038186803b1580156200043357600080fd5b505af415801562000448573d6000803e3d6000fd5b505050506040513d601f19601f820116820180604052508101906200046e9190620006f9565b600f5460405163af7d6ca360e01b81529192506001600160a01b03169063af7d6ca390620004a390889085906004016200077d565b602060405180830381600087803b158015620004be57600080fd5b505af1158015620004d3573d6000803e3d6000fd5b505050506040513d601f19601f82011682018060405250810190620004f99190620006d0565b50604051635b254bdd60e11b815273__$fc5b9f10ef01c0fbaa7e8430f43b2a1a96$__9063b64a97ba906200053890600090889088906004016200086c565b60206040518083038186803b1580156200055157600080fd5b505af415801562000566573d6000803e3d6000fd5b505050506040513d601f19601f820116820180604052508101906200058c9190620006f9565b9150817fb89be3b4bdc4059b3e8638ac07ef31fb78418648ffa34eaccb60b1c60f318d2986604051620005c0919062000769565b60405180910390a2600082815260036020908152604080832080546001600160a01b0319166001600160a01b038a169081179091558352600c909152812080546001929062000611908490620008da565b909155509195945050505050565b604051630472603d60e51b8152600090819073__$e598ee709e79d795bb13e4d83407277192$__90638e4c07a0906200066490600690859088908a9060040162000801565b604080518083038186803b1580156200067c57600080fd5b505af415801562000691573d6000803e3d6000fd5b505050506040513d601f19601f82011682018060405250810190620006b7919062000712565b909590945092505050565b610c628062003d1183390190565b600060208284031215620006e2578081fd5b81518015158114620006f2578182fd5b9392505050565b6000602082840312156200070b578081fd5b5051919050565b6000806040838503121562000725578081fd5b825191506020830151600681106200073b578182fd5b809150509250929050565b600381106200076557634e487b7160e01b600052602160045260246000fd5b9052565b6001600160a01b0391909116815260200190565b6001600160a01b03929092168252602082015260400190565b60208101620007a6828462000746565b92915050565b60208082526016908201527f746f6f206d616e7920756e697473206372656174656400000000000000000000604082015260600190565b602080825260049082015263686d6d6d60e01b604082015260600190565b600060808201868352602086818501526080604085015281865180845260a0860191508288019350845b8181101562000849578451835293830193918301916001016200082b565b50506001600160a01b039590951660609490940193909352509195945050505050565b60008482526020620008818184018662000746565b606060408401528351806060850152825b81811015620008b05785810183015185820160800152820162000892565b81811115620008c25783608083870101525b50601f01601f19169290920160800195945050505050565b60008219821115620008fa57634e487b7160e01b81526011600452602481fd5b500190565b613402806200090f6000396000f3fe608060405234801561001057600080fd5b50600436106101f05760003560e01c806370a082311161010f578063a367dd3c116100a2578063d145452111610071578063d14545211461043a578063dba7f94314610442578063e4b50cb814610455578063e56053eb14610475576101f0565b8063a367dd3c146103f9578063a9059cbb1461040c578063b5fc98331461041f578063c44e664014610432576101f0565b8063898f4299116100de578063898f4299146103c157806395d89b41146103d457806399975226146103dc578063a2e1b4d0146103e4576101f0565b806370a0823114610375578063727954fd1461038857806376d4fc571461039b5780638462151c146103ae576101f0565b80634282ef98116101875780635f9fd5f5116101565780635f9fd5f51461030f5780636352211e1461032257806364e0b81f1461034257806369a0e96614610355576101f0565b80634282ef98146102b657806354c8a21e146102c9578063598647f8146102dc5780635bc60976146102ef576101f0565b806318160ddd116101c357806318160ddd1461026d578063198b367d1461028257806323b872dd1461029057806327e78202146102a3576101f0565b806301ffc9a7146101f557806306fdde031461021e578063095ea7b31461023357806317dc6bf614610248575b600080fd5b61020861020336600461299c565b610488565b6040516102159190612d42565b60405180910390f35b61022661048e565b6040516102159190612d5b565b6102466102413660046126d4565b6104bc565b005b61025b610256366004612a4f565b61062b565b604051610215969594939291906131f4565b610275610791565b60405161021591906131eb565b610208610203366004612a4f565b61024661029e366004612699565b610797565b6102756102b13660046129e0565b6108c7565b6102756102c4366004612678565b610909565b6102756102d7366004612905565b610924565b6102466102ea366004612aae565b610a0f565b6103026102fd366004612678565b610ab1565b6040516102159190612d2f565b61024661031d366004612a4f565b610ba1565b610335610330366004612a4f565b610ba4565b6040516102159190612c08565b6103026103503660046129c4565b610bbf565b610368610363366004612a4f565b610c68565b6040516102159190613147565b610275610383366004612678565b610d28565b610302610396366004612a4f565b610d7e565b6102466103a9366004612acf565b610e02565b6103026103bc366004612678565b610ef0565b6102756103cf3660046129fc565b610fd9565b610226611024565b610335611044565b6103ec611053565b6040516102159190612ccf565b610302610407366004612a4f565b611131565b61024661041a3660046126d4565b6111b9565b61020861042d366004612a4f565b6112a8565b610275611468565b61033561146e565b61027561045036600461287b565b61147d565b610468610463366004612a4f565b611749565b6040516102159190613189565b6102756104833660046128bb565b6118bd565b50600090565b60408051808201909152601481527320baba37a1b432b9b9902ab734ba102a37b5b2b760611b602082015290565b3382826104c881610ba4565b6001600160a01b0316836001600160a01b0316146105015760405162461bcd60e51b81526004016104f890613027565b60405180910390fd5b816001600160a01b0316836001600160a01b031614156105335760405162461bcd60e51b81526004016104f890612ed5565b600360008281526002602052604090205460ff16600481111561056657634e487b7160e01b600052602160045260246000fd5b146105835760405162461bcd60e51b81526004016104f89061305e565b6001600160a01b0382166105a95760405162461bcd60e51b81526004016104f890612faf565b600084815260046020818152604080842080546001600160a01b0319166001600160a01b038b161790556002909152909120805460ff191660018302179055507f8c5be1e5ebec7d5bd14f71427d1e84f3dd0314c0f7b2291e5b200ac8c7c3b92533868660405161061c93929190612c1c565b60405180910390a15050505050565b6010818154811061063b57600080fd5b600091825260209091206007909102018054600282015460038301546004840180549395506001600160a01b0392831694929091169261067a90613336565b80601f01602080910402602001604051908101604052809291908181526020018280546106a690613336565b80156106f35780601f106106c8576101008083540402835291602001916106f3565b820191906000526020600020905b8154815290600101906020018083116106d657829003601f168201915b50505050509080600501805461070890613336565b80601f016020809104026020016040519081016040528092919081815260200182805461073490613336565b80156107815780601f1061075657610100808354040283529160200191610781565b820191906000526020600020905b81548152906001019060200180831161076457829003601f168201915b5050505050908060060154905086565b600d5490565b8282826107a381610ba4565b6001600160a01b0316836001600160a01b0316146107d35760405162461bcd60e51b81526004016104f890613027565b816001600160a01b0316836001600160a01b031614156108055760405162461bcd60e51b81526004016104f890612ed5565b600360008281526002602052604090205460ff16600481111561083857634e487b7160e01b600052602160045260246000fd5b146108555760405162461bcd60e51b81526004016104f89061305e565b6001600160a01b03821661087b5760405162461bcd60e51b81526004016104f890612faf565b6000848152600460205260409020546001600160a01b038681169116146108b45760405162461bcd60e51b81526004016104f890612fe6565b6108bf868686611a11565b505050505050565b60006109013383604051806040016040528060158152602001744d6175726963652c20746865204d6564696f63726560581b815250611b16565b90505b919050565b6001600160a01b03166000908152600b602052604090205490565b6000805b85811015610972576109603388888481811061095457634e487b7160e01b600052603260045260246000fd5b90506020020135611d60565b8061096a8161336b565b915050610928565b50604051635a6614b360e11b815273__$df95346506231f8a1998d6cd168cb00904$__9063b4cc2966906109b5906010908a908a908a908a908a90600401612c59565b60206040518083038186803b1580156109cd57600080fd5b505af41580156109e1573d6000803e3d6000fd5b505050506040513d601f19601f82011682018060405250810190610a059190612a67565b9695505050505050565b60108281548110610a3057634e487b7160e01b600052603260045260246000fd5b60009182526020909120600f5460405163385b543360e21b815273__$df95346506231f8a1998d6cd168cb00904$__9363e16d50cc93610a85936007909202019186916001600160a01b03169060040161308b565b60006040518083038186803b158015610a9d57600080fd5b505af41580156108bf573d6000803e3d6000fd5b6001600160a01b0381166000908152600b60205260408120546060919067ffffffffffffffff811115610af457634e487b7160e01b600052604160045260246000fd5b604051908082528060200260200182016040528015610b1d578160200160208202803683370190505b50915060005b600054811015610b9a576000818152600360205260409020546001600160a01b0385811691161415610b8857808383610b5b8161336b565b945081518110610b7b57634e487b7160e01b600052603260045260246000fd5b6020026020010181815250505b80610b928161336b565b915050610b23565b5050919050565b50565b6000908152600360205260409020546001600160a01b031690565b606060096000836005811115610be557634e487b7160e01b600052602160045260246000fd5b6005811115610c0457634e487b7160e01b600052602160045260246000fd5b8152602001908152602001600020805480602002602001604051908101604052809291908181526020018280548015610c5c57602002820191906000526020600020905b815481526020019060010190808311610c48575b50505050509050919050565b610c706124d7565b6006805483908110610c9257634e487b7160e01b600052603260045260246000fd5b906000526020600020906002020160405180606001604052908160008201805480602002602001604051908101604052809291908181526020018280548015610cfa57602002820191906000526020600020905b815481526020019060010190808311610ce6575b50505091835250506001919091015461ffff8082166020840152620100009091041660409091015292915050565b6000805b600054811015610d78576000818152600360205260409020546001600160a01b0384811691161415610d665781610d628161336b565b9250505b80610d708161336b565b915050610d2c565b50919050565b606060066000018281548110610da457634e487b7160e01b600052603260045260246000fd5b60009182526020918290206002909102018054604080518285028101850190915281815292830182828015610c5c5760200282019190600052602060002090815481526020019060010190808311610c485750505050509050919050565b60108481548110610e2357634e487b7160e01b600052603260045260246000fd5b60009182526020909120600f5460405163385b543360e21b815273__$df95346506231f8a1998d6cd168cb00904$__9363e16d50cc93610e78936007909202019188916001600160a01b03169060040161308b565b60006040518083038186803b158015610e9057600080fd5b505af4158015610ea4573d6000803e3d6000fd5b50505050818160108681548110610ecb57634e487b7160e01b600052603260045260246000fd5b90600052602060002090600702016005019190610ee99291906124f7565b5050505050565b6001600160a01b0381166000908152600c60205260408120546060919067ffffffffffffffff811115610f3357634e487b7160e01b600052604160045260246000fd5b604051908082528060200260200182016040528015610f5c578160200160208202803683370190505b50915060005b600054811015610b9a576000818152600360205260409020546001600160a01b0385811691161415610fc757808383610f9a8161336b565b945081518110610fba57634e487b7160e01b600052603260045260246000fd5b6020026020010181815250505b80610fd18161336b565b915050610f62565b600061101c338585858080601f016020809104026020016040519081016040528093929190818152602001838380828437600092019190915250611b1692505050565b949350505050565b60408051808201909152600681526541434853535560d01b602082015290565b600f546001600160a01b031681565b60606006600001805480602002602001604051908101604052809291908181526020016000905b828210156111285783829060005260206000209060020201604051806060016040529081600082018054806020026020016040519081016040528092919081815260200182805480156110ec57602002820191906000526020600020905b8154815260200190600101908083116110d8575b505050918352505060019182015461ffff808216602080850191909152620100009092041660409092019190915291835292909201910161107a565b50505050905090565b60606010828154811061115457634e487b7160e01b600052603260045260246000fd5b9060005260206000209060070201600101805480602002602001604051908101604052809291908181526020018280548015610c5c5760200282019190600052602060002090815481526020019060010190808311610c485750505050509050919050565b3382826111c581610ba4565b6001600160a01b0316836001600160a01b0316146111f55760405162461bcd60e51b81526004016104f890613027565b816001600160a01b0316836001600160a01b031614156112275760405162461bcd60e51b81526004016104f890612ed5565b600360008281526002602052604090205460ff16600481111561125a57634e487b7160e01b600052602160045260246000fd5b146112775760405162461bcd60e51b81526004016104f89061305e565b6001600160a01b03821661129d5760405162461bcd60e51b81526004016104f890612faf565b610ee9338686611a11565b6000336001600160a01b0316601083815481106112d557634e487b7160e01b600052603260045260246000fd5b60009182526020909120600360079092020101546001600160a01b03161461130f5760405162461bcd60e51b81526004016104f890612e90565b426010838154811061133157634e487b7160e01b600052603260045260246000fd5b906000526020600020906007020160060154116113605760405162461bcd60e51b81526004016104f890612e48565b600f54601080546001600160a01b039092169163535b677391908590811061139857634e487b7160e01b600052603260045260246000fd5b906000526020600020906007020160020160009054906101000a90046001600160a01b0316601085815481106113de57634e487b7160e01b600052603260045260246000fd5b9060005260206000209060070201600001546040518363ffffffff1660e01b815260040161140d929190612c40565b602060405180830381600087803b15801561142757600080fd5b505af115801561143b573d6000803e3d6000fd5b505050506040513d601f19601f8201168201806040525081019061145f919061297c565b50600192915050565b60105490565b600e546001600160a01b031681565b600080805260096020527fec8156718a8372b1db44bb411437d0870f3e3790d4a08526d024ce1b0b668f6b54604051637cb86e8160e11b81528291829173__$394b8b9626437f265231bff7bc54e7f651$__9163f970dd02916114e391906004016131eb565b60206040518083038186803b1580156114fb57600080fd5b505af415801561150f573d6000803e3d6000fd5b505050506040513d601f19601f820116820180604052508101906115339190612b20565b60ff16905061157533868680806020026020016040519081016040528093929190818152602001838360200280828437600092019190915250611e4192505050565b90935091506115fe83600960008560058111156115a257634e487b7160e01b600052602160045260246000fd5b60058111156115c157634e487b7160e01b600052602160045260246000fd5b815260200190815260200160002083815481106115ee57634e487b7160e01b600052603260045260246000fd5b9060005260206000200154611ede565b506001600a600060098186600581111561162857634e487b7160e01b600052602160045260246000fd5b600581111561164757634e487b7160e01b600052602160045260246000fd5b8152602001908152602001600020848154811061167457634e487b7160e01b600052603260045260246000fd5b600091825260208083209091015483528201929092526040019020805460ff191660018360058111156116b757634e487b7160e01b600052602160045260246000fd5b0217905550600a60006009818560058111156116e357634e487b7160e01b600052602160045260246000fd5b600581111561170257634e487b7160e01b600052602160045260246000fd5b8152602001908152602001600020838154811061172f57634e487b7160e01b600052603260045260246000fd5b600091825260209182902001548252015250909392505050565b61175161257b565b600080548390811061177357634e487b7160e01b600052603260045260246000fd5b60009182526020918290206040805160c0810182526002938402909201805461ffff80821685526201000082048116968501969096526401000000008104861692840192909252660100000000000082049094166060830152909291608084019168010000000000000000900460ff169081111561180157634e487b7160e01b600052602160045260246000fd5b600281111561182057634e487b7160e01b600052602160045260246000fd5b815260200160018201805461183490613336565b80601f016020809104026020016040519081016040528092919081815260200182805461186090613336565b80156118ad5780601f10611882576101008083540402835291602001916118ad565b820191906000526020600020905b81548152906001019060200180831161189057829003601f168201915b5050505050815250509050919050565b6000806118fd33868680806020026020016040519081016040528093929190818152602001838360200280828437600092019190915250611e4192505050565b9092509050826009600083600581111561192757634e487b7160e01b600052602160045260246000fd5b600581111561194657634e487b7160e01b600052602160045260246000fd5b8152602081019190915260400160002054116119745760405162461bcd60e51b81526004016104f890612e1f565b828214156119945760405162461bcd60e51b81526004016104f890612de8565b611a0882600960008460058111156119bc57634e487b7160e01b600052602160045260246000fd5b60058111156119db57634e487b7160e01b600052602160045260246000fd5b815260200190815260200160002085815481106115ee57634e487b7160e01b600052603260045260246000fd5b50509392505050565b600360008281526002602052604090205460ff166004811115611a4457634e487b7160e01b600052602160045260246000fd5b14611a615760405162461bcd60e51b81526004016104f890612f89565b6000818152600360205260409020546001600160a01b03848116911614611a9a5760405162461bcd60e51b81526004016104f890612f89565b600081815260036020908152604080832080546001600160a01b0387166001600160a01b03199182161790915560049092529182902080549091169055517fddf252ad1be2c89b69c2b068fc378daa952ba7f163c4a11628f55a4df523b3ef90611b0990859085908590612c1c565b60405180910390a1505050565b600080836002811115611b3957634e487b7160e01b600052602160045260246000fd5b60405163b9bf30a560e01b815273__$fc5b9f10ef01c0fbaa7e8430f43b2a1a96$__9163b9bf30a591611b6f9190600401612d4d565b60206040518083038186803b158015611b8757600080fd5b505af4158015611b9b573d6000803e3d6000fd5b505050506040513d601f19601f82011682018060405250810190611bbf9190612a67565b600f5460405163af7d6ca360e01b81529192506001600160a01b03169063af7d6ca390611bf29088908590600401612c40565b602060405180830381600087803b158015611c0c57600080fd5b505af1158015611c20573d6000803e3d6000fd5b505050506040513d601f19601f82011682018060405250810190611c44919061297c565b50604051635b254bdd60e11b815273__$fc5b9f10ef01c0fbaa7e8430f43b2a1a96$__9063b64a97ba90611c81906000908890889060040161315a565b60206040518083038186803b158015611c9957600080fd5b505af4158015611cad573d6000803e3d6000fd5b505050506040513d601f19601f82011682018060405250810190611cd19190612a67565b9150817fb89be3b4bdc4059b3e8638ac07ef31fb78418648ffa34eaccb60b1c60f318d2986604051611d039190612c08565b60405180910390a2600082815260036020908152604080832080546001600160a01b0319166001600160a01b038a169081179091558352600c9091528120805460019290611d5290849061328b565b909155509195945050505050565b611d6981610ba4565b6001600160a01b0316826001600160a01b031614611d995760405162461bcd60e51b81526004016104f890613027565b600360008281526002602052604090205460ff166004811115611dcc57634e487b7160e01b600052602160045260246000fd5b14611de95760405162461bcd60e51b81526004016104f89061305e565b6001600160a01b038216611dfc57600080fd5b600081815260046020908152604080832080546001600160a01b0319166001600160a01b038716179055600291829052909120805460ff191660018302179055505050565b604051630472603d60e51b8152600090819073__$e598ee709e79d795bb13e4d83407277192$__90638e4c07a090611e8490600690859088908a906004016130aa565b604080518083038186803b158015611e9b57600080fd5b505af4158015611eaf573d6000803e3d6000fd5b505050506040513d601f19601f82011682018060405250810190611ed39190612a7f565b909590945092505050565b6000818152600a602052604081205460ff166005811115611f0f57634e487b7160e01b600052602160045260246000fd5b6000848152600a602052604090205460ff166005811115611f4057634e487b7160e01b600052602160045260246000fd5b14611f5d5760405162461bcd60e51b81526004016104f890612d6e565b60405163b0258af760e01b815260009073__$e598ee709e79d795bb13e4d83407277192$__9063b0258af790611f9c9060069088908690600401613131565b60006040518083038186803b158015611fb457600080fd5b505af4158015611fc8573d6000803e3d6000fd5b505050506040513d6000823e601f3d908101601f19168201604052611ff091908101906126fd565b60405163b0258af760e01b815290915060009073__$e598ee709e79d795bb13e4d83407277192$__9063b0258af7906120329060069088908690600401613131565b60006040518083038186803b15801561204a57600080fd5b505af415801561205e573d6000803e3d6000fd5b505050506040513d6000823e601f3d908101601f1916820160405261208691908101906126fd565b825181519192509060ff808316908216146120b35760405162461bcd60e51b81526004016104f890612f0c565b6000806001815b6002811080156120cd575060008660ff16115b80156120dc575060008560ff16115b1561238b57811561223c57604051637cb86e8160e11b815273__$394b8b9626437f265231bff7bc54e7f651$__9063f970dd029061211e90899060040161324c565b60206040518083038186803b15801561213657600080fd5b505af415801561214a573d6000803e3d6000fd5b505050506040513d601f19601f8201168201806040525081019061216e9190612b20565b60ff16935061217e6001866132c6565b60ff169250875184106121a35760405162461bcd60e51b81526004016104f890612d92565b865183106121c35760405162461bcd60e51b81526004016104f890612f33565b6122248784815181106121e657634e487b7160e01b600052603260045260246000fd5b602002602001015189868151811061220e57634e487b7160e01b600052603260045260246000fd5b602002602001015161245f90919063ffffffff16565b15612237578461223381613319565b9550505b612376565b604051637cb86e8160e11b815273__$394b8b9626437f265231bff7bc54e7f651$__9063f970dd029061227390889060040161324c565b60206040518083038186803b15801561228b57600080fd5b505af415801561229f573d6000803e3d6000fd5b505050506040513d601f19601f820116820180604052508101906122c39190612b20565b60ff1693506122d36001876132c6565b60ff169250875184106122f85760405162461bcd60e51b81526004016104f890612f5e565b875183106123185760405162461bcd60e51b81526004016104f890612dbd565b61236388848151811061233b57634e487b7160e01b600052603260045260246000fd5b602002602001015188868151811061220e57634e487b7160e01b600052603260045260246000fd5b15612376578561237281613319565b9650505b901590806123838161336b565b9150506120ba565b5060405163148e72d960e11b815273__$e598ee709e79d795bb13e4d83407277192$__9063291ce5b2906123cb906006906000908e908a90600401613113565b60206040518083038186803b1580156123e357600080fd5b505af41580156123f7573d6000803e3d6000fd5b505050506040513d601f19601f8201168201806040525081019061241b9190612a67565b506000898152600a60205260409020805460ff1916600117905560ff851661244d576000975050505050505050612459565b600a9750505050505050505b92915050565b6000816020015161ffff16836000015161ffff16101561248157506000612459565b60208201518351600091612494916132a3565b90508061ffff16836060015161ffff16116124b3576001915050612459565b80836060018181516124c591906132a3565b61ffff16905250600091506124599050565b604080516060808201835281526000602082018190529181019190915290565b82805461250390613336565b90600052602060002090601f016020900481019282612525576000855561256b565b82601f1061253e5782800160ff1982351617855561256b565b8280016001018555821561256b579182015b8281111561256b578235825591602001919060010190612550565b506125779291506125b1565b5090565b6040805160c081018252600080825260208201819052918101829052606081018290529060808201908152602001606081525090565b5b8082111561257757600081556001016125b2565b80356001600160a01b038116811461090457600080fd5b60008083601f8401126125ee578182fd5b50813567ffffffffffffffff811115612605578182fd5b602083019150836020808302850101111561261f57600080fd5b9250929050565b60008083601f840112612637578182fd5b50813567ffffffffffffffff81111561264e578182fd5b60208301915083602082850101111561261f57600080fd5b805161ffff8116811461090457600080fd5b600060208284031215612689578081fd5b612692826125c6565b9392505050565b6000806000606084860312156126ad578182fd5b6126b6846125c6565b92506126c4602085016125c6565b9150604084013590509250925092565b600080604083850312156126e6578182fd5b6126ef836125c6565b946020939093013593505050565b6000602080838503121561270f578182fd5b825167ffffffffffffffff80821115612726578384fd5b818501915085601f830112612739578384fd5b81518181111561274b5761274b61339c565b612758848583020161325a565b81815284810190848601875b8481101561286c5781518701601f1960c0828e0382011215612784578a8bfd5b61278e60c061325a565b6127998b8401612666565b81526127a760408401612666565b8b8201526127b760608401612666565b60408201526127c860808401612666565b606082015260a08301516127db816133bf565b608082015260c0830151898111156127f1578c8dfd5b8084019350508d603f840112612805578b8cfd5b8a830151898111156128195761281961339c565b6128298c84601f8401160161325a565b92508083528e8c8d83870101011115612840578c8dfd5b612850818d8501604087016132e9565b5060a08101919091528552509287019290870190600101612764565b50909998505050505050505050565b6000806020838503121561288d578182fd5b823567ffffffffffffffff8111156128a3578283fd5b6128af858286016125dd565b90969095509350505050565b6000806000604084860312156128cf578283fd5b833567ffffffffffffffff8111156128e5578384fd5b6128f1868287016125dd565b909790965060209590950135949350505050565b60008060008060006060868803121561291c578081fd5b853567ffffffffffffffff80821115612933578283fd5b61293f89838a016125dd565b909750955060208801359450604088013591508082111561295e578283fd5b5061296b88828901612626565b969995985093965092949392505050565b60006020828403121561298d578081fd5b81518015158114612692578182fd5b6000602082840312156129ad578081fd5b81356001600160e01b031981168114612692578182fd5b6000602082840312156129d5578081fd5b8135612692816133b2565b6000602082840312156129f1578081fd5b8135612692816133bf565b600080600060408486031215612a10578081fd5b8335612a1b816133bf565b9250602084013567ffffffffffffffff811115612a36578182fd5b612a4286828701612626565b9497909650939450505050565b600060208284031215612a60578081fd5b5035919050565b600060208284031215612a78578081fd5b5051919050565b60008060408385031215612a91578182fd5b825191506020830151612aa3816133b2565b809150509250929050565b60008060408385031215612ac0578182fd5b50508035926020909101359150565b60008060008060608587031215612ae4578182fd5b8435935060208501359250604085013567ffffffffffffffff811115612b08578283fd5b612b1487828801612626565b95989497509550505050565b600060208284031215612b31578081fd5b815160ff81168114612692578182fd5b6000815180845260208085019450808401835b83811015612b7057815187529582019590820190600101612b54565b509495945050505050565b60038110612b9957634e487b7160e01b600052602160045260246000fd5b9052565b60008151808452612bb58160208601602086016132e9565b601f01601f19169290920160200192915050565b6000815160608452612bde6060850182612b41565b9050602083015161ffff808216602087015280604086015116604087015250508091505092915050565b6001600160a01b0391909116815260200190565b6001600160a01b039384168152919092166020820152604081019190915260600190565b6001600160a01b03929092168252602082015260400190565b868152608060208201819052810185905260006001600160fb1b03861115612c7f578081fd5b60208602808860a085013760408301869052820182810360a090810160608501528101849052838560c08301378160c0858301015260c0601f19601f860116820101915050979650505050505050565b6000602080830181845280855180835260408601915060408482028701019250838701855b82811015612d2257603f19888603018452612d10858351612bc9565b94509285019290850190600101612cf4565b5092979650505050505050565b6000602082526126926020830184612b41565b901515815260200190565b602081016124598284612b7b565b6000602082526126926020830184612b9d565b6020808252600a90820152693bb937b733903a34b2b960b11b604082015260600190565b602080825260119082015270496e76616c69642061612063686f69636560781b604082015260600190565b602080825260119082015270496e76616c69642061642063686f69636560781b604082015260600190565b60208082526017908201527f756e69742063616e277420666967687420697473656c66000000000000000000604082015260600190565b6020808252600f908201526e125b9d985b1a59081d5b9a5d081251608a1b604082015260600190565b60208082526028908201527f497420697320746f6f206c61746520746f20776974686472617720746869732060408201526761756374696f6e2160c01b606082015260800190565b60208082526025908201527f596f7520617265206e6f742074686520686f7374206f6620746869732061756360408201526474696f6e2160d81b606082015260800190565b60208082526019908201527f596f7520616c7265616479206f776e207468697320756e697400000000000000604082015260600190565b6020808252600d908201526c696e657175616c2073697a657360981b604082015260600190565b602080825260119082015270496e76616c69642064642063686f69636560781b604082015260600190565b602080825260119082015270496e76616c69642064612063686f69636560781b604082015260600190565b6020808252600c908201526b556e6974206973206275737960a01b604082015260600190565b6020808252601b908201527f4e6f7420612076616c696420616464726573732e20536f727279210000000000604082015260600190565b60208082526021908201527f556e6974206973206e6f742070726f6d6973656420746f2074686174207573656040820152603960f91b606082015260800190565b60208082526017908201527f596f7520646f6e2774206f776e207468697320756e6974000000000000000000604082015260600190565b602080825260139082015272556e697420697320756e617661696c61626c6560681b604082015260600190565b92835260208301919091526001600160a01b0316604082015260600190565b600060808201868352602086818501526080604085015281865180845260a0860191508288019350845b818110156130f0578451835293830193918301916001016130d4565b50506001600160a01b039590951660609490940193909352509195945050505050565b9384526020840192909252604083015260ff16606082015260800190565b9283526020830191909152604082015260600190565b6000602082526126926020830184612bc9565b600084825261316c6020830185612b7b565b606060408301526131806060830184612b9d565b95945050505050565b60006020825261ffff8084511660208401528060208501511660408401528060408501511660608401528060608501511660808401525060808301516131d260a0840182612b7b565b5060a083015160c08084015261101c60e0840182612b9d565b90815260200190565b8681526001600160a01b0386811660208301528516604082015260c06060820181905260009061322690830186612b9d565b82810360808401526132388186612b9d565b9150508260a0830152979650505050505050565b60ff91909116815260200190565b604051601f8201601f1916810167ffffffffffffffff811182821017156132835761328361339c565b604052919050565b6000821982111561329e5761329e613386565b500190565b600061ffff838116908316818110156132be576132be613386565b039392505050565b600060ff821660ff8416808210156132e0576132e0613386565b90039392505050565b60005b838110156133045781810151838201526020016132ec565b83811115613313576000848401525b50505050565b600060ff82168061332c5761332c613386565b6000190192915050565b60028104600182168061334a57607f821691505b60208210811415610d7857634e487b7160e01b600052602260045260246000fd5b600060001982141561337f5761337f613386565b5060010190565b634e487b7160e01b600052601160045260246000fd5b634e487b7160e01b600052604160045260246000fd5b60068110610ba157600080fd5b60038110610ba157600080fdfea2646970667358221220df96019cc77ab2bc2081e7d9eb192200863a5d8ceb570b0b52bc88f294ce37f064736f6c634300080100336080604052633b9aca0060005534801561001857600080fd5b50604051610c62380380610c628339810160408190526100379161006c565b600480546001600160a01b039092166001600160a01b031990921682179055600080549181526001602052604090205561009a565b60006020828403121561007d578081fd5b81516001600160a01b0381168114610093578182fd5b9392505050565b610bb9806100a96000396000f3fe6080604052600436106100f35760003560e01c806370a082311161008a578063abb8d5c311610059578063abb8d5c314610261578063af7d6ca314610281578063d4e7b8ad146102a1578063dd62ed3e146102c1576100f3565b806370a08231146101f757806389eb068a1461021757806395d89b411461022c578063a9059cbb14610241576100f3565b806323b872dd116100c657806323b872dd146101925780633290ce29146101b2578063332b888d146101bc578063535b6773146101d7576100f3565b806301ffc9a7146100f857806306fdde031461012e578063095ea7b31461015057806318160ddd14610170575b600080fd5b34801561010457600080fd5b5061011861011336600461096c565b6102e1565b60405161012591906109ac565b60405180910390f35b34801561013a57600080fd5b506101436102e9565b60405161012591906109b7565b34801561015c57600080fd5b5061011861016b366004610943565b610318565b34801561017c57600080fd5b5061018561032c565b6040516101259190610b16565b34801561019e57600080fd5b506101186101ad366004610908565b610332565b6101ba61044e565b005b3480156101c857600080fd5b50610118610113366004610994565b3480156101e357600080fd5b506101186101f2366004610943565b61047f565b34801561020357600080fd5b506101856102123660046108bc565b61051a565b34801561022357600080fd5b506101ba610535565b34801561023857600080fd5b50610143610557565b34801561024d57600080fd5b5061011861025c366004610943565b610577565b34801561026d57600080fd5b5061011861027c366004610943565b61063f565b34801561028d57600080fd5b5061011861029c366004610943565b610684565b3480156102ad57600080fd5b506101856102bc3660046108bc565b61075d565b3480156102cd57600080fd5b506101856102dc3660046108d6565b610791565b60015b919050565b60408051808201909152601581527420baba37a1b432b9b99029ba37b932902a37b5b2b760591b602082015290565b60006103253384846107bc565b9392505050565b60005490565b6001600160a01b03808416600090815260026020908152604080832093861683529290529081205482106103815760405162461bcd60e51b815260040161037890610a0a565b60405180910390fd5b6001600160a01b038085166000908152600260209081526040808320938716835292905290812080548492906103b8908490610b56565b90915550506001600160a01b038416600090815260036020526040812080548492906103e5908490610b56565b90915550506001600160a01b03841660009081526001602052604081208054849290610412908490610b56565b90915550506001600160a01b0383166000908152600160205260408120805484929061043f908490610b1f565b90915550600195945050505050565b610459346064610b37565b3360009081526001602052604081208054909190610478908490610b1f565b9091555050565b6004546000906001600160a01b031633146104ac5760405162461bcd60e51b815260040161037890610acb565b6001600160a01b0383166000908152600260209081526040808320338452909152812080548492906104df908490610b56565b90915550506001600160a01b0383166000908152600360205260408120805484929061050c908490610b56565b909155506001949350505050565b6001600160a01b031660009081526001602052604090205490565b3360009081526001602052604081208054620186a09290610478908490610b1f565b6040805180820190915260068152651050d214d4d560d21b602082015290565b6000816105833361075d565b116105a05760405162461bcd60e51b815260040161037890610a34565b33600090815260016020526040812080548492906105bf908490610b56565b90915550506001600160a01b038316600090815260016020526040812080548492906105ec908490610b1f565b90915550506040516001600160a01b0384169033907fddf252ad1be2c89b69c2b068fc378daa952ba7f163c4a11628f55a4df523b3ef9061062e908690610b16565b60405180910390a350600192915050565b6004546000906001600160a01b0316331461066c5760405162461bcd60e51b815260040161037890610acb565b6004546103259084906001600160a01b0316846107bc565b6004546000906001600160a01b031633146106b15760405162461bcd60e51b815260040161037890610acb565b816106bb8461075d565b116106d85760405162461bcd60e51b815260040161037890610a34565b816000808282546106e99190610b56565b90915550506001600160a01b03831660009081526001602052604081208054849290610716908490610b56565b90915550506004546040516001600160a01b03918216918516907fddf252ad1be2c89b69c2b068fc378daa952ba7f163c4a11628f55a4df523b3ef9061062e908690610b16565b6001600160a01b038116600090815260036020908152604080832054600190925282205461078b9190610b56565b92915050565b6001600160a01b03918216600090815260026020908152604080832093909416825291909152205490565b6000816107c88561075d565b116107e55760405162461bcd60e51b815260040161037890610a80565b6001600160a01b0380851660009081526002602090815260408083209387168352929052908120805484929061081c908490610b1f565b90915550506001600160a01b03841660009081526003602052604081208054849290610849908490610b1f565b92505081905550826001600160a01b0316846001600160a01b03167f8c5be1e5ebec7d5bd14f71427d1e84f3dd0314c0f7b2291e5b200ac8c7c3b925846040516108939190610b16565b60405180910390a35060019392505050565b80356001600160a01b03811681146102e457600080fd5b6000602082840312156108cd578081fd5b610325826108a5565b600080604083850312156108e8578081fd5b6108f1836108a5565b91506108ff602084016108a5565b90509250929050565b60008060006060848603121561091c578081fd5b610925846108a5565b9250610933602085016108a5565b9150604084013590509250925092565b60008060408385031215610955578182fd5b61095e836108a5565b946020939093013593505050565b60006020828403121561097d578081fd5b81356001600160e01b031981168114610325578182fd5b6000602082840312156109a5578081fd5b5035919050565b901515815260200190565b6000602080835283518082850152825b818110156109e3578581018301518582016040015282016109c7565b818111156109f45783604083870101525b50601f01601f1916929092016040019392505050565b60208082526010908201526f416d6f756e7420746f6f206c6172676560801b604082015260600190565b6020808252602c908201527f546f6f2066657720746f6b656e732061726520756e6c6f636b656420696e207960408201526b6f7572206163636f756e742160a01b606082015260800190565b6020808252602b908201527f546f6f2066657720746f6b656e732061726520756e6c6f636b656420696e207960408201526a1bdd5c881858d8dbdd5b9d60aa1b606082015260800190565b6020808252602b908201527f4f6e6c79207468652053746f726546726f6e7420697320616c6c6f776564207460408201526a37903ab9b2903a3434b99760a91b606082015260800190565b90815260200190565b60008219821115610b3257610b32610b6d565b500190565b6000816000190483118215151615610b5157610b51610b6d565b500290565b600082821015610b6857610b68610b6d565b500390565b634e487b7160e01b600052601160045260246000fdfea264697066735822122035156e5bc71037d0f427c9ae86ab5a3cc16577f83781c103e14a55187a955d4364736f6c63430008010033",
			"opcodes": "PUSH1 0x80 PUSH1 0x40 MSTORE PUSH4 0x3B9ACA00 PUSH1 0xD SSTORE CALLVALUE DUP1 ISZERO PUSH3 0x19 JUMPI PUSH1 0x0 DUP1 REVERT JUMPDEST POP ADDRESS PUSH1 0x40 MLOAD PUSH3 0x29 SWAP1 PUSH3 0x6C2 JUMP JUMPDEST PUSH3 0x35 SWAP2 SWAP1 PUSH3 0x769 JUMP JUMPDEST PUSH1 0x40 MLOAD DUP1 SWAP2 SUB SWAP1 PUSH1 0x0 CREATE DUP1 ISZERO DUP1 ISZERO PUSH3 0x52 JUMPI RETURNDATASIZE PUSH1 0x0 DUP1 RETURNDATACOPY RETURNDATASIZE PUSH1 0x0 REVERT JUMPDEST POP PUSH1 0xF DUP1 SLOAD PUSH1 0x1 PUSH1 0x1 PUSH1 0xA0 SHL SUB NOT SWAP1 DUP2 AND PUSH1 0x1 PUSH1 0x1 PUSH1 0xA0 SHL SUB SWAP4 DUP5 AND OR SWAP2 DUP3 SWAP1 SSTORE PUSH1 0xE DUP1 SLOAD SWAP3 SWAP1 SWAP4 AND SWAP2 AND OR SWAP1 SSTORE PUSH1 0x40 DUP1 MLOAD PUSH1 0x7 DUP1 DUP3 MSTORE PUSH2 0x100 DUP3 ADD SWAP1 SWAP3 MSTORE PUSH1 0x0 SWAP2 PUSH1 0x20 DUP3 ADD PUSH1 0xE0 DUP1 CALLDATASIZE DUP4 CALLDATACOPY POP POP PUSH1 0x40 DUP1 MLOAD PUSH1 0x5 DUP1 DUP3 MSTORE PUSH1 0xC0 DUP3 ADD SWAP1 SWAP3 MSTORE SWAP3 SWAP4 POP PUSH1 0x0 SWAP3 SWAP2 POP PUSH1 0x20 DUP3 ADD PUSH1 0xA0 DUP1 CALLDATASIZE DUP4 CALLDATACOPY POP POP PUSH1 0x40 DUP1 MLOAD PUSH1 0x3 DUP1 DUP3 MSTORE PUSH1 0x80 DUP3 ADD SWAP1 SWAP3 MSTORE SWAP3 SWAP4 POP PUSH1 0x0 SWAP3 SWAP2 POP PUSH1 0x20 DUP3 ADD PUSH1 0x60 DUP1 CALLDATASIZE DUP4 CALLDATACOPY POP POP PUSH1 0x40 DUP1 MLOAD PUSH1 0x1 DUP1 DUP3 MSTORE DUP2 DUP4 ADD SWAP1 SWAP3 MSTORE SWAP3 SWAP4 POP PUSH1 0x0 SWAP3 SWAP2 POP PUSH1 0x20 DUP1 DUP4 ADD SWAP1 DUP1 CALLDATASIZE DUP4 CALLDATACOPY ADD SWAP1 POP POP SWAP1 POP PUSH1 0x0 JUMPDEST PUSH1 0x7 DUP2 LT ISZERO PUSH3 0x190 JUMPI PUSH3 0x14F ADDRESS PUSH1 0x2 PUSH1 0x40 MLOAD DUP1 PUSH1 0x40 ADD PUSH1 0x40 MSTORE DUP1 PUSH1 0x7 DUP2 MSTORE PUSH1 0x20 ADD PUSH7 0x11115190555315 PUSH1 0xCA SHL DUP2 MSTORE POP PUSH3 0x3BE PUSH1 0x20 SHL PUSH1 0x20 SHR JUMP JUMPDEST DUP6 DUP3 DUP2 MLOAD DUP2 LT PUSH3 0x170 JUMPI PUSH4 0x4E487B71 PUSH1 0xE0 SHL PUSH1 0x0 MSTORE PUSH1 0x32 PUSH1 0x4 MSTORE PUSH1 0x24 PUSH1 0x0 REVERT JUMPDEST PUSH1 0x20 SWAP1 DUP2 MUL SWAP2 SWAP1 SWAP2 ADD ADD MSTORE PUSH3 0x188 PUSH1 0x1 DUP3 PUSH3 0x8DA JUMP JUMPDEST SWAP1 POP PUSH3 0x112 JUMP JUMPDEST POP PUSH1 0x0 JUMPDEST PUSH1 0x5 DUP2 LT ISZERO PUSH3 0x212 JUMPI PUSH3 0x1D1 ADDRESS PUSH1 0x2 PUSH1 0x40 MLOAD DUP1 PUSH1 0x40 ADD PUSH1 0x40 MSTORE DUP1 PUSH1 0x7 DUP2 MSTORE PUSH1 0x20 ADD PUSH7 0x11115190555315 PUSH1 0xCA SHL DUP2 MSTORE POP PUSH3 0x3BE PUSH1 0x20 SHL PUSH1 0x20 SHR JUMP JUMPDEST DUP5 DUP3 DUP2 MLOAD DUP2 LT PUSH3 0x1F2 JUMPI PUSH4 0x4E487B71 PUSH1 0xE0 SHL PUSH1 0x0 MSTORE PUSH1 0x32 PUSH1 0x4 MSTORE PUSH1 0x24 PUSH1 0x0 REVERT JUMPDEST PUSH1 0x20 SWAP1 DUP2 MUL SWAP2 SWAP1 SWAP2 ADD ADD MSTORE PUSH3 0x20A PUSH1 0x1 DUP3 PUSH3 0x8DA JUMP JUMPDEST SWAP1 POP PUSH3 0x194 JUMP JUMPDEST POP PUSH1 0x0 JUMPDEST PUSH1 0x3 DUP2 LT ISZERO PUSH3 0x294 JUMPI PUSH3 0x253 ADDRESS PUSH1 0x2 PUSH1 0x40 MLOAD DUP1 PUSH1 0x40 ADD PUSH1 0x40 MSTORE DUP1 PUSH1 0x7 DUP2 MSTORE PUSH1 0x20 ADD PUSH7 0x11115190555315 PUSH1 0xCA SHL DUP2 MSTORE POP PUSH3 0x3BE PUSH1 0x20 SHL PUSH1 0x20 SHR JUMP JUMPDEST DUP4 DUP3 DUP2 MLOAD DUP2 LT PUSH3 0x274 JUMPI PUSH4 0x4E487B71 PUSH1 0xE0 SHL PUSH1 0x0 MSTORE PUSH1 0x32 PUSH1 0x4 MSTORE PUSH1 0x24 PUSH1 0x0 REVERT JUMPDEST PUSH1 0x20 SWAP1 DUP2 MUL SWAP2 SWAP1 SWAP2 ADD ADD MSTORE PUSH3 0x28C PUSH1 0x1 DUP3 PUSH3 0x8DA JUMP JUMPDEST SWAP1 POP PUSH3 0x216 JUMP JUMPDEST POP PUSH1 0x0 JUMPDEST PUSH1 0x1 DUP2 LT ISZERO PUSH3 0x316 JUMPI PUSH3 0x2D5 ADDRESS PUSH1 0x2 PUSH1 0x40 MLOAD DUP1 PUSH1 0x40 ADD PUSH1 0x40 MSTORE DUP1 PUSH1 0x7 DUP2 MSTORE PUSH1 0x20 ADD PUSH7 0x11115190555315 PUSH1 0xCA SHL DUP2 MSTORE POP PUSH3 0x3BE PUSH1 0x20 SHL PUSH1 0x20 SHR JUMP JUMPDEST DUP3 DUP3 DUP2 MLOAD DUP2 LT PUSH3 0x2F6 JUMPI PUSH4 0x4E487B71 PUSH1 0xE0 SHL PUSH1 0x0 MSTORE PUSH1 0x32 PUSH1 0x4 MSTORE PUSH1 0x24 PUSH1 0x0 REVERT JUMPDEST PUSH1 0x20 SWAP1 DUP2 MUL SWAP2 SWAP1 SWAP2 ADD ADD MSTORE PUSH3 0x30E PUSH1 0x1 DUP3 PUSH3 0x8DA JUMP JUMPDEST SWAP1 POP PUSH3 0x298 JUMP JUMPDEST POP PUSH1 0x0 SLOAD PUSH1 0x10 LT ISZERO PUSH3 0x346 JUMPI PUSH1 0x40 MLOAD PUSH3 0x461BCD PUSH1 0xE5 SHL DUP2 MSTORE PUSH1 0x4 ADD PUSH3 0x33D SWAP1 PUSH3 0x7AC JUMP JUMPDEST PUSH1 0x40 MLOAD DUP1 SWAP2 SUB SWAP1 REVERT JUMPDEST ADDRESS PUSH1 0x0 SWAP1 DUP2 MSTORE PUSH1 0xC PUSH1 0x20 MSTORE PUSH1 0x40 SWAP1 KECCAK256 SLOAD PUSH1 0x10 LT ISZERO PUSH3 0x379 JUMPI PUSH1 0x40 MLOAD PUSH3 0x461BCD PUSH1 0xE5 SHL DUP2 MSTORE PUSH1 0x4 ADD PUSH3 0x33D SWAP1 PUSH3 0x7E3 JUMP JUMPDEST PUSH3 0x385 ADDRESS DUP6 PUSH3 0x61F JUMP JUMPDEST POP PUSH3 0x394 SWAP1 POP ADDRESS DUP5 PUSH3 0x61F JUMP JUMPDEST POP PUSH3 0x3A3 SWAP1 POP ADDRESS DUP4 PUSH3 0x61F JUMP JUMPDEST POP PUSH3 0x3B2 SWAP1 POP ADDRESS DUP3 PUSH3 0x61F JUMP JUMPDEST POP POP POP POP POP POP PUSH3 0x8FF JUMP JUMPDEST PUSH1 0x0 DUP1 DUP4 PUSH1 0x2 DUP2 GT ISZERO PUSH3 0x3E2 JUMPI PUSH4 0x4E487B71 PUSH1 0xE0 SHL PUSH1 0x0 MSTORE PUSH1 0x21 PUSH1 0x4 MSTORE PUSH1 0x24 PUSH1 0x0 REVERT JUMPDEST PUSH1 0x40 MLOAD PUSH4 0xB9BF30A5 PUSH1 0xE0 SHL DUP2 MSTORE PUSH20 0x0 SWAP2 PUSH4 0xB9BF30A5 SWAP2 PUSH3 0x41A SWAP2 SWAP1 PUSH1 0x4 ADD PUSH3 0x796 JUMP JUMPDEST PUSH1 0x20 PUSH1 0x40 MLOAD DUP1 DUP4 SUB DUP2 DUP7 DUP1 EXTCODESIZE ISZERO DUP1 ISZERO PUSH3 0x433 JUMPI PUSH1 0x0 DUP1 REVERT JUMPDEST POP GAS DELEGATECALL ISZERO DUP1 ISZERO PUSH3 0x448 JUMPI RETURNDATASIZE PUSH1 0x0 DUP1 RETURNDATACOPY RETURNDATASIZE PUSH1 0x0 REVERT JUMPDEST POP POP POP POP PUSH1 0x40 MLOAD RETURNDATASIZE PUSH1 0x1F NOT PUSH1 0x1F DUP3 ADD AND DUP3 ADD DUP1 PUSH1 0x40 MSTORE POP DUP2 ADD SWAP1 PUSH3 0x46E SWAP2 SWAP1 PUSH3 0x6F9 JUMP JUMPDEST PUSH1 0xF SLOAD PUSH1 0x40 MLOAD PUSH4 0xAF7D6CA3 PUSH1 0xE0 SHL DUP2 MSTORE SWAP2 SWAP3 POP PUSH1 0x1 PUSH1 0x1 PUSH1 0xA0 SHL SUB AND SWAP1 PUSH4 0xAF7D6CA3 SWAP1 PUSH3 0x4A3 SWAP1 DUP9 SWAP1 DUP6 SWAP1 PUSH1 0x4 ADD PUSH3 0x77D JUMP JUMPDEST PUSH1 0x20 PUSH1 0x40 MLOAD DUP1 DUP4 SUB DUP2 PUSH1 0x0 DUP8 DUP1 EXTCODESIZE ISZERO DUP1 ISZERO PUSH3 0x4BE JUMPI PUSH1 0x0 DUP1 REVERT JUMPDEST POP GAS CALL ISZERO DUP1 ISZERO PUSH3 0x4D3 JUMPI RETURNDATASIZE PUSH1 0x0 DUP1 RETURNDATACOPY RETURNDATASIZE PUSH1 0x0 REVERT JUMPDEST POP POP POP POP PUSH1 0x40 MLOAD RETURNDATASIZE PUSH1 0x1F NOT PUSH1 0x1F DUP3 ADD AND DUP3 ADD DUP1 PUSH1 0x40 MSTORE POP DUP2 ADD SWAP1 PUSH3 0x4F9 SWAP2 SWAP1 PUSH3 0x6D0 JUMP JUMPDEST POP PUSH1 0x40 MLOAD PUSH4 0x5B254BDD PUSH1 0xE1 SHL DUP2 MSTORE PUSH20 0x0 SWAP1 PUSH4 0xB64A97BA SWAP1 PUSH3 0x538 SWAP1 PUSH1 0x0 SWAP1 DUP9 SWAP1 DUP9 SWAP1 PUSH1 0x4 ADD PUSH3 0x86C JUMP JUMPDEST PUSH1 0x20 PUSH1 0x40 MLOAD DUP1 DUP4 SUB DUP2 DUP7 DUP1 EXTCODESIZE ISZERO DUP1 ISZERO PUSH3 0x551 JUMPI PUSH1 0x0 DUP1 REVERT JUMPDEST POP GAS DELEGATECALL ISZERO DUP1 ISZERO PUSH3 0x566 JUMPI RETURNDATASIZE PUSH1 0x0 DUP1 RETURNDATACOPY RETURNDATASIZE PUSH1 0x0 REVERT JUMPDEST POP POP POP POP PUSH1 0x40 MLOAD RETURNDATASIZE PUSH1 0x1F NOT PUSH1 0x1F DUP3 ADD AND DUP3 ADD DUP1 PUSH1 0x40 MSTORE POP DUP2 ADD SWAP1 PUSH3 0x58C SWAP2 SWAP1 PUSH3 0x6F9 JUMP JUMPDEST SWAP2 POP DUP2 PUSH32 0xB89BE3B4BDC4059B3E8638AC07EF31FB78418648FFA34EACCB60B1C60F318D29 DUP7 PUSH1 0x40 MLOAD PUSH3 0x5C0 SWAP2 SWAP1 PUSH3 0x769 JUMP JUMPDEST PUSH1 0x40 MLOAD DUP1 SWAP2 SUB SWAP1 LOG2 PUSH1 0x0 DUP3 DUP2 MSTORE PUSH1 0x3 PUSH1 0x20 SWAP1 DUP2 MSTORE PUSH1 0x40 DUP1 DUP4 KECCAK256 DUP1 SLOAD PUSH1 0x1 PUSH1 0x1 PUSH1 0xA0 SHL SUB NOT AND PUSH1 0x1 PUSH1 0x1 PUSH1 0xA0 SHL SUB DUP11 AND SWAP1 DUP2 OR SWAP1 SWAP2 SSTORE DUP4 MSTORE PUSH1 0xC SWAP1 SWAP2 MSTORE DUP2 KECCAK256 DUP1 SLOAD PUSH1 0x1 SWAP3 SWAP1 PUSH3 0x611 SWAP1 DUP5 SWAP1 PUSH3 0x8DA JUMP JUMPDEST SWAP1 SWAP2 SSTORE POP SWAP2 SWAP6 SWAP5 POP POP POP POP POP JUMP JUMPDEST PUSH1 0x40 MLOAD PUSH4 0x472603D PUSH1 0xE5 SHL DUP2 MSTORE PUSH1 0x0 SWAP1 DUP2 SWAP1 PUSH20 0x0 SWAP1 PUSH4 0x8E4C07A0 SWAP1 PUSH3 0x664 SWAP1 PUSH1 0x6 SWAP1 DUP6 SWAP1 DUP9 SWAP1 DUP11 SWAP1 PUSH1 0x4 ADD PUSH3 0x801 JUMP JUMPDEST PUSH1 0x40 DUP1 MLOAD DUP1 DUP4 SUB DUP2 DUP7 DUP1 EXTCODESIZE ISZERO DUP1 ISZERO PUSH3 0x67C JUMPI PUSH1 0x0 DUP1 REVERT JUMPDEST POP GAS DELEGATECALL ISZERO DUP1 ISZERO PUSH3 0x691 JUMPI RETURNDATASIZE PUSH1 0x0 DUP1 RETURNDATACOPY RETURNDATASIZE PUSH1 0x0 REVERT JUMPDEST POP POP POP POP PUSH1 0x40 MLOAD RETURNDATASIZE PUSH1 0x1F NOT PUSH1 0x1F DUP3 ADD AND DUP3 ADD DUP1 PUSH1 0x40 MSTORE POP DUP2 ADD SWAP1 PUSH3 0x6B7 SWAP2 SWAP1 PUSH3 0x712 JUMP JUMPDEST SWAP1 SWAP6 SWAP1 SWAP5 POP SWAP3 POP POP POP JUMP JUMPDEST PUSH2 0xC62 DUP1 PUSH3 0x3D11 DUP4 CODECOPY ADD SWAP1 JUMP JUMPDEST PUSH1 0x0 PUSH1 0x20 DUP3 DUP5 SUB SLT ISZERO PUSH3 0x6E2 JUMPI DUP1 DUP2 REVERT JUMPDEST DUP2 MLOAD DUP1 ISZERO ISZERO DUP2 EQ PUSH3 0x6F2 JUMPI DUP2 DUP3 REVERT JUMPDEST SWAP4 SWAP3 POP POP POP JUMP JUMPDEST PUSH1 0x0 PUSH1 0x20 DUP3 DUP5 SUB SLT ISZERO PUSH3 0x70B JUMPI DUP1 DUP2 REVERT JUMPDEST POP MLOAD SWAP2 SWAP1 POP JUMP JUMPDEST PUSH1 0x0 DUP1 PUSH1 0x40 DUP4 DUP6 SUB SLT ISZERO PUSH3 0x725 JUMPI DUP1 DUP2 REVERT JUMPDEST DUP3 MLOAD SWAP2 POP PUSH1 0x20 DUP4 ADD MLOAD PUSH1 0x6 DUP2 LT PUSH3 0x73B JUMPI DUP2 DUP3 REVERT JUMPDEST DUP1 SWAP2 POP POP SWAP3 POP SWAP3 SWAP1 POP JUMP JUMPDEST PUSH1 0x3 DUP2 LT PUSH3 0x765 JUMPI PUSH4 0x4E487B71 PUSH1 0xE0 SHL PUSH1 0x0 MSTORE PUSH1 0x21 PUSH1 0x4 MSTORE PUSH1 0x24 PUSH1 0x0 REVERT JUMPDEST SWAP1 MSTORE JUMP JUMPDEST PUSH1 0x1 PUSH1 0x1 PUSH1 0xA0 SHL SUB SWAP2 SWAP1 SWAP2 AND DUP2 MSTORE PUSH1 0x20 ADD SWAP1 JUMP JUMPDEST PUSH1 0x1 PUSH1 0x1 PUSH1 0xA0 SHL SUB SWAP3 SWAP1 SWAP3 AND DUP3 MSTORE PUSH1 0x20 DUP3 ADD MSTORE PUSH1 0x40 ADD SWAP1 JUMP JUMPDEST PUSH1 0x20 DUP2 ADD PUSH3 0x7A6 DUP3 DUP5 PUSH3 0x746 JUMP JUMPDEST SWAP3 SWAP2 POP POP JUMP JUMPDEST PUSH1 0x20 DUP1 DUP3 MSTORE PUSH1 0x16 SWAP1 DUP3 ADD MSTORE PUSH32 0x746F6F206D616E7920756E697473206372656174656400000000000000000000 PUSH1 0x40 DUP3 ADD MSTORE PUSH1 0x60 ADD SWAP1 JUMP JUMPDEST PUSH1 0x20 DUP1 DUP3 MSTORE PUSH1 0x4 SWAP1 DUP3 ADD MSTORE PUSH4 0x686D6D6D PUSH1 0xE0 SHL PUSH1 0x40 DUP3 ADD MSTORE PUSH1 0x60 ADD SWAP1 JUMP JUMPDEST PUSH1 0x0 PUSH1 0x80 DUP3 ADD DUP7 DUP4 MSTORE PUSH1 0x20 DUP7 DUP2 DUP6 ADD MSTORE PUSH1 0x80 PUSH1 0x40 DUP6 ADD MSTORE DUP2 DUP7 MLOAD DUP1 DUP5 MSTORE PUSH1 0xA0 DUP7 ADD SWAP2 POP DUP3 DUP9 ADD SWAP4 POP DUP5 JUMPDEST DUP2 DUP2 LT ISZERO PUSH3 0x849 JUMPI DUP5 MLOAD DUP4 MSTORE SWAP4 DUP4 ADD SWAP4 SWAP2 DUP4 ADD SWAP2 PUSH1 0x1 ADD PUSH3 0x82B JUMP JUMPDEST POP POP PUSH1 0x1 PUSH1 0x1 PUSH1 0xA0 SHL SUB SWAP6 SWAP1 SWAP6 AND PUSH1 0x60 SWAP5 SWAP1 SWAP5 ADD SWAP4 SWAP1 SWAP4 MSTORE POP SWAP2 SWAP6 SWAP5 POP POP POP POP POP JUMP JUMPDEST PUSH1 0x0 DUP5 DUP3 MSTORE PUSH1 0x20 PUSH3 0x881 DUP2 DUP5 ADD DUP7 PUSH3 0x746 JUMP JUMPDEST PUSH1 0x60 PUSH1 0x40 DUP5 ADD MSTORE DUP4 MLOAD DUP1 PUSH1 0x60 DUP6 ADD MSTORE DUP3 JUMPDEST DUP2 DUP2 LT ISZERO PUSH3 0x8B0 JUMPI DUP6 DUP2 ADD DUP4 ADD MLOAD DUP6 DUP3 ADD PUSH1 0x80 ADD MSTORE DUP3 ADD PUSH3 0x892 JUMP JUMPDEST DUP2 DUP2 GT ISZERO PUSH3 0x8C2 JUMPI DUP4 PUSH1 0x80 DUP4 DUP8 ADD ADD MSTORE JUMPDEST POP PUSH1 0x1F ADD PUSH1 0x1F NOT AND SWAP3 SWAP1 SWAP3 ADD PUSH1 0x80 ADD SWAP6 SWAP5 POP POP POP POP POP JUMP JUMPDEST PUSH1 0x0 DUP3 NOT DUP3 GT ISZERO PUSH3 0x8FA JUMPI PUSH4 0x4E487B71 PUSH1 0xE0 SHL DUP2 MSTORE PUSH1 0x11 PUSH1 0x4 MSTORE PUSH1 0x24 DUP2 REVERT JUMPDEST POP ADD SWAP1 JUMP JUMPDEST PUSH2 0x3402 DUP1 PUSH3 0x90F PUSH1 0x0 CODECOPY PUSH1 0x0 RETURN INVALID PUSH1 0x80 PUSH1 0x40 MSTORE CALLVALUE DUP1 ISZERO PUSH2 0x10 JUMPI PUSH1 0x0 DUP1 REVERT JUMPDEST POP PUSH1 0x4 CALLDATASIZE LT PUSH2 0x1F0 JUMPI PUSH1 0x0 CALLDATALOAD PUSH1 0xE0 SHR DUP1 PUSH4 0x70A08231 GT PUSH2 0x10F JUMPI DUP1 PUSH4 0xA367DD3C GT PUSH2 0xA2 JUMPI DUP1 PUSH4 0xD1454521 GT PUSH2 0x71 JUMPI DUP1 PUSH4 0xD1454521 EQ PUSH2 0x43A JUMPI DUP1 PUSH4 0xDBA7F943 EQ PUSH2 0x442 JUMPI DUP1 PUSH4 0xE4B50CB8 EQ PUSH2 0x455 JUMPI DUP1 PUSH4 0xE56053EB EQ PUSH2 0x475 JUMPI PUSH2 0x1F0 JUMP JUMPDEST DUP1 PUSH4 0xA367DD3C EQ PUSH2 0x3F9 JUMPI DUP1 PUSH4 0xA9059CBB EQ PUSH2 0x40C JUMPI DUP1 PUSH4 0xB5FC9833 EQ PUSH2 0x41F JUMPI DUP1 PUSH4 0xC44E6640 EQ PUSH2 0x432 JUMPI PUSH2 0x1F0 JUMP JUMPDEST DUP1 PUSH4 0x898F4299 GT PUSH2 0xDE JUMPI DUP1 PUSH4 0x898F4299 EQ PUSH2 0x3C1 JUMPI DUP1 PUSH4 0x95D89B41 EQ PUSH2 0x3D4 JUMPI DUP1 PUSH4 0x99975226 EQ PUSH2 0x3DC JUMPI DUP1 PUSH4 0xA2E1B4D0 EQ PUSH2 0x3E4 JUMPI PUSH2 0x1F0 JUMP JUMPDEST DUP1 PUSH4 0x70A08231 EQ PUSH2 0x375 JUMPI DUP1 PUSH4 0x727954FD EQ PUSH2 0x388 JUMPI DUP1 PUSH4 0x76D4FC57 EQ PUSH2 0x39B JUMPI DUP1 PUSH4 0x8462151C EQ PUSH2 0x3AE JUMPI PUSH2 0x1F0 JUMP JUMPDEST DUP1 PUSH4 0x4282EF98 GT PUSH2 0x187 JUMPI DUP1 PUSH4 0x5F9FD5F5 GT PUSH2 0x156 JUMPI DUP1 PUSH4 0x5F9FD5F5 EQ PUSH2 0x30F JUMPI DUP1 PUSH4 0x6352211E EQ PUSH2 0x322 JUMPI DUP1 PUSH4 0x64E0B81F EQ PUSH2 0x342 JUMPI DUP1 PUSH4 0x69A0E966 EQ PUSH2 0x355 JUMPI PUSH2 0x1F0 JUMP JUMPDEST DUP1 PUSH4 0x4282EF98 EQ PUSH2 0x2B6 JUMPI DUP1 PUSH4 0x54C8A21E EQ PUSH2 0x2C9 JUMPI DUP1 PUSH4 0x598647F8 EQ PUSH2 0x2DC JUMPI DUP1 PUSH4 0x5BC60976 EQ PUSH2 0x2EF JUMPI PUSH2 0x1F0 JUMP JUMPDEST DUP1 PUSH4 0x18160DDD GT PUSH2 0x1C3 JUMPI DUP1 PUSH4 0x18160DDD EQ PUSH2 0x26D JUMPI DUP1 PUSH4 0x198B367D EQ PUSH2 0x282 JUMPI DUP1 PUSH4 0x23B872DD EQ PUSH2 0x290 JUMPI DUP1 PUSH4 0x27E78202 EQ PUSH2 0x2A3 JUMPI PUSH2 0x1F0 JUMP JUMPDEST DUP1 PUSH4 0x1FFC9A7 EQ PUSH2 0x1F5 JUMPI DUP1 PUSH4 0x6FDDE03 EQ PUSH2 0x21E JUMPI DUP1 PUSH4 0x95EA7B3 EQ PUSH2 0x233 JUMPI DUP1 PUSH4 0x17DC6BF6 EQ PUSH2 0x248 JUMPI JUMPDEST PUSH1 0x0 DUP1 REVERT JUMPDEST PUSH2 0x208 PUSH2 0x203 CALLDATASIZE PUSH1 0x4 PUSH2 0x299C JUMP JUMPDEST PUSH2 0x488 JUMP JUMPDEST PUSH1 0x40 MLOAD PUSH2 0x215 SWAP2 SWAP1 PUSH2 0x2D42 JUMP JUMPDEST PUSH1 0x40 MLOAD DUP1 SWAP2 SUB SWAP1 RETURN JUMPDEST PUSH2 0x226 PUSH2 0x48E JUMP JUMPDEST PUSH1 0x40 MLOAD PUSH2 0x215 SWAP2 SWAP1 PUSH2 0x2D5B JUMP JUMPDEST PUSH2 0x246 PUSH2 0x241 CALLDATASIZE PUSH1 0x4 PUSH2 0x26D4 JUMP JUMPDEST PUSH2 0x4BC JUMP JUMPDEST STOP JUMPDEST PUSH2 0x25B PUSH2 0x256 CALLDATASIZE PUSH1 0x4 PUSH2 0x2A4F JUMP JUMPDEST PUSH2 0x62B JUMP JUMPDEST PUSH1 0x40 MLOAD PUSH2 0x215 SWAP7 SWAP6 SWAP5 SWAP4 SWAP3 SWAP2 SWAP1 PUSH2 0x31F4 JUMP JUMPDEST PUSH2 0x275 PUSH2 0x791 JUMP JUMPDEST PUSH1 0x40 MLOAD PUSH2 0x215 SWAP2 SWAP1 PUSH2 0x31EB JUMP JUMPDEST PUSH2 0x208 PUSH2 0x203 CALLDATASIZE PUSH1 0x4 PUSH2 0x2A4F JUMP JUMPDEST PUSH2 0x246 PUSH2 0x29E CALLDATASIZE PUSH1 0x4 PUSH2 0x2699 JUMP JUMPDEST PUSH2 0x797 JUMP JUMPDEST PUSH2 0x275 PUSH2 0x2B1 CALLDATASIZE PUSH1 0x4 PUSH2 0x29E0 JUMP JUMPDEST PUSH2 0x8C7 JUMP JUMPDEST PUSH2 0x275 PUSH2 0x2C4 CALLDATASIZE PUSH1 0x4 PUSH2 0x2678 JUMP JUMPDEST PUSH2 0x909 JUMP JUMPDEST PUSH2 0x275 PUSH2 0x2D7 CALLDATASIZE PUSH1 0x4 PUSH2 0x2905 JUMP JUMPDEST PUSH2 0x924 JUMP JUMPDEST PUSH2 0x246 PUSH2 0x2EA CALLDATASIZE PUSH1 0x4 PUSH2 0x2AAE JUMP JUMPDEST PUSH2 0xA0F JUMP JUMPDEST PUSH2 0x302 PUSH2 0x2FD CALLDATASIZE PUSH1 0x4 PUSH2 0x2678 JUMP JUMPDEST PUSH2 0xAB1 JUMP JUMPDEST PUSH1 0x40 MLOAD PUSH2 0x215 SWAP2 SWAP1 PUSH2 0x2D2F JUMP JUMPDEST PUSH2 0x246 PUSH2 0x31D CALLDATASIZE PUSH1 0x4 PUSH2 0x2A4F JUMP JUMPDEST PUSH2 0xBA1 JUMP JUMPDEST PUSH2 0x335 PUSH2 0x330 CALLDATASIZE PUSH1 0x4 PUSH2 0x2A4F JUMP JUMPDEST PUSH2 0xBA4 JUMP JUMPDEST PUSH1 0x40 MLOAD PUSH2 0x215 SWAP2 SWAP1 PUSH2 0x2C08 JUMP JUMPDEST PUSH2 0x302 PUSH2 0x350 CALLDATASIZE PUSH1 0x4 PUSH2 0x29C4 JUMP JUMPDEST PUSH2 0xBBF JUMP JUMPDEST PUSH2 0x368 PUSH2 0x363 CALLDATASIZE PUSH1 0x4 PUSH2 0x2A4F JUMP JUMPDEST PUSH2 0xC68 JUMP JUMPDEST PUSH1 0x40 MLOAD PUSH2 0x215 SWAP2 SWAP1 PUSH2 0x3147 JUMP JUMPDEST PUSH2 0x275 PUSH2 0x383 CALLDATASIZE PUSH1 0x4 PUSH2 0x2678 JUMP JUMPDEST PUSH2 0xD28 JUMP JUMPDEST PUSH2 0x302 PUSH2 0x396 CALLDATASIZE PUSH1 0x4 PUSH2 0x2A4F JUMP JUMPDEST PUSH2 0xD7E JUMP JUMPDEST PUSH2 0x246 PUSH2 0x3A9 CALLDATASIZE PUSH1 0x4 PUSH2 0x2ACF JUMP JUMPDEST PUSH2 0xE02 JUMP JUMPDEST PUSH2 0x302 PUSH2 0x3BC CALLDATASIZE PUSH1 0x4 PUSH2 0x2678 JUMP JUMPDEST PUSH2 0xEF0 JUMP JUMPDEST PUSH2 0x275 PUSH2 0x3CF CALLDATASIZE PUSH1 0x4 PUSH2 0x29FC JUMP JUMPDEST PUSH2 0xFD9 JUMP JUMPDEST PUSH2 0x226 PUSH2 0x1024 JUMP JUMPDEST PUSH2 0x335 PUSH2 0x1044 JUMP JUMPDEST PUSH2 0x3EC PUSH2 0x1053 JUMP JUMPDEST PUSH1 0x40 MLOAD PUSH2 0x215 SWAP2 SWAP1 PUSH2 0x2CCF JUMP JUMPDEST PUSH2 0x302 PUSH2 0x407 CALLDATASIZE PUSH1 0x4 PUSH2 0x2A4F JUMP JUMPDEST PUSH2 0x1131 JUMP JUMPDEST PUSH2 0x246 PUSH2 0x41A CALLDATASIZE PUSH1 0x4 PUSH2 0x26D4 JUMP JUMPDEST PUSH2 0x11B9 JUMP JUMPDEST PUSH2 0x208 PUSH2 0x42D CALLDATASIZE PUSH1 0x4 PUSH2 0x2A4F JUMP JUMPDEST PUSH2 0x12A8 JUMP JUMPDEST PUSH2 0x275 PUSH2 0x1468 JUMP JUMPDEST PUSH2 0x335 PUSH2 0x146E JUMP JUMPDEST PUSH2 0x275 PUSH2 0x450 CALLDATASIZE PUSH1 0x4 PUSH2 0x287B JUMP JUMPDEST PUSH2 0x147D JUMP JUMPDEST PUSH2 0x468 PUSH2 0x463 CALLDATASIZE PUSH1 0x4 PUSH2 0x2A4F JUMP JUMPDEST PUSH2 0x1749 JUMP JUMPDEST PUSH1 0x40 MLOAD PUSH2 0x215 SWAP2 SWAP1 PUSH2 0x3189 JUMP JUMPDEST PUSH2 0x275 PUSH2 0x483 CALLDATASIZE PUSH1 0x4 PUSH2 0x28BB JUMP JUMPDEST PUSH2 0x18BD JUMP JUMPDEST POP PUSH1 0x0 SWAP1 JUMP JUMPDEST PUSH1 0x40 DUP1 MLOAD DUP1 DUP3 ADD SWAP1 SWAP2 MSTORE PUSH1 0x14 DUP2 MSTORE PUSH20 0x20BABA37A1B432B9B9902AB734BA102A37B5B2B7 PUSH1 0x61 SHL PUSH1 0x20 DUP3 ADD MSTORE SWAP1 JUMP JUMPDEST CALLER DUP3 DUP3 PUSH2 0x4C8 DUP2 PUSH2 0xBA4 JUMP JUMPDEST PUSH1 0x1 PUSH1 0x1 PUSH1 0xA0 SHL SUB AND DUP4 PUSH1 0x1 PUSH1 0x1 PUSH1 0xA0 SHL SUB AND EQ PUSH2 0x501 JUMPI PUSH1 0x40 MLOAD PUSH3 0x461BCD PUSH1 0xE5 SHL DUP2 MSTORE PUSH1 0x4 ADD PUSH2 0x4F8 SWAP1 PUSH2 0x3027 JUMP JUMPDEST PUSH1 0x40 MLOAD DUP1 SWAP2 SUB SWAP1 REVERT JUMPDEST DUP2 PUSH1 0x1 PUSH1 0x1 PUSH1 0xA0 SHL SUB AND DUP4 PUSH1 0x1 PUSH1 0x1 PUSH1 0xA0 SHL SUB AND EQ ISZERO PUSH2 0x533 JUMPI PUSH1 0x40 MLOAD PUSH3 0x461BCD PUSH1 0xE5 SHL DUP2 MSTORE PUSH1 0x4 ADD PUSH2 0x4F8 SWAP1 PUSH2 0x2ED5 JUMP JUMPDEST PUSH1 0x3 PUSH1 0x0 DUP3 DUP2 MSTORE PUSH1 0x2 PUSH1 0x20 MSTORE PUSH1 0x40 SWAP1 KECCAK256 SLOAD PUSH1 0xFF AND PUSH1 0x4 DUP2 GT ISZERO PUSH2 0x566 JUMPI PUSH4 0x4E487B71 PUSH1 0xE0 SHL PUSH1 0x0 MSTORE PUSH1 0x21 PUSH1 0x4 MSTORE PUSH1 0x24 PUSH1 0x0 REVERT JUMPDEST EQ PUSH2 0x583 JUMPI PUSH1 0x40 MLOAD PUSH3 0x461BCD PUSH1 0xE5 SHL DUP2 MSTORE PUSH1 0x4 ADD PUSH2 0x4F8 SWAP1 PUSH2 0x305E JUMP JUMPDEST PUSH1 0x1 PUSH1 0x1 PUSH1 0xA0 SHL SUB DUP3 AND PUSH2 0x5A9 JUMPI PUSH1 0x40 MLOAD PUSH3 0x461BCD PUSH1 0xE5 SHL DUP2 MSTORE PUSH1 0x4 ADD PUSH2 0x4F8 SWAP1 PUSH2 0x2FAF JUMP JUMPDEST PUSH1 0x0 DUP5 DUP2 MSTORE PUSH1 0x4 PUSH1 0x20 DUP2 DUP2 MSTORE PUSH1 0x40 DUP1 DUP5 KECCAK256 DUP1 SLOAD PUSH1 0x1 PUSH1 0x1 PUSH1 0xA0 SHL SUB NOT AND PUSH1 0x1 PUSH1 0x1 PUSH1 0xA0 SHL SUB DUP12 AND OR SWAP1 SSTORE PUSH1 0x2 SWAP1 SWAP2 MSTORE SWAP1 SWAP2 KECCAK256 DUP1 SLOAD PUSH1 0xFF NOT AND PUSH1 0x1 DUP4 MUL OR SWAP1 SSTORE POP PUSH32 0x8C5BE1E5EBEC7D5BD14F71427D1E84F3DD0314C0F7B2291E5B200AC8C7C3B925 CALLER DUP7 DUP7 PUSH1 0x40 MLOAD PUSH2 0x61C SWAP4 SWAP3 SWAP2 SWAP1 PUSH2 0x2C1C JUMP JUMPDEST PUSH1 0x40 MLOAD DUP1 SWAP2 SUB SWAP1 LOG1 POP POP POP POP POP JUMP JUMPDEST PUSH1 0x10 DUP2 DUP2 SLOAD DUP2 LT PUSH2 0x63B JUMPI PUSH1 0x0 DUP1 REVERT JUMPDEST PUSH1 0x0 SWAP2 DUP3 MSTORE PUSH1 0x20 SWAP1 SWAP2 KECCAK256 PUSH1 0x7 SWAP1 SWAP2 MUL ADD DUP1 SLOAD PUSH1 0x2 DUP3 ADD SLOAD PUSH1 0x3 DUP4 ADD SLOAD PUSH1 0x4 DUP5 ADD DUP1 SLOAD SWAP4 SWAP6 POP PUSH1 0x1 PUSH1 0x1 PUSH1 0xA0 SHL SUB SWAP3 DUP4 AND SWAP5 SWAP3 SWAP1 SWAP2 AND SWAP3 PUSH2 0x67A SWAP1 PUSH2 0x3336 JUMP JUMPDEST DUP1 PUSH1 0x1F ADD PUSH1 0x20 DUP1 SWAP2 DIV MUL PUSH1 0x20 ADD PUSH1 0x40 MLOAD SWAP1 DUP2 ADD PUSH1 0x40 MSTORE DUP1 SWAP3 SWAP2 SWAP1 DUP2 DUP2 MSTORE PUSH1 0x20 ADD DUP3 DUP1 SLOAD PUSH2 0x6A6 SWAP1 PUSH2 0x3336 JUMP JUMPDEST DUP1 ISZERO PUSH2 0x6F3 JUMPI DUP1 PUSH1 0x1F LT PUSH2 0x6C8 JUMPI PUSH2 0x100 DUP1 DUP4 SLOAD DIV MUL DUP4 MSTORE SWAP2 PUSH1 0x20 ADD SWAP2 PUSH2 0x6F3 JUMP JUMPDEST DUP3 ADD SWAP2 SWAP1 PUSH1 0x0 MSTORE PUSH1 0x20 PUSH1 0x0 KECCAK256 SWAP1 JUMPDEST DUP2 SLOAD DUP2 MSTORE SWAP1 PUSH1 0x1 ADD SWAP1 PUSH1 0x20 ADD DUP1 DUP4 GT PUSH2 0x6D6 JUMPI DUP3 SWAP1 SUB PUSH1 0x1F AND DUP3 ADD SWAP2 JUMPDEST POP POP POP POP POP SWAP1 DUP1 PUSH1 0x5 ADD DUP1 SLOAD PUSH2 0x708 SWAP1 PUSH2 0x3336 JUMP JUMPDEST DUP1 PUSH1 0x1F ADD PUSH1 0x20 DUP1 SWAP2 DIV MUL PUSH1 0x20 ADD PUSH1 0x40 MLOAD SWAP1 DUP2 ADD PUSH1 0x40 MSTORE DUP1 SWAP3 SWAP2 SWAP1 DUP2 DUP2 MSTORE PUSH1 0x20 ADD DUP3 DUP1 SLOAD PUSH2 0x734 SWAP1 PUSH2 0x3336 JUMP JUMPDEST DUP1 ISZERO PUSH2 0x781 JUMPI DUP1 PUSH1 0x1F LT PUSH2 0x756 JUMPI PUSH2 0x100 DUP1 DUP4 SLOAD DIV MUL DUP4 MSTORE SWAP2 PUSH1 0x20 ADD SWAP2 PUSH2 0x781 JUMP JUMPDEST DUP3 ADD SWAP2 SWAP1 PUSH1 0x0 MSTORE PUSH1 0x20 PUSH1 0x0 KECCAK256 SWAP1 JUMPDEST DUP2 SLOAD DUP2 MSTORE SWAP1 PUSH1 0x1 ADD SWAP1 PUSH1 0x20 ADD DUP1 DUP4 GT PUSH2 0x764 JUMPI DUP3 SWAP1 SUB PUSH1 0x1F AND DUP3 ADD SWAP2 JUMPDEST POP POP POP POP POP SWAP1 DUP1 PUSH1 0x6 ADD SLOAD SWAP1 POP DUP7 JUMP JUMPDEST PUSH1 0xD SLOAD SWAP1 JUMP JUMPDEST DUP3 DUP3 DUP3 PUSH2 0x7A3 DUP2 PUSH2 0xBA4 JUMP JUMPDEST PUSH1 0x1 PUSH1 0x1 PUSH1 0xA0 SHL SUB AND DUP4 PUSH1 0x1 PUSH1 0x1 PUSH1 0xA0 SHL SUB AND EQ PUSH2 0x7D3 JUMPI PUSH1 0x40 MLOAD PUSH3 0x461BCD PUSH1 0xE5 SHL DUP2 MSTORE PUSH1 0x4 ADD PUSH2 0x4F8 SWAP1 PUSH2 0x3027 JUMP JUMPDEST DUP2 PUSH1 0x1 PUSH1 0x1 PUSH1 0xA0 SHL SUB AND DUP4 PUSH1 0x1 PUSH1 0x1 PUSH1 0xA0 SHL SUB AND EQ ISZERO PUSH2 0x805 JUMPI PUSH1 0x40 MLOAD PUSH3 0x461BCD PUSH1 0xE5 SHL DUP2 MSTORE PUSH1 0x4 ADD PUSH2 0x4F8 SWAP1 PUSH2 0x2ED5 JUMP JUMPDEST PUSH1 0x3 PUSH1 0x0 DUP3 DUP2 MSTORE PUSH1 0x2 PUSH1 0x20 MSTORE PUSH1 0x40 SWAP1 KECCAK256 SLOAD PUSH1 0xFF AND PUSH1 0x4 DUP2 GT ISZERO PUSH2 0x838 JUMPI PUSH4 0x4E487B71 PUSH1 0xE0 SHL PUSH1 0x0 MSTORE PUSH1 0x21 PUSH1 0x4 MSTORE PUSH1 0x24 PUSH1 0x0 REVERT JUMPDEST EQ PUSH2 0x855 JUMPI PUSH1 0x40 MLOAD PUSH3 0x461BCD PUSH1 0xE5 SHL DUP2 MSTORE PUSH1 0x4 ADD PUSH2 0x4F8 SWAP1 PUSH2 0x305E JUMP JUMPDEST PUSH1 0x1 PUSH1 0x1 PUSH1 0xA0 SHL SUB DUP3 AND PUSH2 0x87B JUMPI PUSH1 0x40 MLOAD PUSH3 0x461BCD PUSH1 0xE5 SHL DUP2 MSTORE PUSH1 0x4 ADD PUSH2 0x4F8 SWAP1 PUSH2 0x2FAF JUMP JUMPDEST PUSH1 0x0 DUP5 DUP2 MSTORE PUSH1 0x4 PUSH1 0x20 MSTORE PUSH1 0x40 SWAP1 KECCAK256 SLOAD PUSH1 0x1 PUSH1 0x1 PUSH1 0xA0 SHL SUB DUP7 DUP2 AND SWAP2 AND EQ PUSH2 0x8B4 JUMPI PUSH1 0x40 MLOAD PUSH3 0x461BCD PUSH1 0xE5 SHL DUP2 MSTORE PUSH1 0x4 ADD PUSH2 0x4F8 SWAP1 PUSH2 0x2FE6 JUMP JUMPDEST PUSH2 0x8BF DUP7 DUP7 DUP7 PUSH2 0x1A11 JUMP JUMPDEST POP POP POP POP POP POP JUMP JUMPDEST PUSH1 0x0 PUSH2 0x901 CALLER DUP4 PUSH1 0x40 MLOAD DUP1 PUSH1 0x40 ADD PUSH1 0x40 MSTORE DUP1 PUSH1 0x15 DUP2 MSTORE PUSH1 0x20 ADD PUSH21 0x4D6175726963652C20746865204D6564696F637265 PUSH1 0x58 SHL DUP2 MSTORE POP PUSH2 0x1B16 JUMP JUMPDEST SWAP1 POP JUMPDEST SWAP2 SWAP1 POP JUMP JUMPDEST PUSH1 0x1 PUSH1 0x1 PUSH1 0xA0 SHL SUB AND PUSH1 0x0 SWAP1 DUP2 MSTORE PUSH1 0xB PUSH1 0x20 MSTORE PUSH1 0x40 SWAP1 KECCAK256 SLOAD SWAP1 JUMP JUMPDEST PUSH1 0x0 DUP1 JUMPDEST DUP6 DUP2 LT ISZERO PUSH2 0x972 JUMPI PUSH2 0x960 CALLER DUP9 DUP9 DUP5 DUP2 DUP2 LT PUSH2 0x954 JUMPI PUSH4 0x4E487B71 PUSH1 0xE0 SHL PUSH1 0x0 MSTORE PUSH1 0x32 PUSH1 0x4 MSTORE PUSH1 0x24 PUSH1 0x0 REVERT JUMPDEST SWAP1 POP PUSH1 0x20 MUL ADD CALLDATALOAD PUSH2 0x1D60 JUMP JUMPDEST DUP1 PUSH2 0x96A DUP2 PUSH2 0x336B JUMP JUMPDEST SWAP2 POP POP PUSH2 0x928 JUMP JUMPDEST POP PUSH1 0x40 MLOAD PUSH4 0x5A6614B3 PUSH1 0xE1 SHL DUP2 MSTORE PUSH20 0x0 SWAP1 PUSH4 0xB4CC2966 SWAP1 PUSH2 0x9B5 SWAP1 PUSH1 0x10 SWAP1 DUP11 SWAP1 DUP11 SWAP1 DUP11 SWAP1 DUP11 SWAP1 DUP11 SWAP1 PUSH1 0x4 ADD PUSH2 0x2C59 JUMP JUMPDEST PUSH1 0x20 PUSH1 0x40 MLOAD DUP1 DUP4 SUB DUP2 DUP7 DUP1 EXTCODESIZE ISZERO DUP1 ISZERO PUSH2 0x9CD JUMPI PUSH1 0x0 DUP1 REVERT JUMPDEST POP GAS DELEGATECALL ISZERO DUP1 ISZERO PUSH2 0x9E1 JUMPI RETURNDATASIZE PUSH1 0x0 DUP1 RETURNDATACOPY RETURNDATASIZE PUSH1 0x0 REVERT JUMPDEST POP POP POP POP PUSH1 0x40 MLOAD RETURNDATASIZE PUSH1 0x1F NOT PUSH1 0x1F DUP3 ADD AND DUP3 ADD DUP1 PUSH1 0x40 MSTORE POP DUP2 ADD SWAP1 PUSH2 0xA05 SWAP2 SWAP1 PUSH2 0x2A67 JUMP JUMPDEST SWAP7 SWAP6 POP POP POP POP POP POP JUMP JUMPDEST PUSH1 0x10 DUP3 DUP2 SLOAD DUP2 LT PUSH2 0xA30 JUMPI PUSH4 0x4E487B71 PUSH1 0xE0 SHL PUSH1 0x0 MSTORE PUSH1 0x32 PUSH1 0x4 MSTORE PUSH1 0x24 PUSH1 0x0 REVERT JUMPDEST PUSH1 0x0 SWAP2 DUP3 MSTORE PUSH1 0x20 SWAP1 SWAP2 KECCAK256 PUSH1 0xF SLOAD PUSH1 0x40 MLOAD PUSH4 0x385B5433 PUSH1 0xE2 SHL DUP2 MSTORE PUSH20 0x0 SWAP4 PUSH4 0xE16D50CC SWAP4 PUSH2 0xA85 SWAP4 PUSH1 0x7 SWAP1 SWAP3 MUL ADD SWAP2 DUP7 SWAP2 PUSH1 0x1 PUSH1 0x1 PUSH1 0xA0 SHL SUB AND SWAP1 PUSH1 0x4 ADD PUSH2 0x308B JUMP JUMPDEST PUSH1 0x0 PUSH1 0x40 MLOAD DUP1 DUP4 SUB DUP2 DUP7 DUP1 EXTCODESIZE ISZERO DUP1 ISZERO PUSH2 0xA9D JUMPI PUSH1 0x0 DUP1 REVERT JUMPDEST POP GAS DELEGATECALL ISZERO DUP1 ISZERO PUSH2 0x8BF JUMPI RETURNDATASIZE PUSH1 0x0 DUP1 RETURNDATACOPY RETURNDATASIZE PUSH1 0x0 REVERT JUMPDEST PUSH1 0x1 PUSH1 0x1 PUSH1 0xA0 SHL SUB DUP2 AND PUSH1 0x0 SWAP1 DUP2 MSTORE PUSH1 0xB PUSH1 0x20 MSTORE PUSH1 0x40 DUP2 KECCAK256 SLOAD PUSH1 0x60 SWAP2 SWAP1 PUSH8 0xFFFFFFFFFFFFFFFF DUP2 GT ISZERO PUSH2 0xAF4 JUMPI PUSH4 0x4E487B71 PUSH1 0xE0 SHL PUSH1 0x0 MSTORE PUSH1 0x41 PUSH1 0x4 MSTORE PUSH1 0x24 PUSH1 0x0 REVERT JUMPDEST PUSH1 0x40 MLOAD SWAP1 DUP1 DUP3 MSTORE DUP1 PUSH1 0x20 MUL PUSH1 0x20 ADD DUP3 ADD PUSH1 0x40 MSTORE DUP1 ISZERO PUSH2 0xB1D JUMPI DUP2 PUSH1 0x20 ADD PUSH1 0x20 DUP3 MUL DUP1 CALLDATASIZE DUP4 CALLDATACOPY ADD SWAP1 POP JUMPDEST POP SWAP2 POP PUSH1 0x0 JUMPDEST PUSH1 0x0 SLOAD DUP2 LT ISZERO PUSH2 0xB9A JUMPI PUSH1 0x0 DUP2 DUP2 MSTORE PUSH1 0x3 PUSH1 0x20 MSTORE PUSH1 0x40 SWAP1 KECCAK256 SLOAD PUSH1 0x1 PUSH1 0x1 PUSH1 0xA0 SHL SUB DUP6 DUP2 AND SWAP2 AND EQ ISZERO PUSH2 0xB88 JUMPI DUP1 DUP4 DUP4 PUSH2 0xB5B DUP2 PUSH2 0x336B JUMP JUMPDEST SWAP5 POP DUP2 MLOAD DUP2 LT PUSH2 0xB7B JUMPI PUSH4 0x4E487B71 PUSH1 0xE0 SHL PUSH1 0x0 MSTORE PUSH1 0x32 PUSH1 0x4 MSTORE PUSH1 0x24 PUSH1 0x0 REVERT JUMPDEST PUSH1 0x20 MUL PUSH1 0x20 ADD ADD DUP2 DUP2 MSTORE POP POP JUMPDEST DUP1 PUSH2 0xB92 DUP2 PUSH2 0x336B JUMP JUMPDEST SWAP2 POP POP PUSH2 0xB23 JUMP JUMPDEST POP POP SWAP2 SWAP1 POP JUMP JUMPDEST POP JUMP JUMPDEST PUSH1 0x0 SWAP1 DUP2 MSTORE PUSH1 0x3 PUSH1 0x20 MSTORE PUSH1 0x40 SWAP1 KECCAK256 SLOAD PUSH1 0x1 PUSH1 0x1 PUSH1 0xA0 SHL SUB AND SWAP1 JUMP JUMPDEST PUSH1 0x60 PUSH1 0x9 PUSH1 0x0 DUP4 PUSH1 0x5 DUP2 GT ISZERO PUSH2 0xBE5 JUMPI PUSH4 0x4E487B71 PUSH1 0xE0 SHL PUSH1 0x0 MSTORE PUSH1 0x21 PUSH1 0x4 MSTORE PUSH1 0x24 PUSH1 0x0 REVERT JUMPDEST PUSH1 0x5 DUP2 GT ISZERO PUSH2 0xC04 JUMPI PUSH4 0x4E487B71 PUSH1 0xE0 SHL PUSH1 0x0 MSTORE PUSH1 0x21 PUSH1 0x4 MSTORE PUSH1 0x24 PUSH1 0x0 REVERT JUMPDEST DUP2 MSTORE PUSH1 0x20 ADD SWAP1 DUP2 MSTORE PUSH1 0x20 ADD PUSH1 0x0 KECCAK256 DUP1 SLOAD DUP1 PUSH1 0x20 MUL PUSH1 0x20 ADD PUSH1 0x40 MLOAD SWAP1 DUP2 ADD PUSH1 0x40 MSTORE DUP1 SWAP3 SWAP2 SWAP1 DUP2 DUP2 MSTORE PUSH1 0x20 ADD DUP3 DUP1 SLOAD DUP1 ISZERO PUSH2 0xC5C JUMPI PUSH1 0x20 MUL DUP3 ADD SWAP2 SWAP1 PUSH1 0x0 MSTORE PUSH1 0x20 PUSH1 0x0 KECCAK256 SWAP1 JUMPDEST DUP2 SLOAD DUP2 MSTORE PUSH1 0x20 ADD SWAP1 PUSH1 0x1 ADD SWAP1 DUP1 DUP4 GT PUSH2 0xC48 JUMPI JUMPDEST POP POP POP POP POP SWAP1 POP SWAP2 SWAP1 POP JUMP JUMPDEST PUSH2 0xC70 PUSH2 0x24D7 JUMP JUMPDEST PUSH1 0x6 DUP1 SLOAD DUP4 SWAP1 DUP2 LT PUSH2 0xC92 JUMPI PUSH4 0x4E487B71 PUSH1 0xE0 SHL PUSH1 0x0 MSTORE PUSH1 0x32 PUSH1 0x4 MSTORE PUSH1 0x24 PUSH1 0x0 REVERT JUMPDEST SWAP1 PUSH1 0x0 MSTORE PUSH1 0x20 PUSH1 0x0 KECCAK256 SWAP1 PUSH1 0x2 MUL ADD PUSH1 0x40 MLOAD DUP1 PUSH1 0x60 ADD PUSH1 0x40 MSTORE SWAP1 DUP2 PUSH1 0x0 DUP3 ADD DUP1 SLOAD DUP1 PUSH1 0x20 MUL PUSH1 0x20 ADD PUSH1 0x40 MLOAD SWAP1 DUP2 ADD PUSH1 0x40 MSTORE DUP1 SWAP3 SWAP2 SWAP1 DUP2 DUP2 MSTORE PUSH1 0x20 ADD DUP3 DUP1 SLOAD DUP1 ISZERO PUSH2 0xCFA JUMPI PUSH1 0x20 MUL DUP3 ADD SWAP2 SWAP1 PUSH1 0x0 MSTORE PUSH1 0x20 PUSH1 0x0 KECCAK256 SWAP1 JUMPDEST DUP2 SLOAD DUP2 MSTORE PUSH1 0x20 ADD SWAP1 PUSH1 0x1 ADD SWAP1 DUP1 DUP4 GT PUSH2 0xCE6 JUMPI JUMPDEST POP POP POP SWAP2 DUP4 MSTORE POP POP PUSH1 0x1 SWAP2 SWAP1 SWAP2 ADD SLOAD PUSH2 0xFFFF DUP1 DUP3 AND PUSH1 0x20 DUP5 ADD MSTORE PUSH3 0x10000 SWAP1 SWAP2 DIV AND PUSH1 0x40 SWAP1 SWAP2 ADD MSTORE SWAP3 SWAP2 POP POP JUMP JUMPDEST PUSH1 0x0 DUP1 JUMPDEST PUSH1 0x0 SLOAD DUP2 LT ISZERO PUSH2 0xD78 JUMPI PUSH1 0x0 DUP2 DUP2 MSTORE PUSH1 0x3 PUSH1 0x20 MSTORE PUSH1 0x40 SWAP1 KECCAK256 SLOAD PUSH1 0x1 PUSH1 0x1 PUSH1 0xA0 SHL SUB DUP5 DUP2 AND SWAP2 AND EQ ISZERO PUSH2 0xD66 JUMPI DUP2 PUSH2 0xD62 DUP2 PUSH2 0x336B JUMP JUMPDEST SWAP3 POP POP JUMPDEST DUP1 PUSH2 0xD70 DUP2 PUSH2 0x336B JUMP JUMPDEST SWAP2 POP POP PUSH2 0xD2C JUMP JUMPDEST POP SWAP2 SWAP1 POP JUMP JUMPDEST PUSH1 0x60 PUSH1 0x6 PUSH1 0x0 ADD DUP3 DUP2 SLOAD DUP2 LT PUSH2 0xDA4 JUMPI PUSH4 0x4E487B71 PUSH1 0xE0 SHL PUSH1 0x0 MSTORE PUSH1 0x32 PUSH1 0x4 MSTORE PUSH1 0x24 PUSH1 0x0 REVERT JUMPDEST PUSH1 0x0 SWAP2 DUP3 MSTORE PUSH1 0x20 SWAP2 DUP3 SWAP1 KECCAK256 PUSH1 0x2 SWAP1 SWAP2 MUL ADD DUP1 SLOAD PUSH1 0x40 DUP1 MLOAD DUP3 DUP6 MUL DUP2 ADD DUP6 ADD SWAP1 SWAP2 MSTORE DUP2 DUP2 MSTORE SWAP3 DUP4 ADD DUP3 DUP3 DUP1 ISZERO PUSH2 0xC5C JUMPI PUSH1 0x20 MUL DUP3 ADD SWAP2 SWAP1 PUSH1 0x0 MSTORE PUSH1 0x20 PUSH1 0x0 KECCAK256 SWAP1 DUP2 SLOAD DUP2 MSTORE PUSH1 0x20 ADD SWAP1 PUSH1 0x1 ADD SWAP1 DUP1 DUP4 GT PUSH2 0xC48 JUMPI POP POP POP POP POP SWAP1 POP SWAP2 SWAP1 POP JUMP JUMPDEST PUSH1 0x10 DUP5 DUP2 SLOAD DUP2 LT PUSH2 0xE23 JUMPI PUSH4 0x4E487B71 PUSH1 0xE0 SHL PUSH1 0x0 MSTORE PUSH1 0x32 PUSH1 0x4 MSTORE PUSH1 0x24 PUSH1 0x0 REVERT JUMPDEST PUSH1 0x0 SWAP2 DUP3 MSTORE PUSH1 0x20 SWAP1 SWAP2 KECCAK256 PUSH1 0xF SLOAD PUSH1 0x40 MLOAD PUSH4 0x385B5433 PUSH1 0xE2 SHL DUP2 MSTORE PUSH20 0x0 SWAP4 PUSH4 0xE16D50CC SWAP4 PUSH2 0xE78 SWAP4 PUSH1 0x7 SWAP1 SWAP3 MUL ADD SWAP2 DUP9 SWAP2 PUSH1 0x1 PUSH1 0x1 PUSH1 0xA0 SHL SUB AND SWAP1 PUSH1 0x4 ADD PUSH2 0x308B JUMP JUMPDEST PUSH1 0x0 PUSH1 0x40 MLOAD DUP1 DUP4 SUB DUP2 DUP7 DUP1 EXTCODESIZE ISZERO DUP1 ISZERO PUSH2 0xE90 JUMPI PUSH1 0x0 DUP1 REVERT JUMPDEST POP GAS DELEGATECALL ISZERO DUP1 ISZERO PUSH2 0xEA4 JUMPI RETURNDATASIZE PUSH1 0x0 DUP1 RETURNDATACOPY RETURNDATASIZE PUSH1 0x0 REVERT JUMPDEST POP POP POP POP DUP2 DUP2 PUSH1 0x10 DUP7 DUP2 SLOAD DUP2 LT PUSH2 0xECB JUMPI PUSH4 0x4E487B71 PUSH1 0xE0 SHL PUSH1 0x0 MSTORE PUSH1 0x32 PUSH1 0x4 MSTORE PUSH1 0x24 PUSH1 0x0 REVERT JUMPDEST SWAP1 PUSH1 0x0 MSTORE PUSH1 0x20 PUSH1 0x0 KECCAK256 SWAP1 PUSH1 0x7 MUL ADD PUSH1 0x5 ADD SWAP2 SWAP1 PUSH2 0xEE9 SWAP3 SWAP2 SWAP1 PUSH2 0x24F7 JUMP JUMPDEST POP POP POP POP POP JUMP JUMPDEST PUSH1 0x1 PUSH1 0x1 PUSH1 0xA0 SHL SUB DUP2 AND PUSH1 0x0 SWAP1 DUP2 MSTORE PUSH1 0xC PUSH1 0x20 MSTORE PUSH1 0x40 DUP2 KECCAK256 SLOAD PUSH1 0x60 SWAP2 SWAP1 PUSH8 0xFFFFFFFFFFFFFFFF DUP2 GT ISZERO PUSH2 0xF33 JUMPI PUSH4 0x4E487B71 PUSH1 0xE0 SHL PUSH1 0x0 MSTORE PUSH1 0x41 PUSH1 0x4 MSTORE PUSH1 0x24 PUSH1 0x0 REVERT JUMPDEST PUSH1 0x40 MLOAD SWAP1 DUP1 DUP3 MSTORE DUP1 PUSH1 0x20 MUL PUSH1 0x20 ADD DUP3 ADD PUSH1 0x40 MSTORE DUP1 ISZERO PUSH2 0xF5C JUMPI DUP2 PUSH1 0x20 ADD PUSH1 0x20 DUP3 MUL DUP1 CALLDATASIZE DUP4 CALLDATACOPY ADD SWAP1 POP JUMPDEST POP SWAP2 POP PUSH1 0x0 JUMPDEST PUSH1 0x0 SLOAD DUP2 LT ISZERO PUSH2 0xB9A JUMPI PUSH1 0x0 DUP2 DUP2 MSTORE PUSH1 0x3 PUSH1 0x20 MSTORE PUSH1 0x40 SWAP1 KECCAK256 SLOAD PUSH1 0x1 PUSH1 0x1 PUSH1 0xA0 SHL SUB DUP6 DUP2 AND SWAP2 AND EQ ISZERO PUSH2 0xFC7 JUMPI DUP1 DUP4 DUP4 PUSH2 0xF9A DUP2 PUSH2 0x336B JUMP JUMPDEST SWAP5 POP DUP2 MLOAD DUP2 LT PUSH2 0xFBA JUMPI PUSH4 0x4E487B71 PUSH1 0xE0 SHL PUSH1 0x0 MSTORE PUSH1 0x32 PUSH1 0x4 MSTORE PUSH1 0x24 PUSH1 0x0 REVERT JUMPDEST PUSH1 0x20 MUL PUSH1 0x20 ADD ADD DUP2 DUP2 MSTORE POP POP JUMPDEST DUP1 PUSH2 0xFD1 DUP2 PUSH2 0x336B JUMP JUMPDEST SWAP2 POP POP PUSH2 0xF62 JUMP JUMPDEST PUSH1 0x0 PUSH2 0x101C CALLER DUP6 DUP6 DUP6 DUP1 DUP1 PUSH1 0x1F ADD PUSH1 0x20 DUP1 SWAP2 DIV MUL PUSH1 0x20 ADD PUSH1 0x40 MLOAD SWAP1 DUP2 ADD PUSH1 0x40 MSTORE DUP1 SWAP4 SWAP3 SWAP2 SWAP1 DUP2 DUP2 MSTORE PUSH1 0x20 ADD DUP4 DUP4 DUP1 DUP3 DUP5 CALLDATACOPY PUSH1 0x0 SWAP3 ADD SWAP2 SWAP1 SWAP2 MSTORE POP PUSH2 0x1B16 SWAP3 POP POP POP JUMP JUMPDEST SWAP5 SWAP4 POP POP POP POP JUMP JUMPDEST PUSH1 0x40 DUP1 MLOAD DUP1 DUP3 ADD SWAP1 SWAP2 MSTORE PUSH1 0x6 DUP2 MSTORE PUSH6 0x414348535355 PUSH1 0xD0 SHL PUSH1 0x20 DUP3 ADD MSTORE SWAP1 JUMP JUMPDEST PUSH1 0xF SLOAD PUSH1 0x1 PUSH1 0x1 PUSH1 0xA0 SHL SUB AND DUP2 JUMP JUMPDEST PUSH1 0x60 PUSH1 0x6 PUSH1 0x0 ADD DUP1 SLOAD DUP1 PUSH1 0x20 MUL PUSH1 0x20 ADD PUSH1 0x40 MLOAD SWAP1 DUP2 ADD PUSH1 0x40 MSTORE DUP1 SWAP3 SWAP2 SWAP1 DUP2 DUP2 MSTORE PUSH1 0x20 ADD PUSH1 0x0 SWAP1 JUMPDEST DUP3 DUP3 LT ISZERO PUSH2 0x1128 JUMPI DUP4 DUP3 SWAP1 PUSH1 0x0 MSTORE PUSH1 0x20 PUSH1 0x0 KECCAK256 SWAP1 PUSH1 0x2 MUL ADD PUSH1 0x40 MLOAD DUP1 PUSH1 0x60 ADD PUSH1 0x40 MSTORE SWAP1 DUP2 PUSH1 0x0 DUP3 ADD DUP1 SLOAD DUP1 PUSH1 0x20 MUL PUSH1 0x20 ADD PUSH1 0x40 MLOAD SWAP1 DUP2 ADD PUSH1 0x40 MSTORE DUP1 SWAP3 SWAP2 SWAP1 DUP2 DUP2 MSTORE PUSH1 0x20 ADD DUP3 DUP1 SLOAD DUP1 ISZERO PUSH2 0x10EC JUMPI PUSH1 0x20 MUL DUP3 ADD SWAP2 SWAP1 PUSH1 0x0 MSTORE PUSH1 0x20 PUSH1 0x0 KECCAK256 SWAP1 JUMPDEST DUP2 SLOAD DUP2 MSTORE PUSH1 0x20 ADD SWAP1 PUSH1 0x1 ADD SWAP1 DUP1 DUP4 GT PUSH2 0x10D8 JUMPI JUMPDEST POP POP POP SWAP2 DUP4 MSTORE POP POP PUSH1 0x1 SWAP2 DUP3 ADD SLOAD PUSH2 0xFFFF DUP1 DUP3 AND PUSH1 0x20 DUP1 DUP6 ADD SWAP2 SWAP1 SWAP2 MSTORE PUSH3 0x10000 SWAP1 SWAP3 DIV AND PUSH1 0x40 SWAP1 SWAP3 ADD SWAP2 SWAP1 SWAP2 MSTORE SWAP2 DUP4 MSTORE SWAP3 SWAP1 SWAP3 ADD SWAP2 ADD PUSH2 0x107A JUMP JUMPDEST POP POP POP POP SWAP1 POP SWAP1 JUMP JUMPDEST PUSH1 0x60 PUSH1 0x10 DUP3 DUP2 SLOAD DUP2 LT PUSH2 0x1154 JUMPI PUSH4 0x4E487B71 PUSH1 0xE0 SHL PUSH1 0x0 MSTORE PUSH1 0x32 PUSH1 0x4 MSTORE PUSH1 0x24 PUSH1 0x0 REVERT JUMPDEST SWAP1 PUSH1 0x0 MSTORE PUSH1 0x20 PUSH1 0x0 KECCAK256 SWAP1 PUSH1 0x7 MUL ADD PUSH1 0x1 ADD DUP1 SLOAD DUP1 PUSH1 0x20 MUL PUSH1 0x20 ADD PUSH1 0x40 MLOAD SWAP1 DUP2 ADD PUSH1 0x40 MSTORE DUP1 SWAP3 SWAP2 SWAP1 DUP2 DUP2 MSTORE PUSH1 0x20 ADD DUP3 DUP1 SLOAD DUP1 ISZERO PUSH2 0xC5C JUMPI PUSH1 0x20 MUL DUP3 ADD SWAP2 SWAP1 PUSH1 0x0 MSTORE PUSH1 0x20 PUSH1 0x0 KECCAK256 SWAP1 DUP2 SLOAD DUP2 MSTORE PUSH1 0x20 ADD SWAP1 PUSH1 0x1 ADD SWAP1 DUP1 DUP4 GT PUSH2 0xC48 JUMPI POP POP POP POP POP SWAP1 POP SWAP2 SWAP1 POP JUMP JUMPDEST CALLER DUP3 DUP3 PUSH2 0x11C5 DUP2 PUSH2 0xBA4 JUMP JUMPDEST PUSH1 0x1 PUSH1 0x1 PUSH1 0xA0 SHL SUB AND DUP4 PUSH1 0x1 PUSH1 0x1 PUSH1 0xA0 SHL SUB AND EQ PUSH2 0x11F5 JUMPI PUSH1 0x40 MLOAD PUSH3 0x461BCD PUSH1 0xE5 SHL DUP2 MSTORE PUSH1 0x4 ADD PUSH2 0x4F8 SWAP1 PUSH2 0x3027 JUMP JUMPDEST DUP2 PUSH1 0x1 PUSH1 0x1 PUSH1 0xA0 SHL SUB AND DUP4 PUSH1 0x1 PUSH1 0x1 PUSH1 0xA0 SHL SUB AND EQ ISZERO PUSH2 0x1227 JUMPI PUSH1 0x40 MLOAD PUSH3 0x461BCD PUSH1 0xE5 SHL DUP2 MSTORE PUSH1 0x4 ADD PUSH2 0x4F8 SWAP1 PUSH2 0x2ED5 JUMP JUMPDEST PUSH1 0x3 PUSH1 0x0 DUP3 DUP2 MSTORE PUSH1 0x2 PUSH1 0x20 MSTORE PUSH1 0x40 SWAP1 KECCAK256 SLOAD PUSH1 0xFF AND PUSH1 0x4 DUP2 GT ISZERO PUSH2 0x125A JUMPI PUSH4 0x4E487B71 PUSH1 0xE0 SHL PUSH1 0x0 MSTORE PUSH1 0x21 PUSH1 0x4 MSTORE PUSH1 0x24 PUSH1 0x0 REVERT JUMPDEST EQ PUSH2 0x1277 JUMPI PUSH1 0x40 MLOAD PUSH3 0x461BCD PUSH1 0xE5 SHL DUP2 MSTORE PUSH1 0x4 ADD PUSH2 0x4F8 SWAP1 PUSH2 0x305E JUMP JUMPDEST PUSH1 0x1 PUSH1 0x1 PUSH1 0xA0 SHL SUB DUP3 AND PUSH2 0x129D JUMPI PUSH1 0x40 MLOAD PUSH3 0x461BCD PUSH1 0xE5 SHL DUP2 MSTORE PUSH1 0x4 ADD PUSH2 0x4F8 SWAP1 PUSH2 0x2FAF JUMP JUMPDEST PUSH2 0xEE9 CALLER DUP7 DUP7 PUSH2 0x1A11 JUMP JUMPDEST PUSH1 0x0 CALLER PUSH1 0x1 PUSH1 0x1 PUSH1 0xA0 SHL SUB AND PUSH1 0x10 DUP4 DUP2 SLOAD DUP2 LT PUSH2 0x12D5 JUMPI PUSH4 0x4E487B71 PUSH1 0xE0 SHL PUSH1 0x0 MSTORE PUSH1 0x32 PUSH1 0x4 MSTORE PUSH1 0x24 PUSH1 0x0 REVERT JUMPDEST PUSH1 0x0 SWAP2 DUP3 MSTORE PUSH1 0x20 SWAP1 SWAP2 KECCAK256 PUSH1 0x3 PUSH1 0x7 SWAP1 SWAP3 MUL ADD ADD SLOAD PUSH1 0x1 PUSH1 0x1 PUSH1 0xA0 SHL SUB AND EQ PUSH2 0x130F JUMPI PUSH1 0x40 MLOAD PUSH3 0x461BCD PUSH1 0xE5 SHL DUP2 MSTORE PUSH1 0x4 ADD PUSH2 0x4F8 SWAP1 PUSH2 0x2E90 JUMP JUMPDEST TIMESTAMP PUSH1 0x10 DUP4 DUP2 SLOAD DUP2 LT PUSH2 0x1331 JUMPI PUSH4 0x4E487B71 PUSH1 0xE0 SHL PUSH1 0x0 MSTORE PUSH1 0x32 PUSH1 0x4 MSTORE PUSH1 0x24 PUSH1 0x0 REVERT JUMPDEST SWAP1 PUSH1 0x0 MSTORE PUSH1 0x20 PUSH1 0x0 KECCAK256 SWAP1 PUSH1 0x7 MUL ADD PUSH1 0x6 ADD SLOAD GT PUSH2 0x1360 JUMPI PUSH1 0x40 MLOAD PUSH3 0x461BCD PUSH1 0xE5 SHL DUP2 MSTORE PUSH1 0x4 ADD PUSH2 0x4F8 SWAP1 PUSH2 0x2E48 JUMP JUMPDEST PUSH1 0xF SLOAD PUSH1 0x10 DUP1 SLOAD PUSH1 0x1 PUSH1 0x1 PUSH1 0xA0 SHL SUB SWAP1 SWAP3 AND SWAP2 PUSH4 0x535B6773 SWAP2 SWAP1 DUP6 SWAP1 DUP2 LT PUSH2 0x1398 JUMPI PUSH4 0x4E487B71 PUSH1 0xE0 SHL PUSH1 0x0 MSTORE PUSH1 0x32 PUSH1 0x4 MSTORE PUSH1 0x24 PUSH1 0x0 REVERT JUMPDEST SWAP1 PUSH1 0x0 MSTORE PUSH1 0x20 PUSH1 0x0 KECCAK256 SWAP1 PUSH1 0x7 MUL ADD PUSH1 0x2 ADD PUSH1 0x0 SWAP1 SLOAD SWAP1 PUSH2 0x100 EXP SWAP1 DIV PUSH1 0x1 PUSH1 0x1 PUSH1 0xA0 SHL SUB AND PUSH1 0x10 DUP6 DUP2 SLOAD DUP2 LT PUSH2 0x13DE JUMPI PUSH4 0x4E487B71 PUSH1 0xE0 SHL PUSH1 0x0 MSTORE PUSH1 0x32 PUSH1 0x4 MSTORE PUSH1 0x24 PUSH1 0x0 REVERT JUMPDEST SWAP1 PUSH1 0x0 MSTORE PUSH1 0x20 PUSH1 0x0 KECCAK256 SWAP1 PUSH1 0x7 MUL ADD PUSH1 0x0 ADD SLOAD PUSH1 0x40 MLOAD DUP4 PUSH4 0xFFFFFFFF AND PUSH1 0xE0 SHL DUP2 MSTORE PUSH1 0x4 ADD PUSH2 0x140D SWAP3 SWAP2 SWAP1 PUSH2 0x2C40 JUMP JUMPDEST PUSH1 0x20 PUSH1 0x40 MLOAD DUP1 DUP4 SUB DUP2 PUSH1 0x0 DUP8 DUP1 EXTCODESIZE ISZERO DUP1 ISZERO PUSH2 0x1427 JUMPI PUSH1 0x0 DUP1 REVERT JUMPDEST POP GAS CALL ISZERO DUP1 ISZERO PUSH2 0x143B JUMPI RETURNDATASIZE PUSH1 0x0 DUP1 RETURNDATACOPY RETURNDATASIZE PUSH1 0x0 REVERT JUMPDEST POP POP POP POP PUSH1 0x40 MLOAD RETURNDATASIZE PUSH1 0x1F NOT PUSH1 0x1F DUP3 ADD AND DUP3 ADD DUP1 PUSH1 0x40 MSTORE POP DUP2 ADD SWAP1 PUSH2 0x145F SWAP2 SWAP1 PUSH2 0x297C JUMP JUMPDEST POP PUSH1 0x1 SWAP3 SWAP2 POP POP JUMP JUMPDEST PUSH1 0x10 SLOAD SWAP1 JUMP JUMPDEST PUSH1 0xE SLOAD PUSH1 0x1 PUSH1 0x1 PUSH1 0xA0 SHL SUB AND DUP2 JUMP JUMPDEST PUSH1 0x0 DUP1 DUP1 MSTORE PUSH1 0x9 PUSH1 0x20 MSTORE PUSH32 0xEC8156718A8372B1DB44BB411437D0870F3E3790D4A08526D024CE1B0B668F6B SLOAD PUSH1 0x40 MLOAD PUSH4 0x7CB86E81 PUSH1 0xE1 SHL DUP2 MSTORE DUP3 SWAP2 DUP3 SWAP2 PUSH20 0x0 SWAP2 PUSH4 0xF970DD02 SWAP2 PUSH2 0x14E3 SWAP2 SWAP1 PUSH1 0x4 ADD PUSH2 0x31EB JUMP JUMPDEST PUSH1 0x20 PUSH1 0x40 MLOAD DUP1 DUP4 SUB DUP2 DUP7 DUP1 EXTCODESIZE ISZERO DUP1 ISZERO PUSH2 0x14FB JUMPI PUSH1 0x0 DUP1 REVERT JUMPDEST POP GAS DELEGATECALL ISZERO DUP1 ISZERO PUSH2 0x150F JUMPI RETURNDATASIZE PUSH1 0x0 DUP1 RETURNDATACOPY RETURNDATASIZE PUSH1 0x0 REVERT JUMPDEST POP POP POP POP PUSH1 0x40 MLOAD RETURNDATASIZE PUSH1 0x1F NOT PUSH1 0x1F DUP3 ADD AND DUP3 ADD DUP1 PUSH1 0x40 MSTORE POP DUP2 ADD SWAP1 PUSH2 0x1533 SWAP2 SWAP1 PUSH2 0x2B20 JUMP JUMPDEST PUSH1 0xFF AND SWAP1 POP PUSH2 0x1575 CALLER DUP7 DUP7 DUP1 DUP1 PUSH1 0x20 MUL PUSH1 0x20 ADD PUSH1 0x40 MLOAD SWAP1 DUP2 ADD PUSH1 0x40 MSTORE DUP1 SWAP4 SWAP3 SWAP2 SWAP1 DUP2 DUP2 MSTORE PUSH1 0x20 ADD DUP4 DUP4 PUSH1 0x20 MUL DUP1 DUP3 DUP5 CALLDATACOPY PUSH1 0x0 SWAP3 ADD SWAP2 SWAP1 SWAP2 MSTORE POP PUSH2 0x1E41 SWAP3 POP POP POP JUMP JUMPDEST SWAP1 SWAP4 POP SWAP2 POP PUSH2 0x15FE DUP4 PUSH1 0x9 PUSH1 0x0 DUP6 PUSH1 0x5 DUP2 GT ISZERO PUSH2 0x15A2 JUMPI PUSH4 0x4E487B71 PUSH1 0xE0 SHL PUSH1 0x0 MSTORE PUSH1 0x21 PUSH1 0x4 MSTORE PUSH1 0x24 PUSH1 0x0 REVERT JUMPDEST PUSH1 0x5 DUP2 GT ISZERO PUSH2 0x15C1 JUMPI PUSH4 0x4E487B71 PUSH1 0xE0 SHL PUSH1 0x0 MSTORE PUSH1 0x21 PUSH1 0x4 MSTORE PUSH1 0x24 PUSH1 0x0 REVERT JUMPDEST DUP2 MSTORE PUSH1 0x20 ADD SWAP1 DUP2 MSTORE PUSH1 0x20 ADD PUSH1 0x0 KECCAK256 DUP4 DUP2 SLOAD DUP2 LT PUSH2 0x15EE JUMPI PUSH4 0x4E487B71 PUSH1 0xE0 SHL PUSH1 0x0 MSTORE PUSH1 0x32 PUSH1 0x4 MSTORE PUSH1 0x24 PUSH1 0x0 REVERT JUMPDEST SWAP1 PUSH1 0x0 MSTORE PUSH1 0x20 PUSH1 0x0 KECCAK256 ADD SLOAD PUSH2 0x1EDE JUMP JUMPDEST POP PUSH1 0x1 PUSH1 0xA PUSH1 0x0 PUSH1 0x9 DUP2 DUP7 PUSH1 0x5 DUP2 GT ISZERO PUSH2 0x1628 JUMPI PUSH4 0x4E487B71 PUSH1 0xE0 SHL PUSH1 0x0 MSTORE PUSH1 0x21 PUSH1 0x4 MSTORE PUSH1 0x24 PUSH1 0x0 REVERT JUMPDEST PUSH1 0x5 DUP2 GT ISZERO PUSH2 0x1647 JUMPI PUSH4 0x4E487B71 PUSH1 0xE0 SHL PUSH1 0x0 MSTORE PUSH1 0x21 PUSH1 0x4 MSTORE PUSH1 0x24 PUSH1 0x0 REVERT JUMPDEST DUP2 MSTORE PUSH1 0x20 ADD SWAP1 DUP2 MSTORE PUSH1 0x20 ADD PUSH1 0x0 KECCAK256 DUP5 DUP2 SLOAD DUP2 LT PUSH2 0x1674 JUMPI PUSH4 0x4E487B71 PUSH1 0xE0 SHL PUSH1 0x0 MSTORE PUSH1 0x32 PUSH1 0x4 MSTORE PUSH1 0x24 PUSH1 0x0 REVERT JUMPDEST PUSH1 0x0 SWAP2 DUP3 MSTORE PUSH1 0x20 DUP1 DUP4 KECCAK256 SWAP1 SWAP2 ADD SLOAD DUP4 MSTORE DUP3 ADD SWAP3 SWAP1 SWAP3 MSTORE PUSH1 0x40 ADD SWAP1 KECCAK256 DUP1 SLOAD PUSH1 0xFF NOT AND PUSH1 0x1 DUP4 PUSH1 0x5 DUP2 GT ISZERO PUSH2 0x16B7 JUMPI PUSH4 0x4E487B71 PUSH1 0xE0 SHL PUSH1 0x0 MSTORE PUSH1 0x21 PUSH1 0x4 MSTORE PUSH1 0x24 PUSH1 0x0 REVERT JUMPDEST MUL OR SWAP1 SSTORE POP PUSH1 0xA PUSH1 0x0 PUSH1 0x9 DUP2 DUP6 PUSH1 0x5 DUP2 GT ISZERO PUSH2 0x16E3 JUMPI PUSH4 0x4E487B71 PUSH1 0xE0 SHL PUSH1 0x0 MSTORE PUSH1 0x21 PUSH1 0x4 MSTORE PUSH1 0x24 PUSH1 0x0 REVERT JUMPDEST PUSH1 0x5 DUP2 GT ISZERO PUSH2 0x1702 JUMPI PUSH4 0x4E487B71 PUSH1 0xE0 SHL PUSH1 0x0 MSTORE PUSH1 0x21 PUSH1 0x4 MSTORE PUSH1 0x24 PUSH1 0x0 REVERT JUMPDEST DUP2 MSTORE PUSH1 0x20 ADD SWAP1 DUP2 MSTORE PUSH1 0x20 ADD PUSH1 0x0 KECCAK256 DUP4 DUP2 SLOAD DUP2 LT PUSH2 0x172F JUMPI PUSH4 0x4E487B71 PUSH1 0xE0 SHL PUSH1 0x0 MSTORE PUSH1 0x32 PUSH1 0x4 MSTORE PUSH1 0x24 PUSH1 0x0 REVERT JUMPDEST PUSH1 0x0 SWAP2 DUP3 MSTORE PUSH1 0x20 SWAP2 DUP3 SWAP1 KECCAK256 ADD SLOAD DUP3 MSTORE ADD MSTORE POP SWAP1 SWAP4 SWAP3 POP POP POP JUMP JUMPDEST PUSH2 0x1751 PUSH2 0x257B JUMP JUMPDEST PUSH1 0x0 DUP1 SLOAD DUP4 SWAP1 DUP2 LT PUSH2 0x1773 JUMPI PUSH4 0x4E487B71 PUSH1 0xE0 SHL PUSH1 0x0 MSTORE PUSH1 0x32 PUSH1 0x4 MSTORE PUSH1 0x24 PUSH1 0x0 REVERT JUMPDEST PUSH1 0x0 SWAP2 DUP3 MSTORE PUSH1 0x20 SWAP2 DUP3 SWAP1 KECCAK256 PUSH1 0x40 DUP1 MLOAD PUSH1 0xC0 DUP2 ADD DUP3 MSTORE PUSH1 0x2 SWAP4 DUP5 MUL SWAP1 SWAP3 ADD DUP1 SLOAD PUSH2 0xFFFF DUP1 DUP3 AND DUP6 MSTORE PUSH3 0x10000 DUP3 DIV DUP2 AND SWAP7 DUP6 ADD SWAP7 SWAP1 SWAP7 MSTORE PUSH5 0x100000000 DUP2 DIV DUP7 AND SWAP3 DUP5 ADD SWAP3 SWAP1 SWAP3 MSTORE PUSH7 0x1000000000000 DUP3 DIV SWAP1 SWAP5 AND PUSH1 0x60 DUP4 ADD MSTORE SWAP1 SWAP3 SWAP2 PUSH1 0x80 DUP5 ADD SWAP2 PUSH9 0x10000000000000000 SWAP1 DIV PUSH1 0xFF AND SWAP1 DUP2 GT ISZERO PUSH2 0x1801 JUMPI PUSH4 0x4E487B71 PUSH1 0xE0 SHL PUSH1 0x0 MSTORE PUSH1 0x21 PUSH1 0x4 MSTORE PUSH1 0x24 PUSH1 0x0 REVERT JUMPDEST PUSH1 0x2 DUP2 GT ISZERO PUSH2 0x1820 JUMPI PUSH4 0x4E487B71 PUSH1 0xE0 SHL PUSH1 0x0 MSTORE PUSH1 0x21 PUSH1 0x4 MSTORE PUSH1 0x24 PUSH1 0x0 REVERT JUMPDEST DUP2 MSTORE PUSH1 0x20 ADD PUSH1 0x1 DUP3 ADD DUP1 SLOAD PUSH2 0x1834 SWAP1 PUSH2 0x3336 JUMP JUMPDEST DUP1 PUSH1 0x1F ADD PUSH1 0x20 DUP1 SWAP2 DIV MUL PUSH1 0x20 ADD PUSH1 0x40 MLOAD SWAP1 DUP2 ADD PUSH1 0x40 MSTORE DUP1 SWAP3 SWAP2 SWAP1 DUP2 DUP2 MSTORE PUSH1 0x20 ADD DUP3 DUP1 SLOAD PUSH2 0x1860 SWAP1 PUSH2 0x3336 JUMP JUMPDEST DUP1 ISZERO PUSH2 0x18AD JUMPI DUP1 PUSH1 0x1F LT PUSH2 0x1882 JUMPI PUSH2 0x100 DUP1 DUP4 SLOAD DIV MUL DUP4 MSTORE SWAP2 PUSH1 0x20 ADD SWAP2 PUSH2 0x18AD JUMP JUMPDEST DUP3 ADD SWAP2 SWAP1 PUSH1 0x0 MSTORE PUSH1 0x20 PUSH1 0x0 KECCAK256 SWAP1 JUMPDEST DUP2 SLOAD DUP2 MSTORE SWAP1 PUSH1 0x1 ADD SWAP1 PUSH1 0x20 ADD DUP1 DUP4 GT PUSH2 0x1890 JUMPI DUP3 SWAP1 SUB PUSH1 0x1F AND DUP3 ADD SWAP2 JUMPDEST POP POP POP POP POP DUP2 MSTORE POP POP SWAP1 POP SWAP2 SWAP1 POP JUMP JUMPDEST PUSH1 0x0 DUP1 PUSH2 0x18FD CALLER DUP7 DUP7 DUP1 DUP1 PUSH1 0x20 MUL PUSH1 0x20 ADD PUSH1 0x40 MLOAD SWAP1 DUP2 ADD PUSH1 0x40 MSTORE DUP1 SWAP4 SWAP3 SWAP2 SWAP1 DUP2 DUP2 MSTORE PUSH1 0x20 ADD DUP4 DUP4 PUSH1 0x20 MUL DUP1 DUP3 DUP5 CALLDATACOPY PUSH1 0x0 SWAP3 ADD SWAP2 SWAP1 SWAP2 MSTORE POP PUSH2 0x1E41 SWAP3 POP POP POP JUMP JUMPDEST SWAP1 SWAP3 POP SWAP1 POP DUP3 PUSH1 0x9 PUSH1 0x0 DUP4 PUSH1 0x5 DUP2 GT ISZERO PUSH2 0x1927 JUMPI PUSH4 0x4E487B71 PUSH1 0xE0 SHL PUSH1 0x0 MSTORE PUSH1 0x21 PUSH1 0x4 MSTORE PUSH1 0x24 PUSH1 0x0 REVERT JUMPDEST PUSH1 0x5 DUP2 GT ISZERO PUSH2 0x1946 JUMPI PUSH4 0x4E487B71 PUSH1 0xE0 SHL PUSH1 0x0 MSTORE PUSH1 0x21 PUSH1 0x4 MSTORE PUSH1 0x24 PUSH1 0x0 REVERT JUMPDEST DUP2 MSTORE PUSH1 0x20 DUP2 ADD SWAP2 SWAP1 SWAP2 MSTORE PUSH1 0x40 ADD PUSH1 0x0 KECCAK256 SLOAD GT PUSH2 0x1974 JUMPI PUSH1 0x40 MLOAD PUSH3 0x461BCD PUSH1 0xE5 SHL DUP2 MSTORE PUSH1 0x4 ADD PUSH2 0x4F8 SWAP1 PUSH2 0x2E1F JUMP JUMPDEST DUP3 DUP3 EQ ISZERO PUSH2 0x1994 JUMPI PUSH1 0x40 MLOAD PUSH3 0x461BCD PUSH1 0xE5 SHL DUP2 MSTORE PUSH1 0x4 ADD PUSH2 0x4F8 SWAP1 PUSH2 0x2DE8 JUMP JUMPDEST PUSH2 0x1A08 DUP3 PUSH1 0x9 PUSH1 0x0 DUP5 PUSH1 0x5 DUP2 GT ISZERO PUSH2 0x19BC JUMPI PUSH4 0x4E487B71 PUSH1 0xE0 SHL PUSH1 0x0 MSTORE PUSH1 0x21 PUSH1 0x4 MSTORE PUSH1 0x24 PUSH1 0x0 REVERT JUMPDEST PUSH1 0x5 DUP2 GT ISZERO PUSH2 0x19DB JUMPI PUSH4 0x4E487B71 PUSH1 0xE0 SHL PUSH1 0x0 MSTORE PUSH1 0x21 PUSH1 0x4 MSTORE PUSH1 0x24 PUSH1 0x0 REVERT JUMPDEST DUP2 MSTORE PUSH1 0x20 ADD SWAP1 DUP2 MSTORE PUSH1 0x20 ADD PUSH1 0x0 KECCAK256 DUP6 DUP2 SLOAD DUP2 LT PUSH2 0x15EE JUMPI PUSH4 0x4E487B71 PUSH1 0xE0 SHL PUSH1 0x0 MSTORE PUSH1 0x32 PUSH1 0x4 MSTORE PUSH1 0x24 PUSH1 0x0 REVERT JUMPDEST POP POP SWAP4 SWAP3 POP POP POP JUMP JUMPDEST PUSH1 0x3 PUSH1 0x0 DUP3 DUP2 MSTORE PUSH1 0x2 PUSH1 0x20 MSTORE PUSH1 0x40 SWAP1 KECCAK256 SLOAD PUSH1 0xFF AND PUSH1 0x4 DUP2 GT ISZERO PUSH2 0x1A44 JUMPI PUSH4 0x4E487B71 PUSH1 0xE0 SHL PUSH1 0x0 MSTORE PUSH1 0x21 PUSH1 0x4 MSTORE PUSH1 0x24 PUSH1 0x0 REVERT JUMPDEST EQ PUSH2 0x1A61 JUMPI PUSH1 0x40 MLOAD PUSH3 0x461BCD PUSH1 0xE5 SHL DUP2 MSTORE PUSH1 0x4 ADD PUSH2 0x4F8 SWAP1 PUSH2 0x2F89 JUMP JUMPDEST PUSH1 0x0 DUP2 DUP2 MSTORE PUSH1 0x3 PUSH1 0x20 MSTORE PUSH1 0x40 SWAP1 KECCAK256 SLOAD PUSH1 0x1 PUSH1 0x1 PUSH1 0xA0 SHL SUB DUP5 DUP2 AND SWAP2 AND EQ PUSH2 0x1A9A JUMPI PUSH1 0x40 MLOAD PUSH3 0x461BCD PUSH1 0xE5 SHL DUP2 MSTORE PUSH1 0x4 ADD PUSH2 0x4F8 SWAP1 PUSH2 0x2F89 JUMP JUMPDEST PUSH1 0x0 DUP2 DUP2 MSTORE PUSH1 0x3 PUSH1 0x20 SWAP1 DUP2 MSTORE PUSH1 0x40 DUP1 DUP4 KECCAK256 DUP1 SLOAD PUSH1 0x1 PUSH1 0x1 PUSH1 0xA0 SHL SUB DUP8 AND PUSH1 0x1 PUSH1 0x1 PUSH1 0xA0 SHL SUB NOT SWAP2 DUP3 AND OR SWAP1 SWAP2 SSTORE PUSH1 0x4 SWAP1 SWAP3 MSTORE SWAP2 DUP3 SWAP1 KECCAK256 DUP1 SLOAD SWAP1 SWAP2 AND SWAP1 SSTORE MLOAD PUSH32 0xDDF252AD1BE2C89B69C2B068FC378DAA952BA7F163C4A11628F55A4DF523B3EF SWAP1 PUSH2 0x1B09 SWAP1 DUP6 SWAP1 DUP6 SWAP1 DUP6 SWAP1 PUSH2 0x2C1C JUMP JUMPDEST PUSH1 0x40 MLOAD DUP1 SWAP2 SUB SWAP1 LOG1 POP POP POP JUMP JUMPDEST PUSH1 0x0 DUP1 DUP4 PUSH1 0x2 DUP2 GT ISZERO PUSH2 0x1B39 JUMPI PUSH4 0x4E487B71 PUSH1 0xE0 SHL PUSH1 0x0 MSTORE PUSH1 0x21 PUSH1 0x4 MSTORE PUSH1 0x24 PUSH1 0x0 REVERT JUMPDEST PUSH1 0x40 MLOAD PUSH4 0xB9BF30A5 PUSH1 0xE0 SHL DUP2 MSTORE PUSH20 0x0 SWAP2 PUSH4 0xB9BF30A5 SWAP2 PUSH2 0x1B6F SWAP2 SWAP1 PUSH1 0x4 ADD PUSH2 0x2D4D JUMP JUMPDEST PUSH1 0x20 PUSH1 0x40 MLOAD DUP1 DUP4 SUB DUP2 DUP7 DUP1 EXTCODESIZE ISZERO DUP1 ISZERO PUSH2 0x1B87 JUMPI PUSH1 0x0 DUP1 REVERT JUMPDEST POP GAS DELEGATECALL ISZERO DUP1 ISZERO PUSH2 0x1B9B JUMPI RETURNDATASIZE PUSH1 0x0 DUP1 RETURNDATACOPY RETURNDATASIZE PUSH1 0x0 REVERT JUMPDEST POP POP POP POP PUSH1 0x40 MLOAD RETURNDATASIZE PUSH1 0x1F NOT PUSH1 0x1F DUP3 ADD AND DUP3 ADD DUP1 PUSH1 0x40 MSTORE POP DUP2 ADD SWAP1 PUSH2 0x1BBF SWAP2 SWAP1 PUSH2 0x2A67 JUMP JUMPDEST PUSH1 0xF SLOAD PUSH1 0x40 MLOAD PUSH4 0xAF7D6CA3 PUSH1 0xE0 SHL DUP2 MSTORE SWAP2 SWAP3 POP PUSH1 0x1 PUSH1 0x1 PUSH1 0xA0 SHL SUB AND SWAP1 PUSH4 0xAF7D6CA3 SWAP1 PUSH2 0x1BF2 SWAP1 DUP9 SWAP1 DUP6 SWAP1 PUSH1 0x4 ADD PUSH2 0x2C40 JUMP JUMPDEST PUSH1 0x20 PUSH1 0x40 MLOAD DUP1 DUP4 SUB DUP2 PUSH1 0x0 DUP8 DUP1 EXTCODESIZE ISZERO DUP1 ISZERO PUSH2 0x1C0C JUMPI PUSH1 0x0 DUP1 REVERT JUMPDEST POP GAS CALL ISZERO DUP1 ISZERO PUSH2 0x1C20 JUMPI RETURNDATASIZE PUSH1 0x0 DUP1 RETURNDATACOPY RETURNDATASIZE PUSH1 0x0 REVERT JUMPDEST POP POP POP POP PUSH1 0x40 MLOAD RETURNDATASIZE PUSH1 0x1F NOT PUSH1 0x1F DUP3 ADD AND DUP3 ADD DUP1 PUSH1 0x40 MSTORE POP DUP2 ADD SWAP1 PUSH2 0x1C44 SWAP2 SWAP1 PUSH2 0x297C JUMP JUMPDEST POP PUSH1 0x40 MLOAD PUSH4 0x5B254BDD PUSH1 0xE1 SHL DUP2 MSTORE PUSH20 0x0 SWAP1 PUSH4 0xB64A97BA SWAP1 PUSH2 0x1C81 SWAP1 PUSH1 0x0 SWAP1 DUP9 SWAP1 DUP9 SWAP1 PUSH1 0x4 ADD PUSH2 0x315A JUMP JUMPDEST PUSH1 0x20 PUSH1 0x40 MLOAD DUP1 DUP4 SUB DUP2 DUP7 DUP1 EXTCODESIZE ISZERO DUP1 ISZERO PUSH2 0x1C99 JUMPI PUSH1 0x0 DUP1 REVERT JUMPDEST POP GAS DELEGATECALL ISZERO DUP1 ISZERO PUSH2 0x1CAD JUMPI RETURNDATASIZE PUSH1 0x0 DUP1 RETURNDATACOPY RETURNDATASIZE PUSH1 0x0 REVERT JUMPDEST POP POP POP POP PUSH1 0x40 MLOAD RETURNDATASIZE PUSH1 0x1F NOT PUSH1 0x1F DUP3 ADD AND DUP3 ADD DUP1 PUSH1 0x40 MSTORE POP DUP2 ADD SWAP1 PUSH2 0x1CD1 SWAP2 SWAP1 PUSH2 0x2A67 JUMP JUMPDEST SWAP2 POP DUP2 PUSH32 0xB89BE3B4BDC4059B3E8638AC07EF31FB78418648FFA34EACCB60B1C60F318D29 DUP7 PUSH1 0x40 MLOAD PUSH2 0x1D03 SWAP2 SWAP1 PUSH2 0x2C08 JUMP JUMPDEST PUSH1 0x40 MLOAD DUP1 SWAP2 SUB SWAP1 LOG2 PUSH1 0x0 DUP3 DUP2 MSTORE PUSH1 0x3 PUSH1 0x20 SWAP1 DUP2 MSTORE PUSH1 0x40 DUP1 DUP4 KECCAK256 DUP1 SLOAD PUSH1 0x1 PUSH1 0x1 PUSH1 0xA0 SHL SUB NOT AND PUSH1 0x1 PUSH1 0x1 PUSH1 0xA0 SHL SUB DUP11 AND SWAP1 DUP2 OR SWAP1 SWAP2 SSTORE DUP4 MSTORE PUSH1 0xC SWAP1 SWAP2 MSTORE DUP2 KECCAK256 DUP1 SLOAD PUSH1 0x1 SWAP3 SWAP1 PUSH2 0x1D52 SWAP1 DUP5 SWAP1 PUSH2 0x328B JUMP JUMPDEST SWAP1 SWAP2 SSTORE POP SWAP2 SWAP6 SWAP5 POP POP POP POP POP JUMP JUMPDEST PUSH2 0x1D69 DUP2 PUSH2 0xBA4 JUMP JUMPDEST PUSH1 0x1 PUSH1 0x1 PUSH1 0xA0 SHL SUB AND DUP3 PUSH1 0x1 PUSH1 0x1 PUSH1 0xA0 SHL SUB AND EQ PUSH2 0x1D99 JUMPI PUSH1 0x40 MLOAD PUSH3 0x461BCD PUSH1 0xE5 SHL DUP2 MSTORE PUSH1 0x4 ADD PUSH2 0x4F8 SWAP1 PUSH2 0x3027 JUMP JUMPDEST PUSH1 0x3 PUSH1 0x0 DUP3 DUP2 MSTORE PUSH1 0x2 PUSH1 0x20 MSTORE PUSH1 0x40 SWAP1 KECCAK256 SLOAD PUSH1 0xFF AND PUSH1 0x4 DUP2 GT ISZERO PUSH2 0x1DCC JUMPI PUSH4 0x4E487B71 PUSH1 0xE0 SHL PUSH1 0x0 MSTORE PUSH1 0x21 PUSH1 0x4 MSTORE PUSH1 0x24 PUSH1 0x0 REVERT JUMPDEST EQ PUSH2 0x1DE9 JUMPI PUSH1 0x40 MLOAD PUSH3 0x461BCD PUSH1 0xE5 SHL DUP2 MSTORE PUSH1 0x4 ADD PUSH2 0x4F8 SWAP1 PUSH2 0x305E JUMP JUMPDEST PUSH1 0x1 PUSH1 0x1 PUSH1 0xA0 SHL SUB DUP3 AND PUSH2 0x1DFC JUMPI PUSH1 0x0 DUP1 REVERT JUMPDEST PUSH1 0x0 DUP2 DUP2 MSTORE PUSH1 0x4 PUSH1 0x20 SWAP1 DUP2 MSTORE PUSH1 0x40 DUP1 DUP4 KECCAK256 DUP1 SLOAD PUSH1 0x1 PUSH1 0x1 PUSH1 0xA0 SHL SUB NOT AND PUSH1 0x1 PUSH1 0x1 PUSH1 0xA0 SHL SUB DUP8 AND OR SWAP1 SSTORE PUSH1 0x2 SWAP2 DUP3 SWAP1 MSTORE SWAP1 SWAP2 KECCAK256 DUP1 SLOAD PUSH1 0xFF NOT AND PUSH1 0x1 DUP4 MUL OR SWAP1 SSTORE POP POP POP JUMP JUMPDEST PUSH1 0x40 MLOAD PUSH4 0x472603D PUSH1 0xE5 SHL DUP2 MSTORE PUSH1 0x0 SWAP1 DUP2 SWAP1 PUSH20 0x0 SWAP1 PUSH4 0x8E4C07A0 SWAP1 PUSH2 0x1E84 SWAP1 PUSH1 0x6 SWAP1 DUP6 SWAP1 DUP9 SWAP1 DUP11 SWAP1 PUSH1 0x4 ADD PUSH2 0x30AA JUMP JUMPDEST PUSH1 0x40 DUP1 MLOAD DUP1 DUP4 SUB DUP2 DUP7 DUP1 EXTCODESIZE ISZERO DUP1 ISZERO PUSH2 0x1E9B JUMPI PUSH1 0x0 DUP1 REVERT JUMPDEST POP GAS DELEGATECALL ISZERO DUP1 ISZERO PUSH2 0x1EAF JUMPI RETURNDATASIZE PUSH1 0x0 DUP1 RETURNDATACOPY RETURNDATASIZE PUSH1 0x0 REVERT JUMPDEST POP POP POP POP PUSH1 0x40 MLOAD RETURNDATASIZE PUSH1 0x1F NOT PUSH1 0x1F DUP3 ADD AND DUP3 ADD DUP1 PUSH1 0x40 MSTORE POP DUP2 ADD SWAP1 PUSH2 0x1ED3 SWAP2 SWAP1 PUSH2 0x2A7F JUMP JUMPDEST SWAP1 SWAP6 SWAP1 SWAP5 POP SWAP3 POP POP POP JUMP JUMPDEST PUSH1 0x0 DUP2 DUP2 MSTORE PUSH1 0xA PUSH1 0x20 MSTORE PUSH1 0x40 DUP2 KECCAK256 SLOAD PUSH1 0xFF AND PUSH1 0x5 DUP2 GT ISZERO PUSH2 0x1F0F JUMPI PUSH4 0x4E487B71 PUSH1 0xE0 SHL PUSH1 0x0 MSTORE PUSH1 0x21 PUSH1 0x4 MSTORE PUSH1 0x24 PUSH1 0x0 REVERT JUMPDEST PUSH1 0x0 DUP5 DUP2 MSTORE PUSH1 0xA PUSH1 0x20 MSTORE PUSH1 0x40 SWAP1 KECCAK256 SLOAD PUSH1 0xFF AND PUSH1 0x5 DUP2 GT ISZERO PUSH2 0x1F40 JUMPI PUSH4 0x4E487B71 PUSH1 0xE0 SHL PUSH1 0x0 MSTORE PUSH1 0x21 PUSH1 0x4 MSTORE PUSH1 0x24 PUSH1 0x0 REVERT JUMPDEST EQ PUSH2 0x1F5D JUMPI PUSH1 0x40 MLOAD PUSH3 0x461BCD PUSH1 0xE5 SHL DUP2 MSTORE PUSH1 0x4 ADD PUSH2 0x4F8 SWAP1 PUSH2 0x2D6E JUMP JUMPDEST PUSH1 0x40 MLOAD PUSH4 0xB0258AF7 PUSH1 0xE0 SHL DUP2 MSTORE PUSH1 0x0 SWAP1 PUSH20 0x0 SWAP1 PUSH4 0xB0258AF7 SWAP1 PUSH2 0x1F9C SWAP1 PUSH1 0x6 SWAP1 DUP9 SWAP1 DUP7 SWAP1 PUSH1 0x4 ADD PUSH2 0x3131 JUMP JUMPDEST PUSH1 0x0 PUSH1 0x40 MLOAD DUP1 DUP4 SUB DUP2 DUP7 DUP1 EXTCODESIZE ISZERO DUP1 ISZERO PUSH2 0x1FB4 JUMPI PUSH1 0x0 DUP1 REVERT JUMPDEST POP GAS DELEGATECALL ISZERO DUP1 ISZERO PUSH2 0x1FC8 JUMPI RETURNDATASIZE PUSH1 0x0 DUP1 RETURNDATACOPY RETURNDATASIZE PUSH1 0x0 REVERT JUMPDEST POP POP POP POP PUSH1 0x40 MLOAD RETURNDATASIZE PUSH1 0x0 DUP3 RETURNDATACOPY PUSH1 0x1F RETURNDATASIZE SWAP1 DUP2 ADD PUSH1 0x1F NOT AND DUP3 ADD PUSH1 0x40 MSTORE PUSH2 0x1FF0 SWAP2 SWAP1 DUP2 ADD SWAP1 PUSH2 0x26FD JUMP JUMPDEST PUSH1 0x40 MLOAD PUSH4 0xB0258AF7 PUSH1 0xE0 SHL DUP2 MSTORE SWAP1 SWAP2 POP PUSH1 0x0 SWAP1 PUSH20 0x0 SWAP1 PUSH4 0xB0258AF7 SWAP1 PUSH2 0x2032 SWAP1 PUSH1 0x6 SWAP1 DUP9 SWAP1 DUP7 SWAP1 PUSH1 0x4 ADD PUSH2 0x3131 JUMP JUMPDEST PUSH1 0x0 PUSH1 0x40 MLOAD DUP1 DUP4 SUB DUP2 DUP7 DUP1 EXTCODESIZE ISZERO DUP1 ISZERO PUSH2 0x204A JUMPI PUSH1 0x0 DUP1 REVERT JUMPDEST POP GAS DELEGATECALL ISZERO DUP1 ISZERO PUSH2 0x205E JUMPI RETURNDATASIZE PUSH1 0x0 DUP1 RETURNDATACOPY RETURNDATASIZE PUSH1 0x0 REVERT JUMPDEST POP POP POP POP PUSH1 0x40 MLOAD RETURNDATASIZE PUSH1 0x0 DUP3 RETURNDATACOPY PUSH1 0x1F RETURNDATASIZE SWAP1 DUP2 ADD PUSH1 0x1F NOT AND DUP3 ADD PUSH1 0x40 MSTORE PUSH2 0x2086 SWAP2 SWAP1 DUP2 ADD SWAP1 PUSH2 0x26FD JUMP JUMPDEST DUP3 MLOAD DUP2 MLOAD SWAP2 SWAP3 POP SWAP1 PUSH1 0xFF DUP1 DUP4 AND SWAP1 DUP3 AND EQ PUSH2 0x20B3 JUMPI PUSH1 0x40 MLOAD PUSH3 0x461BCD PUSH1 0xE5 SHL DUP2 MSTORE PUSH1 0x4 ADD PUSH2 0x4F8 SWAP1 PUSH2 0x2F0C JUMP JUMPDEST PUSH1 0x0 DUP1 PUSH1 0x1 DUP2 JUMPDEST PUSH1 0x2 DUP2 LT DUP1 ISZERO PUSH2 0x20CD JUMPI POP PUSH1 0x0 DUP7 PUSH1 0xFF AND GT JUMPDEST DUP1 ISZERO PUSH2 0x20DC JUMPI POP PUSH1 0x0 DUP6 PUSH1 0xFF AND GT JUMPDEST ISZERO PUSH2 0x238B JUMPI DUP2 ISZERO PUSH2 0x223C JUMPI PUSH1 0x40 MLOAD PUSH4 0x7CB86E81 PUSH1 0xE1 SHL DUP2 MSTORE PUSH20 0x0 SWAP1 PUSH4 0xF970DD02 SWAP1 PUSH2 0x211E SWAP1 DUP10 SWAP1 PUSH1 0x4 ADD PUSH2 0x324C JUMP JUMPDEST PUSH1 0x20 PUSH1 0x40 MLOAD DUP1 DUP4 SUB DUP2 DUP7 DUP1 EXTCODESIZE ISZERO DUP1 ISZERO PUSH2 0x2136 JUMPI PUSH1 0x0 DUP1 REVERT JUMPDEST POP GAS DELEGATECALL ISZERO DUP1 ISZERO PUSH2 0x214A JUMPI RETURNDATASIZE PUSH1 0x0 DUP1 RETURNDATACOPY RETURNDATASIZE PUSH1 0x0 REVERT JUMPDEST POP POP POP POP PUSH1 0x40 MLOAD RETURNDATASIZE PUSH1 0x1F NOT PUSH1 0x1F DUP3 ADD AND DUP3 ADD DUP1 PUSH1 0x40 MSTORE POP DUP2 ADD SWAP1 PUSH2 0x216E SWAP2 SWAP1 PUSH2 0x2B20 JUMP JUMPDEST PUSH1 0xFF AND SWAP4 POP PUSH2 0x217E PUSH1 0x1 DUP7 PUSH2 0x32C6 JUMP JUMPDEST PUSH1 0xFF AND SWAP3 POP DUP8 MLOAD DUP5 LT PUSH2 0x21A3 JUMPI PUSH1 0x40 MLOAD PUSH3 0x461BCD PUSH1 0xE5 SHL DUP2 MSTORE PUSH1 0x4 ADD PUSH2 0x4F8 SWAP1 PUSH2 0x2D92 JUMP JUMPDEST DUP7 MLOAD DUP4 LT PUSH2 0x21C3 JUMPI PUSH1 0x40 MLOAD PUSH3 0x461BCD PUSH1 0xE5 SHL DUP2 MSTORE PUSH1 0x4 ADD PUSH2 0x4F8 SWAP1 PUSH2 0x2F33 JUMP JUMPDEST PUSH2 0x2224 DUP8 DUP5 DUP2 MLOAD DUP2 LT PUSH2 0x21E6 JUMPI PUSH4 0x4E487B71 PUSH1 0xE0 SHL PUSH1 0x0 MSTORE PUSH1 0x32 PUSH1 0x4 MSTORE PUSH1 0x24 PUSH1 0x0 REVERT JUMPDEST PUSH1 0x20 MUL PUSH1 0x20 ADD ADD MLOAD DUP10 DUP7 DUP2 MLOAD DUP2 LT PUSH2 0x220E JUMPI PUSH4 0x4E487B71 PUSH1 0xE0 SHL PUSH1 0x0 MSTORE PUSH1 0x32 PUSH1 0x4 MSTORE PUSH1 0x24 PUSH1 0x0 REVERT JUMPDEST PUSH1 0x20 MUL PUSH1 0x20 ADD ADD MLOAD PUSH2 0x245F SWAP1 SWAP2 SWAP1 PUSH4 0xFFFFFFFF AND JUMP JUMPDEST ISZERO PUSH2 0x2237 JUMPI DUP5 PUSH2 0x2233 DUP2 PUSH2 0x3319 JUMP JUMPDEST SWAP6 POP POP JUMPDEST PUSH2 0x2376 JUMP JUMPDEST PUSH1 0x40 MLOAD PUSH4 0x7CB86E81 PUSH1 0xE1 SHL DUP2 MSTORE PUSH20 0x0 SWAP1 PUSH4 0xF970DD02 SWAP1 PUSH2 0x2273 SWAP1 DUP9 SWAP1 PUSH1 0x4 ADD PUSH2 0x324C JUMP JUMPDEST PUSH1 0x20 PUSH1 0x40 MLOAD DUP1 DUP4 SUB DUP2 DUP7 DUP1 EXTCODESIZE ISZERO DUP1 ISZERO PUSH2 0x228B JUMPI PUSH1 0x0 DUP1 REVERT JUMPDEST POP GAS DELEGATECALL ISZERO DUP1 ISZERO PUSH2 0x229F JUMPI RETURNDATASIZE PUSH1 0x0 DUP1 RETURNDATACOPY RETURNDATASIZE PUSH1 0x0 REVERT JUMPDEST POP POP POP POP PUSH1 0x40 MLOAD RETURNDATASIZE PUSH1 0x1F NOT PUSH1 0x1F DUP3 ADD AND DUP3 ADD DUP1 PUSH1 0x40 MSTORE POP DUP2 ADD SWAP1 PUSH2 0x22C3 SWAP2 SWAP1 PUSH2 0x2B20 JUMP JUMPDEST PUSH1 0xFF AND SWAP4 POP PUSH2 0x22D3 PUSH1 0x1 DUP8 PUSH2 0x32C6 JUMP JUMPDEST PUSH1 0xFF AND SWAP3 POP DUP8 MLOAD DUP5 LT PUSH2 0x22F8 JUMPI PUSH1 0x40 MLOAD PUSH3 0x461BCD PUSH1 0xE5 SHL DUP2 MSTORE PUSH1 0x4 ADD PUSH2 0x4F8 SWAP1 PUSH2 0x2F5E JUMP JUMPDEST DUP8 MLOAD DUP4 LT PUSH2 0x2318 JUMPI PUSH1 0x40 MLOAD PUSH3 0x461BCD PUSH1 0xE5 SHL DUP2 MSTORE PUSH1 0x4 ADD PUSH2 0x4F8 SWAP1 PUSH2 0x2DBD JUMP JUMPDEST PUSH2 0x2363 DUP9 DUP5 DUP2 MLOAD DUP2 LT PUSH2 0x233B JUMPI PUSH4 0x4E487B71 PUSH1 0xE0 SHL PUSH1 0x0 MSTORE PUSH1 0x32 PUSH1 0x4 MSTORE PUSH1 0x24 PUSH1 0x0 REVERT JUMPDEST PUSH1 0x20 MUL PUSH1 0x20 ADD ADD MLOAD DUP9 DUP7 DUP2 MLOAD DUP2 LT PUSH2 0x220E JUMPI PUSH4 0x4E487B71 PUSH1 0xE0 SHL PUSH1 0x0 MSTORE PUSH1 0x32 PUSH1 0x4 MSTORE PUSH1 0x24 PUSH1 0x0 REVERT JUMPDEST ISZERO PUSH2 0x2376 JUMPI DUP6 PUSH2 0x2372 DUP2 PUSH2 0x3319 JUMP JUMPDEST SWAP7 POP POP JUMPDEST SWAP1 ISZERO SWAP1 DUP1 PUSH2 0x2383 DUP2 PUSH2 0x336B JUMP JUMPDEST SWAP2 POP POP PUSH2 0x20BA JUMP JUMPDEST POP PUSH1 0x40 MLOAD PUSH4 0x148E72D9 PUSH1 0xE1 SHL DUP2 MSTORE PUSH20 0x0 SWAP1 PUSH4 0x291CE5B2 SWAP1 PUSH2 0x23CB SWAP1 PUSH1 0x6 SWAP1 PUSH1 0x0 SWAP1 DUP15 SWAP1 DUP11 SWAP1 PUSH1 0x4 ADD PUSH2 0x3113 JUMP JUMPDEST PUSH1 0x20 PUSH1 0x40 MLOAD DUP1 DUP4 SUB DUP2 DUP7 DUP1 EXTCODESIZE ISZERO DUP1 ISZERO PUSH2 0x23E3 JUMPI PUSH1 0x0 DUP1 REVERT JUMPDEST POP GAS DELEGATECALL ISZERO DUP1 ISZERO PUSH2 0x23F7 JUMPI RETURNDATASIZE PUSH1 0x0 DUP1 RETURNDATACOPY RETURNDATASIZE PUSH1 0x0 REVERT JUMPDEST POP POP POP POP PUSH1 0x40 MLOAD RETURNDATASIZE PUSH1 0x1F NOT PUSH1 0x1F DUP3 ADD AND DUP3 ADD DUP1 PUSH1 0x40 MSTORE POP DUP2 ADD SWAP1 PUSH2 0x241B SWAP2 SWAP1 PUSH2 0x2A67 JUMP JUMPDEST POP PUSH1 0x0 DUP10 DUP2 MSTORE PUSH1 0xA PUSH1 0x20 MSTORE PUSH1 0x40 SWAP1 KECCAK256 DUP1 SLOAD PUSH1 0xFF NOT AND PUSH1 0x1 OR SWAP1 SSTORE PUSH1 0xFF DUP6 AND PUSH2 0x244D JUMPI PUSH1 0x0 SWAP8 POP POP POP POP POP POP POP POP PUSH2 0x2459 JUMP JUMPDEST PUSH1 0xA SWAP8 POP POP POP POP POP POP POP POP JUMPDEST SWAP3 SWAP2 POP POP JUMP JUMPDEST PUSH1 0x0 DUP2 PUSH1 0x20 ADD MLOAD PUSH2 0xFFFF AND DUP4 PUSH1 0x0 ADD MLOAD PUSH2 0xFFFF AND LT ISZERO PUSH2 0x2481 JUMPI POP PUSH1 0x0 PUSH2 0x2459 JUMP JUMPDEST PUSH1 0x20 DUP3 ADD MLOAD DUP4 MLOAD PUSH1 0x0 SWAP2 PUSH2 0x2494 SWAP2 PUSH2 0x32A3 JUMP JUMPDEST SWAP1 POP DUP1 PUSH2 0xFFFF AND DUP4 PUSH1 0x60 ADD MLOAD PUSH2 0xFFFF AND GT PUSH2 0x24B3 JUMPI PUSH1 0x1 SWAP2 POP POP PUSH2 0x2459 JUMP JUMPDEST DUP1 DUP4 PUSH1 0x60 ADD DUP2 DUP2 MLOAD PUSH2 0x24C5 SWAP2 SWAP1 PUSH2 0x32A3 JUMP JUMPDEST PUSH2 0xFFFF AND SWAP1 MSTORE POP PUSH1 0x0 SWAP2 POP PUSH2 0x2459 SWAP1 POP JUMP JUMPDEST PUSH1 0x40 DUP1 MLOAD PUSH1 0x60 DUP1 DUP3 ADD DUP4 MSTORE DUP2 MSTORE PUSH1 0x0 PUSH1 0x20 DUP3 ADD DUP2 SWAP1 MSTORE SWAP2 DUP2 ADD SWAP2 SWAP1 SWAP2 MSTORE SWAP1 JUMP JUMPDEST DUP3 DUP1 SLOAD PUSH2 0x2503 SWAP1 PUSH2 0x3336 JUMP JUMPDEST SWAP1 PUSH1 0x0 MSTORE PUSH1 0x20 PUSH1 0x0 KECCAK256 SWAP1 PUSH1 0x1F ADD PUSH1 0x20 SWAP1 DIV DUP2 ADD SWAP3 DUP3 PUSH2 0x2525 JUMPI PUSH1 0x0 DUP6 SSTORE PUSH2 0x256B JUMP JUMPDEST DUP3 PUSH1 0x1F LT PUSH2 0x253E JUMPI DUP3 DUP1 ADD PUSH1 0xFF NOT DUP3 CALLDATALOAD AND OR DUP6 SSTORE PUSH2 0x256B JUMP JUMPDEST DUP3 DUP1 ADD PUSH1 0x1 ADD DUP6 SSTORE DUP3 ISZERO PUSH2 0x256B JUMPI SWAP2 DUP3 ADD JUMPDEST DUP3 DUP2 GT ISZERO PUSH2 0x256B JUMPI DUP3 CALLDATALOAD DUP3 SSTORE SWAP2 PUSH1 0x20 ADD SWAP2 SWAP1 PUSH1 0x1 ADD SWAP1 PUSH2 0x2550 JUMP JUMPDEST POP PUSH2 0x2577 SWAP3 SWAP2 POP PUSH2 0x25B1 JUMP JUMPDEST POP SWAP1 JUMP JUMPDEST PUSH1 0x40 DUP1 MLOAD PUSH1 0xC0 DUP2 ADD DUP3 MSTORE PUSH1 0x0 DUP1 DUP3 MSTORE PUSH1 0x20 DUP3 ADD DUP2 SWAP1 MSTORE SWAP2 DUP2 ADD DUP3 SWAP1 MSTORE PUSH1 0x60 DUP2 ADD DUP3 SWAP1 MSTORE SWAP1 PUSH1 0x80 DUP3 ADD SWAP1 DUP2 MSTORE PUSH1 0x20 ADD PUSH1 0x60 DUP2 MSTORE POP SWAP1 JUMP JUMPDEST JUMPDEST DUP1 DUP3 GT ISZERO PUSH2 0x2577 JUMPI PUSH1 0x0 DUP2 SSTORE PUSH1 0x1 ADD PUSH2 0x25B2 JUMP JUMPDEST DUP1 CALLDATALOAD PUSH1 0x1 PUSH1 0x1 PUSH1 0xA0 SHL SUB DUP2 AND DUP2 EQ PUSH2 0x904 JUMPI PUSH1 0x0 DUP1 REVERT JUMPDEST PUSH1 0x0 DUP1 DUP4 PUSH1 0x1F DUP5 ADD SLT PUSH2 0x25EE JUMPI DUP2 DUP3 REVERT JUMPDEST POP DUP2 CALLDATALOAD PUSH8 0xFFFFFFFFFFFFFFFF DUP2 GT ISZERO PUSH2 0x2605 JUMPI DUP2 DUP3 REVERT JUMPDEST PUSH1 0x20 DUP4 ADD SWAP2 POP DUP4 PUSH1 0x20 DUP1 DUP4 MUL DUP6 ADD ADD GT ISZERO PUSH2 0x261F JUMPI PUSH1 0x0 DUP1 REVERT JUMPDEST SWAP3 POP SWAP3 SWAP1 POP JUMP JUMPDEST PUSH1 0x0 DUP1 DUP4 PUSH1 0x1F DUP5 ADD SLT PUSH2 0x2637 JUMPI DUP2 DUP3 REVERT JUMPDEST POP DUP2 CALLDATALOAD PUSH8 0xFFFFFFFFFFFFFFFF DUP2 GT ISZERO PUSH2 0x264E JUMPI DUP2 DUP3 REVERT JUMPDEST PUSH1 0x20 DUP4 ADD SWAP2 POP DUP4 PUSH1 0x20 DUP3 DUP6 ADD ADD GT ISZERO PUSH2 0x261F JUMPI PUSH1 0x0 DUP1 REVERT JUMPDEST DUP1 MLOAD PUSH2 0xFFFF DUP2 AND DUP2 EQ PUSH2 0x904 JUMPI PUSH1 0x0 DUP1 REVERT JUMPDEST PUSH1 0x0 PUSH1 0x20 DUP3 DUP5 SUB SLT ISZERO PUSH2 0x2689 JUMPI DUP1 DUP2 REVERT JUMPDEST PUSH2 0x2692 DUP3 PUSH2 0x25C6 JUMP JUMPDEST SWAP4 SWAP3 POP POP POP JUMP JUMPDEST PUSH1 0x0 DUP1 PUSH1 0x0 PUSH1 0x60 DUP5 DUP7 SUB SLT ISZERO PUSH2 0x26AD JUMPI DUP2 DUP3 REVERT JUMPDEST PUSH2 0x26B6 DUP5 PUSH2 0x25C6 JUMP JUMPDEST SWAP3 POP PUSH2 0x26C4 PUSH1 0x20 DUP6 ADD PUSH2 0x25C6 JUMP JUMPDEST SWAP2 POP PUSH1 0x40 DUP5 ADD CALLDATALOAD SWAP1 POP SWAP3 POP SWAP3 POP SWAP3 JUMP JUMPDEST PUSH1 0x0 DUP1 PUSH1 0x40 DUP4 DUP6 SUB SLT ISZERO PUSH2 0x26E6 JUMPI DUP2 DUP3 REVERT JUMPDEST PUSH2 0x26EF DUP4 PUSH2 0x25C6 JUMP JUMPDEST SWAP5 PUSH1 0x20 SWAP4 SWAP1 SWAP4 ADD CALLDATALOAD SWAP4 POP POP POP JUMP JUMPDEST PUSH1 0x0 PUSH1 0x20 DUP1 DUP4 DUP6 SUB SLT ISZERO PUSH2 0x270F JUMPI DUP2 DUP3 REVERT JUMPDEST DUP3 MLOAD PUSH8 0xFFFFFFFFFFFFFFFF DUP1 DUP3 GT ISZERO PUSH2 0x2726 JUMPI DUP4 DUP5 REVERT JUMPDEST DUP2 DUP6 ADD SWAP2 POP DUP6 PUSH1 0x1F DUP4 ADD SLT PUSH2 0x2739 JUMPI DUP4 DUP5 REVERT JUMPDEST DUP2 MLOAD DUP2 DUP2 GT ISZERO PUSH2 0x274B JUMPI PUSH2 0x274B PUSH2 0x339C JUMP JUMPDEST PUSH2 0x2758 DUP5 DUP6 DUP4 MUL ADD PUSH2 0x325A JUMP JUMPDEST DUP2 DUP2 MSTORE DUP5 DUP2 ADD SWAP1 DUP5 DUP7 ADD DUP8 JUMPDEST DUP5 DUP2 LT ISZERO PUSH2 0x286C JUMPI DUP2 MLOAD DUP8 ADD PUSH1 0x1F NOT PUSH1 0xC0 DUP3 DUP15 SUB DUP3 ADD SLT ISZERO PUSH2 0x2784 JUMPI DUP11 DUP12 REVERT JUMPDEST PUSH2 0x278E PUSH1 0xC0 PUSH2 0x325A JUMP JUMPDEST PUSH2 0x2799 DUP12 DUP5 ADD PUSH2 0x2666 JUMP JUMPDEST DUP2 MSTORE PUSH2 0x27A7 PUSH1 0x40 DUP5 ADD PUSH2 0x2666 JUMP JUMPDEST DUP12 DUP3 ADD MSTORE PUSH2 0x27B7 PUSH1 0x60 DUP5 ADD PUSH2 0x2666 JUMP JUMPDEST PUSH1 0x40 DUP3 ADD MSTORE PUSH2 0x27C8 PUSH1 0x80 DUP5 ADD PUSH2 0x2666 JUMP JUMPDEST PUSH1 0x60 DUP3 ADD MSTORE PUSH1 0xA0 DUP4 ADD MLOAD PUSH2 0x27DB DUP2 PUSH2 0x33BF JUMP JUMPDEST PUSH1 0x80 DUP3 ADD MSTORE PUSH1 0xC0 DUP4 ADD MLOAD DUP10 DUP2 GT ISZERO PUSH2 0x27F1 JUMPI DUP13 DUP14 REVERT JUMPDEST DUP1 DUP5 ADD SWAP4 POP POP DUP14 PUSH1 0x3F DUP5 ADD SLT PUSH2 0x2805 JUMPI DUP12 DUP13 REVERT JUMPDEST DUP11 DUP4 ADD MLOAD DUP10 DUP2 GT ISZERO PUSH2 0x2819 JUMPI PUSH2 0x2819 PUSH2 0x339C JUMP JUMPDEST PUSH2 0x2829 DUP13 DUP5 PUSH1 0x1F DUP5 ADD AND ADD PUSH2 0x325A JUMP JUMPDEST SWAP3 POP DUP1 DUP4 MSTORE DUP15 DUP13 DUP14 DUP4 DUP8 ADD ADD ADD GT ISZERO PUSH2 0x2840 JUMPI DUP13 DUP14 REVERT JUMPDEST PUSH2 0x2850 DUP2 DUP14 DUP6 ADD PUSH1 0x40 DUP8 ADD PUSH2 0x32E9 JUMP JUMPDEST POP PUSH1 0xA0 DUP2 ADD SWAP2 SWAP1 SWAP2 MSTORE DUP6 MSTORE POP SWAP3 DUP8 ADD SWAP3 SWAP1 DUP8 ADD SWAP1 PUSH1 0x1 ADD PUSH2 0x2764 JUMP JUMPDEST POP SWAP1 SWAP10 SWAP9 POP POP POP POP POP POP POP POP POP JUMP JUMPDEST PUSH1 0x0 DUP1 PUSH1 0x20 DUP4 DUP6 SUB SLT ISZERO PUSH2 0x288D JUMPI DUP2 DUP3 REVERT JUMPDEST DUP3 CALLDATALOAD PUSH8 0xFFFFFFFFFFFFFFFF DUP2 GT ISZERO PUSH2 0x28A3 JUMPI DUP3 DUP4 REVERT JUMPDEST PUSH2 0x28AF DUP6 DUP3 DUP7 ADD PUSH2 0x25DD JUMP JUMPDEST SWAP1 SWAP7 SWAP1 SWAP6 POP SWAP4 POP POP POP POP JUMP JUMPDEST PUSH1 0x0 DUP1 PUSH1 0x0 PUSH1 0x40 DUP5 DUP7 SUB SLT ISZERO PUSH2 0x28CF JUMPI DUP3 DUP4 REVERT JUMPDEST DUP4 CALLDATALOAD PUSH8 0xFFFFFFFFFFFFFFFF DUP2 GT ISZERO PUSH2 0x28E5 JUMPI DUP4 DUP5 REVERT JUMPDEST PUSH2 0x28F1 DUP7 DUP3 DUP8 ADD PUSH2 0x25DD JUMP JUMPDEST SWAP1 SWAP8 SWAP1 SWAP7 POP PUSH1 0x20 SWAP6 SWAP1 SWAP6 ADD CALLDATALOAD SWAP5 SWAP4 POP POP POP POP JUMP JUMPDEST PUSH1 0x0 DUP1 PUSH1 0x0 DUP1 PUSH1 0x0 PUSH1 0x60 DUP7 DUP9 SUB SLT ISZERO PUSH2 0x291C JUMPI DUP1 DUP2 REVERT JUMPDEST DUP6 CALLDATALOAD PUSH8 0xFFFFFFFFFFFFFFFF DUP1 DUP3 GT ISZERO PUSH2 0x2933 JUMPI DUP3 DUP4 REVERT JUMPDEST PUSH2 0x293F DUP10 DUP4 DUP11 ADD PUSH2 0x25DD JUMP JUMPDEST SWAP1 SWAP8 POP SWAP6 POP PUSH1 0x20 DUP9 ADD CALLDATALOAD SWAP5 POP PUSH1 0x40 DUP9 ADD CALLDATALOAD SWAP2 POP DUP1 DUP3 GT ISZERO PUSH2 0x295E JUMPI DUP3 DUP4 REVERT JUMPDEST POP PUSH2 0x296B DUP9 DUP3 DUP10 ADD PUSH2 0x2626 JUMP JUMPDEST SWAP7 SWAP10 SWAP6 SWAP9 POP SWAP4 SWAP7 POP SWAP3 SWAP5 SWAP4 SWAP3 POP POP POP JUMP JUMPDEST PUSH1 0x0 PUSH1 0x20 DUP3 DUP5 SUB SLT ISZERO PUSH2 0x298D JUMPI DUP1 DUP2 REVERT JUMPDEST DUP2 MLOAD DUP1 ISZERO ISZERO DUP2 EQ PUSH2 0x2692 JUMPI DUP2 DUP3 REVERT JUMPDEST PUSH1 0x0 PUSH1 0x20 DUP3 DUP5 SUB SLT ISZERO PUSH2 0x29AD JUMPI DUP1 DUP2 REVERT JUMPDEST DUP2 CALLDATALOAD PUSH1 0x1 PUSH1 0x1 PUSH1 0xE0 SHL SUB NOT DUP2 AND DUP2 EQ PUSH2 0x2692 JUMPI DUP2 DUP3 REVERT JUMPDEST PUSH1 0x0 PUSH1 0x20 DUP3 DUP5 SUB SLT ISZERO PUSH2 0x29D5 JUMPI DUP1 DUP2 REVERT JUMPDEST DUP2 CALLDATALOAD PUSH2 0x2692 DUP2 PUSH2 0x33B2 JUMP JUMPDEST PUSH1 0x0 PUSH1 0x20 DUP3 DUP5 SUB SLT ISZERO PUSH2 0x29F1 JUMPI DUP1 DUP2 REVERT JUMPDEST DUP2 CALLDATALOAD PUSH2 0x2692 DUP2 PUSH2 0x33BF JUMP JUMPDEST PUSH1 0x0 DUP1 PUSH1 0x0 PUSH1 0x40 DUP5 DUP7 SUB SLT ISZERO PUSH2 0x2A10 JUMPI DUP1 DUP2 REVERT JUMPDEST DUP4 CALLDATALOAD PUSH2 0x2A1B DUP2 PUSH2 0x33BF JUMP JUMPDEST SWAP3 POP PUSH1 0x20 DUP5 ADD CALLDATALOAD PUSH8 0xFFFFFFFFFFFFFFFF DUP2 GT ISZERO PUSH2 0x2A36 JUMPI DUP2 DUP3 REVERT JUMPDEST PUSH2 0x2A42 DUP7 DUP3 DUP8 ADD PUSH2 0x2626 JUMP JUMPDEST SWAP5 SWAP8 SWAP1 SWAP7 POP SWAP4 SWAP5 POP POP POP POP JUMP JUMPDEST PUSH1 0x0 PUSH1 0x20 DUP3 DUP5 SUB SLT ISZERO PUSH2 0x2A60 JUMPI DUP1 DUP2 REVERT JUMPDEST POP CALLDATALOAD SWAP2 SWAP1 POP JUMP JUMPDEST PUSH1 0x0 PUSH1 0x20 DUP3 DUP5 SUB SLT ISZERO PUSH2 0x2A78 JUMPI DUP1 DUP2 REVERT JUMPDEST POP MLOAD SWAP2 SWAP1 POP JUMP JUMPDEST PUSH1 0x0 DUP1 PUSH1 0x40 DUP4 DUP6 SUB SLT ISZERO PUSH2 0x2A91 JUMPI DUP2 DUP3 REVERT JUMPDEST DUP3 MLOAD SWAP2 POP PUSH1 0x20 DUP4 ADD MLOAD PUSH2 0x2AA3 DUP2 PUSH2 0x33B2 JUMP JUMPDEST DUP1 SWAP2 POP POP SWAP3 POP SWAP3 SWAP1 POP JUMP JUMPDEST PUSH1 0x0 DUP1 PUSH1 0x40 DUP4 DUP6 SUB SLT ISZERO PUSH2 0x2AC0 JUMPI DUP2 DUP3 REVERT JUMPDEST POP POP DUP1 CALLDATALOAD SWAP3 PUSH1 0x20 SWAP1 SWAP2 ADD CALLDATALOAD SWAP2 POP JUMP JUMPDEST PUSH1 0x0 DUP1 PUSH1 0x0 DUP1 PUSH1 0x60 DUP6 DUP8 SUB SLT ISZERO PUSH2 0x2AE4 JUMPI DUP2 DUP3 REVERT JUMPDEST DUP5 CALLDATALOAD SWAP4 POP PUSH1 0x20 DUP6 ADD CALLDATALOAD SWAP3 POP PUSH1 0x40 DUP6 ADD CALLDATALOAD PUSH8 0xFFFFFFFFFFFFFFFF DUP2 GT ISZERO PUSH2 0x2B08 JUMPI DUP3 DUP4 REVERT JUMPDEST PUSH2 0x2B14 DUP8 DUP3 DUP9 ADD PUSH2 0x2626 JUMP JUMPDEST SWAP6 SWAP9 SWAP5 SWAP8 POP SWAP6 POP POP POP POP JUMP JUMPDEST PUSH1 0x0 PUSH1 0x20 DUP3 DUP5 SUB SLT ISZERO PUSH2 0x2B31 JUMPI DUP1 DUP2 REVERT JUMPDEST DUP2 MLOAD PUSH1 0xFF DUP2 AND DUP2 EQ PUSH2 0x2692 JUMPI DUP2 DUP3 REVERT JUMPDEST PUSH1 0x0 DUP2 MLOAD DUP1 DUP5 MSTORE PUSH1 0x20 DUP1 DUP6 ADD SWAP5 POP DUP1 DUP5 ADD DUP4 JUMPDEST DUP4 DUP2 LT ISZERO PUSH2 0x2B70 JUMPI DUP2 MLOAD DUP8 MSTORE SWAP6 DUP3 ADD SWAP6 SWAP1 DUP3 ADD SWAP1 PUSH1 0x1 ADD PUSH2 0x2B54 JUMP JUMPDEST POP SWAP5 SWAP6 SWAP5 POP POP POP POP POP JUMP JUMPDEST PUSH1 0x3 DUP2 LT PUSH2 0x2B99 JUMPI PUSH4 0x4E487B71 PUSH1 0xE0 SHL PUSH1 0x0 MSTORE PUSH1 0x21 PUSH1 0x4 MSTORE PUSH1 0x24 PUSH1 0x0 REVERT JUMPDEST SWAP1 MSTORE JUMP JUMPDEST PUSH1 0x0 DUP2 MLOAD DUP1 DUP5 MSTORE PUSH2 0x2BB5 DUP2 PUSH1 0x20 DUP7 ADD PUSH1 0x20 DUP7 ADD PUSH2 0x32E9 JUMP JUMPDEST PUSH1 0x1F ADD PUSH1 0x1F NOT AND SWAP3 SWAP1 SWAP3 ADD PUSH1 0x20 ADD SWAP3 SWAP2 POP POP JUMP JUMPDEST PUSH1 0x0 DUP2 MLOAD PUSH1 0x60 DUP5 MSTORE PUSH2 0x2BDE PUSH1 0x60 DUP6 ADD DUP3 PUSH2 0x2B41 JUMP JUMPDEST SWAP1 POP PUSH1 0x20 DUP4 ADD MLOAD PUSH2 0xFFFF DUP1 DUP3 AND PUSH1 0x20 DUP8 ADD MSTORE DUP1 PUSH1 0x40 DUP7 ADD MLOAD AND PUSH1 0x40 DUP8 ADD MSTORE POP POP DUP1 SWAP2 POP POP SWAP3 SWAP2 POP POP JUMP JUMPDEST PUSH1 0x1 PUSH1 0x1 PUSH1 0xA0 SHL SUB SWAP2 SWAP1 SWAP2 AND DUP2 MSTORE PUSH1 0x20 ADD SWAP1 JUMP JUMPDEST PUSH1 0x1 PUSH1 0x1 PUSH1 0xA0 SHL SUB SWAP4 DUP5 AND DUP2 MSTORE SWAP2 SWAP1 SWAP3 AND PUSH1 0x20 DUP3 ADD MSTORE PUSH1 0x40 DUP2 ADD SWAP2 SWAP1 SWAP2 MSTORE PUSH1 0x60 ADD SWAP1 JUMP JUMPDEST PUSH1 0x1 PUSH1 0x1 PUSH1 0xA0 SHL SUB SWAP3 SWAP1 SWAP3 AND DUP3 MSTORE PUSH1 0x20 DUP3 ADD MSTORE PUSH1 0x40 ADD SWAP1 JUMP JUMPDEST DUP7 DUP2 MSTORE PUSH1 0x80 PUSH1 0x20 DUP3 ADD DUP2 SWAP1 MSTORE DUP2 ADD DUP6 SWAP1 MSTORE PUSH1 0x0 PUSH1 0x1 PUSH1 0x1 PUSH1 0xFB SHL SUB DUP7 GT ISZERO PUSH2 0x2C7F JUMPI DUP1 DUP2 REVERT JUMPDEST PUSH1 0x20 DUP7 MUL DUP1 DUP9 PUSH1 0xA0 DUP6 ADD CALLDATACOPY PUSH1 0x40 DUP4 ADD DUP7 SWAP1 MSTORE DUP3 ADD DUP3 DUP2 SUB PUSH1 0xA0 SWAP1 DUP2 ADD PUSH1 0x60 DUP6 ADD MSTORE DUP2 ADD DUP5 SWAP1 MSTORE DUP4 DUP6 PUSH1 0xC0 DUP4 ADD CALLDATACOPY DUP2 PUSH1 0xC0 DUP6 DUP4 ADD ADD MSTORE PUSH1 0xC0 PUSH1 0x1F NOT PUSH1 0x1F DUP7 ADD AND DUP3 ADD ADD SWAP2 POP POP SWAP8 SWAP7 POP POP POP POP POP POP POP JUMP JUMPDEST PUSH1 0x0 PUSH1 0x20 DUP1 DUP4 ADD DUP2 DUP5 MSTORE DUP1 DUP6 MLOAD DUP1 DUP4 MSTORE PUSH1 0x40 DUP7 ADD SWAP2 POP PUSH1 0x40 DUP5 DUP3 MUL DUP8 ADD ADD SWAP3 POP DUP4 DUP8 ADD DUP6 JUMPDEST DUP3 DUP2 LT ISZERO PUSH2 0x2D22 JUMPI PUSH1 0x3F NOT DUP9 DUP7 SUB ADD DUP5 MSTORE PUSH2 0x2D10 DUP6 DUP4 MLOAD PUSH2 0x2BC9 JUMP JUMPDEST SWAP5 POP SWAP3 DUP6 ADD SWAP3 SWAP1 DUP6 ADD SWAP1 PUSH1 0x1 ADD PUSH2 0x2CF4 JUMP JUMPDEST POP SWAP3 SWAP8 SWAP7 POP POP POP POP POP POP POP JUMP JUMPDEST PUSH1 0x0 PUSH1 0x20 DUP3 MSTORE PUSH2 0x2692 PUSH1 0x20 DUP4 ADD DUP5 PUSH2 0x2B41 JUMP JUMPDEST SWAP1 ISZERO ISZERO DUP2 MSTORE PUSH1 0x20 ADD SWAP1 JUMP JUMPDEST PUSH1 0x20 DUP2 ADD PUSH2 0x2459 DUP3 DUP5 PUSH2 0x2B7B JUMP JUMPDEST PUSH1 0x0 PUSH1 0x20 DUP3 MSTORE PUSH2 0x2692 PUSH1 0x20 DUP4 ADD DUP5 PUSH2 0x2B9D JUMP JUMPDEST PUSH1 0x20 DUP1 DUP3 MSTORE PUSH1 0xA SWAP1 DUP3 ADD MSTORE PUSH10 0x3BB937B733903A34B2B9 PUSH1 0xB1 SHL PUSH1 0x40 DUP3 ADD MSTORE PUSH1 0x60 ADD SWAP1 JUMP JUMPDEST PUSH1 0x20 DUP1 DUP3 MSTORE PUSH1 0x11 SWAP1 DUP3 ADD MSTORE PUSH17 0x496E76616C69642061612063686F696365 PUSH1 0x78 SHL PUSH1 0x40 DUP3 ADD MSTORE PUSH1 0x60 ADD SWAP1 JUMP JUMPDEST PUSH1 0x20 DUP1 DUP3 MSTORE PUSH1 0x11 SWAP1 DUP3 ADD MSTORE PUSH17 0x496E76616C69642061642063686F696365 PUSH1 0x78 SHL PUSH1 0x40 DUP3 ADD MSTORE PUSH1 0x60 ADD SWAP1 JUMP JUMPDEST PUSH1 0x20 DUP1 DUP3 MSTORE PUSH1 0x17 SWAP1 DUP3 ADD MSTORE PUSH32 0x756E69742063616E277420666967687420697473656C66000000000000000000 PUSH1 0x40 DUP3 ADD MSTORE PUSH1 0x60 ADD SWAP1 JUMP JUMPDEST PUSH1 0x20 DUP1 DUP3 MSTORE PUSH1 0xF SWAP1 DUP3 ADD MSTORE PUSH15 0x125B9D985B1A59081D5B9A5D081251 PUSH1 0x8A SHL PUSH1 0x40 DUP3 ADD MSTORE PUSH1 0x60 ADD SWAP1 JUMP JUMPDEST PUSH1 0x20 DUP1 DUP3 MSTORE PUSH1 0x28 SWAP1 DUP3 ADD MSTORE PUSH32 0x497420697320746F6F206C61746520746F207769746864726177207468697320 PUSH1 0x40 DUP3 ADD MSTORE PUSH8 0x61756374696F6E21 PUSH1 0xC0 SHL PUSH1 0x60 DUP3 ADD MSTORE PUSH1 0x80 ADD SWAP1 JUMP JUMPDEST PUSH1 0x20 DUP1 DUP3 MSTORE PUSH1 0x25 SWAP1 DUP3 ADD MSTORE PUSH32 0x596F7520617265206E6F742074686520686F7374206F66207468697320617563 PUSH1 0x40 DUP3 ADD MSTORE PUSH5 0x74696F6E21 PUSH1 0xD8 SHL PUSH1 0x60 DUP3 ADD MSTORE PUSH1 0x80 ADD SWAP1 JUMP JUMPDEST PUSH1 0x20 DUP1 DUP3 MSTORE PUSH1 0x19 SWAP1 DUP3 ADD MSTORE PUSH32 0x596F7520616C7265616479206F776E207468697320756E697400000000000000 PUSH1 0x40 DUP3 ADD MSTORE PUSH1 0x60 ADD SWAP1 JUMP JUMPDEST PUSH1 0x20 DUP1 DUP3 MSTORE PUSH1 0xD SWAP1 DUP3 ADD MSTORE PUSH13 0x696E657175616C2073697A6573 PUSH1 0x98 SHL PUSH1 0x40 DUP3 ADD MSTORE PUSH1 0x60 ADD SWAP1 JUMP JUMPDEST PUSH1 0x20 DUP1 DUP3 MSTORE PUSH1 0x11 SWAP1 DUP3 ADD MSTORE PUSH17 0x496E76616C69642064642063686F696365 PUSH1 0x78 SHL PUSH1 0x40 DUP3 ADD MSTORE PUSH1 0x60 ADD SWAP1 JUMP JUMPDEST PUSH1 0x20 DUP1 DUP3 MSTORE PUSH1 0x11 SWAP1 DUP3 ADD MSTORE PUSH17 0x496E76616C69642064612063686F696365 PUSH1 0x78 SHL PUSH1 0x40 DUP3 ADD MSTORE PUSH1 0x60 ADD SWAP1 JUMP JUMPDEST PUSH1 0x20 DUP1 DUP3 MSTORE PUSH1 0xC SWAP1 DUP3 ADD MSTORE PUSH12 0x556E69742069732062757379 PUSH1 0xA0 SHL PUSH1 0x40 DUP3 ADD MSTORE PUSH1 0x60 ADD SWAP1 JUMP JUMPDEST PUSH1 0x20 DUP1 DUP3 MSTORE PUSH1 0x1B SWAP1 DUP3 ADD MSTORE PUSH32 0x4E6F7420612076616C696420616464726573732E20536F727279210000000000 PUSH1 0x40 DUP3 ADD MSTORE PUSH1 0x60 ADD SWAP1 JUMP JUMPDEST PUSH1 0x20 DUP1 DUP3 MSTORE PUSH1 0x21 SWAP1 DUP3 ADD MSTORE PUSH32 0x556E6974206973206E6F742070726F6D6973656420746F207468617420757365 PUSH1 0x40 DUP3 ADD MSTORE PUSH1 0x39 PUSH1 0xF9 SHL PUSH1 0x60 DUP3 ADD MSTORE PUSH1 0x80 ADD SWAP1 JUMP JUMPDEST PUSH1 0x20 DUP1 DUP3 MSTORE PUSH1 0x17 SWAP1 DUP3 ADD MSTORE PUSH32 0x596F7520646F6E2774206F776E207468697320756E6974000000000000000000 PUSH1 0x40 DUP3 ADD MSTORE PUSH1 0x60 ADD SWAP1 JUMP JUMPDEST PUSH1 0x20 DUP1 DUP3 MSTORE PUSH1 0x13 SWAP1 DUP3 ADD MSTORE PUSH19 0x556E697420697320756E617661696C61626C65 PUSH1 0x68 SHL PUSH1 0x40 DUP3 ADD MSTORE PUSH1 0x60 ADD SWAP1 JUMP JUMPDEST SWAP3 DUP4 MSTORE PUSH1 0x20 DUP4 ADD SWAP2 SWAP1 SWAP2 MSTORE PUSH1 0x1 PUSH1 0x1 PUSH1 0xA0 SHL SUB AND PUSH1 0x40 DUP3 ADD MSTORE PUSH1 0x60 ADD SWAP1 JUMP JUMPDEST PUSH1 0x0 PUSH1 0x80 DUP3 ADD DUP7 DUP4 MSTORE PUSH1 0x20 DUP7 DUP2 DUP6 ADD MSTORE PUSH1 0x80 PUSH1 0x40 DUP6 ADD MSTORE DUP2 DUP7 MLOAD DUP1 DUP5 MSTORE PUSH1 0xA0 DUP7 ADD SWAP2 POP DUP3 DUP9 ADD SWAP4 POP DUP5 JUMPDEST DUP2 DUP2 LT ISZERO PUSH2 0x30F0 JUMPI DUP5 MLOAD DUP4 MSTORE SWAP4 DUP4 ADD SWAP4 SWAP2 DUP4 ADD SWAP2 PUSH1 0x1 ADD PUSH2 0x30D4 JUMP JUMPDEST POP POP PUSH1 0x1 PUSH1 0x1 PUSH1 0xA0 SHL SUB SWAP6 SWAP1 SWAP6 AND PUSH1 0x60 SWAP5 SWAP1 SWAP5 ADD SWAP4 SWAP1 SWAP4 MSTORE POP SWAP2 SWAP6 SWAP5 POP POP POP POP POP JUMP JUMPDEST SWAP4 DUP5 MSTORE PUSH1 0x20 DUP5 ADD SWAP3 SWAP1 SWAP3 MSTORE PUSH1 0x40 DUP4 ADD MSTORE PUSH1 0xFF AND PUSH1 0x60 DUP3 ADD MSTORE PUSH1 0x80 ADD SWAP1 JUMP JUMPDEST SWAP3 DUP4 MSTORE PUSH1 0x20 DUP4 ADD SWAP2 SWAP1 SWAP2 MSTORE PUSH1 0x40 DUP3 ADD MSTORE PUSH1 0x60 ADD SWAP1 JUMP JUMPDEST PUSH1 0x0 PUSH1 0x20 DUP3 MSTORE PUSH2 0x2692 PUSH1 0x20 DUP4 ADD DUP5 PUSH2 0x2BC9 JUMP JUMPDEST PUSH1 0x0 DUP5 DUP3 MSTORE PUSH2 0x316C PUSH1 0x20 DUP4 ADD DUP6 PUSH2 0x2B7B JUMP JUMPDEST PUSH1 0x60 PUSH1 0x40 DUP4 ADD MSTORE PUSH2 0x3180 PUSH1 0x60 DUP4 ADD DUP5 PUSH2 0x2B9D JUMP JUMPDEST SWAP6 SWAP5 POP POP POP POP POP JUMP JUMPDEST PUSH1 0x0 PUSH1 0x20 DUP3 MSTORE PUSH2 0xFFFF DUP1 DUP5 MLOAD AND PUSH1 0x20 DUP5 ADD MSTORE DUP1 PUSH1 0x20 DUP6 ADD MLOAD AND PUSH1 0x40 DUP5 ADD MSTORE DUP1 PUSH1 0x40 DUP6 ADD MLOAD AND PUSH1 0x60 DUP5 ADD MSTORE DUP1 PUSH1 0x60 DUP6 ADD MLOAD AND PUSH1 0x80 DUP5 ADD MSTORE POP PUSH1 0x80 DUP4 ADD MLOAD PUSH2 0x31D2 PUSH1 0xA0 DUP5 ADD DUP3 PUSH2 0x2B7B JUMP JUMPDEST POP PUSH1 0xA0 DUP4 ADD MLOAD PUSH1 0xC0 DUP1 DUP5 ADD MSTORE PUSH2 0x101C PUSH1 0xE0 DUP5 ADD DUP3 PUSH2 0x2B9D JUMP JUMPDEST SWAP1 DUP2 MSTORE PUSH1 0x20 ADD SWAP1 JUMP JUMPDEST DUP7 DUP2 MSTORE PUSH1 0x1 PUSH1 0x1 PUSH1 0xA0 SHL SUB DUP7 DUP2 AND PUSH1 0x20 DUP4 ADD MSTORE DUP6 AND PUSH1 0x40 DUP3 ADD MSTORE PUSH1 0xC0 PUSH1 0x60 DUP3 ADD DUP2 SWAP1 MSTORE PUSH1 0x0 SWAP1 PUSH2 0x3226 SWAP1 DUP4 ADD DUP7 PUSH2 0x2B9D JUMP JUMPDEST DUP3 DUP2 SUB PUSH1 0x80 DUP5 ADD MSTORE PUSH2 0x3238 DUP2 DUP7 PUSH2 0x2B9D JUMP JUMPDEST SWAP2 POP POP DUP3 PUSH1 0xA0 DUP4 ADD MSTORE SWAP8 SWAP7 POP POP POP POP POP POP POP JUMP JUMPDEST PUSH1 0xFF SWAP2 SWAP1 SWAP2 AND DUP2 MSTORE PUSH1 0x20 ADD SWAP1 JUMP JUMPDEST PUSH1 0x40 MLOAD PUSH1 0x1F DUP3 ADD PUSH1 0x1F NOT AND DUP2 ADD PUSH8 0xFFFFFFFFFFFFFFFF DUP2 GT DUP3 DUP3 LT OR ISZERO PUSH2 0x3283 JUMPI PUSH2 0x3283 PUSH2 0x339C JUMP JUMPDEST PUSH1 0x40 MSTORE SWAP2 SWAP1 POP JUMP JUMPDEST PUSH1 0x0 DUP3 NOT DUP3 GT ISZERO PUSH2 0x329E JUMPI PUSH2 0x329E PUSH2 0x3386 JUMP JUMPDEST POP ADD SWAP1 JUMP JUMPDEST PUSH1 0x0 PUSH2 0xFFFF DUP4 DUP2 AND SWAP1 DUP4 AND DUP2 DUP2 LT ISZERO PUSH2 0x32BE JUMPI PUSH2 0x32BE PUSH2 0x3386 JUMP JUMPDEST SUB SWAP4 SWAP3 POP POP POP JUMP JUMPDEST PUSH1 0x0 PUSH1 0xFF DUP3 AND PUSH1 0xFF DUP5 AND DUP1 DUP3 LT ISZERO PUSH2 0x32E0 JUMPI PUSH2 0x32E0 PUSH2 0x3386 JUMP JUMPDEST SWAP1 SUB SWAP4 SWAP3 POP POP POP JUMP JUMPDEST PUSH1 0x0 JUMPDEST DUP4 DUP2 LT ISZERO PUSH2 0x3304 JUMPI DUP2 DUP2 ADD MLOAD DUP4 DUP3 ADD MSTORE PUSH1 0x20 ADD PUSH2 0x32EC JUMP JUMPDEST DUP4 DUP2 GT ISZERO PUSH2 0x3313 JUMPI PUSH1 0x0 DUP5 DUP5 ADD MSTORE JUMPDEST POP POP POP POP JUMP JUMPDEST PUSH1 0x0 PUSH1 0xFF DUP3 AND DUP1 PUSH2 0x332C JUMPI PUSH2 0x332C PUSH2 0x3386 JUMP JUMPDEST PUSH1 0x0 NOT ADD SWAP3 SWAP2 POP POP JUMP JUMPDEST PUSH1 0x2 DUP2 DIV PUSH1 0x1 DUP3 AND DUP1 PUSH2 0x334A JUMPI PUSH1 0x7F DUP3 AND SWAP2 POP JUMPDEST PUSH1 0x20 DUP3 LT DUP2 EQ ISZERO PUSH2 0xD78 JUMPI PUSH4 0x4E487B71 PUSH1 0xE0 SHL PUSH1 0x0 MSTORE PUSH1 0x22 PUSH1 0x4 MSTORE PUSH1 0x24 PUSH1 0x0 REVERT JUMPDEST PUSH1 0x0 PUSH1 0x0 NOT DUP3 EQ ISZERO PUSH2 0x337F JUMPI PUSH2 0x337F PUSH2 0x3386 JUMP JUMPDEST POP PUSH1 0x1 ADD SWAP1 JUMP JUMPDEST PUSH4 0x4E487B71 PUSH1 0xE0 SHL PUSH1 0x0 MSTORE PUSH1 0x11 PUSH1 0x4 MSTORE PUSH1 0x24 PUSH1 0x0 REVERT JUMPDEST PUSH4 0x4E487B71 PUSH1 0xE0 SHL PUSH1 0x0 MSTORE PUSH1 0x41 PUSH1 0x4 MSTORE PUSH1 0x24 PUSH1 0x0 REVERT JUMPDEST PUSH1 0x6 DUP2 LT PUSH2 0xBA1 JUMPI PUSH1 0x0 DUP1 REVERT JUMPDEST PUSH1 0x3 DUP2 LT PUSH2 0xBA1 JUMPI PUSH1 0x0 DUP1 REVERT INVALID LOG2 PUSH5 0x6970667358 0x22 SLT KECCAK256 0xDF SWAP7 ADD SWAP13 0xC7 PUSH27 0xB2BC2081E7D9EB192200863A5D8CEB570B0B52BC88F294CE37F064 PUSH20 0x6F6C634300080100336080604052633B9ACA0060 STOP SSTORE CALLVALUE DUP1 ISZERO PUSH2 0x18 JUMPI PUSH1 0x0 DUP1 REVERT JUMPDEST POP PUSH1 0x40 MLOAD PUSH2 0xC62 CODESIZE SUB DUP1 PUSH2 0xC62 DUP4 CODECOPY DUP2 ADD PUSH1 0x40 DUP2 SWAP1 MSTORE PUSH2 0x37 SWAP2 PUSH2 0x6C JUMP JUMPDEST PUSH1 0x4 DUP1 SLOAD PUSH1 0x1 PUSH1 0x1 PUSH1 0xA0 SHL SUB SWAP1 SWAP3 AND PUSH1 0x1 PUSH1 0x1 PUSH1 0xA0 SHL SUB NOT SWAP1 SWAP3 AND DUP3 OR SWAP1 SSTORE PUSH1 0x0 DUP1 SLOAD SWAP2 DUP2 MSTORE PUSH1 0x1 PUSH1 0x20 MSTORE PUSH1 0x40 SWAP1 KECCAK256 SSTORE PUSH2 0x9A JUMP JUMPDEST PUSH1 0x0 PUSH1 0x20 DUP3 DUP5 SUB SLT ISZERO PUSH2 0x7D JUMPI DUP1 DUP2 REVERT JUMPDEST DUP2 MLOAD PUSH1 0x1 PUSH1 0x1 PUSH1 0xA0 SHL SUB DUP2 AND DUP2 EQ PUSH2 0x93 JUMPI DUP2 DUP3 REVERT JUMPDEST SWAP4 SWAP3 POP POP POP JUMP JUMPDEST PUSH2 0xBB9 DUP1 PUSH2 0xA9 PUSH1 0x0 CODECOPY PUSH1 0x0 RETURN INVALID PUSH1 0x80 PUSH1 0x40 MSTORE PUSH1 0x4 CALLDATASIZE LT PUSH2 0xF3 JUMPI PUSH1 0x0 CALLDATALOAD PUSH1 0xE0 SHR DUP1 PUSH4 0x70A08231 GT PUSH2 0x8A JUMPI DUP1 PUSH4 0xABB8D5C3 GT PUSH2 0x59 JUMPI DUP1 PUSH4 0xABB8D5C3 EQ PUSH2 0x261 JUMPI DUP1 PUSH4 0xAF7D6CA3 EQ PUSH2 0x281 JUMPI DUP1 PUSH4 0xD4E7B8AD EQ PUSH2 0x2A1 JUMPI DUP1 PUSH4 0xDD62ED3E EQ PUSH2 0x2C1 JUMPI PUSH2 0xF3 JUMP JUMPDEST DUP1 PUSH4 0x70A08231 EQ PUSH2 0x1F7 JUMPI DUP1 PUSH4 0x89EB068A EQ PUSH2 0x217 JUMPI DUP1 PUSH4 0x95D89B41 EQ PUSH2 0x22C JUMPI DUP1 PUSH4 0xA9059CBB EQ PUSH2 0x241 JUMPI PUSH2 0xF3 JUMP JUMPDEST DUP1 PUSH4 0x23B872DD GT PUSH2 0xC6 JUMPI DUP1 PUSH4 0x23B872DD EQ PUSH2 0x192 JUMPI DUP1 PUSH4 0x3290CE29 EQ PUSH2 0x1B2 JUMPI DUP1 PUSH4 0x332B888D EQ PUSH2 0x1BC JUMPI DUP1 PUSH4 0x535B6773 EQ PUSH2 0x1D7 JUMPI PUSH2 0xF3 JUMP JUMPDEST DUP1 PUSH4 0x1FFC9A7 EQ PUSH2 0xF8 JUMPI DUP1 PUSH4 0x6FDDE03 EQ PUSH2 0x12E JUMPI DUP1 PUSH4 0x95EA7B3 EQ PUSH2 0x150 JUMPI DUP1 PUSH4 0x18160DDD EQ PUSH2 0x170 JUMPI JUMPDEST PUSH1 0x0 DUP1 REVERT JUMPDEST CALLVALUE DUP1 ISZERO PUSH2 0x104 JUMPI PUSH1 0x0 DUP1 REVERT JUMPDEST POP PUSH2 0x118 PUSH2 0x113 CALLDATASIZE PUSH1 0x4 PUSH2 0x96C JUMP JUMPDEST PUSH2 0x2E1 JUMP JUMPDEST PUSH1 0x40 MLOAD PUSH2 0x125 SWAP2 SWAP1 PUSH2 0x9AC JUMP JUMPDEST PUSH1 0x40 MLOAD DUP1 SWAP2 SUB SWAP1 RETURN JUMPDEST CALLVALUE DUP1 ISZERO PUSH2 0x13A JUMPI PUSH1 0x0 DUP1 REVERT JUMPDEST POP PUSH2 0x143 PUSH2 0x2E9 JUMP JUMPDEST PUSH1 0x40 MLOAD PUSH2 0x125 SWAP2 SWAP1 PUSH2 0x9B7 JUMP JUMPDEST CALLVALUE DUP1 ISZERO PUSH2 0x15C JUMPI PUSH1 0x0 DUP1 REVERT JUMPDEST POP PUSH2 0x118 PUSH2 0x16B CALLDATASIZE PUSH1 0x4 PUSH2 0x943 JUMP JUMPDEST PUSH2 0x318 JUMP JUMPDEST CALLVALUE DUP1 ISZERO PUSH2 0x17C JUMPI PUSH1 0x0 DUP1 REVERT JUMPDEST POP PUSH2 0x185 PUSH2 0x32C JUMP JUMPDEST PUSH1 0x40 MLOAD PUSH2 0x125 SWAP2 SWAP1 PUSH2 0xB16 JUMP JUMPDEST CALLVALUE DUP1 ISZERO PUSH2 0x19E JUMPI PUSH1 0x0 DUP1 REVERT JUMPDEST POP PUSH2 0x118 PUSH2 0x1AD CALLDATASIZE PUSH1 0x4 PUSH2 0x908 JUMP JUMPDEST PUSH2 0x332 JUMP JUMPDEST PUSH2 0x1BA PUSH2 0x44E JUMP JUMPDEST STOP JUMPDEST CALLVALUE DUP1 ISZERO PUSH2 0x1C8 JUMPI PUSH1 0x0 DUP1 REVERT JUMPDEST POP PUSH2 0x118 PUSH2 0x113 CALLDATASIZE PUSH1 0x4 PUSH2 0x994 JUMP JUMPDEST CALLVALUE DUP1 ISZERO PUSH2 0x1E3 JUMPI PUSH1 0x0 DUP1 REVERT JUMPDEST POP PUSH2 0x118 PUSH2 0x1F2 CALLDATASIZE PUSH1 0x4 PUSH2 0x943 JUMP JUMPDEST PUSH2 0x47F JUMP JUMPDEST CALLVALUE DUP1 ISZERO PUSH2 0x203 JUMPI PUSH1 0x0 DUP1 REVERT JUMPDEST POP PUSH2 0x185 PUSH2 0x212 CALLDATASIZE PUSH1 0x4 PUSH2 0x8BC JUMP JUMPDEST PUSH2 0x51A JUMP JUMPDEST CALLVALUE DUP1 ISZERO PUSH2 0x223 JUMPI PUSH1 0x0 DUP1 REVERT JUMPDEST POP PUSH2 0x1BA PUSH2 0x535 JUMP JUMPDEST CALLVALUE DUP1 ISZERO PUSH2 0x238 JUMPI PUSH1 0x0 DUP1 REVERT JUMPDEST POP PUSH2 0x143 PUSH2 0x557 JUMP JUMPDEST CALLVALUE DUP1 ISZERO PUSH2 0x24D JUMPI PUSH1 0x0 DUP1 REVERT JUMPDEST POP PUSH2 0x118 PUSH2 0x25C CALLDATASIZE PUSH1 0x4 PUSH2 0x943 JUMP JUMPDEST PUSH2 0x577 JUMP JUMPDEST CALLVALUE DUP1 ISZERO PUSH2 0x26D JUMPI PUSH1 0x0 DUP1 REVERT JUMPDEST POP PUSH2 0x118 PUSH2 0x27C CALLDATASIZE PUSH1 0x4 PUSH2 0x943 JUMP JUMPDEST PUSH2 0x63F JUMP JUMPDEST CALLVALUE DUP1 ISZERO PUSH2 0x28D JUMPI PUSH1 0x0 DUP1 REVERT JUMPDEST POP PUSH2 0x118 PUSH2 0x29C CALLDATASIZE PUSH1 0x4 PUSH2 0x943 JUMP JUMPDEST PUSH2 0x684 JUMP JUMPDEST CALLVALUE DUP1 ISZERO PUSH2 0x2AD JUMPI PUSH1 0x0 DUP1 REVERT JUMPDEST POP PUSH2 0x185 PUSH2 0x2BC CALLDATASIZE PUSH1 0x4 PUSH2 0x8BC JUMP JUMPDEST PUSH2 0x75D JUMP JUMPDEST CALLVALUE DUP1 ISZERO PUSH2 0x2CD JUMPI PUSH1 0x0 DUP1 REVERT JUMPDEST POP PUSH2 0x185 PUSH2 0x2DC CALLDATASIZE PUSH1 0x4 PUSH2 0x8D6 JUMP JUMPDEST PUSH2 0x791 JUMP JUMPDEST PUSH1 0x1 JUMPDEST SWAP2 SWAP1 POP JUMP JUMPDEST PUSH1 0x40 DUP1 MLOAD DUP1 DUP3 ADD SWAP1 SWAP2 MSTORE PUSH1 0x15 DUP2 MSTORE PUSH21 0x20BABA37A1B432B9B99029BA37B932902A37B5B2B7 PUSH1 0x59 SHL PUSH1 0x20 DUP3 ADD MSTORE SWAP1 JUMP JUMPDEST PUSH1 0x0 PUSH2 0x325 CALLER DUP5 DUP5 PUSH2 0x7BC JUMP JUMPDEST SWAP4 SWAP3 POP POP POP JUMP JUMPDEST PUSH1 0x0 SLOAD SWAP1 JUMP JUMPDEST PUSH1 0x1 PUSH1 0x1 PUSH1 0xA0 SHL SUB DUP1 DUP5 AND PUSH1 0x0 SWAP1 DUP2 MSTORE PUSH1 0x2 PUSH1 0x20 SWAP1 DUP2 MSTORE PUSH1 0x40 DUP1 DUP4 KECCAK256 SWAP4 DUP7 AND DUP4 MSTORE SWAP3 SWAP1 MSTORE SWAP1 DUP2 KECCAK256 SLOAD DUP3 LT PUSH2 0x381 JUMPI PUSH1 0x40 MLOAD PUSH3 0x461BCD PUSH1 0xE5 SHL DUP2 MSTORE PUSH1 0x4 ADD PUSH2 0x378 SWAP1 PUSH2 0xA0A JUMP JUMPDEST PUSH1 0x40 MLOAD DUP1 SWAP2 SUB SWAP1 REVERT JUMPDEST PUSH1 0x1 PUSH1 0x1 PUSH1 0xA0 SHL SUB DUP1 DUP6 AND PUSH1 0x0 SWAP1 DUP2 MSTORE PUSH1 0x2 PUSH1 0x20 SWAP1 DUP2 MSTORE PUSH1 0x40 DUP1 DUP4 KECCAK256 SWAP4 DUP8 AND DUP4 MSTORE SWAP3 SWAP1 MSTORE SWAP1 DUP2 KECCAK256 DUP1 SLOAD DUP5 SWAP3 SWAP1 PUSH2 0x3B8 SWAP1 DUP5 SWAP1 PUSH2 0xB56 JUMP JUMPDEST SWAP1 SWAP2 SSTORE POP POP PUSH1 0x1 PUSH1 0x1 PUSH1 0xA0 SHL SUB DUP5 AND PUSH1 0x0 SWAP1 DUP2 MSTORE PUSH1 0x3 PUSH1 0x20 MSTORE PUSH1 0x40 DUP2 KECCAK256 DUP1 SLOAD DUP5 SWAP3 SWAP1 PUSH2 0x3E5 SWAP1 DUP5 SWAP1 PUSH2 0xB56 JUMP JUMPDEST SWAP1 SWAP2 SSTORE POP POP PUSH1 0x1 PUSH1 0x1 PUSH1 0xA0 SHL SUB DUP5 AND PUSH1 0x0 SWAP1 DUP2 MSTORE PUSH1 0x1 PUSH1 0x20 MSTORE PUSH1 0x40 DUP2 KECCAK256 DUP1 SLOAD DUP5 SWAP3 SWAP1 PUSH2 0x412 SWAP1 DUP5 SWAP1 PUSH2 0xB56 JUMP JUMPDEST SWAP1 SWAP2 SSTORE POP POP PUSH1 0x1 PUSH1 0x1 PUSH1 0xA0 SHL SUB DUP4 AND PUSH1 0x0 SWAP1 DUP2 MSTORE PUSH1 0x1 PUSH1 0x20 MSTORE PUSH1 0x40 DUP2 KECCAK256 DUP1 SLOAD DUP5 SWAP3 SWAP1 PUSH2 0x43F SWAP1 DUP5 SWAP1 PUSH2 0xB1F JUMP JUMPDEST SWAP1 SWAP2 SSTORE POP PUSH1 0x1 SWAP6 SWAP5 POP POP POP POP POP JUMP JUMPDEST PUSH2 0x459 CALLVALUE PUSH1 0x64 PUSH2 0xB37 JUMP JUMPDEST CALLER PUSH1 0x0 SWAP1 DUP2 MSTORE PUSH1 0x1 PUSH1 0x20 MSTORE PUSH1 0x40 DUP2 KECCAK256 DUP1 SLOAD SWAP1 SWAP2 SWAP1 PUSH2 0x478 SWAP1 DUP5 SWAP1 PUSH2 0xB1F JUMP JUMPDEST SWAP1 SWAP2 SSTORE POP POP JUMP JUMPDEST PUSH1 0x4 SLOAD PUSH1 0x0 SWAP1 PUSH1 0x1 PUSH1 0x1 PUSH1 0xA0 SHL SUB AND CALLER EQ PUSH2 0x4AC JUMPI PUSH1 0x40 MLOAD PUSH3 0x461BCD PUSH1 0xE5 SHL DUP2 MSTORE PUSH1 0x4 ADD PUSH2 0x378 SWAP1 PUSH2 0xACB JUMP JUMPDEST PUSH1 0x1 PUSH1 0x1 PUSH1 0xA0 SHL SUB DUP4 AND PUSH1 0x0 SWAP1 DUP2 MSTORE PUSH1 0x2 PUSH1 0x20 SWAP1 DUP2 MSTORE PUSH1 0x40 DUP1 DUP4 KECCAK256 CALLER DUP5 MSTORE SWAP1 SWAP2 MSTORE DUP2 KECCAK256 DUP1 SLOAD DUP5 SWAP3 SWAP1 PUSH2 0x4DF SWAP1 DUP5 SWAP1 PUSH2 0xB56 JUMP JUMPDEST SWAP1 SWAP2 SSTORE POP POP PUSH1 0x1 PUSH1 0x1 PUSH1 0xA0 SHL SUB DUP4 AND PUSH1 0x0 SWAP1 DUP2 MSTORE PUSH1 0x3 PUSH1 0x20 MSTORE PUSH1 0x40 DUP2 KECCAK256 DUP1 SLOAD DUP5 SWAP3 SWAP1 PUSH2 0x50C SWAP1 DUP5 SWAP1 PUSH2 0xB56 JUMP JUMPDEST SWAP1 SWAP2 SSTORE POP PUSH1 0x1 SWAP5 SWAP4 POP POP POP POP JUMP JUMPDEST PUSH1 0x1 PUSH1 0x1 PUSH1 0xA0 SHL SUB AND PUSH1 0x0 SWAP1 DUP2 MSTORE PUSH1 0x1 PUSH1 0x20 MSTORE PUSH1 0x40 SWAP1 KECCAK256 SLOAD SWAP1 JUMP JUMPDEST CALLER PUSH1 0x0 SWAP1 DUP2 MSTORE PUSH1 0x1 PUSH1 0x20 MSTORE PUSH1 0x40 DUP2 KECCAK256 DUP1 SLOAD PUSH3 0x186A0 SWAP3 SWAP1 PUSH2 0x478 SWAP1 DUP5 SWAP1 PUSH2 0xB1F JUMP JUMPDEST PUSH1 0x40 DUP1 MLOAD DUP1 DUP3 ADD SWAP1 SWAP2 MSTORE PUSH1 0x6 DUP2 MSTORE PUSH6 0x1050D214D4D5 PUSH1 0xD2 SHL PUSH1 0x20 DUP3 ADD MSTORE SWAP1 JUMP JUMPDEST PUSH1 0x0 DUP2 PUSH2 0x583 CALLER PUSH2 0x75D JUMP JUMPDEST GT PUSH2 0x5A0 JUMPI PUSH1 0x40 MLOAD PUSH3 0x461BCD PUSH1 0xE5 SHL DUP2 MSTORE PUSH1 0x4 ADD PUSH2 0x378 SWAP1 PUSH2 0xA34 JUMP JUMPDEST CALLER PUSH1 0x0 SWAP1 DUP2 MSTORE PUSH1 0x1 PUSH1 0x20 MSTORE PUSH1 0x40 DUP2 KECCAK256 DUP1 SLOAD DUP5 SWAP3 SWAP1 PUSH2 0x5BF SWAP1 DUP5 SWAP1 PUSH2 0xB56 JUMP JUMPDEST SWAP1 SWAP2 SSTORE POP POP PUSH1 0x1 PUSH1 0x1 PUSH1 0xA0 SHL SUB DUP4 AND PUSH1 0x0 SWAP1 DUP2 MSTORE PUSH1 0x1 PUSH1 0x20 MSTORE PUSH1 0x40 DUP2 KECCAK256 DUP1 SLOAD DUP5 SWAP3 SWAP1 PUSH2 0x5EC SWAP1 DUP5 SWAP1 PUSH2 0xB1F JUMP JUMPDEST SWAP1 SWAP2 SSTORE POP POP PUSH1 0x40 MLOAD PUSH1 0x1 PUSH1 0x1 PUSH1 0xA0 SHL SUB DUP5 AND SWAP1 CALLER SWAP1 PUSH32 0xDDF252AD1BE2C89B69C2B068FC378DAA952BA7F163C4A11628F55A4DF523B3EF SWAP1 PUSH2 0x62E SWAP1 DUP7 SWAP1 PUSH2 0xB16 JUMP JUMPDEST PUSH1 0x40 MLOAD DUP1 SWAP2 SUB SWAP1 LOG3 POP PUSH1 0x1 SWAP3 SWAP2 POP POP JUMP JUMPDEST PUSH1 0x4 SLOAD PUSH1 0x0 SWAP1 PUSH1 0x1 PUSH1 0x1 PUSH1 0xA0 SHL SUB AND CALLER EQ PUSH2 0x66C JUMPI PUSH1 0x40 MLOAD PUSH3 0x461BCD PUSH1 0xE5 SHL DUP2 MSTORE PUSH1 0x4 ADD PUSH2 0x378 SWAP1 PUSH2 0xACB JUMP JUMPDEST PUSH1 0x4 SLOAD PUSH2 0x325 SWAP1 DUP5 SWAP1 PUSH1 0x1 PUSH1 0x1 PUSH1 0xA0 SHL SUB AND DUP5 PUSH2 0x7BC JUMP JUMPDEST PUSH1 0x4 SLOAD PUSH1 0x0 SWAP1 PUSH1 0x1 PUSH1 0x1 PUSH1 0xA0 SHL SUB AND CALLER EQ PUSH2 0x6B1 JUMPI PUSH1 0x40 MLOAD PUSH3 0x461BCD PUSH1 0xE5 SHL DUP2 MSTORE PUSH1 0x4 ADD PUSH2 0x378 SWAP1 PUSH2 0xACB JUMP JUMPDEST DUP2 PUSH2 0x6BB DUP5 PUSH2 0x75D JUMP JUMPDEST GT PUSH2 0x6D8 JUMPI PUSH1 0x40 MLOAD PUSH3 0x461BCD PUSH1 0xE5 SHL DUP2 MSTORE PUSH1 0x4 ADD PUSH2 0x378 SWAP1 PUSH2 0xA34 JUMP JUMPDEST DUP2 PUSH1 0x0 DUP1 DUP3 DUP3 SLOAD PUSH2 0x6E9 SWAP2 SWAP1 PUSH2 0xB56 JUMP JUMPDEST SWAP1 SWAP2 SSTORE POP POP PUSH1 0x1 PUSH1 0x1 PUSH1 0xA0 SHL SUB DUP4 AND PUSH1 0x0 SWAP1 DUP2 MSTORE PUSH1 0x1 PUSH1 0x20 MSTORE PUSH1 0x40 DUP2 KECCAK256 DUP1 SLOAD DUP5 SWAP3 SWAP1 PUSH2 0x716 SWAP1 DUP5 SWAP1 PUSH2 0xB56 JUMP JUMPDEST SWAP1 SWAP2 SSTORE POP POP PUSH1 0x4 SLOAD PUSH1 0x40 MLOAD PUSH1 0x1 PUSH1 0x1 PUSH1 0xA0 SHL SUB SWAP2 DUP3 AND SWAP2 DUP6 AND SWAP1 PUSH32 0xDDF252AD1BE2C89B69C2B068FC378DAA952BA7F163C4A11628F55A4DF523B3EF SWAP1 PUSH2 0x62E SWAP1 DUP7 SWAP1 PUSH2 0xB16 JUMP JUMPDEST PUSH1 0x1 PUSH1 0x1 PUSH1 0xA0 SHL SUB DUP2 AND PUSH1 0x0 SWAP1 DUP2 MSTORE PUSH1 0x3 PUSH1 0x20 SWAP1 DUP2 MSTORE PUSH1 0x40 DUP1 DUP4 KECCAK256 SLOAD PUSH1 0x1 SWAP1 SWAP3 MSTORE DUP3 KECCAK256 SLOAD PUSH2 0x78B SWAP2 SWAP1 PUSH2 0xB56 JUMP JUMPDEST SWAP3 SWAP2 POP POP JUMP JUMPDEST PUSH1 0x1 PUSH1 0x1 PUSH1 0xA0 SHL SUB SWAP2 DUP3 AND PUSH1 0x0 SWAP1 DUP2 MSTORE PUSH1 0x2 PUSH1 0x20 SWAP1 DUP2 MSTORE PUSH1 0x40 DUP1 DUP4 KECCAK256 SWAP4 SWAP1 SWAP5 AND DUP3 MSTORE SWAP2 SWAP1 SWAP2 MSTORE KECCAK256 SLOAD SWAP1 JUMP JUMPDEST PUSH1 0x0 DUP2 PUSH2 0x7C8 DUP6 PUSH2 0x75D JUMP JUMPDEST GT PUSH2 0x7E5 JUMPI PUSH1 0x40 MLOAD PUSH3 0x461BCD PUSH1 0xE5 SHL DUP2 MSTORE PUSH1 0x4 ADD PUSH2 0x378 SWAP1 PUSH2 0xA80 JUMP JUMPDEST PUSH1 0x1 PUSH1 0x1 PUSH1 0xA0 SHL SUB DUP1 DUP6 AND PUSH1 0x0 SWAP1 DUP2 MSTORE PUSH1 0x2 PUSH1 0x20 SWAP1 DUP2 MSTORE PUSH1 0x40 DUP1 DUP4 KECCAK256 SWAP4 DUP8 AND DUP4 MSTORE SWAP3 SWAP1 MSTORE SWAP1 DUP2 KECCAK256 DUP1 SLOAD DUP5 SWAP3 SWAP1 PUSH2 0x81C SWAP1 DUP5 SWAP1 PUSH2 0xB1F JUMP JUMPDEST SWAP1 SWAP2 SSTORE POP POP PUSH1 0x1 PUSH1 0x1 PUSH1 0xA0 SHL SUB DUP5 AND PUSH1 0x0 SWAP1 DUP2 MSTORE PUSH1 0x3 PUSH1 0x20 MSTORE PUSH1 0x40 DUP2 KECCAK256 DUP1 SLOAD DUP5 SWAP3 SWAP1 PUSH2 0x849 SWAP1 DUP5 SWAP1 PUSH2 0xB1F JUMP JUMPDEST SWAP3 POP POP DUP2 SWAP1 SSTORE POP DUP3 PUSH1 0x1 PUSH1 0x1 PUSH1 0xA0 SHL SUB AND DUP5 PUSH1 0x1 PUSH1 0x1 PUSH1 0xA0 SHL SUB AND PUSH32 0x8C5BE1E5EBEC7D5BD14F71427D1E84F3DD0314C0F7B2291E5B200AC8C7C3B925 DUP5 PUSH1 0x40 MLOAD PUSH2 0x893 SWAP2 SWAP1 PUSH2 0xB16 JUMP JUMPDEST PUSH1 0x40 MLOAD DUP1 SWAP2 SUB SWAP1 LOG3 POP PUSH1 0x1 SWAP4 SWAP3 POP POP POP JUMP JUMPDEST DUP1 CALLDATALOAD PUSH1 0x1 PUSH1 0x1 PUSH1 0xA0 SHL SUB DUP2 AND DUP2 EQ PUSH2 0x2E4 JUMPI PUSH1 0x0 DUP1 REVERT JUMPDEST PUSH1 0x0 PUSH1 0x20 DUP3 DUP5 SUB SLT ISZERO PUSH2 0x8CD JUMPI DUP1 DUP2 REVERT JUMPDEST PUSH2 0x325 DUP3 PUSH2 0x8A5 JUMP JUMPDEST PUSH1 0x0 DUP1 PUSH1 0x40 DUP4 DUP6 SUB SLT ISZERO PUSH2 0x8E8 JUMPI DUP1 DUP2 REVERT JUMPDEST PUSH2 0x8F1 DUP4 PUSH2 0x8A5 JUMP JUMPDEST SWAP2 POP PUSH2 0x8FF PUSH1 0x20 DUP5 ADD PUSH2 0x8A5 JUMP JUMPDEST SWAP1 POP SWAP3 POP SWAP3 SWAP1 POP JUMP JUMPDEST PUSH1 0x0 DUP1 PUSH1 0x0 PUSH1 0x60 DUP5 DUP7 SUB SLT ISZERO PUSH2 0x91C JUMPI DUP1 DUP2 REVERT JUMPDEST PUSH2 0x925 DUP5 PUSH2 0x8A5 JUMP JUMPDEST SWAP3 POP PUSH2 0x933 PUSH1 0x20 DUP6 ADD PUSH2 0x8A5 JUMP JUMPDEST SWAP2 POP PUSH1 0x40 DUP5 ADD CALLDATALOAD SWAP1 POP SWAP3 POP SWAP3 POP SWAP3 JUMP JUMPDEST PUSH1 0x0 DUP1 PUSH1 0x40 DUP4 DUP6 SUB SLT ISZERO PUSH2 0x955 JUMPI DUP2 DUP3 REVERT JUMPDEST PUSH2 0x95E DUP4 PUSH2 0x8A5 JUMP JUMPDEST SWAP5 PUSH1 0x20 SWAP4 SWAP1 SWAP4 ADD CALLDATALOAD SWAP4 POP POP POP JUMP JUMPDEST PUSH1 0x0 PUSH1 0x20 DUP3 DUP5 SUB SLT ISZERO PUSH2 0x97D JUMPI DUP1 DUP2 REVERT JUMPDEST DUP2 CALLDATALOAD PUSH1 0x1 PUSH1 0x1 PUSH1 0xE0 SHL SUB NOT DUP2 AND DUP2 EQ PUSH2 0x325 JUMPI DUP2 DUP3 REVERT JUMPDEST PUSH1 0x0 PUSH1 0x20 DUP3 DUP5 SUB SLT ISZERO PUSH2 0x9A5 JUMPI DUP1 DUP2 REVERT JUMPDEST POP CALLDATALOAD SWAP2 SWAP1 POP JUMP JUMPDEST SWAP1 ISZERO ISZERO DUP2 MSTORE PUSH1 0x20 ADD SWAP1 JUMP JUMPDEST PUSH1 0x0 PUSH1 0x20 DUP1 DUP4 MSTORE DUP4 MLOAD DUP1 DUP3 DUP6 ADD MSTORE DUP3 JUMPDEST DUP2 DUP2 LT ISZERO PUSH2 0x9E3 JUMPI DUP6 DUP2 ADD DUP4 ADD MLOAD DUP6 DUP3 ADD PUSH1 0x40 ADD MSTORE DUP3 ADD PUSH2 0x9C7 JUMP JUMPDEST DUP2 DUP2 GT ISZERO PUSH2 0x9F4 JUMPI DUP4 PUSH1 0x40 DUP4 DUP8 ADD ADD MSTORE JUMPDEST POP PUSH1 0x1F ADD PUSH1 0x1F NOT AND SWAP3 SWAP1 SWAP3 ADD PUSH1 0x40 ADD SWAP4 SWAP3 POP POP POP JUMP JUMPDEST PUSH1 0x20 DUP1 DUP3 MSTORE PUSH1 0x10 SWAP1 DUP3 ADD MSTORE PUSH16 0x416D6F756E7420746F6F206C61726765 PUSH1 0x80 SHL PUSH1 0x40 DUP3 ADD MSTORE PUSH1 0x60 ADD SWAP1 JUMP JUMPDEST PUSH1 0x20 DUP1 DUP3 MSTORE PUSH1 0x2C SWAP1 DUP3 ADD MSTORE PUSH32 0x546F6F2066657720746F6B656E732061726520756E6C6F636B656420696E2079 PUSH1 0x40 DUP3 ADD MSTORE PUSH12 0x6F7572206163636F756E7421 PUSH1 0xA0 SHL PUSH1 0x60 DUP3 ADD MSTORE PUSH1 0x80 ADD SWAP1 JUMP JUMPDEST PUSH1 0x20 DUP1 DUP3 MSTORE PUSH1 0x2B SWAP1 DUP3 ADD MSTORE PUSH32 0x546F6F2066657720746F6B656E732061726520756E6C6F636B656420696E2079 PUSH1 0x40 DUP3 ADD MSTORE PUSH11 0x1BDD5C881858D8DBDD5B9D PUSH1 0xAA SHL PUSH1 0x60 DUP3 ADD MSTORE PUSH1 0x80 ADD SWAP1 JUMP JUMPDEST PUSH1 0x20 DUP1 DUP3 MSTORE PUSH1 0x2B SWAP1 DUP3 ADD MSTORE PUSH32 0x4F6E6C79207468652053746F726546726F6E7420697320616C6C6F7765642074 PUSH1 0x40 DUP3 ADD MSTORE PUSH11 0x37903AB9B2903A3434B997 PUSH1 0xA9 SHL PUSH1 0x60 DUP3 ADD MSTORE PUSH1 0x80 ADD SWAP1 JUMP JUMPDEST SWAP1 DUP2 MSTORE PUSH1 0x20 ADD SWAP1 JUMP JUMPDEST PUSH1 0x0 DUP3 NOT DUP3 GT ISZERO PUSH2 0xB32 JUMPI PUSH2 0xB32 PUSH2 0xB6D JUMP JUMPDEST POP ADD SWAP1 JUMP JUMPDEST PUSH1 0x0 DUP2 PUSH1 0x0 NOT DIV DUP4 GT DUP3 ISZERO ISZERO AND ISZERO PUSH2 0xB51 JUMPI PUSH2 0xB51 PUSH2 0xB6D JUMP JUMPDEST POP MUL SWAP1 JUMP JUMPDEST PUSH1 0x0 DUP3 DUP3 LT ISZERO PUSH2 0xB68 JUMPI PUSH2 0xB68 PUSH2 0xB6D JUMP JUMPDEST POP SUB SWAP1 JUMP JUMPDEST PUSH4 0x4E487B71 PUSH1 0xE0 SHL PUSH1 0x0 MSTORE PUSH1 0x11 PUSH1 0x4 MSTORE PUSH1 0x24 PUSH1 0x0 REVERT INVALID LOG2 PUSH5 0x6970667358 0x22 SLT KECCAK256 CALLDATALOAD ISZERO PUSH15 0x5BC71037D0F427C9AE86AB5A3CC165 PUSH24 0xF83781C103E14A55187A955D4364736F6C63430008010033 "
		},
		"gasEstimates": {
			"creation": {
				"codeDepositCost": "2662800",
				"executionCost": "infinite",
				"totalCost": "infinite"
			},
			"external": {
				"CurrencyProvider()": "1159",
				"ProviderAddress()": "1114",
				"_auctions(uint256)": "infinite",
				"approve(address,uint256)": "45928",
				"balanceOf(address)": "infinite",
				"bid(uint256,uint256)": "infinite",
				"bid(uint256,uint256,string)": "infinite",
				"buyUnit(uint8)": "infinite",
				"buyUnit(uint8,string)": "infinite",
				"collectSquad(uint256)": "268",
				"getAssetIds(uint256)": "infinite",
				"getAuctionCount()": "1139",
				"getSquad(uint256)": "infinite",
				"getSquadIdsInTier(uint8)": "infinite",
				"getSquadUnitIds(uint256)": "infinite",
				"getSquads()": "infinite",
				"getToken(uint256)": "infinite",
				"name()": "infinite",
				"ownerOf(uint256)": "1280",
				"randomChallenge(uint256[])": "infinite",
				"squadCount(address)": "1316",
				"squadsOf(address)": "infinite",
				"startAuction(uint256[],uint256,string)": "infinite",
				"supportsInterface(bytes4)": "409",
				"symbol()": "infinite",
				"targetedChallenge(uint256[],uint256)": "infinite",
				"tokensOfOwner(address)": "infinite",
				"totalSupply()": "1074",
				"transfer(address,uint256)": "47776",
				"transferFrom(address,address,uint256)": "infinite",
				"withdrawAuction(uint256)": "infinite",
				"withdrawSquad(uint256)": "381"
			}
		},
		"methodIdentifiers": {
			"CurrencyProvider()": "99975226",
			"ProviderAddress()": "d1454521",
			"_auctions(uint256)": "17dc6bf6",
			"approve(address,uint256)": "095ea7b3",
			"balanceOf(address)": "70a08231",
			"bid(uint256,uint256)": "598647f8",
			"bid(uint256,uint256,string)": "76d4fc57",
			"buyUnit(uint8)": "27e78202",
			"buyUnit(uint8,string)": "898f4299",
			"collectSquad(uint256)": "5f9fd5f5",
			"getAssetIds(uint256)": "a367dd3c",
			"getAuctionCount()": "c44e6640",
			"getSquad(uint256)": "69a0e966",
			"getSquadIdsInTier(uint8)": "64e0b81f",
			"getSquadUnitIds(uint256)": "727954fd",
			"getSquads()": "a2e1b4d0",
			"getToken(uint256)": "e4b50cb8",
			"name()": "06fdde03",
			"ownerOf(uint256)": "6352211e",
			"randomChallenge(uint256[])": "dba7f943",
			"squadCount(address)": "4282ef98",
			"squadsOf(address)": "5bc60976",
			"startAuction(uint256[],uint256,string)": "54c8a21e",
			"supportsInterface(bytes4)": "01ffc9a7",
			"symbol()": "95d89b41",
			"targetedChallenge(uint256[],uint256)": "e56053eb",
			"tokensOfOwner(address)": "8462151c",
			"totalSupply()": "18160ddd",
			"transfer(address,uint256)": "a9059cbb",
			"transferFrom(address,address,uint256)": "23b872dd",
			"withdrawAuction(uint256)": "b5fc9833",
			"withdrawSquad(uint256)": "198b367d"
		}
	},
	"abi": [
		{
			"inputs": [],
			"stateMutability": "nonpayable",
			"type": "constructor"
		},
		{
			"anonymous": false,
			"inputs": [
				{
					"indexed": false,
					"internalType": "address",
					"name": "owner",
					"type": "address"
				},
				{
					"indexed": false,
					"internalType": "address",
					"name": "approved",
					"type": "address"
				},
				{
					"indexed": false,
					"internalType": "uint256",
					"name": "tokenId",
					"type": "uint256"
				}
			],
			"name": "Approval",
			"type": "event"
		},
		{
			"anonymous": false,
			"inputs": [
				{
					"indexed": false,
					"internalType": "address",
					"name": "owner",
					"type": "address"
				},
				{
					"indexed": false,
					"internalType": "uint256",
					"name": "_id",
					"type": "uint256"
				}
			],
			"name": "SquadCreated",
			"type": "event"
		},
		{
			"anonymous": false,
			"inputs": [
				{
					"indexed": false,
					"internalType": "address",
					"name": "from",
					"type": "address"
				},
				{
					"indexed": false,
					"internalType": "address",
					"name": "to",
					"type": "address"
				},
				{
					"indexed": false,
					"internalType": "uint256",
					"name": "tokenId",
					"type": "uint256"
				}
			],
			"name": "Transfer",
			"type": "event"
		},
		{
			"anonymous": false,
			"inputs": [
				{
					"indexed": false,
					"internalType": "address",
					"name": "owner",
					"type": "address"
				},
				{
					"indexed": true,
					"internalType": "uint256",
					"name": "id",
					"type": "uint256"
				}
			],
			"name": "UnitCreated",
			"type": "event"
		},
		{
			"inputs": [],
			"name": "CurrencyProvider",
			"outputs": [
				{
					"internalType": "contract StoreToken",
					"name": "",
					"type": "address"
				}
			],
			"stateMutability": "view",
			"type": "function"
		},
		{
			"inputs": [],
			"name": "ProviderAddress",
			"outputs": [
				{
					"internalType": "address",
					"name": "",
					"type": "address"
				}
			],
			"stateMutability": "view",
			"type": "function"
		},
		{
			"inputs": [
				{
					"internalType": "uint256",
					"name": "",
					"type": "uint256"
				}
			],
			"name": "_auctions",
			"outputs": [
				{
					"internalType": "uint256",
					"name": "highestBid",
					"type": "uint256"
				},
				{
					"internalType": "address",
					"name": "highestBidder",
					"type": "address"
				},
				{
					"internalType": "address",
					"name": "host",
					"type": "address"
				},
				{
					"internalType": "string",
					"name": "name",
					"type": "string"
				},
				{
					"internalType": "string",
					"name": "highestBidText",
					"type": "string"
				},
				{
					"internalType": "uint256",
					"name": "endTime",
					"type": "uint256"
				}
			],
			"stateMutability": "view",
			"type": "function"
		},
		{
			"inputs": [
				{
					"internalType": "address",
					"name": "_to",
					"type": "address"
				},
				{
					"internalType": "uint256",
					"name": "_tokenId",
					"type": "uint256"
				}
			],
			"name": "approve",
			"outputs": [],
			"stateMutability": "nonpayable",
			"type": "function"
		},
		{
			"inputs": [
				{
					"internalType": "address",
					"name": "_owner",
					"type": "address"
				}
			],
			"name": "balanceOf",
			"outputs": [
				{
					"internalType": "uint256",
					"name": "balance",
					"type": "uint256"
				}
			],
			"stateMutability": "view",
			"type": "function"
		},
		{
			"inputs": [
				{
					"internalType": "uint256",
					"name": "_auctionId",
					"type": "uint256"
				},
				{
					"internalType": "uint256",
					"name": "_value",
					"type": "uint256"
				}
			],
			"name": "bid",
			"outputs": [],
			"stateMutability": "nonpayable",
			"type": "function"
		},
		{
			"inputs": [
				{
					"internalType": "uint256",
					"name": "_auctionId",
					"type": "uint256"
				},
				{
					"internalType": "uint256",
					"name": "_value",
					"type": "uint256"
				},
				{
					"internalType": "string",
					"name": "_msg",
					"type": "string"
				}
			],
			"name": "bid",
			"outputs": [],
			"stateMutability": "nonpayable",
			"type": "function"
		},
		{
			"inputs": [
				{
					"internalType": "enum UnitType",
					"name": "_type",
					"type": "uint8"
				}
			],
			"name": "buyUnit",
			"outputs": [
				{
					"internalType": "uint256",
					"name": "",
					"type": "uint256"
				}
			],
			"stateMutability": "nonpayable",
			"type": "function"
		},
		{
			"inputs": [
				{
					"internalType": "enum UnitType",
					"name": "_type",
					"type": "uint8"
				},
				{
					"internalType": "string",
					"name": "_name",
					"type": "string"
				}
			],
			"name": "buyUnit",
			"outputs": [
				{
					"internalType": "uint256",
					"name": "",
					"type": "uint256"
				}
			],
			"stateMutability": "nonpayable",
			"type": "function"
		},
		{
			"inputs": [
				{
					"internalType": "uint256",
					"name": "_squadId",
					"type": "uint256"
				}
			],
			"name": "collectSquad",
			"outputs": [],
			"stateMutability": "nonpayable",
			"type": "function"
		},
		{
			"inputs": [
				{
					"internalType": "uint256",
					"name": "_auctionId",
					"type": "uint256"
				}
			],
			"name": "getAssetIds",
			"outputs": [
				{
					"internalType": "uint256[]",
					"name": "assetIds",
					"type": "uint256[]"
				}
			],
			"stateMutability": "view",
			"type": "function"
		},
		{
			"inputs": [],
			"name": "getAuctionCount",
			"outputs": [
				{
					"internalType": "uint256",
					"name": "count",
					"type": "uint256"
				}
			],
			"stateMutability": "view",
			"type": "function"
		},
		{
			"inputs": [
				{
					"internalType": "uint256",
					"name": "squadId",
					"type": "uint256"
				}
			],
			"name": "getSquad",
			"outputs": [
				{
					"components": [
						{
							"internalType": "uint256[]",
							"name": "unitIds",
							"type": "uint256[]"
						},
						{
							"internalType": "uint16",
							"name": "stashedTokens",
							"type": "uint16"
						},
						{
							"internalType": "uint16",
							"name": "deployTime",
							"type": "uint16"
						}
					],
					"internalType": "struct Squad",
					"name": "",
					"type": "tuple"
				}
			],
			"stateMutability": "view",
			"type": "function"
		},
		{
			"inputs": [
				{
					"internalType": "enum DeploymentState",
					"name": "_tier",
					"type": "uint8"
				}
			],
			"name": "getSquadIdsInTier",
			"outputs": [
				{
					"internalType": "uint256[]",
					"name": "",
					"type": "uint256[]"
				}
			],
			"stateMutability": "view",
			"type": "function"
		},
		{
			"inputs": [
				{
					"internalType": "uint256",
					"name": "squadId",
					"type": "uint256"
				}
			],
			"name": "getSquadUnitIds",
			"outputs": [
				{
					"internalType": "uint256[]",
					"name": "",
					"type": "uint256[]"
				}
			],
			"stateMutability": "view",
			"type": "function"
		},
		{
			"inputs": [],
			"name": "getSquads",
			"outputs": [
				{
					"components": [
						{
							"internalType": "uint256[]",
							"name": "unitIds",
							"type": "uint256[]"
						},
						{
							"internalType": "uint16",
							"name": "stashedTokens",
							"type": "uint16"
						},
						{
							"internalType": "uint16",
							"name": "deployTime",
							"type": "uint16"
						}
					],
					"internalType": "struct Squad[]",
					"name": "",
					"type": "tuple[]"
				}
			],
			"stateMutability": "view",
			"type": "function"
		},
		{
			"inputs": [
				{
					"internalType": "uint256",
					"name": "tokenId",
					"type": "uint256"
				}
			],
			"name": "getToken",
			"outputs": [
				{
					"components": [
						{
							"internalType": "uint16",
							"name": "power",
							"type": "uint16"
						},
						{
							"internalType": "uint16",
							"name": "defence",
							"type": "uint16"
						},
						{
							"internalType": "uint16",
							"name": "level",
							"type": "uint16"
						},
						{
							"internalType": "uint16",
							"name": "health",
							"type": "uint16"
						},
						{
							"internalType": "enum UnitType",
							"name": "utype",
							"type": "uint8"
						},
						{
							"internalType": "string",
							"name": "name",
							"type": "string"
						}
					],
					"internalType": "struct Unit",
					"name": "unit",
					"type": "tuple"
				}
			],
			"stateMutability": "view",
			"type": "function"
		},
		{
			"inputs": [],
			"name": "name",
			"outputs": [
				{
					"internalType": "string",
					"name": "",
					"type": "string"
				}
			],
			"stateMutability": "pure",
			"type": "function"
		},
		{
			"inputs": [
				{
					"internalType": "uint256",
					"name": "_tokenId",
					"type": "uint256"
				}
			],
			"name": "ownerOf",
			"outputs": [
				{
					"internalType": "address",
					"name": "owner",
					"type": "address"
				}
			],
			"stateMutability": "view",
			"type": "function"
		},
		{
			"inputs": [
				{
					"internalType": "uint256[]",
					"name": "_unitIds",
					"type": "uint256[]"
				}
			],
			"name": "randomChallenge",
			"outputs": [
				{
					"internalType": "uint256",
					"name": "squadId",
					"type": "uint256"
				}
			],
			"stateMutability": "nonpayable",
			"type": "function"
		},
		{
			"inputs": [
				{
					"internalType": "address",
					"name": "_owner",
					"type": "address"
				}
			],
			"name": "squadCount",
			"outputs": [
				{
					"internalType": "uint256",
					"name": "",
					"type": "uint256"
				}
			],
			"stateMutability": "view",
			"type": "function"
		},
		{
			"inputs": [
				{
					"internalType": "address",
					"name": "_owner",
					"type": "address"
				}
			],
			"name": "squadsOf",
			"outputs": [
				{
					"internalType": "uint256[]",
					"name": "squadIds",
					"type": "uint256[]"
				}
			],
			"stateMutability": "view",
			"type": "function"
		},
		{
			"inputs": [
				{
					"internalType": "uint256[]",
					"name": "_assets",
					"type": "uint256[]"
				},
				{
					"internalType": "uint256",
					"name": "_asking",
					"type": "uint256"
				},
				{
					"internalType": "string",
					"name": "title",
					"type": "string"
				}
			],
			"name": "startAuction",
			"outputs": [
				{
					"internalType": "uint256",
					"name": "auctionId",
					"type": "uint256"
				}
			],
			"stateMutability": "nonpayable",
			"type": "function"
		},
		{
			"inputs": [
				{
					"internalType": "bytes4",
					"name": "_interfaceID",
					"type": "bytes4"
				}
			],
			"name": "supportsInterface",
			"outputs": [
				{
					"internalType": "bool",
					"name": "",
					"type": "bool"
				}
			],
			"stateMutability": "view",
			"type": "function"
		},
		{
			"inputs": [],
			"name": "symbol",
			"outputs": [
				{
					"internalType": "string",
					"name": "",
					"type": "string"
				}
			],
			"stateMutability": "pure",
			"type": "function"
		},
		{
			"inputs": [
				{
					"internalType": "uint256[]",
					"name": "_unitIds",
					"type": "uint256[]"
				},
				{
					"internalType": "uint256",
					"name": "targetId",
					"type": "uint256"
				}
			],
			"name": "targetedChallenge",
			"outputs": [
				{
					"internalType": "uint256",
					"name": "squadId",
					"type": "uint256"
				}
			],
			"stateMutability": "nonpayable",
			"type": "function"
		},
		{
			"inputs": [
				{
					"internalType": "address",
					"name": "_owner",
					"type": "address"
				}
			],
			"name": "tokensOfOwner",
			"outputs": [
				{
					"internalType": "uint256[]",
					"name": "tokenIds",
					"type": "uint256[]"
				}
			],
			"stateMutability": "view",
			"type": "function"
		},
		{
			"inputs": [],
			"name": "totalSupply",
			"outputs": [
				{
					"internalType": "uint256",
					"name": "total",
					"type": "uint256"
				}
			],
			"stateMutability": "view",
			"type": "function"
		},
		{
			"inputs": [
				{
					"internalType": "address",
					"name": "_to",
					"type": "address"
				},
				{
					"internalType": "uint256",
					"name": "_tokenId",
					"type": "uint256"
				}
			],
			"name": "transfer",
			"outputs": [],
			"stateMutability": "nonpayable",
			"type": "function"
		},
		{
			"inputs": [
				{
					"internalType": "address",
					"name": "_from",
					"type": "address"
				},
				{
					"internalType": "address",
					"name": "_to",
					"type": "address"
				},
				{
					"internalType": "uint256",
					"name": "_tokenId",
					"type": "uint256"
				}
			],
			"name": "transferFrom",
			"outputs": [],
			"stateMutability": "nonpayable",
			"type": "function"
		},
		{
			"inputs": [
				{
					"internalType": "uint256",
					"name": "_auctionId",
					"type": "uint256"
				}
			],
			"name": "withdrawAuction",
			"outputs": [
				{
					"internalType": "bool",
					"name": "success",
					"type": "bool"
				}
			],
			"stateMutability": "nonpayable",
			"type": "function"
		},
		{
			"inputs": [
				{
					"internalType": "uint256",
					"name": "_squadId",
					"type": "uint256"
				}
			],
			"name": "withdrawSquad",
			"outputs": [
				{
					"internalType": "bool",
					"name": "success",
					"type": "bool"
				}
			],
			"stateMutability": "nonpayable",
			"type": "function"
		}
	]
}