{
	"data": {
		"bytecode": {
			"linkReferences": {
				"MatchMaker_flat.sol": {
					"AuctionFunctions": [
						{
							"length": 20,
							"start": 2533
						},
						{
							"length": 20,
							"start": 2735
						},
						{
							"length": 20,
							"start": 2951
						}
					],
					"UnitHelpers": [
						{
							"length": 20,
							"start": 4818
						},
						{
							"length": 20,
							"start": 5086
						}
					]
				}
			},
			"object": "6080604052633b9aca00600b553480156200001957600080fd5b5030604051620000299062000086565b62000035919062000094565b604051809103906000f08015801562000052573d6000803e3d6000fd5b50600d80546001600160a01b03199081166001600160a01b039384161791829055600c8054929093169116179055620000a8565b610c628062001efc83390190565b6001600160a01b0391909116815260200190565b611e4480620000b86000396000f3fe608060405234801561001057600080fd5b50600436106101c45760003560e01c8063863858de116100f9578063b5fc983311610097578063dd48124611610071578063dd481246146103c5578063de1eecc9146103d8578063e380497d146103fb578063e5fba6cc1461040e576101c4565b8063b5fc983314610397578063d1454521146103aa578063d9bd982a146103b2576101c4565b806399975226116100d35780639997522614610349578063a49955be14610351578063a9059cbb14610371578063a98e99b114610384576101c4565b8063863858de1461031b578063898f42991461032e57806395d89b4114610341576101c4565b8063313de62b116101665780636352211e116101405780636352211e146102c257806370a08231146102d557806376d4fc57146102e85780638462151c146102fb576101c4565b8063313de62b1461027c57806354c8a21e1461029c578063598647f8146102af576101c4565b806317dc6bf6116101a257806317dc6bf61461021c57806318160ddd1461024157806323b872dd1461025657806327e7820214610269576101c4565b806301ffc9a7146101c957806306fdde03146101f2578063095ea7b314610207575b600080fd5b6101dc6101d736600461178c565b610434565b6040516101e99190611a57565b60405180910390f35b6101fa61043a565b6040516101e99190611a89565b61021a6102153660046116a2565b610468565b005b61022f61022a36600461181f565b6105d6565b6040516101e996959493929190611cbb565b61024961073c565b6040516101e99190611cb2565b61021a610264366004611667565b610742565b6102496102773660046117b4565b610872565b61028f61028a36600461181f565b6108b4565b6040516101e99190611920565b6102496102aa3660046116cb565b6108cf565b61021a6102bd36600461184f565b6109ba565b61028f6102d036600461181f565b610a5c565b6102496102e3366004611646565b610a77565b61021a6102f6366004611870565b610a92565b61030e610309366004611646565b610b80565b6040516101e99190611a13565b6102496103293660046116a2565b610bec565b61024961033c3660046117ce565b610c1d565b6101fa610c68565b61028f610c88565b61036461035f36600461181f565b610c97565b6040516101e99190611a62565b61021a61037f3660046116a2565b610cac565b61028f61039236600461181f565b610d9b565b6101dc6103a536600461181f565b610db6565b61028f610f76565b61028f6103c036600461181f565b610f85565b6102496103d336600461181f565b610fa0565b6103eb6103e636600461181f565b610fb2565b6040516101e99493929190611d13565b610249610409366004611646565b610fff565b61042161041c36600461181f565b611011565b6040516101e99796959493929190611c5b565b50600090565b60408051808201909152601481527320baba37a1b432b9b9902ab734ba102a37b5b2b760611b602082015290565b33828261047481610a5c565b6001600160a01b0316836001600160a01b0316146104ad5760405162461bcd60e51b81526004016104a490611bd8565b60405180910390fd5b816001600160a01b0316836001600160a01b031614156104df5760405162461bcd60e51b81526004016104a490611b29565b600360008281526009602052604090205460ff16600481111561051257634e487b7160e01b600052602160045260246000fd5b1461052f5760405162461bcd60e51b81526004016104a490611c0f565b6001600160a01b0382166105555760405162461bcd60e51b81526004016104a490611b60565b600084815260086020908152604080832080546001600160a01b038a166001600160a01b0319909116179055600990915290819020805460ff19166004179055517f8c5be1e5ebec7d5bd14f71427d1e84f3dd0314c0f7b2291e5b200ac8c7c3b925906105c790339088908890611934565b60405180910390a15050505050565b600e81815481106105e657600080fd5b600091825260209091206007909102018054600282015460038301546004840180549395506001600160a01b0392831694929091169261062590611d79565b80601f016020809104026020016040519081016040528092919081815260200182805461065190611d79565b801561069e5780601f106106735761010080835404028352916020019161069e565b820191906000526020600020905b81548152906001019060200180831161068157829003601f168201915b5050505050908060050180546106b390611d79565b80601f01602080910402602001604051908101604052809291908181526020018280546106df90611d79565b801561072c5780601f106107015761010080835404028352916020019161072c565b820191906000526020600020905b81548152906001019060200180831161070f57829003601f168201915b5050505050908060060154905086565b600b5490565b82828261074e81610a5c565b6001600160a01b0316836001600160a01b03161461077e5760405162461bcd60e51b81526004016104a490611bd8565b816001600160a01b0316836001600160a01b031614156107b05760405162461bcd60e51b81526004016104a490611b29565b600360008281526009602052604090205460ff1660048111156107e357634e487b7160e01b600052602160045260246000fd5b146108005760405162461bcd60e51b81526004016104a490611c0f565b6001600160a01b0382166108265760405162461bcd60e51b81526004016104a490611b60565b6000848152600860205260409020546001600160a01b0386811691161461085f5760405162461bcd60e51b81526004016104a490611b97565b61086a86868661110b565b505050505050565b60006108ac3383604051806040016040528060158152602001744d6175726963652c20746865204d6564696f63726560581b8152506111e8565b90505b919050565b6006602052600090815260409020546001600160a01b031681565b6000805b8581101561091d5761090b338888848181106108ff57634e487b7160e01b600052603260045260246000fd5b90506020020135611460565b8061091581611db4565b9150506108d3565b50604051635a6614b360e11b815273__$df95346506231f8a1998d6cd168cb00904$__9063b4cc29669061096090600e908a908a908a908a908a90600401611971565b60206040518083038186803b15801561097857600080fd5b505af415801561098c573d6000803e3d6000fd5b505050506040513d601f19601f820116820180604052508101906109b09190611837565b9695505050505050565b600e82815481106109db57634e487b7160e01b600052603260045260246000fd5b60009182526020909120600d5460405163385b543360e21b815273__$df95346506231f8a1998d6cd168cb00904$__9363e16d50cc93610a30936007909202019186916001600160a01b031690600401611c3c565b60006040518083038186803b158015610a4857600080fd5b505af415801561086a573d6000803e3d6000fd5b6000908152600560205260409020546001600160a01b031690565b6001600160a01b031660009081526007602052604090205490565b600e8481548110610ab357634e487b7160e01b600052603260045260246000fd5b60009182526020909120600d5460405163385b543360e21b815273__$df95346506231f8a1998d6cd168cb00904$__9363e16d50cc93610b08936007909202019188916001600160a01b031690600401611c3c565b60006040518083038186803b158015610b2057600080fd5b505af4158015610b34573d6000803e3d6000fd5b505050508181600e8681548110610b5b57634e487b7160e01b600052603260045260246000fd5b90600052602060002090600702016005019190610b79929190611540565b5050505050565b6001600160a01b0381166000908152600a6020908152604091829020805483518184028101840190945280845260609392830182828015610be057602002820191906000526020600020905b815481526020019060010190808311610bcc575b50505050509050919050565b600a6020528160005260406000208181548110610c0857600080fd5b90600052602060002001600091509150505481565b6000610c60338585858080601f0160208091040260200160405190810160405280939291908181526020018383808284376000920191909152506111e892505050565b949350505050565b60408051808201909152600681526541434853535560d01b602082015290565b600d546001600160a01b031681565b60096020526000908152604090205460ff1681565b338282610cb881610a5c565b6001600160a01b0316836001600160a01b031614610ce85760405162461bcd60e51b81526004016104a490611bd8565b816001600160a01b0316836001600160a01b03161415610d1a5760405162461bcd60e51b81526004016104a490611b29565b600360008281526009602052604090205460ff166004811115610d4d57634e487b7160e01b600052602160045260246000fd5b14610d6a5760405162461bcd60e51b81526004016104a490611c0f565b6001600160a01b038216610d905760405162461bcd60e51b81526004016104a490611b60565b610b7933868661110b565b6008602052600090815260409020546001600160a01b031681565b6000336001600160a01b0316600e8381548110610de357634e487b7160e01b600052603260045260246000fd5b60009182526020909120600360079092020101546001600160a01b031614610e1d5760405162461bcd60e51b81526004016104a490611ae4565b42600e8381548110610e3f57634e487b7160e01b600052603260045260246000fd5b90600052602060002090600702016006015411610e6e5760405162461bcd60e51b81526004016104a490611a9c565b600d54600e80546001600160a01b039092169163535b6773919085908110610ea657634e487b7160e01b600052603260045260246000fd5b906000526020600020906007020160020160009054906101000a90046001600160a01b0316600e8581548110610eec57634e487b7160e01b600052603260045260246000fd5b9060005260206000209060070201600001546040518363ffffffff1660e01b8152600401610f1b929190611958565b602060405180830381600087803b158015610f3557600080fd5b505af1158015610f49573d6000803e3d6000fd5b505050506040513d601f19601f82011682018060405250810190610f6d919061176c565b50600192915050565b600c546001600160a01b031681565b6005602052600090815260409020546001600160a01b031681565b60046020526000908152604090205481565b60018181548110610fc257600080fd5b600091825260209091206001600290920201015460ff808216925061ffff6101008304811692630100000081049092169164010000000090041684565b60076020526000908152604090205481565b6000818154811061102157600080fd5b60009182526020909120600290910201805460018201805461ffff808416955062010000840481169464010000000085048216946601000000000000810483169468010000000000000000820490931693600160501b90910460ff16929061108890611d79565b80601f01602080910402602001604051908101604052809291908181526020018280546110b490611d79565b80156111015780601f106110d657610100808354040283529160200191611101565b820191906000526020600020905b8154815290600101906020018083116110e457829003601f168201915b5050505050905087565b6001600160a01b0383166000908152600760205260408120805460019290611134908490611d62565b9091555050600081815260056020908152604080832080546001600160a01b03199081166001600160a01b038816908117909255600884528285208054909116905560098352818420805460ff191660031790558352600790915281208054600192906111a2908490611d4a565b90915550506040517fddf252ad1be2c89b69c2b068fc378daa952ba7f163c4a11628f55a4df523b3ef906111db90859085908590611934565b60405180910390a1505050565b60008083600281111561120b57634e487b7160e01b600052602160045260246000fd5b60405163b9bf30a560e01b815273__$fc5b9f10ef01c0fbaa7e8430f43b2a1a96$__9163b9bf30a5916112419190600401611a75565b60206040518083038186803b15801561125957600080fd5b505af415801561126d573d6000803e3d6000fd5b505050506040513d601f19601f820116820180604052508101906112919190611837565b600d5460405163af7d6ca360e01b81529192506001600160a01b03169063af7d6ca3906112c49088908590600401611958565b602060405180830381600087803b1580156112de57600080fd5b505af11580156112f2573d6000803e3d6000fd5b505050506040513d601f19601f82011682018060405250810190611316919061176c565b5060405163ee28668d60e01b815273__$fc5b9f10ef01c0fbaa7e8430f43b2a1a96$__9063ee28668d9061135690600090600990899089906004016119e7565b60206040518083038186803b15801561136e57600080fd5b505af4158015611382573d6000803e3d6000fd5b505050506040513d601f19601f820116820180604052508101906113a69190611837565b9150817fb89be3b4bdc4059b3e8638ac07ef31fb78418648ffa34eaccb60b1c60f318d29866040516113d89190611920565b60405180910390a2600082815260056020908152604080832080546001600160a01b0319166001600160a01b038a16908117909155835260079091528120805460019290611427908490611d4a565b9091555050506001600160a01b039093166000908152600a60209081526040822080546001810182559083529120018390555090919050565b61146981610a5c565b6001600160a01b0316826001600160a01b0316146114995760405162461bcd60e51b81526004016104a490611bd8565b600360008281526009602052604090205460ff1660048111156114cc57634e487b7160e01b600052602160045260246000fd5b146114e95760405162461bcd60e51b81526004016104a490611c0f565b6001600160a01b0382166114fc57600080fd5b600090815260086020908152604080832080546001600160a01b03959095166001600160a01b0319909516949094179093556009905220805460ff19166002179055565b82805461154c90611d79565b90600052602060002090601f01602090048101928261156e57600085556115b4565b82601f106115875782800160ff198235161785556115b4565b828001600101855582156115b4579182015b828111156115b4578235825591602001919060010190611599565b506115c09291506115c4565b5090565b5b808211156115c057600081556001016115c5565b80356001600160a01b03811681146108af57600080fd5b8035600381106108af57600080fd5b60008083601f840112611610578182fd5b50813567ffffffffffffffff811115611627578182fd5b60208301915083602082850101111561163f57600080fd5b9250929050565b600060208284031215611657578081fd5b611660826115d9565b9392505050565b60008060006060848603121561167b578182fd5b611684846115d9565b9250611692602085016115d9565b9150604084013590509250925092565b600080604083850312156116b4578182fd5b6116bd836115d9565b946020939093013593505050565b6000806000806000606086880312156116e2578081fd5b853567ffffffffffffffff808211156116f9578283fd5b818801915088601f83011261170c578283fd5b81358181111561171a578384fd5b896020808302850101111561172d578384fd5b6020928301975095509087013593506040870135908082111561174e578283fd5b5061175b888289016115ff565b969995985093965092949392505050565b60006020828403121561177d578081fd5b81518015158114611660578182fd5b60006020828403121561179d578081fd5b81356001600160e01b031981168114611660578182fd5b6000602082840312156117c5578081fd5b611660826115f0565b6000806000604084860312156117e2578283fd5b6117eb846115f0565b9250602084013567ffffffffffffffff811115611806578283fd5b611812868287016115ff565b9497909650939450505050565b600060208284031215611830578081fd5b5035919050565b600060208284031215611848578081fd5b5051919050565b60008060408385031215611861578182fd5b50508035926020909101359150565b60008060008060608587031215611885578384fd5b8435935060208501359250604085013567ffffffffffffffff8111156118a9578283fd5b6118b5878288016115ff565b95989497509550505050565b600381106118d1576118d1611de5565b9052565b60008151808452815b818110156118fa576020818501810151868301820152016118de565b8181111561190b5782602083870101525b50601f01601f19169290920160200192915050565b6001600160a01b0391909116815260200190565b6001600160a01b039384168152919092166020820152604081019190915260600190565b6001600160a01b03929092168252602082015260400190565b868152608060208201819052810185905260006001600160fb1b03861115611997578081fd5b60208602808860a085013760408301869052820182810360a090810160608501528101849052838560c08301378160c0858301015260c0601f19601f860116820101915050979650505050505050565b60008582528460208301526119ff60408301856118c1565b608060608301526109b060808301846118d5565b6020808252825182820181905260009190848201906040850190845b81811015611a4b57835183529284019291840191600101611a2f565b50909695505050505050565b901515815260200190565b60208101611a6f83611dfb565b91905290565b60208101611a8382846118c1565b92915050565b60006020825261166060208301846118d5565b60208082526028908201527f497420697320746f6f206c61746520746f20776974686472617720746869732060408201526761756374696f6e2160c01b606082015260800190565b60208082526025908201527f596f7520617265206e6f742074686520686f7374206f6620746869732061756360408201526474696f6e2160d81b606082015260800190565b60208082526019908201527f596f7520616c7265616479206f776e207468697320756e697400000000000000604082015260600190565b6020808252601b908201527f4e6f7420612076616c696420616464726573732e20536f727279210000000000604082015260600190565b60208082526021908201527f556e6974206973206e6f742070726f6d6973656420746f2074686174207573656040820152603960f91b606082015260800190565b60208082526017908201527f596f7520646f6e2774206f776e207468697320756e6974000000000000000000604082015260600190565b602080825260139082015272556e697420697320756e617661696c61626c6560681b604082015260600190565b92835260208301919091526001600160a01b0316604082015260600190565b61ffff8881168252878116602083015286811660408301528581166060830152841660808201526000611c9160a08301856118c1565b60e060c0830152611ca560e08301846118d5565b9998505050505050505050565b90815260200190565b8681526001600160a01b0386811660208301528516604082015260c060608201819052600090611ced908301866118d5565b8281036080840152611cff81866118d5565b9150508260a0830152979650505050505050565b60ff8516815261ffff84811660208301526080820190611d3285611dfb565b84604084015280841660608401525095945050505050565b60008219821115611d5d57611d5d611dcf565b500190565b600082821015611d7457611d74611dcf565b500390565b600281046001821680611d8d57607f821691505b60208210811415611dae57634e487b7160e01b600052602260045260246000fd5b50919050565b6000600019821415611dc857611dc8611dcf565b5060010190565b634e487b7160e01b600052601160045260246000fd5b634e487b7160e01b600052602160045260246000fd5b60058110611e0b57611e0b611de5565b5056fea26469706673582212202fc543f85cf875ddd3d7de346a221186d6f37290fd7721f9e81392459327e60d64736f6c634300080100336080604052633b9aca0060005534801561001857600080fd5b50604051610c62380380610c628339810160408190526100379161006c565b600480546001600160a01b039092166001600160a01b031990921682179055600080549181526001602052604090205561009a565b60006020828403121561007d578081fd5b81516001600160a01b0381168114610093578182fd5b9392505050565b610bb9806100a96000396000f3fe6080604052600436106100f35760003560e01c806370a082311161008a578063abb8d5c311610059578063abb8d5c314610261578063af7d6ca314610281578063d4e7b8ad146102a1578063dd62ed3e146102c1576100f3565b806370a08231146101f757806389eb068a1461021757806395d89b411461022c578063a9059cbb14610241576100f3565b806323b872dd116100c657806323b872dd146101925780633290ce29146101b2578063332b888d146101bc578063535b6773146101d7576100f3565b806301ffc9a7146100f857806306fdde031461012e578063095ea7b31461015057806318160ddd14610170575b600080fd5b34801561010457600080fd5b5061011861011336600461096c565b6102e1565b60405161012591906109ac565b60405180910390f35b34801561013a57600080fd5b506101436102e9565b60405161012591906109b7565b34801561015c57600080fd5b5061011861016b366004610943565b610318565b34801561017c57600080fd5b5061018561032c565b6040516101259190610b16565b34801561019e57600080fd5b506101186101ad366004610908565b610332565b6101ba61044e565b005b3480156101c857600080fd5b50610118610113366004610994565b3480156101e357600080fd5b506101186101f2366004610943565b61047f565b34801561020357600080fd5b506101856102123660046108bc565b61051a565b34801561022357600080fd5b506101ba610535565b34801561023857600080fd5b50610143610557565b34801561024d57600080fd5b5061011861025c366004610943565b610577565b34801561026d57600080fd5b5061011861027c366004610943565b61063f565b34801561028d57600080fd5b5061011861029c366004610943565b610684565b3480156102ad57600080fd5b506101856102bc3660046108bc565b61075d565b3480156102cd57600080fd5b506101856102dc3660046108d6565b610791565b60015b919050565b60408051808201909152601581527420baba37a1b432b9b99029ba37b932902a37b5b2b760591b602082015290565b60006103253384846107bc565b9392505050565b60005490565b6001600160a01b03808416600090815260026020908152604080832093861683529290529081205482106103815760405162461bcd60e51b815260040161037890610a0a565b60405180910390fd5b6001600160a01b038085166000908152600260209081526040808320938716835292905290812080548492906103b8908490610b56565b90915550506001600160a01b038416600090815260036020526040812080548492906103e5908490610b56565b90915550506001600160a01b03841660009081526001602052604081208054849290610412908490610b56565b90915550506001600160a01b0383166000908152600160205260408120805484929061043f908490610b1f565b90915550600195945050505050565b610459346064610b37565b3360009081526001602052604081208054909190610478908490610b1f565b9091555050565b6004546000906001600160a01b031633146104ac5760405162461bcd60e51b815260040161037890610acb565b6001600160a01b0383166000908152600260209081526040808320338452909152812080548492906104df908490610b56565b90915550506001600160a01b0383166000908152600360205260408120805484929061050c908490610b56565b909155506001949350505050565b6001600160a01b031660009081526001602052604090205490565b3360009081526001602052604081208054620186a09290610478908490610b1f565b6040805180820190915260068152651050d214d4d560d21b602082015290565b6000816105833361075d565b116105a05760405162461bcd60e51b815260040161037890610a34565b33600090815260016020526040812080548492906105bf908490610b56565b90915550506001600160a01b038316600090815260016020526040812080548492906105ec908490610b1f565b90915550506040516001600160a01b0384169033907fddf252ad1be2c89b69c2b068fc378daa952ba7f163c4a11628f55a4df523b3ef9061062e908690610b16565b60405180910390a350600192915050565b6004546000906001600160a01b0316331461066c5760405162461bcd60e51b815260040161037890610acb565b6004546103259084906001600160a01b0316846107bc565b6004546000906001600160a01b031633146106b15760405162461bcd60e51b815260040161037890610acb565b816106bb8461075d565b116106d85760405162461bcd60e51b815260040161037890610a34565b816000808282546106e99190610b56565b90915550506001600160a01b03831660009081526001602052604081208054849290610716908490610b56565b90915550506004546040516001600160a01b03918216918516907fddf252ad1be2c89b69c2b068fc378daa952ba7f163c4a11628f55a4df523b3ef9061062e908690610b16565b6001600160a01b038116600090815260036020908152604080832054600190925282205461078b9190610b56565b92915050565b6001600160a01b03918216600090815260026020908152604080832093909416825291909152205490565b6000816107c88561075d565b116107e55760405162461bcd60e51b815260040161037890610a80565b6001600160a01b0380851660009081526002602090815260408083209387168352929052908120805484929061081c908490610b1f565b90915550506001600160a01b03841660009081526003602052604081208054849290610849908490610b1f565b92505081905550826001600160a01b0316846001600160a01b03167f8c5be1e5ebec7d5bd14f71427d1e84f3dd0314c0f7b2291e5b200ac8c7c3b925846040516108939190610b16565b60405180910390a35060019392505050565b80356001600160a01b03811681146102e457600080fd5b6000602082840312156108cd578081fd5b610325826108a5565b600080604083850312156108e8578081fd5b6108f1836108a5565b91506108ff602084016108a5565b90509250929050565b60008060006060848603121561091c578081fd5b610925846108a5565b9250610933602085016108a5565b9150604084013590509250925092565b60008060408385031215610955578182fd5b61095e836108a5565b946020939093013593505050565b60006020828403121561097d578081fd5b81356001600160e01b031981168114610325578182fd5b6000602082840312156109a5578081fd5b5035919050565b901515815260200190565b6000602080835283518082850152825b818110156109e3578581018301518582016040015282016109c7565b818111156109f45783604083870101525b50601f01601f1916929092016040019392505050565b60208082526010908201526f416d6f756e7420746f6f206c6172676560801b604082015260600190565b6020808252602c908201527f546f6f2066657720746f6b656e732061726520756e6c6f636b656420696e207960408201526b6f7572206163636f756e742160a01b606082015260800190565b6020808252602b908201527f546f6f2066657720746f6b656e732061726520756e6c6f636b656420696e207960408201526a1bdd5c881858d8dbdd5b9d60aa1b606082015260800190565b6020808252602b908201527f4f6e6c79207468652053746f726546726f6e7420697320616c6c6f776564207460408201526a37903ab9b2903a3434b99760a91b606082015260800190565b90815260200190565b60008219821115610b3257610b32610b6d565b500190565b6000816000190483118215151615610b5157610b51610b6d565b500290565b600082821015610b6857610b68610b6d565b500390565b634e487b7160e01b600052601160045260246000fdfea26469706673582212202126409280328a0c810f459c85886ea0f57cafc30db8c4e38b7c49c090c3999f64736f6c63430008010033",
			"opcodes": "PUSH1 0x80 PUSH1 0x40 MSTORE PUSH4 0x3B9ACA00 PUSH1 0xB SSTORE CALLVALUE DUP1 ISZERO PUSH3 0x19 JUMPI PUSH1 0x0 DUP1 REVERT JUMPDEST POP ADDRESS PUSH1 0x40 MLOAD PUSH3 0x29 SWAP1 PUSH3 0x86 JUMP JUMPDEST PUSH3 0x35 SWAP2 SWAP1 PUSH3 0x94 JUMP JUMPDEST PUSH1 0x40 MLOAD DUP1 SWAP2 SUB SWAP1 PUSH1 0x0 CREATE DUP1 ISZERO DUP1 ISZERO PUSH3 0x52 JUMPI RETURNDATASIZE PUSH1 0x0 DUP1 RETURNDATACOPY RETURNDATASIZE PUSH1 0x0 REVERT JUMPDEST POP PUSH1 0xD DUP1 SLOAD PUSH1 0x1 PUSH1 0x1 PUSH1 0xA0 SHL SUB NOT SWAP1 DUP2 AND PUSH1 0x1 PUSH1 0x1 PUSH1 0xA0 SHL SUB SWAP4 DUP5 AND OR SWAP2 DUP3 SWAP1 SSTORE PUSH1 0xC DUP1 SLOAD SWAP3 SWAP1 SWAP4 AND SWAP2 AND OR SWAP1 SSTORE PUSH3 0xA8 JUMP JUMPDEST PUSH2 0xC62 DUP1 PUSH3 0x1EFC DUP4 CODECOPY ADD SWAP1 JUMP JUMPDEST PUSH1 0x1 PUSH1 0x1 PUSH1 0xA0 SHL SUB SWAP2 SWAP1 SWAP2 AND DUP2 MSTORE PUSH1 0x20 ADD SWAP1 JUMP JUMPDEST PUSH2 0x1E44 DUP1 PUSH3 0xB8 PUSH1 0x0 CODECOPY PUSH1 0x0 RETURN INVALID PUSH1 0x80 PUSH1 0x40 MSTORE CALLVALUE DUP1 ISZERO PUSH2 0x10 JUMPI PUSH1 0x0 DUP1 REVERT JUMPDEST POP PUSH1 0x4 CALLDATASIZE LT PUSH2 0x1C4 JUMPI PUSH1 0x0 CALLDATALOAD PUSH1 0xE0 SHR DUP1 PUSH4 0x863858DE GT PUSH2 0xF9 JUMPI DUP1 PUSH4 0xB5FC9833 GT PUSH2 0x97 JUMPI DUP1 PUSH4 0xDD481246 GT PUSH2 0x71 JUMPI DUP1 PUSH4 0xDD481246 EQ PUSH2 0x3C5 JUMPI DUP1 PUSH4 0xDE1EECC9 EQ PUSH2 0x3D8 JUMPI DUP1 PUSH4 0xE380497D EQ PUSH2 0x3FB JUMPI DUP1 PUSH4 0xE5FBA6CC EQ PUSH2 0x40E JUMPI PUSH2 0x1C4 JUMP JUMPDEST DUP1 PUSH4 0xB5FC9833 EQ PUSH2 0x397 JUMPI DUP1 PUSH4 0xD1454521 EQ PUSH2 0x3AA JUMPI DUP1 PUSH4 0xD9BD982A EQ PUSH2 0x3B2 JUMPI PUSH2 0x1C4 JUMP JUMPDEST DUP1 PUSH4 0x99975226 GT PUSH2 0xD3 JUMPI DUP1 PUSH4 0x99975226 EQ PUSH2 0x349 JUMPI DUP1 PUSH4 0xA49955BE EQ PUSH2 0x351 JUMPI DUP1 PUSH4 0xA9059CBB EQ PUSH2 0x371 JUMPI DUP1 PUSH4 0xA98E99B1 EQ PUSH2 0x384 JUMPI PUSH2 0x1C4 JUMP JUMPDEST DUP1 PUSH4 0x863858DE EQ PUSH2 0x31B JUMPI DUP1 PUSH4 0x898F4299 EQ PUSH2 0x32E JUMPI DUP1 PUSH4 0x95D89B41 EQ PUSH2 0x341 JUMPI PUSH2 0x1C4 JUMP JUMPDEST DUP1 PUSH4 0x313DE62B GT PUSH2 0x166 JUMPI DUP1 PUSH4 0x6352211E GT PUSH2 0x140 JUMPI DUP1 PUSH4 0x6352211E EQ PUSH2 0x2C2 JUMPI DUP1 PUSH4 0x70A08231 EQ PUSH2 0x2D5 JUMPI DUP1 PUSH4 0x76D4FC57 EQ PUSH2 0x2E8 JUMPI DUP1 PUSH4 0x8462151C EQ PUSH2 0x2FB JUMPI PUSH2 0x1C4 JUMP JUMPDEST DUP1 PUSH4 0x313DE62B EQ PUSH2 0x27C JUMPI DUP1 PUSH4 0x54C8A21E EQ PUSH2 0x29C JUMPI DUP1 PUSH4 0x598647F8 EQ PUSH2 0x2AF JUMPI PUSH2 0x1C4 JUMP JUMPDEST DUP1 PUSH4 0x17DC6BF6 GT PUSH2 0x1A2 JUMPI DUP1 PUSH4 0x17DC6BF6 EQ PUSH2 0x21C JUMPI DUP1 PUSH4 0x18160DDD EQ PUSH2 0x241 JUMPI DUP1 PUSH4 0x23B872DD EQ PUSH2 0x256 JUMPI DUP1 PUSH4 0x27E78202 EQ PUSH2 0x269 JUMPI PUSH2 0x1C4 JUMP JUMPDEST DUP1 PUSH4 0x1FFC9A7 EQ PUSH2 0x1C9 JUMPI DUP1 PUSH4 0x6FDDE03 EQ PUSH2 0x1F2 JUMPI DUP1 PUSH4 0x95EA7B3 EQ PUSH2 0x207 JUMPI JUMPDEST PUSH1 0x0 DUP1 REVERT JUMPDEST PUSH2 0x1DC PUSH2 0x1D7 CALLDATASIZE PUSH1 0x4 PUSH2 0x178C JUMP JUMPDEST PUSH2 0x434 JUMP JUMPDEST PUSH1 0x40 MLOAD PUSH2 0x1E9 SWAP2 SWAP1 PUSH2 0x1A57 JUMP JUMPDEST PUSH1 0x40 MLOAD DUP1 SWAP2 SUB SWAP1 RETURN JUMPDEST PUSH2 0x1FA PUSH2 0x43A JUMP JUMPDEST PUSH1 0x40 MLOAD PUSH2 0x1E9 SWAP2 SWAP1 PUSH2 0x1A89 JUMP JUMPDEST PUSH2 0x21A PUSH2 0x215 CALLDATASIZE PUSH1 0x4 PUSH2 0x16A2 JUMP JUMPDEST PUSH2 0x468 JUMP JUMPDEST STOP JUMPDEST PUSH2 0x22F PUSH2 0x22A CALLDATASIZE PUSH1 0x4 PUSH2 0x181F JUMP JUMPDEST PUSH2 0x5D6 JUMP JUMPDEST PUSH1 0x40 MLOAD PUSH2 0x1E9 SWAP7 SWAP6 SWAP5 SWAP4 SWAP3 SWAP2 SWAP1 PUSH2 0x1CBB JUMP JUMPDEST PUSH2 0x249 PUSH2 0x73C JUMP JUMPDEST PUSH1 0x40 MLOAD PUSH2 0x1E9 SWAP2 SWAP1 PUSH2 0x1CB2 JUMP JUMPDEST PUSH2 0x21A PUSH2 0x264 CALLDATASIZE PUSH1 0x4 PUSH2 0x1667 JUMP JUMPDEST PUSH2 0x742 JUMP JUMPDEST PUSH2 0x249 PUSH2 0x277 CALLDATASIZE PUSH1 0x4 PUSH2 0x17B4 JUMP JUMPDEST PUSH2 0x872 JUMP JUMPDEST PUSH2 0x28F PUSH2 0x28A CALLDATASIZE PUSH1 0x4 PUSH2 0x181F JUMP JUMPDEST PUSH2 0x8B4 JUMP JUMPDEST PUSH1 0x40 MLOAD PUSH2 0x1E9 SWAP2 SWAP1 PUSH2 0x1920 JUMP JUMPDEST PUSH2 0x249 PUSH2 0x2AA CALLDATASIZE PUSH1 0x4 PUSH2 0x16CB JUMP JUMPDEST PUSH2 0x8CF JUMP JUMPDEST PUSH2 0x21A PUSH2 0x2BD CALLDATASIZE PUSH1 0x4 PUSH2 0x184F JUMP JUMPDEST PUSH2 0x9BA JUMP JUMPDEST PUSH2 0x28F PUSH2 0x2D0 CALLDATASIZE PUSH1 0x4 PUSH2 0x181F JUMP JUMPDEST PUSH2 0xA5C JUMP JUMPDEST PUSH2 0x249 PUSH2 0x2E3 CALLDATASIZE PUSH1 0x4 PUSH2 0x1646 JUMP JUMPDEST PUSH2 0xA77 JUMP JUMPDEST PUSH2 0x21A PUSH2 0x2F6 CALLDATASIZE PUSH1 0x4 PUSH2 0x1870 JUMP JUMPDEST PUSH2 0xA92 JUMP JUMPDEST PUSH2 0x30E PUSH2 0x309 CALLDATASIZE PUSH1 0x4 PUSH2 0x1646 JUMP JUMPDEST PUSH2 0xB80 JUMP JUMPDEST PUSH1 0x40 MLOAD PUSH2 0x1E9 SWAP2 SWAP1 PUSH2 0x1A13 JUMP JUMPDEST PUSH2 0x249 PUSH2 0x329 CALLDATASIZE PUSH1 0x4 PUSH2 0x16A2 JUMP JUMPDEST PUSH2 0xBEC JUMP JUMPDEST PUSH2 0x249 PUSH2 0x33C CALLDATASIZE PUSH1 0x4 PUSH2 0x17CE JUMP JUMPDEST PUSH2 0xC1D JUMP JUMPDEST PUSH2 0x1FA PUSH2 0xC68 JUMP JUMPDEST PUSH2 0x28F PUSH2 0xC88 JUMP JUMPDEST PUSH2 0x364 PUSH2 0x35F CALLDATASIZE PUSH1 0x4 PUSH2 0x181F JUMP JUMPDEST PUSH2 0xC97 JUMP JUMPDEST PUSH1 0x40 MLOAD PUSH2 0x1E9 SWAP2 SWAP1 PUSH2 0x1A62 JUMP JUMPDEST PUSH2 0x21A PUSH2 0x37F CALLDATASIZE PUSH1 0x4 PUSH2 0x16A2 JUMP JUMPDEST PUSH2 0xCAC JUMP JUMPDEST PUSH2 0x28F PUSH2 0x392 CALLDATASIZE PUSH1 0x4 PUSH2 0x181F JUMP JUMPDEST PUSH2 0xD9B JUMP JUMPDEST PUSH2 0x1DC PUSH2 0x3A5 CALLDATASIZE PUSH1 0x4 PUSH2 0x181F JUMP JUMPDEST PUSH2 0xDB6 JUMP JUMPDEST PUSH2 0x28F PUSH2 0xF76 JUMP JUMPDEST PUSH2 0x28F PUSH2 0x3C0 CALLDATASIZE PUSH1 0x4 PUSH2 0x181F JUMP JUMPDEST PUSH2 0xF85 JUMP JUMPDEST PUSH2 0x249 PUSH2 0x3D3 CALLDATASIZE PUSH1 0x4 PUSH2 0x181F JUMP JUMPDEST PUSH2 0xFA0 JUMP JUMPDEST PUSH2 0x3EB PUSH2 0x3E6 CALLDATASIZE PUSH1 0x4 PUSH2 0x181F JUMP JUMPDEST PUSH2 0xFB2 JUMP JUMPDEST PUSH1 0x40 MLOAD PUSH2 0x1E9 SWAP5 SWAP4 SWAP3 SWAP2 SWAP1 PUSH2 0x1D13 JUMP JUMPDEST PUSH2 0x249 PUSH2 0x409 CALLDATASIZE PUSH1 0x4 PUSH2 0x1646 JUMP JUMPDEST PUSH2 0xFFF JUMP JUMPDEST PUSH2 0x421 PUSH2 0x41C CALLDATASIZE PUSH1 0x4 PUSH2 0x181F JUMP JUMPDEST PUSH2 0x1011 JUMP JUMPDEST PUSH1 0x40 MLOAD PUSH2 0x1E9 SWAP8 SWAP7 SWAP6 SWAP5 SWAP4 SWAP3 SWAP2 SWAP1 PUSH2 0x1C5B JUMP JUMPDEST POP PUSH1 0x0 SWAP1 JUMP JUMPDEST PUSH1 0x40 DUP1 MLOAD DUP1 DUP3 ADD SWAP1 SWAP2 MSTORE PUSH1 0x14 DUP2 MSTORE PUSH20 0x20BABA37A1B432B9B9902AB734BA102A37B5B2B7 PUSH1 0x61 SHL PUSH1 0x20 DUP3 ADD MSTORE SWAP1 JUMP JUMPDEST CALLER DUP3 DUP3 PUSH2 0x474 DUP2 PUSH2 0xA5C JUMP JUMPDEST PUSH1 0x1 PUSH1 0x1 PUSH1 0xA0 SHL SUB AND DUP4 PUSH1 0x1 PUSH1 0x1 PUSH1 0xA0 SHL SUB AND EQ PUSH2 0x4AD JUMPI PUSH1 0x40 MLOAD PUSH3 0x461BCD PUSH1 0xE5 SHL DUP2 MSTORE PUSH1 0x4 ADD PUSH2 0x4A4 SWAP1 PUSH2 0x1BD8 JUMP JUMPDEST PUSH1 0x40 MLOAD DUP1 SWAP2 SUB SWAP1 REVERT JUMPDEST DUP2 PUSH1 0x1 PUSH1 0x1 PUSH1 0xA0 SHL SUB AND DUP4 PUSH1 0x1 PUSH1 0x1 PUSH1 0xA0 SHL SUB AND EQ ISZERO PUSH2 0x4DF JUMPI PUSH1 0x40 MLOAD PUSH3 0x461BCD PUSH1 0xE5 SHL DUP2 MSTORE PUSH1 0x4 ADD PUSH2 0x4A4 SWAP1 PUSH2 0x1B29 JUMP JUMPDEST PUSH1 0x3 PUSH1 0x0 DUP3 DUP2 MSTORE PUSH1 0x9 PUSH1 0x20 MSTORE PUSH1 0x40 SWAP1 KECCAK256 SLOAD PUSH1 0xFF AND PUSH1 0x4 DUP2 GT ISZERO PUSH2 0x512 JUMPI PUSH4 0x4E487B71 PUSH1 0xE0 SHL PUSH1 0x0 MSTORE PUSH1 0x21 PUSH1 0x4 MSTORE PUSH1 0x24 PUSH1 0x0 REVERT JUMPDEST EQ PUSH2 0x52F JUMPI PUSH1 0x40 MLOAD PUSH3 0x461BCD PUSH1 0xE5 SHL DUP2 MSTORE PUSH1 0x4 ADD PUSH2 0x4A4 SWAP1 PUSH2 0x1C0F JUMP JUMPDEST PUSH1 0x1 PUSH1 0x1 PUSH1 0xA0 SHL SUB DUP3 AND PUSH2 0x555 JUMPI PUSH1 0x40 MLOAD PUSH3 0x461BCD PUSH1 0xE5 SHL DUP2 MSTORE PUSH1 0x4 ADD PUSH2 0x4A4 SWAP1 PUSH2 0x1B60 JUMP JUMPDEST PUSH1 0x0 DUP5 DUP2 MSTORE PUSH1 0x8 PUSH1 0x20 SWAP1 DUP2 MSTORE PUSH1 0x40 DUP1 DUP4 KECCAK256 DUP1 SLOAD PUSH1 0x1 PUSH1 0x1 PUSH1 0xA0 SHL SUB DUP11 AND PUSH1 0x1 PUSH1 0x1 PUSH1 0xA0 SHL SUB NOT SWAP1 SWAP2 AND OR SWAP1 SSTORE PUSH1 0x9 SWAP1 SWAP2 MSTORE SWAP1 DUP2 SWAP1 KECCAK256 DUP1 SLOAD PUSH1 0xFF NOT AND PUSH1 0x4 OR SWAP1 SSTORE MLOAD PUSH32 0x8C5BE1E5EBEC7D5BD14F71427D1E84F3DD0314C0F7B2291E5B200AC8C7C3B925 SWAP1 PUSH2 0x5C7 SWAP1 CALLER SWAP1 DUP9 SWAP1 DUP9 SWAP1 PUSH2 0x1934 JUMP JUMPDEST PUSH1 0x40 MLOAD DUP1 SWAP2 SUB SWAP1 LOG1 POP POP POP POP POP JUMP JUMPDEST PUSH1 0xE DUP2 DUP2 SLOAD DUP2 LT PUSH2 0x5E6 JUMPI PUSH1 0x0 DUP1 REVERT JUMPDEST PUSH1 0x0 SWAP2 DUP3 MSTORE PUSH1 0x20 SWAP1 SWAP2 KECCAK256 PUSH1 0x7 SWAP1 SWAP2 MUL ADD DUP1 SLOAD PUSH1 0x2 DUP3 ADD SLOAD PUSH1 0x3 DUP4 ADD SLOAD PUSH1 0x4 DUP5 ADD DUP1 SLOAD SWAP4 SWAP6 POP PUSH1 0x1 PUSH1 0x1 PUSH1 0xA0 SHL SUB SWAP3 DUP4 AND SWAP5 SWAP3 SWAP1 SWAP2 AND SWAP3 PUSH2 0x625 SWAP1 PUSH2 0x1D79 JUMP JUMPDEST DUP1 PUSH1 0x1F ADD PUSH1 0x20 DUP1 SWAP2 DIV MUL PUSH1 0x20 ADD PUSH1 0x40 MLOAD SWAP1 DUP2 ADD PUSH1 0x40 MSTORE DUP1 SWAP3 SWAP2 SWAP1 DUP2 DUP2 MSTORE PUSH1 0x20 ADD DUP3 DUP1 SLOAD PUSH2 0x651 SWAP1 PUSH2 0x1D79 JUMP JUMPDEST DUP1 ISZERO PUSH2 0x69E JUMPI DUP1 PUSH1 0x1F LT PUSH2 0x673 JUMPI PUSH2 0x100 DUP1 DUP4 SLOAD DIV MUL DUP4 MSTORE SWAP2 PUSH1 0x20 ADD SWAP2 PUSH2 0x69E JUMP JUMPDEST DUP3 ADD SWAP2 SWAP1 PUSH1 0x0 MSTORE PUSH1 0x20 PUSH1 0x0 KECCAK256 SWAP1 JUMPDEST DUP2 SLOAD DUP2 MSTORE SWAP1 PUSH1 0x1 ADD SWAP1 PUSH1 0x20 ADD DUP1 DUP4 GT PUSH2 0x681 JUMPI DUP3 SWAP1 SUB PUSH1 0x1F AND DUP3 ADD SWAP2 JUMPDEST POP POP POP POP POP SWAP1 DUP1 PUSH1 0x5 ADD DUP1 SLOAD PUSH2 0x6B3 SWAP1 PUSH2 0x1D79 JUMP JUMPDEST DUP1 PUSH1 0x1F ADD PUSH1 0x20 DUP1 SWAP2 DIV MUL PUSH1 0x20 ADD PUSH1 0x40 MLOAD SWAP1 DUP2 ADD PUSH1 0x40 MSTORE DUP1 SWAP3 SWAP2 SWAP1 DUP2 DUP2 MSTORE PUSH1 0x20 ADD DUP3 DUP1 SLOAD PUSH2 0x6DF SWAP1 PUSH2 0x1D79 JUMP JUMPDEST DUP1 ISZERO PUSH2 0x72C JUMPI DUP1 PUSH1 0x1F LT PUSH2 0x701 JUMPI PUSH2 0x100 DUP1 DUP4 SLOAD DIV MUL DUP4 MSTORE SWAP2 PUSH1 0x20 ADD SWAP2 PUSH2 0x72C JUMP JUMPDEST DUP3 ADD SWAP2 SWAP1 PUSH1 0x0 MSTORE PUSH1 0x20 PUSH1 0x0 KECCAK256 SWAP1 JUMPDEST DUP2 SLOAD DUP2 MSTORE SWAP1 PUSH1 0x1 ADD SWAP1 PUSH1 0x20 ADD DUP1 DUP4 GT PUSH2 0x70F JUMPI DUP3 SWAP1 SUB PUSH1 0x1F AND DUP3 ADD SWAP2 JUMPDEST POP POP POP POP POP SWAP1 DUP1 PUSH1 0x6 ADD SLOAD SWAP1 POP DUP7 JUMP JUMPDEST PUSH1 0xB SLOAD SWAP1 JUMP JUMPDEST DUP3 DUP3 DUP3 PUSH2 0x74E DUP2 PUSH2 0xA5C JUMP JUMPDEST PUSH1 0x1 PUSH1 0x1 PUSH1 0xA0 SHL SUB AND DUP4 PUSH1 0x1 PUSH1 0x1 PUSH1 0xA0 SHL SUB AND EQ PUSH2 0x77E JUMPI PUSH1 0x40 MLOAD PUSH3 0x461BCD PUSH1 0xE5 SHL DUP2 MSTORE PUSH1 0x4 ADD PUSH2 0x4A4 SWAP1 PUSH2 0x1BD8 JUMP JUMPDEST DUP2 PUSH1 0x1 PUSH1 0x1 PUSH1 0xA0 SHL SUB AND DUP4 PUSH1 0x1 PUSH1 0x1 PUSH1 0xA0 SHL SUB AND EQ ISZERO PUSH2 0x7B0 JUMPI PUSH1 0x40 MLOAD PUSH3 0x461BCD PUSH1 0xE5 SHL DUP2 MSTORE PUSH1 0x4 ADD PUSH2 0x4A4 SWAP1 PUSH2 0x1B29 JUMP JUMPDEST PUSH1 0x3 PUSH1 0x0 DUP3 DUP2 MSTORE PUSH1 0x9 PUSH1 0x20 MSTORE PUSH1 0x40 SWAP1 KECCAK256 SLOAD PUSH1 0xFF AND PUSH1 0x4 DUP2 GT ISZERO PUSH2 0x7E3 JUMPI PUSH4 0x4E487B71 PUSH1 0xE0 SHL PUSH1 0x0 MSTORE PUSH1 0x21 PUSH1 0x4 MSTORE PUSH1 0x24 PUSH1 0x0 REVERT JUMPDEST EQ PUSH2 0x800 JUMPI PUSH1 0x40 MLOAD PUSH3 0x461BCD PUSH1 0xE5 SHL DUP2 MSTORE PUSH1 0x4 ADD PUSH2 0x4A4 SWAP1 PUSH2 0x1C0F JUMP JUMPDEST PUSH1 0x1 PUSH1 0x1 PUSH1 0xA0 SHL SUB DUP3 AND PUSH2 0x826 JUMPI PUSH1 0x40 MLOAD PUSH3 0x461BCD PUSH1 0xE5 SHL DUP2 MSTORE PUSH1 0x4 ADD PUSH2 0x4A4 SWAP1 PUSH2 0x1B60 JUMP JUMPDEST PUSH1 0x0 DUP5 DUP2 MSTORE PUSH1 0x8 PUSH1 0x20 MSTORE PUSH1 0x40 SWAP1 KECCAK256 SLOAD PUSH1 0x1 PUSH1 0x1 PUSH1 0xA0 SHL SUB DUP7 DUP2 AND SWAP2 AND EQ PUSH2 0x85F JUMPI PUSH1 0x40 MLOAD PUSH3 0x461BCD PUSH1 0xE5 SHL DUP2 MSTORE PUSH1 0x4 ADD PUSH2 0x4A4 SWAP1 PUSH2 0x1B97 JUMP JUMPDEST PUSH2 0x86A DUP7 DUP7 DUP7 PUSH2 0x110B JUMP JUMPDEST POP POP POP POP POP POP JUMP JUMPDEST PUSH1 0x0 PUSH2 0x8AC CALLER DUP4 PUSH1 0x40 MLOAD DUP1 PUSH1 0x40 ADD PUSH1 0x40 MSTORE DUP1 PUSH1 0x15 DUP2 MSTORE PUSH1 0x20 ADD PUSH21 0x4D6175726963652C20746865204D6564696F637265 PUSH1 0x58 SHL DUP2 MSTORE POP PUSH2 0x11E8 JUMP JUMPDEST SWAP1 POP JUMPDEST SWAP2 SWAP1 POP JUMP JUMPDEST PUSH1 0x6 PUSH1 0x20 MSTORE PUSH1 0x0 SWAP1 DUP2 MSTORE PUSH1 0x40 SWAP1 KECCAK256 SLOAD PUSH1 0x1 PUSH1 0x1 PUSH1 0xA0 SHL SUB AND DUP2 JUMP JUMPDEST PUSH1 0x0 DUP1 JUMPDEST DUP6 DUP2 LT ISZERO PUSH2 0x91D JUMPI PUSH2 0x90B CALLER DUP9 DUP9 DUP5 DUP2 DUP2 LT PUSH2 0x8FF JUMPI PUSH4 0x4E487B71 PUSH1 0xE0 SHL PUSH1 0x0 MSTORE PUSH1 0x32 PUSH1 0x4 MSTORE PUSH1 0x24 PUSH1 0x0 REVERT JUMPDEST SWAP1 POP PUSH1 0x20 MUL ADD CALLDATALOAD PUSH2 0x1460 JUMP JUMPDEST DUP1 PUSH2 0x915 DUP2 PUSH2 0x1DB4 JUMP JUMPDEST SWAP2 POP POP PUSH2 0x8D3 JUMP JUMPDEST POP PUSH1 0x40 MLOAD PUSH4 0x5A6614B3 PUSH1 0xE1 SHL DUP2 MSTORE PUSH20 0x0 SWAP1 PUSH4 0xB4CC2966 SWAP1 PUSH2 0x960 SWAP1 PUSH1 0xE SWAP1 DUP11 SWAP1 DUP11 SWAP1 DUP11 SWAP1 DUP11 SWAP1 DUP11 SWAP1 PUSH1 0x4 ADD PUSH2 0x1971 JUMP JUMPDEST PUSH1 0x20 PUSH1 0x40 MLOAD DUP1 DUP4 SUB DUP2 DUP7 DUP1 EXTCODESIZE ISZERO DUP1 ISZERO PUSH2 0x978 JUMPI PUSH1 0x0 DUP1 REVERT JUMPDEST POP GAS DELEGATECALL ISZERO DUP1 ISZERO PUSH2 0x98C JUMPI RETURNDATASIZE PUSH1 0x0 DUP1 RETURNDATACOPY RETURNDATASIZE PUSH1 0x0 REVERT JUMPDEST POP POP POP POP PUSH1 0x40 MLOAD RETURNDATASIZE PUSH1 0x1F NOT PUSH1 0x1F DUP3 ADD AND DUP3 ADD DUP1 PUSH1 0x40 MSTORE POP DUP2 ADD SWAP1 PUSH2 0x9B0 SWAP2 SWAP1 PUSH2 0x1837 JUMP JUMPDEST SWAP7 SWAP6 POP POP POP POP POP POP JUMP JUMPDEST PUSH1 0xE DUP3 DUP2 SLOAD DUP2 LT PUSH2 0x9DB JUMPI PUSH4 0x4E487B71 PUSH1 0xE0 SHL PUSH1 0x0 MSTORE PUSH1 0x32 PUSH1 0x4 MSTORE PUSH1 0x24 PUSH1 0x0 REVERT JUMPDEST PUSH1 0x0 SWAP2 DUP3 MSTORE PUSH1 0x20 SWAP1 SWAP2 KECCAK256 PUSH1 0xD SLOAD PUSH1 0x40 MLOAD PUSH4 0x385B5433 PUSH1 0xE2 SHL DUP2 MSTORE PUSH20 0x0 SWAP4 PUSH4 0xE16D50CC SWAP4 PUSH2 0xA30 SWAP4 PUSH1 0x7 SWAP1 SWAP3 MUL ADD SWAP2 DUP7 SWAP2 PUSH1 0x1 PUSH1 0x1 PUSH1 0xA0 SHL SUB AND SWAP1 PUSH1 0x4 ADD PUSH2 0x1C3C JUMP JUMPDEST PUSH1 0x0 PUSH1 0x40 MLOAD DUP1 DUP4 SUB DUP2 DUP7 DUP1 EXTCODESIZE ISZERO DUP1 ISZERO PUSH2 0xA48 JUMPI PUSH1 0x0 DUP1 REVERT JUMPDEST POP GAS DELEGATECALL ISZERO DUP1 ISZERO PUSH2 0x86A JUMPI RETURNDATASIZE PUSH1 0x0 DUP1 RETURNDATACOPY RETURNDATASIZE PUSH1 0x0 REVERT JUMPDEST PUSH1 0x0 SWAP1 DUP2 MSTORE PUSH1 0x5 PUSH1 0x20 MSTORE PUSH1 0x40 SWAP1 KECCAK256 SLOAD PUSH1 0x1 PUSH1 0x1 PUSH1 0xA0 SHL SUB AND SWAP1 JUMP JUMPDEST PUSH1 0x1 PUSH1 0x1 PUSH1 0xA0 SHL SUB AND PUSH1 0x0 SWAP1 DUP2 MSTORE PUSH1 0x7 PUSH1 0x20 MSTORE PUSH1 0x40 SWAP1 KECCAK256 SLOAD SWAP1 JUMP JUMPDEST PUSH1 0xE DUP5 DUP2 SLOAD DUP2 LT PUSH2 0xAB3 JUMPI PUSH4 0x4E487B71 PUSH1 0xE0 SHL PUSH1 0x0 MSTORE PUSH1 0x32 PUSH1 0x4 MSTORE PUSH1 0x24 PUSH1 0x0 REVERT JUMPDEST PUSH1 0x0 SWAP2 DUP3 MSTORE PUSH1 0x20 SWAP1 SWAP2 KECCAK256 PUSH1 0xD SLOAD PUSH1 0x40 MLOAD PUSH4 0x385B5433 PUSH1 0xE2 SHL DUP2 MSTORE PUSH20 0x0 SWAP4 PUSH4 0xE16D50CC SWAP4 PUSH2 0xB08 SWAP4 PUSH1 0x7 SWAP1 SWAP3 MUL ADD SWAP2 DUP9 SWAP2 PUSH1 0x1 PUSH1 0x1 PUSH1 0xA0 SHL SUB AND SWAP1 PUSH1 0x4 ADD PUSH2 0x1C3C JUMP JUMPDEST PUSH1 0x0 PUSH1 0x40 MLOAD DUP1 DUP4 SUB DUP2 DUP7 DUP1 EXTCODESIZE ISZERO DUP1 ISZERO PUSH2 0xB20 JUMPI PUSH1 0x0 DUP1 REVERT JUMPDEST POP GAS DELEGATECALL ISZERO DUP1 ISZERO PUSH2 0xB34 JUMPI RETURNDATASIZE PUSH1 0x0 DUP1 RETURNDATACOPY RETURNDATASIZE PUSH1 0x0 REVERT JUMPDEST POP POP POP POP DUP2 DUP2 PUSH1 0xE DUP7 DUP2 SLOAD DUP2 LT PUSH2 0xB5B JUMPI PUSH4 0x4E487B71 PUSH1 0xE0 SHL PUSH1 0x0 MSTORE PUSH1 0x32 PUSH1 0x4 MSTORE PUSH1 0x24 PUSH1 0x0 REVERT JUMPDEST SWAP1 PUSH1 0x0 MSTORE PUSH1 0x20 PUSH1 0x0 KECCAK256 SWAP1 PUSH1 0x7 MUL ADD PUSH1 0x5 ADD SWAP2 SWAP1 PUSH2 0xB79 SWAP3 SWAP2 SWAP1 PUSH2 0x1540 JUMP JUMPDEST POP POP POP POP POP JUMP JUMPDEST PUSH1 0x1 PUSH1 0x1 PUSH1 0xA0 SHL SUB DUP2 AND PUSH1 0x0 SWAP1 DUP2 MSTORE PUSH1 0xA PUSH1 0x20 SWAP1 DUP2 MSTORE PUSH1 0x40 SWAP2 DUP3 SWAP1 KECCAK256 DUP1 SLOAD DUP4 MLOAD DUP2 DUP5 MUL DUP2 ADD DUP5 ADD SWAP1 SWAP5 MSTORE DUP1 DUP5 MSTORE PUSH1 0x60 SWAP4 SWAP3 DUP4 ADD DUP3 DUP3 DUP1 ISZERO PUSH2 0xBE0 JUMPI PUSH1 0x20 MUL DUP3 ADD SWAP2 SWAP1 PUSH1 0x0 MSTORE PUSH1 0x20 PUSH1 0x0 KECCAK256 SWAP1 JUMPDEST DUP2 SLOAD DUP2 MSTORE PUSH1 0x20 ADD SWAP1 PUSH1 0x1 ADD SWAP1 DUP1 DUP4 GT PUSH2 0xBCC JUMPI JUMPDEST POP POP POP POP POP SWAP1 POP SWAP2 SWAP1 POP JUMP JUMPDEST PUSH1 0xA PUSH1 0x20 MSTORE DUP2 PUSH1 0x0 MSTORE PUSH1 0x40 PUSH1 0x0 KECCAK256 DUP2 DUP2 SLOAD DUP2 LT PUSH2 0xC08 JUMPI PUSH1 0x0 DUP1 REVERT JUMPDEST SWAP1 PUSH1 0x0 MSTORE PUSH1 0x20 PUSH1 0x0 KECCAK256 ADD PUSH1 0x0 SWAP2 POP SWAP2 POP POP SLOAD DUP2 JUMP JUMPDEST PUSH1 0x0 PUSH2 0xC60 CALLER DUP6 DUP6 DUP6 DUP1 DUP1 PUSH1 0x1F ADD PUSH1 0x20 DUP1 SWAP2 DIV MUL PUSH1 0x20 ADD PUSH1 0x40 MLOAD SWAP1 DUP2 ADD PUSH1 0x40 MSTORE DUP1 SWAP4 SWAP3 SWAP2 SWAP1 DUP2 DUP2 MSTORE PUSH1 0x20 ADD DUP4 DUP4 DUP1 DUP3 DUP5 CALLDATACOPY PUSH1 0x0 SWAP3 ADD SWAP2 SWAP1 SWAP2 MSTORE POP PUSH2 0x11E8 SWAP3 POP POP POP JUMP JUMPDEST SWAP5 SWAP4 POP POP POP POP JUMP JUMPDEST PUSH1 0x40 DUP1 MLOAD DUP1 DUP3 ADD SWAP1 SWAP2 MSTORE PUSH1 0x6 DUP2 MSTORE PUSH6 0x414348535355 PUSH1 0xD0 SHL PUSH1 0x20 DUP3 ADD MSTORE SWAP1 JUMP JUMPDEST PUSH1 0xD SLOAD PUSH1 0x1 PUSH1 0x1 PUSH1 0xA0 SHL SUB AND DUP2 JUMP JUMPDEST PUSH1 0x9 PUSH1 0x20 MSTORE PUSH1 0x0 SWAP1 DUP2 MSTORE PUSH1 0x40 SWAP1 KECCAK256 SLOAD PUSH1 0xFF AND DUP2 JUMP JUMPDEST CALLER DUP3 DUP3 PUSH2 0xCB8 DUP2 PUSH2 0xA5C JUMP JUMPDEST PUSH1 0x1 PUSH1 0x1 PUSH1 0xA0 SHL SUB AND DUP4 PUSH1 0x1 PUSH1 0x1 PUSH1 0xA0 SHL SUB AND EQ PUSH2 0xCE8 JUMPI PUSH1 0x40 MLOAD PUSH3 0x461BCD PUSH1 0xE5 SHL DUP2 MSTORE PUSH1 0x4 ADD PUSH2 0x4A4 SWAP1 PUSH2 0x1BD8 JUMP JUMPDEST DUP2 PUSH1 0x1 PUSH1 0x1 PUSH1 0xA0 SHL SUB AND DUP4 PUSH1 0x1 PUSH1 0x1 PUSH1 0xA0 SHL SUB AND EQ ISZERO PUSH2 0xD1A JUMPI PUSH1 0x40 MLOAD PUSH3 0x461BCD PUSH1 0xE5 SHL DUP2 MSTORE PUSH1 0x4 ADD PUSH2 0x4A4 SWAP1 PUSH2 0x1B29 JUMP JUMPDEST PUSH1 0x3 PUSH1 0x0 DUP3 DUP2 MSTORE PUSH1 0x9 PUSH1 0x20 MSTORE PUSH1 0x40 SWAP1 KECCAK256 SLOAD PUSH1 0xFF AND PUSH1 0x4 DUP2 GT ISZERO PUSH2 0xD4D JUMPI PUSH4 0x4E487B71 PUSH1 0xE0 SHL PUSH1 0x0 MSTORE PUSH1 0x21 PUSH1 0x4 MSTORE PUSH1 0x24 PUSH1 0x0 REVERT JUMPDEST EQ PUSH2 0xD6A JUMPI PUSH1 0x40 MLOAD PUSH3 0x461BCD PUSH1 0xE5 SHL DUP2 MSTORE PUSH1 0x4 ADD PUSH2 0x4A4 SWAP1 PUSH2 0x1C0F JUMP JUMPDEST PUSH1 0x1 PUSH1 0x1 PUSH1 0xA0 SHL SUB DUP3 AND PUSH2 0xD90 JUMPI PUSH1 0x40 MLOAD PUSH3 0x461BCD PUSH1 0xE5 SHL DUP2 MSTORE PUSH1 0x4 ADD PUSH2 0x4A4 SWAP1 PUSH2 0x1B60 JUMP JUMPDEST PUSH2 0xB79 CALLER DUP7 DUP7 PUSH2 0x110B JUMP JUMPDEST PUSH1 0x8 PUSH1 0x20 MSTORE PUSH1 0x0 SWAP1 DUP2 MSTORE PUSH1 0x40 SWAP1 KECCAK256 SLOAD PUSH1 0x1 PUSH1 0x1 PUSH1 0xA0 SHL SUB AND DUP2 JUMP JUMPDEST PUSH1 0x0 CALLER PUSH1 0x1 PUSH1 0x1 PUSH1 0xA0 SHL SUB AND PUSH1 0xE DUP4 DUP2 SLOAD DUP2 LT PUSH2 0xDE3 JUMPI PUSH4 0x4E487B71 PUSH1 0xE0 SHL PUSH1 0x0 MSTORE PUSH1 0x32 PUSH1 0x4 MSTORE PUSH1 0x24 PUSH1 0x0 REVERT JUMPDEST PUSH1 0x0 SWAP2 DUP3 MSTORE PUSH1 0x20 SWAP1 SWAP2 KECCAK256 PUSH1 0x3 PUSH1 0x7 SWAP1 SWAP3 MUL ADD ADD SLOAD PUSH1 0x1 PUSH1 0x1 PUSH1 0xA0 SHL SUB AND EQ PUSH2 0xE1D JUMPI PUSH1 0x40 MLOAD PUSH3 0x461BCD PUSH1 0xE5 SHL DUP2 MSTORE PUSH1 0x4 ADD PUSH2 0x4A4 SWAP1 PUSH2 0x1AE4 JUMP JUMPDEST TIMESTAMP PUSH1 0xE DUP4 DUP2 SLOAD DUP2 LT PUSH2 0xE3F JUMPI PUSH4 0x4E487B71 PUSH1 0xE0 SHL PUSH1 0x0 MSTORE PUSH1 0x32 PUSH1 0x4 MSTORE PUSH1 0x24 PUSH1 0x0 REVERT JUMPDEST SWAP1 PUSH1 0x0 MSTORE PUSH1 0x20 PUSH1 0x0 KECCAK256 SWAP1 PUSH1 0x7 MUL ADD PUSH1 0x6 ADD SLOAD GT PUSH2 0xE6E JUMPI PUSH1 0x40 MLOAD PUSH3 0x461BCD PUSH1 0xE5 SHL DUP2 MSTORE PUSH1 0x4 ADD PUSH2 0x4A4 SWAP1 PUSH2 0x1A9C JUMP JUMPDEST PUSH1 0xD SLOAD PUSH1 0xE DUP1 SLOAD PUSH1 0x1 PUSH1 0x1 PUSH1 0xA0 SHL SUB SWAP1 SWAP3 AND SWAP2 PUSH4 0x535B6773 SWAP2 SWAP1 DUP6 SWAP1 DUP2 LT PUSH2 0xEA6 JUMPI PUSH4 0x4E487B71 PUSH1 0xE0 SHL PUSH1 0x0 MSTORE PUSH1 0x32 PUSH1 0x4 MSTORE PUSH1 0x24 PUSH1 0x0 REVERT JUMPDEST SWAP1 PUSH1 0x0 MSTORE PUSH1 0x20 PUSH1 0x0 KECCAK256 SWAP1 PUSH1 0x7 MUL ADD PUSH1 0x2 ADD PUSH1 0x0 SWAP1 SLOAD SWAP1 PUSH2 0x100 EXP SWAP1 DIV PUSH1 0x1 PUSH1 0x1 PUSH1 0xA0 SHL SUB AND PUSH1 0xE DUP6 DUP2 SLOAD DUP2 LT PUSH2 0xEEC JUMPI PUSH4 0x4E487B71 PUSH1 0xE0 SHL PUSH1 0x0 MSTORE PUSH1 0x32 PUSH1 0x4 MSTORE PUSH1 0x24 PUSH1 0x0 REVERT JUMPDEST SWAP1 PUSH1 0x0 MSTORE PUSH1 0x20 PUSH1 0x0 KECCAK256 SWAP1 PUSH1 0x7 MUL ADD PUSH1 0x0 ADD SLOAD PUSH1 0x40 MLOAD DUP4 PUSH4 0xFFFFFFFF AND PUSH1 0xE0 SHL DUP2 MSTORE PUSH1 0x4 ADD PUSH2 0xF1B SWAP3 SWAP2 SWAP1 PUSH2 0x1958 JUMP JUMPDEST PUSH1 0x20 PUSH1 0x40 MLOAD DUP1 DUP4 SUB DUP2 PUSH1 0x0 DUP8 DUP1 EXTCODESIZE ISZERO DUP1 ISZERO PUSH2 0xF35 JUMPI PUSH1 0x0 DUP1 REVERT JUMPDEST POP GAS CALL ISZERO DUP1 ISZERO PUSH2 0xF49 JUMPI RETURNDATASIZE PUSH1 0x0 DUP1 RETURNDATACOPY RETURNDATASIZE PUSH1 0x0 REVERT JUMPDEST POP POP POP POP PUSH1 0x40 MLOAD RETURNDATASIZE PUSH1 0x1F NOT PUSH1 0x1F DUP3 ADD AND DUP3 ADD DUP1 PUSH1 0x40 MSTORE POP DUP2 ADD SWAP1 PUSH2 0xF6D SWAP2 SWAP1 PUSH2 0x176C JUMP JUMPDEST POP PUSH1 0x1 SWAP3 SWAP2 POP POP JUMP JUMPDEST PUSH1 0xC SLOAD PUSH1 0x1 PUSH1 0x1 PUSH1 0xA0 SHL SUB AND DUP2 JUMP JUMPDEST PUSH1 0x5 PUSH1 0x20 MSTORE PUSH1 0x0 SWAP1 DUP2 MSTORE PUSH1 0x40 SWAP1 KECCAK256 SLOAD PUSH1 0x1 PUSH1 0x1 PUSH1 0xA0 SHL SUB AND DUP2 JUMP JUMPDEST PUSH1 0x4 PUSH1 0x20 MSTORE PUSH1 0x0 SWAP1 DUP2 MSTORE PUSH1 0x40 SWAP1 KECCAK256 SLOAD DUP2 JUMP JUMPDEST PUSH1 0x1 DUP2 DUP2 SLOAD DUP2 LT PUSH2 0xFC2 JUMPI PUSH1 0x0 DUP1 REVERT JUMPDEST PUSH1 0x0 SWAP2 DUP3 MSTORE PUSH1 0x20 SWAP1 SWAP2 KECCAK256 PUSH1 0x1 PUSH1 0x2 SWAP1 SWAP3 MUL ADD ADD SLOAD PUSH1 0xFF DUP1 DUP3 AND SWAP3 POP PUSH2 0xFFFF PUSH2 0x100 DUP4 DIV DUP2 AND SWAP3 PUSH4 0x1000000 DUP2 DIV SWAP1 SWAP3 AND SWAP2 PUSH5 0x100000000 SWAP1 DIV AND DUP5 JUMP JUMPDEST PUSH1 0x7 PUSH1 0x20 MSTORE PUSH1 0x0 SWAP1 DUP2 MSTORE PUSH1 0x40 SWAP1 KECCAK256 SLOAD DUP2 JUMP JUMPDEST PUSH1 0x0 DUP2 DUP2 SLOAD DUP2 LT PUSH2 0x1021 JUMPI PUSH1 0x0 DUP1 REVERT JUMPDEST PUSH1 0x0 SWAP2 DUP3 MSTORE PUSH1 0x20 SWAP1 SWAP2 KECCAK256 PUSH1 0x2 SWAP1 SWAP2 MUL ADD DUP1 SLOAD PUSH1 0x1 DUP3 ADD DUP1 SLOAD PUSH2 0xFFFF DUP1 DUP5 AND SWAP6 POP PUSH3 0x10000 DUP5 DIV DUP2 AND SWAP5 PUSH5 0x100000000 DUP6 DIV DUP3 AND SWAP5 PUSH7 0x1000000000000 DUP2 DIV DUP4 AND SWAP5 PUSH9 0x10000000000000000 DUP3 DIV SWAP1 SWAP4 AND SWAP4 PUSH1 0x1 PUSH1 0x50 SHL SWAP1 SWAP2 DIV PUSH1 0xFF AND SWAP3 SWAP1 PUSH2 0x1088 SWAP1 PUSH2 0x1D79 JUMP JUMPDEST DUP1 PUSH1 0x1F ADD PUSH1 0x20 DUP1 SWAP2 DIV MUL PUSH1 0x20 ADD PUSH1 0x40 MLOAD SWAP1 DUP2 ADD PUSH1 0x40 MSTORE DUP1 SWAP3 SWAP2 SWAP1 DUP2 DUP2 MSTORE PUSH1 0x20 ADD DUP3 DUP1 SLOAD PUSH2 0x10B4 SWAP1 PUSH2 0x1D79 JUMP JUMPDEST DUP1 ISZERO PUSH2 0x1101 JUMPI DUP1 PUSH1 0x1F LT PUSH2 0x10D6 JUMPI PUSH2 0x100 DUP1 DUP4 SLOAD DIV MUL DUP4 MSTORE SWAP2 PUSH1 0x20 ADD SWAP2 PUSH2 0x1101 JUMP JUMPDEST DUP3 ADD SWAP2 SWAP1 PUSH1 0x0 MSTORE PUSH1 0x20 PUSH1 0x0 KECCAK256 SWAP1 JUMPDEST DUP2 SLOAD DUP2 MSTORE SWAP1 PUSH1 0x1 ADD SWAP1 PUSH1 0x20 ADD DUP1 DUP4 GT PUSH2 0x10E4 JUMPI DUP3 SWAP1 SUB PUSH1 0x1F AND DUP3 ADD SWAP2 JUMPDEST POP POP POP POP POP SWAP1 POP DUP8 JUMP JUMPDEST PUSH1 0x1 PUSH1 0x1 PUSH1 0xA0 SHL SUB DUP4 AND PUSH1 0x0 SWAP1 DUP2 MSTORE PUSH1 0x7 PUSH1 0x20 MSTORE PUSH1 0x40 DUP2 KECCAK256 DUP1 SLOAD PUSH1 0x1 SWAP3 SWAP1 PUSH2 0x1134 SWAP1 DUP5 SWAP1 PUSH2 0x1D62 JUMP JUMPDEST SWAP1 SWAP2 SSTORE POP POP PUSH1 0x0 DUP2 DUP2 MSTORE PUSH1 0x5 PUSH1 0x20 SWAP1 DUP2 MSTORE PUSH1 0x40 DUP1 DUP4 KECCAK256 DUP1 SLOAD PUSH1 0x1 PUSH1 0x1 PUSH1 0xA0 SHL SUB NOT SWAP1 DUP2 AND PUSH1 0x1 PUSH1 0x1 PUSH1 0xA0 SHL SUB DUP9 AND SWAP1 DUP2 OR SWAP1 SWAP3 SSTORE PUSH1 0x8 DUP5 MSTORE DUP3 DUP6 KECCAK256 DUP1 SLOAD SWAP1 SWAP2 AND SWAP1 SSTORE PUSH1 0x9 DUP4 MSTORE DUP2 DUP5 KECCAK256 DUP1 SLOAD PUSH1 0xFF NOT AND PUSH1 0x3 OR SWAP1 SSTORE DUP4 MSTORE PUSH1 0x7 SWAP1 SWAP2 MSTORE DUP2 KECCAK256 DUP1 SLOAD PUSH1 0x1 SWAP3 SWAP1 PUSH2 0x11A2 SWAP1 DUP5 SWAP1 PUSH2 0x1D4A JUMP JUMPDEST SWAP1 SWAP2 SSTORE POP POP PUSH1 0x40 MLOAD PUSH32 0xDDF252AD1BE2C89B69C2B068FC378DAA952BA7F163C4A11628F55A4DF523B3EF SWAP1 PUSH2 0x11DB SWAP1 DUP6 SWAP1 DUP6 SWAP1 DUP6 SWAP1 PUSH2 0x1934 JUMP JUMPDEST PUSH1 0x40 MLOAD DUP1 SWAP2 SUB SWAP1 LOG1 POP POP POP JUMP JUMPDEST PUSH1 0x0 DUP1 DUP4 PUSH1 0x2 DUP2 GT ISZERO PUSH2 0x120B JUMPI PUSH4 0x4E487B71 PUSH1 0xE0 SHL PUSH1 0x0 MSTORE PUSH1 0x21 PUSH1 0x4 MSTORE PUSH1 0x24 PUSH1 0x0 REVERT JUMPDEST PUSH1 0x40 MLOAD PUSH4 0xB9BF30A5 PUSH1 0xE0 SHL DUP2 MSTORE PUSH20 0x0 SWAP2 PUSH4 0xB9BF30A5 SWAP2 PUSH2 0x1241 SWAP2 SWAP1 PUSH1 0x4 ADD PUSH2 0x1A75 JUMP JUMPDEST PUSH1 0x20 PUSH1 0x40 MLOAD DUP1 DUP4 SUB DUP2 DUP7 DUP1 EXTCODESIZE ISZERO DUP1 ISZERO PUSH2 0x1259 JUMPI PUSH1 0x0 DUP1 REVERT JUMPDEST POP GAS DELEGATECALL ISZERO DUP1 ISZERO PUSH2 0x126D JUMPI RETURNDATASIZE PUSH1 0x0 DUP1 RETURNDATACOPY RETURNDATASIZE PUSH1 0x0 REVERT JUMPDEST POP POP POP POP PUSH1 0x40 MLOAD RETURNDATASIZE PUSH1 0x1F NOT PUSH1 0x1F DUP3 ADD AND DUP3 ADD DUP1 PUSH1 0x40 MSTORE POP DUP2 ADD SWAP1 PUSH2 0x1291 SWAP2 SWAP1 PUSH2 0x1837 JUMP JUMPDEST PUSH1 0xD SLOAD PUSH1 0x40 MLOAD PUSH4 0xAF7D6CA3 PUSH1 0xE0 SHL DUP2 MSTORE SWAP2 SWAP3 POP PUSH1 0x1 PUSH1 0x1 PUSH1 0xA0 SHL SUB AND SWAP1 PUSH4 0xAF7D6CA3 SWAP1 PUSH2 0x12C4 SWAP1 DUP9 SWAP1 DUP6 SWAP1 PUSH1 0x4 ADD PUSH2 0x1958 JUMP JUMPDEST PUSH1 0x20 PUSH1 0x40 MLOAD DUP1 DUP4 SUB DUP2 PUSH1 0x0 DUP8 DUP1 EXTCODESIZE ISZERO DUP1 ISZERO PUSH2 0x12DE JUMPI PUSH1 0x0 DUP1 REVERT JUMPDEST POP GAS CALL ISZERO DUP1 ISZERO PUSH2 0x12F2 JUMPI RETURNDATASIZE PUSH1 0x0 DUP1 RETURNDATACOPY RETURNDATASIZE PUSH1 0x0 REVERT JUMPDEST POP POP POP POP PUSH1 0x40 MLOAD RETURNDATASIZE PUSH1 0x1F NOT PUSH1 0x1F DUP3 ADD AND DUP3 ADD DUP1 PUSH1 0x40 MSTORE POP DUP2 ADD SWAP1 PUSH2 0x1316 SWAP2 SWAP1 PUSH2 0x176C JUMP JUMPDEST POP PUSH1 0x40 MLOAD PUSH4 0xEE28668D PUSH1 0xE0 SHL DUP2 MSTORE PUSH20 0x0 SWAP1 PUSH4 0xEE28668D SWAP1 PUSH2 0x1356 SWAP1 PUSH1 0x0 SWAP1 PUSH1 0x9 SWAP1 DUP10 SWAP1 DUP10 SWAP1 PUSH1 0x4 ADD PUSH2 0x19E7 JUMP JUMPDEST PUSH1 0x20 PUSH1 0x40 MLOAD DUP1 DUP4 SUB DUP2 DUP7 DUP1 EXTCODESIZE ISZERO DUP1 ISZERO PUSH2 0x136E JUMPI PUSH1 0x0 DUP1 REVERT JUMPDEST POP GAS DELEGATECALL ISZERO DUP1 ISZERO PUSH2 0x1382 JUMPI RETURNDATASIZE PUSH1 0x0 DUP1 RETURNDATACOPY RETURNDATASIZE PUSH1 0x0 REVERT JUMPDEST POP POP POP POP PUSH1 0x40 MLOAD RETURNDATASIZE PUSH1 0x1F NOT PUSH1 0x1F DUP3 ADD AND DUP3 ADD DUP1 PUSH1 0x40 MSTORE POP DUP2 ADD SWAP1 PUSH2 0x13A6 SWAP2 SWAP1 PUSH2 0x1837 JUMP JUMPDEST SWAP2 POP DUP2 PUSH32 0xB89BE3B4BDC4059B3E8638AC07EF31FB78418648FFA34EACCB60B1C60F318D29 DUP7 PUSH1 0x40 MLOAD PUSH2 0x13D8 SWAP2 SWAP1 PUSH2 0x1920 JUMP JUMPDEST PUSH1 0x40 MLOAD DUP1 SWAP2 SUB SWAP1 LOG2 PUSH1 0x0 DUP3 DUP2 MSTORE PUSH1 0x5 PUSH1 0x20 SWAP1 DUP2 MSTORE PUSH1 0x40 DUP1 DUP4 KECCAK256 DUP1 SLOAD PUSH1 0x1 PUSH1 0x1 PUSH1 0xA0 SHL SUB NOT AND PUSH1 0x1 PUSH1 0x1 PUSH1 0xA0 SHL SUB DUP11 AND SWAP1 DUP2 OR SWAP1 SWAP2 SSTORE DUP4 MSTORE PUSH1 0x7 SWAP1 SWAP2 MSTORE DUP2 KECCAK256 DUP1 SLOAD PUSH1 0x1 SWAP3 SWAP1 PUSH2 0x1427 SWAP1 DUP5 SWAP1 PUSH2 0x1D4A JUMP JUMPDEST SWAP1 SWAP2 SSTORE POP POP POP PUSH1 0x1 PUSH1 0x1 PUSH1 0xA0 SHL SUB SWAP1 SWAP4 AND PUSH1 0x0 SWAP1 DUP2 MSTORE PUSH1 0xA PUSH1 0x20 SWAP1 DUP2 MSTORE PUSH1 0x40 DUP3 KECCAK256 DUP1 SLOAD PUSH1 0x1 DUP2 ADD DUP3 SSTORE SWAP1 DUP4 MSTORE SWAP2 KECCAK256 ADD DUP4 SWAP1 SSTORE POP SWAP1 SWAP2 SWAP1 POP JUMP JUMPDEST PUSH2 0x1469 DUP2 PUSH2 0xA5C JUMP JUMPDEST PUSH1 0x1 PUSH1 0x1 PUSH1 0xA0 SHL SUB AND DUP3 PUSH1 0x1 PUSH1 0x1 PUSH1 0xA0 SHL SUB AND EQ PUSH2 0x1499 JUMPI PUSH1 0x40 MLOAD PUSH3 0x461BCD PUSH1 0xE5 SHL DUP2 MSTORE PUSH1 0x4 ADD PUSH2 0x4A4 SWAP1 PUSH2 0x1BD8 JUMP JUMPDEST PUSH1 0x3 PUSH1 0x0 DUP3 DUP2 MSTORE PUSH1 0x9 PUSH1 0x20 MSTORE PUSH1 0x40 SWAP1 KECCAK256 SLOAD PUSH1 0xFF AND PUSH1 0x4 DUP2 GT ISZERO PUSH2 0x14CC JUMPI PUSH4 0x4E487B71 PUSH1 0xE0 SHL PUSH1 0x0 MSTORE PUSH1 0x21 PUSH1 0x4 MSTORE PUSH1 0x24 PUSH1 0x0 REVERT JUMPDEST EQ PUSH2 0x14E9 JUMPI PUSH1 0x40 MLOAD PUSH3 0x461BCD PUSH1 0xE5 SHL DUP2 MSTORE PUSH1 0x4 ADD PUSH2 0x4A4 SWAP1 PUSH2 0x1C0F JUMP JUMPDEST PUSH1 0x1 PUSH1 0x1 PUSH1 0xA0 SHL SUB DUP3 AND PUSH2 0x14FC JUMPI PUSH1 0x0 DUP1 REVERT JUMPDEST PUSH1 0x0 SWAP1 DUP2 MSTORE PUSH1 0x8 PUSH1 0x20 SWAP1 DUP2 MSTORE PUSH1 0x40 DUP1 DUP4 KECCAK256 DUP1 SLOAD PUSH1 0x1 PUSH1 0x1 PUSH1 0xA0 SHL SUB SWAP6 SWAP1 SWAP6 AND PUSH1 0x1 PUSH1 0x1 PUSH1 0xA0 SHL SUB NOT SWAP1 SWAP6 AND SWAP5 SWAP1 SWAP5 OR SWAP1 SWAP4 SSTORE PUSH1 0x9 SWAP1 MSTORE KECCAK256 DUP1 SLOAD PUSH1 0xFF NOT AND PUSH1 0x2 OR SWAP1 SSTORE JUMP JUMPDEST DUP3 DUP1 SLOAD PUSH2 0x154C SWAP1 PUSH2 0x1D79 JUMP JUMPDEST SWAP1 PUSH1 0x0 MSTORE PUSH1 0x20 PUSH1 0x0 KECCAK256 SWAP1 PUSH1 0x1F ADD PUSH1 0x20 SWAP1 DIV DUP2 ADD SWAP3 DUP3 PUSH2 0x156E JUMPI PUSH1 0x0 DUP6 SSTORE PUSH2 0x15B4 JUMP JUMPDEST DUP3 PUSH1 0x1F LT PUSH2 0x1587 JUMPI DUP3 DUP1 ADD PUSH1 0xFF NOT DUP3 CALLDATALOAD AND OR DUP6 SSTORE PUSH2 0x15B4 JUMP JUMPDEST DUP3 DUP1 ADD PUSH1 0x1 ADD DUP6 SSTORE DUP3 ISZERO PUSH2 0x15B4 JUMPI SWAP2 DUP3 ADD JUMPDEST DUP3 DUP2 GT ISZERO PUSH2 0x15B4 JUMPI DUP3 CALLDATALOAD DUP3 SSTORE SWAP2 PUSH1 0x20 ADD SWAP2 SWAP1 PUSH1 0x1 ADD SWAP1 PUSH2 0x1599 JUMP JUMPDEST POP PUSH2 0x15C0 SWAP3 SWAP2 POP PUSH2 0x15C4 JUMP JUMPDEST POP SWAP1 JUMP JUMPDEST JUMPDEST DUP1 DUP3 GT ISZERO PUSH2 0x15C0 JUMPI PUSH1 0x0 DUP2 SSTORE PUSH1 0x1 ADD PUSH2 0x15C5 JUMP JUMPDEST DUP1 CALLDATALOAD PUSH1 0x1 PUSH1 0x1 PUSH1 0xA0 SHL SUB DUP2 AND DUP2 EQ PUSH2 0x8AF JUMPI PUSH1 0x0 DUP1 REVERT JUMPDEST DUP1 CALLDATALOAD PUSH1 0x3 DUP2 LT PUSH2 0x8AF JUMPI PUSH1 0x0 DUP1 REVERT JUMPDEST PUSH1 0x0 DUP1 DUP4 PUSH1 0x1F DUP5 ADD SLT PUSH2 0x1610 JUMPI DUP2 DUP3 REVERT JUMPDEST POP DUP2 CALLDATALOAD PUSH8 0xFFFFFFFFFFFFFFFF DUP2 GT ISZERO PUSH2 0x1627 JUMPI DUP2 DUP3 REVERT JUMPDEST PUSH1 0x20 DUP4 ADD SWAP2 POP DUP4 PUSH1 0x20 DUP3 DUP6 ADD ADD GT ISZERO PUSH2 0x163F JUMPI PUSH1 0x0 DUP1 REVERT JUMPDEST SWAP3 POP SWAP3 SWAP1 POP JUMP JUMPDEST PUSH1 0x0 PUSH1 0x20 DUP3 DUP5 SUB SLT ISZERO PUSH2 0x1657 JUMPI DUP1 DUP2 REVERT JUMPDEST PUSH2 0x1660 DUP3 PUSH2 0x15D9 JUMP JUMPDEST SWAP4 SWAP3 POP POP POP JUMP JUMPDEST PUSH1 0x0 DUP1 PUSH1 0x0 PUSH1 0x60 DUP5 DUP7 SUB SLT ISZERO PUSH2 0x167B JUMPI DUP2 DUP3 REVERT JUMPDEST PUSH2 0x1684 DUP5 PUSH2 0x15D9 JUMP JUMPDEST SWAP3 POP PUSH2 0x1692 PUSH1 0x20 DUP6 ADD PUSH2 0x15D9 JUMP JUMPDEST SWAP2 POP PUSH1 0x40 DUP5 ADD CALLDATALOAD SWAP1 POP SWAP3 POP SWAP3 POP SWAP3 JUMP JUMPDEST PUSH1 0x0 DUP1 PUSH1 0x40 DUP4 DUP6 SUB SLT ISZERO PUSH2 0x16B4 JUMPI DUP2 DUP3 REVERT JUMPDEST PUSH2 0x16BD DUP4 PUSH2 0x15D9 JUMP JUMPDEST SWAP5 PUSH1 0x20 SWAP4 SWAP1 SWAP4 ADD CALLDATALOAD SWAP4 POP POP POP JUMP JUMPDEST PUSH1 0x0 DUP1 PUSH1 0x0 DUP1 PUSH1 0x0 PUSH1 0x60 DUP7 DUP9 SUB SLT ISZERO PUSH2 0x16E2 JUMPI DUP1 DUP2 REVERT JUMPDEST DUP6 CALLDATALOAD PUSH8 0xFFFFFFFFFFFFFFFF DUP1 DUP3 GT ISZERO PUSH2 0x16F9 JUMPI DUP3 DUP4 REVERT JUMPDEST DUP2 DUP9 ADD SWAP2 POP DUP9 PUSH1 0x1F DUP4 ADD SLT PUSH2 0x170C JUMPI DUP3 DUP4 REVERT JUMPDEST DUP2 CALLDATALOAD DUP2 DUP2 GT ISZERO PUSH2 0x171A JUMPI DUP4 DUP5 REVERT JUMPDEST DUP10 PUSH1 0x20 DUP1 DUP4 MUL DUP6 ADD ADD GT ISZERO PUSH2 0x172D JUMPI DUP4 DUP5 REVERT JUMPDEST PUSH1 0x20 SWAP3 DUP4 ADD SWAP8 POP SWAP6 POP SWAP1 DUP8 ADD CALLDATALOAD SWAP4 POP PUSH1 0x40 DUP8 ADD CALLDATALOAD SWAP1 DUP1 DUP3 GT ISZERO PUSH2 0x174E JUMPI DUP3 DUP4 REVERT JUMPDEST POP PUSH2 0x175B DUP9 DUP3 DUP10 ADD PUSH2 0x15FF JUMP JUMPDEST SWAP7 SWAP10 SWAP6 SWAP9 POP SWAP4 SWAP7 POP SWAP3 SWAP5 SWAP4 SWAP3 POP POP POP JUMP JUMPDEST PUSH1 0x0 PUSH1 0x20 DUP3 DUP5 SUB SLT ISZERO PUSH2 0x177D JUMPI DUP1 DUP2 REVERT JUMPDEST DUP2 MLOAD DUP1 ISZERO ISZERO DUP2 EQ PUSH2 0x1660 JUMPI DUP2 DUP3 REVERT JUMPDEST PUSH1 0x0 PUSH1 0x20 DUP3 DUP5 SUB SLT ISZERO PUSH2 0x179D JUMPI DUP1 DUP2 REVERT JUMPDEST DUP2 CALLDATALOAD PUSH1 0x1 PUSH1 0x1 PUSH1 0xE0 SHL SUB NOT DUP2 AND DUP2 EQ PUSH2 0x1660 JUMPI DUP2 DUP3 REVERT JUMPDEST PUSH1 0x0 PUSH1 0x20 DUP3 DUP5 SUB SLT ISZERO PUSH2 0x17C5 JUMPI DUP1 DUP2 REVERT JUMPDEST PUSH2 0x1660 DUP3 PUSH2 0x15F0 JUMP JUMPDEST PUSH1 0x0 DUP1 PUSH1 0x0 PUSH1 0x40 DUP5 DUP7 SUB SLT ISZERO PUSH2 0x17E2 JUMPI DUP3 DUP4 REVERT JUMPDEST PUSH2 0x17EB DUP5 PUSH2 0x15F0 JUMP JUMPDEST SWAP3 POP PUSH1 0x20 DUP5 ADD CALLDATALOAD PUSH8 0xFFFFFFFFFFFFFFFF DUP2 GT ISZERO PUSH2 0x1806 JUMPI DUP3 DUP4 REVERT JUMPDEST PUSH2 0x1812 DUP7 DUP3 DUP8 ADD PUSH2 0x15FF JUMP JUMPDEST SWAP5 SWAP8 SWAP1 SWAP7 POP SWAP4 SWAP5 POP POP POP POP JUMP JUMPDEST PUSH1 0x0 PUSH1 0x20 DUP3 DUP5 SUB SLT ISZERO PUSH2 0x1830 JUMPI DUP1 DUP2 REVERT JUMPDEST POP CALLDATALOAD SWAP2 SWAP1 POP JUMP JUMPDEST PUSH1 0x0 PUSH1 0x20 DUP3 DUP5 SUB SLT ISZERO PUSH2 0x1848 JUMPI DUP1 DUP2 REVERT JUMPDEST POP MLOAD SWAP2 SWAP1 POP JUMP JUMPDEST PUSH1 0x0 DUP1 PUSH1 0x40 DUP4 DUP6 SUB SLT ISZERO PUSH2 0x1861 JUMPI DUP2 DUP3 REVERT JUMPDEST POP POP DUP1 CALLDATALOAD SWAP3 PUSH1 0x20 SWAP1 SWAP2 ADD CALLDATALOAD SWAP2 POP JUMP JUMPDEST PUSH1 0x0 DUP1 PUSH1 0x0 DUP1 PUSH1 0x60 DUP6 DUP8 SUB SLT ISZERO PUSH2 0x1885 JUMPI DUP4 DUP5 REVERT JUMPDEST DUP5 CALLDATALOAD SWAP4 POP PUSH1 0x20 DUP6 ADD CALLDATALOAD SWAP3 POP PUSH1 0x40 DUP6 ADD CALLDATALOAD PUSH8 0xFFFFFFFFFFFFFFFF DUP2 GT ISZERO PUSH2 0x18A9 JUMPI DUP3 DUP4 REVERT JUMPDEST PUSH2 0x18B5 DUP8 DUP3 DUP9 ADD PUSH2 0x15FF JUMP JUMPDEST SWAP6 SWAP9 SWAP5 SWAP8 POP SWAP6 POP POP POP POP JUMP JUMPDEST PUSH1 0x3 DUP2 LT PUSH2 0x18D1 JUMPI PUSH2 0x18D1 PUSH2 0x1DE5 JUMP JUMPDEST SWAP1 MSTORE JUMP JUMPDEST PUSH1 0x0 DUP2 MLOAD DUP1 DUP5 MSTORE DUP2 JUMPDEST DUP2 DUP2 LT ISZERO PUSH2 0x18FA JUMPI PUSH1 0x20 DUP2 DUP6 ADD DUP2 ADD MLOAD DUP7 DUP4 ADD DUP3 ADD MSTORE ADD PUSH2 0x18DE JUMP JUMPDEST DUP2 DUP2 GT ISZERO PUSH2 0x190B JUMPI DUP3 PUSH1 0x20 DUP4 DUP8 ADD ADD MSTORE JUMPDEST POP PUSH1 0x1F ADD PUSH1 0x1F NOT AND SWAP3 SWAP1 SWAP3 ADD PUSH1 0x20 ADD SWAP3 SWAP2 POP POP JUMP JUMPDEST PUSH1 0x1 PUSH1 0x1 PUSH1 0xA0 SHL SUB SWAP2 SWAP1 SWAP2 AND DUP2 MSTORE PUSH1 0x20 ADD SWAP1 JUMP JUMPDEST PUSH1 0x1 PUSH1 0x1 PUSH1 0xA0 SHL SUB SWAP4 DUP5 AND DUP2 MSTORE SWAP2 SWAP1 SWAP3 AND PUSH1 0x20 DUP3 ADD MSTORE PUSH1 0x40 DUP2 ADD SWAP2 SWAP1 SWAP2 MSTORE PUSH1 0x60 ADD SWAP1 JUMP JUMPDEST PUSH1 0x1 PUSH1 0x1 PUSH1 0xA0 SHL SUB SWAP3 SWAP1 SWAP3 AND DUP3 MSTORE PUSH1 0x20 DUP3 ADD MSTORE PUSH1 0x40 ADD SWAP1 JUMP JUMPDEST DUP7 DUP2 MSTORE PUSH1 0x80 PUSH1 0x20 DUP3 ADD DUP2 SWAP1 MSTORE DUP2 ADD DUP6 SWAP1 MSTORE PUSH1 0x0 PUSH1 0x1 PUSH1 0x1 PUSH1 0xFB SHL SUB DUP7 GT ISZERO PUSH2 0x1997 JUMPI DUP1 DUP2 REVERT JUMPDEST PUSH1 0x20 DUP7 MUL DUP1 DUP9 PUSH1 0xA0 DUP6 ADD CALLDATACOPY PUSH1 0x40 DUP4 ADD DUP7 SWAP1 MSTORE DUP3 ADD DUP3 DUP2 SUB PUSH1 0xA0 SWAP1 DUP2 ADD PUSH1 0x60 DUP6 ADD MSTORE DUP2 ADD DUP5 SWAP1 MSTORE DUP4 DUP6 PUSH1 0xC0 DUP4 ADD CALLDATACOPY DUP2 PUSH1 0xC0 DUP6 DUP4 ADD ADD MSTORE PUSH1 0xC0 PUSH1 0x1F NOT PUSH1 0x1F DUP7 ADD AND DUP3 ADD ADD SWAP2 POP POP SWAP8 SWAP7 POP POP POP POP POP POP POP JUMP JUMPDEST PUSH1 0x0 DUP6 DUP3 MSTORE DUP5 PUSH1 0x20 DUP4 ADD MSTORE PUSH2 0x19FF PUSH1 0x40 DUP4 ADD DUP6 PUSH2 0x18C1 JUMP JUMPDEST PUSH1 0x80 PUSH1 0x60 DUP4 ADD MSTORE PUSH2 0x9B0 PUSH1 0x80 DUP4 ADD DUP5 PUSH2 0x18D5 JUMP JUMPDEST PUSH1 0x20 DUP1 DUP3 MSTORE DUP3 MLOAD DUP3 DUP3 ADD DUP2 SWAP1 MSTORE PUSH1 0x0 SWAP2 SWAP1 DUP5 DUP3 ADD SWAP1 PUSH1 0x40 DUP6 ADD SWAP1 DUP5 JUMPDEST DUP2 DUP2 LT ISZERO PUSH2 0x1A4B JUMPI DUP4 MLOAD DUP4 MSTORE SWAP3 DUP5 ADD SWAP3 SWAP2 DUP5 ADD SWAP2 PUSH1 0x1 ADD PUSH2 0x1A2F JUMP JUMPDEST POP SWAP1 SWAP7 SWAP6 POP POP POP POP POP POP JUMP JUMPDEST SWAP1 ISZERO ISZERO DUP2 MSTORE PUSH1 0x20 ADD SWAP1 JUMP JUMPDEST PUSH1 0x20 DUP2 ADD PUSH2 0x1A6F DUP4 PUSH2 0x1DFB JUMP JUMPDEST SWAP2 SWAP1 MSTORE SWAP1 JUMP JUMPDEST PUSH1 0x20 DUP2 ADD PUSH2 0x1A83 DUP3 DUP5 PUSH2 0x18C1 JUMP JUMPDEST SWAP3 SWAP2 POP POP JUMP JUMPDEST PUSH1 0x0 PUSH1 0x20 DUP3 MSTORE PUSH2 0x1660 PUSH1 0x20 DUP4 ADD DUP5 PUSH2 0x18D5 JUMP JUMPDEST PUSH1 0x20 DUP1 DUP3 MSTORE PUSH1 0x28 SWAP1 DUP3 ADD MSTORE PUSH32 0x497420697320746F6F206C61746520746F207769746864726177207468697320 PUSH1 0x40 DUP3 ADD MSTORE PUSH8 0x61756374696F6E21 PUSH1 0xC0 SHL PUSH1 0x60 DUP3 ADD MSTORE PUSH1 0x80 ADD SWAP1 JUMP JUMPDEST PUSH1 0x20 DUP1 DUP3 MSTORE PUSH1 0x25 SWAP1 DUP3 ADD MSTORE PUSH32 0x596F7520617265206E6F742074686520686F7374206F66207468697320617563 PUSH1 0x40 DUP3 ADD MSTORE PUSH5 0x74696F6E21 PUSH1 0xD8 SHL PUSH1 0x60 DUP3 ADD MSTORE PUSH1 0x80 ADD SWAP1 JUMP JUMPDEST PUSH1 0x20 DUP1 DUP3 MSTORE PUSH1 0x19 SWAP1 DUP3 ADD MSTORE PUSH32 0x596F7520616C7265616479206F776E207468697320756E697400000000000000 PUSH1 0x40 DUP3 ADD MSTORE PUSH1 0x60 ADD SWAP1 JUMP JUMPDEST PUSH1 0x20 DUP1 DUP3 MSTORE PUSH1 0x1B SWAP1 DUP3 ADD MSTORE PUSH32 0x4E6F7420612076616C696420616464726573732E20536F727279210000000000 PUSH1 0x40 DUP3 ADD MSTORE PUSH1 0x60 ADD SWAP1 JUMP JUMPDEST PUSH1 0x20 DUP1 DUP3 MSTORE PUSH1 0x21 SWAP1 DUP3 ADD MSTORE PUSH32 0x556E6974206973206E6F742070726F6D6973656420746F207468617420757365 PUSH1 0x40 DUP3 ADD MSTORE PUSH1 0x39 PUSH1 0xF9 SHL PUSH1 0x60 DUP3 ADD MSTORE PUSH1 0x80 ADD SWAP1 JUMP JUMPDEST PUSH1 0x20 DUP1 DUP3 MSTORE PUSH1 0x17 SWAP1 DUP3 ADD MSTORE PUSH32 0x596F7520646F6E2774206F776E207468697320756E6974000000000000000000 PUSH1 0x40 DUP3 ADD MSTORE PUSH1 0x60 ADD SWAP1 JUMP JUMPDEST PUSH1 0x20 DUP1 DUP3 MSTORE PUSH1 0x13 SWAP1 DUP3 ADD MSTORE PUSH19 0x556E697420697320756E617661696C61626C65 PUSH1 0x68 SHL PUSH1 0x40 DUP3 ADD MSTORE PUSH1 0x60 ADD SWAP1 JUMP JUMPDEST SWAP3 DUP4 MSTORE PUSH1 0x20 DUP4 ADD SWAP2 SWAP1 SWAP2 MSTORE PUSH1 0x1 PUSH1 0x1 PUSH1 0xA0 SHL SUB AND PUSH1 0x40 DUP3 ADD MSTORE PUSH1 0x60 ADD SWAP1 JUMP JUMPDEST PUSH2 0xFFFF DUP9 DUP2 AND DUP3 MSTORE DUP8 DUP2 AND PUSH1 0x20 DUP4 ADD MSTORE DUP7 DUP2 AND PUSH1 0x40 DUP4 ADD MSTORE DUP6 DUP2 AND PUSH1 0x60 DUP4 ADD MSTORE DUP5 AND PUSH1 0x80 DUP3 ADD MSTORE PUSH1 0x0 PUSH2 0x1C91 PUSH1 0xA0 DUP4 ADD DUP6 PUSH2 0x18C1 JUMP JUMPDEST PUSH1 0xE0 PUSH1 0xC0 DUP4 ADD MSTORE PUSH2 0x1CA5 PUSH1 0xE0 DUP4 ADD DUP5 PUSH2 0x18D5 JUMP JUMPDEST SWAP10 SWAP9 POP POP POP POP POP POP POP POP POP JUMP JUMPDEST SWAP1 DUP2 MSTORE PUSH1 0x20 ADD SWAP1 JUMP JUMPDEST DUP7 DUP2 MSTORE PUSH1 0x1 PUSH1 0x1 PUSH1 0xA0 SHL SUB DUP7 DUP2 AND PUSH1 0x20 DUP4 ADD MSTORE DUP6 AND PUSH1 0x40 DUP3 ADD MSTORE PUSH1 0xC0 PUSH1 0x60 DUP3 ADD DUP2 SWAP1 MSTORE PUSH1 0x0 SWAP1 PUSH2 0x1CED SWAP1 DUP4 ADD DUP7 PUSH2 0x18D5 JUMP JUMPDEST DUP3 DUP2 SUB PUSH1 0x80 DUP5 ADD MSTORE PUSH2 0x1CFF DUP2 DUP7 PUSH2 0x18D5 JUMP JUMPDEST SWAP2 POP POP DUP3 PUSH1 0xA0 DUP4 ADD MSTORE SWAP8 SWAP7 POP POP POP POP POP POP POP JUMP JUMPDEST PUSH1 0xFF DUP6 AND DUP2 MSTORE PUSH2 0xFFFF DUP5 DUP2 AND PUSH1 0x20 DUP4 ADD MSTORE PUSH1 0x80 DUP3 ADD SWAP1 PUSH2 0x1D32 DUP6 PUSH2 0x1DFB JUMP JUMPDEST DUP5 PUSH1 0x40 DUP5 ADD MSTORE DUP1 DUP5 AND PUSH1 0x60 DUP5 ADD MSTORE POP SWAP6 SWAP5 POP POP POP POP POP JUMP JUMPDEST PUSH1 0x0 DUP3 NOT DUP3 GT ISZERO PUSH2 0x1D5D JUMPI PUSH2 0x1D5D PUSH2 0x1DCF JUMP JUMPDEST POP ADD SWAP1 JUMP JUMPDEST PUSH1 0x0 DUP3 DUP3 LT ISZERO PUSH2 0x1D74 JUMPI PUSH2 0x1D74 PUSH2 0x1DCF JUMP JUMPDEST POP SUB SWAP1 JUMP JUMPDEST PUSH1 0x2 DUP2 DIV PUSH1 0x1 DUP3 AND DUP1 PUSH2 0x1D8D JUMPI PUSH1 0x7F DUP3 AND SWAP2 POP JUMPDEST PUSH1 0x20 DUP3 LT DUP2 EQ ISZERO PUSH2 0x1DAE JUMPI PUSH4 0x4E487B71 PUSH1 0xE0 SHL PUSH1 0x0 MSTORE PUSH1 0x22 PUSH1 0x4 MSTORE PUSH1 0x24 PUSH1 0x0 REVERT JUMPDEST POP SWAP2 SWAP1 POP JUMP JUMPDEST PUSH1 0x0 PUSH1 0x0 NOT DUP3 EQ ISZERO PUSH2 0x1DC8 JUMPI PUSH2 0x1DC8 PUSH2 0x1DCF JUMP JUMPDEST POP PUSH1 0x1 ADD SWAP1 JUMP JUMPDEST PUSH4 0x4E487B71 PUSH1 0xE0 SHL PUSH1 0x0 MSTORE PUSH1 0x11 PUSH1 0x4 MSTORE PUSH1 0x24 PUSH1 0x0 REVERT JUMPDEST PUSH4 0x4E487B71 PUSH1 0xE0 SHL PUSH1 0x0 MSTORE PUSH1 0x21 PUSH1 0x4 MSTORE PUSH1 0x24 PUSH1 0x0 REVERT JUMPDEST PUSH1 0x5 DUP2 LT PUSH2 0x1E0B JUMPI PUSH2 0x1E0B PUSH2 0x1DE5 JUMP JUMPDEST POP JUMP INVALID LOG2 PUSH5 0x6970667358 0x22 SLT KECCAK256 0x2F 0xC5 NUMBER 0xF8 0x5C 0xF8 PUSH22 0xDDD3D7DE346A221186D6F37290FD7721F9E813924593 0x27 0xE6 0xD PUSH5 0x736F6C6343 STOP ADDMOD ADD STOP CALLER PUSH1 0x80 PUSH1 0x40 MSTORE PUSH4 0x3B9ACA00 PUSH1 0x0 SSTORE CALLVALUE DUP1 ISZERO PUSH2 0x18 JUMPI PUSH1 0x0 DUP1 REVERT JUMPDEST POP PUSH1 0x40 MLOAD PUSH2 0xC62 CODESIZE SUB DUP1 PUSH2 0xC62 DUP4 CODECOPY DUP2 ADD PUSH1 0x40 DUP2 SWAP1 MSTORE PUSH2 0x37 SWAP2 PUSH2 0x6C JUMP JUMPDEST PUSH1 0x4 DUP1 SLOAD PUSH1 0x1 PUSH1 0x1 PUSH1 0xA0 SHL SUB SWAP1 SWAP3 AND PUSH1 0x1 PUSH1 0x1 PUSH1 0xA0 SHL SUB NOT SWAP1 SWAP3 AND DUP3 OR SWAP1 SSTORE PUSH1 0x0 DUP1 SLOAD SWAP2 DUP2 MSTORE PUSH1 0x1 PUSH1 0x20 MSTORE PUSH1 0x40 SWAP1 KECCAK256 SSTORE PUSH2 0x9A JUMP JUMPDEST PUSH1 0x0 PUSH1 0x20 DUP3 DUP5 SUB SLT ISZERO PUSH2 0x7D JUMPI DUP1 DUP2 REVERT JUMPDEST DUP2 MLOAD PUSH1 0x1 PUSH1 0x1 PUSH1 0xA0 SHL SUB DUP2 AND DUP2 EQ PUSH2 0x93 JUMPI DUP2 DUP3 REVERT JUMPDEST SWAP4 SWAP3 POP POP POP JUMP JUMPDEST PUSH2 0xBB9 DUP1 PUSH2 0xA9 PUSH1 0x0 CODECOPY PUSH1 0x0 RETURN INVALID PUSH1 0x80 PUSH1 0x40 MSTORE PUSH1 0x4 CALLDATASIZE LT PUSH2 0xF3 JUMPI PUSH1 0x0 CALLDATALOAD PUSH1 0xE0 SHR DUP1 PUSH4 0x70A08231 GT PUSH2 0x8A JUMPI DUP1 PUSH4 0xABB8D5C3 GT PUSH2 0x59 JUMPI DUP1 PUSH4 0xABB8D5C3 EQ PUSH2 0x261 JUMPI DUP1 PUSH4 0xAF7D6CA3 EQ PUSH2 0x281 JUMPI DUP1 PUSH4 0xD4E7B8AD EQ PUSH2 0x2A1 JUMPI DUP1 PUSH4 0xDD62ED3E EQ PUSH2 0x2C1 JUMPI PUSH2 0xF3 JUMP JUMPDEST DUP1 PUSH4 0x70A08231 EQ PUSH2 0x1F7 JUMPI DUP1 PUSH4 0x89EB068A EQ PUSH2 0x217 JUMPI DUP1 PUSH4 0x95D89B41 EQ PUSH2 0x22C JUMPI DUP1 PUSH4 0xA9059CBB EQ PUSH2 0x241 JUMPI PUSH2 0xF3 JUMP JUMPDEST DUP1 PUSH4 0x23B872DD GT PUSH2 0xC6 JUMPI DUP1 PUSH4 0x23B872DD EQ PUSH2 0x192 JUMPI DUP1 PUSH4 0x3290CE29 EQ PUSH2 0x1B2 JUMPI DUP1 PUSH4 0x332B888D EQ PUSH2 0x1BC JUMPI DUP1 PUSH4 0x535B6773 EQ PUSH2 0x1D7 JUMPI PUSH2 0xF3 JUMP JUMPDEST DUP1 PUSH4 0x1FFC9A7 EQ PUSH2 0xF8 JUMPI DUP1 PUSH4 0x6FDDE03 EQ PUSH2 0x12E JUMPI DUP1 PUSH4 0x95EA7B3 EQ PUSH2 0x150 JUMPI DUP1 PUSH4 0x18160DDD EQ PUSH2 0x170 JUMPI JUMPDEST PUSH1 0x0 DUP1 REVERT JUMPDEST CALLVALUE DUP1 ISZERO PUSH2 0x104 JUMPI PUSH1 0x0 DUP1 REVERT JUMPDEST POP PUSH2 0x118 PUSH2 0x113 CALLDATASIZE PUSH1 0x4 PUSH2 0x96C JUMP JUMPDEST PUSH2 0x2E1 JUMP JUMPDEST PUSH1 0x40 MLOAD PUSH2 0x125 SWAP2 SWAP1 PUSH2 0x9AC JUMP JUMPDEST PUSH1 0x40 MLOAD DUP1 SWAP2 SUB SWAP1 RETURN JUMPDEST CALLVALUE DUP1 ISZERO PUSH2 0x13A JUMPI PUSH1 0x0 DUP1 REVERT JUMPDEST POP PUSH2 0x143 PUSH2 0x2E9 JUMP JUMPDEST PUSH1 0x40 MLOAD PUSH2 0x125 SWAP2 SWAP1 PUSH2 0x9B7 JUMP JUMPDEST CALLVALUE DUP1 ISZERO PUSH2 0x15C JUMPI PUSH1 0x0 DUP1 REVERT JUMPDEST POP PUSH2 0x118 PUSH2 0x16B CALLDATASIZE PUSH1 0x4 PUSH2 0x943 JUMP JUMPDEST PUSH2 0x318 JUMP JUMPDEST CALLVALUE DUP1 ISZERO PUSH2 0x17C JUMPI PUSH1 0x0 DUP1 REVERT JUMPDEST POP PUSH2 0x185 PUSH2 0x32C JUMP JUMPDEST PUSH1 0x40 MLOAD PUSH2 0x125 SWAP2 SWAP1 PUSH2 0xB16 JUMP JUMPDEST CALLVALUE DUP1 ISZERO PUSH2 0x19E JUMPI PUSH1 0x0 DUP1 REVERT JUMPDEST POP PUSH2 0x118 PUSH2 0x1AD CALLDATASIZE PUSH1 0x4 PUSH2 0x908 JUMP JUMPDEST PUSH2 0x332 JUMP JUMPDEST PUSH2 0x1BA PUSH2 0x44E JUMP JUMPDEST STOP JUMPDEST CALLVALUE DUP1 ISZERO PUSH2 0x1C8 JUMPI PUSH1 0x0 DUP1 REVERT JUMPDEST POP PUSH2 0x118 PUSH2 0x113 CALLDATASIZE PUSH1 0x4 PUSH2 0x994 JUMP JUMPDEST CALLVALUE DUP1 ISZERO PUSH2 0x1E3 JUMPI PUSH1 0x0 DUP1 REVERT JUMPDEST POP PUSH2 0x118 PUSH2 0x1F2 CALLDATASIZE PUSH1 0x4 PUSH2 0x943 JUMP JUMPDEST PUSH2 0x47F JUMP JUMPDEST CALLVALUE DUP1 ISZERO PUSH2 0x203 JUMPI PUSH1 0x0 DUP1 REVERT JUMPDEST POP PUSH2 0x185 PUSH2 0x212 CALLDATASIZE PUSH1 0x4 PUSH2 0x8BC JUMP JUMPDEST PUSH2 0x51A JUMP JUMPDEST CALLVALUE DUP1 ISZERO PUSH2 0x223 JUMPI PUSH1 0x0 DUP1 REVERT JUMPDEST POP PUSH2 0x1BA PUSH2 0x535 JUMP JUMPDEST CALLVALUE DUP1 ISZERO PUSH2 0x238 JUMPI PUSH1 0x0 DUP1 REVERT JUMPDEST POP PUSH2 0x143 PUSH2 0x557 JUMP JUMPDEST CALLVALUE DUP1 ISZERO PUSH2 0x24D JUMPI PUSH1 0x0 DUP1 REVERT JUMPDEST POP PUSH2 0x118 PUSH2 0x25C CALLDATASIZE PUSH1 0x4 PUSH2 0x943 JUMP JUMPDEST PUSH2 0x577 JUMP JUMPDEST CALLVALUE DUP1 ISZERO PUSH2 0x26D JUMPI PUSH1 0x0 DUP1 REVERT JUMPDEST POP PUSH2 0x118 PUSH2 0x27C CALLDATASIZE PUSH1 0x4 PUSH2 0x943 JUMP JUMPDEST PUSH2 0x63F JUMP JUMPDEST CALLVALUE DUP1 ISZERO PUSH2 0x28D JUMPI PUSH1 0x0 DUP1 REVERT JUMPDEST POP PUSH2 0x118 PUSH2 0x29C CALLDATASIZE PUSH1 0x4 PUSH2 0x943 JUMP JUMPDEST PUSH2 0x684 JUMP JUMPDEST CALLVALUE DUP1 ISZERO PUSH2 0x2AD JUMPI PUSH1 0x0 DUP1 REVERT JUMPDEST POP PUSH2 0x185 PUSH2 0x2BC CALLDATASIZE PUSH1 0x4 PUSH2 0x8BC JUMP JUMPDEST PUSH2 0x75D JUMP JUMPDEST CALLVALUE DUP1 ISZERO PUSH2 0x2CD JUMPI PUSH1 0x0 DUP1 REVERT JUMPDEST POP PUSH2 0x185 PUSH2 0x2DC CALLDATASIZE PUSH1 0x4 PUSH2 0x8D6 JUMP JUMPDEST PUSH2 0x791 JUMP JUMPDEST PUSH1 0x1 JUMPDEST SWAP2 SWAP1 POP JUMP JUMPDEST PUSH1 0x40 DUP1 MLOAD DUP1 DUP3 ADD SWAP1 SWAP2 MSTORE PUSH1 0x15 DUP2 MSTORE PUSH21 0x20BABA37A1B432B9B99029BA37B932902A37B5B2B7 PUSH1 0x59 SHL PUSH1 0x20 DUP3 ADD MSTORE SWAP1 JUMP JUMPDEST PUSH1 0x0 PUSH2 0x325 CALLER DUP5 DUP5 PUSH2 0x7BC JUMP JUMPDEST SWAP4 SWAP3 POP POP POP JUMP JUMPDEST PUSH1 0x0 SLOAD SWAP1 JUMP JUMPDEST PUSH1 0x1 PUSH1 0x1 PUSH1 0xA0 SHL SUB DUP1 DUP5 AND PUSH1 0x0 SWAP1 DUP2 MSTORE PUSH1 0x2 PUSH1 0x20 SWAP1 DUP2 MSTORE PUSH1 0x40 DUP1 DUP4 KECCAK256 SWAP4 DUP7 AND DUP4 MSTORE SWAP3 SWAP1 MSTORE SWAP1 DUP2 KECCAK256 SLOAD DUP3 LT PUSH2 0x381 JUMPI PUSH1 0x40 MLOAD PUSH3 0x461BCD PUSH1 0xE5 SHL DUP2 MSTORE PUSH1 0x4 ADD PUSH2 0x378 SWAP1 PUSH2 0xA0A JUMP JUMPDEST PUSH1 0x40 MLOAD DUP1 SWAP2 SUB SWAP1 REVERT JUMPDEST PUSH1 0x1 PUSH1 0x1 PUSH1 0xA0 SHL SUB DUP1 DUP6 AND PUSH1 0x0 SWAP1 DUP2 MSTORE PUSH1 0x2 PUSH1 0x20 SWAP1 DUP2 MSTORE PUSH1 0x40 DUP1 DUP4 KECCAK256 SWAP4 DUP8 AND DUP4 MSTORE SWAP3 SWAP1 MSTORE SWAP1 DUP2 KECCAK256 DUP1 SLOAD DUP5 SWAP3 SWAP1 PUSH2 0x3B8 SWAP1 DUP5 SWAP1 PUSH2 0xB56 JUMP JUMPDEST SWAP1 SWAP2 SSTORE POP POP PUSH1 0x1 PUSH1 0x1 PUSH1 0xA0 SHL SUB DUP5 AND PUSH1 0x0 SWAP1 DUP2 MSTORE PUSH1 0x3 PUSH1 0x20 MSTORE PUSH1 0x40 DUP2 KECCAK256 DUP1 SLOAD DUP5 SWAP3 SWAP1 PUSH2 0x3E5 SWAP1 DUP5 SWAP1 PUSH2 0xB56 JUMP JUMPDEST SWAP1 SWAP2 SSTORE POP POP PUSH1 0x1 PUSH1 0x1 PUSH1 0xA0 SHL SUB DUP5 AND PUSH1 0x0 SWAP1 DUP2 MSTORE PUSH1 0x1 PUSH1 0x20 MSTORE PUSH1 0x40 DUP2 KECCAK256 DUP1 SLOAD DUP5 SWAP3 SWAP1 PUSH2 0x412 SWAP1 DUP5 SWAP1 PUSH2 0xB56 JUMP JUMPDEST SWAP1 SWAP2 SSTORE POP POP PUSH1 0x1 PUSH1 0x1 PUSH1 0xA0 SHL SUB DUP4 AND PUSH1 0x0 SWAP1 DUP2 MSTORE PUSH1 0x1 PUSH1 0x20 MSTORE PUSH1 0x40 DUP2 KECCAK256 DUP1 SLOAD DUP5 SWAP3 SWAP1 PUSH2 0x43F SWAP1 DUP5 SWAP1 PUSH2 0xB1F JUMP JUMPDEST SWAP1 SWAP2 SSTORE POP PUSH1 0x1 SWAP6 SWAP5 POP POP POP POP POP JUMP JUMPDEST PUSH2 0x459 CALLVALUE PUSH1 0x64 PUSH2 0xB37 JUMP JUMPDEST CALLER PUSH1 0x0 SWAP1 DUP2 MSTORE PUSH1 0x1 PUSH1 0x20 MSTORE PUSH1 0x40 DUP2 KECCAK256 DUP1 SLOAD SWAP1 SWAP2 SWAP1 PUSH2 0x478 SWAP1 DUP5 SWAP1 PUSH2 0xB1F JUMP JUMPDEST SWAP1 SWAP2 SSTORE POP POP JUMP JUMPDEST PUSH1 0x4 SLOAD PUSH1 0x0 SWAP1 PUSH1 0x1 PUSH1 0x1 PUSH1 0xA0 SHL SUB AND CALLER EQ PUSH2 0x4AC JUMPI PUSH1 0x40 MLOAD PUSH3 0x461BCD PUSH1 0xE5 SHL DUP2 MSTORE PUSH1 0x4 ADD PUSH2 0x378 SWAP1 PUSH2 0xACB JUMP JUMPDEST PUSH1 0x1 PUSH1 0x1 PUSH1 0xA0 SHL SUB DUP4 AND PUSH1 0x0 SWAP1 DUP2 MSTORE PUSH1 0x2 PUSH1 0x20 SWAP1 DUP2 MSTORE PUSH1 0x40 DUP1 DUP4 KECCAK256 CALLER DUP5 MSTORE SWAP1 SWAP2 MSTORE DUP2 KECCAK256 DUP1 SLOAD DUP5 SWAP3 SWAP1 PUSH2 0x4DF SWAP1 DUP5 SWAP1 PUSH2 0xB56 JUMP JUMPDEST SWAP1 SWAP2 SSTORE POP POP PUSH1 0x1 PUSH1 0x1 PUSH1 0xA0 SHL SUB DUP4 AND PUSH1 0x0 SWAP1 DUP2 MSTORE PUSH1 0x3 PUSH1 0x20 MSTORE PUSH1 0x40 DUP2 KECCAK256 DUP1 SLOAD DUP5 SWAP3 SWAP1 PUSH2 0x50C SWAP1 DUP5 SWAP1 PUSH2 0xB56 JUMP JUMPDEST SWAP1 SWAP2 SSTORE POP PUSH1 0x1 SWAP5 SWAP4 POP POP POP POP JUMP JUMPDEST PUSH1 0x1 PUSH1 0x1 PUSH1 0xA0 SHL SUB AND PUSH1 0x0 SWAP1 DUP2 MSTORE PUSH1 0x1 PUSH1 0x20 MSTORE PUSH1 0x40 SWAP1 KECCAK256 SLOAD SWAP1 JUMP JUMPDEST CALLER PUSH1 0x0 SWAP1 DUP2 MSTORE PUSH1 0x1 PUSH1 0x20 MSTORE PUSH1 0x40 DUP2 KECCAK256 DUP1 SLOAD PUSH3 0x186A0 SWAP3 SWAP1 PUSH2 0x478 SWAP1 DUP5 SWAP1 PUSH2 0xB1F JUMP JUMPDEST PUSH1 0x40 DUP1 MLOAD DUP1 DUP3 ADD SWAP1 SWAP2 MSTORE PUSH1 0x6 DUP2 MSTORE PUSH6 0x1050D214D4D5 PUSH1 0xD2 SHL PUSH1 0x20 DUP3 ADD MSTORE SWAP1 JUMP JUMPDEST PUSH1 0x0 DUP2 PUSH2 0x583 CALLER PUSH2 0x75D JUMP JUMPDEST GT PUSH2 0x5A0 JUMPI PUSH1 0x40 MLOAD PUSH3 0x461BCD PUSH1 0xE5 SHL DUP2 MSTORE PUSH1 0x4 ADD PUSH2 0x378 SWAP1 PUSH2 0xA34 JUMP JUMPDEST CALLER PUSH1 0x0 SWAP1 DUP2 MSTORE PUSH1 0x1 PUSH1 0x20 MSTORE PUSH1 0x40 DUP2 KECCAK256 DUP1 SLOAD DUP5 SWAP3 SWAP1 PUSH2 0x5BF SWAP1 DUP5 SWAP1 PUSH2 0xB56 JUMP JUMPDEST SWAP1 SWAP2 SSTORE POP POP PUSH1 0x1 PUSH1 0x1 PUSH1 0xA0 SHL SUB DUP4 AND PUSH1 0x0 SWAP1 DUP2 MSTORE PUSH1 0x1 PUSH1 0x20 MSTORE PUSH1 0x40 DUP2 KECCAK256 DUP1 SLOAD DUP5 SWAP3 SWAP1 PUSH2 0x5EC SWAP1 DUP5 SWAP1 PUSH2 0xB1F JUMP JUMPDEST SWAP1 SWAP2 SSTORE POP POP PUSH1 0x40 MLOAD PUSH1 0x1 PUSH1 0x1 PUSH1 0xA0 SHL SUB DUP5 AND SWAP1 CALLER SWAP1 PUSH32 0xDDF252AD1BE2C89B69C2B068FC378DAA952BA7F163C4A11628F55A4DF523B3EF SWAP1 PUSH2 0x62E SWAP1 DUP7 SWAP1 PUSH2 0xB16 JUMP JUMPDEST PUSH1 0x40 MLOAD DUP1 SWAP2 SUB SWAP1 LOG3 POP PUSH1 0x1 SWAP3 SWAP2 POP POP JUMP JUMPDEST PUSH1 0x4 SLOAD PUSH1 0x0 SWAP1 PUSH1 0x1 PUSH1 0x1 PUSH1 0xA0 SHL SUB AND CALLER EQ PUSH2 0x66C JUMPI PUSH1 0x40 MLOAD PUSH3 0x461BCD PUSH1 0xE5 SHL DUP2 MSTORE PUSH1 0x4 ADD PUSH2 0x378 SWAP1 PUSH2 0xACB JUMP JUMPDEST PUSH1 0x4 SLOAD PUSH2 0x325 SWAP1 DUP5 SWAP1 PUSH1 0x1 PUSH1 0x1 PUSH1 0xA0 SHL SUB AND DUP5 PUSH2 0x7BC JUMP JUMPDEST PUSH1 0x4 SLOAD PUSH1 0x0 SWAP1 PUSH1 0x1 PUSH1 0x1 PUSH1 0xA0 SHL SUB AND CALLER EQ PUSH2 0x6B1 JUMPI PUSH1 0x40 MLOAD PUSH3 0x461BCD PUSH1 0xE5 SHL DUP2 MSTORE PUSH1 0x4 ADD PUSH2 0x378 SWAP1 PUSH2 0xACB JUMP JUMPDEST DUP2 PUSH2 0x6BB DUP5 PUSH2 0x75D JUMP JUMPDEST GT PUSH2 0x6D8 JUMPI PUSH1 0x40 MLOAD PUSH3 0x461BCD PUSH1 0xE5 SHL DUP2 MSTORE PUSH1 0x4 ADD PUSH2 0x378 SWAP1 PUSH2 0xA34 JUMP JUMPDEST DUP2 PUSH1 0x0 DUP1 DUP3 DUP3 SLOAD PUSH2 0x6E9 SWAP2 SWAP1 PUSH2 0xB56 JUMP JUMPDEST SWAP1 SWAP2 SSTORE POP POP PUSH1 0x1 PUSH1 0x1 PUSH1 0xA0 SHL SUB DUP4 AND PUSH1 0x0 SWAP1 DUP2 MSTORE PUSH1 0x1 PUSH1 0x20 MSTORE PUSH1 0x40 DUP2 KECCAK256 DUP1 SLOAD DUP5 SWAP3 SWAP1 PUSH2 0x716 SWAP1 DUP5 SWAP1 PUSH2 0xB56 JUMP JUMPDEST SWAP1 SWAP2 SSTORE POP POP PUSH1 0x4 SLOAD PUSH1 0x40 MLOAD PUSH1 0x1 PUSH1 0x1 PUSH1 0xA0 SHL SUB SWAP2 DUP3 AND SWAP2 DUP6 AND SWAP1 PUSH32 0xDDF252AD1BE2C89B69C2B068FC378DAA952BA7F163C4A11628F55A4DF523B3EF SWAP1 PUSH2 0x62E SWAP1 DUP7 SWAP1 PUSH2 0xB16 JUMP JUMPDEST PUSH1 0x1 PUSH1 0x1 PUSH1 0xA0 SHL SUB DUP2 AND PUSH1 0x0 SWAP1 DUP2 MSTORE PUSH1 0x3 PUSH1 0x20 SWAP1 DUP2 MSTORE PUSH1 0x40 DUP1 DUP4 KECCAK256 SLOAD PUSH1 0x1 SWAP1 SWAP3 MSTORE DUP3 KECCAK256 SLOAD PUSH2 0x78B SWAP2 SWAP1 PUSH2 0xB56 JUMP JUMPDEST SWAP3 SWAP2 POP POP JUMP JUMPDEST PUSH1 0x1 PUSH1 0x1 PUSH1 0xA0 SHL SUB SWAP2 DUP3 AND PUSH1 0x0 SWAP1 DUP2 MSTORE PUSH1 0x2 PUSH1 0x20 SWAP1 DUP2 MSTORE PUSH1 0x40 DUP1 DUP4 KECCAK256 SWAP4 SWAP1 SWAP5 AND DUP3 MSTORE SWAP2 SWAP1 SWAP2 MSTORE KECCAK256 SLOAD SWAP1 JUMP JUMPDEST PUSH1 0x0 DUP2 PUSH2 0x7C8 DUP6 PUSH2 0x75D JUMP JUMPDEST GT PUSH2 0x7E5 JUMPI PUSH1 0x40 MLOAD PUSH3 0x461BCD PUSH1 0xE5 SHL DUP2 MSTORE PUSH1 0x4 ADD PUSH2 0x378 SWAP1 PUSH2 0xA80 JUMP JUMPDEST PUSH1 0x1 PUSH1 0x1 PUSH1 0xA0 SHL SUB DUP1 DUP6 AND PUSH1 0x0 SWAP1 DUP2 MSTORE PUSH1 0x2 PUSH1 0x20 SWAP1 DUP2 MSTORE PUSH1 0x40 DUP1 DUP4 KECCAK256 SWAP4 DUP8 AND DUP4 MSTORE SWAP3 SWAP1 MSTORE SWAP1 DUP2 KECCAK256 DUP1 SLOAD DUP5 SWAP3 SWAP1 PUSH2 0x81C SWAP1 DUP5 SWAP1 PUSH2 0xB1F JUMP JUMPDEST SWAP1 SWAP2 SSTORE POP POP PUSH1 0x1 PUSH1 0x1 PUSH1 0xA0 SHL SUB DUP5 AND PUSH1 0x0 SWAP1 DUP2 MSTORE PUSH1 0x3 PUSH1 0x20 MSTORE PUSH1 0x40 DUP2 KECCAK256 DUP1 SLOAD DUP5 SWAP3 SWAP1 PUSH2 0x849 SWAP1 DUP5 SWAP1 PUSH2 0xB1F JUMP JUMPDEST SWAP3 POP POP DUP2 SWAP1 SSTORE POP DUP3 PUSH1 0x1 PUSH1 0x1 PUSH1 0xA0 SHL SUB AND DUP5 PUSH1 0x1 PUSH1 0x1 PUSH1 0xA0 SHL SUB AND PUSH32 0x8C5BE1E5EBEC7D5BD14F71427D1E84F3DD0314C0F7B2291E5B200AC8C7C3B925 DUP5 PUSH1 0x40 MLOAD PUSH2 0x893 SWAP2 SWAP1 PUSH2 0xB16 JUMP JUMPDEST PUSH1 0x40 MLOAD DUP1 SWAP2 SUB SWAP1 LOG3 POP PUSH1 0x1 SWAP4 SWAP3 POP POP POP JUMP JUMPDEST DUP1 CALLDATALOAD PUSH1 0x1 PUSH1 0x1 PUSH1 0xA0 SHL SUB DUP2 AND DUP2 EQ PUSH2 0x2E4 JUMPI PUSH1 0x0 DUP1 REVERT JUMPDEST PUSH1 0x0 PUSH1 0x20 DUP3 DUP5 SUB SLT ISZERO PUSH2 0x8CD JUMPI DUP1 DUP2 REVERT JUMPDEST PUSH2 0x325 DUP3 PUSH2 0x8A5 JUMP JUMPDEST PUSH1 0x0 DUP1 PUSH1 0x40 DUP4 DUP6 SUB SLT ISZERO PUSH2 0x8E8 JUMPI DUP1 DUP2 REVERT JUMPDEST PUSH2 0x8F1 DUP4 PUSH2 0x8A5 JUMP JUMPDEST SWAP2 POP PUSH2 0x8FF PUSH1 0x20 DUP5 ADD PUSH2 0x8A5 JUMP JUMPDEST SWAP1 POP SWAP3 POP SWAP3 SWAP1 POP JUMP JUMPDEST PUSH1 0x0 DUP1 PUSH1 0x0 PUSH1 0x60 DUP5 DUP7 SUB SLT ISZERO PUSH2 0x91C JUMPI DUP1 DUP2 REVERT JUMPDEST PUSH2 0x925 DUP5 PUSH2 0x8A5 JUMP JUMPDEST SWAP3 POP PUSH2 0x933 PUSH1 0x20 DUP6 ADD PUSH2 0x8A5 JUMP JUMPDEST SWAP2 POP PUSH1 0x40 DUP5 ADD CALLDATALOAD SWAP1 POP SWAP3 POP SWAP3 POP SWAP3 JUMP JUMPDEST PUSH1 0x0 DUP1 PUSH1 0x40 DUP4 DUP6 SUB SLT ISZERO PUSH2 0x955 JUMPI DUP2 DUP3 REVERT JUMPDEST PUSH2 0x95E DUP4 PUSH2 0x8A5 JUMP JUMPDEST SWAP5 PUSH1 0x20 SWAP4 SWAP1 SWAP4 ADD CALLDATALOAD SWAP4 POP POP POP JUMP JUMPDEST PUSH1 0x0 PUSH1 0x20 DUP3 DUP5 SUB SLT ISZERO PUSH2 0x97D JUMPI DUP1 DUP2 REVERT JUMPDEST DUP2 CALLDATALOAD PUSH1 0x1 PUSH1 0x1 PUSH1 0xE0 SHL SUB NOT DUP2 AND DUP2 EQ PUSH2 0x325 JUMPI DUP2 DUP3 REVERT JUMPDEST PUSH1 0x0 PUSH1 0x20 DUP3 DUP5 SUB SLT ISZERO PUSH2 0x9A5 JUMPI DUP1 DUP2 REVERT JUMPDEST POP CALLDATALOAD SWAP2 SWAP1 POP JUMP JUMPDEST SWAP1 ISZERO ISZERO DUP2 MSTORE PUSH1 0x20 ADD SWAP1 JUMP JUMPDEST PUSH1 0x0 PUSH1 0x20 DUP1 DUP4 MSTORE DUP4 MLOAD DUP1 DUP3 DUP6 ADD MSTORE DUP3 JUMPDEST DUP2 DUP2 LT ISZERO PUSH2 0x9E3 JUMPI DUP6 DUP2 ADD DUP4 ADD MLOAD DUP6 DUP3 ADD PUSH1 0x40 ADD MSTORE DUP3 ADD PUSH2 0x9C7 JUMP JUMPDEST DUP2 DUP2 GT ISZERO PUSH2 0x9F4 JUMPI DUP4 PUSH1 0x40 DUP4 DUP8 ADD ADD MSTORE JUMPDEST POP PUSH1 0x1F ADD PUSH1 0x1F NOT AND SWAP3 SWAP1 SWAP3 ADD PUSH1 0x40 ADD SWAP4 SWAP3 POP POP POP JUMP JUMPDEST PUSH1 0x20 DUP1 DUP3 MSTORE PUSH1 0x10 SWAP1 DUP3 ADD MSTORE PUSH16 0x416D6F756E7420746F6F206C61726765 PUSH1 0x80 SHL PUSH1 0x40 DUP3 ADD MSTORE PUSH1 0x60 ADD SWAP1 JUMP JUMPDEST PUSH1 0x20 DUP1 DUP3 MSTORE PUSH1 0x2C SWAP1 DUP3 ADD MSTORE PUSH32 0x546F6F2066657720746F6B656E732061726520756E6C6F636B656420696E2079 PUSH1 0x40 DUP3 ADD MSTORE PUSH12 0x6F7572206163636F756E7421 PUSH1 0xA0 SHL PUSH1 0x60 DUP3 ADD MSTORE PUSH1 0x80 ADD SWAP1 JUMP JUMPDEST PUSH1 0x20 DUP1 DUP3 MSTORE PUSH1 0x2B SWAP1 DUP3 ADD MSTORE PUSH32 0x546F6F2066657720746F6B656E732061726520756E6C6F636B656420696E2079 PUSH1 0x40 DUP3 ADD MSTORE PUSH11 0x1BDD5C881858D8DBDD5B9D PUSH1 0xAA SHL PUSH1 0x60 DUP3 ADD MSTORE PUSH1 0x80 ADD SWAP1 JUMP JUMPDEST PUSH1 0x20 DUP1 DUP3 MSTORE PUSH1 0x2B SWAP1 DUP3 ADD MSTORE PUSH32 0x4F6E6C79207468652053746F726546726F6E7420697320616C6C6F7765642074 PUSH1 0x40 DUP3 ADD MSTORE PUSH11 0x37903AB9B2903A3434B997 PUSH1 0xA9 SHL PUSH1 0x60 DUP3 ADD MSTORE PUSH1 0x80 ADD SWAP1 JUMP JUMPDEST SWAP1 DUP2 MSTORE PUSH1 0x20 ADD SWAP1 JUMP JUMPDEST PUSH1 0x0 DUP3 NOT DUP3 GT ISZERO PUSH2 0xB32 JUMPI PUSH2 0xB32 PUSH2 0xB6D JUMP JUMPDEST POP ADD SWAP1 JUMP JUMPDEST PUSH1 0x0 DUP2 PUSH1 0x0 NOT DIV DUP4 GT DUP3 ISZERO ISZERO AND ISZERO PUSH2 0xB51 JUMPI PUSH2 0xB51 PUSH2 0xB6D JUMP JUMPDEST POP MUL SWAP1 JUMP JUMPDEST PUSH1 0x0 DUP3 DUP3 LT ISZERO PUSH2 0xB68 JUMPI PUSH2 0xB68 PUSH2 0xB6D JUMP JUMPDEST POP SUB SWAP1 JUMP JUMPDEST PUSH4 0x4E487B71 PUSH1 0xE0 SHL PUSH1 0x0 MSTORE PUSH1 0x11 PUSH1 0x4 MSTORE PUSH1 0x24 PUSH1 0x0 REVERT INVALID LOG2 PUSH5 0x6970667358 0x22 SLT KECCAK256 0x21 0x26 BLOCKHASH SWAP3 DUP1 ORIGIN DUP11 0xC DUP2 0xF GASLIMIT SWAP13 DUP6 DUP9 PUSH15 0xA0F57CAFC30DB8C4E38B7C49C090C3 SWAP10 SWAP16 PUSH5 0x736F6C6343 STOP ADDMOD ADD STOP CALLER "
		},
		"gasEstimates": {
			"creation": {
				"codeDepositCost": "1549600",
				"executionCost": "infinite",
				"totalCost": "infinite"
			},
			"external": {
				"CurrencyProvider()": "1115",
				"ProviderAddress()": "1137",
				"_auctions(uint256)": "infinite",
				"approve(address,uint256)": "45927",
				"balanceOf(address)": "1337",
				"bid(uint256,uint256)": "infinite",
				"bid(uint256,uint256,string)": "infinite",
				"buyUnit(uint8)": "infinite",
				"buyUnit(uint8,string)": "infinite",
				"name()": "infinite",
				"ownerOf(uint256)": "1258",
				"ownerToUnitCount(address)": "1340",
				"ownerToUnitIndices(address,uint256)": "2211",
				"squadIndexToOwner(uint256)": "1259",
				"squads(uint256)": "2311",
				"startAuction(uint256[],uint256,string)": "infinite",
				"supportsInterface(bytes4)": "409",
				"symbol()": "infinite",
				"tokensOfOwner(address)": "infinite",
				"totalSupply()": "1096",
				"transfer(address,uint256)": "108782",
				"transferFrom(address,address,uint256)": "infinite",
				"unitIndexToAllowed(uint256)": "1324",
				"unitIndexToOwner(uint256)": "1302",
				"unitIndexToSquadIndex(uint256)": "1215",
				"unitIndexToState(uint256)": "1299",
				"units(uint256)": "infinite",
				"withdrawAuction(uint256)": "infinite"
			},
			"internal": {
				"_buyUnit(address,enum UnitType,string memory)": "infinite",
				"_createSquad(address,uint256[] memory)": "infinite"
			}
		},
		"methodIdentifiers": {
			"CurrencyProvider()": "99975226",
			"ProviderAddress()": "d1454521",
			"_auctions(uint256)": "17dc6bf6",
			"approve(address,uint256)": "095ea7b3",
			"balanceOf(address)": "70a08231",
			"bid(uint256,uint256)": "598647f8",
			"bid(uint256,uint256,string)": "76d4fc57",
			"buyUnit(uint8)": "27e78202",
			"buyUnit(uint8,string)": "898f4299",
			"name()": "06fdde03",
			"ownerOf(uint256)": "6352211e",
			"ownerToUnitCount(address)": "e380497d",
			"ownerToUnitIndices(address,uint256)": "863858de",
			"squadIndexToOwner(uint256)": "313de62b",
			"squads(uint256)": "de1eecc9",
			"startAuction(uint256[],uint256,string)": "54c8a21e",
			"supportsInterface(bytes4)": "01ffc9a7",
			"symbol()": "95d89b41",
			"tokensOfOwner(address)": "8462151c",
			"totalSupply()": "18160ddd",
			"transfer(address,uint256)": "a9059cbb",
			"transferFrom(address,address,uint256)": "23b872dd",
			"unitIndexToAllowed(uint256)": "a98e99b1",
			"unitIndexToOwner(uint256)": "d9bd982a",
			"unitIndexToSquadIndex(uint256)": "dd481246",
			"unitIndexToState(uint256)": "a49955be",
			"units(uint256)": "e5fba6cc",
			"withdrawAuction(uint256)": "b5fc9833"
		}
	},
	"abi": [
		{
			"inputs": [],
			"stateMutability": "nonpayable",
			"type": "constructor"
		},
		{
			"anonymous": false,
			"inputs": [
				{
					"indexed": false,
					"internalType": "address",
					"name": "owner",
					"type": "address"
				},
				{
					"indexed": false,
					"internalType": "address",
					"name": "approved",
					"type": "address"
				},
				{
					"indexed": false,
					"internalType": "uint256",
					"name": "tokenId",
					"type": "uint256"
				}
			],
			"name": "Approval",
			"type": "event"
		},
		{
			"anonymous": false,
			"inputs": [
				{
					"indexed": false,
					"internalType": "address",
					"name": "owner",
					"type": "address"
				},
				{
					"indexed": false,
					"internalType": "uint256",
					"name": "_id",
					"type": "uint256"
				}
			],
			"name": "SquadCreated",
			"type": "event"
		},
		{
			"anonymous": false,
			"inputs": [
				{
					"indexed": false,
					"internalType": "address",
					"name": "from",
					"type": "address"
				},
				{
					"indexed": false,
					"internalType": "address",
					"name": "to",
					"type": "address"
				},
				{
					"indexed": false,
					"internalType": "uint256",
					"name": "tokenId",
					"type": "uint256"
				}
			],
			"name": "Transfer",
			"type": "event"
		},
		{
			"anonymous": false,
			"inputs": [
				{
					"indexed": false,
					"internalType": "address",
					"name": "owner",
					"type": "address"
				},
				{
					"indexed": true,
					"internalType": "uint256",
					"name": "id",
					"type": "uint256"
				}
			],
			"name": "UnitCreated",
			"type": "event"
		},
		{
			"inputs": [],
			"name": "CurrencyProvider",
			"outputs": [
				{
					"internalType": "contract StoreToken",
					"name": "",
					"type": "address"
				}
			],
			"stateMutability": "view",
			"type": "function"
		},
		{
			"inputs": [],
			"name": "ProviderAddress",
			"outputs": [
				{
					"internalType": "address",
					"name": "",
					"type": "address"
				}
			],
			"stateMutability": "view",
			"type": "function"
		},
		{
			"inputs": [
				{
					"internalType": "uint256",
					"name": "",
					"type": "uint256"
				}
			],
			"name": "_auctions",
			"outputs": [
				{
					"internalType": "uint256",
					"name": "highestBid",
					"type": "uint256"
				},
				{
					"internalType": "address",
					"name": "highestBidder",
					"type": "address"
				},
				{
					"internalType": "address",
					"name": "host",
					"type": "address"
				},
				{
					"internalType": "string",
					"name": "name",
					"type": "string"
				},
				{
					"internalType": "string",
					"name": "highestBidText",
					"type": "string"
				},
				{
					"internalType": "uint256",
					"name": "endTime",
					"type": "uint256"
				}
			],
			"stateMutability": "view",
			"type": "function"
		},
		{
			"inputs": [
				{
					"internalType": "address",
					"name": "_to",
					"type": "address"
				},
				{
					"internalType": "uint256",
					"name": "_tokenId",
					"type": "uint256"
				}
			],
			"name": "approve",
			"outputs": [],
			"stateMutability": "nonpayable",
			"type": "function"
		},
		{
			"inputs": [
				{
					"internalType": "address",
					"name": "_owner",
					"type": "address"
				}
			],
			"name": "balanceOf",
			"outputs": [
				{
					"internalType": "uint256",
					"name": "balance",
					"type": "uint256"
				}
			],
			"stateMutability": "view",
			"type": "function"
		},
		{
			"inputs": [
				{
					"internalType": "uint256",
					"name": "_auctionId",
					"type": "uint256"
				},
				{
					"internalType": "uint256",
					"name": "_value",
					"type": "uint256"
				}
			],
			"name": "bid",
			"outputs": [],
			"stateMutability": "nonpayable",
			"type": "function"
		},
		{
			"inputs": [
				{
					"internalType": "uint256",
					"name": "_auctionId",
					"type": "uint256"
				},
				{
					"internalType": "uint256",
					"name": "_value",
					"type": "uint256"
				},
				{
					"internalType": "string",
					"name": "_msg",
					"type": "string"
				}
			],
			"name": "bid",
			"outputs": [],
			"stateMutability": "nonpayable",
			"type": "function"
		},
		{
			"inputs": [
				{
					"internalType": "enum UnitType",
					"name": "_type",
					"type": "uint8"
				}
			],
			"name": "buyUnit",
			"outputs": [
				{
					"internalType": "uint256",
					"name": "",
					"type": "uint256"
				}
			],
			"stateMutability": "nonpayable",
			"type": "function"
		},
		{
			"inputs": [
				{
					"internalType": "enum UnitType",
					"name": "_type",
					"type": "uint8"
				},
				{
					"internalType": "string",
					"name": "_name",
					"type": "string"
				}
			],
			"name": "buyUnit",
			"outputs": [
				{
					"internalType": "uint256",
					"name": "",
					"type": "uint256"
				}
			],
			"stateMutability": "nonpayable",
			"type": "function"
		},
		{
			"inputs": [],
			"name": "name",
			"outputs": [
				{
					"internalType": "string",
					"name": "",
					"type": "string"
				}
			],
			"stateMutability": "pure",
			"type": "function"
		},
		{
			"inputs": [
				{
					"internalType": "uint256",
					"name": "_tokenId",
					"type": "uint256"
				}
			],
			"name": "ownerOf",
			"outputs": [
				{
					"internalType": "address",
					"name": "owner",
					"type": "address"
				}
			],
			"stateMutability": "view",
			"type": "function"
		},
		{
			"inputs": [
				{
					"internalType": "address",
					"name": "",
					"type": "address"
				}
			],
			"name": "ownerToUnitCount",
			"outputs": [
				{
					"internalType": "uint256",
					"name": "",
					"type": "uint256"
				}
			],
			"stateMutability": "view",
			"type": "function"
		},
		{
			"inputs": [
				{
					"internalType": "address",
					"name": "",
					"type": "address"
				},
				{
					"internalType": "uint256",
					"name": "",
					"type": "uint256"
				}
			],
			"name": "ownerToUnitIndices",
			"outputs": [
				{
					"internalType": "uint256",
					"name": "",
					"type": "uint256"
				}
			],
			"stateMutability": "view",
			"type": "function"
		},
		{
			"inputs": [
				{
					"internalType": "uint256",
					"name": "",
					"type": "uint256"
				}
			],
			"name": "squadIndexToOwner",
			"outputs": [
				{
					"internalType": "address",
					"name": "",
					"type": "address"
				}
			],
			"stateMutability": "view",
			"type": "function"
		},
		{
			"inputs": [
				{
					"internalType": "uint256",
					"name": "",
					"type": "uint256"
				}
			],
			"name": "squads",
			"outputs": [
				{
					"internalType": "uint8",
					"name": "unitCount",
					"type": "uint8"
				},
				{
					"internalType": "uint16",
					"name": "stashedTokens",
					"type": "uint16"
				},
				{
					"internalType": "enum DeploymentState",
					"name": "state",
					"type": "uint8"
				},
				{
					"internalType": "uint16",
					"name": "deployTime",
					"type": "uint16"
				}
			],
			"stateMutability": "view",
			"type": "function"
		},
		{
			"inputs": [
				{
					"internalType": "uint256[]",
					"name": "_assets",
					"type": "uint256[]"
				},
				{
					"internalType": "uint256",
					"name": "_asking",
					"type": "uint256"
				},
				{
					"internalType": "string",
					"name": "title",
					"type": "string"
				}
			],
			"name": "startAuction",
			"outputs": [
				{
					"internalType": "uint256",
					"name": "auctionId",
					"type": "uint256"
				}
			],
			"stateMutability": "nonpayable",
			"type": "function"
		},
		{
			"inputs": [
				{
					"internalType": "bytes4",
					"name": "_interfaceID",
					"type": "bytes4"
				}
			],
			"name": "supportsInterface",
			"outputs": [
				{
					"internalType": "bool",
					"name": "",
					"type": "bool"
				}
			],
			"stateMutability": "view",
			"type": "function"
		},
		{
			"inputs": [],
			"name": "symbol",
			"outputs": [
				{
					"internalType": "string",
					"name": "",
					"type": "string"
				}
			],
			"stateMutability": "pure",
			"type": "function"
		},
		{
			"inputs": [
				{
					"internalType": "address",
					"name": "_owner",
					"type": "address"
				}
			],
			"name": "tokensOfOwner",
			"outputs": [
				{
					"internalType": "uint256[]",
					"name": "tokenIds",
					"type": "uint256[]"
				}
			],
			"stateMutability": "view",
			"type": "function"
		},
		{
			"inputs": [],
			"name": "totalSupply",
			"outputs": [
				{
					"internalType": "uint256",
					"name": "total",
					"type": "uint256"
				}
			],
			"stateMutability": "view",
			"type": "function"
		},
		{
			"inputs": [
				{
					"internalType": "address",
					"name": "_to",
					"type": "address"
				},
				{
					"internalType": "uint256",
					"name": "_tokenId",
					"type": "uint256"
				}
			],
			"name": "transfer",
			"outputs": [],
			"stateMutability": "nonpayable",
			"type": "function"
		},
		{
			"inputs": [
				{
					"internalType": "address",
					"name": "_from",
					"type": "address"
				},
				{
					"internalType": "address",
					"name": "_to",
					"type": "address"
				},
				{
					"internalType": "uint256",
					"name": "_tokenId",
					"type": "uint256"
				}
			],
			"name": "transferFrom",
			"outputs": [],
			"stateMutability": "nonpayable",
			"type": "function"
		},
		{
			"inputs": [
				{
					"internalType": "uint256",
					"name": "",
					"type": "uint256"
				}
			],
			"name": "unitIndexToAllowed",
			"outputs": [
				{
					"internalType": "address",
					"name": "",
					"type": "address"
				}
			],
			"stateMutability": "view",
			"type": "function"
		},
		{
			"inputs": [
				{
					"internalType": "uint256",
					"name": "",
					"type": "uint256"
				}
			],
			"name": "unitIndexToOwner",
			"outputs": [
				{
					"internalType": "address",
					"name": "",
					"type": "address"
				}
			],
			"stateMutability": "view",
			"type": "function"
		},
		{
			"inputs": [
				{
					"internalType": "uint256",
					"name": "",
					"type": "uint256"
				}
			],
			"name": "unitIndexToSquadIndex",
			"outputs": [
				{
					"internalType": "uint256",
					"name": "",
					"type": "uint256"
				}
			],
			"stateMutability": "view",
			"type": "function"
		},
		{
			"inputs": [
				{
					"internalType": "uint256",
					"name": "",
					"type": "uint256"
				}
			],
			"name": "unitIndexToState",
			"outputs": [
				{
					"internalType": "enum UnitState",
					"name": "",
					"type": "uint8"
				}
			],
			"stateMutability": "view",
			"type": "function"
		},
		{
			"inputs": [
				{
					"internalType": "uint256",
					"name": "",
					"type": "uint256"
				}
			],
			"name": "units",
			"outputs": [
				{
					"internalType": "uint16",
					"name": "attack",
					"type": "uint16"
				},
				{
					"internalType": "uint16",
					"name": "defence",
					"type": "uint16"
				},
				{
					"internalType": "uint16",
					"name": "level",
					"type": "uint16"
				},
				{
					"internalType": "uint16",
					"name": "maxHealth",
					"type": "uint16"
				},
				{
					"internalType": "uint16",
					"name": "curHealth",
					"type": "uint16"
				},
				{
					"internalType": "enum UnitType",
					"name": "utype",
					"type": "uint8"
				},
				{
					"internalType": "string",
					"name": "name",
					"type": "string"
				}
			],
			"stateMutability": "view",
			"type": "function"
		},
		{
			"inputs": [
				{
					"internalType": "uint256",
					"name": "_auctionId",
					"type": "uint256"
				}
			],
			"name": "withdrawAuction",
			"outputs": [
				{
					"internalType": "bool",
					"name": "success",
					"type": "bool"
				}
			],
			"stateMutability": "nonpayable",
			"type": "function"
		}
	]
}