{
	"data": {
		"bytecode": {
			"linkReferences": {
				"MatchMaker_flat.sol": {
					"UnitHelpers": [
						{
							"length": 20,
							"start": 1389
						},
						{
							"length": 20,
							"start": 2200
						}
					]
				}
			},
			"object": "60806040526000600d5534801561001557600080fd5b50610e09806100256000396000f3fe608060405234801561001057600080fd5b50600436106100a95760003560e01c80636352211e116100715780636352211e1461014a57806370a082311461018b5780638462151c1461019e57806395d89b41146101be578063a9059cbb146101e0578063e4b50cb8146101f3576100a9565b806306fdde03146100ae578063095ea7b3146100f057806318160ddd1461010557806323b872dd146101175780632e009f761461012a575b600080fd5b60408051808201909152601481527320baba37a1b432b9b9902ab734ba102a37b5b2b760611b60208201525b6040516100e79190610c09565b60405180910390f35b6101036100fe366004610b1f565b610213565b005b600d545b6040519081526020016100e7565b610103610125366004610ae4565b6103a7565b61013d610138366004610b48565b6105e9565b6040516100e79190610bef565b610173610158366004610b48565b6000908152600360205260409020546001600160a01b031690565b6040516001600160a01b0390911681526020016100e7565b610109610199366004610ac3565b610601565b6101b16101ac366004610ac3565b610657565b6040516100e79190610bab565b60408051808201909152600681526541434853535560d01b60208201526100da565b6101036101ee366004610b1f565b610747565b610206610201366004610b48565b610907565b6040516100e79190610cee565b338282610235816000908152600360205260409020546001600160a01b031690565b6001600160a01b0316836001600160a01b03161461026e5760405162461bcd60e51b815260040161026590610c8a565b60405180910390fd5b816001600160a01b0316836001600160a01b031614156102a05760405162461bcd60e51b815260040161026590610c1c565b600360008281526002602052604090205460ff1660048111156102d357634e487b7160e01b600052602160045260246000fd5b146102f05760405162461bcd60e51b815260040161026590610cc1565b6001600160a01b0382166103165760405162461bcd60e51b815260040161026590610c53565b600084815260046020818152604080842080546001600160a01b0319166001600160a01b038b161790556002909152909120805460ff19166001830217905550604080513381526001600160a01b03871660208201529081018590527f8c5be1e5ebec7d5bd14f71427d1e84f3dd0314c0f7b2291e5b200ac8c7c3b925906060015b60405180910390a15050505050565b8282826103c9816000908152600360205260409020546001600160a01b031690565b6001600160a01b0316836001600160a01b0316146103f95760405162461bcd60e51b815260040161026590610c8a565b816001600160a01b0316836001600160a01b0316141561042b5760405162461bcd60e51b815260040161026590610c1c565b600360008281526002602052604090205460ff16600481111561045e57634e487b7160e01b600052602160045260246000fd5b1461047b5760405162461bcd60e51b815260040161026590610cc1565b6001600160a01b0382166104a15760405162461bcd60e51b815260040161026590610c53565b6000848152600460205260409020546001600160a01b038681169116146105145760405162461bcd60e51b815260206004820152602160248201527f556e6974206973206e6f742070726f6d6973656420746f2074686174207573656044820152603960f91b6064820152608401610265565b604051632149e0dd60e11b8152600060048201526001600160a01b038088166024830152861660448201526064810185905273__$fc5b9f10ef01c0fbaa7e8430f43b2a1a96$__90634293c1ba9060840160006040518083038186803b15801561057d57600080fd5b505af4158015610591573d6000803e3d6000fd5b5050604080516001600160a01b03808b168252891660208201529081018790527fddf252ad1be2c89b69c2b068fc378daa952ba7f163c4a11628f55a4df523b3ef9250606001905060405180910390a1505050505050565b60008181526002602052604090205460ff165b919050565b6000805b600154811015610651576000818152600360205260409020546001600160a01b038481169116141561063f578161063b81610d96565b9250505b8061064981610d96565b915050610605565b50919050565b6001600160a01b0381166000908152600660205260408120546060919067ffffffffffffffff81111561069a57634e487b7160e01b600052604160045260246000fd5b6040519080825280602002602001820160405280156106c3578160200160208202803683370190505b50915060005b600154811015610740576000818152600360205260409020546001600160a01b038581169116141561072e5780838361070181610d96565b94508151811061072157634e487b7160e01b600052603260045260246000fd5b6020026020010181815250505b8061073881610d96565b9150506106c9565b5050919050565b338282610769816000908152600360205260409020546001600160a01b031690565b6001600160a01b0316836001600160a01b0316146107995760405162461bcd60e51b815260040161026590610c8a565b816001600160a01b0316836001600160a01b031614156107cb5760405162461bcd60e51b815260040161026590610c1c565b600360008281526002602052604090205460ff1660048111156107fe57634e487b7160e01b600052602160045260246000fd5b1461081b5760405162461bcd60e51b815260040161026590610cc1565b6001600160a01b0382166108415760405162461bcd60e51b815260040161026590610c53565b604051632149e0dd60e11b8152600060048201523360248201526001600160a01b03861660448201526064810185905273__$fc5b9f10ef01c0fbaa7e8430f43b2a1a96$__90634293c1ba9060840160006040518083038186803b1580156108a857600080fd5b505af41580156108bc573d6000803e3d6000fd5b5050604080513381526001600160a01b03891660208201529081018790527fddf252ad1be2c89b69c2b068fc378daa952ba7f163c4a11628f55a4df523b3ef92506060019050610398565b6109406040805160c081018252600080825260208201819052918101829052606081018290529060808201908152602001606081525090565b600180548390811061096257634e487b7160e01b600052603260045260246000fd5b60009182526020918290206040805160c0810182526002938402909201805461ffff80821685526201000082048116968501969096526401000000008104861692840192909252660100000000000082049094166060830152909291608084019168010000000000000000900460ff16908111156109f057634e487b7160e01b600052602160045260246000fd5b6002811115610a0f57634e487b7160e01b600052602160045260246000fd5b8152602001600182018054610a2390610d61565b80601f0160208091040260200160405190810160405280929190818152602001828054610a4f90610d61565b8015610a9c5780601f10610a7157610100808354040283529160200191610a9c565b820191906000526020600020905b815481529060010190602001808311610a7f57829003601f168201915b5050505050815250509050919050565b80356001600160a01b03811681146105fc57600080fd5b600060208284031215610ad4578081fd5b610add82610aac565b9392505050565b600080600060608486031215610af8578182fd5b610b0184610aac565b9250610b0f60208501610aac565b9150604084013590509250925092565b60008060408385031215610b31578182fd5b610b3a83610aac565b946020939093013593505050565b600060208284031215610b59578081fd5b5035919050565b60008151808452815b81811015610b8557602081850181015186830182015201610b69565b81811115610b965782602083870101525b50601f01601f19169290920160200192915050565b6020808252825182820181905260009190848201906040850190845b81811015610be357835183529284019291840191600101610bc7565b50909695505050505050565b6020810160058310610c0357610c03610dbd565b91905290565b600060208252610add6020830184610b60565b60208082526019908201527f596f7520616c7265616479206f776e207468697320756e697400000000000000604082015260600190565b6020808252601b908201527f4e6f7420612076616c696420616464726573732e20536f727279210000000000604082015260600190565b60208082526017908201527f596f7520646f6e2774206f776e207468697320756e6974000000000000000000604082015260600190565b602080825260139082015272556e697420697320756e617661696c61626c6560681b604082015260600190565b60006020825261ffff80845116602084015280602085015116604084015280604085015116606084015280606085015116608084015250608083015160038110610d3a57610d3a610dbd565b8060a08401525060a083015160c080840152610d5960e0840182610b60565b949350505050565b600181811c90821680610d7557607f821691505b6020821081141561065157634e487b7160e01b600052602260045260246000fd5b6000600019821415610db657634e487b7160e01b81526011600452602481fd5b5060010190565b634e487b7160e01b600052602160045260246000fdfea2646970667358221220f3deeed37ef9f7d62d92e06600d13fb9860831f99a3a028e65f61381409f027464736f6c63430008030033",
			"opcodes": "PUSH1 0x80 PUSH1 0x40 MSTORE PUSH1 0x0 PUSH1 0xD SSTORE CALLVALUE DUP1 ISZERO PUSH2 0x15 JUMPI PUSH1 0x0 DUP1 REVERT JUMPDEST POP PUSH2 0xE09 DUP1 PUSH2 0x25 PUSH1 0x0 CODECOPY PUSH1 0x0 RETURN INVALID PUSH1 0x80 PUSH1 0x40 MSTORE CALLVALUE DUP1 ISZERO PUSH2 0x10 JUMPI PUSH1 0x0 DUP1 REVERT JUMPDEST POP PUSH1 0x4 CALLDATASIZE LT PUSH2 0xA9 JUMPI PUSH1 0x0 CALLDATALOAD PUSH1 0xE0 SHR DUP1 PUSH4 0x6352211E GT PUSH2 0x71 JUMPI DUP1 PUSH4 0x6352211E EQ PUSH2 0x14A JUMPI DUP1 PUSH4 0x70A08231 EQ PUSH2 0x18B JUMPI DUP1 PUSH4 0x8462151C EQ PUSH2 0x19E JUMPI DUP1 PUSH4 0x95D89B41 EQ PUSH2 0x1BE JUMPI DUP1 PUSH4 0xA9059CBB EQ PUSH2 0x1E0 JUMPI DUP1 PUSH4 0xE4B50CB8 EQ PUSH2 0x1F3 JUMPI PUSH2 0xA9 JUMP JUMPDEST DUP1 PUSH4 0x6FDDE03 EQ PUSH2 0xAE JUMPI DUP1 PUSH4 0x95EA7B3 EQ PUSH2 0xF0 JUMPI DUP1 PUSH4 0x18160DDD EQ PUSH2 0x105 JUMPI DUP1 PUSH4 0x23B872DD EQ PUSH2 0x117 JUMPI DUP1 PUSH4 0x2E009F76 EQ PUSH2 0x12A JUMPI JUMPDEST PUSH1 0x0 DUP1 REVERT JUMPDEST PUSH1 0x40 DUP1 MLOAD DUP1 DUP3 ADD SWAP1 SWAP2 MSTORE PUSH1 0x14 DUP2 MSTORE PUSH20 0x20BABA37A1B432B9B9902AB734BA102A37B5B2B7 PUSH1 0x61 SHL PUSH1 0x20 DUP3 ADD MSTORE JUMPDEST PUSH1 0x40 MLOAD PUSH2 0xE7 SWAP2 SWAP1 PUSH2 0xC09 JUMP JUMPDEST PUSH1 0x40 MLOAD DUP1 SWAP2 SUB SWAP1 RETURN JUMPDEST PUSH2 0x103 PUSH2 0xFE CALLDATASIZE PUSH1 0x4 PUSH2 0xB1F JUMP JUMPDEST PUSH2 0x213 JUMP JUMPDEST STOP JUMPDEST PUSH1 0xD SLOAD JUMPDEST PUSH1 0x40 MLOAD SWAP1 DUP2 MSTORE PUSH1 0x20 ADD PUSH2 0xE7 JUMP JUMPDEST PUSH2 0x103 PUSH2 0x125 CALLDATASIZE PUSH1 0x4 PUSH2 0xAE4 JUMP JUMPDEST PUSH2 0x3A7 JUMP JUMPDEST PUSH2 0x13D PUSH2 0x138 CALLDATASIZE PUSH1 0x4 PUSH2 0xB48 JUMP JUMPDEST PUSH2 0x5E9 JUMP JUMPDEST PUSH1 0x40 MLOAD PUSH2 0xE7 SWAP2 SWAP1 PUSH2 0xBEF JUMP JUMPDEST PUSH2 0x173 PUSH2 0x158 CALLDATASIZE PUSH1 0x4 PUSH2 0xB48 JUMP JUMPDEST PUSH1 0x0 SWAP1 DUP2 MSTORE PUSH1 0x3 PUSH1 0x20 MSTORE PUSH1 0x40 SWAP1 KECCAK256 SLOAD PUSH1 0x1 PUSH1 0x1 PUSH1 0xA0 SHL SUB AND SWAP1 JUMP JUMPDEST PUSH1 0x40 MLOAD PUSH1 0x1 PUSH1 0x1 PUSH1 0xA0 SHL SUB SWAP1 SWAP2 AND DUP2 MSTORE PUSH1 0x20 ADD PUSH2 0xE7 JUMP JUMPDEST PUSH2 0x109 PUSH2 0x199 CALLDATASIZE PUSH1 0x4 PUSH2 0xAC3 JUMP JUMPDEST PUSH2 0x601 JUMP JUMPDEST PUSH2 0x1B1 PUSH2 0x1AC CALLDATASIZE PUSH1 0x4 PUSH2 0xAC3 JUMP JUMPDEST PUSH2 0x657 JUMP JUMPDEST PUSH1 0x40 MLOAD PUSH2 0xE7 SWAP2 SWAP1 PUSH2 0xBAB JUMP JUMPDEST PUSH1 0x40 DUP1 MLOAD DUP1 DUP3 ADD SWAP1 SWAP2 MSTORE PUSH1 0x6 DUP2 MSTORE PUSH6 0x414348535355 PUSH1 0xD0 SHL PUSH1 0x20 DUP3 ADD MSTORE PUSH2 0xDA JUMP JUMPDEST PUSH2 0x103 PUSH2 0x1EE CALLDATASIZE PUSH1 0x4 PUSH2 0xB1F JUMP JUMPDEST PUSH2 0x747 JUMP JUMPDEST PUSH2 0x206 PUSH2 0x201 CALLDATASIZE PUSH1 0x4 PUSH2 0xB48 JUMP JUMPDEST PUSH2 0x907 JUMP JUMPDEST PUSH1 0x40 MLOAD PUSH2 0xE7 SWAP2 SWAP1 PUSH2 0xCEE JUMP JUMPDEST CALLER DUP3 DUP3 PUSH2 0x235 DUP2 PUSH1 0x0 SWAP1 DUP2 MSTORE PUSH1 0x3 PUSH1 0x20 MSTORE PUSH1 0x40 SWAP1 KECCAK256 SLOAD PUSH1 0x1 PUSH1 0x1 PUSH1 0xA0 SHL SUB AND SWAP1 JUMP JUMPDEST PUSH1 0x1 PUSH1 0x1 PUSH1 0xA0 SHL SUB AND DUP4 PUSH1 0x1 PUSH1 0x1 PUSH1 0xA0 SHL SUB AND EQ PUSH2 0x26E JUMPI PUSH1 0x40 MLOAD PUSH3 0x461BCD PUSH1 0xE5 SHL DUP2 MSTORE PUSH1 0x4 ADD PUSH2 0x265 SWAP1 PUSH2 0xC8A JUMP JUMPDEST PUSH1 0x40 MLOAD DUP1 SWAP2 SUB SWAP1 REVERT JUMPDEST DUP2 PUSH1 0x1 PUSH1 0x1 PUSH1 0xA0 SHL SUB AND DUP4 PUSH1 0x1 PUSH1 0x1 PUSH1 0xA0 SHL SUB AND EQ ISZERO PUSH2 0x2A0 JUMPI PUSH1 0x40 MLOAD PUSH3 0x461BCD PUSH1 0xE5 SHL DUP2 MSTORE PUSH1 0x4 ADD PUSH2 0x265 SWAP1 PUSH2 0xC1C JUMP JUMPDEST PUSH1 0x3 PUSH1 0x0 DUP3 DUP2 MSTORE PUSH1 0x2 PUSH1 0x20 MSTORE PUSH1 0x40 SWAP1 KECCAK256 SLOAD PUSH1 0xFF AND PUSH1 0x4 DUP2 GT ISZERO PUSH2 0x2D3 JUMPI PUSH4 0x4E487B71 PUSH1 0xE0 SHL PUSH1 0x0 MSTORE PUSH1 0x21 PUSH1 0x4 MSTORE PUSH1 0x24 PUSH1 0x0 REVERT JUMPDEST EQ PUSH2 0x2F0 JUMPI PUSH1 0x40 MLOAD PUSH3 0x461BCD PUSH1 0xE5 SHL DUP2 MSTORE PUSH1 0x4 ADD PUSH2 0x265 SWAP1 PUSH2 0xCC1 JUMP JUMPDEST PUSH1 0x1 PUSH1 0x1 PUSH1 0xA0 SHL SUB DUP3 AND PUSH2 0x316 JUMPI PUSH1 0x40 MLOAD PUSH3 0x461BCD PUSH1 0xE5 SHL DUP2 MSTORE PUSH1 0x4 ADD PUSH2 0x265 SWAP1 PUSH2 0xC53 JUMP JUMPDEST PUSH1 0x0 DUP5 DUP2 MSTORE PUSH1 0x4 PUSH1 0x20 DUP2 DUP2 MSTORE PUSH1 0x40 DUP1 DUP5 KECCAK256 DUP1 SLOAD PUSH1 0x1 PUSH1 0x1 PUSH1 0xA0 SHL SUB NOT AND PUSH1 0x1 PUSH1 0x1 PUSH1 0xA0 SHL SUB DUP12 AND OR SWAP1 SSTORE PUSH1 0x2 SWAP1 SWAP2 MSTORE SWAP1 SWAP2 KECCAK256 DUP1 SLOAD PUSH1 0xFF NOT AND PUSH1 0x1 DUP4 MUL OR SWAP1 SSTORE POP PUSH1 0x40 DUP1 MLOAD CALLER DUP2 MSTORE PUSH1 0x1 PUSH1 0x1 PUSH1 0xA0 SHL SUB DUP8 AND PUSH1 0x20 DUP3 ADD MSTORE SWAP1 DUP2 ADD DUP6 SWAP1 MSTORE PUSH32 0x8C5BE1E5EBEC7D5BD14F71427D1E84F3DD0314C0F7B2291E5B200AC8C7C3B925 SWAP1 PUSH1 0x60 ADD JUMPDEST PUSH1 0x40 MLOAD DUP1 SWAP2 SUB SWAP1 LOG1 POP POP POP POP POP JUMP JUMPDEST DUP3 DUP3 DUP3 PUSH2 0x3C9 DUP2 PUSH1 0x0 SWAP1 DUP2 MSTORE PUSH1 0x3 PUSH1 0x20 MSTORE PUSH1 0x40 SWAP1 KECCAK256 SLOAD PUSH1 0x1 PUSH1 0x1 PUSH1 0xA0 SHL SUB AND SWAP1 JUMP JUMPDEST PUSH1 0x1 PUSH1 0x1 PUSH1 0xA0 SHL SUB AND DUP4 PUSH1 0x1 PUSH1 0x1 PUSH1 0xA0 SHL SUB AND EQ PUSH2 0x3F9 JUMPI PUSH1 0x40 MLOAD PUSH3 0x461BCD PUSH1 0xE5 SHL DUP2 MSTORE PUSH1 0x4 ADD PUSH2 0x265 SWAP1 PUSH2 0xC8A JUMP JUMPDEST DUP2 PUSH1 0x1 PUSH1 0x1 PUSH1 0xA0 SHL SUB AND DUP4 PUSH1 0x1 PUSH1 0x1 PUSH1 0xA0 SHL SUB AND EQ ISZERO PUSH2 0x42B JUMPI PUSH1 0x40 MLOAD PUSH3 0x461BCD PUSH1 0xE5 SHL DUP2 MSTORE PUSH1 0x4 ADD PUSH2 0x265 SWAP1 PUSH2 0xC1C JUMP JUMPDEST PUSH1 0x3 PUSH1 0x0 DUP3 DUP2 MSTORE PUSH1 0x2 PUSH1 0x20 MSTORE PUSH1 0x40 SWAP1 KECCAK256 SLOAD PUSH1 0xFF AND PUSH1 0x4 DUP2 GT ISZERO PUSH2 0x45E JUMPI PUSH4 0x4E487B71 PUSH1 0xE0 SHL PUSH1 0x0 MSTORE PUSH1 0x21 PUSH1 0x4 MSTORE PUSH1 0x24 PUSH1 0x0 REVERT JUMPDEST EQ PUSH2 0x47B JUMPI PUSH1 0x40 MLOAD PUSH3 0x461BCD PUSH1 0xE5 SHL DUP2 MSTORE PUSH1 0x4 ADD PUSH2 0x265 SWAP1 PUSH2 0xCC1 JUMP JUMPDEST PUSH1 0x1 PUSH1 0x1 PUSH1 0xA0 SHL SUB DUP3 AND PUSH2 0x4A1 JUMPI PUSH1 0x40 MLOAD PUSH3 0x461BCD PUSH1 0xE5 SHL DUP2 MSTORE PUSH1 0x4 ADD PUSH2 0x265 SWAP1 PUSH2 0xC53 JUMP JUMPDEST PUSH1 0x0 DUP5 DUP2 MSTORE PUSH1 0x4 PUSH1 0x20 MSTORE PUSH1 0x40 SWAP1 KECCAK256 SLOAD PUSH1 0x1 PUSH1 0x1 PUSH1 0xA0 SHL SUB DUP7 DUP2 AND SWAP2 AND EQ PUSH2 0x514 JUMPI PUSH1 0x40 MLOAD PUSH3 0x461BCD PUSH1 0xE5 SHL DUP2 MSTORE PUSH1 0x20 PUSH1 0x4 DUP3 ADD MSTORE PUSH1 0x21 PUSH1 0x24 DUP3 ADD MSTORE PUSH32 0x556E6974206973206E6F742070726F6D6973656420746F207468617420757365 PUSH1 0x44 DUP3 ADD MSTORE PUSH1 0x39 PUSH1 0xF9 SHL PUSH1 0x64 DUP3 ADD MSTORE PUSH1 0x84 ADD PUSH2 0x265 JUMP JUMPDEST PUSH1 0x40 MLOAD PUSH4 0x2149E0DD PUSH1 0xE1 SHL DUP2 MSTORE PUSH1 0x0 PUSH1 0x4 DUP3 ADD MSTORE PUSH1 0x1 PUSH1 0x1 PUSH1 0xA0 SHL SUB DUP1 DUP9 AND PUSH1 0x24 DUP4 ADD MSTORE DUP7 AND PUSH1 0x44 DUP3 ADD MSTORE PUSH1 0x64 DUP2 ADD DUP6 SWAP1 MSTORE PUSH20 0x0 SWAP1 PUSH4 0x4293C1BA SWAP1 PUSH1 0x84 ADD PUSH1 0x0 PUSH1 0x40 MLOAD DUP1 DUP4 SUB DUP2 DUP7 DUP1 EXTCODESIZE ISZERO DUP1 ISZERO PUSH2 0x57D JUMPI PUSH1 0x0 DUP1 REVERT JUMPDEST POP GAS DELEGATECALL ISZERO DUP1 ISZERO PUSH2 0x591 JUMPI RETURNDATASIZE PUSH1 0x0 DUP1 RETURNDATACOPY RETURNDATASIZE PUSH1 0x0 REVERT JUMPDEST POP POP PUSH1 0x40 DUP1 MLOAD PUSH1 0x1 PUSH1 0x1 PUSH1 0xA0 SHL SUB DUP1 DUP12 AND DUP3 MSTORE DUP10 AND PUSH1 0x20 DUP3 ADD MSTORE SWAP1 DUP2 ADD DUP8 SWAP1 MSTORE PUSH32 0xDDF252AD1BE2C89B69C2B068FC378DAA952BA7F163C4A11628F55A4DF523B3EF SWAP3 POP PUSH1 0x60 ADD SWAP1 POP PUSH1 0x40 MLOAD DUP1 SWAP2 SUB SWAP1 LOG1 POP POP POP POP POP POP JUMP JUMPDEST PUSH1 0x0 DUP2 DUP2 MSTORE PUSH1 0x2 PUSH1 0x20 MSTORE PUSH1 0x40 SWAP1 KECCAK256 SLOAD PUSH1 0xFF AND JUMPDEST SWAP2 SWAP1 POP JUMP JUMPDEST PUSH1 0x0 DUP1 JUMPDEST PUSH1 0x1 SLOAD DUP2 LT ISZERO PUSH2 0x651 JUMPI PUSH1 0x0 DUP2 DUP2 MSTORE PUSH1 0x3 PUSH1 0x20 MSTORE PUSH1 0x40 SWAP1 KECCAK256 SLOAD PUSH1 0x1 PUSH1 0x1 PUSH1 0xA0 SHL SUB DUP5 DUP2 AND SWAP2 AND EQ ISZERO PUSH2 0x63F JUMPI DUP2 PUSH2 0x63B DUP2 PUSH2 0xD96 JUMP JUMPDEST SWAP3 POP POP JUMPDEST DUP1 PUSH2 0x649 DUP2 PUSH2 0xD96 JUMP JUMPDEST SWAP2 POP POP PUSH2 0x605 JUMP JUMPDEST POP SWAP2 SWAP1 POP JUMP JUMPDEST PUSH1 0x1 PUSH1 0x1 PUSH1 0xA0 SHL SUB DUP2 AND PUSH1 0x0 SWAP1 DUP2 MSTORE PUSH1 0x6 PUSH1 0x20 MSTORE PUSH1 0x40 DUP2 KECCAK256 SLOAD PUSH1 0x60 SWAP2 SWAP1 PUSH8 0xFFFFFFFFFFFFFFFF DUP2 GT ISZERO PUSH2 0x69A JUMPI PUSH4 0x4E487B71 PUSH1 0xE0 SHL PUSH1 0x0 MSTORE PUSH1 0x41 PUSH1 0x4 MSTORE PUSH1 0x24 PUSH1 0x0 REVERT JUMPDEST PUSH1 0x40 MLOAD SWAP1 DUP1 DUP3 MSTORE DUP1 PUSH1 0x20 MUL PUSH1 0x20 ADD DUP3 ADD PUSH1 0x40 MSTORE DUP1 ISZERO PUSH2 0x6C3 JUMPI DUP2 PUSH1 0x20 ADD PUSH1 0x20 DUP3 MUL DUP1 CALLDATASIZE DUP4 CALLDATACOPY ADD SWAP1 POP JUMPDEST POP SWAP2 POP PUSH1 0x0 JUMPDEST PUSH1 0x1 SLOAD DUP2 LT ISZERO PUSH2 0x740 JUMPI PUSH1 0x0 DUP2 DUP2 MSTORE PUSH1 0x3 PUSH1 0x20 MSTORE PUSH1 0x40 SWAP1 KECCAK256 SLOAD PUSH1 0x1 PUSH1 0x1 PUSH1 0xA0 SHL SUB DUP6 DUP2 AND SWAP2 AND EQ ISZERO PUSH2 0x72E JUMPI DUP1 DUP4 DUP4 PUSH2 0x701 DUP2 PUSH2 0xD96 JUMP JUMPDEST SWAP5 POP DUP2 MLOAD DUP2 LT PUSH2 0x721 JUMPI PUSH4 0x4E487B71 PUSH1 0xE0 SHL PUSH1 0x0 MSTORE PUSH1 0x32 PUSH1 0x4 MSTORE PUSH1 0x24 PUSH1 0x0 REVERT JUMPDEST PUSH1 0x20 MUL PUSH1 0x20 ADD ADD DUP2 DUP2 MSTORE POP POP JUMPDEST DUP1 PUSH2 0x738 DUP2 PUSH2 0xD96 JUMP JUMPDEST SWAP2 POP POP PUSH2 0x6C9 JUMP JUMPDEST POP POP SWAP2 SWAP1 POP JUMP JUMPDEST CALLER DUP3 DUP3 PUSH2 0x769 DUP2 PUSH1 0x0 SWAP1 DUP2 MSTORE PUSH1 0x3 PUSH1 0x20 MSTORE PUSH1 0x40 SWAP1 KECCAK256 SLOAD PUSH1 0x1 PUSH1 0x1 PUSH1 0xA0 SHL SUB AND SWAP1 JUMP JUMPDEST PUSH1 0x1 PUSH1 0x1 PUSH1 0xA0 SHL SUB AND DUP4 PUSH1 0x1 PUSH1 0x1 PUSH1 0xA0 SHL SUB AND EQ PUSH2 0x799 JUMPI PUSH1 0x40 MLOAD PUSH3 0x461BCD PUSH1 0xE5 SHL DUP2 MSTORE PUSH1 0x4 ADD PUSH2 0x265 SWAP1 PUSH2 0xC8A JUMP JUMPDEST DUP2 PUSH1 0x1 PUSH1 0x1 PUSH1 0xA0 SHL SUB AND DUP4 PUSH1 0x1 PUSH1 0x1 PUSH1 0xA0 SHL SUB AND EQ ISZERO PUSH2 0x7CB JUMPI PUSH1 0x40 MLOAD PUSH3 0x461BCD PUSH1 0xE5 SHL DUP2 MSTORE PUSH1 0x4 ADD PUSH2 0x265 SWAP1 PUSH2 0xC1C JUMP JUMPDEST PUSH1 0x3 PUSH1 0x0 DUP3 DUP2 MSTORE PUSH1 0x2 PUSH1 0x20 MSTORE PUSH1 0x40 SWAP1 KECCAK256 SLOAD PUSH1 0xFF AND PUSH1 0x4 DUP2 GT ISZERO PUSH2 0x7FE JUMPI PUSH4 0x4E487B71 PUSH1 0xE0 SHL PUSH1 0x0 MSTORE PUSH1 0x21 PUSH1 0x4 MSTORE PUSH1 0x24 PUSH1 0x0 REVERT JUMPDEST EQ PUSH2 0x81B JUMPI PUSH1 0x40 MLOAD PUSH3 0x461BCD PUSH1 0xE5 SHL DUP2 MSTORE PUSH1 0x4 ADD PUSH2 0x265 SWAP1 PUSH2 0xCC1 JUMP JUMPDEST PUSH1 0x1 PUSH1 0x1 PUSH1 0xA0 SHL SUB DUP3 AND PUSH2 0x841 JUMPI PUSH1 0x40 MLOAD PUSH3 0x461BCD PUSH1 0xE5 SHL DUP2 MSTORE PUSH1 0x4 ADD PUSH2 0x265 SWAP1 PUSH2 0xC53 JUMP JUMPDEST PUSH1 0x40 MLOAD PUSH4 0x2149E0DD PUSH1 0xE1 SHL DUP2 MSTORE PUSH1 0x0 PUSH1 0x4 DUP3 ADD MSTORE CALLER PUSH1 0x24 DUP3 ADD MSTORE PUSH1 0x1 PUSH1 0x1 PUSH1 0xA0 SHL SUB DUP7 AND PUSH1 0x44 DUP3 ADD MSTORE PUSH1 0x64 DUP2 ADD DUP6 SWAP1 MSTORE PUSH20 0x0 SWAP1 PUSH4 0x4293C1BA SWAP1 PUSH1 0x84 ADD PUSH1 0x0 PUSH1 0x40 MLOAD DUP1 DUP4 SUB DUP2 DUP7 DUP1 EXTCODESIZE ISZERO DUP1 ISZERO PUSH2 0x8A8 JUMPI PUSH1 0x0 DUP1 REVERT JUMPDEST POP GAS DELEGATECALL ISZERO DUP1 ISZERO PUSH2 0x8BC JUMPI RETURNDATASIZE PUSH1 0x0 DUP1 RETURNDATACOPY RETURNDATASIZE PUSH1 0x0 REVERT JUMPDEST POP POP PUSH1 0x40 DUP1 MLOAD CALLER DUP2 MSTORE PUSH1 0x1 PUSH1 0x1 PUSH1 0xA0 SHL SUB DUP10 AND PUSH1 0x20 DUP3 ADD MSTORE SWAP1 DUP2 ADD DUP8 SWAP1 MSTORE PUSH32 0xDDF252AD1BE2C89B69C2B068FC378DAA952BA7F163C4A11628F55A4DF523B3EF SWAP3 POP PUSH1 0x60 ADD SWAP1 POP PUSH2 0x398 JUMP JUMPDEST PUSH2 0x940 PUSH1 0x40 DUP1 MLOAD PUSH1 0xC0 DUP2 ADD DUP3 MSTORE PUSH1 0x0 DUP1 DUP3 MSTORE PUSH1 0x20 DUP3 ADD DUP2 SWAP1 MSTORE SWAP2 DUP2 ADD DUP3 SWAP1 MSTORE PUSH1 0x60 DUP2 ADD DUP3 SWAP1 MSTORE SWAP1 PUSH1 0x80 DUP3 ADD SWAP1 DUP2 MSTORE PUSH1 0x20 ADD PUSH1 0x60 DUP2 MSTORE POP SWAP1 JUMP JUMPDEST PUSH1 0x1 DUP1 SLOAD DUP4 SWAP1 DUP2 LT PUSH2 0x962 JUMPI PUSH4 0x4E487B71 PUSH1 0xE0 SHL PUSH1 0x0 MSTORE PUSH1 0x32 PUSH1 0x4 MSTORE PUSH1 0x24 PUSH1 0x0 REVERT JUMPDEST PUSH1 0x0 SWAP2 DUP3 MSTORE PUSH1 0x20 SWAP2 DUP3 SWAP1 KECCAK256 PUSH1 0x40 DUP1 MLOAD PUSH1 0xC0 DUP2 ADD DUP3 MSTORE PUSH1 0x2 SWAP4 DUP5 MUL SWAP1 SWAP3 ADD DUP1 SLOAD PUSH2 0xFFFF DUP1 DUP3 AND DUP6 MSTORE PUSH3 0x10000 DUP3 DIV DUP2 AND SWAP7 DUP6 ADD SWAP7 SWAP1 SWAP7 MSTORE PUSH5 0x100000000 DUP2 DIV DUP7 AND SWAP3 DUP5 ADD SWAP3 SWAP1 SWAP3 MSTORE PUSH7 0x1000000000000 DUP3 DIV SWAP1 SWAP5 AND PUSH1 0x60 DUP4 ADD MSTORE SWAP1 SWAP3 SWAP2 PUSH1 0x80 DUP5 ADD SWAP2 PUSH9 0x10000000000000000 SWAP1 DIV PUSH1 0xFF AND SWAP1 DUP2 GT ISZERO PUSH2 0x9F0 JUMPI PUSH4 0x4E487B71 PUSH1 0xE0 SHL PUSH1 0x0 MSTORE PUSH1 0x21 PUSH1 0x4 MSTORE PUSH1 0x24 PUSH1 0x0 REVERT JUMPDEST PUSH1 0x2 DUP2 GT ISZERO PUSH2 0xA0F JUMPI PUSH4 0x4E487B71 PUSH1 0xE0 SHL PUSH1 0x0 MSTORE PUSH1 0x21 PUSH1 0x4 MSTORE PUSH1 0x24 PUSH1 0x0 REVERT JUMPDEST DUP2 MSTORE PUSH1 0x20 ADD PUSH1 0x1 DUP3 ADD DUP1 SLOAD PUSH2 0xA23 SWAP1 PUSH2 0xD61 JUMP JUMPDEST DUP1 PUSH1 0x1F ADD PUSH1 0x20 DUP1 SWAP2 DIV MUL PUSH1 0x20 ADD PUSH1 0x40 MLOAD SWAP1 DUP2 ADD PUSH1 0x40 MSTORE DUP1 SWAP3 SWAP2 SWAP1 DUP2 DUP2 MSTORE PUSH1 0x20 ADD DUP3 DUP1 SLOAD PUSH2 0xA4F SWAP1 PUSH2 0xD61 JUMP JUMPDEST DUP1 ISZERO PUSH2 0xA9C JUMPI DUP1 PUSH1 0x1F LT PUSH2 0xA71 JUMPI PUSH2 0x100 DUP1 DUP4 SLOAD DIV MUL DUP4 MSTORE SWAP2 PUSH1 0x20 ADD SWAP2 PUSH2 0xA9C JUMP JUMPDEST DUP3 ADD SWAP2 SWAP1 PUSH1 0x0 MSTORE PUSH1 0x20 PUSH1 0x0 KECCAK256 SWAP1 JUMPDEST DUP2 SLOAD DUP2 MSTORE SWAP1 PUSH1 0x1 ADD SWAP1 PUSH1 0x20 ADD DUP1 DUP4 GT PUSH2 0xA7F JUMPI DUP3 SWAP1 SUB PUSH1 0x1F AND DUP3 ADD SWAP2 JUMPDEST POP POP POP POP POP DUP2 MSTORE POP POP SWAP1 POP SWAP2 SWAP1 POP JUMP JUMPDEST DUP1 CALLDATALOAD PUSH1 0x1 PUSH1 0x1 PUSH1 0xA0 SHL SUB DUP2 AND DUP2 EQ PUSH2 0x5FC JUMPI PUSH1 0x0 DUP1 REVERT JUMPDEST PUSH1 0x0 PUSH1 0x20 DUP3 DUP5 SUB SLT ISZERO PUSH2 0xAD4 JUMPI DUP1 DUP2 REVERT JUMPDEST PUSH2 0xADD DUP3 PUSH2 0xAAC JUMP JUMPDEST SWAP4 SWAP3 POP POP POP JUMP JUMPDEST PUSH1 0x0 DUP1 PUSH1 0x0 PUSH1 0x60 DUP5 DUP7 SUB SLT ISZERO PUSH2 0xAF8 JUMPI DUP2 DUP3 REVERT JUMPDEST PUSH2 0xB01 DUP5 PUSH2 0xAAC JUMP JUMPDEST SWAP3 POP PUSH2 0xB0F PUSH1 0x20 DUP6 ADD PUSH2 0xAAC JUMP JUMPDEST SWAP2 POP PUSH1 0x40 DUP5 ADD CALLDATALOAD SWAP1 POP SWAP3 POP SWAP3 POP SWAP3 JUMP JUMPDEST PUSH1 0x0 DUP1 PUSH1 0x40 DUP4 DUP6 SUB SLT ISZERO PUSH2 0xB31 JUMPI DUP2 DUP3 REVERT JUMPDEST PUSH2 0xB3A DUP4 PUSH2 0xAAC JUMP JUMPDEST SWAP5 PUSH1 0x20 SWAP4 SWAP1 SWAP4 ADD CALLDATALOAD SWAP4 POP POP POP JUMP JUMPDEST PUSH1 0x0 PUSH1 0x20 DUP3 DUP5 SUB SLT ISZERO PUSH2 0xB59 JUMPI DUP1 DUP2 REVERT JUMPDEST POP CALLDATALOAD SWAP2 SWAP1 POP JUMP JUMPDEST PUSH1 0x0 DUP2 MLOAD DUP1 DUP5 MSTORE DUP2 JUMPDEST DUP2 DUP2 LT ISZERO PUSH2 0xB85 JUMPI PUSH1 0x20 DUP2 DUP6 ADD DUP2 ADD MLOAD DUP7 DUP4 ADD DUP3 ADD MSTORE ADD PUSH2 0xB69 JUMP JUMPDEST DUP2 DUP2 GT ISZERO PUSH2 0xB96 JUMPI DUP3 PUSH1 0x20 DUP4 DUP8 ADD ADD MSTORE JUMPDEST POP PUSH1 0x1F ADD PUSH1 0x1F NOT AND SWAP3 SWAP1 SWAP3 ADD PUSH1 0x20 ADD SWAP3 SWAP2 POP POP JUMP JUMPDEST PUSH1 0x20 DUP1 DUP3 MSTORE DUP3 MLOAD DUP3 DUP3 ADD DUP2 SWAP1 MSTORE PUSH1 0x0 SWAP2 SWAP1 DUP5 DUP3 ADD SWAP1 PUSH1 0x40 DUP6 ADD SWAP1 DUP5 JUMPDEST DUP2 DUP2 LT ISZERO PUSH2 0xBE3 JUMPI DUP4 MLOAD DUP4 MSTORE SWAP3 DUP5 ADD SWAP3 SWAP2 DUP5 ADD SWAP2 PUSH1 0x1 ADD PUSH2 0xBC7 JUMP JUMPDEST POP SWAP1 SWAP7 SWAP6 POP POP POP POP POP POP JUMP JUMPDEST PUSH1 0x20 DUP2 ADD PUSH1 0x5 DUP4 LT PUSH2 0xC03 JUMPI PUSH2 0xC03 PUSH2 0xDBD JUMP JUMPDEST SWAP2 SWAP1 MSTORE SWAP1 JUMP JUMPDEST PUSH1 0x0 PUSH1 0x20 DUP3 MSTORE PUSH2 0xADD PUSH1 0x20 DUP4 ADD DUP5 PUSH2 0xB60 JUMP JUMPDEST PUSH1 0x20 DUP1 DUP3 MSTORE PUSH1 0x19 SWAP1 DUP3 ADD MSTORE PUSH32 0x596F7520616C7265616479206F776E207468697320756E697400000000000000 PUSH1 0x40 DUP3 ADD MSTORE PUSH1 0x60 ADD SWAP1 JUMP JUMPDEST PUSH1 0x20 DUP1 DUP3 MSTORE PUSH1 0x1B SWAP1 DUP3 ADD MSTORE PUSH32 0x4E6F7420612076616C696420616464726573732E20536F727279210000000000 PUSH1 0x40 DUP3 ADD MSTORE PUSH1 0x60 ADD SWAP1 JUMP JUMPDEST PUSH1 0x20 DUP1 DUP3 MSTORE PUSH1 0x17 SWAP1 DUP3 ADD MSTORE PUSH32 0x596F7520646F6E2774206F776E207468697320756E6974000000000000000000 PUSH1 0x40 DUP3 ADD MSTORE PUSH1 0x60 ADD SWAP1 JUMP JUMPDEST PUSH1 0x20 DUP1 DUP3 MSTORE PUSH1 0x13 SWAP1 DUP3 ADD MSTORE PUSH19 0x556E697420697320756E617661696C61626C65 PUSH1 0x68 SHL PUSH1 0x40 DUP3 ADD MSTORE PUSH1 0x60 ADD SWAP1 JUMP JUMPDEST PUSH1 0x0 PUSH1 0x20 DUP3 MSTORE PUSH2 0xFFFF DUP1 DUP5 MLOAD AND PUSH1 0x20 DUP5 ADD MSTORE DUP1 PUSH1 0x20 DUP6 ADD MLOAD AND PUSH1 0x40 DUP5 ADD MSTORE DUP1 PUSH1 0x40 DUP6 ADD MLOAD AND PUSH1 0x60 DUP5 ADD MSTORE DUP1 PUSH1 0x60 DUP6 ADD MLOAD AND PUSH1 0x80 DUP5 ADD MSTORE POP PUSH1 0x80 DUP4 ADD MLOAD PUSH1 0x3 DUP2 LT PUSH2 0xD3A JUMPI PUSH2 0xD3A PUSH2 0xDBD JUMP JUMPDEST DUP1 PUSH1 0xA0 DUP5 ADD MSTORE POP PUSH1 0xA0 DUP4 ADD MLOAD PUSH1 0xC0 DUP1 DUP5 ADD MSTORE PUSH2 0xD59 PUSH1 0xE0 DUP5 ADD DUP3 PUSH2 0xB60 JUMP JUMPDEST SWAP5 SWAP4 POP POP POP POP JUMP JUMPDEST PUSH1 0x1 DUP2 DUP2 SHR SWAP1 DUP3 AND DUP1 PUSH2 0xD75 JUMPI PUSH1 0x7F DUP3 AND SWAP2 POP JUMPDEST PUSH1 0x20 DUP3 LT DUP2 EQ ISZERO PUSH2 0x651 JUMPI PUSH4 0x4E487B71 PUSH1 0xE0 SHL PUSH1 0x0 MSTORE PUSH1 0x22 PUSH1 0x4 MSTORE PUSH1 0x24 PUSH1 0x0 REVERT JUMPDEST PUSH1 0x0 PUSH1 0x0 NOT DUP3 EQ ISZERO PUSH2 0xDB6 JUMPI PUSH4 0x4E487B71 PUSH1 0xE0 SHL DUP2 MSTORE PUSH1 0x11 PUSH1 0x4 MSTORE PUSH1 0x24 DUP2 REVERT JUMPDEST POP PUSH1 0x1 ADD SWAP1 JUMP JUMPDEST PUSH4 0x4E487B71 PUSH1 0xE0 SHL PUSH1 0x0 MSTORE PUSH1 0x21 PUSH1 0x4 MSTORE PUSH1 0x24 PUSH1 0x0 REVERT INVALID LOG2 PUSH5 0x6970667358 0x22 SLT KECCAK256 RETURN 0xDE 0xEE 0xD3 PUSH31 0xF9F7D62D92E06600D13FB9860831F99A3A028E65F61381409F027464736F6C PUSH4 0x43000803 STOP CALLER "
		},
		"gasEstimates": {
			"creation": {
				"codeDepositCost": "718600",
				"executionCost": "5759",
				"totalCost": "724359"
			},
			"external": {
				"approve(address,uint256)": "45792",
				"balanceOf(address)": "infinite",
				"getToken(uint256)": "infinite",
				"getUnitState(uint256)": "1298",
				"name()": "infinite",
				"ownerOf(uint256)": "1177",
				"symbol()": "infinite",
				"tokensOfOwner(address)": "infinite",
				"totalSupply()": "1026",
				"transfer(address,uint256)": "infinite",
				"transferFrom(address,address,uint256)": "infinite"
			}
		},
		"methodIdentifiers": {
			"approve(address,uint256)": "095ea7b3",
			"balanceOf(address)": "70a08231",
			"getToken(uint256)": "e4b50cb8",
			"getUnitState(uint256)": "2e009f76",
			"name()": "06fdde03",
			"ownerOf(uint256)": "6352211e",
			"symbol()": "95d89b41",
			"tokensOfOwner(address)": "8462151c",
			"totalSupply()": "18160ddd",
			"transfer(address,uint256)": "a9059cbb",
			"transferFrom(address,address,uint256)": "23b872dd"
		}
	},
	"abi": [
		{
			"anonymous": false,
			"inputs": [
				{
					"indexed": false,
					"internalType": "address",
					"name": "owner",
					"type": "address"
				},
				{
					"indexed": false,
					"internalType": "address",
					"name": "approved",
					"type": "address"
				},
				{
					"indexed": false,
					"internalType": "uint256",
					"name": "tokenId",
					"type": "uint256"
				}
			],
			"name": "Approval",
			"type": "event"
		},
		{
			"anonymous": false,
			"inputs": [
				{
					"indexed": false,
					"internalType": "address",
					"name": "from",
					"type": "address"
				},
				{
					"indexed": false,
					"internalType": "address",
					"name": "to",
					"type": "address"
				},
				{
					"indexed": false,
					"internalType": "uint256",
					"name": "tokenId",
					"type": "uint256"
				}
			],
			"name": "Transfer",
			"type": "event"
		},
		{
			"inputs": [
				{
					"internalType": "address",
					"name": "_to",
					"type": "address"
				},
				{
					"internalType": "uint256",
					"name": "_tokenId",
					"type": "uint256"
				}
			],
			"name": "approve",
			"outputs": [],
			"stateMutability": "nonpayable",
			"type": "function"
		},
		{
			"inputs": [
				{
					"internalType": "address",
					"name": "_owner",
					"type": "address"
				}
			],
			"name": "balanceOf",
			"outputs": [
				{
					"internalType": "uint256",
					"name": "balance",
					"type": "uint256"
				}
			],
			"stateMutability": "view",
			"type": "function"
		},
		{
			"inputs": [
				{
					"internalType": "uint256",
					"name": "tokenId",
					"type": "uint256"
				}
			],
			"name": "getToken",
			"outputs": [
				{
					"components": [
						{
							"internalType": "uint16",
							"name": "power",
							"type": "uint16"
						},
						{
							"internalType": "uint16",
							"name": "defence",
							"type": "uint16"
						},
						{
							"internalType": "uint16",
							"name": "level",
							"type": "uint16"
						},
						{
							"internalType": "uint16",
							"name": "health",
							"type": "uint16"
						},
						{
							"internalType": "enum UnitType",
							"name": "utype",
							"type": "uint8"
						},
						{
							"internalType": "string",
							"name": "name",
							"type": "string"
						}
					],
					"internalType": "struct Unit",
					"name": "",
					"type": "tuple"
				}
			],
			"stateMutability": "view",
			"type": "function"
		},
		{
			"inputs": [
				{
					"internalType": "uint256",
					"name": "unitId",
					"type": "uint256"
				}
			],
			"name": "getUnitState",
			"outputs": [
				{
					"internalType": "enum UnitState",
					"name": "state",
					"type": "uint8"
				}
			],
			"stateMutability": "view",
			"type": "function"
		},
		{
			"inputs": [],
			"name": "name",
			"outputs": [
				{
					"internalType": "string",
					"name": "",
					"type": "string"
				}
			],
			"stateMutability": "pure",
			"type": "function"
		},
		{
			"inputs": [
				{
					"internalType": "uint256",
					"name": "_tokenId",
					"type": "uint256"
				}
			],
			"name": "ownerOf",
			"outputs": [
				{
					"internalType": "address",
					"name": "owner",
					"type": "address"
				}
			],
			"stateMutability": "view",
			"type": "function"
		},
		{
			"inputs": [],
			"name": "symbol",
			"outputs": [
				{
					"internalType": "string",
					"name": "",
					"type": "string"
				}
			],
			"stateMutability": "pure",
			"type": "function"
		},
		{
			"inputs": [
				{
					"internalType": "address",
					"name": "_owner",
					"type": "address"
				}
			],
			"name": "tokensOfOwner",
			"outputs": [
				{
					"internalType": "uint256[]",
					"name": "tokenIds",
					"type": "uint256[]"
				}
			],
			"stateMutability": "view",
			"type": "function"
		},
		{
			"inputs": [],
			"name": "totalSupply",
			"outputs": [
				{
					"internalType": "uint256",
					"name": "total",
					"type": "uint256"
				}
			],
			"stateMutability": "view",
			"type": "function"
		},
		{
			"inputs": [
				{
					"internalType": "address",
					"name": "_to",
					"type": "address"
				},
				{
					"internalType": "uint256",
					"name": "_tokenId",
					"type": "uint256"
				}
			],
			"name": "transfer",
			"outputs": [],
			"stateMutability": "nonpayable",
			"type": "function"
		},
		{
			"inputs": [
				{
					"internalType": "address",
					"name": "_from",
					"type": "address"
				},
				{
					"internalType": "address",
					"name": "_to",
					"type": "address"
				},
				{
					"internalType": "uint256",
					"name": "_tokenId",
					"type": "uint256"
				}
			],
			"name": "transferFrom",
			"outputs": [],
			"stateMutability": "nonpayable",
			"type": "function"
		}
	]
}