{
	"data": {
		"bytecode": {
			"linkReferences": {},
			"object": "610af661003a600b82828239805160001a60731461002d57634e487b7160e01b600052600060045260246000fd5b30600052607381538281f3fe73000000000000000000000000000000000000000030146080604052600436106100565760003560e01c806314b172a81461005b5780634293c1ba1461008e578063b64a97ba146100b0578063b9bf30a5146100d0575b600080fd5b81801561006757600080fd5b5061007b6100763660046109c9565b6100f6565b6040519081526020015b60405180910390f35b81801561009a57600080fd5b506100ae6100a93660046108c0565b6101b9565b005b8180156100bc57600080fd5b5061007b6100cb366004610903565b610263565b6100e36100de3660046108a6565b61041d565b60405161ffff9091168152602001610085565b600080600083815260028501602052604090205460ff16600481111561012c57634e487b7160e01b600052602160045260246000fd5b14156101765760405162461bcd60e51b81526020600482015260146024820152731d5b9a5d081a5cc8185b1c9958591e481919585960621b60448201526064015b60405180910390fd5b60008281526002840160205260409020805460ff191690556101988383610504565b835460018101855560009485526020909420909301919091555061ffff1690565b6000818152600385016020908152604080832080546001600160a01b038088166001600160a01b031992831617909255600489018452828520805490911690558616835260068701909152812080549161021283610a27565b90915550506001600160a01b0382166000908152600685016020526040812080549161023d83610a79565b90915550506000908152600293909301602052505060409020805460ff19166003179055565b6040805160c081018252600080825260208201819052600192820192909252606081018290528190608081018560028111156102af57634e487b7160e01b600052602160045260246000fd5b8152602001849052905060008460028111156102db57634e487b7160e01b600052602160045260246000fd5b141561033857600f816000018181516102f491906109ea565b61ffff16905250602081018051600191906103109083906109ea565b61ffff169052506060810180516032919061032c9083906109ea565b61ffff1690525061040a565b600184600281111561035a57634e487b7160e01b600052602160045260246000fd5b141561038f57600a8160000181815161037391906109ea565b61ffff16905250602081018051600591906103109083906109ea565b60028460028111156103b157634e487b7160e01b600052602160045260246000fd5b141561040a57600a816000018181516103ca91906109ea565b61ffff16905250602081018051600191906103e69083906109ea565b61ffff16905250606081018051604b91906104029083906109ea565b61ffff169052505b6104148582610553565b95945050505050565b6000600182600281111561044157634e487b7160e01b600052602160045260246000fd5b141561045957610452600a826109ea565b90506104ff565b600082600281111561047b57634e487b7160e01b600052602160045260246000fd5b141561048c57610452600f826109ea565b60028260028111156104ae57634e487b7160e01b600052602160045260246000fd5b14156104bf576104526014826109ea565b60405162461bcd60e51b81526020600482015260156024820152744e6f7420612076616c696420756e6974207479706560581b604482015260640161016d565b919050565b600061054c83600101838154811061052c57634e487b7160e01b600052603260045260246000fd5b6000918252602090912060029091020154600160401b900460ff1661041d565b9392505050565b8154600090156106cd578254839061056d90600190610a10565b8154811061058b57634e487b7160e01b600052603260045260246000fd5b90600052602060002001549050826000018054806105b957634e487b7160e01b600052603160045260246000fd5b60019003818190600052602060002001600090559055818360010182815481106105f357634e487b7160e01b600052603260045260246000fd5b6000918252602091829020835160029283029091018054938501516040860151606087015161ffff90811666010000000000000267ffff00000000000019928216640100000000029290921667ffffffff0000000019938216620100000263ffffffff19909816919095161795909517169190911792909217808355608084015191839160ff60401b191690600160401b9084908111156106a457634e487b7160e01b600052602160045260246000fd5b021790555060a082015180516106c49160018401916020909101906107e7565b509050506107c5565b6001808401805491820181556000908152602090819020845160029384029091018054928601516040870151606088015161ffff90811666010000000000000267ffff00000000000019928216640100000000029290921667ffffffff0000000019938216620100000263ffffffff19909716919095161794909417169190911791909117808255608085015185939091839160ff60401b1990911690600160401b90849081111561078f57634e487b7160e01b600052602160045260246000fd5b021790555060a082015180516107af9160018401916020909101906107e7565b5050506001838101546107c29190610a10565b90505b60008181526002939093016020526040909220805460ff191660031790555090565b8280546107f390610a3e565b90600052602060002090601f016020900481019282610815576000855561085b565b82601f1061082e57805160ff191683800117855561085b565b8280016001018555821561085b579182015b8281111561085b578251825591602001919060010190610840565b5061086792915061086b565b5090565b5b80821115610867576000815560010161086c565b80356001600160a01b03811681146104ff57600080fd5b8035600381106104ff57600080fd5b6000602082840312156108b7578081fd5b61054c82610897565b600080600080608085870312156108d5578283fd5b843593506108e560208601610880565b92506108f360408601610880565b9396929550929360600135925050565b600080600060608486031215610917578283fd5b8335925061092760208501610897565b9150604084013567ffffffffffffffff80821115610943578283fd5b818601915086601f830112610956578283fd5b81358181111561096857610968610aaa565b604051601f8201601f19908116603f0116810190838211818310171561099057610990610aaa565b816040528281528960208487010111156109a8578586fd5b82602086016020830137856020848301015280955050505050509250925092565b600080604083850312156109db578182fd5b50508035926020909101359150565b600061ffff808316818516808303821115610a0757610a07610a94565b01949350505050565b600082821015610a2257610a22610a94565b500390565b600081610a3657610a36610a94565b506000190190565b600181811c90821680610a5257607f821691505b60208210811415610a7357634e487b7160e01b600052602260045260246000fd5b50919050565b6000600019821415610a8d57610a8d610a94565b5060010190565b634e487b7160e01b600052601160045260246000fd5b634e487b7160e01b600052604160045260246000fdfea26469706673582212205659736c2c6d82fe387875c19f3b68d76727c175533525c0849ece778a7ac87c64736f6c63430008030033",
			"opcodes": "PUSH2 0xAF6 PUSH2 0x3A PUSH1 0xB DUP3 DUP3 DUP3 CODECOPY DUP1 MLOAD PUSH1 0x0 BYTE PUSH1 0x73 EQ PUSH2 0x2D JUMPI PUSH4 0x4E487B71 PUSH1 0xE0 SHL PUSH1 0x0 MSTORE PUSH1 0x0 PUSH1 0x4 MSTORE PUSH1 0x24 PUSH1 0x0 REVERT JUMPDEST ADDRESS PUSH1 0x0 MSTORE PUSH1 0x73 DUP2 MSTORE8 DUP3 DUP2 RETURN INVALID PUSH20 0x0 ADDRESS EQ PUSH1 0x80 PUSH1 0x40 MSTORE PUSH1 0x4 CALLDATASIZE LT PUSH2 0x56 JUMPI PUSH1 0x0 CALLDATALOAD PUSH1 0xE0 SHR DUP1 PUSH4 0x14B172A8 EQ PUSH2 0x5B JUMPI DUP1 PUSH4 0x4293C1BA EQ PUSH2 0x8E JUMPI DUP1 PUSH4 0xB64A97BA EQ PUSH2 0xB0 JUMPI DUP1 PUSH4 0xB9BF30A5 EQ PUSH2 0xD0 JUMPI JUMPDEST PUSH1 0x0 DUP1 REVERT JUMPDEST DUP2 DUP1 ISZERO PUSH2 0x67 JUMPI PUSH1 0x0 DUP1 REVERT JUMPDEST POP PUSH2 0x7B PUSH2 0x76 CALLDATASIZE PUSH1 0x4 PUSH2 0x9C9 JUMP JUMPDEST PUSH2 0xF6 JUMP JUMPDEST PUSH1 0x40 MLOAD SWAP1 DUP2 MSTORE PUSH1 0x20 ADD JUMPDEST PUSH1 0x40 MLOAD DUP1 SWAP2 SUB SWAP1 RETURN JUMPDEST DUP2 DUP1 ISZERO PUSH2 0x9A JUMPI PUSH1 0x0 DUP1 REVERT JUMPDEST POP PUSH2 0xAE PUSH2 0xA9 CALLDATASIZE PUSH1 0x4 PUSH2 0x8C0 JUMP JUMPDEST PUSH2 0x1B9 JUMP JUMPDEST STOP JUMPDEST DUP2 DUP1 ISZERO PUSH2 0xBC JUMPI PUSH1 0x0 DUP1 REVERT JUMPDEST POP PUSH2 0x7B PUSH2 0xCB CALLDATASIZE PUSH1 0x4 PUSH2 0x903 JUMP JUMPDEST PUSH2 0x263 JUMP JUMPDEST PUSH2 0xE3 PUSH2 0xDE CALLDATASIZE PUSH1 0x4 PUSH2 0x8A6 JUMP JUMPDEST PUSH2 0x41D JUMP JUMPDEST PUSH1 0x40 MLOAD PUSH2 0xFFFF SWAP1 SWAP2 AND DUP2 MSTORE PUSH1 0x20 ADD PUSH2 0x85 JUMP JUMPDEST PUSH1 0x0 DUP1 PUSH1 0x0 DUP4 DUP2 MSTORE PUSH1 0x2 DUP6 ADD PUSH1 0x20 MSTORE PUSH1 0x40 SWAP1 KECCAK256 SLOAD PUSH1 0xFF AND PUSH1 0x4 DUP2 GT ISZERO PUSH2 0x12C JUMPI PUSH4 0x4E487B71 PUSH1 0xE0 SHL PUSH1 0x0 MSTORE PUSH1 0x21 PUSH1 0x4 MSTORE PUSH1 0x24 PUSH1 0x0 REVERT JUMPDEST EQ ISZERO PUSH2 0x176 JUMPI PUSH1 0x40 MLOAD PUSH3 0x461BCD PUSH1 0xE5 SHL DUP2 MSTORE PUSH1 0x20 PUSH1 0x4 DUP3 ADD MSTORE PUSH1 0x14 PUSH1 0x24 DUP3 ADD MSTORE PUSH20 0x1D5B9A5D081A5CC8185B1C9958591E4819195859 PUSH1 0x62 SHL PUSH1 0x44 DUP3 ADD MSTORE PUSH1 0x64 ADD JUMPDEST PUSH1 0x40 MLOAD DUP1 SWAP2 SUB SWAP1 REVERT JUMPDEST PUSH1 0x0 DUP3 DUP2 MSTORE PUSH1 0x2 DUP5 ADD PUSH1 0x20 MSTORE PUSH1 0x40 SWAP1 KECCAK256 DUP1 SLOAD PUSH1 0xFF NOT AND SWAP1 SSTORE PUSH2 0x198 DUP4 DUP4 PUSH2 0x504 JUMP JUMPDEST DUP4 SLOAD PUSH1 0x1 DUP2 ADD DUP6 SSTORE PUSH1 0x0 SWAP5 DUP6 MSTORE PUSH1 0x20 SWAP1 SWAP5 KECCAK256 SWAP1 SWAP4 ADD SWAP2 SWAP1 SWAP2 SSTORE POP PUSH2 0xFFFF AND SWAP1 JUMP JUMPDEST PUSH1 0x0 DUP2 DUP2 MSTORE PUSH1 0x3 DUP6 ADD PUSH1 0x20 SWAP1 DUP2 MSTORE PUSH1 0x40 DUP1 DUP4 KECCAK256 DUP1 SLOAD PUSH1 0x1 PUSH1 0x1 PUSH1 0xA0 SHL SUB DUP1 DUP9 AND PUSH1 0x1 PUSH1 0x1 PUSH1 0xA0 SHL SUB NOT SWAP3 DUP4 AND OR SWAP1 SWAP3 SSTORE PUSH1 0x4 DUP10 ADD DUP5 MSTORE DUP3 DUP6 KECCAK256 DUP1 SLOAD SWAP1 SWAP2 AND SWAP1 SSTORE DUP7 AND DUP4 MSTORE PUSH1 0x6 DUP8 ADD SWAP1 SWAP2 MSTORE DUP2 KECCAK256 DUP1 SLOAD SWAP2 PUSH2 0x212 DUP4 PUSH2 0xA27 JUMP JUMPDEST SWAP1 SWAP2 SSTORE POP POP PUSH1 0x1 PUSH1 0x1 PUSH1 0xA0 SHL SUB DUP3 AND PUSH1 0x0 SWAP1 DUP2 MSTORE PUSH1 0x6 DUP6 ADD PUSH1 0x20 MSTORE PUSH1 0x40 DUP2 KECCAK256 DUP1 SLOAD SWAP2 PUSH2 0x23D DUP4 PUSH2 0xA79 JUMP JUMPDEST SWAP1 SWAP2 SSTORE POP POP PUSH1 0x0 SWAP1 DUP2 MSTORE PUSH1 0x2 SWAP4 SWAP1 SWAP4 ADD PUSH1 0x20 MSTORE POP POP PUSH1 0x40 SWAP1 KECCAK256 DUP1 SLOAD PUSH1 0xFF NOT AND PUSH1 0x3 OR SWAP1 SSTORE JUMP JUMPDEST PUSH1 0x40 DUP1 MLOAD PUSH1 0xC0 DUP2 ADD DUP3 MSTORE PUSH1 0x0 DUP1 DUP3 MSTORE PUSH1 0x20 DUP3 ADD DUP2 SWAP1 MSTORE PUSH1 0x1 SWAP3 DUP3 ADD SWAP3 SWAP1 SWAP3 MSTORE PUSH1 0x60 DUP2 ADD DUP3 SWAP1 MSTORE DUP2 SWAP1 PUSH1 0x80 DUP2 ADD DUP6 PUSH1 0x2 DUP2 GT ISZERO PUSH2 0x2AF JUMPI PUSH4 0x4E487B71 PUSH1 0xE0 SHL PUSH1 0x0 MSTORE PUSH1 0x21 PUSH1 0x4 MSTORE PUSH1 0x24 PUSH1 0x0 REVERT JUMPDEST DUP2 MSTORE PUSH1 0x20 ADD DUP5 SWAP1 MSTORE SWAP1 POP PUSH1 0x0 DUP5 PUSH1 0x2 DUP2 GT ISZERO PUSH2 0x2DB JUMPI PUSH4 0x4E487B71 PUSH1 0xE0 SHL PUSH1 0x0 MSTORE PUSH1 0x21 PUSH1 0x4 MSTORE PUSH1 0x24 PUSH1 0x0 REVERT JUMPDEST EQ ISZERO PUSH2 0x338 JUMPI PUSH1 0xF DUP2 PUSH1 0x0 ADD DUP2 DUP2 MLOAD PUSH2 0x2F4 SWAP2 SWAP1 PUSH2 0x9EA JUMP JUMPDEST PUSH2 0xFFFF AND SWAP1 MSTORE POP PUSH1 0x20 DUP2 ADD DUP1 MLOAD PUSH1 0x1 SWAP2 SWAP1 PUSH2 0x310 SWAP1 DUP4 SWAP1 PUSH2 0x9EA JUMP JUMPDEST PUSH2 0xFFFF AND SWAP1 MSTORE POP PUSH1 0x60 DUP2 ADD DUP1 MLOAD PUSH1 0x32 SWAP2 SWAP1 PUSH2 0x32C SWAP1 DUP4 SWAP1 PUSH2 0x9EA JUMP JUMPDEST PUSH2 0xFFFF AND SWAP1 MSTORE POP PUSH2 0x40A JUMP JUMPDEST PUSH1 0x1 DUP5 PUSH1 0x2 DUP2 GT ISZERO PUSH2 0x35A JUMPI PUSH4 0x4E487B71 PUSH1 0xE0 SHL PUSH1 0x0 MSTORE PUSH1 0x21 PUSH1 0x4 MSTORE PUSH1 0x24 PUSH1 0x0 REVERT JUMPDEST EQ ISZERO PUSH2 0x38F JUMPI PUSH1 0xA DUP2 PUSH1 0x0 ADD DUP2 DUP2 MLOAD PUSH2 0x373 SWAP2 SWAP1 PUSH2 0x9EA JUMP JUMPDEST PUSH2 0xFFFF AND SWAP1 MSTORE POP PUSH1 0x20 DUP2 ADD DUP1 MLOAD PUSH1 0x5 SWAP2 SWAP1 PUSH2 0x310 SWAP1 DUP4 SWAP1 PUSH2 0x9EA JUMP JUMPDEST PUSH1 0x2 DUP5 PUSH1 0x2 DUP2 GT ISZERO PUSH2 0x3B1 JUMPI PUSH4 0x4E487B71 PUSH1 0xE0 SHL PUSH1 0x0 MSTORE PUSH1 0x21 PUSH1 0x4 MSTORE PUSH1 0x24 PUSH1 0x0 REVERT JUMPDEST EQ ISZERO PUSH2 0x40A JUMPI PUSH1 0xA DUP2 PUSH1 0x0 ADD DUP2 DUP2 MLOAD PUSH2 0x3CA SWAP2 SWAP1 PUSH2 0x9EA JUMP JUMPDEST PUSH2 0xFFFF AND SWAP1 MSTORE POP PUSH1 0x20 DUP2 ADD DUP1 MLOAD PUSH1 0x1 SWAP2 SWAP1 PUSH2 0x3E6 SWAP1 DUP4 SWAP1 PUSH2 0x9EA JUMP JUMPDEST PUSH2 0xFFFF AND SWAP1 MSTORE POP PUSH1 0x60 DUP2 ADD DUP1 MLOAD PUSH1 0x4B SWAP2 SWAP1 PUSH2 0x402 SWAP1 DUP4 SWAP1 PUSH2 0x9EA JUMP JUMPDEST PUSH2 0xFFFF AND SWAP1 MSTORE POP JUMPDEST PUSH2 0x414 DUP6 DUP3 PUSH2 0x553 JUMP JUMPDEST SWAP6 SWAP5 POP POP POP POP POP JUMP JUMPDEST PUSH1 0x0 PUSH1 0x1 DUP3 PUSH1 0x2 DUP2 GT ISZERO PUSH2 0x441 JUMPI PUSH4 0x4E487B71 PUSH1 0xE0 SHL PUSH1 0x0 MSTORE PUSH1 0x21 PUSH1 0x4 MSTORE PUSH1 0x24 PUSH1 0x0 REVERT JUMPDEST EQ ISZERO PUSH2 0x459 JUMPI PUSH2 0x452 PUSH1 0xA DUP3 PUSH2 0x9EA JUMP JUMPDEST SWAP1 POP PUSH2 0x4FF JUMP JUMPDEST PUSH1 0x0 DUP3 PUSH1 0x2 DUP2 GT ISZERO PUSH2 0x47B JUMPI PUSH4 0x4E487B71 PUSH1 0xE0 SHL PUSH1 0x0 MSTORE PUSH1 0x21 PUSH1 0x4 MSTORE PUSH1 0x24 PUSH1 0x0 REVERT JUMPDEST EQ ISZERO PUSH2 0x48C JUMPI PUSH2 0x452 PUSH1 0xF DUP3 PUSH2 0x9EA JUMP JUMPDEST PUSH1 0x2 DUP3 PUSH1 0x2 DUP2 GT ISZERO PUSH2 0x4AE JUMPI PUSH4 0x4E487B71 PUSH1 0xE0 SHL PUSH1 0x0 MSTORE PUSH1 0x21 PUSH1 0x4 MSTORE PUSH1 0x24 PUSH1 0x0 REVERT JUMPDEST EQ ISZERO PUSH2 0x4BF JUMPI PUSH2 0x452 PUSH1 0x14 DUP3 PUSH2 0x9EA JUMP JUMPDEST PUSH1 0x40 MLOAD PUSH3 0x461BCD PUSH1 0xE5 SHL DUP2 MSTORE PUSH1 0x20 PUSH1 0x4 DUP3 ADD MSTORE PUSH1 0x15 PUSH1 0x24 DUP3 ADD MSTORE PUSH21 0x4E6F7420612076616C696420756E69742074797065 PUSH1 0x58 SHL PUSH1 0x44 DUP3 ADD MSTORE PUSH1 0x64 ADD PUSH2 0x16D JUMP JUMPDEST SWAP2 SWAP1 POP JUMP JUMPDEST PUSH1 0x0 PUSH2 0x54C DUP4 PUSH1 0x1 ADD DUP4 DUP2 SLOAD DUP2 LT PUSH2 0x52C JUMPI PUSH4 0x4E487B71 PUSH1 0xE0 SHL PUSH1 0x0 MSTORE PUSH1 0x32 PUSH1 0x4 MSTORE PUSH1 0x24 PUSH1 0x0 REVERT JUMPDEST PUSH1 0x0 SWAP2 DUP3 MSTORE PUSH1 0x20 SWAP1 SWAP2 KECCAK256 PUSH1 0x2 SWAP1 SWAP2 MUL ADD SLOAD PUSH1 0x1 PUSH1 0x40 SHL SWAP1 DIV PUSH1 0xFF AND PUSH2 0x41D JUMP JUMPDEST SWAP4 SWAP3 POP POP POP JUMP JUMPDEST DUP2 SLOAD PUSH1 0x0 SWAP1 ISZERO PUSH2 0x6CD JUMPI DUP3 SLOAD DUP4 SWAP1 PUSH2 0x56D SWAP1 PUSH1 0x1 SWAP1 PUSH2 0xA10 JUMP JUMPDEST DUP2 SLOAD DUP2 LT PUSH2 0x58B JUMPI PUSH4 0x4E487B71 PUSH1 0xE0 SHL PUSH1 0x0 MSTORE PUSH1 0x32 PUSH1 0x4 MSTORE PUSH1 0x24 PUSH1 0x0 REVERT JUMPDEST SWAP1 PUSH1 0x0 MSTORE PUSH1 0x20 PUSH1 0x0 KECCAK256 ADD SLOAD SWAP1 POP DUP3 PUSH1 0x0 ADD DUP1 SLOAD DUP1 PUSH2 0x5B9 JUMPI PUSH4 0x4E487B71 PUSH1 0xE0 SHL PUSH1 0x0 MSTORE PUSH1 0x31 PUSH1 0x4 MSTORE PUSH1 0x24 PUSH1 0x0 REVERT JUMPDEST PUSH1 0x1 SWAP1 SUB DUP2 DUP2 SWAP1 PUSH1 0x0 MSTORE PUSH1 0x20 PUSH1 0x0 KECCAK256 ADD PUSH1 0x0 SWAP1 SSTORE SWAP1 SSTORE DUP2 DUP4 PUSH1 0x1 ADD DUP3 DUP2 SLOAD DUP2 LT PUSH2 0x5F3 JUMPI PUSH4 0x4E487B71 PUSH1 0xE0 SHL PUSH1 0x0 MSTORE PUSH1 0x32 PUSH1 0x4 MSTORE PUSH1 0x24 PUSH1 0x0 REVERT JUMPDEST PUSH1 0x0 SWAP2 DUP3 MSTORE PUSH1 0x20 SWAP2 DUP3 SWAP1 KECCAK256 DUP4 MLOAD PUSH1 0x2 SWAP3 DUP4 MUL SWAP1 SWAP2 ADD DUP1 SLOAD SWAP4 DUP6 ADD MLOAD PUSH1 0x40 DUP7 ADD MLOAD PUSH1 0x60 DUP8 ADD MLOAD PUSH2 0xFFFF SWAP1 DUP2 AND PUSH7 0x1000000000000 MUL PUSH8 0xFFFF000000000000 NOT SWAP3 DUP3 AND PUSH5 0x100000000 MUL SWAP3 SWAP1 SWAP3 AND PUSH8 0xFFFFFFFF00000000 NOT SWAP4 DUP3 AND PUSH3 0x10000 MUL PUSH4 0xFFFFFFFF NOT SWAP1 SWAP9 AND SWAP2 SWAP1 SWAP6 AND OR SWAP6 SWAP1 SWAP6 OR AND SWAP2 SWAP1 SWAP2 OR SWAP3 SWAP1 SWAP3 OR DUP1 DUP4 SSTORE PUSH1 0x80 DUP5 ADD MLOAD SWAP2 DUP4 SWAP2 PUSH1 0xFF PUSH1 0x40 SHL NOT AND SWAP1 PUSH1 0x1 PUSH1 0x40 SHL SWAP1 DUP5 SWAP1 DUP2 GT ISZERO PUSH2 0x6A4 JUMPI PUSH4 0x4E487B71 PUSH1 0xE0 SHL PUSH1 0x0 MSTORE PUSH1 0x21 PUSH1 0x4 MSTORE PUSH1 0x24 PUSH1 0x0 REVERT JUMPDEST MUL OR SWAP1 SSTORE POP PUSH1 0xA0 DUP3 ADD MLOAD DUP1 MLOAD PUSH2 0x6C4 SWAP2 PUSH1 0x1 DUP5 ADD SWAP2 PUSH1 0x20 SWAP1 SWAP2 ADD SWAP1 PUSH2 0x7E7 JUMP JUMPDEST POP SWAP1 POP POP PUSH2 0x7C5 JUMP JUMPDEST PUSH1 0x1 DUP1 DUP5 ADD DUP1 SLOAD SWAP2 DUP3 ADD DUP2 SSTORE PUSH1 0x0 SWAP1 DUP2 MSTORE PUSH1 0x20 SWAP1 DUP2 SWAP1 KECCAK256 DUP5 MLOAD PUSH1 0x2 SWAP4 DUP5 MUL SWAP1 SWAP2 ADD DUP1 SLOAD SWAP3 DUP7 ADD MLOAD PUSH1 0x40 DUP8 ADD MLOAD PUSH1 0x60 DUP9 ADD MLOAD PUSH2 0xFFFF SWAP1 DUP2 AND PUSH7 0x1000000000000 MUL PUSH8 0xFFFF000000000000 NOT SWAP3 DUP3 AND PUSH5 0x100000000 MUL SWAP3 SWAP1 SWAP3 AND PUSH8 0xFFFFFFFF00000000 NOT SWAP4 DUP3 AND PUSH3 0x10000 MUL PUSH4 0xFFFFFFFF NOT SWAP1 SWAP8 AND SWAP2 SWAP1 SWAP6 AND OR SWAP5 SWAP1 SWAP5 OR AND SWAP2 SWAP1 SWAP2 OR SWAP2 SWAP1 SWAP2 OR DUP1 DUP3 SSTORE PUSH1 0x80 DUP6 ADD MLOAD DUP6 SWAP4 SWAP1 SWAP2 DUP4 SWAP2 PUSH1 0xFF PUSH1 0x40 SHL NOT SWAP1 SWAP2 AND SWAP1 PUSH1 0x1 PUSH1 0x40 SHL SWAP1 DUP5 SWAP1 DUP2 GT ISZERO PUSH2 0x78F JUMPI PUSH4 0x4E487B71 PUSH1 0xE0 SHL PUSH1 0x0 MSTORE PUSH1 0x21 PUSH1 0x4 MSTORE PUSH1 0x24 PUSH1 0x0 REVERT JUMPDEST MUL OR SWAP1 SSTORE POP PUSH1 0xA0 DUP3 ADD MLOAD DUP1 MLOAD PUSH2 0x7AF SWAP2 PUSH1 0x1 DUP5 ADD SWAP2 PUSH1 0x20 SWAP1 SWAP2 ADD SWAP1 PUSH2 0x7E7 JUMP JUMPDEST POP POP POP PUSH1 0x1 DUP4 DUP2 ADD SLOAD PUSH2 0x7C2 SWAP2 SWAP1 PUSH2 0xA10 JUMP JUMPDEST SWAP1 POP JUMPDEST PUSH1 0x0 DUP2 DUP2 MSTORE PUSH1 0x2 SWAP4 SWAP1 SWAP4 ADD PUSH1 0x20 MSTORE PUSH1 0x40 SWAP1 SWAP3 KECCAK256 DUP1 SLOAD PUSH1 0xFF NOT AND PUSH1 0x3 OR SWAP1 SSTORE POP SWAP1 JUMP JUMPDEST DUP3 DUP1 SLOAD PUSH2 0x7F3 SWAP1 PUSH2 0xA3E JUMP JUMPDEST SWAP1 PUSH1 0x0 MSTORE PUSH1 0x20 PUSH1 0x0 KECCAK256 SWAP1 PUSH1 0x1F ADD PUSH1 0x20 SWAP1 DIV DUP2 ADD SWAP3 DUP3 PUSH2 0x815 JUMPI PUSH1 0x0 DUP6 SSTORE PUSH2 0x85B JUMP JUMPDEST DUP3 PUSH1 0x1F LT PUSH2 0x82E JUMPI DUP1 MLOAD PUSH1 0xFF NOT AND DUP4 DUP1 ADD OR DUP6 SSTORE PUSH2 0x85B JUMP JUMPDEST DUP3 DUP1 ADD PUSH1 0x1 ADD DUP6 SSTORE DUP3 ISZERO PUSH2 0x85B JUMPI SWAP2 DUP3 ADD JUMPDEST DUP3 DUP2 GT ISZERO PUSH2 0x85B JUMPI DUP3 MLOAD DUP3 SSTORE SWAP2 PUSH1 0x20 ADD SWAP2 SWAP1 PUSH1 0x1 ADD SWAP1 PUSH2 0x840 JUMP JUMPDEST POP PUSH2 0x867 SWAP3 SWAP2 POP PUSH2 0x86B JUMP JUMPDEST POP SWAP1 JUMP JUMPDEST JUMPDEST DUP1 DUP3 GT ISZERO PUSH2 0x867 JUMPI PUSH1 0x0 DUP2 SSTORE PUSH1 0x1 ADD PUSH2 0x86C JUMP JUMPDEST DUP1 CALLDATALOAD PUSH1 0x1 PUSH1 0x1 PUSH1 0xA0 SHL SUB DUP2 AND DUP2 EQ PUSH2 0x4FF JUMPI PUSH1 0x0 DUP1 REVERT JUMPDEST DUP1 CALLDATALOAD PUSH1 0x3 DUP2 LT PUSH2 0x4FF JUMPI PUSH1 0x0 DUP1 REVERT JUMPDEST PUSH1 0x0 PUSH1 0x20 DUP3 DUP5 SUB SLT ISZERO PUSH2 0x8B7 JUMPI DUP1 DUP2 REVERT JUMPDEST PUSH2 0x54C DUP3 PUSH2 0x897 JUMP JUMPDEST PUSH1 0x0 DUP1 PUSH1 0x0 DUP1 PUSH1 0x80 DUP6 DUP8 SUB SLT ISZERO PUSH2 0x8D5 JUMPI DUP3 DUP4 REVERT JUMPDEST DUP5 CALLDATALOAD SWAP4 POP PUSH2 0x8E5 PUSH1 0x20 DUP7 ADD PUSH2 0x880 JUMP JUMPDEST SWAP3 POP PUSH2 0x8F3 PUSH1 0x40 DUP7 ADD PUSH2 0x880 JUMP JUMPDEST SWAP4 SWAP7 SWAP3 SWAP6 POP SWAP3 SWAP4 PUSH1 0x60 ADD CALLDATALOAD SWAP3 POP POP JUMP JUMPDEST PUSH1 0x0 DUP1 PUSH1 0x0 PUSH1 0x60 DUP5 DUP7 SUB SLT ISZERO PUSH2 0x917 JUMPI DUP3 DUP4 REVERT JUMPDEST DUP4 CALLDATALOAD SWAP3 POP PUSH2 0x927 PUSH1 0x20 DUP6 ADD PUSH2 0x897 JUMP JUMPDEST SWAP2 POP PUSH1 0x40 DUP5 ADD CALLDATALOAD PUSH8 0xFFFFFFFFFFFFFFFF DUP1 DUP3 GT ISZERO PUSH2 0x943 JUMPI DUP3 DUP4 REVERT JUMPDEST DUP2 DUP7 ADD SWAP2 POP DUP7 PUSH1 0x1F DUP4 ADD SLT PUSH2 0x956 JUMPI DUP3 DUP4 REVERT JUMPDEST DUP2 CALLDATALOAD DUP2 DUP2 GT ISZERO PUSH2 0x968 JUMPI PUSH2 0x968 PUSH2 0xAAA JUMP JUMPDEST PUSH1 0x40 MLOAD PUSH1 0x1F DUP3 ADD PUSH1 0x1F NOT SWAP1 DUP2 AND PUSH1 0x3F ADD AND DUP2 ADD SWAP1 DUP4 DUP3 GT DUP2 DUP4 LT OR ISZERO PUSH2 0x990 JUMPI PUSH2 0x990 PUSH2 0xAAA JUMP JUMPDEST DUP2 PUSH1 0x40 MSTORE DUP3 DUP2 MSTORE DUP10 PUSH1 0x20 DUP5 DUP8 ADD ADD GT ISZERO PUSH2 0x9A8 JUMPI DUP6 DUP7 REVERT JUMPDEST DUP3 PUSH1 0x20 DUP7 ADD PUSH1 0x20 DUP4 ADD CALLDATACOPY DUP6 PUSH1 0x20 DUP5 DUP4 ADD ADD MSTORE DUP1 SWAP6 POP POP POP POP POP POP SWAP3 POP SWAP3 POP SWAP3 JUMP JUMPDEST PUSH1 0x0 DUP1 PUSH1 0x40 DUP4 DUP6 SUB SLT ISZERO PUSH2 0x9DB JUMPI DUP2 DUP3 REVERT JUMPDEST POP POP DUP1 CALLDATALOAD SWAP3 PUSH1 0x20 SWAP1 SWAP2 ADD CALLDATALOAD SWAP2 POP JUMP JUMPDEST PUSH1 0x0 PUSH2 0xFFFF DUP1 DUP4 AND DUP2 DUP6 AND DUP1 DUP4 SUB DUP3 GT ISZERO PUSH2 0xA07 JUMPI PUSH2 0xA07 PUSH2 0xA94 JUMP JUMPDEST ADD SWAP5 SWAP4 POP POP POP POP JUMP JUMPDEST PUSH1 0x0 DUP3 DUP3 LT ISZERO PUSH2 0xA22 JUMPI PUSH2 0xA22 PUSH2 0xA94 JUMP JUMPDEST POP SUB SWAP1 JUMP JUMPDEST PUSH1 0x0 DUP2 PUSH2 0xA36 JUMPI PUSH2 0xA36 PUSH2 0xA94 JUMP JUMPDEST POP PUSH1 0x0 NOT ADD SWAP1 JUMP JUMPDEST PUSH1 0x1 DUP2 DUP2 SHR SWAP1 DUP3 AND DUP1 PUSH2 0xA52 JUMPI PUSH1 0x7F DUP3 AND SWAP2 POP JUMPDEST PUSH1 0x20 DUP3 LT DUP2 EQ ISZERO PUSH2 0xA73 JUMPI PUSH4 0x4E487B71 PUSH1 0xE0 SHL PUSH1 0x0 MSTORE PUSH1 0x22 PUSH1 0x4 MSTORE PUSH1 0x24 PUSH1 0x0 REVERT JUMPDEST POP SWAP2 SWAP1 POP JUMP JUMPDEST PUSH1 0x0 PUSH1 0x0 NOT DUP3 EQ ISZERO PUSH2 0xA8D JUMPI PUSH2 0xA8D PUSH2 0xA94 JUMP JUMPDEST POP PUSH1 0x1 ADD SWAP1 JUMP JUMPDEST PUSH4 0x4E487B71 PUSH1 0xE0 SHL PUSH1 0x0 MSTORE PUSH1 0x11 PUSH1 0x4 MSTORE PUSH1 0x24 PUSH1 0x0 REVERT JUMPDEST PUSH4 0x4E487B71 PUSH1 0xE0 SHL PUSH1 0x0 MSTORE PUSH1 0x41 PUSH1 0x4 MSTORE PUSH1 0x24 PUSH1 0x0 REVERT INVALID LOG2 PUSH5 0x6970667358 0x22 SLT KECCAK256 JUMP MSIZE PUSH20 0x6C2C6D82FE387875C19F3B68D76727C175533525 0xC0 DUP5 SWAP15 0xCE PUSH24 0x8A7AC87C64736F6C63430008030033000000000000000000 "
		},
		"gasEstimates": {
			"creation": {
				"codeDepositCost": "561200",
				"executionCost": "628",
				"totalCost": "561828"
			},
			"external": {
				"createUnit(UnitSet storage,UnitType,string)": "infinite",
				"getCost(UnitType)": "infinite",
				"killUnit(UnitSet storage,uint256)": "65088",
				"transfer(UnitSet storage,address,address,uint256)": "infinite"
			},
			"internal": {
				"add(struct UnitSet storage pointer,struct Unit memory)": "infinite",
				"attack(struct Unit memory,struct Unit memory)": "infinite",
				"get(struct UnitSet storage pointer,uint256)": "infinite",
				"getCost(struct Unit storage pointer)": "infinite",
				"getCost(struct UnitSet storage pointer,uint256)": "infinite",
				"levelUp(struct Unit storage pointer)": "infinite",
				"remove(struct UnitSet storage pointer,uint256)": "infinite",
				"storeStats(struct UnitSet storage pointer,uint256[44] memory,uint256,uint16)": "infinite"
			}
		},
		"methodIdentifiers": {
			"createUnit(UnitSet storage,UnitType,string)": "b64a97ba",
			"getCost(UnitType)": "b9bf30a5",
			"killUnit(UnitSet storage,uint256)": "14b172a8",
			"transfer(UnitSet storage,address,address,uint256)": "4293c1ba"
		}
	},
	"abi": [
		{
			"inputs": [
				{
					"internalType": "enum UnitType",
					"name": "_type",
					"type": "UnitType"
				}
			],
			"name": "getCost",
			"outputs": [
				{
					"internalType": "uint16",
					"name": "cost",
					"type": "uint16"
				}
			],
			"stateMutability": "pure",
			"type": "function"
		}
	]
}