{
	"data": {
		"bytecode": {
			"linkReferences": {},
			"object": "610b2961003a600b82828239805160001a60731461002d57634e487b7160e01b600052600060045260246000fd5b30600052607381538281f3fe73000000000000000000000000000000000000000030146080604052600436106100565760003560e01c806314b172a81461005b5780634293c1ba14610091578063b64a97ba146100b3578063b9bf30a5146100d3575b600080fd5b81801561006757600080fd5b5061007b610076366004610987565b6100f3565b6040516100889190610a14565b60405180910390f35b81801561009d57600080fd5b506100b16100ac36600461087e565b610193565b005b8180156100bf57600080fd5b5061007b6100ce3660046108c1565b61023d565b6100e66100e1366004610864565b6103f7565b6040516100889190610a05565b600080600083815260028501602052604090205460ff16600481111561012957634e487b7160e01b600052602160045260246000fd5b14156101505760405162461bcd60e51b8152600401610147906109d7565b60405180910390fd5b60008281526002840160205260409020805460ff1916905561017283836104b6565b835460018101855560009485526020909420909301919091555061ffff1690565b6000818152600385016020908152604080832080546001600160a01b038088166001600160a01b03199283161790925560048901845282852080549091169055861683526006870190915281208054916101ec83610a5a565b90915550506001600160a01b0382166000908152600685016020526040812080549161021783610aac565b90915550506000908152600293909301602052505060409020805460ff19166003179055565b6040805160c0810182526000808252602082018190526001928201929092526060810182905281906080810185600281111561028957634e487b7160e01b600052602160045260246000fd5b8152602001849052905060008460028111156102b557634e487b7160e01b600052602160045260246000fd5b141561031257600f816000018181516102ce9190610a1d565b61ffff16905250602081018051600191906102ea908390610a1d565b61ffff1690525060608101805160329190610306908390610a1d565b61ffff169052506103e4565b600184600281111561033457634e487b7160e01b600052602160045260246000fd5b141561036957600a8160000181815161034d9190610a1d565b61ffff16905250602081018051600591906102ea908390610a1d565b600284600281111561038b57634e487b7160e01b600052602160045260246000fd5b14156103e457600a816000018181516103a49190610a1d565b61ffff16905250602081018051600191906103c0908390610a1d565b61ffff16905250606081018051604b91906103dc908390610a1d565b61ffff169052505b6103ee8582610505565b95945050505050565b6000600182600281111561041b57634e487b7160e01b600052602160045260246000fd5b14156104335761042c600a82610a1d565b90506104b1565b600082600281111561045557634e487b7160e01b600052602160045260246000fd5b14156104665761042c600f82610a1d565b600282600281111561048857634e487b7160e01b600052602160045260246000fd5b14156104995761042c601482610a1d565b60405162461bcd60e51b8152600401610147906109a8565b919050565b60006104fe8360010183815481106104de57634e487b7160e01b600052603260045260246000fd5b6000918252602090912060029091020154600160401b900460ff166103f7565b9392505050565b815460009015610685578254839061051f90600190610a43565b8154811061053d57634e487b7160e01b600052603260045260246000fd5b906000526020600020015490508260000180548061056b57634e487b7160e01b600052603160045260246000fd5b60019003818190600052602060002001600090559055818360010182815481106105a557634e487b7160e01b600052603260045260246000fd5b6000918252602091829020835160029283029091018054938501516040860151606087015161ffff1990961661ffff9485161763ffff0000191662010000928516929092029190911765ffff000000001916640100000000918416919091021767ffff00000000000019166601000000000000929094169190910292909217808355608084015191839160ff60401b191690600160401b90849081111561065c57634e487b7160e01b600052602160045260246000fd5b021790555060a0820151805161067c9160018401916020909101906107a5565b50905050610783565b6001838101805491820181556000908152602090819020845160029384029091018054928601516040870151606088015161ffff1990951661ffff9485161763ffff0000191662010000928516929092029190911765ffff000000001916640100000000918416919091021767ffff00000000000019166601000000000000929093169190910291909117808255608085015185939091839160ff60401b1990911690600160401b90849081111561074d57634e487b7160e01b600052602160045260246000fd5b021790555060a0820151805161076d9160018401916020909101906107a5565b5050506001838101546107809190610a43565b90505b60008181526002939093016020526040909220805460ff191660031790555090565b8280546107b190610a71565b90600052602060002090601f0160209004810192826107d35760008555610819565b82601f106107ec57805160ff1916838001178555610819565b82800160010185558215610819579182015b828111156108195782518255916020019190600101906107fe565b50610825929150610829565b5090565b5b80821115610825576000815560010161082a565b80356001600160a01b03811681146104b157600080fd5b8035600381106104b157600080fd5b600060208284031215610875578081fd5b6104fe82610855565b60008060008060808587031215610893578283fd5b843593506108a36020860161083e565b92506108b16040860161083e565b9396929550929360600135925050565b6000806000606084860312156108d5578283fd5b833592506108e560208501610855565b9150604084013567ffffffffffffffff80821115610901578283fd5b818601915086601f830112610914578283fd5b81358181111561092657610926610add565b604051601f8201601f19908116603f0116810190838211818310171561094e5761094e610add565b81604052828152896020848701011115610966578586fd5b82602086016020830137856020848301015280955050505050509250925092565b60008060408385031215610999578182fd5b50508035926020909101359150565b6020808252601590820152744e6f7420612076616c696420756e6974207479706560581b604082015260600190565b6020808252601490820152731d5b9a5d081a5cc8185b1c9958591e481919585960621b604082015260600190565b61ffff91909116815260200190565b90815260200190565b600061ffff808316818516808303821115610a3a57610a3a610ac7565b01949350505050565b600082821015610a5557610a55610ac7565b500390565b600081610a6957610a69610ac7565b506000190190565b600281046001821680610a8557607f821691505b60208210811415610aa657634e487b7160e01b600052602260045260246000fd5b50919050565b6000600019821415610ac057610ac0610ac7565b5060010190565b634e487b7160e01b600052601160045260246000fd5b634e487b7160e01b600052604160045260246000fdfea26469706673582212201fb12304e2c86b3617e5564dfdaa0533e56ac23106febbaac19b2114723f0c1264736f6c63430008010033",
			"opcodes": "PUSH2 0xB29 PUSH2 0x3A PUSH1 0xB DUP3 DUP3 DUP3 CODECOPY DUP1 MLOAD PUSH1 0x0 BYTE PUSH1 0x73 EQ PUSH2 0x2D JUMPI PUSH4 0x4E487B71 PUSH1 0xE0 SHL PUSH1 0x0 MSTORE PUSH1 0x0 PUSH1 0x4 MSTORE PUSH1 0x24 PUSH1 0x0 REVERT JUMPDEST ADDRESS PUSH1 0x0 MSTORE PUSH1 0x73 DUP2 MSTORE8 DUP3 DUP2 RETURN INVALID PUSH20 0x0 ADDRESS EQ PUSH1 0x80 PUSH1 0x40 MSTORE PUSH1 0x4 CALLDATASIZE LT PUSH2 0x56 JUMPI PUSH1 0x0 CALLDATALOAD PUSH1 0xE0 SHR DUP1 PUSH4 0x14B172A8 EQ PUSH2 0x5B JUMPI DUP1 PUSH4 0x4293C1BA EQ PUSH2 0x91 JUMPI DUP1 PUSH4 0xB64A97BA EQ PUSH2 0xB3 JUMPI DUP1 PUSH4 0xB9BF30A5 EQ PUSH2 0xD3 JUMPI JUMPDEST PUSH1 0x0 DUP1 REVERT JUMPDEST DUP2 DUP1 ISZERO PUSH2 0x67 JUMPI PUSH1 0x0 DUP1 REVERT JUMPDEST POP PUSH2 0x7B PUSH2 0x76 CALLDATASIZE PUSH1 0x4 PUSH2 0x987 JUMP JUMPDEST PUSH2 0xF3 JUMP JUMPDEST PUSH1 0x40 MLOAD PUSH2 0x88 SWAP2 SWAP1 PUSH2 0xA14 JUMP JUMPDEST PUSH1 0x40 MLOAD DUP1 SWAP2 SUB SWAP1 RETURN JUMPDEST DUP2 DUP1 ISZERO PUSH2 0x9D JUMPI PUSH1 0x0 DUP1 REVERT JUMPDEST POP PUSH2 0xB1 PUSH2 0xAC CALLDATASIZE PUSH1 0x4 PUSH2 0x87E JUMP JUMPDEST PUSH2 0x193 JUMP JUMPDEST STOP JUMPDEST DUP2 DUP1 ISZERO PUSH2 0xBF JUMPI PUSH1 0x0 DUP1 REVERT JUMPDEST POP PUSH2 0x7B PUSH2 0xCE CALLDATASIZE PUSH1 0x4 PUSH2 0x8C1 JUMP JUMPDEST PUSH2 0x23D JUMP JUMPDEST PUSH2 0xE6 PUSH2 0xE1 CALLDATASIZE PUSH1 0x4 PUSH2 0x864 JUMP JUMPDEST PUSH2 0x3F7 JUMP JUMPDEST PUSH1 0x40 MLOAD PUSH2 0x88 SWAP2 SWAP1 PUSH2 0xA05 JUMP JUMPDEST PUSH1 0x0 DUP1 PUSH1 0x0 DUP4 DUP2 MSTORE PUSH1 0x2 DUP6 ADD PUSH1 0x20 MSTORE PUSH1 0x40 SWAP1 KECCAK256 SLOAD PUSH1 0xFF AND PUSH1 0x4 DUP2 GT ISZERO PUSH2 0x129 JUMPI PUSH4 0x4E487B71 PUSH1 0xE0 SHL PUSH1 0x0 MSTORE PUSH1 0x21 PUSH1 0x4 MSTORE PUSH1 0x24 PUSH1 0x0 REVERT JUMPDEST EQ ISZERO PUSH2 0x150 JUMPI PUSH1 0x40 MLOAD PUSH3 0x461BCD PUSH1 0xE5 SHL DUP2 MSTORE PUSH1 0x4 ADD PUSH2 0x147 SWAP1 PUSH2 0x9D7 JUMP JUMPDEST PUSH1 0x40 MLOAD DUP1 SWAP2 SUB SWAP1 REVERT JUMPDEST PUSH1 0x0 DUP3 DUP2 MSTORE PUSH1 0x2 DUP5 ADD PUSH1 0x20 MSTORE PUSH1 0x40 SWAP1 KECCAK256 DUP1 SLOAD PUSH1 0xFF NOT AND SWAP1 SSTORE PUSH2 0x172 DUP4 DUP4 PUSH2 0x4B6 JUMP JUMPDEST DUP4 SLOAD PUSH1 0x1 DUP2 ADD DUP6 SSTORE PUSH1 0x0 SWAP5 DUP6 MSTORE PUSH1 0x20 SWAP1 SWAP5 KECCAK256 SWAP1 SWAP4 ADD SWAP2 SWAP1 SWAP2 SSTORE POP PUSH2 0xFFFF AND SWAP1 JUMP JUMPDEST PUSH1 0x0 DUP2 DUP2 MSTORE PUSH1 0x3 DUP6 ADD PUSH1 0x20 SWAP1 DUP2 MSTORE PUSH1 0x40 DUP1 DUP4 KECCAK256 DUP1 SLOAD PUSH1 0x1 PUSH1 0x1 PUSH1 0xA0 SHL SUB DUP1 DUP9 AND PUSH1 0x1 PUSH1 0x1 PUSH1 0xA0 SHL SUB NOT SWAP3 DUP4 AND OR SWAP1 SWAP3 SSTORE PUSH1 0x4 DUP10 ADD DUP5 MSTORE DUP3 DUP6 KECCAK256 DUP1 SLOAD SWAP1 SWAP2 AND SWAP1 SSTORE DUP7 AND DUP4 MSTORE PUSH1 0x6 DUP8 ADD SWAP1 SWAP2 MSTORE DUP2 KECCAK256 DUP1 SLOAD SWAP2 PUSH2 0x1EC DUP4 PUSH2 0xA5A JUMP JUMPDEST SWAP1 SWAP2 SSTORE POP POP PUSH1 0x1 PUSH1 0x1 PUSH1 0xA0 SHL SUB DUP3 AND PUSH1 0x0 SWAP1 DUP2 MSTORE PUSH1 0x6 DUP6 ADD PUSH1 0x20 MSTORE PUSH1 0x40 DUP2 KECCAK256 DUP1 SLOAD SWAP2 PUSH2 0x217 DUP4 PUSH2 0xAAC JUMP JUMPDEST SWAP1 SWAP2 SSTORE POP POP PUSH1 0x0 SWAP1 DUP2 MSTORE PUSH1 0x2 SWAP4 SWAP1 SWAP4 ADD PUSH1 0x20 MSTORE POP POP PUSH1 0x40 SWAP1 KECCAK256 DUP1 SLOAD PUSH1 0xFF NOT AND PUSH1 0x3 OR SWAP1 SSTORE JUMP JUMPDEST PUSH1 0x40 DUP1 MLOAD PUSH1 0xC0 DUP2 ADD DUP3 MSTORE PUSH1 0x0 DUP1 DUP3 MSTORE PUSH1 0x20 DUP3 ADD DUP2 SWAP1 MSTORE PUSH1 0x1 SWAP3 DUP3 ADD SWAP3 SWAP1 SWAP3 MSTORE PUSH1 0x60 DUP2 ADD DUP3 SWAP1 MSTORE DUP2 SWAP1 PUSH1 0x80 DUP2 ADD DUP6 PUSH1 0x2 DUP2 GT ISZERO PUSH2 0x289 JUMPI PUSH4 0x4E487B71 PUSH1 0xE0 SHL PUSH1 0x0 MSTORE PUSH1 0x21 PUSH1 0x4 MSTORE PUSH1 0x24 PUSH1 0x0 REVERT JUMPDEST DUP2 MSTORE PUSH1 0x20 ADD DUP5 SWAP1 MSTORE SWAP1 POP PUSH1 0x0 DUP5 PUSH1 0x2 DUP2 GT ISZERO PUSH2 0x2B5 JUMPI PUSH4 0x4E487B71 PUSH1 0xE0 SHL PUSH1 0x0 MSTORE PUSH1 0x21 PUSH1 0x4 MSTORE PUSH1 0x24 PUSH1 0x0 REVERT JUMPDEST EQ ISZERO PUSH2 0x312 JUMPI PUSH1 0xF DUP2 PUSH1 0x0 ADD DUP2 DUP2 MLOAD PUSH2 0x2CE SWAP2 SWAP1 PUSH2 0xA1D JUMP JUMPDEST PUSH2 0xFFFF AND SWAP1 MSTORE POP PUSH1 0x20 DUP2 ADD DUP1 MLOAD PUSH1 0x1 SWAP2 SWAP1 PUSH2 0x2EA SWAP1 DUP4 SWAP1 PUSH2 0xA1D JUMP JUMPDEST PUSH2 0xFFFF AND SWAP1 MSTORE POP PUSH1 0x60 DUP2 ADD DUP1 MLOAD PUSH1 0x32 SWAP2 SWAP1 PUSH2 0x306 SWAP1 DUP4 SWAP1 PUSH2 0xA1D JUMP JUMPDEST PUSH2 0xFFFF AND SWAP1 MSTORE POP PUSH2 0x3E4 JUMP JUMPDEST PUSH1 0x1 DUP5 PUSH1 0x2 DUP2 GT ISZERO PUSH2 0x334 JUMPI PUSH4 0x4E487B71 PUSH1 0xE0 SHL PUSH1 0x0 MSTORE PUSH1 0x21 PUSH1 0x4 MSTORE PUSH1 0x24 PUSH1 0x0 REVERT JUMPDEST EQ ISZERO PUSH2 0x369 JUMPI PUSH1 0xA DUP2 PUSH1 0x0 ADD DUP2 DUP2 MLOAD PUSH2 0x34D SWAP2 SWAP1 PUSH2 0xA1D JUMP JUMPDEST PUSH2 0xFFFF AND SWAP1 MSTORE POP PUSH1 0x20 DUP2 ADD DUP1 MLOAD PUSH1 0x5 SWAP2 SWAP1 PUSH2 0x2EA SWAP1 DUP4 SWAP1 PUSH2 0xA1D JUMP JUMPDEST PUSH1 0x2 DUP5 PUSH1 0x2 DUP2 GT ISZERO PUSH2 0x38B JUMPI PUSH4 0x4E487B71 PUSH1 0xE0 SHL PUSH1 0x0 MSTORE PUSH1 0x21 PUSH1 0x4 MSTORE PUSH1 0x24 PUSH1 0x0 REVERT JUMPDEST EQ ISZERO PUSH2 0x3E4 JUMPI PUSH1 0xA DUP2 PUSH1 0x0 ADD DUP2 DUP2 MLOAD PUSH2 0x3A4 SWAP2 SWAP1 PUSH2 0xA1D JUMP JUMPDEST PUSH2 0xFFFF AND SWAP1 MSTORE POP PUSH1 0x20 DUP2 ADD DUP1 MLOAD PUSH1 0x1 SWAP2 SWAP1 PUSH2 0x3C0 SWAP1 DUP4 SWAP1 PUSH2 0xA1D JUMP JUMPDEST PUSH2 0xFFFF AND SWAP1 MSTORE POP PUSH1 0x60 DUP2 ADD DUP1 MLOAD PUSH1 0x4B SWAP2 SWAP1 PUSH2 0x3DC SWAP1 DUP4 SWAP1 PUSH2 0xA1D JUMP JUMPDEST PUSH2 0xFFFF AND SWAP1 MSTORE POP JUMPDEST PUSH2 0x3EE DUP6 DUP3 PUSH2 0x505 JUMP JUMPDEST SWAP6 SWAP5 POP POP POP POP POP JUMP JUMPDEST PUSH1 0x0 PUSH1 0x1 DUP3 PUSH1 0x2 DUP2 GT ISZERO PUSH2 0x41B JUMPI PUSH4 0x4E487B71 PUSH1 0xE0 SHL PUSH1 0x0 MSTORE PUSH1 0x21 PUSH1 0x4 MSTORE PUSH1 0x24 PUSH1 0x0 REVERT JUMPDEST EQ ISZERO PUSH2 0x433 JUMPI PUSH2 0x42C PUSH1 0xA DUP3 PUSH2 0xA1D JUMP JUMPDEST SWAP1 POP PUSH2 0x4B1 JUMP JUMPDEST PUSH1 0x0 DUP3 PUSH1 0x2 DUP2 GT ISZERO PUSH2 0x455 JUMPI PUSH4 0x4E487B71 PUSH1 0xE0 SHL PUSH1 0x0 MSTORE PUSH1 0x21 PUSH1 0x4 MSTORE PUSH1 0x24 PUSH1 0x0 REVERT JUMPDEST EQ ISZERO PUSH2 0x466 JUMPI PUSH2 0x42C PUSH1 0xF DUP3 PUSH2 0xA1D JUMP JUMPDEST PUSH1 0x2 DUP3 PUSH1 0x2 DUP2 GT ISZERO PUSH2 0x488 JUMPI PUSH4 0x4E487B71 PUSH1 0xE0 SHL PUSH1 0x0 MSTORE PUSH1 0x21 PUSH1 0x4 MSTORE PUSH1 0x24 PUSH1 0x0 REVERT JUMPDEST EQ ISZERO PUSH2 0x499 JUMPI PUSH2 0x42C PUSH1 0x14 DUP3 PUSH2 0xA1D JUMP JUMPDEST PUSH1 0x40 MLOAD PUSH3 0x461BCD PUSH1 0xE5 SHL DUP2 MSTORE PUSH1 0x4 ADD PUSH2 0x147 SWAP1 PUSH2 0x9A8 JUMP JUMPDEST SWAP2 SWAP1 POP JUMP JUMPDEST PUSH1 0x0 PUSH2 0x4FE DUP4 PUSH1 0x1 ADD DUP4 DUP2 SLOAD DUP2 LT PUSH2 0x4DE JUMPI PUSH4 0x4E487B71 PUSH1 0xE0 SHL PUSH1 0x0 MSTORE PUSH1 0x32 PUSH1 0x4 MSTORE PUSH1 0x24 PUSH1 0x0 REVERT JUMPDEST PUSH1 0x0 SWAP2 DUP3 MSTORE PUSH1 0x20 SWAP1 SWAP2 KECCAK256 PUSH1 0x2 SWAP1 SWAP2 MUL ADD SLOAD PUSH1 0x1 PUSH1 0x40 SHL SWAP1 DIV PUSH1 0xFF AND PUSH2 0x3F7 JUMP JUMPDEST SWAP4 SWAP3 POP POP POP JUMP JUMPDEST DUP2 SLOAD PUSH1 0x0 SWAP1 ISZERO PUSH2 0x685 JUMPI DUP3 SLOAD DUP4 SWAP1 PUSH2 0x51F SWAP1 PUSH1 0x1 SWAP1 PUSH2 0xA43 JUMP JUMPDEST DUP2 SLOAD DUP2 LT PUSH2 0x53D JUMPI PUSH4 0x4E487B71 PUSH1 0xE0 SHL PUSH1 0x0 MSTORE PUSH1 0x32 PUSH1 0x4 MSTORE PUSH1 0x24 PUSH1 0x0 REVERT JUMPDEST SWAP1 PUSH1 0x0 MSTORE PUSH1 0x20 PUSH1 0x0 KECCAK256 ADD SLOAD SWAP1 POP DUP3 PUSH1 0x0 ADD DUP1 SLOAD DUP1 PUSH2 0x56B JUMPI PUSH4 0x4E487B71 PUSH1 0xE0 SHL PUSH1 0x0 MSTORE PUSH1 0x31 PUSH1 0x4 MSTORE PUSH1 0x24 PUSH1 0x0 REVERT JUMPDEST PUSH1 0x1 SWAP1 SUB DUP2 DUP2 SWAP1 PUSH1 0x0 MSTORE PUSH1 0x20 PUSH1 0x0 KECCAK256 ADD PUSH1 0x0 SWAP1 SSTORE SWAP1 SSTORE DUP2 DUP4 PUSH1 0x1 ADD DUP3 DUP2 SLOAD DUP2 LT PUSH2 0x5A5 JUMPI PUSH4 0x4E487B71 PUSH1 0xE0 SHL PUSH1 0x0 MSTORE PUSH1 0x32 PUSH1 0x4 MSTORE PUSH1 0x24 PUSH1 0x0 REVERT JUMPDEST PUSH1 0x0 SWAP2 DUP3 MSTORE PUSH1 0x20 SWAP2 DUP3 SWAP1 KECCAK256 DUP4 MLOAD PUSH1 0x2 SWAP3 DUP4 MUL SWAP1 SWAP2 ADD DUP1 SLOAD SWAP4 DUP6 ADD MLOAD PUSH1 0x40 DUP7 ADD MLOAD PUSH1 0x60 DUP8 ADD MLOAD PUSH2 0xFFFF NOT SWAP1 SWAP7 AND PUSH2 0xFFFF SWAP5 DUP6 AND OR PUSH4 0xFFFF0000 NOT AND PUSH3 0x10000 SWAP3 DUP6 AND SWAP3 SWAP1 SWAP3 MUL SWAP2 SWAP1 SWAP2 OR PUSH6 0xFFFF00000000 NOT AND PUSH5 0x100000000 SWAP2 DUP5 AND SWAP2 SWAP1 SWAP2 MUL OR PUSH8 0xFFFF000000000000 NOT AND PUSH7 0x1000000000000 SWAP3 SWAP1 SWAP5 AND SWAP2 SWAP1 SWAP2 MUL SWAP3 SWAP1 SWAP3 OR DUP1 DUP4 SSTORE PUSH1 0x80 DUP5 ADD MLOAD SWAP2 DUP4 SWAP2 PUSH1 0xFF PUSH1 0x40 SHL NOT AND SWAP1 PUSH1 0x1 PUSH1 0x40 SHL SWAP1 DUP5 SWAP1 DUP2 GT ISZERO PUSH2 0x65C JUMPI PUSH4 0x4E487B71 PUSH1 0xE0 SHL PUSH1 0x0 MSTORE PUSH1 0x21 PUSH1 0x4 MSTORE PUSH1 0x24 PUSH1 0x0 REVERT JUMPDEST MUL OR SWAP1 SSTORE POP PUSH1 0xA0 DUP3 ADD MLOAD DUP1 MLOAD PUSH2 0x67C SWAP2 PUSH1 0x1 DUP5 ADD SWAP2 PUSH1 0x20 SWAP1 SWAP2 ADD SWAP1 PUSH2 0x7A5 JUMP JUMPDEST POP SWAP1 POP POP PUSH2 0x783 JUMP JUMPDEST PUSH1 0x1 DUP4 DUP2 ADD DUP1 SLOAD SWAP2 DUP3 ADD DUP2 SSTORE PUSH1 0x0 SWAP1 DUP2 MSTORE PUSH1 0x20 SWAP1 DUP2 SWAP1 KECCAK256 DUP5 MLOAD PUSH1 0x2 SWAP4 DUP5 MUL SWAP1 SWAP2 ADD DUP1 SLOAD SWAP3 DUP7 ADD MLOAD PUSH1 0x40 DUP8 ADD MLOAD PUSH1 0x60 DUP9 ADD MLOAD PUSH2 0xFFFF NOT SWAP1 SWAP6 AND PUSH2 0xFFFF SWAP5 DUP6 AND OR PUSH4 0xFFFF0000 NOT AND PUSH3 0x10000 SWAP3 DUP6 AND SWAP3 SWAP1 SWAP3 MUL SWAP2 SWAP1 SWAP2 OR PUSH6 0xFFFF00000000 NOT AND PUSH5 0x100000000 SWAP2 DUP5 AND SWAP2 SWAP1 SWAP2 MUL OR PUSH8 0xFFFF000000000000 NOT AND PUSH7 0x1000000000000 SWAP3 SWAP1 SWAP4 AND SWAP2 SWAP1 SWAP2 MUL SWAP2 SWAP1 SWAP2 OR DUP1 DUP3 SSTORE PUSH1 0x80 DUP6 ADD MLOAD DUP6 SWAP4 SWAP1 SWAP2 DUP4 SWAP2 PUSH1 0xFF PUSH1 0x40 SHL NOT SWAP1 SWAP2 AND SWAP1 PUSH1 0x1 PUSH1 0x40 SHL SWAP1 DUP5 SWAP1 DUP2 GT ISZERO PUSH2 0x74D JUMPI PUSH4 0x4E487B71 PUSH1 0xE0 SHL PUSH1 0x0 MSTORE PUSH1 0x21 PUSH1 0x4 MSTORE PUSH1 0x24 PUSH1 0x0 REVERT JUMPDEST MUL OR SWAP1 SSTORE POP PUSH1 0xA0 DUP3 ADD MLOAD DUP1 MLOAD PUSH2 0x76D SWAP2 PUSH1 0x1 DUP5 ADD SWAP2 PUSH1 0x20 SWAP1 SWAP2 ADD SWAP1 PUSH2 0x7A5 JUMP JUMPDEST POP POP POP PUSH1 0x1 DUP4 DUP2 ADD SLOAD PUSH2 0x780 SWAP2 SWAP1 PUSH2 0xA43 JUMP JUMPDEST SWAP1 POP JUMPDEST PUSH1 0x0 DUP2 DUP2 MSTORE PUSH1 0x2 SWAP4 SWAP1 SWAP4 ADD PUSH1 0x20 MSTORE PUSH1 0x40 SWAP1 SWAP3 KECCAK256 DUP1 SLOAD PUSH1 0xFF NOT AND PUSH1 0x3 OR SWAP1 SSTORE POP SWAP1 JUMP JUMPDEST DUP3 DUP1 SLOAD PUSH2 0x7B1 SWAP1 PUSH2 0xA71 JUMP JUMPDEST SWAP1 PUSH1 0x0 MSTORE PUSH1 0x20 PUSH1 0x0 KECCAK256 SWAP1 PUSH1 0x1F ADD PUSH1 0x20 SWAP1 DIV DUP2 ADD SWAP3 DUP3 PUSH2 0x7D3 JUMPI PUSH1 0x0 DUP6 SSTORE PUSH2 0x819 JUMP JUMPDEST DUP3 PUSH1 0x1F LT PUSH2 0x7EC JUMPI DUP1 MLOAD PUSH1 0xFF NOT AND DUP4 DUP1 ADD OR DUP6 SSTORE PUSH2 0x819 JUMP JUMPDEST DUP3 DUP1 ADD PUSH1 0x1 ADD DUP6 SSTORE DUP3 ISZERO PUSH2 0x819 JUMPI SWAP2 DUP3 ADD JUMPDEST DUP3 DUP2 GT ISZERO PUSH2 0x819 JUMPI DUP3 MLOAD DUP3 SSTORE SWAP2 PUSH1 0x20 ADD SWAP2 SWAP1 PUSH1 0x1 ADD SWAP1 PUSH2 0x7FE JUMP JUMPDEST POP PUSH2 0x825 SWAP3 SWAP2 POP PUSH2 0x829 JUMP JUMPDEST POP SWAP1 JUMP JUMPDEST JUMPDEST DUP1 DUP3 GT ISZERO PUSH2 0x825 JUMPI PUSH1 0x0 DUP2 SSTORE PUSH1 0x1 ADD PUSH2 0x82A JUMP JUMPDEST DUP1 CALLDATALOAD PUSH1 0x1 PUSH1 0x1 PUSH1 0xA0 SHL SUB DUP2 AND DUP2 EQ PUSH2 0x4B1 JUMPI PUSH1 0x0 DUP1 REVERT JUMPDEST DUP1 CALLDATALOAD PUSH1 0x3 DUP2 LT PUSH2 0x4B1 JUMPI PUSH1 0x0 DUP1 REVERT JUMPDEST PUSH1 0x0 PUSH1 0x20 DUP3 DUP5 SUB SLT ISZERO PUSH2 0x875 JUMPI DUP1 DUP2 REVERT JUMPDEST PUSH2 0x4FE DUP3 PUSH2 0x855 JUMP JUMPDEST PUSH1 0x0 DUP1 PUSH1 0x0 DUP1 PUSH1 0x80 DUP6 DUP8 SUB SLT ISZERO PUSH2 0x893 JUMPI DUP3 DUP4 REVERT JUMPDEST DUP5 CALLDATALOAD SWAP4 POP PUSH2 0x8A3 PUSH1 0x20 DUP7 ADD PUSH2 0x83E JUMP JUMPDEST SWAP3 POP PUSH2 0x8B1 PUSH1 0x40 DUP7 ADD PUSH2 0x83E JUMP JUMPDEST SWAP4 SWAP7 SWAP3 SWAP6 POP SWAP3 SWAP4 PUSH1 0x60 ADD CALLDATALOAD SWAP3 POP POP JUMP JUMPDEST PUSH1 0x0 DUP1 PUSH1 0x0 PUSH1 0x60 DUP5 DUP7 SUB SLT ISZERO PUSH2 0x8D5 JUMPI DUP3 DUP4 REVERT JUMPDEST DUP4 CALLDATALOAD SWAP3 POP PUSH2 0x8E5 PUSH1 0x20 DUP6 ADD PUSH2 0x855 JUMP JUMPDEST SWAP2 POP PUSH1 0x40 DUP5 ADD CALLDATALOAD PUSH8 0xFFFFFFFFFFFFFFFF DUP1 DUP3 GT ISZERO PUSH2 0x901 JUMPI DUP3 DUP4 REVERT JUMPDEST DUP2 DUP7 ADD SWAP2 POP DUP7 PUSH1 0x1F DUP4 ADD SLT PUSH2 0x914 JUMPI DUP3 DUP4 REVERT JUMPDEST DUP2 CALLDATALOAD DUP2 DUP2 GT ISZERO PUSH2 0x926 JUMPI PUSH2 0x926 PUSH2 0xADD JUMP JUMPDEST PUSH1 0x40 MLOAD PUSH1 0x1F DUP3 ADD PUSH1 0x1F NOT SWAP1 DUP2 AND PUSH1 0x3F ADD AND DUP2 ADD SWAP1 DUP4 DUP3 GT DUP2 DUP4 LT OR ISZERO PUSH2 0x94E JUMPI PUSH2 0x94E PUSH2 0xADD JUMP JUMPDEST DUP2 PUSH1 0x40 MSTORE DUP3 DUP2 MSTORE DUP10 PUSH1 0x20 DUP5 DUP8 ADD ADD GT ISZERO PUSH2 0x966 JUMPI DUP6 DUP7 REVERT JUMPDEST DUP3 PUSH1 0x20 DUP7 ADD PUSH1 0x20 DUP4 ADD CALLDATACOPY DUP6 PUSH1 0x20 DUP5 DUP4 ADD ADD MSTORE DUP1 SWAP6 POP POP POP POP POP POP SWAP3 POP SWAP3 POP SWAP3 JUMP JUMPDEST PUSH1 0x0 DUP1 PUSH1 0x40 DUP4 DUP6 SUB SLT ISZERO PUSH2 0x999 JUMPI DUP2 DUP3 REVERT JUMPDEST POP POP DUP1 CALLDATALOAD SWAP3 PUSH1 0x20 SWAP1 SWAP2 ADD CALLDATALOAD SWAP2 POP JUMP JUMPDEST PUSH1 0x20 DUP1 DUP3 MSTORE PUSH1 0x15 SWAP1 DUP3 ADD MSTORE PUSH21 0x4E6F7420612076616C696420756E69742074797065 PUSH1 0x58 SHL PUSH1 0x40 DUP3 ADD MSTORE PUSH1 0x60 ADD SWAP1 JUMP JUMPDEST PUSH1 0x20 DUP1 DUP3 MSTORE PUSH1 0x14 SWAP1 DUP3 ADD MSTORE PUSH20 0x1D5B9A5D081A5CC8185B1C9958591E4819195859 PUSH1 0x62 SHL PUSH1 0x40 DUP3 ADD MSTORE PUSH1 0x60 ADD SWAP1 JUMP JUMPDEST PUSH2 0xFFFF SWAP2 SWAP1 SWAP2 AND DUP2 MSTORE PUSH1 0x20 ADD SWAP1 JUMP JUMPDEST SWAP1 DUP2 MSTORE PUSH1 0x20 ADD SWAP1 JUMP JUMPDEST PUSH1 0x0 PUSH2 0xFFFF DUP1 DUP4 AND DUP2 DUP6 AND DUP1 DUP4 SUB DUP3 GT ISZERO PUSH2 0xA3A JUMPI PUSH2 0xA3A PUSH2 0xAC7 JUMP JUMPDEST ADD SWAP5 SWAP4 POP POP POP POP JUMP JUMPDEST PUSH1 0x0 DUP3 DUP3 LT ISZERO PUSH2 0xA55 JUMPI PUSH2 0xA55 PUSH2 0xAC7 JUMP JUMPDEST POP SUB SWAP1 JUMP JUMPDEST PUSH1 0x0 DUP2 PUSH2 0xA69 JUMPI PUSH2 0xA69 PUSH2 0xAC7 JUMP JUMPDEST POP PUSH1 0x0 NOT ADD SWAP1 JUMP JUMPDEST PUSH1 0x2 DUP2 DIV PUSH1 0x1 DUP3 AND DUP1 PUSH2 0xA85 JUMPI PUSH1 0x7F DUP3 AND SWAP2 POP JUMPDEST PUSH1 0x20 DUP3 LT DUP2 EQ ISZERO PUSH2 0xAA6 JUMPI PUSH4 0x4E487B71 PUSH1 0xE0 SHL PUSH1 0x0 MSTORE PUSH1 0x22 PUSH1 0x4 MSTORE PUSH1 0x24 PUSH1 0x0 REVERT JUMPDEST POP SWAP2 SWAP1 POP JUMP JUMPDEST PUSH1 0x0 PUSH1 0x0 NOT DUP3 EQ ISZERO PUSH2 0xAC0 JUMPI PUSH2 0xAC0 PUSH2 0xAC7 JUMP JUMPDEST POP PUSH1 0x1 ADD SWAP1 JUMP JUMPDEST PUSH4 0x4E487B71 PUSH1 0xE0 SHL PUSH1 0x0 MSTORE PUSH1 0x11 PUSH1 0x4 MSTORE PUSH1 0x24 PUSH1 0x0 REVERT JUMPDEST PUSH4 0x4E487B71 PUSH1 0xE0 SHL PUSH1 0x0 MSTORE PUSH1 0x41 PUSH1 0x4 MSTORE PUSH1 0x24 PUSH1 0x0 REVERT INVALID LOG2 PUSH5 0x6970667358 0x22 SLT KECCAK256 0x1F 0xB1 0x23 DIV 0xE2 0xC8 PUSH12 0x3617E5564DFDAA0533E56AC2 BALANCE MOD INVALID 0xBB 0xAA 0xC1 SWAP12 0x21 EQ PUSH19 0x3F0C1264736F6C634300080100330000000000 "
		},
		"gasEstimates": {
			"creation": {
				"codeDepositCost": "571400",
				"executionCost": "637",
				"totalCost": "572037"
			},
			"external": {
				"createUnit(UnitSet storage,UnitType,string)": "infinite",
				"getCost(UnitType)": "infinite",
				"killUnit(UnitSet storage,uint256)": "65120",
				"transfer(UnitSet storage,address,address,uint256)": "infinite"
			},
			"internal": {
				"add(struct UnitSet storage pointer,struct Unit memory)": "infinite",
				"attack(struct Unit memory,struct Unit memory)": "infinite",
				"get(struct UnitSet storage pointer,uint256)": "infinite",
				"getCost(struct Unit storage pointer)": "infinite",
				"getCost(struct UnitSet storage pointer,uint256)": "infinite",
				"levelUp(struct Unit storage pointer)": "infinite",
				"remove(struct UnitSet storage pointer,uint256)": "infinite"
			}
		},
		"methodIdentifiers": {
			"createUnit(UnitSet storage,UnitType,string)": "b64a97ba",
			"getCost(UnitType)": "b9bf30a5",
			"killUnit(UnitSet storage,uint256)": "14b172a8",
			"transfer(UnitSet storage,address,address,uint256)": "4293c1ba"
		}
	},
	"abi": [
		{
			"inputs": [
				{
					"internalType": "enum UnitType",
					"name": "_type",
					"type": "UnitType"
				}
			],
			"name": "getCost",
			"outputs": [
				{
					"internalType": "uint16",
					"name": "cost",
					"type": "uint16"
				}
			],
			"stateMutability": "pure",
			"type": "function"
		}
	]
}