{
	"data": {
		"bytecode": {
			"linkReferences": {},
			"object": "6127fe61003a600b82828239805160001a60731461002d57634e487b7160e01b600052600060045260246000fd5b30600052607381538281f3fe73000000000000000000000000000000000000000030146080604052600436106100355760003560e01c8063749eb4a41461003a575b600080fd5b61004d610048366004612608565b610063565b60405161005a91906126b8565b60405180910390f35b600061006d61242c565b604080518082018252875181526020808901518183015290835281516080810183528751518184019081528851830151606083015281528251808401845288830180515182525183015181840152818301528382015281518083018352865181528682015181830152838301528151602c8082526105a08201909352600092909182016105808036833701905050905060005b602c81101561016b578481602c811061012957634e487b7160e01b600052603260045260246000fd5b602002015182828151811061014e57634e487b7160e01b600052603260045260246000fd5b60209081029190910101528061016381612761565b915050610100565b506101768183610194565b6101855760019250505061018c565b6000925050505b949350505050565b60007f30644e72e131a029b85045b68181585d2833e84879b9709143e1f593f0000001816101c0610351565b9050806080015151855160016101d69190612713565b146101e057600080fd5b604080518082019091526000808252602082018190525b86518110156102b8578387828151811061022157634e487b7160e01b600052603260045260246000fd5b60200260200101511061023357600080fd5b6102a48261029f856080015184600161024c9190612713565b8151811061026a57634e487b7160e01b600052603260045260246000fd5b60200260200101518a858151811061029257634e487b7160e01b600052603260045260246000fd5b6020026020010151611d51565b611da9565b9150806102b081612761565b9150506101f7565b506102ef8183608001516000815181106102e257634e487b7160e01b600052603260045260246000fd5b6020026020010151611da9565b90506103338560000151866020015161030784611df7565b85604001516103198a60400151611df7565b6060880151885161032990611df7565b8960200151611e8c565b610343576001935050505061034b565b600093505050505b92915050565b61035961245e565b6040805180820182527f1936c240636390dc823e3a728e94b208eb53c6756d81da57ec3425e05d43ac1081527f2d70ff78e8216bf29d58923a686d9738278b8ce2fd822e197c85b09286d155666020808301919091529083528151608080820184527f29c13ecb6f33dbc4b3b8a02e2e255511ce4c26a8a2f299efcc94caf2de4fce008285019081527f2b4daf047abe2e7f0b311118c1b963b63695dc0d769cea78849604434de055bf606080850191909152908352845180860186527f25ea0d7e2b29de431b86a943db30dbf4d98f68df9ca8a9628d14d1591e817d9081527f1da9020008df7f549751f8a251af3b2dc4a2ad3e0870de54acaedd9fc1b47e17818601528385015285840192909252835180820185527ee83c788c2878d1d5eba3ed49b0d81e4c0487dedc3e4d1c2baab5833785b62f8186019081527f011016e22ae045444f50fb80f246ec486c7e02af09132cd38c4fcf484983e4f2828501528152845180860186527f132a90a3b0d369ccd66e2a5ba04a935e44d8ad5dca93a76bba592a578130a91181527f05eb89e741ed5b5d611cebf92d1ed02cd6f3311089f0d400df7d9ced5a48fd41818601528185015285850152835190810184527f0c3b60f59d3bd50328a04c0ff6d979199685d0526f89f6ac29d6174ce24707a28185019081527f065f6a3323a2abffd621fc263f348eb914904b68d5897729ae34a6b9d33f0852828401528152835180850185527f12e0f3721230a0f38f6c9913048d5230fd2615ef3ff7f6ee4b20dfe0bdea1a8681527f26e7ebce2b44efef6b6315938e33f0a8ecc82dbad635c9efa681ed85bbb599828185015281840152908401528151602d8082526105c08201909352919082015b6105dc6124a5565b8152602001906001900390816105d457505060808201908152604080518082019091527f11d61ba810b75b111c8cb3a6a30ce3375c442da9f17a6f3174e690b0ba9375ed81527f1270e192b15af163f64bfd3939cd0e0e526e2fc082a7ae6052dfed2c705c4d9060208201529051805160009061066957634e487b7160e01b600052603260045260246000fd5b602002602001018190525060405180604001604052807f285af8995ea42589abc59724928f6b603e59fbcad7c9db3d9b1fd4e4e962054e81526020017f170c2beb14ad580a404cb2871a1ee49680d23485ad8954412f60a09982c902d381525081608001516001815181106106ee57634e487b7160e01b600052603260045260246000fd5b602002602001018190525060405180604001604052807f1f571ccfe22b866717198412f40c648ecf37357321abd8f1c21223426f08941781526020017f17d7ed466be9104ef5f60b9a31909cf8f141ff060381f54a50be229e87f89968815250816080015160028151811061077357634e487b7160e01b600052603260045260246000fd5b602002602001018190525060405180604001604052807f1fc56e7fd93b20ed5108834bc4739fd25e43e6183b2af64eaf55dc648890f7cd81526020017f0f646159a1df9f38b1d0177723e1784d2bad691d5b809c65e15f9b99bfb07d6a81525081608001516003815181106107f857634e487b7160e01b600052603260045260246000fd5b602002602001018190525060405180604001604052807f25049a5634bba5f2008472c2156d72d773b0e321901cc029bae44147f4c6aac681526020017f0c28e2f1635d996ef69750854f75d21d2d111befbf1458c5be70d7906774f526815250816080015160048151811061087d57634e487b7160e01b600052603260045260246000fd5b602002602001018190525060405180604001604052807f2163fc55cefa9fa82b169e1f54b4c407e4b68bb1841cba52b111d56f9fbb6c9b81526020017f18340fa57f6912781990be7f28012ffe1db62fde1df3464d09f47234edb2fa5e815250816080015160058151811061090257634e487b7160e01b600052603260045260246000fd5b602002602001018190525060405180604001604052807f2a4c1cb1ebf6e0b39804426c40641291b8d237af1227865f19c290e4c227cd6681526020017f1bc2c961b27259be9ad2c7fe57350c892be1fde2f2014512b6db3dabb47cd76f815250816080015160068151811061098757634e487b7160e01b600052603260045260246000fd5b602002602001018190525060405180604001604052807f06ac0238db3084e7dbc8c82be33706906cdc6193c135693e7d7584bc08aecda481526020017f09a20fbd7c0f311288f695cdeaa2b7566eca12e32360fb037a9c6c77ea003ef68152508160800151600781518110610a0c57634e487b7160e01b600052603260045260246000fd5b602002602001018190525060405180604001604052807f2b5ad6769e14f022d0a16507f81566dbe18ab1bb78a0f649d493f97255e173e881526020017f238e2c9fb05cbf564c1e317b61c0de7742d27bd0927d1fba5649b06ded9329788152508160800151600881518110610a9157634e487b7160e01b600052603260045260246000fd5b602002602001018190525060405180604001604052807f25cb7d8439221ce128f1a1aa5ed9c95c1b05a541b01b8a431a86a3e33ed68e9e81526020017f073cc02780cca076492bbc0b092ce32022bfd3e2450ca04a33a4a94782d5f2ea8152508160800151600981518110610b1657634e487b7160e01b600052603260045260246000fd5b602002602001018190525060405180604001604052807f1a0278ebfe91798d67674fa87ad740b98401d1c9494daf5c8089c8e7121dbb8d81526020017f02e6b0c0cbdbd59fb42ca419db3ef703a3da392147704909b5a0e872dd8994648152508160800151600a81518110610b9b57634e487b7160e01b600052603260045260246000fd5b602002602001018190525060405180604001604052807f21780e91d52afb209419dd17f6599aa38a52ddc8e1e5f49ed6090e7c4d03b3fe81526020017f22a80c546a26ca0d8f8fe8257c9991926b191f3f3dba0bd90fda786c39c37b918152508160800151600b81518110610c2057634e487b7160e01b600052603260045260246000fd5b602002602001018190525060405180604001604052807f0bb2397a6c30c72f48b0c72c0f5577534699f6ea7cf67c490742c1c9e17b6cc781526020017f11862760eb0a0abd05d4e7881cc240156bec95492edb5fc8aea0aec3ec29c9ec8152508160800151600c81518110610ca557634e487b7160e01b600052603260045260246000fd5b602002602001018190525060405180604001604052807f2407c52455d258d61bd1e90bb54813e978040b02df5f030a30ee077eb07ea96481526020017f05b61262fb1231689b1a643d60c428c4cb9c63a255e08de66f722596ec1d1e5c8152508160800151600d81518110610d2a57634e487b7160e01b600052603260045260246000fd5b602002602001018190525060405180604001604052807f18a82ed3da6e9e51077ba90e9ba567336b82f901ffbe1f6c1f3e41797f7bea3081526020017f0dfedb55a5a958c52b7ca38c87373fecb39e8e8756743fb5ed961464424c120e8152508160800151600e81518110610daf57634e487b7160e01b600052603260045260246000fd5b602002602001018190525060405180604001604052807f158d95fac4a0e988afafc590d18a595f03d13521296a8f7d05f04b39d567370b81526020017e5b73f2e6187340e22dd80ba9a6fb498e165253770930ab716a1b60cb91a4c18152508160800151600f81518110610e3357634e487b7160e01b600052603260045260246000fd5b602002602001018190525060405180604001604052807f17d02024f43b1c743b7733c6e43002f871d6c6ed43b6a20f3a75a73ad4a2580a81526020017e0b6780be16a45e6ac0e196d50a6e9a4820afa6602126c1a7ab2668ec9e186e8152508160800151601081518110610eb757634e487b7160e01b600052603260045260246000fd5b602002602001018190525060405180604001604052807f25db7771c4b3349e3fcb86d8eb554207ac29eaf7d70e907193fd9074ef4f0ebb81526020017f0dd75c6391f014aefb0ba76cb9c789dba910d30c91c1732084c0d812309a1cc88152508160800151601181518110610f3c57634e487b7160e01b600052603260045260246000fd5b602002602001018190525060405180604001604052807f0e7e5b8029abc3506d6b811cc7946c63b6e2a6e01809044bf4f6f9430148aeac81526020017f268471fe70289f7fe4a7705b6c0d431139206a4d492e4136eb9f6f55c6f8bc2d8152508160800151601281518110610fc157634e487b7160e01b600052603260045260246000fd5b602002602001018190525060405180604001604052807f1576bf986f9bb210466b89b873a7833269b050848d332c99ba608f1eaee6aa0181526020017f1168485516689926c4b2a4b673707f4942b8dd6f402ec95f1ee907f2a3d84577815250816080015160138151811061104657634e487b7160e01b600052603260045260246000fd5b602002602001018190525060405180604001604052807f0f650e71d6129969855f8a5a3127c78efb4861cf962453121394d7efcfcbd66481526020017f156cd8241fe65924bfdf5a2310f56336be40fbacfd5123bbfa7a769a10249e6781525081608001516014815181106110cb57634e487b7160e01b600052603260045260246000fd5b602002602001018190525060405180604001604052807f1720661c8da5778c83feafdd22eb41b9e254b046d5b949150c40278eda51cac881526020017f2b345b2ee888e683c0157b13d53d3088f0875013bc3d14e25ed3781b703950a9815250816080015160158151811061115057634e487b7160e01b600052603260045260246000fd5b602002602001018190525060405180604001604052807f06a42e8b89d8a954f0f7e91aa0c8b98e693592decf4201fd4a06e24e3bfb500281526020017f1c7dab7f0ea42bdd88dd17122095541c417a99458fd68d4f97093520d8a883d181525081608001516016815181106111d557634e487b7160e01b600052603260045260246000fd5b602002602001018190525060405180604001604052807f2f10e0f4309d454904b1227d28487f10c1f85de7fcf61f5ea631d6fc8281a54481526020017f28b62b01d02d2a0032f1a5aba9d53cc0687db89002af71da7c0d402fac3e1993815250816080015160178151811061125a57634e487b7160e01b600052603260045260246000fd5b602002602001018190525060405180604001604052807f2d403f9337d943df284d0b53f2bf9bcc780d914cf9e1247b45586c074184dc2181526020017f2a1bd2010162e162342bb6600c58584aa7118872f38508b43d578d5c0e6c17e181525081608001516018815181106112df57634e487b7160e01b600052603260045260246000fd5b602002602001018190525060405180604001604052807f1c46a154826c6121308dc486196ca41603bd50339530314e38eb2739f7e1e69281526020017f08c06598e305c986293fab4a0cf6b96aed0a6fb59be6963ea97333f61c87e34e815250816080015160198151811061136457634e487b7160e01b600052603260045260246000fd5b602002602001018190525060405180604001604052807f135e0e2528bd615b25fb503e6088524dbea76b0fc3fba9cd52cc39a7fbcda33681526020017f0994ffe326c29ea1933d509d45f3a6ac413c0e2fcf92d35e3e6a549f6e2e30fd8152508160800151601a815181106113e957634e487b7160e01b600052603260045260246000fd5b602002602001018190525060405180604001604052807f17a5afe6d0290b06964489d3d602e42eb59af1de66a8b35904efd8f52a53fd9481526020017f08c49705a396be50d841b1541cfd51ad384641f03cd61966b37e2550a1e959878152508160800151601b8151811061146e57634e487b7160e01b600052603260045260246000fd5b602002602001018190525060405180604001604052807f26de9f6db72a741bdd305198ea0445e47184ebfe4b92e75045e58dda24d86c6d81526020017f23c5c3e0305866f134fb5c6a573e5be97295f028282325565ef20f938067fa038152508160800151601c815181106114f357634e487b7160e01b600052603260045260246000fd5b602002602001018190525060405180604001604052807f162975a783b65e6a6fb30c732fe961a96bf1eb7eb3685abc84b53ff11abf329a81526020017f0478aeb0f705e43d0942b7c1885af3bfc801f1abd180b073a39de5c8b461cf478152508160800151601d8151811061157857634e487b7160e01b600052603260045260246000fd5b602002602001018190525060405180604001604052807f2e5fd2013c2b13fa019a83cbd3f43d7938461e4c9e5552eb9017b32fc34e8bf381526020017f0e349dade08115db3519733364205d90fb59a7e6eef1bc581f166668df10ae608152508160800151601e815181106115fd57634e487b7160e01b600052603260045260246000fd5b602002602001018190525060405180604001604052807f126e12d37fbad5cc47820cee2474394db82d925f3264563e8e1c1a0b03cb584181526020017f28a711671bf925d68ce783d93b94b68775f6d69a847fb47f7af61700baadf66f8152508160800151601f8151811061168257634e487b7160e01b600052603260045260246000fd5b602002602001018190525060405180604001604052807f2a6f1b2021a6ae3f7fac4887914e19534643bba2bd9ce4c2edbf24542e38131281526020017f1e909b208d46c4eb0714792327f38a3b3e3c9350f14de68301476546af6814c6815250816080015160208151811061170757634e487b7160e01b600052603260045260246000fd5b602002602001018190525060405180604001604052807f17731ef02b08f468114b1ccc76537249108306faee4e4b0d2dd708f5295bd42781526020017f23f0f6cb589e2f90e34acb7eac32add32987f06bfc667e99b55a7c0538f33a4d815250816080015160218151811061178c57634e487b7160e01b600052603260045260246000fd5b602002602001018190525060405180604001604052807f1b31b04d5091e77c36ee687cfc452d394a4a075d0a1b45e8b573d8149357a8bc81526020017f295f3fa7b71bf3ff983d32791ed3b30b1b465616095336b32f7b8d1ac4a3d451815250816080015160228151811061181157634e487b7160e01b600052603260045260246000fd5b602002602001018190525060405180604001604052807f1263c668033c68e46dec13c6d485daf75ed91a0bfa9850bf328106d1d955970f81526020017f0e2b89cdd17582d9dd732ad91971541a95aa61f78feb4f43d562b75fa7b80acb815250816080015160238151811061189657634e487b7160e01b600052603260045260246000fd5b602002602001018190525060405180604001604052807f0afacb52e45d8a85bdc35081c35ac602ca40d64ef0f58ca91e370ba5f540a1c081526020017f06e0e6ad986020bc70cde21d2b78618b4fe7a6fd97bfe7a0079fe3eccce2d492815250816080015160248151811061191b57634e487b7160e01b600052603260045260246000fd5b602002602001018190525060405180604001604052807f0713bb6e5c0f353645da92e86e9892072c71816615a09baa9c6a9d783ef5befd81526020017f182838bee668d2a05a6a049fa6f7fad4593bb43005187f36a9b82f870a4e05ac81525081608001516025815181106119a057634e487b7160e01b600052603260045260246000fd5b602002602001018190525060405180604001604052807f148f3718c087f6ec736055d15b923c4b9c0f93d67d64d43cb085ef207aeb28ec81526020017f0235f9abc5fa835a3c10cd2c7bbd45cca9c4adb679770cc6dd074887e4cabf958152508160800151602681518110611a2557634e487b7160e01b600052603260045260246000fd5b602002602001018190525060405180604001604052807f26082ea9e67339be7a3901c4d2af05cb822967212e3ade94f9da2d80b98192c381526020017f060f244151e628bb6077a67b555b523ffbca5a31308807f1180d6d05534374358152508160800151602781518110611aaa57634e487b7160e01b600052603260045260246000fd5b602002602001018190525060405180604001604052807f0996398eff35ce28ac4189979cc0644e88819e6d6403524d1caf5ba175e0869a81526020017f13d9fa61308b6454de3f489f5d2de44545755f60848473fb845357410874838d8152508160800151602881518110611b2f57634e487b7160e01b600052603260045260246000fd5b602002602001018190525060405180604001604052807f16b4ce0c2d293168e8730f6730ca7002c23b5341a8a66d858389e47bbd0ad79681526020017f27517ee760585473fc200b5e900cb7f6b845d916e3b3ffa1f724452e26c2fd328152508160800151602981518110611bb457634e487b7160e01b600052603260045260246000fd5b602002602001018190525060405180604001604052807f149417d7e7c0e43d0ad34a92df1d22a7113858f3378ad3eabedf4396699475cd81526020017f1ff8712353217c4dfedc9a38bdce591c8f6adcb5200f23a3073e665e9d9765008152508160800151602a81518110611c3957634e487b7160e01b600052603260045260246000fd5b602002602001018190525060405180604001604052807f0c39b606db9740c2a42111aac5b68ad2f7e4953452183628ae9548b25fa2c89081526020017f2aaf9cce0d18e28ff55632d946884cff256ddd9cc92d927fa462964b2d61a3568152508160800151602b81518110611cbe57634e487b7160e01b600052603260045260246000fd5b602002602001018190525060405180604001604052807f04da530427c4adf2a10b2708a193096f71d3d7f4e4e880e9bae13341ab182f5481526020017f0c20a057490a7bc04d1cb9fbc226caf83a62ac8ffb75dd268e76bea3d31107178152508160800151602c81518110611d4357634e487b7160e01b600052603260045260246000fd5b602002602001018190525090565b611d596124a5565b611d616124bf565b835181526020808501519082015260408101839052600060608360808460076107d05a03fa9050808015611d9457611d96565bfe5b5080611da157600080fd5b505092915050565b611db16124a5565b611db96124dd565b8351815260208085015181830152835160408301528301516060808301919091526000908360c08460066107d05a03fa9050808015611d9457611d96565b611dff6124a5565b81517f30644e72e131a029b85045b68181585d97816a916871ca8d3c208c16d87cfd4790158015611e3257506020830151155b15611e525750506040805180820190915260008082526020820152611e87565b604051806040016040528084600001518152602001828560200151611e77919061277c565b611e81908461274a565b90529150505b919050565b60408051600480825260a08201909252600091829190816020015b611eaf6124a5565b815260200190600190039081611ea757505060408051600480825260a0820190925291925060009190602082015b611ee56124fb565b815260200190600190039081611edd5790505090508a82600081518110611f1c57634e487b7160e01b600052603260045260246000fd5b60200260200101819052508882600181518110611f4957634e487b7160e01b600052603260045260246000fd5b60200260200101819052508682600281518110611f7657634e487b7160e01b600052603260045260246000fd5b60200260200101819052508482600381518110611fa357634e487b7160e01b600052603260045260246000fd5b60200260200101819052508981600081518110611fd057634e487b7160e01b600052603260045260246000fd5b60200260200101819052508781600181518110611ffd57634e487b7160e01b600052603260045260246000fd5b6020026020010181905250858160028151811061202a57634e487b7160e01b600052603260045260246000fd5b6020026020010181905250838160038151811061205757634e487b7160e01b600052603260045260246000fd5b602002602001018190525061206c828261207b565b9b9a5050505050505050505050565b6000815183511461208b57600080fd5b8251600061209a82600661272b565b90506000816001600160401b038111156120c457634e487b7160e01b600052604160045260246000fd5b6040519080825280602002602001820160405280156120ed578160200160208202803683370190505b50905060005b838110156123ec5786818151811061211b57634e487b7160e01b600052603260045260246000fd5b60200260200101516000015182826006612135919061272b565b612140906000612713565b8151811061215e57634e487b7160e01b600052603260045260246000fd5b60200260200101818152505086818151811061218a57634e487b7160e01b600052603260045260246000fd5b602002602001015160200151828260066121a4919061272b565b6121af906001612713565b815181106121cd57634e487b7160e01b600052603260045260246000fd5b6020026020010181815250508581815181106121f957634e487b7160e01b600052603260045260246000fd5b6020908102919091018101515101518261221483600661272b565b61221f906002612713565b8151811061223d57634e487b7160e01b600052603260045260246000fd5b60200260200101818152505085818151811061226957634e487b7160e01b600052603260045260246000fd5b602090810291909101015151518261228283600661272b565b61228d906003612713565b815181106122ab57634e487b7160e01b600052603260045260246000fd5b6020026020010181815250508581815181106122d757634e487b7160e01b600052603260045260246000fd5b60200260200101516020015160016002811061230357634e487b7160e01b600052603260045260246000fd5b60200201518261231483600661272b565b61231f906004612713565b8151811061233d57634e487b7160e01b600052603260045260246000fd5b60200260200101818152505085818151811061236957634e487b7160e01b600052603260045260246000fd5b60200260200101516020015160006002811061239557634e487b7160e01b600052603260045260246000fd5b6020020151826123a683600661272b565b6123b1906005612713565b815181106123cf57634e487b7160e01b600052603260045260246000fd5b6020908102919091010152806123e481612761565b9150506120f3565b506123f561251b565b6000602082602086026020860160086107d05a03fa9050808015611d9457508061241e57600080fd5b505115159695505050505050565b604051806060016040528061243f6124a5565b815260200161244c6124fb565b81526020016124596124a5565b905290565b6040518060a001604052806124716124a5565b815260200161247e6124fb565b815260200161248b6124fb565b81526020016124986124fb565b8152602001606081525090565b604051806040016040528060008152602001600081525090565b60405180606001604052806003906020820280368337509192915050565b60405180608001604052806004906020820280368337509192915050565b604051806040016040528061250e612539565b8152602001612459612539565b60405180602001604052806001906020820280368337509192915050565b60405180604001604052806002906020820280368337509192915050565b600082601f830112612567578081fd5b61257160406126c3565b808385604086011115612582578384fd5b835b60028110156125a3578135845260209384019390910190600101612584565b509095945050505050565b600082601f8301126125be578081fd5b6105806125ca816126c3565b80848684870111156125da578485fd5b8493505b602c8410156125fe578035835260019390930192602092830192016125de565b5095945050505050565b600080600080610680858703121561261e578384fd5b6126288686612557565b9350604086605f87011261263a578384fd5b600261264d612648826126f3565b6126c3565b8083890160c08a018b811115612661578889fd5b885b85811015612689576126758d84612557565b855260209094019391860191600101612663565b508298506126978c82612557565b97505050505050506126ad8661010087016125ae565b905092959194509250565b901515815260200190565b604051601f8201601f191681016001600160401b03811182821017156126eb576126eb6127b2565b604052919050565b60006001600160401b0382111561270c5761270c6127b2565b5060200290565b600082198211156127265761272661279c565b500190565b60008160001904831182151516156127455761274561279c565b500290565b60008282101561275c5761275c61279c565b500390565b60006000198214156127755761277561279c565b5060010190565b60008261279757634e487b7160e01b81526012600452602481fd5b500690565b634e487b7160e01b600052601160045260246000fd5b634e487b7160e01b600052604160045260246000fdfea26469706673582212203f90a65e77f6574d131e58783a60b841420269c6b9d6d20558c20a58b60781c564736f6c63430008010033",
			"opcodes": "PUSH2 0x27FE PUSH2 0x3A PUSH1 0xB DUP3 DUP3 DUP3 CODECOPY DUP1 MLOAD PUSH1 0x0 BYTE PUSH1 0x73 EQ PUSH2 0x2D JUMPI PUSH4 0x4E487B71 PUSH1 0xE0 SHL PUSH1 0x0 MSTORE PUSH1 0x0 PUSH1 0x4 MSTORE PUSH1 0x24 PUSH1 0x0 REVERT JUMPDEST ADDRESS PUSH1 0x0 MSTORE PUSH1 0x73 DUP2 MSTORE8 DUP3 DUP2 RETURN INVALID PUSH20 0x0 ADDRESS EQ PUSH1 0x80 PUSH1 0x40 MSTORE PUSH1 0x4 CALLDATASIZE LT PUSH2 0x35 JUMPI PUSH1 0x0 CALLDATALOAD PUSH1 0xE0 SHR DUP1 PUSH4 0x749EB4A4 EQ PUSH2 0x3A JUMPI JUMPDEST PUSH1 0x0 DUP1 REVERT JUMPDEST PUSH2 0x4D PUSH2 0x48 CALLDATASIZE PUSH1 0x4 PUSH2 0x2608 JUMP JUMPDEST PUSH2 0x63 JUMP JUMPDEST PUSH1 0x40 MLOAD PUSH2 0x5A SWAP2 SWAP1 PUSH2 0x26B8 JUMP JUMPDEST PUSH1 0x40 MLOAD DUP1 SWAP2 SUB SWAP1 RETURN JUMPDEST PUSH1 0x0 PUSH2 0x6D PUSH2 0x242C JUMP JUMPDEST PUSH1 0x40 DUP1 MLOAD DUP1 DUP3 ADD DUP3 MSTORE DUP8 MLOAD DUP2 MSTORE PUSH1 0x20 DUP1 DUP10 ADD MLOAD DUP2 DUP4 ADD MSTORE SWAP1 DUP4 MSTORE DUP2 MLOAD PUSH1 0x80 DUP2 ADD DUP4 MSTORE DUP8 MLOAD MLOAD DUP2 DUP5 ADD SWAP1 DUP2 MSTORE DUP9 MLOAD DUP4 ADD MLOAD PUSH1 0x60 DUP4 ADD MSTORE DUP2 MSTORE DUP3 MLOAD DUP1 DUP5 ADD DUP5 MSTORE DUP9 DUP4 ADD DUP1 MLOAD MLOAD DUP3 MSTORE MLOAD DUP4 ADD MLOAD DUP2 DUP5 ADD MSTORE DUP2 DUP4 ADD MSTORE DUP4 DUP3 ADD MSTORE DUP2 MLOAD DUP1 DUP4 ADD DUP4 MSTORE DUP7 MLOAD DUP2 MSTORE DUP7 DUP3 ADD MLOAD DUP2 DUP4 ADD MSTORE DUP4 DUP4 ADD MSTORE DUP2 MLOAD PUSH1 0x2C DUP1 DUP3 MSTORE PUSH2 0x5A0 DUP3 ADD SWAP1 SWAP4 MSTORE PUSH1 0x0 SWAP3 SWAP1 SWAP2 DUP3 ADD PUSH2 0x580 DUP1 CALLDATASIZE DUP4 CALLDATACOPY ADD SWAP1 POP POP SWAP1 POP PUSH1 0x0 JUMPDEST PUSH1 0x2C DUP2 LT ISZERO PUSH2 0x16B JUMPI DUP5 DUP2 PUSH1 0x2C DUP2 LT PUSH2 0x129 JUMPI PUSH4 0x4E487B71 PUSH1 0xE0 SHL PUSH1 0x0 MSTORE PUSH1 0x32 PUSH1 0x4 MSTORE PUSH1 0x24 PUSH1 0x0 REVERT JUMPDEST PUSH1 0x20 MUL ADD MLOAD DUP3 DUP3 DUP2 MLOAD DUP2 LT PUSH2 0x14E JUMPI PUSH4 0x4E487B71 PUSH1 0xE0 SHL PUSH1 0x0 MSTORE PUSH1 0x32 PUSH1 0x4 MSTORE PUSH1 0x24 PUSH1 0x0 REVERT JUMPDEST PUSH1 0x20 SWAP1 DUP2 MUL SWAP2 SWAP1 SWAP2 ADD ADD MSTORE DUP1 PUSH2 0x163 DUP2 PUSH2 0x2761 JUMP JUMPDEST SWAP2 POP POP PUSH2 0x100 JUMP JUMPDEST POP PUSH2 0x176 DUP2 DUP4 PUSH2 0x194 JUMP JUMPDEST PUSH2 0x185 JUMPI PUSH1 0x1 SWAP3 POP POP POP PUSH2 0x18C JUMP JUMPDEST PUSH1 0x0 SWAP3 POP POP POP JUMPDEST SWAP5 SWAP4 POP POP POP POP JUMP JUMPDEST PUSH1 0x0 PUSH32 0x30644E72E131A029B85045B68181585D2833E84879B9709143E1F593F0000001 DUP2 PUSH2 0x1C0 PUSH2 0x351 JUMP JUMPDEST SWAP1 POP DUP1 PUSH1 0x80 ADD MLOAD MLOAD DUP6 MLOAD PUSH1 0x1 PUSH2 0x1D6 SWAP2 SWAP1 PUSH2 0x2713 JUMP JUMPDEST EQ PUSH2 0x1E0 JUMPI PUSH1 0x0 DUP1 REVERT JUMPDEST PUSH1 0x40 DUP1 MLOAD DUP1 DUP3 ADD SWAP1 SWAP2 MSTORE PUSH1 0x0 DUP1 DUP3 MSTORE PUSH1 0x20 DUP3 ADD DUP2 SWAP1 MSTORE JUMPDEST DUP7 MLOAD DUP2 LT ISZERO PUSH2 0x2B8 JUMPI DUP4 DUP8 DUP3 DUP2 MLOAD DUP2 LT PUSH2 0x221 JUMPI PUSH4 0x4E487B71 PUSH1 0xE0 SHL PUSH1 0x0 MSTORE PUSH1 0x32 PUSH1 0x4 MSTORE PUSH1 0x24 PUSH1 0x0 REVERT JUMPDEST PUSH1 0x20 MUL PUSH1 0x20 ADD ADD MLOAD LT PUSH2 0x233 JUMPI PUSH1 0x0 DUP1 REVERT JUMPDEST PUSH2 0x2A4 DUP3 PUSH2 0x29F DUP6 PUSH1 0x80 ADD MLOAD DUP5 PUSH1 0x1 PUSH2 0x24C SWAP2 SWAP1 PUSH2 0x2713 JUMP JUMPDEST DUP2 MLOAD DUP2 LT PUSH2 0x26A JUMPI PUSH4 0x4E487B71 PUSH1 0xE0 SHL PUSH1 0x0 MSTORE PUSH1 0x32 PUSH1 0x4 MSTORE PUSH1 0x24 PUSH1 0x0 REVERT JUMPDEST PUSH1 0x20 MUL PUSH1 0x20 ADD ADD MLOAD DUP11 DUP6 DUP2 MLOAD DUP2 LT PUSH2 0x292 JUMPI PUSH4 0x4E487B71 PUSH1 0xE0 SHL PUSH1 0x0 MSTORE PUSH1 0x32 PUSH1 0x4 MSTORE PUSH1 0x24 PUSH1 0x0 REVERT JUMPDEST PUSH1 0x20 MUL PUSH1 0x20 ADD ADD MLOAD PUSH2 0x1D51 JUMP JUMPDEST PUSH2 0x1DA9 JUMP JUMPDEST SWAP2 POP DUP1 PUSH2 0x2B0 DUP2 PUSH2 0x2761 JUMP JUMPDEST SWAP2 POP POP PUSH2 0x1F7 JUMP JUMPDEST POP PUSH2 0x2EF DUP2 DUP4 PUSH1 0x80 ADD MLOAD PUSH1 0x0 DUP2 MLOAD DUP2 LT PUSH2 0x2E2 JUMPI PUSH4 0x4E487B71 PUSH1 0xE0 SHL PUSH1 0x0 MSTORE PUSH1 0x32 PUSH1 0x4 MSTORE PUSH1 0x24 PUSH1 0x0 REVERT JUMPDEST PUSH1 0x20 MUL PUSH1 0x20 ADD ADD MLOAD PUSH2 0x1DA9 JUMP JUMPDEST SWAP1 POP PUSH2 0x333 DUP6 PUSH1 0x0 ADD MLOAD DUP7 PUSH1 0x20 ADD MLOAD PUSH2 0x307 DUP5 PUSH2 0x1DF7 JUMP JUMPDEST DUP6 PUSH1 0x40 ADD MLOAD PUSH2 0x319 DUP11 PUSH1 0x40 ADD MLOAD PUSH2 0x1DF7 JUMP JUMPDEST PUSH1 0x60 DUP9 ADD MLOAD DUP9 MLOAD PUSH2 0x329 SWAP1 PUSH2 0x1DF7 JUMP JUMPDEST DUP10 PUSH1 0x20 ADD MLOAD PUSH2 0x1E8C JUMP JUMPDEST PUSH2 0x343 JUMPI PUSH1 0x1 SWAP4 POP POP POP POP PUSH2 0x34B JUMP JUMPDEST PUSH1 0x0 SWAP4 POP POP POP POP JUMPDEST SWAP3 SWAP2 POP POP JUMP JUMPDEST PUSH2 0x359 PUSH2 0x245E JUMP JUMPDEST PUSH1 0x40 DUP1 MLOAD DUP1 DUP3 ADD DUP3 MSTORE PUSH32 0x1936C240636390DC823E3A728E94B208EB53C6756D81DA57EC3425E05D43AC10 DUP2 MSTORE PUSH32 0x2D70FF78E8216BF29D58923A686D9738278B8CE2FD822E197C85B09286D15566 PUSH1 0x20 DUP1 DUP4 ADD SWAP2 SWAP1 SWAP2 MSTORE SWAP1 DUP4 MSTORE DUP2 MLOAD PUSH1 0x80 DUP1 DUP3 ADD DUP5 MSTORE PUSH32 0x29C13ECB6F33DBC4B3B8A02E2E255511CE4C26A8A2F299EFCC94CAF2DE4FCE00 DUP3 DUP6 ADD SWAP1 DUP2 MSTORE PUSH32 0x2B4DAF047ABE2E7F0B311118C1B963B63695DC0D769CEA78849604434DE055BF PUSH1 0x60 DUP1 DUP6 ADD SWAP2 SWAP1 SWAP2 MSTORE SWAP1 DUP4 MSTORE DUP5 MLOAD DUP1 DUP7 ADD DUP7 MSTORE PUSH32 0x25EA0D7E2B29DE431B86A943DB30DBF4D98F68DF9CA8A9628D14D1591E817D90 DUP2 MSTORE PUSH32 0x1DA9020008DF7F549751F8A251AF3B2DC4A2AD3E0870DE54ACAEDD9FC1B47E17 DUP2 DUP7 ADD MSTORE DUP4 DUP6 ADD MSTORE DUP6 DUP5 ADD SWAP3 SWAP1 SWAP3 MSTORE DUP4 MLOAD DUP1 DUP3 ADD DUP6 MSTORE PUSH31 0xE83C788C2878D1D5EBA3ED49B0D81E4C0487DEDC3E4D1C2BAAB5833785B62F DUP2 DUP7 ADD SWAP1 DUP2 MSTORE PUSH32 0x11016E22AE045444F50FB80F246EC486C7E02AF09132CD38C4FCF484983E4F2 DUP3 DUP6 ADD MSTORE DUP2 MSTORE DUP5 MLOAD DUP1 DUP7 ADD DUP7 MSTORE PUSH32 0x132A90A3B0D369CCD66E2A5BA04A935E44D8AD5DCA93A76BBA592A578130A911 DUP2 MSTORE PUSH32 0x5EB89E741ED5B5D611CEBF92D1ED02CD6F3311089F0D400DF7D9CED5A48FD41 DUP2 DUP7 ADD MSTORE DUP2 DUP6 ADD MSTORE DUP6 DUP6 ADD MSTORE DUP4 MLOAD SWAP1 DUP2 ADD DUP5 MSTORE PUSH32 0xC3B60F59D3BD50328A04C0FF6D979199685D0526F89F6AC29D6174CE24707A2 DUP2 DUP6 ADD SWAP1 DUP2 MSTORE PUSH32 0x65F6A3323A2ABFFD621FC263F348EB914904B68D5897729AE34A6B9D33F0852 DUP3 DUP5 ADD MSTORE DUP2 MSTORE DUP4 MLOAD DUP1 DUP6 ADD DUP6 MSTORE PUSH32 0x12E0F3721230A0F38F6C9913048D5230FD2615EF3FF7F6EE4B20DFE0BDEA1A86 DUP2 MSTORE PUSH32 0x26E7EBCE2B44EFEF6B6315938E33F0A8ECC82DBAD635C9EFA681ED85BBB59982 DUP2 DUP6 ADD MSTORE DUP2 DUP5 ADD MSTORE SWAP1 DUP5 ADD MSTORE DUP2 MLOAD PUSH1 0x2D DUP1 DUP3 MSTORE PUSH2 0x5C0 DUP3 ADD SWAP1 SWAP4 MSTORE SWAP2 SWAP1 DUP3 ADD JUMPDEST PUSH2 0x5DC PUSH2 0x24A5 JUMP JUMPDEST DUP2 MSTORE PUSH1 0x20 ADD SWAP1 PUSH1 0x1 SWAP1 SUB SWAP1 DUP2 PUSH2 0x5D4 JUMPI POP POP PUSH1 0x80 DUP3 ADD SWAP1 DUP2 MSTORE PUSH1 0x40 DUP1 MLOAD DUP1 DUP3 ADD SWAP1 SWAP2 MSTORE PUSH32 0x11D61BA810B75B111C8CB3A6A30CE3375C442DA9F17A6F3174E690B0BA9375ED DUP2 MSTORE PUSH32 0x1270E192B15AF163F64BFD3939CD0E0E526E2FC082A7AE6052DFED2C705C4D90 PUSH1 0x20 DUP3 ADD MSTORE SWAP1 MLOAD DUP1 MLOAD PUSH1 0x0 SWAP1 PUSH2 0x669 JUMPI PUSH4 0x4E487B71 PUSH1 0xE0 SHL PUSH1 0x0 MSTORE PUSH1 0x32 PUSH1 0x4 MSTORE PUSH1 0x24 PUSH1 0x0 REVERT JUMPDEST PUSH1 0x20 MUL PUSH1 0x20 ADD ADD DUP2 SWAP1 MSTORE POP PUSH1 0x40 MLOAD DUP1 PUSH1 0x40 ADD PUSH1 0x40 MSTORE DUP1 PUSH32 0x285AF8995EA42589ABC59724928F6B603E59FBCAD7C9DB3D9B1FD4E4E962054E DUP2 MSTORE PUSH1 0x20 ADD PUSH32 0x170C2BEB14AD580A404CB2871A1EE49680D23485AD8954412F60A09982C902D3 DUP2 MSTORE POP DUP2 PUSH1 0x80 ADD MLOAD PUSH1 0x1 DUP2 MLOAD DUP2 LT PUSH2 0x6EE JUMPI PUSH4 0x4E487B71 PUSH1 0xE0 SHL PUSH1 0x0 MSTORE PUSH1 0x32 PUSH1 0x4 MSTORE PUSH1 0x24 PUSH1 0x0 REVERT JUMPDEST PUSH1 0x20 MUL PUSH1 0x20 ADD ADD DUP2 SWAP1 MSTORE POP PUSH1 0x40 MLOAD DUP1 PUSH1 0x40 ADD PUSH1 0x40 MSTORE DUP1 PUSH32 0x1F571CCFE22B866717198412F40C648ECF37357321ABD8F1C21223426F089417 DUP2 MSTORE PUSH1 0x20 ADD PUSH32 0x17D7ED466BE9104EF5F60B9A31909CF8F141FF060381F54A50BE229E87F89968 DUP2 MSTORE POP DUP2 PUSH1 0x80 ADD MLOAD PUSH1 0x2 DUP2 MLOAD DUP2 LT PUSH2 0x773 JUMPI PUSH4 0x4E487B71 PUSH1 0xE0 SHL PUSH1 0x0 MSTORE PUSH1 0x32 PUSH1 0x4 MSTORE PUSH1 0x24 PUSH1 0x0 REVERT JUMPDEST PUSH1 0x20 MUL PUSH1 0x20 ADD ADD DUP2 SWAP1 MSTORE POP PUSH1 0x40 MLOAD DUP1 PUSH1 0x40 ADD PUSH1 0x40 MSTORE DUP1 PUSH32 0x1FC56E7FD93B20ED5108834BC4739FD25E43E6183B2AF64EAF55DC648890F7CD DUP2 MSTORE PUSH1 0x20 ADD PUSH32 0xF646159A1DF9F38B1D0177723E1784D2BAD691D5B809C65E15F9B99BFB07D6A DUP2 MSTORE POP DUP2 PUSH1 0x80 ADD MLOAD PUSH1 0x3 DUP2 MLOAD DUP2 LT PUSH2 0x7F8 JUMPI PUSH4 0x4E487B71 PUSH1 0xE0 SHL PUSH1 0x0 MSTORE PUSH1 0x32 PUSH1 0x4 MSTORE PUSH1 0x24 PUSH1 0x0 REVERT JUMPDEST PUSH1 0x20 MUL PUSH1 0x20 ADD ADD DUP2 SWAP1 MSTORE POP PUSH1 0x40 MLOAD DUP1 PUSH1 0x40 ADD PUSH1 0x40 MSTORE DUP1 PUSH32 0x25049A5634BBA5F2008472C2156D72D773B0E321901CC029BAE44147F4C6AAC6 DUP2 MSTORE PUSH1 0x20 ADD PUSH32 0xC28E2F1635D996EF69750854F75D21D2D111BEFBF1458C5BE70D7906774F526 DUP2 MSTORE POP DUP2 PUSH1 0x80 ADD MLOAD PUSH1 0x4 DUP2 MLOAD DUP2 LT PUSH2 0x87D JUMPI PUSH4 0x4E487B71 PUSH1 0xE0 SHL PUSH1 0x0 MSTORE PUSH1 0x32 PUSH1 0x4 MSTORE PUSH1 0x24 PUSH1 0x0 REVERT JUMPDEST PUSH1 0x20 MUL PUSH1 0x20 ADD ADD DUP2 SWAP1 MSTORE POP PUSH1 0x40 MLOAD DUP1 PUSH1 0x40 ADD PUSH1 0x40 MSTORE DUP1 PUSH32 0x2163FC55CEFA9FA82B169E1F54B4C407E4B68BB1841CBA52B111D56F9FBB6C9B DUP2 MSTORE PUSH1 0x20 ADD PUSH32 0x18340FA57F6912781990BE7F28012FFE1DB62FDE1DF3464D09F47234EDB2FA5E DUP2 MSTORE POP DUP2 PUSH1 0x80 ADD MLOAD PUSH1 0x5 DUP2 MLOAD DUP2 LT PUSH2 0x902 JUMPI PUSH4 0x4E487B71 PUSH1 0xE0 SHL PUSH1 0x0 MSTORE PUSH1 0x32 PUSH1 0x4 MSTORE PUSH1 0x24 PUSH1 0x0 REVERT JUMPDEST PUSH1 0x20 MUL PUSH1 0x20 ADD ADD DUP2 SWAP1 MSTORE POP PUSH1 0x40 MLOAD DUP1 PUSH1 0x40 ADD PUSH1 0x40 MSTORE DUP1 PUSH32 0x2A4C1CB1EBF6E0B39804426C40641291B8D237AF1227865F19C290E4C227CD66 DUP2 MSTORE PUSH1 0x20 ADD PUSH32 0x1BC2C961B27259BE9AD2C7FE57350C892BE1FDE2F2014512B6DB3DABB47CD76F DUP2 MSTORE POP DUP2 PUSH1 0x80 ADD MLOAD PUSH1 0x6 DUP2 MLOAD DUP2 LT PUSH2 0x987 JUMPI PUSH4 0x4E487B71 PUSH1 0xE0 SHL PUSH1 0x0 MSTORE PUSH1 0x32 PUSH1 0x4 MSTORE PUSH1 0x24 PUSH1 0x0 REVERT JUMPDEST PUSH1 0x20 MUL PUSH1 0x20 ADD ADD DUP2 SWAP1 MSTORE POP PUSH1 0x40 MLOAD DUP1 PUSH1 0x40 ADD PUSH1 0x40 MSTORE DUP1 PUSH32 0x6AC0238DB3084E7DBC8C82BE33706906CDC6193C135693E7D7584BC08AECDA4 DUP2 MSTORE PUSH1 0x20 ADD PUSH32 0x9A20FBD7C0F311288F695CDEAA2B7566ECA12E32360FB037A9C6C77EA003EF6 DUP2 MSTORE POP DUP2 PUSH1 0x80 ADD MLOAD PUSH1 0x7 DUP2 MLOAD DUP2 LT PUSH2 0xA0C JUMPI PUSH4 0x4E487B71 PUSH1 0xE0 SHL PUSH1 0x0 MSTORE PUSH1 0x32 PUSH1 0x4 MSTORE PUSH1 0x24 PUSH1 0x0 REVERT JUMPDEST PUSH1 0x20 MUL PUSH1 0x20 ADD ADD DUP2 SWAP1 MSTORE POP PUSH1 0x40 MLOAD DUP1 PUSH1 0x40 ADD PUSH1 0x40 MSTORE DUP1 PUSH32 0x2B5AD6769E14F022D0A16507F81566DBE18AB1BB78A0F649D493F97255E173E8 DUP2 MSTORE PUSH1 0x20 ADD PUSH32 0x238E2C9FB05CBF564C1E317B61C0DE7742D27BD0927D1FBA5649B06DED932978 DUP2 MSTORE POP DUP2 PUSH1 0x80 ADD MLOAD PUSH1 0x8 DUP2 MLOAD DUP2 LT PUSH2 0xA91 JUMPI PUSH4 0x4E487B71 PUSH1 0xE0 SHL PUSH1 0x0 MSTORE PUSH1 0x32 PUSH1 0x4 MSTORE PUSH1 0x24 PUSH1 0x0 REVERT JUMPDEST PUSH1 0x20 MUL PUSH1 0x20 ADD ADD DUP2 SWAP1 MSTORE POP PUSH1 0x40 MLOAD DUP1 PUSH1 0x40 ADD PUSH1 0x40 MSTORE DUP1 PUSH32 0x25CB7D8439221CE128F1A1AA5ED9C95C1B05A541B01B8A431A86A3E33ED68E9E DUP2 MSTORE PUSH1 0x20 ADD PUSH32 0x73CC02780CCA076492BBC0B092CE32022BFD3E2450CA04A33A4A94782D5F2EA DUP2 MSTORE POP DUP2 PUSH1 0x80 ADD MLOAD PUSH1 0x9 DUP2 MLOAD DUP2 LT PUSH2 0xB16 JUMPI PUSH4 0x4E487B71 PUSH1 0xE0 SHL PUSH1 0x0 MSTORE PUSH1 0x32 PUSH1 0x4 MSTORE PUSH1 0x24 PUSH1 0x0 REVERT JUMPDEST PUSH1 0x20 MUL PUSH1 0x20 ADD ADD DUP2 SWAP1 MSTORE POP PUSH1 0x40 MLOAD DUP1 PUSH1 0x40 ADD PUSH1 0x40 MSTORE DUP1 PUSH32 0x1A0278EBFE91798D67674FA87AD740B98401D1C9494DAF5C8089C8E7121DBB8D DUP2 MSTORE PUSH1 0x20 ADD PUSH32 0x2E6B0C0CBDBD59FB42CA419DB3EF703A3DA392147704909B5A0E872DD899464 DUP2 MSTORE POP DUP2 PUSH1 0x80 ADD MLOAD PUSH1 0xA DUP2 MLOAD DUP2 LT PUSH2 0xB9B JUMPI PUSH4 0x4E487B71 PUSH1 0xE0 SHL PUSH1 0x0 MSTORE PUSH1 0x32 PUSH1 0x4 MSTORE PUSH1 0x24 PUSH1 0x0 REVERT JUMPDEST PUSH1 0x20 MUL PUSH1 0x20 ADD ADD DUP2 SWAP1 MSTORE POP PUSH1 0x40 MLOAD DUP1 PUSH1 0x40 ADD PUSH1 0x40 MSTORE DUP1 PUSH32 0x21780E91D52AFB209419DD17F6599AA38A52DDC8E1E5F49ED6090E7C4D03B3FE DUP2 MSTORE PUSH1 0x20 ADD PUSH32 0x22A80C546A26CA0D8F8FE8257C9991926B191F3F3DBA0BD90FDA786C39C37B91 DUP2 MSTORE POP DUP2 PUSH1 0x80 ADD MLOAD PUSH1 0xB DUP2 MLOAD DUP2 LT PUSH2 0xC20 JUMPI PUSH4 0x4E487B71 PUSH1 0xE0 SHL PUSH1 0x0 MSTORE PUSH1 0x32 PUSH1 0x4 MSTORE PUSH1 0x24 PUSH1 0x0 REVERT JUMPDEST PUSH1 0x20 MUL PUSH1 0x20 ADD ADD DUP2 SWAP1 MSTORE POP PUSH1 0x40 MLOAD DUP1 PUSH1 0x40 ADD PUSH1 0x40 MSTORE DUP1 PUSH32 0xBB2397A6C30C72F48B0C72C0F5577534699F6EA7CF67C490742C1C9E17B6CC7 DUP2 MSTORE PUSH1 0x20 ADD PUSH32 0x11862760EB0A0ABD05D4E7881CC240156BEC95492EDB5FC8AEA0AEC3EC29C9EC DUP2 MSTORE POP DUP2 PUSH1 0x80 ADD MLOAD PUSH1 0xC DUP2 MLOAD DUP2 LT PUSH2 0xCA5 JUMPI PUSH4 0x4E487B71 PUSH1 0xE0 SHL PUSH1 0x0 MSTORE PUSH1 0x32 PUSH1 0x4 MSTORE PUSH1 0x24 PUSH1 0x0 REVERT JUMPDEST PUSH1 0x20 MUL PUSH1 0x20 ADD ADD DUP2 SWAP1 MSTORE POP PUSH1 0x40 MLOAD DUP1 PUSH1 0x40 ADD PUSH1 0x40 MSTORE DUP1 PUSH32 0x2407C52455D258D61BD1E90BB54813E978040B02DF5F030A30EE077EB07EA964 DUP2 MSTORE PUSH1 0x20 ADD PUSH32 0x5B61262FB1231689B1A643D60C428C4CB9C63A255E08DE66F722596EC1D1E5C DUP2 MSTORE POP DUP2 PUSH1 0x80 ADD MLOAD PUSH1 0xD DUP2 MLOAD DUP2 LT PUSH2 0xD2A JUMPI PUSH4 0x4E487B71 PUSH1 0xE0 SHL PUSH1 0x0 MSTORE PUSH1 0x32 PUSH1 0x4 MSTORE PUSH1 0x24 PUSH1 0x0 REVERT JUMPDEST PUSH1 0x20 MUL PUSH1 0x20 ADD ADD DUP2 SWAP1 MSTORE POP PUSH1 0x40 MLOAD DUP1 PUSH1 0x40 ADD PUSH1 0x40 MSTORE DUP1 PUSH32 0x18A82ED3DA6E9E51077BA90E9BA567336B82F901FFBE1F6C1F3E41797F7BEA30 DUP2 MSTORE PUSH1 0x20 ADD PUSH32 0xDFEDB55A5A958C52B7CA38C87373FECB39E8E8756743FB5ED961464424C120E DUP2 MSTORE POP DUP2 PUSH1 0x80 ADD MLOAD PUSH1 0xE DUP2 MLOAD DUP2 LT PUSH2 0xDAF JUMPI PUSH4 0x4E487B71 PUSH1 0xE0 SHL PUSH1 0x0 MSTORE PUSH1 0x32 PUSH1 0x4 MSTORE PUSH1 0x24 PUSH1 0x0 REVERT JUMPDEST PUSH1 0x20 MUL PUSH1 0x20 ADD ADD DUP2 SWAP1 MSTORE POP PUSH1 0x40 MLOAD DUP1 PUSH1 0x40 ADD PUSH1 0x40 MSTORE DUP1 PUSH32 0x158D95FAC4A0E988AFAFC590D18A595F03D13521296A8F7D05F04B39D567370B DUP2 MSTORE PUSH1 0x20 ADD PUSH31 0x5B73F2E6187340E22DD80BA9A6FB498E165253770930AB716A1B60CB91A4C1 DUP2 MSTORE POP DUP2 PUSH1 0x80 ADD MLOAD PUSH1 0xF DUP2 MLOAD DUP2 LT PUSH2 0xE33 JUMPI PUSH4 0x4E487B71 PUSH1 0xE0 SHL PUSH1 0x0 MSTORE PUSH1 0x32 PUSH1 0x4 MSTORE PUSH1 0x24 PUSH1 0x0 REVERT JUMPDEST PUSH1 0x20 MUL PUSH1 0x20 ADD ADD DUP2 SWAP1 MSTORE POP PUSH1 0x40 MLOAD DUP1 PUSH1 0x40 ADD PUSH1 0x40 MSTORE DUP1 PUSH32 0x17D02024F43B1C743B7733C6E43002F871D6C6ED43B6A20F3A75A73AD4A2580A DUP2 MSTORE PUSH1 0x20 ADD PUSH31 0xB6780BE16A45E6AC0E196D50A6E9A4820AFA6602126C1A7AB2668EC9E186E DUP2 MSTORE POP DUP2 PUSH1 0x80 ADD MLOAD PUSH1 0x10 DUP2 MLOAD DUP2 LT PUSH2 0xEB7 JUMPI PUSH4 0x4E487B71 PUSH1 0xE0 SHL PUSH1 0x0 MSTORE PUSH1 0x32 PUSH1 0x4 MSTORE PUSH1 0x24 PUSH1 0x0 REVERT JUMPDEST PUSH1 0x20 MUL PUSH1 0x20 ADD ADD DUP2 SWAP1 MSTORE POP PUSH1 0x40 MLOAD DUP1 PUSH1 0x40 ADD PUSH1 0x40 MSTORE DUP1 PUSH32 0x25DB7771C4B3349E3FCB86D8EB554207AC29EAF7D70E907193FD9074EF4F0EBB DUP2 MSTORE PUSH1 0x20 ADD PUSH32 0xDD75C6391F014AEFB0BA76CB9C789DBA910D30C91C1732084C0D812309A1CC8 DUP2 MSTORE POP DUP2 PUSH1 0x80 ADD MLOAD PUSH1 0x11 DUP2 MLOAD DUP2 LT PUSH2 0xF3C JUMPI PUSH4 0x4E487B71 PUSH1 0xE0 SHL PUSH1 0x0 MSTORE PUSH1 0x32 PUSH1 0x4 MSTORE PUSH1 0x24 PUSH1 0x0 REVERT JUMPDEST PUSH1 0x20 MUL PUSH1 0x20 ADD ADD DUP2 SWAP1 MSTORE POP PUSH1 0x40 MLOAD DUP1 PUSH1 0x40 ADD PUSH1 0x40 MSTORE DUP1 PUSH32 0xE7E5B8029ABC3506D6B811CC7946C63B6E2A6E01809044BF4F6F9430148AEAC DUP2 MSTORE PUSH1 0x20 ADD PUSH32 0x268471FE70289F7FE4A7705B6C0D431139206A4D492E4136EB9F6F55C6F8BC2D DUP2 MSTORE POP DUP2 PUSH1 0x80 ADD MLOAD PUSH1 0x12 DUP2 MLOAD DUP2 LT PUSH2 0xFC1 JUMPI PUSH4 0x4E487B71 PUSH1 0xE0 SHL PUSH1 0x0 MSTORE PUSH1 0x32 PUSH1 0x4 MSTORE PUSH1 0x24 PUSH1 0x0 REVERT JUMPDEST PUSH1 0x20 MUL PUSH1 0x20 ADD ADD DUP2 SWAP1 MSTORE POP PUSH1 0x40 MLOAD DUP1 PUSH1 0x40 ADD PUSH1 0x40 MSTORE DUP1 PUSH32 0x1576BF986F9BB210466B89B873A7833269B050848D332C99BA608F1EAEE6AA01 DUP2 MSTORE PUSH1 0x20 ADD PUSH32 0x1168485516689926C4B2A4B673707F4942B8DD6F402EC95F1EE907F2A3D84577 DUP2 MSTORE POP DUP2 PUSH1 0x80 ADD MLOAD PUSH1 0x13 DUP2 MLOAD DUP2 LT PUSH2 0x1046 JUMPI PUSH4 0x4E487B71 PUSH1 0xE0 SHL PUSH1 0x0 MSTORE PUSH1 0x32 PUSH1 0x4 MSTORE PUSH1 0x24 PUSH1 0x0 REVERT JUMPDEST PUSH1 0x20 MUL PUSH1 0x20 ADD ADD DUP2 SWAP1 MSTORE POP PUSH1 0x40 MLOAD DUP1 PUSH1 0x40 ADD PUSH1 0x40 MSTORE DUP1 PUSH32 0xF650E71D6129969855F8A5A3127C78EFB4861CF962453121394D7EFCFCBD664 DUP2 MSTORE PUSH1 0x20 ADD PUSH32 0x156CD8241FE65924BFDF5A2310F56336BE40FBACFD5123BBFA7A769A10249E67 DUP2 MSTORE POP DUP2 PUSH1 0x80 ADD MLOAD PUSH1 0x14 DUP2 MLOAD DUP2 LT PUSH2 0x10CB JUMPI PUSH4 0x4E487B71 PUSH1 0xE0 SHL PUSH1 0x0 MSTORE PUSH1 0x32 PUSH1 0x4 MSTORE PUSH1 0x24 PUSH1 0x0 REVERT JUMPDEST PUSH1 0x20 MUL PUSH1 0x20 ADD ADD DUP2 SWAP1 MSTORE POP PUSH1 0x40 MLOAD DUP1 PUSH1 0x40 ADD PUSH1 0x40 MSTORE DUP1 PUSH32 0x1720661C8DA5778C83FEAFDD22EB41B9E254B046D5B949150C40278EDA51CAC8 DUP2 MSTORE PUSH1 0x20 ADD PUSH32 0x2B345B2EE888E683C0157B13D53D3088F0875013BC3D14E25ED3781B703950A9 DUP2 MSTORE POP DUP2 PUSH1 0x80 ADD MLOAD PUSH1 0x15 DUP2 MLOAD DUP2 LT PUSH2 0x1150 JUMPI PUSH4 0x4E487B71 PUSH1 0xE0 SHL PUSH1 0x0 MSTORE PUSH1 0x32 PUSH1 0x4 MSTORE PUSH1 0x24 PUSH1 0x0 REVERT JUMPDEST PUSH1 0x20 MUL PUSH1 0x20 ADD ADD DUP2 SWAP1 MSTORE POP PUSH1 0x40 MLOAD DUP1 PUSH1 0x40 ADD PUSH1 0x40 MSTORE DUP1 PUSH32 0x6A42E8B89D8A954F0F7E91AA0C8B98E693592DECF4201FD4A06E24E3BFB5002 DUP2 MSTORE PUSH1 0x20 ADD PUSH32 0x1C7DAB7F0EA42BDD88DD17122095541C417A99458FD68D4F97093520D8A883D1 DUP2 MSTORE POP DUP2 PUSH1 0x80 ADD MLOAD PUSH1 0x16 DUP2 MLOAD DUP2 LT PUSH2 0x11D5 JUMPI PUSH4 0x4E487B71 PUSH1 0xE0 SHL PUSH1 0x0 MSTORE PUSH1 0x32 PUSH1 0x4 MSTORE PUSH1 0x24 PUSH1 0x0 REVERT JUMPDEST PUSH1 0x20 MUL PUSH1 0x20 ADD ADD DUP2 SWAP1 MSTORE POP PUSH1 0x40 MLOAD DUP1 PUSH1 0x40 ADD PUSH1 0x40 MSTORE DUP1 PUSH32 0x2F10E0F4309D454904B1227D28487F10C1F85DE7FCF61F5EA631D6FC8281A544 DUP2 MSTORE PUSH1 0x20 ADD PUSH32 0x28B62B01D02D2A0032F1A5ABA9D53CC0687DB89002AF71DA7C0D402FAC3E1993 DUP2 MSTORE POP DUP2 PUSH1 0x80 ADD MLOAD PUSH1 0x17 DUP2 MLOAD DUP2 LT PUSH2 0x125A JUMPI PUSH4 0x4E487B71 PUSH1 0xE0 SHL PUSH1 0x0 MSTORE PUSH1 0x32 PUSH1 0x4 MSTORE PUSH1 0x24 PUSH1 0x0 REVERT JUMPDEST PUSH1 0x20 MUL PUSH1 0x20 ADD ADD DUP2 SWAP1 MSTORE POP PUSH1 0x40 MLOAD DUP1 PUSH1 0x40 ADD PUSH1 0x40 MSTORE DUP1 PUSH32 0x2D403F9337D943DF284D0B53F2BF9BCC780D914CF9E1247B45586C074184DC21 DUP2 MSTORE PUSH1 0x20 ADD PUSH32 0x2A1BD2010162E162342BB6600C58584AA7118872F38508B43D578D5C0E6C17E1 DUP2 MSTORE POP DUP2 PUSH1 0x80 ADD MLOAD PUSH1 0x18 DUP2 MLOAD DUP2 LT PUSH2 0x12DF JUMPI PUSH4 0x4E487B71 PUSH1 0xE0 SHL PUSH1 0x0 MSTORE PUSH1 0x32 PUSH1 0x4 MSTORE PUSH1 0x24 PUSH1 0x0 REVERT JUMPDEST PUSH1 0x20 MUL PUSH1 0x20 ADD ADD DUP2 SWAP1 MSTORE POP PUSH1 0x40 MLOAD DUP1 PUSH1 0x40 ADD PUSH1 0x40 MSTORE DUP1 PUSH32 0x1C46A154826C6121308DC486196CA41603BD50339530314E38EB2739F7E1E692 DUP2 MSTORE PUSH1 0x20 ADD PUSH32 0x8C06598E305C986293FAB4A0CF6B96AED0A6FB59BE6963EA97333F61C87E34E DUP2 MSTORE POP DUP2 PUSH1 0x80 ADD MLOAD PUSH1 0x19 DUP2 MLOAD DUP2 LT PUSH2 0x1364 JUMPI PUSH4 0x4E487B71 PUSH1 0xE0 SHL PUSH1 0x0 MSTORE PUSH1 0x32 PUSH1 0x4 MSTORE PUSH1 0x24 PUSH1 0x0 REVERT JUMPDEST PUSH1 0x20 MUL PUSH1 0x20 ADD ADD DUP2 SWAP1 MSTORE POP PUSH1 0x40 MLOAD DUP1 PUSH1 0x40 ADD PUSH1 0x40 MSTORE DUP1 PUSH32 0x135E0E2528BD615B25FB503E6088524DBEA76B0FC3FBA9CD52CC39A7FBCDA336 DUP2 MSTORE PUSH1 0x20 ADD PUSH32 0x994FFE326C29EA1933D509D45F3A6AC413C0E2FCF92D35E3E6A549F6E2E30FD DUP2 MSTORE POP DUP2 PUSH1 0x80 ADD MLOAD PUSH1 0x1A DUP2 MLOAD DUP2 LT PUSH2 0x13E9 JUMPI PUSH4 0x4E487B71 PUSH1 0xE0 SHL PUSH1 0x0 MSTORE PUSH1 0x32 PUSH1 0x4 MSTORE PUSH1 0x24 PUSH1 0x0 REVERT JUMPDEST PUSH1 0x20 MUL PUSH1 0x20 ADD ADD DUP2 SWAP1 MSTORE POP PUSH1 0x40 MLOAD DUP1 PUSH1 0x40 ADD PUSH1 0x40 MSTORE DUP1 PUSH32 0x17A5AFE6D0290B06964489D3D602E42EB59AF1DE66A8B35904EFD8F52A53FD94 DUP2 MSTORE PUSH1 0x20 ADD PUSH32 0x8C49705A396BE50D841B1541CFD51AD384641F03CD61966B37E2550A1E95987 DUP2 MSTORE POP DUP2 PUSH1 0x80 ADD MLOAD PUSH1 0x1B DUP2 MLOAD DUP2 LT PUSH2 0x146E JUMPI PUSH4 0x4E487B71 PUSH1 0xE0 SHL PUSH1 0x0 MSTORE PUSH1 0x32 PUSH1 0x4 MSTORE PUSH1 0x24 PUSH1 0x0 REVERT JUMPDEST PUSH1 0x20 MUL PUSH1 0x20 ADD ADD DUP2 SWAP1 MSTORE POP PUSH1 0x40 MLOAD DUP1 PUSH1 0x40 ADD PUSH1 0x40 MSTORE DUP1 PUSH32 0x26DE9F6DB72A741BDD305198EA0445E47184EBFE4B92E75045E58DDA24D86C6D DUP2 MSTORE PUSH1 0x20 ADD PUSH32 0x23C5C3E0305866F134FB5C6A573E5BE97295F028282325565EF20F938067FA03 DUP2 MSTORE POP DUP2 PUSH1 0x80 ADD MLOAD PUSH1 0x1C DUP2 MLOAD DUP2 LT PUSH2 0x14F3 JUMPI PUSH4 0x4E487B71 PUSH1 0xE0 SHL PUSH1 0x0 MSTORE PUSH1 0x32 PUSH1 0x4 MSTORE PUSH1 0x24 PUSH1 0x0 REVERT JUMPDEST PUSH1 0x20 MUL PUSH1 0x20 ADD ADD DUP2 SWAP1 MSTORE POP PUSH1 0x40 MLOAD DUP1 PUSH1 0x40 ADD PUSH1 0x40 MSTORE DUP1 PUSH32 0x162975A783B65E6A6FB30C732FE961A96BF1EB7EB3685ABC84B53FF11ABF329A DUP2 MSTORE PUSH1 0x20 ADD PUSH32 0x478AEB0F705E43D0942B7C1885AF3BFC801F1ABD180B073A39DE5C8B461CF47 DUP2 MSTORE POP DUP2 PUSH1 0x80 ADD MLOAD PUSH1 0x1D DUP2 MLOAD DUP2 LT PUSH2 0x1578 JUMPI PUSH4 0x4E487B71 PUSH1 0xE0 SHL PUSH1 0x0 MSTORE PUSH1 0x32 PUSH1 0x4 MSTORE PUSH1 0x24 PUSH1 0x0 REVERT JUMPDEST PUSH1 0x20 MUL PUSH1 0x20 ADD ADD DUP2 SWAP1 MSTORE POP PUSH1 0x40 MLOAD DUP1 PUSH1 0x40 ADD PUSH1 0x40 MSTORE DUP1 PUSH32 0x2E5FD2013C2B13FA019A83CBD3F43D7938461E4C9E5552EB9017B32FC34E8BF3 DUP2 MSTORE PUSH1 0x20 ADD PUSH32 0xE349DADE08115DB3519733364205D90FB59A7E6EEF1BC581F166668DF10AE60 DUP2 MSTORE POP DUP2 PUSH1 0x80 ADD MLOAD PUSH1 0x1E DUP2 MLOAD DUP2 LT PUSH2 0x15FD JUMPI PUSH4 0x4E487B71 PUSH1 0xE0 SHL PUSH1 0x0 MSTORE PUSH1 0x32 PUSH1 0x4 MSTORE PUSH1 0x24 PUSH1 0x0 REVERT JUMPDEST PUSH1 0x20 MUL PUSH1 0x20 ADD ADD DUP2 SWAP1 MSTORE POP PUSH1 0x40 MLOAD DUP1 PUSH1 0x40 ADD PUSH1 0x40 MSTORE DUP1 PUSH32 0x126E12D37FBAD5CC47820CEE2474394DB82D925F3264563E8E1C1A0B03CB5841 DUP2 MSTORE PUSH1 0x20 ADD PUSH32 0x28A711671BF925D68CE783D93B94B68775F6D69A847FB47F7AF61700BAADF66F DUP2 MSTORE POP DUP2 PUSH1 0x80 ADD MLOAD PUSH1 0x1F DUP2 MLOAD DUP2 LT PUSH2 0x1682 JUMPI PUSH4 0x4E487B71 PUSH1 0xE0 SHL PUSH1 0x0 MSTORE PUSH1 0x32 PUSH1 0x4 MSTORE PUSH1 0x24 PUSH1 0x0 REVERT JUMPDEST PUSH1 0x20 MUL PUSH1 0x20 ADD ADD DUP2 SWAP1 MSTORE POP PUSH1 0x40 MLOAD DUP1 PUSH1 0x40 ADD PUSH1 0x40 MSTORE DUP1 PUSH32 0x2A6F1B2021A6AE3F7FAC4887914E19534643BBA2BD9CE4C2EDBF24542E381312 DUP2 MSTORE PUSH1 0x20 ADD PUSH32 0x1E909B208D46C4EB0714792327F38A3B3E3C9350F14DE68301476546AF6814C6 DUP2 MSTORE POP DUP2 PUSH1 0x80 ADD MLOAD PUSH1 0x20 DUP2 MLOAD DUP2 LT PUSH2 0x1707 JUMPI PUSH4 0x4E487B71 PUSH1 0xE0 SHL PUSH1 0x0 MSTORE PUSH1 0x32 PUSH1 0x4 MSTORE PUSH1 0x24 PUSH1 0x0 REVERT JUMPDEST PUSH1 0x20 MUL PUSH1 0x20 ADD ADD DUP2 SWAP1 MSTORE POP PUSH1 0x40 MLOAD DUP1 PUSH1 0x40 ADD PUSH1 0x40 MSTORE DUP1 PUSH32 0x17731EF02B08F468114B1CCC76537249108306FAEE4E4B0D2DD708F5295BD427 DUP2 MSTORE PUSH1 0x20 ADD PUSH32 0x23F0F6CB589E2F90E34ACB7EAC32ADD32987F06BFC667E99B55A7C0538F33A4D DUP2 MSTORE POP DUP2 PUSH1 0x80 ADD MLOAD PUSH1 0x21 DUP2 MLOAD DUP2 LT PUSH2 0x178C JUMPI PUSH4 0x4E487B71 PUSH1 0xE0 SHL PUSH1 0x0 MSTORE PUSH1 0x32 PUSH1 0x4 MSTORE PUSH1 0x24 PUSH1 0x0 REVERT JUMPDEST PUSH1 0x20 MUL PUSH1 0x20 ADD ADD DUP2 SWAP1 MSTORE POP PUSH1 0x40 MLOAD DUP1 PUSH1 0x40 ADD PUSH1 0x40 MSTORE DUP1 PUSH32 0x1B31B04D5091E77C36EE687CFC452D394A4A075D0A1B45E8B573D8149357A8BC DUP2 MSTORE PUSH1 0x20 ADD PUSH32 0x295F3FA7B71BF3FF983D32791ED3B30B1B465616095336B32F7B8D1AC4A3D451 DUP2 MSTORE POP DUP2 PUSH1 0x80 ADD MLOAD PUSH1 0x22 DUP2 MLOAD DUP2 LT PUSH2 0x1811 JUMPI PUSH4 0x4E487B71 PUSH1 0xE0 SHL PUSH1 0x0 MSTORE PUSH1 0x32 PUSH1 0x4 MSTORE PUSH1 0x24 PUSH1 0x0 REVERT JUMPDEST PUSH1 0x20 MUL PUSH1 0x20 ADD ADD DUP2 SWAP1 MSTORE POP PUSH1 0x40 MLOAD DUP1 PUSH1 0x40 ADD PUSH1 0x40 MSTORE DUP1 PUSH32 0x1263C668033C68E46DEC13C6D485DAF75ED91A0BFA9850BF328106D1D955970F DUP2 MSTORE PUSH1 0x20 ADD PUSH32 0xE2B89CDD17582D9DD732AD91971541A95AA61F78FEB4F43D562B75FA7B80ACB DUP2 MSTORE POP DUP2 PUSH1 0x80 ADD MLOAD PUSH1 0x23 DUP2 MLOAD DUP2 LT PUSH2 0x1896 JUMPI PUSH4 0x4E487B71 PUSH1 0xE0 SHL PUSH1 0x0 MSTORE PUSH1 0x32 PUSH1 0x4 MSTORE PUSH1 0x24 PUSH1 0x0 REVERT JUMPDEST PUSH1 0x20 MUL PUSH1 0x20 ADD ADD DUP2 SWAP1 MSTORE POP PUSH1 0x40 MLOAD DUP1 PUSH1 0x40 ADD PUSH1 0x40 MSTORE DUP1 PUSH32 0xAFACB52E45D8A85BDC35081C35AC602CA40D64EF0F58CA91E370BA5F540A1C0 DUP2 MSTORE PUSH1 0x20 ADD PUSH32 0x6E0E6AD986020BC70CDE21D2B78618B4FE7A6FD97BFE7A0079FE3ECCCE2D492 DUP2 MSTORE POP DUP2 PUSH1 0x80 ADD MLOAD PUSH1 0x24 DUP2 MLOAD DUP2 LT PUSH2 0x191B JUMPI PUSH4 0x4E487B71 PUSH1 0xE0 SHL PUSH1 0x0 MSTORE PUSH1 0x32 PUSH1 0x4 MSTORE PUSH1 0x24 PUSH1 0x0 REVERT JUMPDEST PUSH1 0x20 MUL PUSH1 0x20 ADD ADD DUP2 SWAP1 MSTORE POP PUSH1 0x40 MLOAD DUP1 PUSH1 0x40 ADD PUSH1 0x40 MSTORE DUP1 PUSH32 0x713BB6E5C0F353645DA92E86E9892072C71816615A09BAA9C6A9D783EF5BEFD DUP2 MSTORE PUSH1 0x20 ADD PUSH32 0x182838BEE668D2A05A6A049FA6F7FAD4593BB43005187F36A9B82F870A4E05AC DUP2 MSTORE POP DUP2 PUSH1 0x80 ADD MLOAD PUSH1 0x25 DUP2 MLOAD DUP2 LT PUSH2 0x19A0 JUMPI PUSH4 0x4E487B71 PUSH1 0xE0 SHL PUSH1 0x0 MSTORE PUSH1 0x32 PUSH1 0x4 MSTORE PUSH1 0x24 PUSH1 0x0 REVERT JUMPDEST PUSH1 0x20 MUL PUSH1 0x20 ADD ADD DUP2 SWAP1 MSTORE POP PUSH1 0x40 MLOAD DUP1 PUSH1 0x40 ADD PUSH1 0x40 MSTORE DUP1 PUSH32 0x148F3718C087F6EC736055D15B923C4B9C0F93D67D64D43CB085EF207AEB28EC DUP2 MSTORE PUSH1 0x20 ADD PUSH32 0x235F9ABC5FA835A3C10CD2C7BBD45CCA9C4ADB679770CC6DD074887E4CABF95 DUP2 MSTORE POP DUP2 PUSH1 0x80 ADD MLOAD PUSH1 0x26 DUP2 MLOAD DUP2 LT PUSH2 0x1A25 JUMPI PUSH4 0x4E487B71 PUSH1 0xE0 SHL PUSH1 0x0 MSTORE PUSH1 0x32 PUSH1 0x4 MSTORE PUSH1 0x24 PUSH1 0x0 REVERT JUMPDEST PUSH1 0x20 MUL PUSH1 0x20 ADD ADD DUP2 SWAP1 MSTORE POP PUSH1 0x40 MLOAD DUP1 PUSH1 0x40 ADD PUSH1 0x40 MSTORE DUP1 PUSH32 0x26082EA9E67339BE7A3901C4D2AF05CB822967212E3ADE94F9DA2D80B98192C3 DUP2 MSTORE PUSH1 0x20 ADD PUSH32 0x60F244151E628BB6077A67B555B523FFBCA5A31308807F1180D6D0553437435 DUP2 MSTORE POP DUP2 PUSH1 0x80 ADD MLOAD PUSH1 0x27 DUP2 MLOAD DUP2 LT PUSH2 0x1AAA JUMPI PUSH4 0x4E487B71 PUSH1 0xE0 SHL PUSH1 0x0 MSTORE PUSH1 0x32 PUSH1 0x4 MSTORE PUSH1 0x24 PUSH1 0x0 REVERT JUMPDEST PUSH1 0x20 MUL PUSH1 0x20 ADD ADD DUP2 SWAP1 MSTORE POP PUSH1 0x40 MLOAD DUP1 PUSH1 0x40 ADD PUSH1 0x40 MSTORE DUP1 PUSH32 0x996398EFF35CE28AC4189979CC0644E88819E6D6403524D1CAF5BA175E0869A DUP2 MSTORE PUSH1 0x20 ADD PUSH32 0x13D9FA61308B6454DE3F489F5D2DE44545755F60848473FB845357410874838D DUP2 MSTORE POP DUP2 PUSH1 0x80 ADD MLOAD PUSH1 0x28 DUP2 MLOAD DUP2 LT PUSH2 0x1B2F JUMPI PUSH4 0x4E487B71 PUSH1 0xE0 SHL PUSH1 0x0 MSTORE PUSH1 0x32 PUSH1 0x4 MSTORE PUSH1 0x24 PUSH1 0x0 REVERT JUMPDEST PUSH1 0x20 MUL PUSH1 0x20 ADD ADD DUP2 SWAP1 MSTORE POP PUSH1 0x40 MLOAD DUP1 PUSH1 0x40 ADD PUSH1 0x40 MSTORE DUP1 PUSH32 0x16B4CE0C2D293168E8730F6730CA7002C23B5341A8A66D858389E47BBD0AD796 DUP2 MSTORE PUSH1 0x20 ADD PUSH32 0x27517EE760585473FC200B5E900CB7F6B845D916E3B3FFA1F724452E26C2FD32 DUP2 MSTORE POP DUP2 PUSH1 0x80 ADD MLOAD PUSH1 0x29 DUP2 MLOAD DUP2 LT PUSH2 0x1BB4 JUMPI PUSH4 0x4E487B71 PUSH1 0xE0 SHL PUSH1 0x0 MSTORE PUSH1 0x32 PUSH1 0x4 MSTORE PUSH1 0x24 PUSH1 0x0 REVERT JUMPDEST PUSH1 0x20 MUL PUSH1 0x20 ADD ADD DUP2 SWAP1 MSTORE POP PUSH1 0x40 MLOAD DUP1 PUSH1 0x40 ADD PUSH1 0x40 MSTORE DUP1 PUSH32 0x149417D7E7C0E43D0AD34A92DF1D22A7113858F3378AD3EABEDF4396699475CD DUP2 MSTORE PUSH1 0x20 ADD PUSH32 0x1FF8712353217C4DFEDC9A38BDCE591C8F6ADCB5200F23A3073E665E9D976500 DUP2 MSTORE POP DUP2 PUSH1 0x80 ADD MLOAD PUSH1 0x2A DUP2 MLOAD DUP2 LT PUSH2 0x1C39 JUMPI PUSH4 0x4E487B71 PUSH1 0xE0 SHL PUSH1 0x0 MSTORE PUSH1 0x32 PUSH1 0x4 MSTORE PUSH1 0x24 PUSH1 0x0 REVERT JUMPDEST PUSH1 0x20 MUL PUSH1 0x20 ADD ADD DUP2 SWAP1 MSTORE POP PUSH1 0x40 MLOAD DUP1 PUSH1 0x40 ADD PUSH1 0x40 MSTORE DUP1 PUSH32 0xC39B606DB9740C2A42111AAC5B68AD2F7E4953452183628AE9548B25FA2C890 DUP2 MSTORE PUSH1 0x20 ADD PUSH32 0x2AAF9CCE0D18E28FF55632D946884CFF256DDD9CC92D927FA462964B2D61A356 DUP2 MSTORE POP DUP2 PUSH1 0x80 ADD MLOAD PUSH1 0x2B DUP2 MLOAD DUP2 LT PUSH2 0x1CBE JUMPI PUSH4 0x4E487B71 PUSH1 0xE0 SHL PUSH1 0x0 MSTORE PUSH1 0x32 PUSH1 0x4 MSTORE PUSH1 0x24 PUSH1 0x0 REVERT JUMPDEST PUSH1 0x20 MUL PUSH1 0x20 ADD ADD DUP2 SWAP1 MSTORE POP PUSH1 0x40 MLOAD DUP1 PUSH1 0x40 ADD PUSH1 0x40 MSTORE DUP1 PUSH32 0x4DA530427C4ADF2A10B2708A193096F71D3D7F4E4E880E9BAE13341AB182F54 DUP2 MSTORE PUSH1 0x20 ADD PUSH32 0xC20A057490A7BC04D1CB9FBC226CAF83A62AC8FFB75DD268E76BEA3D3110717 DUP2 MSTORE POP DUP2 PUSH1 0x80 ADD MLOAD PUSH1 0x2C DUP2 MLOAD DUP2 LT PUSH2 0x1D43 JUMPI PUSH4 0x4E487B71 PUSH1 0xE0 SHL PUSH1 0x0 MSTORE PUSH1 0x32 PUSH1 0x4 MSTORE PUSH1 0x24 PUSH1 0x0 REVERT JUMPDEST PUSH1 0x20 MUL PUSH1 0x20 ADD ADD DUP2 SWAP1 MSTORE POP SWAP1 JUMP JUMPDEST PUSH2 0x1D59 PUSH2 0x24A5 JUMP JUMPDEST PUSH2 0x1D61 PUSH2 0x24BF JUMP JUMPDEST DUP4 MLOAD DUP2 MSTORE PUSH1 0x20 DUP1 DUP6 ADD MLOAD SWAP1 DUP3 ADD MSTORE PUSH1 0x40 DUP2 ADD DUP4 SWAP1 MSTORE PUSH1 0x0 PUSH1 0x60 DUP4 PUSH1 0x80 DUP5 PUSH1 0x7 PUSH2 0x7D0 GAS SUB STATICCALL SWAP1 POP DUP1 DUP1 ISZERO PUSH2 0x1D94 JUMPI PUSH2 0x1D96 JUMP JUMPDEST INVALID JUMPDEST POP DUP1 PUSH2 0x1DA1 JUMPI PUSH1 0x0 DUP1 REVERT JUMPDEST POP POP SWAP3 SWAP2 POP POP JUMP JUMPDEST PUSH2 0x1DB1 PUSH2 0x24A5 JUMP JUMPDEST PUSH2 0x1DB9 PUSH2 0x24DD JUMP JUMPDEST DUP4 MLOAD DUP2 MSTORE PUSH1 0x20 DUP1 DUP6 ADD MLOAD DUP2 DUP4 ADD MSTORE DUP4 MLOAD PUSH1 0x40 DUP4 ADD MSTORE DUP4 ADD MLOAD PUSH1 0x60 DUP1 DUP4 ADD SWAP2 SWAP1 SWAP2 MSTORE PUSH1 0x0 SWAP1 DUP4 PUSH1 0xC0 DUP5 PUSH1 0x6 PUSH2 0x7D0 GAS SUB STATICCALL SWAP1 POP DUP1 DUP1 ISZERO PUSH2 0x1D94 JUMPI PUSH2 0x1D96 JUMP JUMPDEST PUSH2 0x1DFF PUSH2 0x24A5 JUMP JUMPDEST DUP2 MLOAD PUSH32 0x30644E72E131A029B85045B68181585D97816A916871CA8D3C208C16D87CFD47 SWAP1 ISZERO DUP1 ISZERO PUSH2 0x1E32 JUMPI POP PUSH1 0x20 DUP4 ADD MLOAD ISZERO JUMPDEST ISZERO PUSH2 0x1E52 JUMPI POP POP PUSH1 0x40 DUP1 MLOAD DUP1 DUP3 ADD SWAP1 SWAP2 MSTORE PUSH1 0x0 DUP1 DUP3 MSTORE PUSH1 0x20 DUP3 ADD MSTORE PUSH2 0x1E87 JUMP JUMPDEST PUSH1 0x40 MLOAD DUP1 PUSH1 0x40 ADD PUSH1 0x40 MSTORE DUP1 DUP5 PUSH1 0x0 ADD MLOAD DUP2 MSTORE PUSH1 0x20 ADD DUP3 DUP6 PUSH1 0x20 ADD MLOAD PUSH2 0x1E77 SWAP2 SWAP1 PUSH2 0x277C JUMP JUMPDEST PUSH2 0x1E81 SWAP1 DUP5 PUSH2 0x274A JUMP JUMPDEST SWAP1 MSTORE SWAP2 POP POP JUMPDEST SWAP2 SWAP1 POP JUMP JUMPDEST PUSH1 0x40 DUP1 MLOAD PUSH1 0x4 DUP1 DUP3 MSTORE PUSH1 0xA0 DUP3 ADD SWAP1 SWAP3 MSTORE PUSH1 0x0 SWAP2 DUP3 SWAP2 SWAP1 DUP2 PUSH1 0x20 ADD JUMPDEST PUSH2 0x1EAF PUSH2 0x24A5 JUMP JUMPDEST DUP2 MSTORE PUSH1 0x20 ADD SWAP1 PUSH1 0x1 SWAP1 SUB SWAP1 DUP2 PUSH2 0x1EA7 JUMPI POP POP PUSH1 0x40 DUP1 MLOAD PUSH1 0x4 DUP1 DUP3 MSTORE PUSH1 0xA0 DUP3 ADD SWAP1 SWAP3 MSTORE SWAP2 SWAP3 POP PUSH1 0x0 SWAP2 SWAP1 PUSH1 0x20 DUP3 ADD JUMPDEST PUSH2 0x1EE5 PUSH2 0x24FB JUMP JUMPDEST DUP2 MSTORE PUSH1 0x20 ADD SWAP1 PUSH1 0x1 SWAP1 SUB SWAP1 DUP2 PUSH2 0x1EDD JUMPI SWAP1 POP POP SWAP1 POP DUP11 DUP3 PUSH1 0x0 DUP2 MLOAD DUP2 LT PUSH2 0x1F1C JUMPI PUSH4 0x4E487B71 PUSH1 0xE0 SHL PUSH1 0x0 MSTORE PUSH1 0x32 PUSH1 0x4 MSTORE PUSH1 0x24 PUSH1 0x0 REVERT JUMPDEST PUSH1 0x20 MUL PUSH1 0x20 ADD ADD DUP2 SWAP1 MSTORE POP DUP9 DUP3 PUSH1 0x1 DUP2 MLOAD DUP2 LT PUSH2 0x1F49 JUMPI PUSH4 0x4E487B71 PUSH1 0xE0 SHL PUSH1 0x0 MSTORE PUSH1 0x32 PUSH1 0x4 MSTORE PUSH1 0x24 PUSH1 0x0 REVERT JUMPDEST PUSH1 0x20 MUL PUSH1 0x20 ADD ADD DUP2 SWAP1 MSTORE POP DUP7 DUP3 PUSH1 0x2 DUP2 MLOAD DUP2 LT PUSH2 0x1F76 JUMPI PUSH4 0x4E487B71 PUSH1 0xE0 SHL PUSH1 0x0 MSTORE PUSH1 0x32 PUSH1 0x4 MSTORE PUSH1 0x24 PUSH1 0x0 REVERT JUMPDEST PUSH1 0x20 MUL PUSH1 0x20 ADD ADD DUP2 SWAP1 MSTORE POP DUP5 DUP3 PUSH1 0x3 DUP2 MLOAD DUP2 LT PUSH2 0x1FA3 JUMPI PUSH4 0x4E487B71 PUSH1 0xE0 SHL PUSH1 0x0 MSTORE PUSH1 0x32 PUSH1 0x4 MSTORE PUSH1 0x24 PUSH1 0x0 REVERT JUMPDEST PUSH1 0x20 MUL PUSH1 0x20 ADD ADD DUP2 SWAP1 MSTORE POP DUP10 DUP2 PUSH1 0x0 DUP2 MLOAD DUP2 LT PUSH2 0x1FD0 JUMPI PUSH4 0x4E487B71 PUSH1 0xE0 SHL PUSH1 0x0 MSTORE PUSH1 0x32 PUSH1 0x4 MSTORE PUSH1 0x24 PUSH1 0x0 REVERT JUMPDEST PUSH1 0x20 MUL PUSH1 0x20 ADD ADD DUP2 SWAP1 MSTORE POP DUP8 DUP2 PUSH1 0x1 DUP2 MLOAD DUP2 LT PUSH2 0x1FFD JUMPI PUSH4 0x4E487B71 PUSH1 0xE0 SHL PUSH1 0x0 MSTORE PUSH1 0x32 PUSH1 0x4 MSTORE PUSH1 0x24 PUSH1 0x0 REVERT JUMPDEST PUSH1 0x20 MUL PUSH1 0x20 ADD ADD DUP2 SWAP1 MSTORE POP DUP6 DUP2 PUSH1 0x2 DUP2 MLOAD DUP2 LT PUSH2 0x202A JUMPI PUSH4 0x4E487B71 PUSH1 0xE0 SHL PUSH1 0x0 MSTORE PUSH1 0x32 PUSH1 0x4 MSTORE PUSH1 0x24 PUSH1 0x0 REVERT JUMPDEST PUSH1 0x20 MUL PUSH1 0x20 ADD ADD DUP2 SWAP1 MSTORE POP DUP4 DUP2 PUSH1 0x3 DUP2 MLOAD DUP2 LT PUSH2 0x2057 JUMPI PUSH4 0x4E487B71 PUSH1 0xE0 SHL PUSH1 0x0 MSTORE PUSH1 0x32 PUSH1 0x4 MSTORE PUSH1 0x24 PUSH1 0x0 REVERT JUMPDEST PUSH1 0x20 MUL PUSH1 0x20 ADD ADD DUP2 SWAP1 MSTORE POP PUSH2 0x206C DUP3 DUP3 PUSH2 0x207B JUMP JUMPDEST SWAP12 SWAP11 POP POP POP POP POP POP POP POP POP POP POP JUMP JUMPDEST PUSH1 0x0 DUP2 MLOAD DUP4 MLOAD EQ PUSH2 0x208B JUMPI PUSH1 0x0 DUP1 REVERT JUMPDEST DUP3 MLOAD PUSH1 0x0 PUSH2 0x209A DUP3 PUSH1 0x6 PUSH2 0x272B JUMP JUMPDEST SWAP1 POP PUSH1 0x0 DUP2 PUSH1 0x1 PUSH1 0x1 PUSH1 0x40 SHL SUB DUP2 GT ISZERO PUSH2 0x20C4 JUMPI PUSH4 0x4E487B71 PUSH1 0xE0 SHL PUSH1 0x0 MSTORE PUSH1 0x41 PUSH1 0x4 MSTORE PUSH1 0x24 PUSH1 0x0 REVERT JUMPDEST PUSH1 0x40 MLOAD SWAP1 DUP1 DUP3 MSTORE DUP1 PUSH1 0x20 MUL PUSH1 0x20 ADD DUP3 ADD PUSH1 0x40 MSTORE DUP1 ISZERO PUSH2 0x20ED JUMPI DUP2 PUSH1 0x20 ADD PUSH1 0x20 DUP3 MUL DUP1 CALLDATASIZE DUP4 CALLDATACOPY ADD SWAP1 POP JUMPDEST POP SWAP1 POP PUSH1 0x0 JUMPDEST DUP4 DUP2 LT ISZERO PUSH2 0x23EC JUMPI DUP7 DUP2 DUP2 MLOAD DUP2 LT PUSH2 0x211B JUMPI PUSH4 0x4E487B71 PUSH1 0xE0 SHL PUSH1 0x0 MSTORE PUSH1 0x32 PUSH1 0x4 MSTORE PUSH1 0x24 PUSH1 0x0 REVERT JUMPDEST PUSH1 0x20 MUL PUSH1 0x20 ADD ADD MLOAD PUSH1 0x0 ADD MLOAD DUP3 DUP3 PUSH1 0x6 PUSH2 0x2135 SWAP2 SWAP1 PUSH2 0x272B JUMP JUMPDEST PUSH2 0x2140 SWAP1 PUSH1 0x0 PUSH2 0x2713 JUMP JUMPDEST DUP2 MLOAD DUP2 LT PUSH2 0x215E JUMPI PUSH4 0x4E487B71 PUSH1 0xE0 SHL PUSH1 0x0 MSTORE PUSH1 0x32 PUSH1 0x4 MSTORE PUSH1 0x24 PUSH1 0x0 REVERT JUMPDEST PUSH1 0x20 MUL PUSH1 0x20 ADD ADD DUP2 DUP2 MSTORE POP POP DUP7 DUP2 DUP2 MLOAD DUP2 LT PUSH2 0x218A JUMPI PUSH4 0x4E487B71 PUSH1 0xE0 SHL PUSH1 0x0 MSTORE PUSH1 0x32 PUSH1 0x4 MSTORE PUSH1 0x24 PUSH1 0x0 REVERT JUMPDEST PUSH1 0x20 MUL PUSH1 0x20 ADD ADD MLOAD PUSH1 0x20 ADD MLOAD DUP3 DUP3 PUSH1 0x6 PUSH2 0x21A4 SWAP2 SWAP1 PUSH2 0x272B JUMP JUMPDEST PUSH2 0x21AF SWAP1 PUSH1 0x1 PUSH2 0x2713 JUMP JUMPDEST DUP2 MLOAD DUP2 LT PUSH2 0x21CD JUMPI PUSH4 0x4E487B71 PUSH1 0xE0 SHL PUSH1 0x0 MSTORE PUSH1 0x32 PUSH1 0x4 MSTORE PUSH1 0x24 PUSH1 0x0 REVERT JUMPDEST PUSH1 0x20 MUL PUSH1 0x20 ADD ADD DUP2 DUP2 MSTORE POP POP DUP6 DUP2 DUP2 MLOAD DUP2 LT PUSH2 0x21F9 JUMPI PUSH4 0x4E487B71 PUSH1 0xE0 SHL PUSH1 0x0 MSTORE PUSH1 0x32 PUSH1 0x4 MSTORE PUSH1 0x24 PUSH1 0x0 REVERT JUMPDEST PUSH1 0x20 SWAP1 DUP2 MUL SWAP2 SWAP1 SWAP2 ADD DUP2 ADD MLOAD MLOAD ADD MLOAD DUP3 PUSH2 0x2214 DUP4 PUSH1 0x6 PUSH2 0x272B JUMP JUMPDEST PUSH2 0x221F SWAP1 PUSH1 0x2 PUSH2 0x2713 JUMP JUMPDEST DUP2 MLOAD DUP2 LT PUSH2 0x223D JUMPI PUSH4 0x4E487B71 PUSH1 0xE0 SHL PUSH1 0x0 MSTORE PUSH1 0x32 PUSH1 0x4 MSTORE PUSH1 0x24 PUSH1 0x0 REVERT JUMPDEST PUSH1 0x20 MUL PUSH1 0x20 ADD ADD DUP2 DUP2 MSTORE POP POP DUP6 DUP2 DUP2 MLOAD DUP2 LT PUSH2 0x2269 JUMPI PUSH4 0x4E487B71 PUSH1 0xE0 SHL PUSH1 0x0 MSTORE PUSH1 0x32 PUSH1 0x4 MSTORE PUSH1 0x24 PUSH1 0x0 REVERT JUMPDEST PUSH1 0x20 SWAP1 DUP2 MUL SWAP2 SWAP1 SWAP2 ADD ADD MLOAD MLOAD MLOAD DUP3 PUSH2 0x2282 DUP4 PUSH1 0x6 PUSH2 0x272B JUMP JUMPDEST PUSH2 0x228D SWAP1 PUSH1 0x3 PUSH2 0x2713 JUMP JUMPDEST DUP2 MLOAD DUP2 LT PUSH2 0x22AB JUMPI PUSH4 0x4E487B71 PUSH1 0xE0 SHL PUSH1 0x0 MSTORE PUSH1 0x32 PUSH1 0x4 MSTORE PUSH1 0x24 PUSH1 0x0 REVERT JUMPDEST PUSH1 0x20 MUL PUSH1 0x20 ADD ADD DUP2 DUP2 MSTORE POP POP DUP6 DUP2 DUP2 MLOAD DUP2 LT PUSH2 0x22D7 JUMPI PUSH4 0x4E487B71 PUSH1 0xE0 SHL PUSH1 0x0 MSTORE PUSH1 0x32 PUSH1 0x4 MSTORE PUSH1 0x24 PUSH1 0x0 REVERT JUMPDEST PUSH1 0x20 MUL PUSH1 0x20 ADD ADD MLOAD PUSH1 0x20 ADD MLOAD PUSH1 0x1 PUSH1 0x2 DUP2 LT PUSH2 0x2303 JUMPI PUSH4 0x4E487B71 PUSH1 0xE0 SHL PUSH1 0x0 MSTORE PUSH1 0x32 PUSH1 0x4 MSTORE PUSH1 0x24 PUSH1 0x0 REVERT JUMPDEST PUSH1 0x20 MUL ADD MLOAD DUP3 PUSH2 0x2314 DUP4 PUSH1 0x6 PUSH2 0x272B JUMP JUMPDEST PUSH2 0x231F SWAP1 PUSH1 0x4 PUSH2 0x2713 JUMP JUMPDEST DUP2 MLOAD DUP2 LT PUSH2 0x233D JUMPI PUSH4 0x4E487B71 PUSH1 0xE0 SHL PUSH1 0x0 MSTORE PUSH1 0x32 PUSH1 0x4 MSTORE PUSH1 0x24 PUSH1 0x0 REVERT JUMPDEST PUSH1 0x20 MUL PUSH1 0x20 ADD ADD DUP2 DUP2 MSTORE POP POP DUP6 DUP2 DUP2 MLOAD DUP2 LT PUSH2 0x2369 JUMPI PUSH4 0x4E487B71 PUSH1 0xE0 SHL PUSH1 0x0 MSTORE PUSH1 0x32 PUSH1 0x4 MSTORE PUSH1 0x24 PUSH1 0x0 REVERT JUMPDEST PUSH1 0x20 MUL PUSH1 0x20 ADD ADD MLOAD PUSH1 0x20 ADD MLOAD PUSH1 0x0 PUSH1 0x2 DUP2 LT PUSH2 0x2395 JUMPI PUSH4 0x4E487B71 PUSH1 0xE0 SHL PUSH1 0x0 MSTORE PUSH1 0x32 PUSH1 0x4 MSTORE PUSH1 0x24 PUSH1 0x0 REVERT JUMPDEST PUSH1 0x20 MUL ADD MLOAD DUP3 PUSH2 0x23A6 DUP4 PUSH1 0x6 PUSH2 0x272B JUMP JUMPDEST PUSH2 0x23B1 SWAP1 PUSH1 0x5 PUSH2 0x2713 JUMP JUMPDEST DUP2 MLOAD DUP2 LT PUSH2 0x23CF JUMPI PUSH4 0x4E487B71 PUSH1 0xE0 SHL PUSH1 0x0 MSTORE PUSH1 0x32 PUSH1 0x4 MSTORE PUSH1 0x24 PUSH1 0x0 REVERT JUMPDEST PUSH1 0x20 SWAP1 DUP2 MUL SWAP2 SWAP1 SWAP2 ADD ADD MSTORE DUP1 PUSH2 0x23E4 DUP2 PUSH2 0x2761 JUMP JUMPDEST SWAP2 POP POP PUSH2 0x20F3 JUMP JUMPDEST POP PUSH2 0x23F5 PUSH2 0x251B JUMP JUMPDEST PUSH1 0x0 PUSH1 0x20 DUP3 PUSH1 0x20 DUP7 MUL PUSH1 0x20 DUP7 ADD PUSH1 0x8 PUSH2 0x7D0 GAS SUB STATICCALL SWAP1 POP DUP1 DUP1 ISZERO PUSH2 0x1D94 JUMPI POP DUP1 PUSH2 0x241E JUMPI PUSH1 0x0 DUP1 REVERT JUMPDEST POP MLOAD ISZERO ISZERO SWAP7 SWAP6 POP POP POP POP POP POP JUMP JUMPDEST PUSH1 0x40 MLOAD DUP1 PUSH1 0x60 ADD PUSH1 0x40 MSTORE DUP1 PUSH2 0x243F PUSH2 0x24A5 JUMP JUMPDEST DUP2 MSTORE PUSH1 0x20 ADD PUSH2 0x244C PUSH2 0x24FB JUMP JUMPDEST DUP2 MSTORE PUSH1 0x20 ADD PUSH2 0x2459 PUSH2 0x24A5 JUMP JUMPDEST SWAP1 MSTORE SWAP1 JUMP JUMPDEST PUSH1 0x40 MLOAD DUP1 PUSH1 0xA0 ADD PUSH1 0x40 MSTORE DUP1 PUSH2 0x2471 PUSH2 0x24A5 JUMP JUMPDEST DUP2 MSTORE PUSH1 0x20 ADD PUSH2 0x247E PUSH2 0x24FB JUMP JUMPDEST DUP2 MSTORE PUSH1 0x20 ADD PUSH2 0x248B PUSH2 0x24FB JUMP JUMPDEST DUP2 MSTORE PUSH1 0x20 ADD PUSH2 0x2498 PUSH2 0x24FB JUMP JUMPDEST DUP2 MSTORE PUSH1 0x20 ADD PUSH1 0x60 DUP2 MSTORE POP SWAP1 JUMP JUMPDEST PUSH1 0x40 MLOAD DUP1 PUSH1 0x40 ADD PUSH1 0x40 MSTORE DUP1 PUSH1 0x0 DUP2 MSTORE PUSH1 0x20 ADD PUSH1 0x0 DUP2 MSTORE POP SWAP1 JUMP JUMPDEST PUSH1 0x40 MLOAD DUP1 PUSH1 0x60 ADD PUSH1 0x40 MSTORE DUP1 PUSH1 0x3 SWAP1 PUSH1 0x20 DUP3 MUL DUP1 CALLDATASIZE DUP4 CALLDATACOPY POP SWAP2 SWAP3 SWAP2 POP POP JUMP JUMPDEST PUSH1 0x40 MLOAD DUP1 PUSH1 0x80 ADD PUSH1 0x40 MSTORE DUP1 PUSH1 0x4 SWAP1 PUSH1 0x20 DUP3 MUL DUP1 CALLDATASIZE DUP4 CALLDATACOPY POP SWAP2 SWAP3 SWAP2 POP POP JUMP JUMPDEST PUSH1 0x40 MLOAD DUP1 PUSH1 0x40 ADD PUSH1 0x40 MSTORE DUP1 PUSH2 0x250E PUSH2 0x2539 JUMP JUMPDEST DUP2 MSTORE PUSH1 0x20 ADD PUSH2 0x2459 PUSH2 0x2539 JUMP JUMPDEST PUSH1 0x40 MLOAD DUP1 PUSH1 0x20 ADD PUSH1 0x40 MSTORE DUP1 PUSH1 0x1 SWAP1 PUSH1 0x20 DUP3 MUL DUP1 CALLDATASIZE DUP4 CALLDATACOPY POP SWAP2 SWAP3 SWAP2 POP POP JUMP JUMPDEST PUSH1 0x40 MLOAD DUP1 PUSH1 0x40 ADD PUSH1 0x40 MSTORE DUP1 PUSH1 0x2 SWAP1 PUSH1 0x20 DUP3 MUL DUP1 CALLDATASIZE DUP4 CALLDATACOPY POP SWAP2 SWAP3 SWAP2 POP POP JUMP JUMPDEST PUSH1 0x0 DUP3 PUSH1 0x1F DUP4 ADD SLT PUSH2 0x2567 JUMPI DUP1 DUP2 REVERT JUMPDEST PUSH2 0x2571 PUSH1 0x40 PUSH2 0x26C3 JUMP JUMPDEST DUP1 DUP4 DUP6 PUSH1 0x40 DUP7 ADD GT ISZERO PUSH2 0x2582 JUMPI DUP4 DUP5 REVERT JUMPDEST DUP4 JUMPDEST PUSH1 0x2 DUP2 LT ISZERO PUSH2 0x25A3 JUMPI DUP2 CALLDATALOAD DUP5 MSTORE PUSH1 0x20 SWAP4 DUP5 ADD SWAP4 SWAP1 SWAP2 ADD SWAP1 PUSH1 0x1 ADD PUSH2 0x2584 JUMP JUMPDEST POP SWAP1 SWAP6 SWAP5 POP POP POP POP POP JUMP JUMPDEST PUSH1 0x0 DUP3 PUSH1 0x1F DUP4 ADD SLT PUSH2 0x25BE JUMPI DUP1 DUP2 REVERT JUMPDEST PUSH2 0x580 PUSH2 0x25CA DUP2 PUSH2 0x26C3 JUMP JUMPDEST DUP1 DUP5 DUP7 DUP5 DUP8 ADD GT ISZERO PUSH2 0x25DA JUMPI DUP5 DUP6 REVERT JUMPDEST DUP5 SWAP4 POP JUMPDEST PUSH1 0x2C DUP5 LT ISZERO PUSH2 0x25FE JUMPI DUP1 CALLDATALOAD DUP4 MSTORE PUSH1 0x1 SWAP4 SWAP1 SWAP4 ADD SWAP3 PUSH1 0x20 SWAP3 DUP4 ADD SWAP3 ADD PUSH2 0x25DE JUMP JUMPDEST POP SWAP6 SWAP5 POP POP POP POP POP JUMP JUMPDEST PUSH1 0x0 DUP1 PUSH1 0x0 DUP1 PUSH2 0x680 DUP6 DUP8 SUB SLT ISZERO PUSH2 0x261E JUMPI DUP4 DUP5 REVERT JUMPDEST PUSH2 0x2628 DUP7 DUP7 PUSH2 0x2557 JUMP JUMPDEST SWAP4 POP PUSH1 0x40 DUP7 PUSH1 0x5F DUP8 ADD SLT PUSH2 0x263A JUMPI DUP4 DUP5 REVERT JUMPDEST PUSH1 0x2 PUSH2 0x264D PUSH2 0x2648 DUP3 PUSH2 0x26F3 JUMP JUMPDEST PUSH2 0x26C3 JUMP JUMPDEST DUP1 DUP4 DUP10 ADD PUSH1 0xC0 DUP11 ADD DUP12 DUP2 GT ISZERO PUSH2 0x2661 JUMPI DUP9 DUP10 REVERT JUMPDEST DUP9 JUMPDEST DUP6 DUP2 LT ISZERO PUSH2 0x2689 JUMPI PUSH2 0x2675 DUP14 DUP5 PUSH2 0x2557 JUMP JUMPDEST DUP6 MSTORE PUSH1 0x20 SWAP1 SWAP5 ADD SWAP4 SWAP2 DUP7 ADD SWAP2 PUSH1 0x1 ADD PUSH2 0x2663 JUMP JUMPDEST POP DUP3 SWAP9 POP PUSH2 0x2697 DUP13 DUP3 PUSH2 0x2557 JUMP JUMPDEST SWAP8 POP POP POP POP POP POP POP PUSH2 0x26AD DUP7 PUSH2 0x100 DUP8 ADD PUSH2 0x25AE JUMP JUMPDEST SWAP1 POP SWAP3 SWAP6 SWAP2 SWAP5 POP SWAP3 POP JUMP JUMPDEST SWAP1 ISZERO ISZERO DUP2 MSTORE PUSH1 0x20 ADD SWAP1 JUMP JUMPDEST PUSH1 0x40 MLOAD PUSH1 0x1F DUP3 ADD PUSH1 0x1F NOT AND DUP2 ADD PUSH1 0x1 PUSH1 0x1 PUSH1 0x40 SHL SUB DUP2 GT DUP3 DUP3 LT OR ISZERO PUSH2 0x26EB JUMPI PUSH2 0x26EB PUSH2 0x27B2 JUMP JUMPDEST PUSH1 0x40 MSTORE SWAP2 SWAP1 POP JUMP JUMPDEST PUSH1 0x0 PUSH1 0x1 PUSH1 0x1 PUSH1 0x40 SHL SUB DUP3 GT ISZERO PUSH2 0x270C JUMPI PUSH2 0x270C PUSH2 0x27B2 JUMP JUMPDEST POP PUSH1 0x20 MUL SWAP1 JUMP JUMPDEST PUSH1 0x0 DUP3 NOT DUP3 GT ISZERO PUSH2 0x2726 JUMPI PUSH2 0x2726 PUSH2 0x279C JUMP JUMPDEST POP ADD SWAP1 JUMP JUMPDEST PUSH1 0x0 DUP2 PUSH1 0x0 NOT DIV DUP4 GT DUP3 ISZERO ISZERO AND ISZERO PUSH2 0x2745 JUMPI PUSH2 0x2745 PUSH2 0x279C JUMP JUMPDEST POP MUL SWAP1 JUMP JUMPDEST PUSH1 0x0 DUP3 DUP3 LT ISZERO PUSH2 0x275C JUMPI PUSH2 0x275C PUSH2 0x279C JUMP JUMPDEST POP SUB SWAP1 JUMP JUMPDEST PUSH1 0x0 PUSH1 0x0 NOT DUP3 EQ ISZERO PUSH2 0x2775 JUMPI PUSH2 0x2775 PUSH2 0x279C JUMP JUMPDEST POP PUSH1 0x1 ADD SWAP1 JUMP JUMPDEST PUSH1 0x0 DUP3 PUSH2 0x2797 JUMPI PUSH4 0x4E487B71 PUSH1 0xE0 SHL DUP2 MSTORE PUSH1 0x12 PUSH1 0x4 MSTORE PUSH1 0x24 DUP2 REVERT JUMPDEST POP MOD SWAP1 JUMP JUMPDEST PUSH4 0x4E487B71 PUSH1 0xE0 SHL PUSH1 0x0 MSTORE PUSH1 0x11 PUSH1 0x4 MSTORE PUSH1 0x24 PUSH1 0x0 REVERT JUMPDEST PUSH4 0x4E487B71 PUSH1 0xE0 SHL PUSH1 0x0 MSTORE PUSH1 0x41 PUSH1 0x4 MSTORE PUSH1 0x24 PUSH1 0x0 REVERT INVALID LOG2 PUSH5 0x6970667358 0x22 SLT KECCAK256 EXTCODEHASH SWAP1 0xA6 0x5E PUSH24 0xF6574D131E58783A60B841420269C6B9D6D20558C20A58B6 SMOD DUP2 0xC5 PUSH5 0x736F6C6343 STOP ADDMOD ADD STOP CALLER "
		},
		"gasEstimates": {
			"creation": {
				"codeDepositCost": "2047600",
				"executionCost": "2206",
				"totalCost": "2049806"
			},
			"external": {
				"verifyTx(uint256[2],uint256[2][2],uint256[2],uint256[44])": "infinite"
			},
			"internal": {
				"verify(uint256[] memory,struct Verifier.Proof memory)": "infinite",
				"verifyingKey()": "infinite"
			}
		},
		"methodIdentifiers": {
			"verifyTx(uint256[2],uint256[2][2],uint256[2],uint256[44])": "749eb4a4"
		}
	},
	"abi": [
		{
			"inputs": [
				{
					"internalType": "uint256[2]",
					"name": "a",
					"type": "uint256[2]"
				},
				{
					"internalType": "uint256[2][2]",
					"name": "b",
					"type": "uint256[2][2]"
				},
				{
					"internalType": "uint256[2]",
					"name": "c",
					"type": "uint256[2]"
				},
				{
					"internalType": "uint256[44]",
					"name": "input",
					"type": "uint256[44]"
				}
			],
			"name": "verifyTx",
			"outputs": [
				{
					"internalType": "bool",
					"name": "r",
					"type": "bool"
				}
			],
			"stateMutability": "view",
			"type": "function"
		}
	]
}