{
	"data": {
		"bytecode": {
			"linkReferences": {},
			"object": "612369610026600b82828239805160001a60731461001957fe5b30600052607381538281f3fe73000000000000000000000000000000000000000030146080604052600436106100355760003560e01c8063749eb4a41461003a575b600080fd5b61019a600480360361068081101561005157600080fd5b8101908080604001906002806020026040519081016040528092919082600260200280828437600081840152601f19601f82011690508083019250505050505091929192908060800190600280602002604051908101604052809291906000905b82821015610106578382604002016002806020026040519081016040528092919082600260200280828437600081840152601f19601f820116905080830192505050505050815260200190600101906100b2565b50505050919291929080604001906002806020026040519081016040528092919082600260200280828437600081840152601f19601f8201169050808301925050505050509192919290806105800190602c806020026040519081016040528092919082602c60200280828437600081840152601f19601f82011690508083019250505050505091929192905050506101b2565b60405180821515815260200191505060405180910390f35b60006101bc6121f1565b6040518060400160405280876000600281106101d457fe5b60200201518152602001876001600281106101eb57fe5b60200201518152508160000181905250604051806040016040528060405180604001604052808860006002811061021e57fe5b602002015160006002811061022f57fe5b602002015181526020018860006002811061024657fe5b602002015160016002811061025757fe5b6020020151815250815260200160405180604001604052808860016002811061027c57fe5b602002015160006002811061028d57fe5b60200201518152602001886001600281106102a457fe5b60200201516001600281106102b557fe5b602002015181525081525081602001819052506040518060400160405280856000600281106102e057fe5b60200201518152602001856001600281106102f757fe5b602002015181525081604001819052506060602c67ffffffffffffffff8111801561032157600080fd5b506040519080825280602002602001820160405280156103505781602001602082028036833780820191505090505b50905060005b602c811015610395578481602c811061036b57fe5b602002015182828151811061037c57fe5b6020026020010181815250508080600101915050610356565b5060006103a282846103c2565b14156103b3576001925050506103ba565b6000925050505b949350505050565b6000807f30644e72e131a029b85045b68181585d2833e84879b9709143e1f593f000000190506103f0612224565b6103f8610531565b905080608001515160018651011461040f57600080fd5b61041761226b565b6040518060400160405280600081526020016000815250905060005b86518110156104aa578387828151811061044957fe5b60200260200101511061045b57600080fd5b61049b826104968560800151600185018151811061047557fe5b60200260200101518a858151811061048957fe5b6020026020010151611c1b565b611cad565b91508080600101915050610433565b506104cd8183608001516000815181106104c057fe5b6020026020010151611cad565b9050610513856000015186602001516104e584611d5e565b85604001516104f78a60400151611d5e565b87606001516105098960000151611d5e565b8960200151611df8565b610523576001935050505061052b565b600093505050505b92915050565b610539612224565b60405180604001604052807f1936c240636390dc823e3a728e94b208eb53c6756d81da57ec3425e05d43ac1081526020017f2d70ff78e8216bf29d58923a686d9738278b8ce2fd822e197c85b09286d155668152508160000181905250604051806040016040528060405180604001604052807f29c13ecb6f33dbc4b3b8a02e2e255511ce4c26a8a2f299efcc94caf2de4fce0081526020017f2b4daf047abe2e7f0b311118c1b963b63695dc0d769cea78849604434de055bf815250815260200160405180604001604052807f25ea0d7e2b29de431b86a943db30dbf4d98f68df9ca8a9628d14d1591e817d9081526020017f1da9020008df7f549751f8a251af3b2dc4a2ad3e0870de54acaedd9fc1b47e178152508152508160200181905250604051806040016040528060405180604001604052807ee83c788c2878d1d5eba3ed49b0d81e4c0487dedc3e4d1c2baab5833785b62f81526020017f011016e22ae045444f50fb80f246ec486c7e02af09132cd38c4fcf484983e4f2815250815260200160405180604001604052807f132a90a3b0d369ccd66e2a5ba04a935e44d8ad5dca93a76bba592a578130a91181526020017f05eb89e741ed5b5d611cebf92d1ed02cd6f3311089f0d400df7d9ced5a48fd418152508152508160400181905250604051806040016040528060405180604001604052807f0c3b60f59d3bd50328a04c0ff6d979199685d0526f89f6ac29d6174ce24707a281526020017f065f6a3323a2abffd621fc263f348eb914904b68d5897729ae34a6b9d33f0852815250815260200160405180604001604052807f12e0f3721230a0f38f6c9913048d5230fd2615ef3ff7f6ee4b20dfe0bdea1a8681526020017f26e7ebce2b44efef6b6315938e33f0a8ecc82dbad635c9efa681ed85bbb599828152508152508160600181905250602d67ffffffffffffffff811180156107fc57600080fd5b5060405190808252806020026020018201604052801561083657816020015b61082361226b565b81526020019060019003908161081b5790505b50816080018190525060405180604001604052807f1c2faf9df9ce339474c9b7c5c30646eb71603d750ec1774f3711a918d10d44b781526020017f1d547f874320dd42a71a2228bc4fa1d8505231f6ed43c04a390918eb3640d83881525081608001516000815181106108a557fe5b602002602001018190525060405180604001604052807f273881b3125e77789e147221c9f49303ad16897bdef0788add1bdf3c9b7151f381526020017f224d1e34517e56c6bdd670461c581e60146174759dcd7d64162610c162bf5422815250816080015160018151811061091657fe5b602002602001018190525060405180604001604052807f16a081f07f1cfd666670ffe9c7daf78d7fa8d9acf3d7756c420cd41184c6978381526020017f0220f37229313a1cff55154bdfb234779187a5692ab1357c84024752ef95f580815250816080015160028151811061098757fe5b602002602001018190525060405180604001604052807f21b7dd2fe07a5ef2e4f2f950a84259664c7b970f7b9c9cc5444b959f5e29b43581526020017f2d82eba6973cfafa028decdfe46147b7b386fa595cf2f4654395a08f3c1a5a9781525081608001516003815181106109f857fe5b602002602001018190525060405180604001604052807f26ca61b4c267957460abf63f894d04341ca9ad50dd944c7a9c92822951a071f481526020017f1d8c2698ac361c2180788232be732b00535553d4640ba42fc39732fbd193437e8152508160800151600481518110610a6957fe5b602002602001018190525060405180604001604052807f0204a42f220d4b0774ae26af28464636b03a24d70be9ebcb436853dc340cfba581526020017f0c30a5bee6edf1e30d75a843c96285d9da79869034822cd24d4dabc31d9ace598152508160800151600581518110610ada57fe5b602002602001018190525060405180604001604052807f204b869adfcac1b43d519f950fb79fe56468e09b352917bee007f1778b88abeb81526020017f05f6b29ccae0580bb8542156af899b40b32f33a682784335575d71b695cb36068152508160800151600681518110610b4b57fe5b602002602001018190525060405180604001604052807f24244240d136687296a576f426b2503849b109a78b5b6d9bf0624f83ae98800e81526020017f1d6c243ed5bddecbe1bd272179576594842bae0b5008ecb12c9e43fd499e84308152508160800151600781518110610bbc57fe5b602002602001018190525060405180604001604052807f09115f2f9dc7f8ab47abb8f1d2bf2e7fbdcb34817fbe92ae39810aaf2078f19681526020017f01c9f3c3d3204664744e13a7d59616e9f830207ff285efffd08e05fd6a8e5cae8152508160800151600881518110610c2d57fe5b602002602001018190525060405180604001604052807f076e4b117bb45d4d2450b262e5a72a676b85cc9316aeb9715ce202e48764761681526020017f1efdb211d046148a17c3c23fc27bed53b809e4c4ce82e119bae513627d5da6d48152508160800151600981518110610c9e57fe5b602002602001018190525060405180604001604052807f19ffb856d92e98038b8691c1b996b75ad17449d47208f6c23e9ea13faa7d556a81526020017f0589574b678f20da7c1de4d1b48e38b02ea3c81acdd6bc52a045c8425b0ae5908152508160800151600a81518110610d0f57fe5b602002602001018190525060405180604001604052807f0b9f5f172ae18443d37670a33c39be189a9910f7f857af61e368a902faad140781526020017f038e2e6f5ef16cfba39c7dbf47774792ab052ff7a92e55a61492f2c48ff320478152508160800151600b81518110610d8057fe5b602002602001018190525060405180604001604052807f233cbcad99e37a29017e11d5d8f3d0f8da05ffa9a253e23f5c9a7ed72613f35581526020017f1a18f9c2b6a46a000cdd2ee0447ea3d82295f3073559b2d3b5dcd7b166e145528152508160800151600c81518110610df157fe5b602002602001018190525060405180604001604052807f1fde96b214ea28bf91fbe3920029a8c5c0a6c665e2981ceebe1576b1cb06c73381526020017f30439df18e90237e60300925a870d0fd9f0cce38285824d849057fcb8ec6062d8152508160800151600d81518110610e6257fe5b602002602001018190525060405180604001604052807f192f4d49b5cd3050a00e2a706264e1386a45fb786bec0846c0fb6a42f13a21b481526020017f12e505c73e8ddae587fbdb56833abca9ef1ce9a154fc0649677941edb6a5cc578152508160800151600e81518110610ed357fe5b602002602001018190525060405180604001604052807f2138fe34068ff29721511b35c6c290ed16eacd8d936b3f7d8d76081c7749af3d81526020017f2fe2a69caca1eb49191377506365f4994c46afcbfd1a876c3f789d91bf5544888152508160800151600f81518110610f4457fe5b602002602001018190525060405180604001604052807f07c6c17c7fa2d42375caa31cbde99a8b466239d2c4a0cc8856d884d87cf3840a81526020017f186980d3bd863b94327ca8abbc209c130ecf9a3c5a92737f9082ba55e4dd96f48152508160800151601081518110610fb557fe5b602002602001018190525060405180604001604052807f15aea64c4c31da420368890d4d3b999a0978707c272c3f155bf894cc8393e08a81526020017f26f9f3410cef69108d89c6b92c8a76aea6ddc3b9cefb69f43964fbb800183090815250816080015160118151811061102657fe5b602002602001018190525060405180604001604052807f2ab42d8f51681cdc867d065d521a3ef33948ddcab12f0a0f7c8534fff2161a3c81526020017f2b5e2d3bc865234acb0fe92996fc7952dccc5ed0905f508af82c2a5892825a2b815250816080015160128151811061109757fe5b602002602001018190525060405180604001604052807f1b8415aeb2caff64cf0c7cec05c72734aa4b10b8401d5cf033d94ffbd8c8659081526020017f19548b9ef4ae1b1235c1f151e68894f5207b4a94cad08fb48e782fb1c7ce59e3815250816080015160138151811061110857fe5b602002602001018190525060405180604001604052807f09373744671b92f34b6390bcd058cbd3c0342e531f49ce915a38926f785e632281526020017f220ce67f696b5c77b406776b26b42147edba1d288a3b70e98cc2ce8bc8774a8e815250816080015160148151811061117957fe5b602002602001018190525060405180604001604052807f2b114ebb1990a917f74a15d454583a017a626a84be635efa0a5414218d31d11c81526020017f15a0e1a6af1f6b7e4049b9815f18c1b43654153fdc19e6c1978e491cad9ea2ce81525081608001516015815181106111ea57fe5b602002602001018190525060405180604001604052807f1d73f0ceae0da6b7b3e7c602e9d63b95d1ebe89f06a169f79347b08d94ec2aa781526020017f2ad8819ca7f4e8478254ac061f231c9883b56695e21ac36326c7825261c08fdc815250816080015160168151811061125b57fe5b602002602001018190525060405180604001604052807f2779e12a34bd2350a293ba7394d4cb06beabb0f4d312d80b59beb2a4b1d0eaa081526020017f055a009f2c070501ddfd2ac54eea1dc7588ebf3bb742afc23f7e33f35c579bbb81525081608001516017815181106112cc57fe5b602002602001018190525060405180604001604052807f2b219915447e5fa78ac17ed42f26663396a81070bc7a0da41d08e1853b14841181526020017f012e043333920283d9c8af63f5c5e2466dafe279faedc1b910c2fe441ecf856c815250816080015160188151811061133d57fe5b602002602001018190525060405180604001604052807f2dbbd56899c54ec9abfc51b843b128988491f55ba2054b6bc9c16821075d6a2381526020017f1392e36bf076d42198129f60bc74631a1857d91ecf6e8708609d5341a4f08cf181525081608001516019815181106113ae57fe5b602002602001018190525060405180604001604052807f188afa17d0eb0debb05562e30142fc012fa253079ebaf0d1d372a636466a75f381526020017f10e5428db42ac8b459475d6f6533b0b654cd31bb28de3fb2bbd569661f62faae8152508160800151601a8151811061141f57fe5b602002602001018190525060405180604001604052807f0ca4cddad84ae5e2b1a5ac8a2437ee023db3a62fe51442fd290fa79081e9568781526020017f0c523e68a8f5e24ee19e6c6d97b4814e51aa77bec4ee833b996aea67f228293e8152508160800151601b8151811061149057fe5b602002602001018190525060405180604001604052807f12af58c21686e9bdd2f5aaa0e22c47310e1055e1cc2559a9562c5e1607b9ef7b81526020017f0e2ac559b560f0c6162a58abcd6d996e72c452fd7c772c627ba10c8f098ec6798152508160800151601c8151811061150157fe5b602002602001018190525060405180604001604052807f1ab9cda41948b456086c54af96e343ec97b19482abe02a34b0e6eb2273db381f81526020017f203b020a508022ed5f22bb91220f7e1566f5c2430a1c22fe28632c26f8eee42b8152508160800151601d8151811061157257fe5b602002602001018190525060405180604001604052807f0dbc9aaf10cd73cbf6c05474ad0ae37c8b9bea5b4b5be318649d161fdf52238d81526020017f039c7baba03bc77a90b4a93251507a52a6ace3afd5bef5765d88986b873051b78152508160800151601e815181106115e357fe5b602002602001018190525060405180604001604052807e0add961cde3bcc52ca730eee9e19760bbb79f3b713b254d0e14f39240abc3c81526020017f256d6f38c28973213ed82c9aa8ca4593c92d4f77967f1ffe3cc5cd1dea693dbb8152508160800151601f8151811061165357fe5b602002602001018190525060405180604001604052807f08776871f238e035902adbdf98b76fef66aca91b90923bb53ec6a45491557eae81526020017f06620892632adf3fb047b050d63c1040c126a0739e19ddd88d7edf60afebda8681525081608001516020815181106116c457fe5b602002602001018190525060405180604001604052807f2d14018262290b54a6294279059f9f2d9c01503f7f6f1040edb3a9920852a1ae81526020017f100a153943376ad5b4ea1bfdb53c6b900ee625787f95de54eec474c9ad16bcad815250816080015160218151811061173557fe5b602002602001018190525060405180604001604052807ef5c9c90e08017ee0969563e460e674e72f05b7ad0381ebcdaf604a51d7700781526020017f133a434392ea93da3a50831410ebdd18ef16dad3d8ceb1535738c7f9090446b781525081608001516022815181106117a557fe5b602002602001018190525060405180604001604052807f035d14d72a173d0bf727418a3c8b6dd00f20cecf970d92a5cb8bd2d6290541ae81526020017f1b176f2bf8691e21d9dfa7207e9cd1bfc456e95059df67ab9597b2d335afc0a7815250816080015160238151811061181657fe5b602002602001018190525060405180604001604052807f13865b29935c83de2b79a8cc85e0e99147fc0a23a8eac921da47ae89421265fc81526020017f186fd2bfc2fae7a7b7c6d6baf94b5ba84f31b5a23875a66df54234cb7fb4982b815250816080015160248151811061188757fe5b602002602001018190525060405180604001604052807f0b47da68cf6749df49fa98a08463a4641c1a0e6dae7b63e7b4fcd3413bd35f1181526020017f1bf4f4fa03246b61a8107a3fb9b9d51dca757453001bafee95255fdcadeedc7b81525081608001516025815181106118f857fe5b602002602001018190525060405180604001604052807f1c1f56be046fc9e33d6eb6031aba7ad69c6ac7692b8d4cefa8bcf63afd2eb4f981526020017e1162756f095dfea3bc14f24e9b6800ad93042ddf48804aa9841c4459323d4d815250816080015160268151811061196857fe5b602002602001018190525060405180604001604052807f130341c7e3f06b2c35020cdb837b7315b16a798d4876bbbe47a252b591ad29e681526020017f2f61880a8eacd7d3107030609b7ba173ae1880871b5bdb6b7e0eadb4ee106e4e81525081608001516027815181106119d957fe5b602002602001018190525060405180604001604052807f2582e45ee3221a2f88e18c3c14d79eaef54d8159789a3aa70e69cba409ac017c81526020017f0362ad8dd148be4a0c56dafb7331fb7a3c76cdf33a9a4d337e27124babfed7ec8152508160800151602881518110611a4a57fe5b602002602001018190525060405180604001604052807f195ad02603c7bfa685a0f65907ec208400fc558eed4624b490df9b74124cabb281526020017f24ff3092e70d569b3f322244689b1a2deb252b0e6cdf9198728441d4d8df4a628152508160800151602981518110611abb57fe5b602002602001018190525060405180604001604052807e7cd763be3301ffd15cc978ce3e975c2bb9c336910bc584e16ce3abe3dba19481526020017f219c03c22c6f853cc15ab2f33175ce564c54b0ab1a7c1fc06a5901cbcbd3d33a8152508160800151602a81518110611b2b57fe5b602002602001018190525060405180604001604052807f168ef84235228aa771b2b4627c96206cee084133c23f0f2be07646cf133adfd881526020017f0de8301b1af69e700ad0010ef1e846601c8e4be03f71c81760d4115a993352558152508160800151602b81518110611b9c57fe5b602002602001018190525060405180604001604052807f178c6c7ef03e971a2b4eee32d9a5a1cc3f4817fe89169b816fe3c2b55e947ffe81526020017f04b07436afbeeb9c2841764ee845b261cf1517dbe77bf41415aba6c0c28b2e1d8152508160800151602c81518110611c0d57fe5b602002602001018190525090565b611c2361226b565b611c2b612285565b836000015181600060038110611c3d57fe5b602002018181525050836020015181600160038110611c5857fe5b6020020181815250508281600260038110611c6f57fe5b602002018181525050600060608360808460076107d05a03fa90508060008114611c9857611c9a565bfe5b5080611ca557600080fd5b505092915050565b611cb561226b565b611cbd6122a7565b836000015181600060048110611ccf57fe5b602002018181525050836020015181600160048110611cea57fe5b602002018181525050826000015181600260048110611d0557fe5b602002018181525050826020015181600360048110611d2057fe5b602002018181525050600060608360c08460066107d05a03fa90508060008114611d4957611d4b565bfe5b5080611d5657600080fd5b505092915050565b611d6661226b565b60007f30644e72e131a029b85045b68181585d97816a916871ca8d3c208c16d87cfd47905060008360000151148015611da3575060008360200151145b15611dc7576040518060400160405280600081526020016000815250915050611df3565b60405180604001604052808460000151815260200182856020015181611de957fe5b0683038152509150505b919050565b60006060600467ffffffffffffffff81118015611e1457600080fd5b50604051908082528060200260200182016040528015611e4e57816020015b611e3b61226b565b815260200190600190039081611e335790505b5090506060600467ffffffffffffffff81118015611e6b57600080fd5b50604051908082528060200260200182016040528015611ea557816020015b611e926122c9565b815260200190600190039081611e8a5790505b5090508a82600081518110611eb657fe5b60200260200101819052508882600181518110611ecf57fe5b60200260200101819052508682600281518110611ee857fe5b60200260200101819052508482600381518110611f0157fe5b60200260200101819052508981600081518110611f1a57fe5b60200260200101819052508781600181518110611f3357fe5b60200260200101819052508581600281518110611f4c57fe5b60200260200101819052508381600381518110611f6557fe5b6020026020010181905250611f7a8282611f8a565b9250505098975050505050505050565b60008151835114611f9a57600080fd5b600083519050600060068202905060608167ffffffffffffffff81118015611fc157600080fd5b50604051908082528060200260200182016040528015611ff05781602001602082028036833780820191505090505b50905060005b838110156121935786818151811061200a57fe5b60200260200101516000015182600060068402018151811061202857fe5b60200260200101818152505086818151811061204057fe5b60200260200101516020015182600160068402018151811061205e57fe5b60200260200101818152505085818151811061207657fe5b60200260200101516000015160016002811061208e57fe5b60200201518260026006840201815181106120a557fe5b6020026020010181815250508581815181106120bd57fe5b6020026020010151600001516000600281106120d557fe5b60200201518260036006840201815181106120ec57fe5b60200260200101818152505085818151811061210457fe5b60200260200101516020015160016002811061211c57fe5b602002015182600460068402018151811061213357fe5b60200260200101818152505085818151811061214b57fe5b60200260200101516020015160006002811061216357fe5b602002015182600560068402018151811061217a57fe5b6020026020010181815250508080600101915050611ff6565b5061219c6122ef565b6000602082602086026020860160086107d05a03fa905080600081146121c1576121c3565bfe5b50806121ce57600080fd5b6000826000600181106121dd57fe5b602002015114159550505050505092915050565b604051806060016040528061220461226b565b81526020016122116122c9565b815260200161221e61226b565b81525090565b6040518060a0016040528061223761226b565b81526020016122446122c9565b81526020016122516122c9565b815260200161225e6122c9565b8152602001606081525090565b604051806040016040528060008152602001600081525090565b6040518060600160405280600390602082028036833780820191505090505090565b6040518060800160405280600490602082028036833780820191505090505090565b60405180604001604052806122dc612311565b81526020016122e9612311565b81525090565b6040518060200160405280600190602082028036833780820191505090505090565b604051806040016040528060029060208202803683378082019150509050509056fea26469706673582212204870e09d3eb7f23afa04afa889b8d294c6970edf18ea70392988322008fb831764736f6c634300060c0033",
			"opcodes": "PUSH2 0x2369 PUSH2 0x26 PUSH1 0xB DUP3 DUP3 DUP3 CODECOPY DUP1 MLOAD PUSH1 0x0 BYTE PUSH1 0x73 EQ PUSH2 0x19 JUMPI INVALID JUMPDEST ADDRESS PUSH1 0x0 MSTORE PUSH1 0x73 DUP2 MSTORE8 DUP3 DUP2 RETURN INVALID PUSH20 0x0 ADDRESS EQ PUSH1 0x80 PUSH1 0x40 MSTORE PUSH1 0x4 CALLDATASIZE LT PUSH2 0x35 JUMPI PUSH1 0x0 CALLDATALOAD PUSH1 0xE0 SHR DUP1 PUSH4 0x749EB4A4 EQ PUSH2 0x3A JUMPI JUMPDEST PUSH1 0x0 DUP1 REVERT JUMPDEST PUSH2 0x19A PUSH1 0x4 DUP1 CALLDATASIZE SUB PUSH2 0x680 DUP2 LT ISZERO PUSH2 0x51 JUMPI PUSH1 0x0 DUP1 REVERT JUMPDEST DUP2 ADD SWAP1 DUP1 DUP1 PUSH1 0x40 ADD SWAP1 PUSH1 0x2 DUP1 PUSH1 0x20 MUL PUSH1 0x40 MLOAD SWAP1 DUP2 ADD PUSH1 0x40 MSTORE DUP1 SWAP3 SWAP2 SWAP1 DUP3 PUSH1 0x2 PUSH1 0x20 MUL DUP1 DUP3 DUP5 CALLDATACOPY PUSH1 0x0 DUP2 DUP5 ADD MSTORE PUSH1 0x1F NOT PUSH1 0x1F DUP3 ADD AND SWAP1 POP DUP1 DUP4 ADD SWAP3 POP POP POP POP POP POP SWAP2 SWAP3 SWAP2 SWAP3 SWAP1 DUP1 PUSH1 0x80 ADD SWAP1 PUSH1 0x2 DUP1 PUSH1 0x20 MUL PUSH1 0x40 MLOAD SWAP1 DUP2 ADD PUSH1 0x40 MSTORE DUP1 SWAP3 SWAP2 SWAP1 PUSH1 0x0 SWAP1 JUMPDEST DUP3 DUP3 LT ISZERO PUSH2 0x106 JUMPI DUP4 DUP3 PUSH1 0x40 MUL ADD PUSH1 0x2 DUP1 PUSH1 0x20 MUL PUSH1 0x40 MLOAD SWAP1 DUP2 ADD PUSH1 0x40 MSTORE DUP1 SWAP3 SWAP2 SWAP1 DUP3 PUSH1 0x2 PUSH1 0x20 MUL DUP1 DUP3 DUP5 CALLDATACOPY PUSH1 0x0 DUP2 DUP5 ADD MSTORE PUSH1 0x1F NOT PUSH1 0x1F DUP3 ADD AND SWAP1 POP DUP1 DUP4 ADD SWAP3 POP POP POP POP POP POP DUP2 MSTORE PUSH1 0x20 ADD SWAP1 PUSH1 0x1 ADD SWAP1 PUSH2 0xB2 JUMP JUMPDEST POP POP POP POP SWAP2 SWAP3 SWAP2 SWAP3 SWAP1 DUP1 PUSH1 0x40 ADD SWAP1 PUSH1 0x2 DUP1 PUSH1 0x20 MUL PUSH1 0x40 MLOAD SWAP1 DUP2 ADD PUSH1 0x40 MSTORE DUP1 SWAP3 SWAP2 SWAP1 DUP3 PUSH1 0x2 PUSH1 0x20 MUL DUP1 DUP3 DUP5 CALLDATACOPY PUSH1 0x0 DUP2 DUP5 ADD MSTORE PUSH1 0x1F NOT PUSH1 0x1F DUP3 ADD AND SWAP1 POP DUP1 DUP4 ADD SWAP3 POP POP POP POP POP POP SWAP2 SWAP3 SWAP2 SWAP3 SWAP1 DUP1 PUSH2 0x580 ADD SWAP1 PUSH1 0x2C DUP1 PUSH1 0x20 MUL PUSH1 0x40 MLOAD SWAP1 DUP2 ADD PUSH1 0x40 MSTORE DUP1 SWAP3 SWAP2 SWAP1 DUP3 PUSH1 0x2C PUSH1 0x20 MUL DUP1 DUP3 DUP5 CALLDATACOPY PUSH1 0x0 DUP2 DUP5 ADD MSTORE PUSH1 0x1F NOT PUSH1 0x1F DUP3 ADD AND SWAP1 POP DUP1 DUP4 ADD SWAP3 POP POP POP POP POP POP SWAP2 SWAP3 SWAP2 SWAP3 SWAP1 POP POP POP PUSH2 0x1B2 JUMP JUMPDEST PUSH1 0x40 MLOAD DUP1 DUP3 ISZERO ISZERO DUP2 MSTORE PUSH1 0x20 ADD SWAP2 POP POP PUSH1 0x40 MLOAD DUP1 SWAP2 SUB SWAP1 RETURN JUMPDEST PUSH1 0x0 PUSH2 0x1BC PUSH2 0x21F1 JUMP JUMPDEST PUSH1 0x40 MLOAD DUP1 PUSH1 0x40 ADD PUSH1 0x40 MSTORE DUP1 DUP8 PUSH1 0x0 PUSH1 0x2 DUP2 LT PUSH2 0x1D4 JUMPI INVALID JUMPDEST PUSH1 0x20 MUL ADD MLOAD DUP2 MSTORE PUSH1 0x20 ADD DUP8 PUSH1 0x1 PUSH1 0x2 DUP2 LT PUSH2 0x1EB JUMPI INVALID JUMPDEST PUSH1 0x20 MUL ADD MLOAD DUP2 MSTORE POP DUP2 PUSH1 0x0 ADD DUP2 SWAP1 MSTORE POP PUSH1 0x40 MLOAD DUP1 PUSH1 0x40 ADD PUSH1 0x40 MSTORE DUP1 PUSH1 0x40 MLOAD DUP1 PUSH1 0x40 ADD PUSH1 0x40 MSTORE DUP1 DUP9 PUSH1 0x0 PUSH1 0x2 DUP2 LT PUSH2 0x21E JUMPI INVALID JUMPDEST PUSH1 0x20 MUL ADD MLOAD PUSH1 0x0 PUSH1 0x2 DUP2 LT PUSH2 0x22F JUMPI INVALID JUMPDEST PUSH1 0x20 MUL ADD MLOAD DUP2 MSTORE PUSH1 0x20 ADD DUP9 PUSH1 0x0 PUSH1 0x2 DUP2 LT PUSH2 0x246 JUMPI INVALID JUMPDEST PUSH1 0x20 MUL ADD MLOAD PUSH1 0x1 PUSH1 0x2 DUP2 LT PUSH2 0x257 JUMPI INVALID JUMPDEST PUSH1 0x20 MUL ADD MLOAD DUP2 MSTORE POP DUP2 MSTORE PUSH1 0x20 ADD PUSH1 0x40 MLOAD DUP1 PUSH1 0x40 ADD PUSH1 0x40 MSTORE DUP1 DUP9 PUSH1 0x1 PUSH1 0x2 DUP2 LT PUSH2 0x27C JUMPI INVALID JUMPDEST PUSH1 0x20 MUL ADD MLOAD PUSH1 0x0 PUSH1 0x2 DUP2 LT PUSH2 0x28D JUMPI INVALID JUMPDEST PUSH1 0x20 MUL ADD MLOAD DUP2 MSTORE PUSH1 0x20 ADD DUP9 PUSH1 0x1 PUSH1 0x2 DUP2 LT PUSH2 0x2A4 JUMPI INVALID JUMPDEST PUSH1 0x20 MUL ADD MLOAD PUSH1 0x1 PUSH1 0x2 DUP2 LT PUSH2 0x2B5 JUMPI INVALID JUMPDEST PUSH1 0x20 MUL ADD MLOAD DUP2 MSTORE POP DUP2 MSTORE POP DUP2 PUSH1 0x20 ADD DUP2 SWAP1 MSTORE POP PUSH1 0x40 MLOAD DUP1 PUSH1 0x40 ADD PUSH1 0x40 MSTORE DUP1 DUP6 PUSH1 0x0 PUSH1 0x2 DUP2 LT PUSH2 0x2E0 JUMPI INVALID JUMPDEST PUSH1 0x20 MUL ADD MLOAD DUP2 MSTORE PUSH1 0x20 ADD DUP6 PUSH1 0x1 PUSH1 0x2 DUP2 LT PUSH2 0x2F7 JUMPI INVALID JUMPDEST PUSH1 0x20 MUL ADD MLOAD DUP2 MSTORE POP DUP2 PUSH1 0x40 ADD DUP2 SWAP1 MSTORE POP PUSH1 0x60 PUSH1 0x2C PUSH8 0xFFFFFFFFFFFFFFFF DUP2 GT DUP1 ISZERO PUSH2 0x321 JUMPI PUSH1 0x0 DUP1 REVERT JUMPDEST POP PUSH1 0x40 MLOAD SWAP1 DUP1 DUP3 MSTORE DUP1 PUSH1 0x20 MUL PUSH1 0x20 ADD DUP3 ADD PUSH1 0x40 MSTORE DUP1 ISZERO PUSH2 0x350 JUMPI DUP2 PUSH1 0x20 ADD PUSH1 0x20 DUP3 MUL DUP1 CALLDATASIZE DUP4 CALLDATACOPY DUP1 DUP3 ADD SWAP2 POP POP SWAP1 POP JUMPDEST POP SWAP1 POP PUSH1 0x0 JUMPDEST PUSH1 0x2C DUP2 LT ISZERO PUSH2 0x395 JUMPI DUP5 DUP2 PUSH1 0x2C DUP2 LT PUSH2 0x36B JUMPI INVALID JUMPDEST PUSH1 0x20 MUL ADD MLOAD DUP3 DUP3 DUP2 MLOAD DUP2 LT PUSH2 0x37C JUMPI INVALID JUMPDEST PUSH1 0x20 MUL PUSH1 0x20 ADD ADD DUP2 DUP2 MSTORE POP POP DUP1 DUP1 PUSH1 0x1 ADD SWAP2 POP POP PUSH2 0x356 JUMP JUMPDEST POP PUSH1 0x0 PUSH2 0x3A2 DUP3 DUP5 PUSH2 0x3C2 JUMP JUMPDEST EQ ISZERO PUSH2 0x3B3 JUMPI PUSH1 0x1 SWAP3 POP POP POP PUSH2 0x3BA JUMP JUMPDEST PUSH1 0x0 SWAP3 POP POP POP JUMPDEST SWAP5 SWAP4 POP POP POP POP JUMP JUMPDEST PUSH1 0x0 DUP1 PUSH32 0x30644E72E131A029B85045B68181585D2833E84879B9709143E1F593F0000001 SWAP1 POP PUSH2 0x3F0 PUSH2 0x2224 JUMP JUMPDEST PUSH2 0x3F8 PUSH2 0x531 JUMP JUMPDEST SWAP1 POP DUP1 PUSH1 0x80 ADD MLOAD MLOAD PUSH1 0x1 DUP7 MLOAD ADD EQ PUSH2 0x40F JUMPI PUSH1 0x0 DUP1 REVERT JUMPDEST PUSH2 0x417 PUSH2 0x226B JUMP JUMPDEST PUSH1 0x40 MLOAD DUP1 PUSH1 0x40 ADD PUSH1 0x40 MSTORE DUP1 PUSH1 0x0 DUP2 MSTORE PUSH1 0x20 ADD PUSH1 0x0 DUP2 MSTORE POP SWAP1 POP PUSH1 0x0 JUMPDEST DUP7 MLOAD DUP2 LT ISZERO PUSH2 0x4AA JUMPI DUP4 DUP8 DUP3 DUP2 MLOAD DUP2 LT PUSH2 0x449 JUMPI INVALID JUMPDEST PUSH1 0x20 MUL PUSH1 0x20 ADD ADD MLOAD LT PUSH2 0x45B JUMPI PUSH1 0x0 DUP1 REVERT JUMPDEST PUSH2 0x49B DUP3 PUSH2 0x496 DUP6 PUSH1 0x80 ADD MLOAD PUSH1 0x1 DUP6 ADD DUP2 MLOAD DUP2 LT PUSH2 0x475 JUMPI INVALID JUMPDEST PUSH1 0x20 MUL PUSH1 0x20 ADD ADD MLOAD DUP11 DUP6 DUP2 MLOAD DUP2 LT PUSH2 0x489 JUMPI INVALID JUMPDEST PUSH1 0x20 MUL PUSH1 0x20 ADD ADD MLOAD PUSH2 0x1C1B JUMP JUMPDEST PUSH2 0x1CAD JUMP JUMPDEST SWAP2 POP DUP1 DUP1 PUSH1 0x1 ADD SWAP2 POP POP PUSH2 0x433 JUMP JUMPDEST POP PUSH2 0x4CD DUP2 DUP4 PUSH1 0x80 ADD MLOAD PUSH1 0x0 DUP2 MLOAD DUP2 LT PUSH2 0x4C0 JUMPI INVALID JUMPDEST PUSH1 0x20 MUL PUSH1 0x20 ADD ADD MLOAD PUSH2 0x1CAD JUMP JUMPDEST SWAP1 POP PUSH2 0x513 DUP6 PUSH1 0x0 ADD MLOAD DUP7 PUSH1 0x20 ADD MLOAD PUSH2 0x4E5 DUP5 PUSH2 0x1D5E JUMP JUMPDEST DUP6 PUSH1 0x40 ADD MLOAD PUSH2 0x4F7 DUP11 PUSH1 0x40 ADD MLOAD PUSH2 0x1D5E JUMP JUMPDEST DUP8 PUSH1 0x60 ADD MLOAD PUSH2 0x509 DUP10 PUSH1 0x0 ADD MLOAD PUSH2 0x1D5E JUMP JUMPDEST DUP10 PUSH1 0x20 ADD MLOAD PUSH2 0x1DF8 JUMP JUMPDEST PUSH2 0x523 JUMPI PUSH1 0x1 SWAP4 POP POP POP POP PUSH2 0x52B JUMP JUMPDEST PUSH1 0x0 SWAP4 POP POP POP POP JUMPDEST SWAP3 SWAP2 POP POP JUMP JUMPDEST PUSH2 0x539 PUSH2 0x2224 JUMP JUMPDEST PUSH1 0x40 MLOAD DUP1 PUSH1 0x40 ADD PUSH1 0x40 MSTORE DUP1 PUSH32 0x1936C240636390DC823E3A728E94B208EB53C6756D81DA57EC3425E05D43AC10 DUP2 MSTORE PUSH1 0x20 ADD PUSH32 0x2D70FF78E8216BF29D58923A686D9738278B8CE2FD822E197C85B09286D15566 DUP2 MSTORE POP DUP2 PUSH1 0x0 ADD DUP2 SWAP1 MSTORE POP PUSH1 0x40 MLOAD DUP1 PUSH1 0x40 ADD PUSH1 0x40 MSTORE DUP1 PUSH1 0x40 MLOAD DUP1 PUSH1 0x40 ADD PUSH1 0x40 MSTORE DUP1 PUSH32 0x29C13ECB6F33DBC4B3B8A02E2E255511CE4C26A8A2F299EFCC94CAF2DE4FCE00 DUP2 MSTORE PUSH1 0x20 ADD PUSH32 0x2B4DAF047ABE2E7F0B311118C1B963B63695DC0D769CEA78849604434DE055BF DUP2 MSTORE POP DUP2 MSTORE PUSH1 0x20 ADD PUSH1 0x40 MLOAD DUP1 PUSH1 0x40 ADD PUSH1 0x40 MSTORE DUP1 PUSH32 0x25EA0D7E2B29DE431B86A943DB30DBF4D98F68DF9CA8A9628D14D1591E817D90 DUP2 MSTORE PUSH1 0x20 ADD PUSH32 0x1DA9020008DF7F549751F8A251AF3B2DC4A2AD3E0870DE54ACAEDD9FC1B47E17 DUP2 MSTORE POP DUP2 MSTORE POP DUP2 PUSH1 0x20 ADD DUP2 SWAP1 MSTORE POP PUSH1 0x40 MLOAD DUP1 PUSH1 0x40 ADD PUSH1 0x40 MSTORE DUP1 PUSH1 0x40 MLOAD DUP1 PUSH1 0x40 ADD PUSH1 0x40 MSTORE DUP1 PUSH31 0xE83C788C2878D1D5EBA3ED49B0D81E4C0487DEDC3E4D1C2BAAB5833785B62F DUP2 MSTORE PUSH1 0x20 ADD PUSH32 0x11016E22AE045444F50FB80F246EC486C7E02AF09132CD38C4FCF484983E4F2 DUP2 MSTORE POP DUP2 MSTORE PUSH1 0x20 ADD PUSH1 0x40 MLOAD DUP1 PUSH1 0x40 ADD PUSH1 0x40 MSTORE DUP1 PUSH32 0x132A90A3B0D369CCD66E2A5BA04A935E44D8AD5DCA93A76BBA592A578130A911 DUP2 MSTORE PUSH1 0x20 ADD PUSH32 0x5EB89E741ED5B5D611CEBF92D1ED02CD6F3311089F0D400DF7D9CED5A48FD41 DUP2 MSTORE POP DUP2 MSTORE POP DUP2 PUSH1 0x40 ADD DUP2 SWAP1 MSTORE POP PUSH1 0x40 MLOAD DUP1 PUSH1 0x40 ADD PUSH1 0x40 MSTORE DUP1 PUSH1 0x40 MLOAD DUP1 PUSH1 0x40 ADD PUSH1 0x40 MSTORE DUP1 PUSH32 0xC3B60F59D3BD50328A04C0FF6D979199685D0526F89F6AC29D6174CE24707A2 DUP2 MSTORE PUSH1 0x20 ADD PUSH32 0x65F6A3323A2ABFFD621FC263F348EB914904B68D5897729AE34A6B9D33F0852 DUP2 MSTORE POP DUP2 MSTORE PUSH1 0x20 ADD PUSH1 0x40 MLOAD DUP1 PUSH1 0x40 ADD PUSH1 0x40 MSTORE DUP1 PUSH32 0x12E0F3721230A0F38F6C9913048D5230FD2615EF3FF7F6EE4B20DFE0BDEA1A86 DUP2 MSTORE PUSH1 0x20 ADD PUSH32 0x26E7EBCE2B44EFEF6B6315938E33F0A8ECC82DBAD635C9EFA681ED85BBB59982 DUP2 MSTORE POP DUP2 MSTORE POP DUP2 PUSH1 0x60 ADD DUP2 SWAP1 MSTORE POP PUSH1 0x2D PUSH8 0xFFFFFFFFFFFFFFFF DUP2 GT DUP1 ISZERO PUSH2 0x7FC JUMPI PUSH1 0x0 DUP1 REVERT JUMPDEST POP PUSH1 0x40 MLOAD SWAP1 DUP1 DUP3 MSTORE DUP1 PUSH1 0x20 MUL PUSH1 0x20 ADD DUP3 ADD PUSH1 0x40 MSTORE DUP1 ISZERO PUSH2 0x836 JUMPI DUP2 PUSH1 0x20 ADD JUMPDEST PUSH2 0x823 PUSH2 0x226B JUMP JUMPDEST DUP2 MSTORE PUSH1 0x20 ADD SWAP1 PUSH1 0x1 SWAP1 SUB SWAP1 DUP2 PUSH2 0x81B JUMPI SWAP1 POP JUMPDEST POP DUP2 PUSH1 0x80 ADD DUP2 SWAP1 MSTORE POP PUSH1 0x40 MLOAD DUP1 PUSH1 0x40 ADD PUSH1 0x40 MSTORE DUP1 PUSH32 0x1C2FAF9DF9CE339474C9B7C5C30646EB71603D750EC1774F3711A918D10D44B7 DUP2 MSTORE PUSH1 0x20 ADD PUSH32 0x1D547F874320DD42A71A2228BC4FA1D8505231F6ED43C04A390918EB3640D838 DUP2 MSTORE POP DUP2 PUSH1 0x80 ADD MLOAD PUSH1 0x0 DUP2 MLOAD DUP2 LT PUSH2 0x8A5 JUMPI INVALID JUMPDEST PUSH1 0x20 MUL PUSH1 0x20 ADD ADD DUP2 SWAP1 MSTORE POP PUSH1 0x40 MLOAD DUP1 PUSH1 0x40 ADD PUSH1 0x40 MSTORE DUP1 PUSH32 0x273881B3125E77789E147221C9F49303AD16897BDEF0788ADD1BDF3C9B7151F3 DUP2 MSTORE PUSH1 0x20 ADD PUSH32 0x224D1E34517E56C6BDD670461C581E60146174759DCD7D64162610C162BF5422 DUP2 MSTORE POP DUP2 PUSH1 0x80 ADD MLOAD PUSH1 0x1 DUP2 MLOAD DUP2 LT PUSH2 0x916 JUMPI INVALID JUMPDEST PUSH1 0x20 MUL PUSH1 0x20 ADD ADD DUP2 SWAP1 MSTORE POP PUSH1 0x40 MLOAD DUP1 PUSH1 0x40 ADD PUSH1 0x40 MSTORE DUP1 PUSH32 0x16A081F07F1CFD666670FFE9C7DAF78D7FA8D9ACF3D7756C420CD41184C69783 DUP2 MSTORE PUSH1 0x20 ADD PUSH32 0x220F37229313A1CFF55154BDFB234779187A5692AB1357C84024752EF95F580 DUP2 MSTORE POP DUP2 PUSH1 0x80 ADD MLOAD PUSH1 0x2 DUP2 MLOAD DUP2 LT PUSH2 0x987 JUMPI INVALID JUMPDEST PUSH1 0x20 MUL PUSH1 0x20 ADD ADD DUP2 SWAP1 MSTORE POP PUSH1 0x40 MLOAD DUP1 PUSH1 0x40 ADD PUSH1 0x40 MSTORE DUP1 PUSH32 0x21B7DD2FE07A5EF2E4F2F950A84259664C7B970F7B9C9CC5444B959F5E29B435 DUP2 MSTORE PUSH1 0x20 ADD PUSH32 0x2D82EBA6973CFAFA028DECDFE46147B7B386FA595CF2F4654395A08F3C1A5A97 DUP2 MSTORE POP DUP2 PUSH1 0x80 ADD MLOAD PUSH1 0x3 DUP2 MLOAD DUP2 LT PUSH2 0x9F8 JUMPI INVALID JUMPDEST PUSH1 0x20 MUL PUSH1 0x20 ADD ADD DUP2 SWAP1 MSTORE POP PUSH1 0x40 MLOAD DUP1 PUSH1 0x40 ADD PUSH1 0x40 MSTORE DUP1 PUSH32 0x26CA61B4C267957460ABF63F894D04341CA9AD50DD944C7A9C92822951A071F4 DUP2 MSTORE PUSH1 0x20 ADD PUSH32 0x1D8C2698AC361C2180788232BE732B00535553D4640BA42FC39732FBD193437E DUP2 MSTORE POP DUP2 PUSH1 0x80 ADD MLOAD PUSH1 0x4 DUP2 MLOAD DUP2 LT PUSH2 0xA69 JUMPI INVALID JUMPDEST PUSH1 0x20 MUL PUSH1 0x20 ADD ADD DUP2 SWAP1 MSTORE POP PUSH1 0x40 MLOAD DUP1 PUSH1 0x40 ADD PUSH1 0x40 MSTORE DUP1 PUSH32 0x204A42F220D4B0774AE26AF28464636B03A24D70BE9EBCB436853DC340CFBA5 DUP2 MSTORE PUSH1 0x20 ADD PUSH32 0xC30A5BEE6EDF1E30D75A843C96285D9DA79869034822CD24D4DABC31D9ACE59 DUP2 MSTORE POP DUP2 PUSH1 0x80 ADD MLOAD PUSH1 0x5 DUP2 MLOAD DUP2 LT PUSH2 0xADA JUMPI INVALID JUMPDEST PUSH1 0x20 MUL PUSH1 0x20 ADD ADD DUP2 SWAP1 MSTORE POP PUSH1 0x40 MLOAD DUP1 PUSH1 0x40 ADD PUSH1 0x40 MSTORE DUP1 PUSH32 0x204B869ADFCAC1B43D519F950FB79FE56468E09B352917BEE007F1778B88ABEB DUP2 MSTORE PUSH1 0x20 ADD PUSH32 0x5F6B29CCAE0580BB8542156AF899B40B32F33A682784335575D71B695CB3606 DUP2 MSTORE POP DUP2 PUSH1 0x80 ADD MLOAD PUSH1 0x6 DUP2 MLOAD DUP2 LT PUSH2 0xB4B JUMPI INVALID JUMPDEST PUSH1 0x20 MUL PUSH1 0x20 ADD ADD DUP2 SWAP1 MSTORE POP PUSH1 0x40 MLOAD DUP1 PUSH1 0x40 ADD PUSH1 0x40 MSTORE DUP1 PUSH32 0x24244240D136687296A576F426B2503849B109A78B5B6D9BF0624F83AE98800E DUP2 MSTORE PUSH1 0x20 ADD PUSH32 0x1D6C243ED5BDDECBE1BD272179576594842BAE0B5008ECB12C9E43FD499E8430 DUP2 MSTORE POP DUP2 PUSH1 0x80 ADD MLOAD PUSH1 0x7 DUP2 MLOAD DUP2 LT PUSH2 0xBBC JUMPI INVALID JUMPDEST PUSH1 0x20 MUL PUSH1 0x20 ADD ADD DUP2 SWAP1 MSTORE POP PUSH1 0x40 MLOAD DUP1 PUSH1 0x40 ADD PUSH1 0x40 MSTORE DUP1 PUSH32 0x9115F2F9DC7F8AB47ABB8F1D2BF2E7FBDCB34817FBE92AE39810AAF2078F196 DUP2 MSTORE PUSH1 0x20 ADD PUSH32 0x1C9F3C3D3204664744E13A7D59616E9F830207FF285EFFFD08E05FD6A8E5CAE DUP2 MSTORE POP DUP2 PUSH1 0x80 ADD MLOAD PUSH1 0x8 DUP2 MLOAD DUP2 LT PUSH2 0xC2D JUMPI INVALID JUMPDEST PUSH1 0x20 MUL PUSH1 0x20 ADD ADD DUP2 SWAP1 MSTORE POP PUSH1 0x40 MLOAD DUP1 PUSH1 0x40 ADD PUSH1 0x40 MSTORE DUP1 PUSH32 0x76E4B117BB45D4D2450B262E5A72A676B85CC9316AEB9715CE202E487647616 DUP2 MSTORE PUSH1 0x20 ADD PUSH32 0x1EFDB211D046148A17C3C23FC27BED53B809E4C4CE82E119BAE513627D5DA6D4 DUP2 MSTORE POP DUP2 PUSH1 0x80 ADD MLOAD PUSH1 0x9 DUP2 MLOAD DUP2 LT PUSH2 0xC9E JUMPI INVALID JUMPDEST PUSH1 0x20 MUL PUSH1 0x20 ADD ADD DUP2 SWAP1 MSTORE POP PUSH1 0x40 MLOAD DUP1 PUSH1 0x40 ADD PUSH1 0x40 MSTORE DUP1 PUSH32 0x19FFB856D92E98038B8691C1B996B75AD17449D47208F6C23E9EA13FAA7D556A DUP2 MSTORE PUSH1 0x20 ADD PUSH32 0x589574B678F20DA7C1DE4D1B48E38B02EA3C81ACDD6BC52A045C8425B0AE590 DUP2 MSTORE POP DUP2 PUSH1 0x80 ADD MLOAD PUSH1 0xA DUP2 MLOAD DUP2 LT PUSH2 0xD0F JUMPI INVALID JUMPDEST PUSH1 0x20 MUL PUSH1 0x20 ADD ADD DUP2 SWAP1 MSTORE POP PUSH1 0x40 MLOAD DUP1 PUSH1 0x40 ADD PUSH1 0x40 MSTORE DUP1 PUSH32 0xB9F5F172AE18443D37670A33C39BE189A9910F7F857AF61E368A902FAAD1407 DUP2 MSTORE PUSH1 0x20 ADD PUSH32 0x38E2E6F5EF16CFBA39C7DBF47774792AB052FF7A92E55A61492F2C48FF32047 DUP2 MSTORE POP DUP2 PUSH1 0x80 ADD MLOAD PUSH1 0xB DUP2 MLOAD DUP2 LT PUSH2 0xD80 JUMPI INVALID JUMPDEST PUSH1 0x20 MUL PUSH1 0x20 ADD ADD DUP2 SWAP1 MSTORE POP PUSH1 0x40 MLOAD DUP1 PUSH1 0x40 ADD PUSH1 0x40 MSTORE DUP1 PUSH32 0x233CBCAD99E37A29017E11D5D8F3D0F8DA05FFA9A253E23F5C9A7ED72613F355 DUP2 MSTORE PUSH1 0x20 ADD PUSH32 0x1A18F9C2B6A46A000CDD2EE0447EA3D82295F3073559B2D3B5DCD7B166E14552 DUP2 MSTORE POP DUP2 PUSH1 0x80 ADD MLOAD PUSH1 0xC DUP2 MLOAD DUP2 LT PUSH2 0xDF1 JUMPI INVALID JUMPDEST PUSH1 0x20 MUL PUSH1 0x20 ADD ADD DUP2 SWAP1 MSTORE POP PUSH1 0x40 MLOAD DUP1 PUSH1 0x40 ADD PUSH1 0x40 MSTORE DUP1 PUSH32 0x1FDE96B214EA28BF91FBE3920029A8C5C0A6C665E2981CEEBE1576B1CB06C733 DUP2 MSTORE PUSH1 0x20 ADD PUSH32 0x30439DF18E90237E60300925A870D0FD9F0CCE38285824D849057FCB8EC6062D DUP2 MSTORE POP DUP2 PUSH1 0x80 ADD MLOAD PUSH1 0xD DUP2 MLOAD DUP2 LT PUSH2 0xE62 JUMPI INVALID JUMPDEST PUSH1 0x20 MUL PUSH1 0x20 ADD ADD DUP2 SWAP1 MSTORE POP PUSH1 0x40 MLOAD DUP1 PUSH1 0x40 ADD PUSH1 0x40 MSTORE DUP1 PUSH32 0x192F4D49B5CD3050A00E2A706264E1386A45FB786BEC0846C0FB6A42F13A21B4 DUP2 MSTORE PUSH1 0x20 ADD PUSH32 0x12E505C73E8DDAE587FBDB56833ABCA9EF1CE9A154FC0649677941EDB6A5CC57 DUP2 MSTORE POP DUP2 PUSH1 0x80 ADD MLOAD PUSH1 0xE DUP2 MLOAD DUP2 LT PUSH2 0xED3 JUMPI INVALID JUMPDEST PUSH1 0x20 MUL PUSH1 0x20 ADD ADD DUP2 SWAP1 MSTORE POP PUSH1 0x40 MLOAD DUP1 PUSH1 0x40 ADD PUSH1 0x40 MSTORE DUP1 PUSH32 0x2138FE34068FF29721511B35C6C290ED16EACD8D936B3F7D8D76081C7749AF3D DUP2 MSTORE PUSH1 0x20 ADD PUSH32 0x2FE2A69CACA1EB49191377506365F4994C46AFCBFD1A876C3F789D91BF554488 DUP2 MSTORE POP DUP2 PUSH1 0x80 ADD MLOAD PUSH1 0xF DUP2 MLOAD DUP2 LT PUSH2 0xF44 JUMPI INVALID JUMPDEST PUSH1 0x20 MUL PUSH1 0x20 ADD ADD DUP2 SWAP1 MSTORE POP PUSH1 0x40 MLOAD DUP1 PUSH1 0x40 ADD PUSH1 0x40 MSTORE DUP1 PUSH32 0x7C6C17C7FA2D42375CAA31CBDE99A8B466239D2C4A0CC8856D884D87CF3840A DUP2 MSTORE PUSH1 0x20 ADD PUSH32 0x186980D3BD863B94327CA8ABBC209C130ECF9A3C5A92737F9082BA55E4DD96F4 DUP2 MSTORE POP DUP2 PUSH1 0x80 ADD MLOAD PUSH1 0x10 DUP2 MLOAD DUP2 LT PUSH2 0xFB5 JUMPI INVALID JUMPDEST PUSH1 0x20 MUL PUSH1 0x20 ADD ADD DUP2 SWAP1 MSTORE POP PUSH1 0x40 MLOAD DUP1 PUSH1 0x40 ADD PUSH1 0x40 MSTORE DUP1 PUSH32 0x15AEA64C4C31DA420368890D4D3B999A0978707C272C3F155BF894CC8393E08A DUP2 MSTORE PUSH1 0x20 ADD PUSH32 0x26F9F3410CEF69108D89C6B92C8A76AEA6DDC3B9CEFB69F43964FBB800183090 DUP2 MSTORE POP DUP2 PUSH1 0x80 ADD MLOAD PUSH1 0x11 DUP2 MLOAD DUP2 LT PUSH2 0x1026 JUMPI INVALID JUMPDEST PUSH1 0x20 MUL PUSH1 0x20 ADD ADD DUP2 SWAP1 MSTORE POP PUSH1 0x40 MLOAD DUP1 PUSH1 0x40 ADD PUSH1 0x40 MSTORE DUP1 PUSH32 0x2AB42D8F51681CDC867D065D521A3EF33948DDCAB12F0A0F7C8534FFF2161A3C DUP2 MSTORE PUSH1 0x20 ADD PUSH32 0x2B5E2D3BC865234ACB0FE92996FC7952DCCC5ED0905F508AF82C2A5892825A2B DUP2 MSTORE POP DUP2 PUSH1 0x80 ADD MLOAD PUSH1 0x12 DUP2 MLOAD DUP2 LT PUSH2 0x1097 JUMPI INVALID JUMPDEST PUSH1 0x20 MUL PUSH1 0x20 ADD ADD DUP2 SWAP1 MSTORE POP PUSH1 0x40 MLOAD DUP1 PUSH1 0x40 ADD PUSH1 0x40 MSTORE DUP1 PUSH32 0x1B8415AEB2CAFF64CF0C7CEC05C72734AA4B10B8401D5CF033D94FFBD8C86590 DUP2 MSTORE PUSH1 0x20 ADD PUSH32 0x19548B9EF4AE1B1235C1F151E68894F5207B4A94CAD08FB48E782FB1C7CE59E3 DUP2 MSTORE POP DUP2 PUSH1 0x80 ADD MLOAD PUSH1 0x13 DUP2 MLOAD DUP2 LT PUSH2 0x1108 JUMPI INVALID JUMPDEST PUSH1 0x20 MUL PUSH1 0x20 ADD ADD DUP2 SWAP1 MSTORE POP PUSH1 0x40 MLOAD DUP1 PUSH1 0x40 ADD PUSH1 0x40 MSTORE DUP1 PUSH32 0x9373744671B92F34B6390BCD058CBD3C0342E531F49CE915A38926F785E6322 DUP2 MSTORE PUSH1 0x20 ADD PUSH32 0x220CE67F696B5C77B406776B26B42147EDBA1D288A3B70E98CC2CE8BC8774A8E DUP2 MSTORE POP DUP2 PUSH1 0x80 ADD MLOAD PUSH1 0x14 DUP2 MLOAD DUP2 LT PUSH2 0x1179 JUMPI INVALID JUMPDEST PUSH1 0x20 MUL PUSH1 0x20 ADD ADD DUP2 SWAP1 MSTORE POP PUSH1 0x40 MLOAD DUP1 PUSH1 0x40 ADD PUSH1 0x40 MSTORE DUP1 PUSH32 0x2B114EBB1990A917F74A15D454583A017A626A84BE635EFA0A5414218D31D11C DUP2 MSTORE PUSH1 0x20 ADD PUSH32 0x15A0E1A6AF1F6B7E4049B9815F18C1B43654153FDC19E6C1978E491CAD9EA2CE DUP2 MSTORE POP DUP2 PUSH1 0x80 ADD MLOAD PUSH1 0x15 DUP2 MLOAD DUP2 LT PUSH2 0x11EA JUMPI INVALID JUMPDEST PUSH1 0x20 MUL PUSH1 0x20 ADD ADD DUP2 SWAP1 MSTORE POP PUSH1 0x40 MLOAD DUP1 PUSH1 0x40 ADD PUSH1 0x40 MSTORE DUP1 PUSH32 0x1D73F0CEAE0DA6B7B3E7C602E9D63B95D1EBE89F06A169F79347B08D94EC2AA7 DUP2 MSTORE PUSH1 0x20 ADD PUSH32 0x2AD8819CA7F4E8478254AC061F231C9883B56695E21AC36326C7825261C08FDC DUP2 MSTORE POP DUP2 PUSH1 0x80 ADD MLOAD PUSH1 0x16 DUP2 MLOAD DUP2 LT PUSH2 0x125B JUMPI INVALID JUMPDEST PUSH1 0x20 MUL PUSH1 0x20 ADD ADD DUP2 SWAP1 MSTORE POP PUSH1 0x40 MLOAD DUP1 PUSH1 0x40 ADD PUSH1 0x40 MSTORE DUP1 PUSH32 0x2779E12A34BD2350A293BA7394D4CB06BEABB0F4D312D80B59BEB2A4B1D0EAA0 DUP2 MSTORE PUSH1 0x20 ADD PUSH32 0x55A009F2C070501DDFD2AC54EEA1DC7588EBF3BB742AFC23F7E33F35C579BBB DUP2 MSTORE POP DUP2 PUSH1 0x80 ADD MLOAD PUSH1 0x17 DUP2 MLOAD DUP2 LT PUSH2 0x12CC JUMPI INVALID JUMPDEST PUSH1 0x20 MUL PUSH1 0x20 ADD ADD DUP2 SWAP1 MSTORE POP PUSH1 0x40 MLOAD DUP1 PUSH1 0x40 ADD PUSH1 0x40 MSTORE DUP1 PUSH32 0x2B219915447E5FA78AC17ED42F26663396A81070BC7A0DA41D08E1853B148411 DUP2 MSTORE PUSH1 0x20 ADD PUSH32 0x12E043333920283D9C8AF63F5C5E2466DAFE279FAEDC1B910C2FE441ECF856C DUP2 MSTORE POP DUP2 PUSH1 0x80 ADD MLOAD PUSH1 0x18 DUP2 MLOAD DUP2 LT PUSH2 0x133D JUMPI INVALID JUMPDEST PUSH1 0x20 MUL PUSH1 0x20 ADD ADD DUP2 SWAP1 MSTORE POP PUSH1 0x40 MLOAD DUP1 PUSH1 0x40 ADD PUSH1 0x40 MSTORE DUP1 PUSH32 0x2DBBD56899C54EC9ABFC51B843B128988491F55BA2054B6BC9C16821075D6A23 DUP2 MSTORE PUSH1 0x20 ADD PUSH32 0x1392E36BF076D42198129F60BC74631A1857D91ECF6E8708609D5341A4F08CF1 DUP2 MSTORE POP DUP2 PUSH1 0x80 ADD MLOAD PUSH1 0x19 DUP2 MLOAD DUP2 LT PUSH2 0x13AE JUMPI INVALID JUMPDEST PUSH1 0x20 MUL PUSH1 0x20 ADD ADD DUP2 SWAP1 MSTORE POP PUSH1 0x40 MLOAD DUP1 PUSH1 0x40 ADD PUSH1 0x40 MSTORE DUP1 PUSH32 0x188AFA17D0EB0DEBB05562E30142FC012FA253079EBAF0D1D372A636466A75F3 DUP2 MSTORE PUSH1 0x20 ADD PUSH32 0x10E5428DB42AC8B459475D6F6533B0B654CD31BB28DE3FB2BBD569661F62FAAE DUP2 MSTORE POP DUP2 PUSH1 0x80 ADD MLOAD PUSH1 0x1A DUP2 MLOAD DUP2 LT PUSH2 0x141F JUMPI INVALID JUMPDEST PUSH1 0x20 MUL PUSH1 0x20 ADD ADD DUP2 SWAP1 MSTORE POP PUSH1 0x40 MLOAD DUP1 PUSH1 0x40 ADD PUSH1 0x40 MSTORE DUP1 PUSH32 0xCA4CDDAD84AE5E2B1A5AC8A2437EE023DB3A62FE51442FD290FA79081E95687 DUP2 MSTORE PUSH1 0x20 ADD PUSH32 0xC523E68A8F5E24EE19E6C6D97B4814E51AA77BEC4EE833B996AEA67F228293E DUP2 MSTORE POP DUP2 PUSH1 0x80 ADD MLOAD PUSH1 0x1B DUP2 MLOAD DUP2 LT PUSH2 0x1490 JUMPI INVALID JUMPDEST PUSH1 0x20 MUL PUSH1 0x20 ADD ADD DUP2 SWAP1 MSTORE POP PUSH1 0x40 MLOAD DUP1 PUSH1 0x40 ADD PUSH1 0x40 MSTORE DUP1 PUSH32 0x12AF58C21686E9BDD2F5AAA0E22C47310E1055E1CC2559A9562C5E1607B9EF7B DUP2 MSTORE PUSH1 0x20 ADD PUSH32 0xE2AC559B560F0C6162A58ABCD6D996E72C452FD7C772C627BA10C8F098EC679 DUP2 MSTORE POP DUP2 PUSH1 0x80 ADD MLOAD PUSH1 0x1C DUP2 MLOAD DUP2 LT PUSH2 0x1501 JUMPI INVALID JUMPDEST PUSH1 0x20 MUL PUSH1 0x20 ADD ADD DUP2 SWAP1 MSTORE POP PUSH1 0x40 MLOAD DUP1 PUSH1 0x40 ADD PUSH1 0x40 MSTORE DUP1 PUSH32 0x1AB9CDA41948B456086C54AF96E343EC97B19482ABE02A34B0E6EB2273DB381F DUP2 MSTORE PUSH1 0x20 ADD PUSH32 0x203B020A508022ED5F22BB91220F7E1566F5C2430A1C22FE28632C26F8EEE42B DUP2 MSTORE POP DUP2 PUSH1 0x80 ADD MLOAD PUSH1 0x1D DUP2 MLOAD DUP2 LT PUSH2 0x1572 JUMPI INVALID JUMPDEST PUSH1 0x20 MUL PUSH1 0x20 ADD ADD DUP2 SWAP1 MSTORE POP PUSH1 0x40 MLOAD DUP1 PUSH1 0x40 ADD PUSH1 0x40 MSTORE DUP1 PUSH32 0xDBC9AAF10CD73CBF6C05474AD0AE37C8B9BEA5B4B5BE318649D161FDF52238D DUP2 MSTORE PUSH1 0x20 ADD PUSH32 0x39C7BABA03BC77A90B4A93251507A52A6ACE3AFD5BEF5765D88986B873051B7 DUP2 MSTORE POP DUP2 PUSH1 0x80 ADD MLOAD PUSH1 0x1E DUP2 MLOAD DUP2 LT PUSH2 0x15E3 JUMPI INVALID JUMPDEST PUSH1 0x20 MUL PUSH1 0x20 ADD ADD DUP2 SWAP1 MSTORE POP PUSH1 0x40 MLOAD DUP1 PUSH1 0x40 ADD PUSH1 0x40 MSTORE DUP1 PUSH31 0xADD961CDE3BCC52CA730EEE9E19760BBB79F3B713B254D0E14F39240ABC3C DUP2 MSTORE PUSH1 0x20 ADD PUSH32 0x256D6F38C28973213ED82C9AA8CA4593C92D4F77967F1FFE3CC5CD1DEA693DBB DUP2 MSTORE POP DUP2 PUSH1 0x80 ADD MLOAD PUSH1 0x1F DUP2 MLOAD DUP2 LT PUSH2 0x1653 JUMPI INVALID JUMPDEST PUSH1 0x20 MUL PUSH1 0x20 ADD ADD DUP2 SWAP1 MSTORE POP PUSH1 0x40 MLOAD DUP1 PUSH1 0x40 ADD PUSH1 0x40 MSTORE DUP1 PUSH32 0x8776871F238E035902ADBDF98B76FEF66ACA91B90923BB53EC6A45491557EAE DUP2 MSTORE PUSH1 0x20 ADD PUSH32 0x6620892632ADF3FB047B050D63C1040C126A0739E19DDD88D7EDF60AFEBDA86 DUP2 MSTORE POP DUP2 PUSH1 0x80 ADD MLOAD PUSH1 0x20 DUP2 MLOAD DUP2 LT PUSH2 0x16C4 JUMPI INVALID JUMPDEST PUSH1 0x20 MUL PUSH1 0x20 ADD ADD DUP2 SWAP1 MSTORE POP PUSH1 0x40 MLOAD DUP1 PUSH1 0x40 ADD PUSH1 0x40 MSTORE DUP1 PUSH32 0x2D14018262290B54A6294279059F9F2D9C01503F7F6F1040EDB3A9920852A1AE DUP2 MSTORE PUSH1 0x20 ADD PUSH32 0x100A153943376AD5B4EA1BFDB53C6B900EE625787F95DE54EEC474C9AD16BCAD DUP2 MSTORE POP DUP2 PUSH1 0x80 ADD MLOAD PUSH1 0x21 DUP2 MLOAD DUP2 LT PUSH2 0x1735 JUMPI INVALID JUMPDEST PUSH1 0x20 MUL PUSH1 0x20 ADD ADD DUP2 SWAP1 MSTORE POP PUSH1 0x40 MLOAD DUP1 PUSH1 0x40 ADD PUSH1 0x40 MSTORE DUP1 PUSH31 0xF5C9C90E08017EE0969563E460E674E72F05B7AD0381EBCDAF604A51D77007 DUP2 MSTORE PUSH1 0x20 ADD PUSH32 0x133A434392EA93DA3A50831410EBDD18EF16DAD3D8CEB1535738C7F9090446B7 DUP2 MSTORE POP DUP2 PUSH1 0x80 ADD MLOAD PUSH1 0x22 DUP2 MLOAD DUP2 LT PUSH2 0x17A5 JUMPI INVALID JUMPDEST PUSH1 0x20 MUL PUSH1 0x20 ADD ADD DUP2 SWAP1 MSTORE POP PUSH1 0x40 MLOAD DUP1 PUSH1 0x40 ADD PUSH1 0x40 MSTORE DUP1 PUSH32 0x35D14D72A173D0BF727418A3C8B6DD00F20CECF970D92A5CB8BD2D6290541AE DUP2 MSTORE PUSH1 0x20 ADD PUSH32 0x1B176F2BF8691E21D9DFA7207E9CD1BFC456E95059DF67AB9597B2D335AFC0A7 DUP2 MSTORE POP DUP2 PUSH1 0x80 ADD MLOAD PUSH1 0x23 DUP2 MLOAD DUP2 LT PUSH2 0x1816 JUMPI INVALID JUMPDEST PUSH1 0x20 MUL PUSH1 0x20 ADD ADD DUP2 SWAP1 MSTORE POP PUSH1 0x40 MLOAD DUP1 PUSH1 0x40 ADD PUSH1 0x40 MSTORE DUP1 PUSH32 0x13865B29935C83DE2B79A8CC85E0E99147FC0A23A8EAC921DA47AE89421265FC DUP2 MSTORE PUSH1 0x20 ADD PUSH32 0x186FD2BFC2FAE7A7B7C6D6BAF94B5BA84F31B5A23875A66DF54234CB7FB4982B DUP2 MSTORE POP DUP2 PUSH1 0x80 ADD MLOAD PUSH1 0x24 DUP2 MLOAD DUP2 LT PUSH2 0x1887 JUMPI INVALID JUMPDEST PUSH1 0x20 MUL PUSH1 0x20 ADD ADD DUP2 SWAP1 MSTORE POP PUSH1 0x40 MLOAD DUP1 PUSH1 0x40 ADD PUSH1 0x40 MSTORE DUP1 PUSH32 0xB47DA68CF6749DF49FA98A08463A4641C1A0E6DAE7B63E7B4FCD3413BD35F11 DUP2 MSTORE PUSH1 0x20 ADD PUSH32 0x1BF4F4FA03246B61A8107A3FB9B9D51DCA757453001BAFEE95255FDCADEEDC7B DUP2 MSTORE POP DUP2 PUSH1 0x80 ADD MLOAD PUSH1 0x25 DUP2 MLOAD DUP2 LT PUSH2 0x18F8 JUMPI INVALID JUMPDEST PUSH1 0x20 MUL PUSH1 0x20 ADD ADD DUP2 SWAP1 MSTORE POP PUSH1 0x40 MLOAD DUP1 PUSH1 0x40 ADD PUSH1 0x40 MSTORE DUP1 PUSH32 0x1C1F56BE046FC9E33D6EB6031ABA7AD69C6AC7692B8D4CEFA8BCF63AFD2EB4F9 DUP2 MSTORE PUSH1 0x20 ADD PUSH31 0x1162756F095DFEA3BC14F24E9B6800AD93042DDF48804AA9841C4459323D4D DUP2 MSTORE POP DUP2 PUSH1 0x80 ADD MLOAD PUSH1 0x26 DUP2 MLOAD DUP2 LT PUSH2 0x1968 JUMPI INVALID JUMPDEST PUSH1 0x20 MUL PUSH1 0x20 ADD ADD DUP2 SWAP1 MSTORE POP PUSH1 0x40 MLOAD DUP1 PUSH1 0x40 ADD PUSH1 0x40 MSTORE DUP1 PUSH32 0x130341C7E3F06B2C35020CDB837B7315B16A798D4876BBBE47A252B591AD29E6 DUP2 MSTORE PUSH1 0x20 ADD PUSH32 0x2F61880A8EACD7D3107030609B7BA173AE1880871B5BDB6B7E0EADB4EE106E4E DUP2 MSTORE POP DUP2 PUSH1 0x80 ADD MLOAD PUSH1 0x27 DUP2 MLOAD DUP2 LT PUSH2 0x19D9 JUMPI INVALID JUMPDEST PUSH1 0x20 MUL PUSH1 0x20 ADD ADD DUP2 SWAP1 MSTORE POP PUSH1 0x40 MLOAD DUP1 PUSH1 0x40 ADD PUSH1 0x40 MSTORE DUP1 PUSH32 0x2582E45EE3221A2F88E18C3C14D79EAEF54D8159789A3AA70E69CBA409AC017C DUP2 MSTORE PUSH1 0x20 ADD PUSH32 0x362AD8DD148BE4A0C56DAFB7331FB7A3C76CDF33A9A4D337E27124BABFED7EC DUP2 MSTORE POP DUP2 PUSH1 0x80 ADD MLOAD PUSH1 0x28 DUP2 MLOAD DUP2 LT PUSH2 0x1A4A JUMPI INVALID JUMPDEST PUSH1 0x20 MUL PUSH1 0x20 ADD ADD DUP2 SWAP1 MSTORE POP PUSH1 0x40 MLOAD DUP1 PUSH1 0x40 ADD PUSH1 0x40 MSTORE DUP1 PUSH32 0x195AD02603C7BFA685A0F65907EC208400FC558EED4624B490DF9B74124CABB2 DUP2 MSTORE PUSH1 0x20 ADD PUSH32 0x24FF3092E70D569B3F322244689B1A2DEB252B0E6CDF9198728441D4D8DF4A62 DUP2 MSTORE POP DUP2 PUSH1 0x80 ADD MLOAD PUSH1 0x29 DUP2 MLOAD DUP2 LT PUSH2 0x1ABB JUMPI INVALID JUMPDEST PUSH1 0x20 MUL PUSH1 0x20 ADD ADD DUP2 SWAP1 MSTORE POP PUSH1 0x40 MLOAD DUP1 PUSH1 0x40 ADD PUSH1 0x40 MSTORE DUP1 PUSH31 0x7CD763BE3301FFD15CC978CE3E975C2BB9C336910BC584E16CE3ABE3DBA194 DUP2 MSTORE PUSH1 0x20 ADD PUSH32 0x219C03C22C6F853CC15AB2F33175CE564C54B0AB1A7C1FC06A5901CBCBD3D33A DUP2 MSTORE POP DUP2 PUSH1 0x80 ADD MLOAD PUSH1 0x2A DUP2 MLOAD DUP2 LT PUSH2 0x1B2B JUMPI INVALID JUMPDEST PUSH1 0x20 MUL PUSH1 0x20 ADD ADD DUP2 SWAP1 MSTORE POP PUSH1 0x40 MLOAD DUP1 PUSH1 0x40 ADD PUSH1 0x40 MSTORE DUP1 PUSH32 0x168EF84235228AA771B2B4627C96206CEE084133C23F0F2BE07646CF133ADFD8 DUP2 MSTORE PUSH1 0x20 ADD PUSH32 0xDE8301B1AF69E700AD0010EF1E846601C8E4BE03F71C81760D4115A99335255 DUP2 MSTORE POP DUP2 PUSH1 0x80 ADD MLOAD PUSH1 0x2B DUP2 MLOAD DUP2 LT PUSH2 0x1B9C JUMPI INVALID JUMPDEST PUSH1 0x20 MUL PUSH1 0x20 ADD ADD DUP2 SWAP1 MSTORE POP PUSH1 0x40 MLOAD DUP1 PUSH1 0x40 ADD PUSH1 0x40 MSTORE DUP1 PUSH32 0x178C6C7EF03E971A2B4EEE32D9A5A1CC3F4817FE89169B816FE3C2B55E947FFE DUP2 MSTORE PUSH1 0x20 ADD PUSH32 0x4B07436AFBEEB9C2841764EE845B261CF1517DBE77BF41415ABA6C0C28B2E1D DUP2 MSTORE POP DUP2 PUSH1 0x80 ADD MLOAD PUSH1 0x2C DUP2 MLOAD DUP2 LT PUSH2 0x1C0D JUMPI INVALID JUMPDEST PUSH1 0x20 MUL PUSH1 0x20 ADD ADD DUP2 SWAP1 MSTORE POP SWAP1 JUMP JUMPDEST PUSH2 0x1C23 PUSH2 0x226B JUMP JUMPDEST PUSH2 0x1C2B PUSH2 0x2285 JUMP JUMPDEST DUP4 PUSH1 0x0 ADD MLOAD DUP2 PUSH1 0x0 PUSH1 0x3 DUP2 LT PUSH2 0x1C3D JUMPI INVALID JUMPDEST PUSH1 0x20 MUL ADD DUP2 DUP2 MSTORE POP POP DUP4 PUSH1 0x20 ADD MLOAD DUP2 PUSH1 0x1 PUSH1 0x3 DUP2 LT PUSH2 0x1C58 JUMPI INVALID JUMPDEST PUSH1 0x20 MUL ADD DUP2 DUP2 MSTORE POP POP DUP3 DUP2 PUSH1 0x2 PUSH1 0x3 DUP2 LT PUSH2 0x1C6F JUMPI INVALID JUMPDEST PUSH1 0x20 MUL ADD DUP2 DUP2 MSTORE POP POP PUSH1 0x0 PUSH1 0x60 DUP4 PUSH1 0x80 DUP5 PUSH1 0x7 PUSH2 0x7D0 GAS SUB STATICCALL SWAP1 POP DUP1 PUSH1 0x0 DUP2 EQ PUSH2 0x1C98 JUMPI PUSH2 0x1C9A JUMP JUMPDEST INVALID JUMPDEST POP DUP1 PUSH2 0x1CA5 JUMPI PUSH1 0x0 DUP1 REVERT JUMPDEST POP POP SWAP3 SWAP2 POP POP JUMP JUMPDEST PUSH2 0x1CB5 PUSH2 0x226B JUMP JUMPDEST PUSH2 0x1CBD PUSH2 0x22A7 JUMP JUMPDEST DUP4 PUSH1 0x0 ADD MLOAD DUP2 PUSH1 0x0 PUSH1 0x4 DUP2 LT PUSH2 0x1CCF JUMPI INVALID JUMPDEST PUSH1 0x20 MUL ADD DUP2 DUP2 MSTORE POP POP DUP4 PUSH1 0x20 ADD MLOAD DUP2 PUSH1 0x1 PUSH1 0x4 DUP2 LT PUSH2 0x1CEA JUMPI INVALID JUMPDEST PUSH1 0x20 MUL ADD DUP2 DUP2 MSTORE POP POP DUP3 PUSH1 0x0 ADD MLOAD DUP2 PUSH1 0x2 PUSH1 0x4 DUP2 LT PUSH2 0x1D05 JUMPI INVALID JUMPDEST PUSH1 0x20 MUL ADD DUP2 DUP2 MSTORE POP POP DUP3 PUSH1 0x20 ADD MLOAD DUP2 PUSH1 0x3 PUSH1 0x4 DUP2 LT PUSH2 0x1D20 JUMPI INVALID JUMPDEST PUSH1 0x20 MUL ADD DUP2 DUP2 MSTORE POP POP PUSH1 0x0 PUSH1 0x60 DUP4 PUSH1 0xC0 DUP5 PUSH1 0x6 PUSH2 0x7D0 GAS SUB STATICCALL SWAP1 POP DUP1 PUSH1 0x0 DUP2 EQ PUSH2 0x1D49 JUMPI PUSH2 0x1D4B JUMP JUMPDEST INVALID JUMPDEST POP DUP1 PUSH2 0x1D56 JUMPI PUSH1 0x0 DUP1 REVERT JUMPDEST POP POP SWAP3 SWAP2 POP POP JUMP JUMPDEST PUSH2 0x1D66 PUSH2 0x226B JUMP JUMPDEST PUSH1 0x0 PUSH32 0x30644E72E131A029B85045B68181585D97816A916871CA8D3C208C16D87CFD47 SWAP1 POP PUSH1 0x0 DUP4 PUSH1 0x0 ADD MLOAD EQ DUP1 ISZERO PUSH2 0x1DA3 JUMPI POP PUSH1 0x0 DUP4 PUSH1 0x20 ADD MLOAD EQ JUMPDEST ISZERO PUSH2 0x1DC7 JUMPI PUSH1 0x40 MLOAD DUP1 PUSH1 0x40 ADD PUSH1 0x40 MSTORE DUP1 PUSH1 0x0 DUP2 MSTORE PUSH1 0x20 ADD PUSH1 0x0 DUP2 MSTORE POP SWAP2 POP POP PUSH2 0x1DF3 JUMP JUMPDEST PUSH1 0x40 MLOAD DUP1 PUSH1 0x40 ADD PUSH1 0x40 MSTORE DUP1 DUP5 PUSH1 0x0 ADD MLOAD DUP2 MSTORE PUSH1 0x20 ADD DUP3 DUP6 PUSH1 0x20 ADD MLOAD DUP2 PUSH2 0x1DE9 JUMPI INVALID JUMPDEST MOD DUP4 SUB DUP2 MSTORE POP SWAP2 POP POP JUMPDEST SWAP2 SWAP1 POP JUMP JUMPDEST PUSH1 0x0 PUSH1 0x60 PUSH1 0x4 PUSH8 0xFFFFFFFFFFFFFFFF DUP2 GT DUP1 ISZERO PUSH2 0x1E14 JUMPI PUSH1 0x0 DUP1 REVERT JUMPDEST POP PUSH1 0x40 MLOAD SWAP1 DUP1 DUP3 MSTORE DUP1 PUSH1 0x20 MUL PUSH1 0x20 ADD DUP3 ADD PUSH1 0x40 MSTORE DUP1 ISZERO PUSH2 0x1E4E JUMPI DUP2 PUSH1 0x20 ADD JUMPDEST PUSH2 0x1E3B PUSH2 0x226B JUMP JUMPDEST DUP2 MSTORE PUSH1 0x20 ADD SWAP1 PUSH1 0x1 SWAP1 SUB SWAP1 DUP2 PUSH2 0x1E33 JUMPI SWAP1 POP JUMPDEST POP SWAP1 POP PUSH1 0x60 PUSH1 0x4 PUSH8 0xFFFFFFFFFFFFFFFF DUP2 GT DUP1 ISZERO PUSH2 0x1E6B JUMPI PUSH1 0x0 DUP1 REVERT JUMPDEST POP PUSH1 0x40 MLOAD SWAP1 DUP1 DUP3 MSTORE DUP1 PUSH1 0x20 MUL PUSH1 0x20 ADD DUP3 ADD PUSH1 0x40 MSTORE DUP1 ISZERO PUSH2 0x1EA5 JUMPI DUP2 PUSH1 0x20 ADD JUMPDEST PUSH2 0x1E92 PUSH2 0x22C9 JUMP JUMPDEST DUP2 MSTORE PUSH1 0x20 ADD SWAP1 PUSH1 0x1 SWAP1 SUB SWAP1 DUP2 PUSH2 0x1E8A JUMPI SWAP1 POP JUMPDEST POP SWAP1 POP DUP11 DUP3 PUSH1 0x0 DUP2 MLOAD DUP2 LT PUSH2 0x1EB6 JUMPI INVALID JUMPDEST PUSH1 0x20 MUL PUSH1 0x20 ADD ADD DUP2 SWAP1 MSTORE POP DUP9 DUP3 PUSH1 0x1 DUP2 MLOAD DUP2 LT PUSH2 0x1ECF JUMPI INVALID JUMPDEST PUSH1 0x20 MUL PUSH1 0x20 ADD ADD DUP2 SWAP1 MSTORE POP DUP7 DUP3 PUSH1 0x2 DUP2 MLOAD DUP2 LT PUSH2 0x1EE8 JUMPI INVALID JUMPDEST PUSH1 0x20 MUL PUSH1 0x20 ADD ADD DUP2 SWAP1 MSTORE POP DUP5 DUP3 PUSH1 0x3 DUP2 MLOAD DUP2 LT PUSH2 0x1F01 JUMPI INVALID JUMPDEST PUSH1 0x20 MUL PUSH1 0x20 ADD ADD DUP2 SWAP1 MSTORE POP DUP10 DUP2 PUSH1 0x0 DUP2 MLOAD DUP2 LT PUSH2 0x1F1A JUMPI INVALID JUMPDEST PUSH1 0x20 MUL PUSH1 0x20 ADD ADD DUP2 SWAP1 MSTORE POP DUP8 DUP2 PUSH1 0x1 DUP2 MLOAD DUP2 LT PUSH2 0x1F33 JUMPI INVALID JUMPDEST PUSH1 0x20 MUL PUSH1 0x20 ADD ADD DUP2 SWAP1 MSTORE POP DUP6 DUP2 PUSH1 0x2 DUP2 MLOAD DUP2 LT PUSH2 0x1F4C JUMPI INVALID JUMPDEST PUSH1 0x20 MUL PUSH1 0x20 ADD ADD DUP2 SWAP1 MSTORE POP DUP4 DUP2 PUSH1 0x3 DUP2 MLOAD DUP2 LT PUSH2 0x1F65 JUMPI INVALID JUMPDEST PUSH1 0x20 MUL PUSH1 0x20 ADD ADD DUP2 SWAP1 MSTORE POP PUSH2 0x1F7A DUP3 DUP3 PUSH2 0x1F8A JUMP JUMPDEST SWAP3 POP POP POP SWAP9 SWAP8 POP POP POP POP POP POP POP POP JUMP JUMPDEST PUSH1 0x0 DUP2 MLOAD DUP4 MLOAD EQ PUSH2 0x1F9A JUMPI PUSH1 0x0 DUP1 REVERT JUMPDEST PUSH1 0x0 DUP4 MLOAD SWAP1 POP PUSH1 0x0 PUSH1 0x6 DUP3 MUL SWAP1 POP PUSH1 0x60 DUP2 PUSH8 0xFFFFFFFFFFFFFFFF DUP2 GT DUP1 ISZERO PUSH2 0x1FC1 JUMPI PUSH1 0x0 DUP1 REVERT JUMPDEST POP PUSH1 0x40 MLOAD SWAP1 DUP1 DUP3 MSTORE DUP1 PUSH1 0x20 MUL PUSH1 0x20 ADD DUP3 ADD PUSH1 0x40 MSTORE DUP1 ISZERO PUSH2 0x1FF0 JUMPI DUP2 PUSH1 0x20 ADD PUSH1 0x20 DUP3 MUL DUP1 CALLDATASIZE DUP4 CALLDATACOPY DUP1 DUP3 ADD SWAP2 POP POP SWAP1 POP JUMPDEST POP SWAP1 POP PUSH1 0x0 JUMPDEST DUP4 DUP2 LT ISZERO PUSH2 0x2193 JUMPI DUP7 DUP2 DUP2 MLOAD DUP2 LT PUSH2 0x200A JUMPI INVALID JUMPDEST PUSH1 0x20 MUL PUSH1 0x20 ADD ADD MLOAD PUSH1 0x0 ADD MLOAD DUP3 PUSH1 0x0 PUSH1 0x6 DUP5 MUL ADD DUP2 MLOAD DUP2 LT PUSH2 0x2028 JUMPI INVALID JUMPDEST PUSH1 0x20 MUL PUSH1 0x20 ADD ADD DUP2 DUP2 MSTORE POP POP DUP7 DUP2 DUP2 MLOAD DUP2 LT PUSH2 0x2040 JUMPI INVALID JUMPDEST PUSH1 0x20 MUL PUSH1 0x20 ADD ADD MLOAD PUSH1 0x20 ADD MLOAD DUP3 PUSH1 0x1 PUSH1 0x6 DUP5 MUL ADD DUP2 MLOAD DUP2 LT PUSH2 0x205E JUMPI INVALID JUMPDEST PUSH1 0x20 MUL PUSH1 0x20 ADD ADD DUP2 DUP2 MSTORE POP POP DUP6 DUP2 DUP2 MLOAD DUP2 LT PUSH2 0x2076 JUMPI INVALID JUMPDEST PUSH1 0x20 MUL PUSH1 0x20 ADD ADD MLOAD PUSH1 0x0 ADD MLOAD PUSH1 0x1 PUSH1 0x2 DUP2 LT PUSH2 0x208E JUMPI INVALID JUMPDEST PUSH1 0x20 MUL ADD MLOAD DUP3 PUSH1 0x2 PUSH1 0x6 DUP5 MUL ADD DUP2 MLOAD DUP2 LT PUSH2 0x20A5 JUMPI INVALID JUMPDEST PUSH1 0x20 MUL PUSH1 0x20 ADD ADD DUP2 DUP2 MSTORE POP POP DUP6 DUP2 DUP2 MLOAD DUP2 LT PUSH2 0x20BD JUMPI INVALID JUMPDEST PUSH1 0x20 MUL PUSH1 0x20 ADD ADD MLOAD PUSH1 0x0 ADD MLOAD PUSH1 0x0 PUSH1 0x2 DUP2 LT PUSH2 0x20D5 JUMPI INVALID JUMPDEST PUSH1 0x20 MUL ADD MLOAD DUP3 PUSH1 0x3 PUSH1 0x6 DUP5 MUL ADD DUP2 MLOAD DUP2 LT PUSH2 0x20EC JUMPI INVALID JUMPDEST PUSH1 0x20 MUL PUSH1 0x20 ADD ADD DUP2 DUP2 MSTORE POP POP DUP6 DUP2 DUP2 MLOAD DUP2 LT PUSH2 0x2104 JUMPI INVALID JUMPDEST PUSH1 0x20 MUL PUSH1 0x20 ADD ADD MLOAD PUSH1 0x20 ADD MLOAD PUSH1 0x1 PUSH1 0x2 DUP2 LT PUSH2 0x211C JUMPI INVALID JUMPDEST PUSH1 0x20 MUL ADD MLOAD DUP3 PUSH1 0x4 PUSH1 0x6 DUP5 MUL ADD DUP2 MLOAD DUP2 LT PUSH2 0x2133 JUMPI INVALID JUMPDEST PUSH1 0x20 MUL PUSH1 0x20 ADD ADD DUP2 DUP2 MSTORE POP POP DUP6 DUP2 DUP2 MLOAD DUP2 LT PUSH2 0x214B JUMPI INVALID JUMPDEST PUSH1 0x20 MUL PUSH1 0x20 ADD ADD MLOAD PUSH1 0x20 ADD MLOAD PUSH1 0x0 PUSH1 0x2 DUP2 LT PUSH2 0x2163 JUMPI INVALID JUMPDEST PUSH1 0x20 MUL ADD MLOAD DUP3 PUSH1 0x5 PUSH1 0x6 DUP5 MUL ADD DUP2 MLOAD DUP2 LT PUSH2 0x217A JUMPI INVALID JUMPDEST PUSH1 0x20 MUL PUSH1 0x20 ADD ADD DUP2 DUP2 MSTORE POP POP DUP1 DUP1 PUSH1 0x1 ADD SWAP2 POP POP PUSH2 0x1FF6 JUMP JUMPDEST POP PUSH2 0x219C PUSH2 0x22EF JUMP JUMPDEST PUSH1 0x0 PUSH1 0x20 DUP3 PUSH1 0x20 DUP7 MUL PUSH1 0x20 DUP7 ADD PUSH1 0x8 PUSH2 0x7D0 GAS SUB STATICCALL SWAP1 POP DUP1 PUSH1 0x0 DUP2 EQ PUSH2 0x21C1 JUMPI PUSH2 0x21C3 JUMP JUMPDEST INVALID JUMPDEST POP DUP1 PUSH2 0x21CE JUMPI PUSH1 0x0 DUP1 REVERT JUMPDEST PUSH1 0x0 DUP3 PUSH1 0x0 PUSH1 0x1 DUP2 LT PUSH2 0x21DD JUMPI INVALID JUMPDEST PUSH1 0x20 MUL ADD MLOAD EQ ISZERO SWAP6 POP POP POP POP POP POP SWAP3 SWAP2 POP POP JUMP JUMPDEST PUSH1 0x40 MLOAD DUP1 PUSH1 0x60 ADD PUSH1 0x40 MSTORE DUP1 PUSH2 0x2204 PUSH2 0x226B JUMP JUMPDEST DUP2 MSTORE PUSH1 0x20 ADD PUSH2 0x2211 PUSH2 0x22C9 JUMP JUMPDEST DUP2 MSTORE PUSH1 0x20 ADD PUSH2 0x221E PUSH2 0x226B JUMP JUMPDEST DUP2 MSTORE POP SWAP1 JUMP JUMPDEST PUSH1 0x40 MLOAD DUP1 PUSH1 0xA0 ADD PUSH1 0x40 MSTORE DUP1 PUSH2 0x2237 PUSH2 0x226B JUMP JUMPDEST DUP2 MSTORE PUSH1 0x20 ADD PUSH2 0x2244 PUSH2 0x22C9 JUMP JUMPDEST DUP2 MSTORE PUSH1 0x20 ADD PUSH2 0x2251 PUSH2 0x22C9 JUMP JUMPDEST DUP2 MSTORE PUSH1 0x20 ADD PUSH2 0x225E PUSH2 0x22C9 JUMP JUMPDEST DUP2 MSTORE PUSH1 0x20 ADD PUSH1 0x60 DUP2 MSTORE POP SWAP1 JUMP JUMPDEST PUSH1 0x40 MLOAD DUP1 PUSH1 0x40 ADD PUSH1 0x40 MSTORE DUP1 PUSH1 0x0 DUP2 MSTORE PUSH1 0x20 ADD PUSH1 0x0 DUP2 MSTORE POP SWAP1 JUMP JUMPDEST PUSH1 0x40 MLOAD DUP1 PUSH1 0x60 ADD PUSH1 0x40 MSTORE DUP1 PUSH1 0x3 SWAP1 PUSH1 0x20 DUP3 MUL DUP1 CALLDATASIZE DUP4 CALLDATACOPY DUP1 DUP3 ADD SWAP2 POP POP SWAP1 POP POP SWAP1 JUMP JUMPDEST PUSH1 0x40 MLOAD DUP1 PUSH1 0x80 ADD PUSH1 0x40 MSTORE DUP1 PUSH1 0x4 SWAP1 PUSH1 0x20 DUP3 MUL DUP1 CALLDATASIZE DUP4 CALLDATACOPY DUP1 DUP3 ADD SWAP2 POP POP SWAP1 POP POP SWAP1 JUMP JUMPDEST PUSH1 0x40 MLOAD DUP1 PUSH1 0x40 ADD PUSH1 0x40 MSTORE DUP1 PUSH2 0x22DC PUSH2 0x2311 JUMP JUMPDEST DUP2 MSTORE PUSH1 0x20 ADD PUSH2 0x22E9 PUSH2 0x2311 JUMP JUMPDEST DUP2 MSTORE POP SWAP1 JUMP JUMPDEST PUSH1 0x40 MLOAD DUP1 PUSH1 0x20 ADD PUSH1 0x40 MSTORE DUP1 PUSH1 0x1 SWAP1 PUSH1 0x20 DUP3 MUL DUP1 CALLDATASIZE DUP4 CALLDATACOPY DUP1 DUP3 ADD SWAP2 POP POP SWAP1 POP POP SWAP1 JUMP JUMPDEST PUSH1 0x40 MLOAD DUP1 PUSH1 0x40 ADD PUSH1 0x40 MSTORE DUP1 PUSH1 0x2 SWAP1 PUSH1 0x20 DUP3 MUL DUP1 CALLDATASIZE DUP4 CALLDATACOPY DUP1 DUP3 ADD SWAP2 POP POP SWAP1 POP POP SWAP1 JUMP INVALID LOG2 PUSH5 0x6970667358 0x22 SLT KECCAK256 0x48 PUSH17 0xE09D3EB7F23AFA04AFA889B8D294C6970E 0xDF XOR 0xEA PUSH17 0x392988322008FB831764736F6C63430006 0xC STOP CALLER "
		},
		"gasEstimates": {
			"creation": {
				"codeDepositCost": "1813000",
				"executionCost": "1937",
				"totalCost": "1814937"
			},
			"external": {
				"verifyTx(uint256[2],uint256[2][2],uint256[2],uint256[44])": "infinite"
			},
			"internal": {
				"verify(uint256[] memory,struct Verifier.Proof memory)": "infinite",
				"verifyingKey()": "infinite"
			}
		},
		"methodIdentifiers": {
			"verifyTx(uint256[2],uint256[2][2],uint256[2],uint256[44])": "749eb4a4"
		}
	},
	"abi": [
		{
			"inputs": [
				{
					"internalType": "uint256[2]",
					"name": "a",
					"type": "uint256[2]"
				},
				{
					"internalType": "uint256[2][2]",
					"name": "b",
					"type": "uint256[2][2]"
				},
				{
					"internalType": "uint256[2]",
					"name": "c",
					"type": "uint256[2]"
				},
				{
					"internalType": "uint256[44]",
					"name": "input",
					"type": "uint256[44]"
				}
			],
			"name": "verifyTx",
			"outputs": [
				{
					"internalType": "bool",
					"name": "r",
					"type": "bool"
				}
			],
			"stateMutability": "view",
			"type": "function"
		}
	]
}